{
  "contractName": "OracleExampleAugur2",
  "abi": [
    {
      "constant": true,
      "inputs": [],
      "name": "oicash",
      "outputs": [
        {
          "internalType": "contract OICash",
          "name": "",
          "type": "address"
        }
      ],
      "payable": false,
      "stateMutability": "view",
      "type": "function"
    },
    {
      "constant": false,
      "inputs": [
        {
          "internalType": "uint256",
          "name": "_amount",
          "type": "uint256"
        }
      ],
      "name": "augurDeposit",
      "outputs": [],
      "payable": false,
      "stateMutability": "nonpayable",
      "type": "function"
    },
    {
      "constant": false,
      "inputs": [
        {
          "internalType": "uint256",
          "name": "_amount",
          "type": "uint256"
        }
      ],
      "name": "augurWithdraw",
      "outputs": [],
      "payable": false,
      "stateMutability": "nonpayable",
      "type": "function"
    }
  ],
  "bytecode": "0x6080604052600080546001600160a01b03191673bd41281de5e4ca62602ed7c134f46d831a340b7817905534801561003657600080fd5b50610274806100466000396000f3fe608060405234801561001057600080fd5b50600436106100415760003560e01c80631b3b05ac14610046578063cbdcadb51461006a578063d6bd763214610089575b600080fd5b61004e6100a6565b604080516001600160a01b039092168252519081900360200190f35b6100876004803603602081101561008057600080fd5b50356100b5565b005b6100876004803603602081101561009f57600080fd5b503561017c565b6000546001600160a01b031681565b6000805460408051632e1a7d4d60e01b81526004810185905290516001600160a01b0390921692632e1a7d4d926024808401936020939083900390910190829087803b15801561010457600080fd5b505af1158015610118573d6000803e3d6000fd5b505050506040513d602081101561012e57600080fd5b5051610179576040805162461bcd60e51b8152602060048201526015602482015274105d59dd5c881dda5d1a191c985dc819985a5b1959605a1b604482015290519081900360640190fd5b50565b600080546040805163b6b55f2560e01b81526004810185905290516001600160a01b039092169263b6b55f25926024808401936020939083900390910190829087803b1580156101cb57600080fd5b505af11580156101df573d6000803e3d6000fd5b505050506040513d60208110156101f557600080fd5b5051610179576040805162461bcd60e51b8152602060048201526014602482015273105d59dd5c8819195c1bdcda5d0819985a5b195960621b604482015290519081900360640190fdfea265627a7a723158209d818d9e6c3b6d9ca132efcd3bb42014efb5c38aa6bb3b41745195efc992b03364736f6c634300050d0032",
  "source": "pragma solidity ^0.5.0;\n\ninterface IMarket \n{\n    function getWinningPayoutNumerator(uint256 _outcome) external view returns (uint256);\n}\n\ncontract OracleExampleAugur1 {\n\n    // replace with the market's address\n    IMarket public market = IMarket(0x34A971cA2fd6DA2Ce2969D716dF922F17aAA1dB0); \n\n    function getWinnerFromAugurBinaryMarket() public view {\n        if (market.getWinningPayoutNumerator(0) > 0) {\n            // insert logic for Invalid outcome\n        } else if (market.getWinningPayoutNumerator(1) > 0)  {\n            // insert logic for Yes outcome\n        } else if (market.getWinningPayoutNumerator(2) > 0) {\n            // insert logic for No outcome\n        } else {\n            // insert logic for market not yet settled\n        }\n    }\n}\n\ninterface OICash\n{\n    function deposit(uint256 _amount) external returns (bool);\n    function withdraw(uint256 _amount) external returns (bool);\n}\n\ncontract OracleExampleAugur2 {\n\n    // replace with the current contract address\n    OICash public oicash = OICash(0xbD41281dE5E4cA62602ed7c134f46d831A340B78);\n\n    function augurDeposit(uint256 _amount) public {\n        require(oicash.deposit(_amount), \"Augur deposit failed\");\n    }\n\n    function augurWithdraw(uint256 _amount) public {\n        require(oicash.withdraw(_amount), \"Augur withdraw failed\");\n    }\n}\n\ninterface IRealitio \n{\n    function askQuestion(\n        uint256 template_id, \n        string calldata question, \n        address arbitrator, \n        uint32 timeout, \n        uint32 opening_ts, \n        uint256 nonce) \n        external payable returns (bytes32);\n    function resultFor(bytes32 question_id) external view returns (bytes32);\n    function isFinalized(bytes32 question_id) external view returns (bool);\n}\n\ncontract OracleExampleRealitio1 {\n\n    // this is the current mainnet address\n    IRealitio public realitio = IRealitio(0x325a2e0F3CCA2ddbaeBB4DfC38Df8D19ca165b47);\n\n    // example market data:\n    uint256 public template_id = 2; \n    string public question = \n        'Who will win the 2020 US General Election␟\"Donald Trump\",\"Joe Biden\"␟news-politics␟en_US';\n    address public arbitrator = 0xd47f72a2d1d0E91b0Ec5e5f5d02B2dc26d00A14D; // kleros.io mainnet address\n    uint32 public timeout = 86400; // one day\n    uint32 public opening_ts = 1604448000; // Nov 4th 2020\n    uint256 public nonce = 0;\n\n    function _postQuestion() public returns (bytes32) {\n        return\n            realitio.askQuestion(\n            template_id,\n            question,\n            arbitrator,\n            timeout,\n            opening_ts,\n            nonce\n            );\n    }\n}\n\ncontract OracleExampleRealitio2 {\n\n    // this is the current mainnet address\n    IRealitio public realitio = IRealitio(0x325a2e0F3CCA2ddbaeBB4DfC38Df8D19ca165b47);\n\n    function getWinnerFromRealitioBinaryMarket(bytes32 _questionId) public view {\n        if (realitio.isFinalized(_questionId)) {\n            bytes32 _winningOutcome = realitio.resultFor(_questionId);\n            uint _winningOutcomeUint = uint256(_winningOutcome);\n            if (_winningOutcomeUint == 0) {\n                // insert logic for the first listed outcome\n            } else if (_winningOutcomeUint == 1) {\n                // insert logic for the second listed outcome\n            } else if (_winningOutcomeUint == ((2**256)-1)) {\n                // insert logic for Invalid outcome\n            }\n        }       \n    }\n}",
  "sourcePath": "/Users/mcplums/Repos/RealityCards/contracts/oracle.sol",
  "compiler": {
    "name": "solc",
    "version": "0.5.13+commit.5b0b510c.Emscripten.clang"
  },
  "schemaVersion": "3.1.0",
  "updatedAt": "2020-05-16T12:45:06.916Z",
  "devdoc": {
    "methods": {}
  },
  "userdoc": {
    "methods": {}
  }
}