{
  "contractName": "RealitioMockup",
  "abi": [
    {
      "constant": true,
      "inputs": [],
      "name": "actualContentHash",
      "outputs": [
        {
          "internalType": "bytes32",
          "name": "",
          "type": "bytes32"
        }
      ],
      "payable": false,
      "stateMutability": "view",
      "type": "function"
    },
    {
      "constant": true,
      "inputs": [],
      "name": "actualQuestionId",
      "outputs": [
        {
          "internalType": "bytes32",
          "name": "",
          "type": "bytes32"
        }
      ],
      "payable": false,
      "stateMutability": "view",
      "type": "function"
    },
    {
      "constant": false,
      "inputs": [
        {
          "internalType": "uint256",
          "name": "_result",
          "type": "uint256"
        }
      ],
      "name": "setResult",
      "outputs": [],
      "payable": false,
      "stateMutability": "nonpayable",
      "type": "function"
    },
    {
      "constant": false,
      "inputs": [
        {
          "internalType": "uint256",
          "name": "template_id",
          "type": "uint256"
        },
        {
          "internalType": "string",
          "name": "question",
          "type": "string"
        },
        {
          "internalType": "address",
          "name": "arbitrator",
          "type": "address"
        },
        {
          "internalType": "uint32",
          "name": "timeout",
          "type": "uint32"
        },
        {
          "internalType": "uint32",
          "name": "opening_ts",
          "type": "uint32"
        },
        {
          "internalType": "uint256",
          "name": "nonce",
          "type": "uint256"
        }
      ],
      "name": "askQuestion",
      "outputs": [
        {
          "internalType": "bytes32",
          "name": "",
          "type": "bytes32"
        }
      ],
      "payable": true,
      "stateMutability": "payable",
      "type": "function"
    },
    {
      "constant": true,
      "inputs": [
        {
          "internalType": "bytes32",
          "name": "question_id",
          "type": "bytes32"
        }
      ],
      "name": "resultFor",
      "outputs": [
        {
          "internalType": "bytes32",
          "name": "",
          "type": "bytes32"
        }
      ],
      "payable": false,
      "stateMutability": "view",
      "type": "function"
    },
    {
      "constant": true,
      "inputs": [
        {
          "internalType": "bytes32",
          "name": "question_id",
          "type": "bytes32"
        }
      ],
      "name": "isFinalized",
      "outputs": [
        {
          "internalType": "bool",
          "name": "",
          "type": "bool"
        }
      ],
      "payable": false,
      "stateMutability": "view",
      "type": "function"
    },
    {
      "constant": true,
      "inputs": [
        {
          "internalType": "bytes32",
          "name": "question_id",
          "type": "bytes32"
        }
      ],
      "name": "getContentHash",
      "outputs": [
        {
          "internalType": "bytes32",
          "name": "",
          "type": "bytes32"
        }
      ],
      "payable": false,
      "stateMutability": "view",
      "type": "function"
    }
  ],
  "bytecode": "0x60806040526101a460005534801561001657600080fd5b506103d1806100266000396000f3fe6080604052600436106100705760003560e01c8063762c38fd1161004e578063762c38fd146100db5780637f8d429e14610177578063812448a5146101b5578063d09cc57e146101e157610070565b80630732caa41461007557806351577ea91461009c57806375c4a887146100c6575b600080fd5b34801561008157600080fd5b5061008a61020b565b60408051918252519081900360200190f35b3480156100a857600080fd5b5061008a600480360360208110156100bf57600080fd5b5035610211565b3480156100d257600080fd5b5061008a61022f565b61008a600480360360c08110156100f157600080fd5b8135919081019060408101602082013564010000000081111561011357600080fd5b82018360208201111561012557600080fd5b8035906020019184600183028401116401000000008311171561014757600080fd5b91935091506001600160a01b038135169063ffffffff602082013581169160408101359091169060600135610235565b34801561018357600080fd5b506101a16004803603602081101561019a57600080fd5b503561032b565b604080519115158252519081900360200190f35b3480156101c157600080fd5b506101df600480360360208110156101d857600080fd5b5035610357565b005b3480156101ed57600080fd5b5061008a6004803603602081101561020457600080fd5b5035610374565b60025481565b6000600154821415610226575060025461022a565b5060005b919050565b60015481565b60008088848989604051602001808581526020018463ffffffff1663ffffffff1660e01b8152600401838380828437808301925050509450505050506040516020818303038152906040528051906020012090506000818787338760405160200180868152602001856001600160a01b03166001600160a01b031660601b81526014018463ffffffff1663ffffffff1660e01b8152600401836001600160a01b03166001600160a01b031660601b81526014018281526020019550505050505060405160208183030381529060405280519060200120905081600281905550806001819055508092505050979650505050505050565b6000600154821461033b57600080fd5b6000546101a4141561034f5750600061022a565b50600161022a565b806045141561036b57600019600055610371565b60008190555b50565b600080546101a4141561038657600080fd5b600154821461039457600080fd5b50506000549056fea265627a7a723158202f094dd286ee12b31c43b61b9c322f87dbf4ae62c55c60e86542f78ac8a1455864736f6c634300050d0032",
  "source": "pragma solidity 0.5.13;\n\nimport \"@nomiclabs/buidler/console.sol\";\n\n// this is only for ganache testing. Public chain deployments will use the existing Realitio contracts. \n\ncontract RealitioMockup\n\n{\n    uint result = 420;\n    bytes32 public actualQuestionId;\n    bytes32 public actualContentHash;\n\n    function setResult(uint _result) public\n    {\n        if (_result == 69) {\n            result = ((2**256)-1);\n        } else {\n            result = _result;\n        }\n    }\n\n    function askQuestion(uint256 template_id, string calldata question, address arbitrator, uint32 timeout, uint32 opening_ts, uint256 nonce) external payable returns (bytes32) {\n        bytes32 content_hash = keccak256(abi.encodePacked(template_id, opening_ts, question));\n        bytes32 question_id = keccak256(abi.encodePacked(content_hash, arbitrator, timeout, msg.sender, nonce));\n        actualContentHash = content_hash;\n        actualQuestionId = question_id;\n        return question_id;\n    }\n\n    // 420 = not resolved\n    // 69 = invalid\n    function resultFor(bytes32 question_id) external view returns (bytes32) {\n        require(result != 420);\n        require(question_id == actualQuestionId);\n        return bytes32(result);\n    }\n\n    function isFinalized(bytes32 question_id) external view returns (bool) {\n        require(question_id == actualQuestionId);\n        if (result == 420) {\n            return false;\n        } else {\n            return true;\n        }\n    }\n\n    function getContentHash(bytes32 question_id) external view returns (bytes32) {\n        // console.logBytes32(bytes32 b);\n        if (question_id == actualQuestionId) {\n            return actualContentHash;\n        } else {\n            return 0;\n        }\n    }\n\n}\n\n",
  "sourcePath": "/Users/mcplums/Repos/RealityCards/contracts/mockups/RealitioMockup.sol",
  "compiler": {
    "name": "solc",
    "version": "0.5.13+commit.5b0b510c.Emscripten.clang"
  },
  "schemaVersion": "3.1.0",
  "updatedAt": "2020-05-27T16:46:37.354Z",
  "networkType": "ethereum",
  "devdoc": {
    "methods": {}
  },
  "userdoc": {
    "methods": {}
  }
}