{
    "contractName": "EIP712Base",
    "abi": [
        {
            "constant": true,
            "inputs": [],
            "name": "getChainId",
            "outputs": [
                {
                    "internalType": "uint256",
                    "name": "",
                    "type": "uint256"
                }
            ],
            "payable": false,
            "stateMutability": "pure",
            "type": "function"
        },
        {
            "constant": true,
            "inputs": [],
            "name": "getDomainSeperator",
            "outputs": [
                {
                    "internalType": "bytes32",
                    "name": "",
                    "type": "bytes32"
                }
            ],
            "payable": false,
            "stateMutability": "view",
            "type": "function"
        }
    ],
    "bytecode": "6080604052348015600f57600080fd5b5060948061001e6000396000f3fe6080604052348015600f57600080fd5b506004361060325760003560e01c806320379ee51460375780633408e47014604f575b600080fd5b603d6055565b60408051918252519081900360200190f35b603d605b565b60335490565b469056fea265627a7a72315820d4425843ef3ec38beec76bd91bee1ddce73e95d958ff95a248ad10310fdd750d64736f6c63430005110032",
    "sourcePath": "c:/Users/anyth/Documents/GitHub/RealityCards-Contracts/contracts/lib/EIP712Base.sol",
    "compiler": {
        "name": "solc",
        "version": "0.5.17+commit.d19bba13"
    },
    "functionHashes": {
        "getChainId()": "3408e470",
        "getDomainSeperator()": "20379ee5"
    },
    "gasEstimates": {
        "creation": {
            "codeDepositCost": "29600",
            "executionCost": "81",
            "totalCost": "29681"
        },
        "external": {
            "getChainId()": "197",
            "getDomainSeperator()": "976"
        },
        "internal": {
            "_initializeEIP712(string memory,string memory)": "infinite",
            "_setDomainSeperator(string memory,string memory)": "infinite",
            "toTypedMessageHash(bytes32)": "infinite"
        }
    }
}