{
    "contractName": "NativeMetaTransaction",
    "abi": [
        {
            "anonymous": false,
            "inputs": [
                {
                    "indexed": false,
                    "internalType": "address",
                    "name": "userAddress",
                    "type": "address"
                },
                {
                    "indexed": false,
                    "internalType": "address payable",
                    "name": "relayerAddress",
                    "type": "address"
                },
                {
                    "indexed": false,
                    "internalType": "bytes",
                    "name": "functionSignature",
                    "type": "bytes"
                }
            ],
            "name": "MetaTransactionExecuted",
            "type": "event"
        },
        {
            "constant": false,
            "inputs": [
                {
                    "internalType": "address",
                    "name": "userAddress",
                    "type": "address"
                },
                {
                    "internalType": "bytes",
                    "name": "functionSignature",
                    "type": "bytes"
                },
                {
                    "internalType": "bytes32",
                    "name": "sigR",
                    "type": "bytes32"
                },
                {
                    "internalType": "bytes32",
                    "name": "sigS",
                    "type": "bytes32"
                },
                {
                    "internalType": "uint8",
                    "name": "sigV",
                    "type": "uint8"
                }
            ],
            "name": "executeMetaTransaction",
            "outputs": [
                {
                    "internalType": "bytes",
                    "name": "",
                    "type": "bytes"
                }
            ],
            "payable": true,
            "stateMutability": "payable",
            "type": "function"
        },
        {
            "constant": true,
            "inputs": [],
            "name": "getChainId",
            "outputs": [
                {
                    "internalType": "uint256",
                    "name": "",
                    "type": "uint256"
                }
            ],
            "payable": false,
            "stateMutability": "pure",
            "type": "function"
        },
        {
            "constant": true,
            "inputs": [],
            "name": "getDomainSeperator",
            "outputs": [
                {
                    "internalType": "bytes32",
                    "name": "",
                    "type": "bytes32"
                }
            ],
            "payable": false,
            "stateMutability": "view",
            "type": "function"
        },
        {
            "constant": true,
            "inputs": [
                {
                    "internalType": "address",
                    "name": "user",
                    "type": "address"
                }
            ],
            "name": "getNonce",
            "outputs": [
                {
                    "internalType": "uint256",
                    "name": "nonce",
                    "type": "uint256"
                }
            ],
            "payable": false,
            "stateMutability": "view",
            "type": "function"
        }
    ],
    "bytecode": "608060405234801561001057600080fd5b50610855806100206000396000f3fe60806040526004361061003f5760003560e01c80630c53c51c1461004457806320379ee51461017d5780632d0335ab146101a45780633408e470146101d7575b600080fd5b610108600480360360a081101561005a57600080fd5b6001600160a01b03823516919081019060408101602082013564010000000081111561008557600080fd5b82018360208201111561009757600080fd5b803590602001918460018302840111640100000000831117156100b957600080fd5b91908080601f016020809104026020016040519081016040528093929190818152602001838380828437600092019190915250929550508235935050506020810135906040013560ff166101ec565b6040805160208082528351818301528351919283929083019185019080838360005b8381101561014257818101518382015260200161012a565b50505050905090810190601f16801561016f5780820380516001836020036101000a031916815260200191505b509250505060405180910390f35b34801561018957600080fd5b506101926104ef565b60408051918252519081900360200190f35b3480156101b057600080fd5b50610192600480360360208110156101c757600080fd5b50356001600160a01b03166104f5565b3480156101e357600080fd5b50610192610510565b60606101f661076d565b50604080516060810182526001600160a01b038816600081815260346020908152908490205483528201529081018690526102348782878787610514565b61026f5760405162461bcd60e51b81526004018080602001828103825260218152602001806108006021913960400191505060405180910390fd5b6001600160a01b03871660009081526034602052604090205461029990600163ffffffff6105f116565b6001600160a01b03881660008181526034602090815260408083209490945583519283523383820181905260609484018581528b51958501959095528a517f5845892132946850460bff5a0083f71031bc5bf9aadcd40f1de79423eac9b10b958d9592948d94919260808501928601918190849084905b83811015610328578181015183820152602001610310565b50505050905090810190601f1680156103555780820380516001836020036101000a031916815260200191505b5094505050505060405180910390a160006060306001600160a01b0316888a6040516020018083805190602001908083835b602083106103a65780518252601f199092019160209182019101610387565b6001836020036101000a038019825116818451168082178552505050505050905001826001600160a01b03166001600160a01b031660601b8152601401925050506040516020818303038152906040526040518082805190602001908083835b602083106104255780518252601f199092019160209182019101610406565b6001836020036101000a0380198251168184511680821785525050505050509050019150506000604051808303816000865af19150503d8060008114610487576040519150601f19603f3d011682016040523d82523d6000602084013e61048c565b606091505b5091509150816104e3576040805162461bcd60e51b815260206004820152601c60248201527f46756e6374696f6e2063616c6c206e6f74207375636365737366756c00000000604482015290519081900360640190fd5b98975050505050505050565b60335490565b6001600160a01b031660009081526034602052604090205490565b4690565b60006001600160a01b03861661055b5760405162461bcd60e51b81526004018080602001828103825260258152602001806107db6025913960400191505060405180910390fd5b600161056e61056987610652565b610721565b83868660405160008152602001604052604051808581526020018460ff1660ff1681526020018381526020018281526020019450505050506020604051602081039080840390855afa1580156105c8573d6000803e3d6000fd5b505050602060405103516001600160a01b0316866001600160a01b031614905095945050505050565b60008282018381101561064b576040805162461bcd60e51b815260206004820152601b60248201527f536166654d6174683a206164646974696f6e206f766572666c6f770000000000604482015290519081900360640190fd5b9392505050565b600060405180608001604052806043815260200161079860439139805190602001208260000151836020015184604001516040518082805190602001908083835b602083106106b25780518252601f199092019160209182019101610693565b51815160001960209485036101000a019081169019919091161790526040805194909201849003842084820199909952838201979097526001600160a01b039095166060830152506080808201969096528351808203909601865260a001909252505081519101209050919050565b600061072b6104ef565b82604051602001808061190160f01b81525060020183815260200182815260200192505050604051602081830303815290604052805190602001209050919050565b60405180606001604052806000815260200160006001600160a01b0316815260200160608152509056fe4d6574615472616e73616374696f6e2875696e74323536206e6f6e63652c616464726573732066726f6d2c62797465732066756e6374696f6e5369676e6174757265294e61746976654d6574615472616e73616374696f6e3a20494e56414c49445f5349474e45525369676e657220616e64207369676e617475726520646f206e6f74206d61746368a265627a7a72315820018d20bd8ee0aba6c1c63a4bfa79c689bcd41ff87a65875108998371c9e4059f64736f6c63430005110032",
    "sourcePath": "c:/Users/anyth/Documents/GitHub/RealityCards-Contracts/contracts/lib/NativeMetaTransaction.sol",
    "compiler": {
        "name": "solc",
        "version": "0.5.17+commit.d19bba13"
    },
    "functionHashes": {
        "executeMetaTransaction(address,bytes,bytes32,bytes32,uint8)": "0c53c51c",
        "getChainId()": "3408e470",
        "getDomainSeperator()": "20379ee5",
        "getNonce(address)": "2d0335ab"
    },
    "gasEstimates": {
        "creation": {
            "codeDepositCost": "426600",
            "executionCost": "461",
            "totalCost": "427061"
        },
        "external": {
            "executeMetaTransaction(address,bytes,bytes32,bytes32,uint8)": "infinite",
            "getChainId()": "241",
            "getDomainSeperator()": "998",
            "getNonce(address)": "1164"
        },
        "internal": {
            "hashMetaTransaction(struct NativeMetaTransaction.MetaTransaction memory)": "infinite",
            "msgSender()": "infinite",
            "verify(address,struct NativeMetaTransaction.MetaTransaction memory,bytes32,bytes32,uint8)": "infinite"
        }
    }
}