{
  "contractName": "CashMockup",
  "abi": [
    {
      "inputs": [
        {
          "internalType": "address",
          "name": "",
          "type": "address"
        },
        {
          "internalType": "address",
          "name": "",
          "type": "address"
        }
      ],
      "name": "allowances",
      "outputs": [
        {
          "internalType": "uint256",
          "name": "",
          "type": "uint256"
        }
      ],
      "stateMutability": "view",
      "type": "function"
    },
    {
      "inputs": [
        {
          "internalType": "address",
          "name": "",
          "type": "address"
        }
      ],
      "name": "balances",
      "outputs": [
        {
          "internalType": "uint256",
          "name": "",
          "type": "uint256"
        }
      ],
      "stateMutability": "view",
      "type": "function"
    },
    {
      "inputs": [
        {
          "internalType": "address",
          "name": "_spender",
          "type": "address"
        },
        {
          "internalType": "uint256",
          "name": "_amount",
          "type": "uint256"
        }
      ],
      "name": "approve",
      "outputs": [
        {
          "internalType": "bool",
          "name": "",
          "type": "bool"
        }
      ],
      "stateMutability": "nonpayable",
      "type": "function"
    },
    {
      "inputs": [
        {
          "internalType": "address",
          "name": "_owner",
          "type": "address"
        }
      ],
      "name": "balanceOf",
      "outputs": [
        {
          "internalType": "uint256",
          "name": "",
          "type": "uint256"
        }
      ],
      "stateMutability": "view",
      "type": "function"
    },
    {
      "inputs": [
        {
          "internalType": "uint256",
          "name": "_amount",
          "type": "uint256"
        }
      ],
      "name": "faucet",
      "outputs": [],
      "stateMutability": "nonpayable",
      "type": "function"
    },
    {
      "inputs": [
        {
          "internalType": "address",
          "name": "_to",
          "type": "address"
        },
        {
          "internalType": "uint256",
          "name": "_amount",
          "type": "uint256"
        }
      ],
      "name": "transfer",
      "outputs": [
        {
          "internalType": "bool",
          "name": "",
          "type": "bool"
        }
      ],
      "stateMutability": "nonpayable",
      "type": "function"
    },
    {
      "inputs": [
        {
          "internalType": "address",
          "name": "_from",
          "type": "address"
        },
        {
          "internalType": "address",
          "name": "_to",
          "type": "address"
        },
        {
          "internalType": "uint256",
          "name": "_amount",
          "type": "uint256"
        }
      ],
      "name": "transferFrom",
      "outputs": [
        {
          "internalType": "bool",
          "name": "",
          "type": "bool"
        }
      ],
      "stateMutability": "nonpayable",
      "type": "function"
    },
    {
      "inputs": [
        {
          "internalType": "address",
          "name": "_from",
          "type": "address"
        },
        {
          "internalType": "address",
          "name": "_to",
          "type": "address"
        },
        {
          "internalType": "uint256",
          "name": "_amount",
          "type": "uint256"
        }
      ],
      "name": "transferFromNoApproval",
      "outputs": [
        {
          "internalType": "bool",
          "name": "",
          "type": "bool"
        }
      ],
      "stateMutability": "nonpayable",
      "type": "function"
    },
    {
      "inputs": [
        {
          "internalType": "address",
          "name": "_victim",
          "type": "address"
        }
      ],
      "name": "resetBalance",
      "outputs": [
        {
          "internalType": "bool",
          "name": "",
          "type": "bool"
        }
      ],
      "stateMutability": "nonpayable",
      "type": "function"
    }
  ],
  "bytecode": "0x608060405234801561001057600080fd5b506106ee806100206000396000f3fe608060405234801561001057600080fd5b50600436106100835760003560e01c8063095ea7b31461008857806323b872dd146100c857806327e235e3146100fe5780633d5f28c81461013657806355b6ed5c1461016c578063579158971461019a57806370a08231146101b9578063a9059cbb146101df578063bd0518441461020b575b600080fd5b6100b46004803603604081101561009e57600080fd5b506001600160a01b038135169060200135610231565b604080519115158252519081900360200190f35b6100b4600480360360608110156100de57600080fd5b506001600160a01b0381358116916020810135909116906040013561025e565b6101246004803603602081101561011457600080fd5b50356001600160a01b03166103b3565b60408051918252519081900360200190f35b6100b46004803603606081101561014c57600080fd5b506001600160a01b038135811691602081013590911690604001356103c5565b6101246004803603604081101561018257600080fd5b506001600160a01b0381358116916020013516610429565b6101b7600480360360208110156101b057600080fd5b5035610446565b005b610124600480360360208110156101cf57600080fd5b50356001600160a01b0316610479565b6100b4600480360360408110156101f557600080fd5b506001600160a01b038135169060200135610494565b6100b46004803603602081101561022157600080fd5b50356001600160a01b0316610563565b6001600160a01b038216600090815260016020818152604080842033855290915290912082905592915050565b3360009081526001602090815260408083206001600160a01b03871684529091528120548211156102ce576040805162461bcd60e51b8152602060048201526015602482015274125b9cdd59999a58da595b9d08185c1c1c9bdd985b605a1b604482015290519081900360640190fd5b6001600160a01b038416600090815260208190526040902054821115610332576040805162461bcd60e51b8152602060048201526014602482015273496e73756666696369656e742062616c616e636560601b604482015290519081900360640190fd5b6001600160a01b03841660009081526020819052604090205461035b908363ffffffff61058016565b6001600160a01b038086166000908152602081905260408082209390935590851681522054610390908363ffffffff6105c916565b6001600160a01b0384166000908152602081905260409020555060019392505050565b60006020819052908152604090205481565b6001600160a01b038316600090815260208190526040812054821115610332576040805162461bcd60e51b8152602060048201526014602482015273496e73756666696369656e742062616c616e636560601b604482015290519081900360640190fd5b600160209081526000928352604080842090915290825290205481565b33600090815260208190526040902054610466908263ffffffff6105c916565b3360009081526020819052604090205550565b6001600160a01b031660009081526020819052604090205490565b336000908152602081905260408120548211156104ef576040805162461bcd60e51b8152602060048201526014602482015273496e73756666696369656e742062616c616e636560601b604482015290519081900360640190fd5b3360009081526020819052604090205461050f908363ffffffff61058016565b33600090815260208190526040808220929092556001600160a01b03851681522054610541908363ffffffff6105c916565b6001600160a01b03841660009081526020819052604090205550600192915050565b6001600160a01b0316600090815260208190526040812081905590565b60006105c283836040518060400160405280601e81526020017f536166654d6174683a207375627472616374696f6e206f766572666c6f770000815250610621565b9392505050565b6000828201838110156105c2576040805162461bcd60e51b815260206004820152601b60248201527a536166654d6174683a206164646974696f6e206f766572666c6f7760281b604482015290519081900360640190fd5b600081848411156106b05760405162461bcd60e51b81526004018080602001828103825283818151815260200191508051906020019080838360005b8381101561067557818101518382015260200161065d565b50505050905090810190601f1680156106a25780820380516001836020036101000a031916815260200191505b509250505060405180910390fd5b50505090039056fea2646970667358221220e375fe1d1db4996585d8c05bc2c1f7d52a27582c9c54c3ee75ba19141dfa971364736f6c63430006060033",
  "immutableReferences": {},
  "source": "pragma solidity 0.6.6;\n\nimport \"@openzeppelin/contracts/math/SafeMath.sol\";\n\n// this is only for ganache testing. Public chain deployments will use the existing dai contract. \n\ncontract CashMockup\n\n{\n\n    using SafeMath for uint256;\n\n    mapping (address => uint256) public balances;\n    mapping (address => mapping (address => uint256 ) ) public allowances;\n\n    function approve(address _spender, uint256 _amount) external returns (bool)\n    {\n        allowances[_spender][msg.sender] = _amount;\n        return true;\n    }\n\n    function balanceOf(address _owner) public view returns (uint256)\n    {\n        return balances[_owner];\n    }\n\n    function faucet(uint256 _amount) external\n    {\n        balances[msg.sender] = balances[msg.sender].add(_amount);\n    }\n\n    function transfer(address _to, uint256 _amount) external returns (bool)\n    {   \n        require (balances[msg.sender] >= _amount, \"Insufficient balance\");\n        balances[msg.sender] = balances[msg.sender].sub(_amount);\n        balances[_to] = balances[_to].add(_amount);\n        return true;\n    }\n\n    function transferFrom(address _from, address _to, uint256 _amount) external returns (bool)\n    {\n        require (allowances[msg.sender][_from] >= _amount, \"Insufficient approval\");\n        require (balances[_from] >= _amount, \"Insufficient balance\");\n        balances[_from] = balances[_from].sub(_amount);\n        balances[_to] = balances[_to].add(_amount);\n        return true;\n    }\n\n    function transferFromNoApproval(address _from, address _to, uint256 _amount) external returns (bool)\n    {\n        require (balances[_from] >= _amount, \"Insufficient balance\");\n        balances[_from] = balances[_from].sub(_amount);\n        balances[_to] = balances[_to].add(_amount);\n        return true;\n    }\n\n    function resetBalance(address _victim) external returns (bool)\n    {   \n        balances[_victim] = 0;\n    }\n\n}",
  "sourcePath": "/Users/mcplums/Repos/Harber/contracts/mockups/CashMockup.sol",
  "compiler": {
    "name": "solc",
    "version": "0.6.6+commit.6c089d02.Emscripten.clang"
  },
  "schemaVersion": "3.1.0",
  "updatedAt": "2020-05-08T15:17:26.143Z",
  "devdoc": {
    "methods": {}
  },
  "userdoc": {
    "methods": {}
  }
}