{
  "contractName": "CashSender",
  "abi": [
    {
      "constant": true,
      "inputs": [],
      "name": "cash",
      "outputs": [
        {
          "internalType": "contract ICash",
          "name": "",
          "type": "address"
        }
      ],
      "payable": false,
      "stateMutability": "view",
      "type": "function"
    },
    {
      "constant": true,
      "inputs": [],
      "name": "vat",
      "outputs": [
        {
          "internalType": "contract IDaiVat",
          "name": "",
          "type": "address"
        }
      ],
      "payable": false,
      "stateMutability": "view",
      "type": "function"
    },
    {
      "constant": true,
      "inputs": [
        {
          "internalType": "address",
          "name": "_account",
          "type": "address"
        }
      ],
      "name": "cashBalance",
      "outputs": [
        {
          "internalType": "uint256",
          "name": "_balance",
          "type": "uint256"
        }
      ],
      "payable": false,
      "stateMutability": "view",
      "type": "function"
    },
    {
      "constant": true,
      "inputs": [
        {
          "internalType": "address",
          "name": "_owner",
          "type": "address"
        },
        {
          "internalType": "address",
          "name": "_sender",
          "type": "address"
        }
      ],
      "name": "cashAvailableForTransferFrom",
      "outputs": [
        {
          "internalType": "uint256",
          "name": "_available",
          "type": "uint256"
        }
      ],
      "payable": false,
      "stateMutability": "view",
      "type": "function"
    },
    {
      "constant": true,
      "inputs": [
        {
          "internalType": "uint256",
          "name": "_vDaiAmount",
          "type": "uint256"
        }
      ],
      "name": "vatDaiToDai",
      "outputs": [
        {
          "internalType": "uint256",
          "name": "",
          "type": "uint256"
        }
      ],
      "payable": false,
      "stateMutability": "pure",
      "type": "function"
    },
    {
      "constant": true,
      "inputs": [
        {
          "internalType": "uint256",
          "name": "_daiAmount",
          "type": "uint256"
        }
      ],
      "name": "daiToVatDai",
      "outputs": [
        {
          "internalType": "uint256",
          "name": "",
          "type": "uint256"
        }
      ],
      "payable": false,
      "stateMutability": "pure",
      "type": "function"
    }
  ],
  "bytecode": "0x608060405234801561001057600080fd5b50610c21806100206000396000f3fe608060405234801561001057600080fd5b50600436106100625760003560e01c80631959f39f146100675780631d4b44bb146100a957806336569e77146101215780633e81e7841461016b578063406de18c146101ad578063961be39114610205575b600080fd5b6100936004803603602081101561007d57600080fd5b810190808035906020019092919050505061024f565b6040518082815260200191505060405180910390f35b61010b600480360360408110156100bf57600080fd5b81019080803573ffffffffffffffffffffffffffffffffffffffff169060200190929190803573ffffffffffffffffffffffffffffffffffffffff169060200190929190505050610277565b6040518082815260200191505060405180910390f35b610129610730565b604051808273ffffffffffffffffffffffffffffffffffffffff1673ffffffffffffffffffffffffffffffffffffffff16815260200191505060405180910390f35b6101976004803603602081101561018157600080fd5b8101908080359060200190929190505050610756565b6040518082815260200191505060405180910390f35b6101ef600480360360208110156101c357600080fd5b81019080803573ffffffffffffffffffffffffffffffffffffffff16906020019092919050505061077e565b6040518082815260200191505060405180910390f35b61020d6109f5565b604051808273ffffffffffffffffffffffffffffffffffffffff1673ffffffffffffffffffffffffffffffffffffffff16815260200191505060405180910390f35b60006102706b033b2e3c9fd0803ce800000083610a1a90919063ffffffff16565b9050919050565b6000806000809054906101000a900473ffffffffffffffffffffffffffffffffffffffff1673ffffffffffffffffffffffffffffffffffffffff166370a08231856040518263ffffffff1660e01b8152600401808273ffffffffffffffffffffffffffffffffffffffff1673ffffffffffffffffffffffffffffffffffffffff16815260200191505060206040518083038186803b15801561031857600080fd5b505afa15801561032c573d6000803e3d6000fd5b505050506040513d602081101561034257600080fd5b8101908080519060200190929190505050905060008060009054906101000a900473ffffffffffffffffffffffffffffffffffffffff1673ffffffffffffffffffffffffffffffffffffffff1663dd62ed3e86866040518363ffffffff1660e01b8152600401808373ffffffffffffffffffffffffffffffffffffffff1673ffffffffffffffffffffffffffffffffffffffff1681526020018273ffffffffffffffffffffffffffffffffffffffff1673ffffffffffffffffffffffffffffffffffffffff1681526020019250505060206040518083038186803b15801561042957600080fd5b505afa15801561043d573d6000803e3d6000fd5b505050506040513d602081101561045357600080fd5b810190808051906020019092919050505090506104798183610aa090919063ffffffff16565b92506000600160009054906101000a900473ffffffffffffffffffffffffffffffffffffffff1673ffffffffffffffffffffffffffffffffffffffff1663957aa58c6040518163ffffffff1660e01b815260040160206040518083038186803b1580156104e557600080fd5b505afa1580156104f9573d6000803e3d6000fd5b505050506040513d602081101561050f57600080fd5b8101908080519060200190929190505050148015610639575060018060009054906101000a900473ffffffffffffffffffffffffffffffffffffffff1673ffffffffffffffffffffffffffffffffffffffff16634538c4eb87876040518363ffffffff1660e01b8152600401808373ffffffffffffffffffffffffffffffffffffffff1673ffffffffffffffffffffffffffffffffffffffff1681526020018273ffffffffffffffffffffffffffffffffffffffff1673ffffffffffffffffffffffffffffffffffffffff1681526020019250505060206040518083038186803b1580156105fc57600080fd5b505afa158015610610573d6000803e3d6000fd5b505050506040513d602081101561062657600080fd5b8101908080519060200190929190505050145b1561072557610720600160009054906101000a900473ffffffffffffffffffffffffffffffffffffffff1673ffffffffffffffffffffffffffffffffffffffff16636c25b346876040518263ffffffff1660e01b8152600401808273ffffffffffffffffffffffffffffffffffffffff1673ffffffffffffffffffffffffffffffffffffffff16815260200191505060206040518083038186803b1580156106e057600080fd5b505afa1580156106f4573d6000803e3d6000fd5b505050506040513d602081101561070a57600080fd5b8101908080519060200190929190505050610756565b830192505b829250505092915050565b600160009054906101000a900473ffffffffffffffffffffffffffffffffffffffff1681565b60006107776b033b2e3c9fd0803ce800000083610abb90919063ffffffff16565b9050919050565b60008060009054906101000a900473ffffffffffffffffffffffffffffffffffffffff1673ffffffffffffffffffffffffffffffffffffffff166370a08231836040518263ffffffff1660e01b8152600401808273ffffffffffffffffffffffffffffffffffffffff1673ffffffffffffffffffffffffffffffffffffffff16815260200191505060206040518083038186803b15801561081e57600080fd5b505afa158015610832573d6000803e3d6000fd5b505050506040513d602081101561084857600080fd5b810190808051906020019092919050505090506000600160009054906101000a900473ffffffffffffffffffffffffffffffffffffffff1673ffffffffffffffffffffffffffffffffffffffff1663957aa58c6040518163ffffffff1660e01b815260040160206040518083038186803b1580156108c557600080fd5b505afa1580156108d9573d6000803e3d6000fd5b505050506040513d60208110156108ef57600080fd5b810190808051906020019092919050505014156109ed576109e8600160009054906101000a900473ffffffffffffffffffffffffffffffffffffffff1673ffffffffffffffffffffffffffffffffffffffff16636c25b346846040518263ffffffff1660e01b8152600401808273ffffffffffffffffffffffffffffffffffffffff1673ffffffffffffffffffffffffffffffffffffffff16815260200191505060206040518083038186803b1580156109a857600080fd5b505afa1580156109bc573d6000803e3d6000fd5b505050506040513d60208110156109d257600080fd5b8101908080519060200190929190505050610756565b810190505b809050919050565b6000809054906101000a900473ffffffffffffffffffffffffffffffffffffffff1681565b600080831415610a2d5760009050610a9a565b6000828402905082848281610a3e57fe5b0414610a95576040517f08c379a0000000000000000000000000000000000000000000000000000000008152600401808060200182810382526021815260200180610bcc6021913960400191505060405180910390fd5b809150505b92915050565b6000818311610ab157829050610ab5565b8190505b92915050565b6000610afd83836040518060400160405280601a81526020017f536166654d6174683a206469766973696f6e206279207a65726f000000000000815250610b05565b905092915050565b60008083118290610bb1576040517f08c379a00000000000000000000000000000000000000000000000000000000081526004018080602001828103825283818151815260200191508051906020019080838360005b83811015610b76578082015181840152602081019050610b5b565b50505050905090810190601f168015610ba35780820380516001836020036101000a031916815260200191505b509250505060405180910390fd5b506000838581610bbd57fe5b04905080915050939250505056fe536166654d6174683a206d756c7469706c69636174696f6e206f766572666c6f77a265627a7a7231582085fee0d843088d7f6f3074658b1cefc8c0a234c3a2cc0679183a386052089f3764736f6c634300050d0032",
  "source": "pragma solidity 0.5.13;\n\nimport './interfaces/ICash.sol';\nimport './interfaces/IDaiVat.sol';\nimport \"./utils/SafeMath.sol\";\n\n/// @title CashSender\n/// @author Forecast Foundation\n/// @notice From the auditied Augur contract here:\n/// https://github.com/AugurProject/augur/blob/master/packages/augur-core/source/contracts/CashSender.sol\n/// @dev it deals with vatDai in case of an emergency shutdown\n\ncontract CashSender {\n    using SafeMath for uint256;\n\n    ICash public cash;\n    IDaiVat public vat;\n\n    uint constant RAY = 10 ** 27;\n\n    function initializeCashSender(address _vat, address _cash) internal {\n        vat = IDaiVat(_vat);\n        cash = ICash(_cash);\n    }\n\n    function cashBalance(address _account) public view returns (uint256 _balance) {\n        _balance = cash.balanceOf(_account);\n        if (vat.live() == 0) {\n            _balance += vatDaiToDai(vat.dai(_account));\n        }\n        return _balance;\n    }\n\n    function cashAvailableForTransferFrom(address _owner, address _sender) public view returns (uint256 _available) {\n        uint256 _balance = cash.balanceOf(_owner);\n        uint256 _allowance = cash.allowance(_owner, _sender);\n        _available = _balance.min(_allowance);\n        if (vat.live() == 0 && (vat.can(_owner, _sender) == 1)) {\n            _available += vatDaiToDai(vat.dai(_owner));\n        }\n        return _available;\n    }\n\n    function cashApprove(address _spender, uint256 _amount) internal {\n        cash.approve(_spender, _amount);\n        if (vat.live() == 0) {\n            vat.hope(_spender);\n        }\n    }\n\n    function cashTransfer(address _to, uint256 _amount) internal {\n        address _from = address(this);\n        if (vat.live() == 0) {\n            _amount = shutdownTransfer(_from, _to, _amount);\n            if (_amount == 0) {\n                return;\n            }\n        }\n        require(cash.transfer(_to, _amount));\n    }\n\n    function cashTransferFrom(address _from, address _to, uint256 _amount) internal {\n        if (vat.live() == 0) {\n            _amount = shutdownTransfer(_from, _to, _amount);\n            if (_amount == 0) {\n                return;\n            }\n        }\n        require(cash.transferFrom(_from, _to, _amount));\n    }\n\n    function shutdownTransfer(address _from, address _to, uint256 _amount) internal returns (uint256) {\n        if (cash.balanceOf(_from) < _amount) {\n            uint256 _vDaiToTransfer = vat.dai(_from).min(daiToVatDai(_amount));\n            vat.move(_from, _to, _vDaiToTransfer);\n            _amount -= vatDaiToDai(_vDaiToTransfer);\n        }\n        return _amount;\n    }\n\n    function vatDaiToDai(uint256 _vDaiAmount) public pure returns (uint256) {\n        return _vDaiAmount.div(RAY);\n    }\n\n    function daiToVatDai(uint256 _daiAmount) public pure returns (uint256) {\n        return _daiAmount.mul(RAY);\n    }\n}",
  "sourcePath": "/Users/mcplums/Repos/Harber/contracts/CashSender.sol",
  "compiler": {
    "name": "solc",
    "version": "0.5.13+commit.5b0b510c.Emscripten.clang"
  },
  "schemaVersion": "3.0.19",
  "updatedAt": "2020-03-21T11:18:25.213Z",
  "devdoc": {
    "author": "Forecast Foundation",
    "details": "it deals with vatDai in case of an emergency shutdown",
    "methods": {},
    "title": "CashSender"
  },
  "userdoc": {
    "methods": {},
    "notice": "From the auditied Augur contract here: https://github.com/AugurProject/augur/blob/master/packages/augur-core/source/contracts/CashSender.sol"
  }
}