{
  "contractName": "DaiVatMockup",
  "abi": [
    {
      "constant": true,
      "inputs": [],
      "name": "live",
      "outputs": [
        {
          "internalType": "uint256",
          "name": "",
          "type": "uint256"
        }
      ],
      "payable": false,
      "stateMutability": "view",
      "type": "function"
    }
  ],
  "bytecode": "0x60806040526001600055348015601457600080fd5b506084806100236000396000f3fe6080604052348015600f57600080fd5b506004361060285760003560e01c8063957aa58c14602d575b600080fd5b60336049565b6040518082815260200191505060405180910390f35b6000548156fea265627a7a72315820837d2ed8e12d1ed2360009f453046b2a5970824eea1c7a2a8c52875491eff05264736f6c634300050d0032",
  "source": "pragma solidity 0.5.13;\n\ncontract DaiVatMockup {\n    uint256 public live = 1; \n}",
  "sourcePath": "/Users/mcplums/Repos/Harber/contracts/mockups/DaiVatMockup.sol",
  "compiler": {
    "name": "solc",
    "version": "0.5.13+commit.5b0b510c.Emscripten.clang"
  },
  "schemaVersion": "3.0.19",
  "updatedAt": "2020-03-21T12:29:45.047Z",
  "networkType": "ethereum",
  "devdoc": {
    "methods": {}
  },
  "userdoc": {
    "methods": {}
  }
}