{
  "contractName": "Harber",
  "abi": [
    {
      "inputs": [
        {
          "internalType": "address",
          "name": "_andrewsAddress",
          "type": "address"
        },
        {
          "internalType": "address",
          "name": "_addressOfToken",
          "type": "address"
        },
        {
          "internalType": "address",
          "name": "_addressOfCashContract",
          "type": "address"
        },
        {
          "internalType": "address[20]",
          "name": "_addressesOfMarkets",
          "type": "address[20]"
        },
        {
          "internalType": "address",
          "name": "_addressOfCompleteSetsContract",
          "type": "address"
        },
        {
          "internalType": "address",
          "name": "_addressOfMainAugurContract",
          "type": "address"
        },
        {
          "internalType": "uint256",
          "name": "_marketExpectedResolutionTime",
          "type": "uint256"
        }
      ],
      "payable": false,
      "stateMutability": "nonpayable",
      "type": "constructor"
    },
    {
      "anonymous": false,
      "inputs": [
        {
          "indexed": true,
          "internalType": "address",
          "name": "owner",
          "type": "address"
        },
        {
          "indexed": true,
          "internalType": "uint256",
          "name": "price",
          "type": "uint256"
        }
      ],
      "name": "LogBuy",
      "type": "event"
    },
    {
      "anonymous": false,
      "inputs": [
        {
          "indexed": true,
          "internalType": "uint256",
          "name": "winningOutcome",
          "type": "uint256"
        },
        {
          "indexed": true,
          "internalType": "uint256",
          "name": "daiAvailableToDistribute",
          "type": "uint256"
        }
      ],
      "name": "LogFinalised",
      "type": "event"
    },
    {
      "anonymous": false,
      "inputs": [
        {
          "indexed": true,
          "internalType": "address",
          "name": "prevOwner",
          "type": "address"
        }
      ],
      "name": "LogForeclosure",
      "type": "event"
    },
    {
      "anonymous": false,
      "inputs": [
        {
          "indexed": true,
          "internalType": "uint256",
          "name": "daiAvailableToDistribute",
          "type": "uint256"
        }
      ],
      "name": "LogFundsReturned",
      "type": "event"
    },
    {
      "anonymous": false,
      "inputs": [
        {
          "indexed": true,
          "internalType": "uint256",
          "name": "newPrice",
          "type": "uint256"
        }
      ],
      "name": "LogPriceChange",
      "type": "event"
    },
    {
      "anonymous": false,
      "inputs": [
        {
          "indexed": true,
          "internalType": "uint256",
          "name": "collectedPerMarket",
          "type": "uint256"
        }
      ],
      "name": "LogRentCollection",
      "type": "event"
    },
    {
      "anonymous": false,
      "inputs": [
        {
          "indexed": true,
          "internalType": "uint256",
          "name": "tokenId",
          "type": "uint256"
        },
        {
          "indexed": true,
          "internalType": "address",
          "name": "previousOwner",
          "type": "address"
        }
      ],
      "name": "LogReturnToPreviousOwner",
      "type": "event"
    },
    {
      "constant": true,
      "inputs": [],
      "name": "andrewsAddress",
      "outputs": [
        {
          "internalType": "address",
          "name": "",
          "type": "address"
        }
      ],
      "payable": false,
      "stateMutability": "view",
      "type": "function"
    },
    {
      "constant": true,
      "inputs": [
        {
          "internalType": "uint256",
          "name": "",
          "type": "uint256"
        }
      ],
      "name": "collectedPerMarket",
      "outputs": [
        {
          "internalType": "uint256",
          "name": "",
          "type": "uint256"
        }
      ],
      "payable": false,
      "stateMutability": "view",
      "type": "function"
    },
    {
      "constant": true,
      "inputs": [
        {
          "internalType": "address",
          "name": "",
          "type": "address"
        }
      ],
      "name": "collectedPerUser",
      "outputs": [
        {
          "internalType": "uint256",
          "name": "",
          "type": "uint256"
        }
      ],
      "payable": false,
      "stateMutability": "view",
      "type": "function"
    },
    {
      "constant": true,
      "inputs": [
        {
          "internalType": "uint256",
          "name": "",
          "type": "uint256"
        }
      ],
      "name": "currentOwnerIndex",
      "outputs": [
        {
          "internalType": "uint256",
          "name": "",
          "type": "uint256"
        }
      ],
      "payable": false,
      "stateMutability": "view",
      "type": "function"
    },
    {
      "constant": true,
      "inputs": [
        {
          "internalType": "address",
          "name": "",
          "type": "address"
        }
      ],
      "name": "depositReturnedToUser",
      "outputs": [
        {
          "internalType": "uint256",
          "name": "",
          "type": "uint256"
        }
      ],
      "payable": false,
      "stateMutability": "view",
      "type": "function"
    },
    {
      "constant": true,
      "inputs": [
        {
          "internalType": "uint256",
          "name": "",
          "type": "uint256"
        },
        {
          "internalType": "address",
          "name": "",
          "type": "address"
        }
      ],
      "name": "deposits",
      "outputs": [
        {
          "internalType": "uint256",
          "name": "",
          "type": "uint256"
        }
      ],
      "payable": false,
      "stateMutability": "view",
      "type": "function"
    },
    {
      "constant": true,
      "inputs": [
        {
          "internalType": "uint256",
          "name": "",
          "type": "uint256"
        },
        {
          "internalType": "address",
          "name": "",
          "type": "address"
        }
      ],
      "name": "everOwned",
      "outputs": [
        {
          "internalType": "bool",
          "name": "",
          "type": "bool"
        }
      ],
      "payable": false,
      "stateMutability": "view",
      "type": "function"
    },
    {
      "constant": true,
      "inputs": [
        {
          "internalType": "uint256",
          "name": "",
          "type": "uint256"
        }
      ],
      "name": "marketAddresses",
      "outputs": [
        {
          "internalType": "address",
          "name": "",
          "type": "address"
        }
      ],
      "payable": false,
      "stateMutability": "view",
      "type": "function"
    },
    {
      "constant": true,
      "inputs": [],
      "name": "marketExpectedResolutionTime",
      "outputs": [
        {
          "internalType": "uint256",
          "name": "",
          "type": "uint256"
        }
      ],
      "payable": false,
      "stateMutability": "view",
      "type": "function"
    },
    {
      "constant": true,
      "inputs": [
        {
          "internalType": "uint256",
          "name": "",
          "type": "uint256"
        }
      ],
      "name": "numberOfOwners",
      "outputs": [
        {
          "internalType": "uint256",
          "name": "",
          "type": "uint256"
        }
      ],
      "payable": false,
      "stateMutability": "view",
      "type": "function"
    },
    {
      "constant": true,
      "inputs": [
        {
          "internalType": "uint256",
          "name": "",
          "type": "uint256"
        },
        {
          "internalType": "uint256",
          "name": "",
          "type": "uint256"
        }
      ],
      "name": "ownerTracker",
      "outputs": [
        {
          "internalType": "address",
          "name": "",
          "type": "address"
        }
      ],
      "payable": false,
      "stateMutability": "view",
      "type": "function"
    },
    {
      "constant": true,
      "inputs": [
        {
          "internalType": "uint256",
          "name": "",
          "type": "uint256"
        },
        {
          "internalType": "uint256",
          "name": "",
          "type": "uint256"
        }
      ],
      "name": "previousOwnerTracker",
      "outputs": [
        {
          "internalType": "address",
          "name": "owner",
          "type": "address"
        },
        {
          "internalType": "uint256",
          "name": "price",
          "type": "uint256"
        }
      ],
      "payable": false,
      "stateMutability": "view",
      "type": "function"
    },
    {
      "constant": true,
      "inputs": [
        {
          "internalType": "uint256",
          "name": "",
          "type": "uint256"
        }
      ],
      "name": "price",
      "outputs": [
        {
          "internalType": "uint256",
          "name": "",
          "type": "uint256"
        }
      ],
      "payable": false,
      "stateMutability": "view",
      "type": "function"
    },
    {
      "constant": true,
      "inputs": [],
      "name": "team",
      "outputs": [
        {
          "internalType": "contract IERC721Full",
          "name": "",
          "type": "address"
        }
      ],
      "payable": false,
      "stateMutability": "view",
      "type": "function"
    },
    {
      "constant": true,
      "inputs": [
        {
          "internalType": "uint256",
          "name": "",
          "type": "uint256"
        }
      ],
      "name": "timeAcquired",
      "outputs": [
        {
          "internalType": "uint256",
          "name": "",
          "type": "uint256"
        }
      ],
      "payable": false,
      "stateMutability": "view",
      "type": "function"
    },
    {
      "constant": true,
      "inputs": [
        {
          "internalType": "uint256",
          "name": "",
          "type": "uint256"
        },
        {
          "internalType": "address",
          "name": "",
          "type": "address"
        }
      ],
      "name": "timeHeld",
      "outputs": [
        {
          "internalType": "uint256",
          "name": "",
          "type": "uint256"
        }
      ],
      "payable": false,
      "stateMutability": "view",
      "type": "function"
    },
    {
      "constant": true,
      "inputs": [
        {
          "internalType": "uint256",
          "name": "",
          "type": "uint256"
        }
      ],
      "name": "timeLastCollected",
      "outputs": [
        {
          "internalType": "uint256",
          "name": "",
          "type": "uint256"
        }
      ],
      "payable": false,
      "stateMutability": "view",
      "type": "function"
    },
    {
      "constant": true,
      "inputs": [],
      "name": "totalCollected",
      "outputs": [
        {
          "internalType": "uint256",
          "name": "",
          "type": "uint256"
        }
      ],
      "payable": false,
      "stateMutability": "view",
      "type": "function"
    },
    {
      "constant": true,
      "inputs": [
        {
          "internalType": "uint256",
          "name": "",
          "type": "uint256"
        }
      ],
      "name": "totalTimeHeld",
      "outputs": [
        {
          "internalType": "uint256",
          "name": "",
          "type": "uint256"
        }
      ],
      "payable": false,
      "stateMutability": "view",
      "type": "function"
    },
    {
      "constant": true,
      "inputs": [
        {
          "internalType": "address",
          "name": "",
          "type": "address"
        }
      ],
      "name": "winningsSentToUser",
      "outputs": [
        {
          "internalType": "uint256",
          "name": "",
          "type": "uint256"
        }
      ],
      "payable": false,
      "stateMutability": "view",
      "type": "function"
    },
    {
      "constant": true,
      "inputs": [
        {
          "internalType": "uint256",
          "name": "_tokenId",
          "type": "uint256"
        },
        {
          "internalType": "uint256",
          "name": "_index",
          "type": "uint256"
        }
      ],
      "name": "getOwnerTrackerPrice",
      "outputs": [
        {
          "internalType": "uint256",
          "name": "",
          "type": "uint256"
        }
      ],
      "payable": false,
      "stateMutability": "view",
      "type": "function"
    },
    {
      "constant": true,
      "inputs": [
        {
          "internalType": "uint256",
          "name": "_tokenId",
          "type": "uint256"
        },
        {
          "internalType": "uint256",
          "name": "_index",
          "type": "uint256"
        }
      ],
      "name": "getOwnerTrackerAddress",
      "outputs": [
        {
          "internalType": "address",
          "name": "",
          "type": "address"
        }
      ],
      "payable": false,
      "stateMutability": "view",
      "type": "function"
    },
    {
      "constant": true,
      "inputs": [
        {
          "internalType": "uint256",
          "name": "_tokenId",
          "type": "uint256"
        }
      ],
      "name": "rentOwed",
      "outputs": [
        {
          "internalType": "uint256",
          "name": "augurFundsDue",
          "type": "uint256"
        }
      ],
      "payable": false,
      "stateMutability": "view",
      "type": "function"
    },
    {
      "constant": true,
      "inputs": [
        {
          "internalType": "uint256",
          "name": "_tokenId",
          "type": "uint256"
        }
      ],
      "name": "liveDepositAbleToWithdraw",
      "outputs": [
        {
          "internalType": "uint256",
          "name": "",
          "type": "uint256"
        }
      ],
      "payable": false,
      "stateMutability": "view",
      "type": "function"
    },
    {
      "constant": true,
      "inputs": [
        {
          "internalType": "uint256",
          "name": "_tokenId",
          "type": "uint256"
        }
      ],
      "name": "userDepositAbleToWithdraw",
      "outputs": [
        {
          "internalType": "uint256",
          "name": "",
          "type": "uint256"
        }
      ],
      "payable": false,
      "stateMutability": "view",
      "type": "function"
    },
    {
      "constant": true,
      "inputs": [
        {
          "internalType": "uint256",
          "name": "_tokenId",
          "type": "uint256"
        }
      ],
      "name": "rentalExpiryTime",
      "outputs": [
        {
          "internalType": "uint256",
          "name": "",
          "type": "uint256"
        }
      ],
      "payable": false,
      "stateMutability": "view",
      "type": "function"
    },
    {
      "constant": false,
      "inputs": [
        {
          "internalType": "uint256",
          "name": "_hardCodedWinner",
          "type": "uint256"
        },
        {
          "internalType": "bool",
          "name": "_hardCodedResolvedCorrectly",
          "type": "bool"
        }
      ],
      "name": "step1checkMarketsResolved",
      "outputs": [],
      "payable": false,
      "stateMutability": "nonpayable",
      "type": "function"
    },
    {
      "constant": false,
      "inputs": [],
      "name": "step1BemergencyExit",
      "outputs": [],
      "payable": false,
      "stateMutability": "nonpayable",
      "type": "function"
    },
    {
      "constant": false,
      "inputs": [],
      "name": "step1CcircuitBraker",
      "outputs": [],
      "payable": false,
      "stateMutability": "nonpayable",
      "type": "function"
    },
    {
      "constant": false,
      "inputs": [],
      "name": "step2getLoopsRequired",
      "outputs": [],
      "payable": false,
      "stateMutability": "nonpayable",
      "type": "function"
    },
    {
      "constant": false,
      "inputs": [
        {
          "internalType": "uint256",
          "name": "_numberOfLoopsToDo",
          "type": "uint256"
        }
      ],
      "name": "step3returnDeposits",
      "outputs": [],
      "payable": false,
      "stateMutability": "nonpayable",
      "type": "function"
    },
    {
      "constant": false,
      "inputs": [],
      "name": "step4sellCompleteSets",
      "outputs": [],
      "payable": false,
      "stateMutability": "nonpayable",
      "type": "function"
    },
    {
      "constant": false,
      "inputs": [],
      "name": "step5getDaiAvailableToDistribute",
      "outputs": [],
      "payable": false,
      "stateMutability": "nonpayable",
      "type": "function"
    },
    {
      "constant": false,
      "inputs": [
        {
          "internalType": "uint256",
          "name": "_numberOfLoopsToDo",
          "type": "uint256"
        }
      ],
      "name": "step6complete",
      "outputs": [],
      "payable": false,
      "stateMutability": "nonpayable",
      "type": "function"
    },
    {
      "constant": false,
      "inputs": [],
      "name": "collectRentAllTokens",
      "outputs": [],
      "payable": false,
      "stateMutability": "nonpayable",
      "type": "function"
    },
    {
      "constant": false,
      "inputs": [
        {
          "internalType": "uint256",
          "name": "_tokenId",
          "type": "uint256"
        }
      ],
      "name": "_collectRent",
      "outputs": [],
      "payable": false,
      "stateMutability": "nonpayable",
      "type": "function"
    },
    {
      "constant": false,
      "inputs": [
        {
          "internalType": "uint256",
          "name": "_newPrice",
          "type": "uint256"
        },
        {
          "internalType": "uint256",
          "name": "_tokenId",
          "type": "uint256"
        },
        {
          "internalType": "uint256",
          "name": "_deposit",
          "type": "uint256"
        }
      ],
      "name": "newRental",
      "outputs": [],
      "payable": false,
      "stateMutability": "nonpayable",
      "type": "function"
    },
    {
      "constant": false,
      "inputs": [
        {
          "internalType": "uint256",
          "name": "_dai",
          "type": "uint256"
        },
        {
          "internalType": "uint256",
          "name": "_tokenId",
          "type": "uint256"
        }
      ],
      "name": "depositDai",
      "outputs": [],
      "payable": false,
      "stateMutability": "nonpayable",
      "type": "function"
    },
    {
      "constant": false,
      "inputs": [
        {
          "internalType": "uint256",
          "name": "_newPrice",
          "type": "uint256"
        },
        {
          "internalType": "uint256",
          "name": "_tokenId",
          "type": "uint256"
        }
      ],
      "name": "changePrice",
      "outputs": [],
      "payable": false,
      "stateMutability": "nonpayable",
      "type": "function"
    },
    {
      "constant": false,
      "inputs": [
        {
          "internalType": "uint256",
          "name": "_dai",
          "type": "uint256"
        },
        {
          "internalType": "uint256",
          "name": "_tokenId",
          "type": "uint256"
        }
      ],
      "name": "withdrawDeposit",
      "outputs": [
        {
          "internalType": "uint256",
          "name": "",
          "type": "uint256"
        }
      ],
      "payable": false,
      "stateMutability": "nonpayable",
      "type": "function"
    },
    {
      "constant": false,
      "inputs": [
        {
          "internalType": "uint256",
          "name": "_tokenId",
          "type": "uint256"
        }
      ],
      "name": "exit",
      "outputs": [],
      "payable": false,
      "stateMutability": "nonpayable",
      "type": "function"
    }
  ],
  "bytecode": "0x608060405261a45560a755600060a960006101000a81548160ff021916908315150217905550600060a960016101000a81548160ff021916908315150217905550600060aa55600060ab60006101000a81548160ff021916908315150217905550600060ac55600060ad60006101000a81548160ff021916908315150217905550600060ad60016101000a81548160ff021916908315150217905550600060ae55600060af60006101000a81548160ff021916908315150217905550600060b055600060b155600060b260006101000a81548160ff021916908315150217905550348015620000ed57600080fd5b50604051620050a4380380620050a483398181016040526103408110156200011457600080fd5b810190808051906020019092919080519060200190929190805190602001909291909190826102800180519060200190929190805190602001909291908051906020019092919050505085600260006101000a81548173ffffffffffffffffffffffffffffffffffffffff021916908373ffffffffffffffffffffffffffffffffffffffff16021790555086601960006101000a81548173ffffffffffffffffffffffffffffffffffffffff021916908373ffffffffffffffffffffffffffffffffffffffff16021790555083601a906014620001f39291906200043a565b5060008090505b60148110156200029b576000607f82601481106200021457fe5b01819055506000609382601481106200022957fe5b01819055508481601481106200023b57fe5b6020020151600382601481106200024e57fe5b0160006101000a81548173ffffffffffffffffffffffffffffffffffffffff021916908373ffffffffffffffffffffffffffffffffffffffff1602179055508080600101915050620001fa565b5084601860006101000a81548173ffffffffffffffffffffffffffffffffffffffff021916908373ffffffffffffffffffffffffffffffffffffffff16021790555082601760006101000a81548173ffffffffffffffffffffffffffffffffffffffff021916908373ffffffffffffffffffffffffffffffffffffffff1602179055508060a881905550601860009054906101000a900473ffffffffffffffffffffffffffffffffffffffff1673ffffffffffffffffffffffffffffffffffffffff1663095ea7b3837fffffffffffffffffffffffffffffffffffffffffffffffffffffffffffffffff6040518363ffffffff1660e01b8152600401808373ffffffffffffffffffffffffffffffffffffffff1673ffffffffffffffffffffffffffffffffffffffff16815260200182815260200192505050602060405180830381600087803b158015620003ef57600080fd5b505af115801562000404573d6000803e3d6000fd5b505050506040513d60208110156200041b57600080fd5b8101908080519060200190929190505050505050505050505062000502565b8260148101928215620004a9579160200282015b82811115620004a85782518260006101000a81548173ffffffffffffffffffffffffffffffffffffffff021916908373ffffffffffffffffffffffffffffffffffffffff160217905550916020019190600101906200044e565b5b509050620004b89190620004bc565b5090565b620004ff91905b80821115620004fb57600081816101000a81549073ffffffffffffffffffffffffffffffffffffffff021916905550600101620004c3565b5090565b90565b614b9280620005126000396000f3fe608060405234801561001057600080fd5b50600436106102535760003560e01c80638cb6889911610146578063b7e3cd63116100c3578063deb601d711610087578063deb601d714610add578063e29eb83614610b1f578063f015e54e14610b3d578063f06197b714610b7f578063f88489c214610bcb578063fce0eb0214610c4357610253565b8063b7e3cd6314610a0d578063bae04c9a14610a17578063bd1faa8014610a63578063cbf3915614610a6d578063d5780ec414610a9b57610253565b80639b32a2fe1161010a5780639b32a2fe146109005780639e7318121461090a578063a36252bf14610989578063adfbe13c146109cb578063b3de019c146109d557610253565b80638cb68899146107865780638e6e3f93146107c8578063977f1b281461082057806397b4550a1461083e578063994ec705146108b657610253565b806353a58de1116101d457806373a5226f1161019857806373a5226f1461066a5780637c1bfa54146106ac5780637f8661a11461070457806382c265541461073257806385f2aef21461073c57610253565b806353a58de11461051e57806356d7549d146105805780635b2ace64146105ae5780635dfd7e9b146105f057806370a23f751461062857610253565b806330787fd81161021b57806330787fd81461039a57806332f2b04d146103f2578063350293a1146104345780633f17e86f146104a25780634d751532146104e457610253565b8063171a240914610258578063237b5e4f146102be57806325947a521461032057806326a49e371461034e57806329b777dc14610390575b600080fd5b6102a46004803603604081101561026e57600080fd5b8101908080359060200190929190803573ffffffffffffffffffffffffffffffffffffffff169060200190929190505050610c85565b604051808215151515815260200191505060405180910390f35b61030a600480360360408110156102d457600080fd5b8101908080359060200190929190803573ffffffffffffffffffffffffffffffffffffffff169060200190929190505050610cb4565b6040518082815260200191505060405180910390f35b61034c6004803603602081101561033657600080fd5b8101908080359060200190929190505050610cd9565b005b61037a6004803603602081101561036457600080fd5b8101908080359060200190929190505050611312565b6040518082815260200191505060405180910390f35b61039861132a565b005b6103dc600480360360208110156103b057600080fd5b81019080803573ffffffffffffffffffffffffffffffffffffffff169060200190929190505050611461565b6040518082815260200191505060405180910390f35b61041e6004803603602081101561040857600080fd5b8101908080359060200190929190505050611479565b6040518082815260200191505060405180910390f35b6104606004803603602081101561044a57600080fd5b8101908080359060200190929190505050611608565b604051808273ffffffffffffffffffffffffffffffffffffffff1673ffffffffffffffffffffffffffffffffffffffff16815260200191505060405180910390f35b6104e2600480360360608110156104b857600080fd5b8101908080359060200190929190803590602001909291908035906020019092919050505061163b565b005b61051c600480360360408110156104fa57600080fd5b8101908080359060200190929190803515159060200190929190505050611c33565b005b61056a6004803603604081101561053457600080fd5b8101908080359060200190929190803573ffffffffffffffffffffffffffffffffffffffff169060200190929190505050611cff565b6040518082815260200191505060405180910390f35b6105ac6004803603602081101561059657600080fd5b8101908080359060200190929190505050611d24565b005b6105da600480360360208110156105c457600080fd5b8101908080359060200190929190505050611e2c565b6040518082815260200191505060405180910390f35b6106266004803603604081101561060657600080fd5b810190808035906020019092919080359060200190929190505050611e44565b005b6106546004803603602081101561063e57600080fd5b8101908080359060200190929190505050611f34565b6040518082815260200191505060405180910390f35b6106966004803603602081101561068057600080fd5b810190808035906020019092919050505061205c565b6040518082815260200191505060405180910390f35b6106ee600480360360208110156106c257600080fd5b81019080803573ffffffffffffffffffffffffffffffffffffffff169060200190929190505050612279565b6040518082815260200191505060405180910390f35b6107306004803603602081101561071a57600080fd5b8101908080359060200190929190505050612291565b005b61073a612319565b005b6107446124d0565b604051808273ffffffffffffffffffffffffffffffffffffffff1673ffffffffffffffffffffffffffffffffffffffff16815260200191505060405180910390f35b6107b26004803603602081101561079c57600080fd5b81019080803590602001909291905050506124f6565b6040518082815260200191505060405180910390f35b61080a600480360360208110156107de57600080fd5b81019080803573ffffffffffffffffffffffffffffffffffffffff16906020019092919050505061250e565b6040518082815260200191505060405180910390f35b610828612526565b6040518082815260200191505060405180910390f35b6108746004803603604081101561085457600080fd5b81019080803590602001909291908035906020019092919050505061252c565b604051808273ffffffffffffffffffffffffffffffffffffffff1673ffffffffffffffffffffffffffffffffffffffff16815260200191505060405180910390f35b6108be61257e565b604051808273ffffffffffffffffffffffffffffffffffffffff1673ffffffffffffffffffffffffffffffffffffffff16815260200191505060405180910390f35b6109086125a4565b005b6109406004803603604081101561092057600080fd5b810190808035906020019092919080359060200190929190505050612720565b604051808373ffffffffffffffffffffffffffffffffffffffff1673ffffffffffffffffffffffffffffffffffffffff1681526020018281526020019250505060405180910390f35b6109b56004803603602081101561099f57600080fd5b8101908080359060200190929190505050612771565b6040518082815260200191505060405180910390f35b6109d3612789565b005b610a0b600480360360408110156109eb57600080fd5b8101908080359060200190929190803590602001909291905050506127d1565b005b610a15612a3c565b005b610a4d60048036036040811015610a2d57600080fd5b810190808035906020019092919080359060200190929190505050612b2c565b6040518082815260200191505060405180910390f35b610a6b612b69565b005b610a9960048036036020811015610a8357600080fd5b8101908080359060200190929190505050612cbd565b005b610ac760048036036020811015610ab157600080fd5b8101908080359060200190929190505050612fb9565b6040518082815260200191505060405180910390f35b610b0960048036036020811015610af357600080fd5b8101908080359060200190929190505050612fd1565b6040518082815260200191505060405180910390f35b610b27612fe9565b6040518082815260200191505060405180910390f35b610b6960048036036020811015610b5357600080fd5b8101908080359060200190929190505050612fef565b6040518082815260200191505060405180910390f35b610bb560048036036040811015610b9557600080fd5b810190808035906020019092919080359060200190929190505050613007565b6040518082815260200191505060405180910390f35b610c0160048036036040811015610be157600080fd5b810190808035906020019092919080359060200190929190505050613039565b604051808273ffffffffffffffffffffffffffffffffffffffff1673ffffffffffffffffffffffffffffffffffffffff16815260200191505060405180910390f35b610c6f60048036036020811015610c5957600080fd5b810190808035906020019092919050505061307b565b6040518082815260200191505060405180910390f35b60b86020528160005260406000206020528060005260406000206000915091509054906101000a900460ff1681565b60b5602052816000526040600020602052806000526040600020600091509150505481565b6000151560a960009054906101000a900460ff16151514610cf957600080fd5b3073ffffffffffffffffffffffffffffffffffffffff16600260009054906101000a900473ffffffffffffffffffffffffffffffffffffffff1673ffffffffffffffffffffffffffffffffffffffff16636352211e836040518263ffffffff1660e01b81526004018082815260200191505060206040518083038186803b158015610d8357600080fd5b505afa158015610d97573d6000803e3d6000fd5b505050506040513d6020811015610dad57600080fd5b810190808051906020019092919050505073ffffffffffffffffffffffffffffffffffffffff16146112fc576000610de482611f34565b90506000600260009054906101000a900473ffffffffffffffffffffffffffffffffffffffff1673ffffffffffffffffffffffffffffffffffffffff16636352211e846040518263ffffffff1660e01b81526004018082815260200191505060206040518083038186803b158015610e5b57600080fd5b505afa158015610e6f573d6000803e3d6000fd5b505050506040513d6020811015610e8557600080fd5b81019080805190602001909291905050509050600060b7600085815260200190815260200160002060008373ffffffffffffffffffffffffffffffffffffffff1673ffffffffffffffffffffffffffffffffffffffff16815260200190815260200160002054831061100957610fa6610f8984610f7b60b7600089815260200190815260200160002060008773ffffffffffffffffffffffffffffffffffffffff1673ffffffffffffffffffffffffffffffffffffffff16815260200190815260200160002054610f6d60578a60148110610f5c57fe5b01544261311890919063ffffffff16565b61316290919063ffffffff16565b6131e890919063ffffffff16565b60578660148110610f9657fe5b015461323290919063ffffffff16565b905060b7600085815260200190815260200160002060008373ffffffffffffffffffffffffffffffffffffffff1673ffffffffffffffffffffffffffffffffffffffff168152602001908152602001600020549250611004846132ba565b61100d565b4290505b6110708360b7600087815260200190815260200160002060008573ffffffffffffffffffffffffffffffffffffffff1673ffffffffffffffffffffffffffffffffffffffff1681526020019081526020016000205461311890919063ffffffff16565b60b7600086815260200190815260200160002060008473ffffffffffffffffffffffffffffffffffffffff1673ffffffffffffffffffffffffffffffffffffffff1681526020019081526020016000208190555060006110e7605786601481106110d657fe5b01548361311890919063ffffffff16565b905061114c8160b5600088815260200190815260200160002060008673ffffffffffffffffffffffffffffffffffffffff1673ffffffffffffffffffffffffffffffffffffffff1681526020019081526020016000205461323290919063ffffffff16565b60b5600087815260200190815260200160002060008573ffffffffffffffffffffffffffffffffffffffff1673ffffffffffffffffffffffffffffffffffffffff168152602001908152602001600020819055506111c68160b660008881526020019081526020016000205461323290919063ffffffff16565b60b66000878152602001908152602001600020819055506111fe84604287601481106111ee57fe5b015461323290919063ffffffff16565b6042866014811061120b57fe5b01819055506112628460b960008673ffffffffffffffffffffffffffffffffffffffff1673ffffffffffffffffffffffffffffffffffffffff1681526020019081526020016000205461323290919063ffffffff16565b60b960008573ffffffffffffffffffffffffffffffffffffffff1673ffffffffffffffffffffffffffffffffffffffff168152602001908152602001600020819055506112ba8460565461323290919063ffffffff16565b6056819055506112ca858561352e565b837f6ab0172416aeaedce744fba85809be02ae7a61ff89203ff71a33291dc9f310f460405160405180910390a2505050505b426057826014811061130a57fe5b018190555050565b602e816014811061131f57fe5b016000915090505481565b6001151560ad60009054906101000a900460ff161515146113b3576040517f08c379a000000000000000000000000000000000000000000000000000000000815260040180806020018281038252601a8152602001807f4d7573742072657475726e206465706f7369747320666972737400000000000081525060200191505060405180910390fd5b6000151560ad60019054906101000a900460ff1615151461143c576040517f08c379a000000000000000000000000000000000000000000000000000000000815260040180806020018281038252601d8152602001807f43616e742073656c6c20636f6d706c657465207365747320747769636500000081525060200191505060405180910390fd5b61144461366d565b600160ad60016101000a81548160ff021916908315150217905550565b60016020528060005260406000206000915090505481565b60008061148583611f34565b90506000600260009054906101000a900473ffffffffffffffffffffffffffffffffffffffff1673ffffffffffffffffffffffffffffffffffffffff16636352211e856040518263ffffffff1660e01b81526004018082815260200191505060206040518083038186803b1580156114fc57600080fd5b505afa158015611510573d6000803e3d6000fd5b505050506040513d602081101561152657600080fd5b8101908080519060200190929190505050905060b7600085815260200190815260200160002060008273ffffffffffffffffffffffffffffffffffffffff1673ffffffffffffffffffffffffffffffffffffffff16815260200190815260200160002054821061159b57600092505050611603565b6115fe8260b7600087815260200190815260200160002060008473ffffffffffffffffffffffffffffffffffffffff1673ffffffffffffffffffffffffffffffffffffffff1681526020019081526020016000205461311890919063ffffffff16565b925050505b919050565b601a816014811061161557fe5b016000915054906101000a900473ffffffffffffffffffffffffffffffffffffffff1681565b8161164581610cd9565b6000151560a960009054906101000a900460ff1615151461166557600080fd5b601483106116db576040517f08c379a00000000000000000000000000000000000000000000000000000000081526004018080602001828103825260188152602001807f54686973207465616d20646f6573206e6f74206578697374000000000000000081525060200191505060405180910390fd5b602e83601481106116e857fe5b01548411611741576040517f08c379a0000000000000000000000000000000000000000000000000000000008152600401808060200182810382526027815260200180614aeb6027913960400191505060405180910390fd5b600082116117b7576040517f08c379a00000000000000000000000000000000000000000000000000000000081526004018080602001828103825260168152602001807f4d757374206465706f73697420736f6d657468696e670000000000000000000081525060200191505060405180910390fd5b6117c133836137df565b6118248260b7600086815260200190815260200160002060003373ffffffffffffffffffffffffffffffffffffffff1673ffffffffffffffffffffffffffffffffffffffff1681526020019081526020016000205461323290919063ffffffff16565b60b7600085815260200190815260200160002060003373ffffffffffffffffffffffffffffffffffffffff1673ffffffffffffffffffffffffffffffffffffffff168152602001908152602001600020819055506000600260009054906101000a900473ffffffffffffffffffffffffffffffffffffffff1673ffffffffffffffffffffffffffffffffffffffff16636352211e856040518263ffffffff1660e01b81526004018082815260200191505060206040518083038186803b1580156118ed57600080fd5b505afa158015611901573d6000803e3d6000fd5b505050506040513d602081101561191757600080fd5b810190808051906020019092919050505090503373ffffffffffffffffffffffffffffffffffffffff168173ffffffffffffffffffffffffffffffffffffffff16141561196d5761196885856127d1565b611c2c565b61198f6001607f866014811061197f57fe5b015461323290919063ffffffff16565b607f856014811061199c57fe5b01819055508460b360008681526020019081526020016000206000607f87601481106119c457fe5b01548152602001908152602001600020600101819055503360b360008681526020019081526020016000206000607f87601481106119fe57fe5b0154815260200190815260200160002060000160006101000a81548173ffffffffffffffffffffffffffffffffffffffff021916908373ffffffffffffffffffffffffffffffffffffffff1602179055506000151560b8600086815260200190815260200160002060003373ffffffffffffffffffffffffffffffffffffffff1673ffffffffffffffffffffffffffffffffffffffff16815260200190815260200160002060009054906101000a900460ff1615151415611bc857600160b8600086815260200190815260200160002060003373ffffffffffffffffffffffffffffffffffffffff1673ffffffffffffffffffffffffffffffffffffffff16815260200190815260200160002060006101000a81548160ff0219169083151502179055503360b46000868152602001908152602001600020600060938760148110611b4557fe5b0154815260200190815260200160002060006101000a81548173ffffffffffffffffffffffffffffffffffffffff021916908373ffffffffffffffffffffffffffffffffffffffff160217905550611bb5600160938660148110611ba557fe5b015461323290919063ffffffff16565b60938560148110611bc257fe5b01819055505b42606b8560148110611bd657fe5b0181905550611be7813387876138fc565b843373ffffffffffffffffffffffffffffffffffffffff167f4f79409f494e81c38036d80aa8a6507c2cb08d90bfb2fead5519447646b3497e60405160405180910390a35b5050505050565b6000151560a960009054906101000a900460ff16151514611c9f576040517f08c379a000000000000000000000000000000000000000000000000000000000815260040180806020018281038252602b815260200180614b12602b913960400191505060405180910390fd5b611ca7613a0a565b15611cfb57611cb4612789565b600160a960006101000a81548160ff021916908315150217905550611cd98282613cad565b15611cfa57600160a960016101000a81548160ff0219169083151502179055505b5b5050565b60b7602052816000526040600020602052806000526040600020600091509150505481565b6001151560af60009054906101000a900460ff16151514611d90576040517f08c379a000000000000000000000000000000000000000000000000000000000815260040180806020018281038252602b815260200180614a72602b913960400191505060405180910390fd5b6000151560b260009054906101000a900460ff16151514611dfc576040517f08c379a0000000000000000000000000000000000000000000000000000000008152600401808060200182810382526027815260200180614a4b6027913960400191505060405180910390fd5b60a960019054906101000a900460ff1615611e1f57611e1a81613fc9565b611e29565b611e28816141cd565b5b50565b606b8160148110611e3957fe5b016000915090505481565b80611e4e81610cd9565b6000151560a960009054906101000a900460ff16151514611e6e57600080fd5b611e7833846137df565b611edb8360b7600085815260200190815260200160002060003373ffffffffffffffffffffffffffffffffffffffff1673ffffffffffffffffffffffffffffffffffffffff1681526020019081526020016000205461323290919063ffffffff16565b60b7600084815260200190815260200160002060003373ffffffffffffffffffffffffffffffffffffffff1673ffffffffffffffffffffffffffffffffffffffff16815260200190815260200160002081905550505050565b60008015611f9957611f9262015180611f84611f6760578660148110611f5657fe5b01544261311890919063ffffffff16565b602e8660148110611f7457fe5b015461316290919063ffffffff16565b6131e890919063ffffffff16565b9050612057565b600015611ffe57611ff76301e13380611fe9611fcc60578660148110611fbb57fe5b01544261311890919063ffffffff16565b602e8660148110611fd957fe5b015461316290919063ffffffff16565b6131e890919063ffffffff16565b9050612057565b612054620151806120466120296057866014811061201857fe5b01544261311890919063ffffffff16565b602e866014811061203657fe5b015461316290919063ffffffff16565b6131e890919063ffffffff16565b90505b919050565b60008061206883611f34565b90506000600260009054906101000a900473ffffffffffffffffffffffffffffffffffffffff1673ffffffffffffffffffffffffffffffffffffffff16636352211e856040518263ffffffff1660e01b81526004018082815260200191505060206040518083038186803b1580156120df57600080fd5b505afa1580156120f3573d6000803e3d6000fd5b505050506040513d602081101561210957600080fd5b810190808051906020019092919050505090503373ffffffffffffffffffffffffffffffffffffffff168173ffffffffffffffffffffffffffffffffffffffff16141561221e5760b7600085815260200190815260200160002060003373ffffffffffffffffffffffffffffffffffffffff1673ffffffffffffffffffffffffffffffffffffffff1681526020019081526020016000205482106121b257600092505050612274565b6122158260b7600087815260200190815260200160002060003373ffffffffffffffffffffffffffffffffffffffff1673ffffffffffffffffffffffffffffffffffffffff1681526020019081526020016000205461311890919063ffffffff16565b92505050612274565b60b7600085815260200190815260200160002060003373ffffffffffffffffffffffffffffffffffffffff1673ffffffffffffffffffffffffffffffffffffffff16815260200190815260200160002054925050505b919050565b60b96020528060005260406000206000915090505481565b8061229b81610cd9565b6000151560a960009054906101000a900460ff161515146122bb57600080fd5b61231560b7600084815260200190815260200160002060003373ffffffffffffffffffffffffffffffffffffffff1673ffffffffffffffffffffffffffffffffffffffff16815260200190815260200160002054836143f2565b5050565b6001151560ad60019054906101000a900460ff161515146123a2576040517f08c379a000000000000000000000000000000000000000000000000000000000815260040180806020018281038252601d8152602001807f4d7573742073656c6c20636f6d706c657465207365747320666972737400000081525060200191505060405180910390fd5b6000151560af60009054906101000a900460ff1615151461242b576040517f08c379a00000000000000000000000000000000000000000000000000000000081526004018080602001828103825260148152602001807f43616e742063616c6c207468697320747769636500000000000000000000000081525060200191505060405180910390fd5b6124336145e2565b60ae8190555060a960019054906101000a900460ff16156124b3576000612466606460ae546131e890919063ffffffff16565b9050612496601960009054906101000a900473ffffffffffffffffffffffffffffffffffffffff168260036146d4565b6124ab8160ae5461311890919063ffffffff16565b60ae81905550505b600160af60006101000a81548160ff021916908315150217905550565b600260009054906101000a900473ffffffffffffffffffffffffffffffffffffffff1681565b6057816014811061250357fe5b016000915090505481565b60006020528060005260406000206000915090505481565b60a85481565b600060b36000848152602001908152602001600020600083815260200190815260200160002060000160009054906101000a900473ffffffffffffffffffffffffffffffffffffffff16905092915050565b601960009054906101000a900473ffffffffffffffffffffffffffffffffffffffff1681565b6001151560a960009054906101000a900460ff1615151461262d576040517f08c379a000000000000000000000000000000000000000000000000000000000815260040180806020018281038252601a8152602001807f4d61726b657473206d757374207265736f6c766520666972737400000000000081525060200191505060405180910390fd5b6000151560ab60009054906101000a900460ff16151514612699576040517f08c379a000000000000000000000000000000000000000000000000000000000815260040180806020018281038252602b815260200180614b12602b913960400191505060405180910390fd5b600080905060008090505b60148110156126fa5760008090505b609382601481106126c057fe5b01548110156126ec576126dd60018461323290919063ffffffff16565b925080806001019150506126b3565b5080806001019150506126a4565b508060aa81905550600160ab60006101000a81548160ff02191690831515021790555050565b60b3602052816000526040600020602052806000526040600020600091509150508060000160009054906101000a900473ffffffffffffffffffffffffffffffffffffffff16908060010154905082565b60b66020528060005260406000206000915090505481565b6000151560a960009054906101000a900460ff161515146127a957600080fd5b60008090505b60148110156127ce576127c181610cd9565b80806001019150506127af565b50565b806127db81610cd9565b6000151560a960009054906101000a900460ff161515146127fb57600080fd5b602e826014811061280857fe5b01548311612861576040517f08c379a000000000000000000000000000000000000000000000000000000000815260040180806020018281038252602b815260200180614a9d602b913960400191505060405180910390fd5b600260009054906101000a900473ffffffffffffffffffffffffffffffffffffffff1673ffffffffffffffffffffffffffffffffffffffff16636352211e836040518263ffffffff1660e01b81526004018082815260200191505060206040518083038186803b1580156128d457600080fd5b505afa1580156128e8573d6000803e3d6000fd5b505050506040513d60208110156128fe57600080fd5b810190808051906020019092919050505073ffffffffffffffffffffffffffffffffffffffff163373ffffffffffffffffffffffffffffffffffffffff16146129af576040517f08c379a00000000000000000000000000000000000000000000000000000000081526004018080602001828103825260098152602001807f4e6f74206f776e6572000000000000000000000000000000000000000000000081525060200191505060405180910390fd5b82602e83601481106129bd57fe5b01819055508260b360008481526020019081526020016000206000607f85601481106129e557fe5b0154815260200190815260200160002060010181905550602e8260148110612a0957fe5b01547f854d6511a28585103049c7770618450f7c9aeb580c69db2913d63869663f475160405160405180910390a2505050565b6000151560a960009054906101000a900460ff16151514612aa8576040517f08c379a000000000000000000000000000000000000000000000000000000000815260040180806020018281038252602b815260200180614b12602b913960400191505060405180910390fd5b62f0c3f060a854014211612b07576040517f08c379a0000000000000000000000000000000000000000000000000000000008152600401808060200182810382526023815260200180614ac86023913960400191505060405180910390fd5b612b0f612789565b600160a960006101000a81548160ff021916908315150217905550565b600081612b3881610cd9565b6000151560a960009054906101000a900460ff16151514612b5857600080fd5b612b6284846143f2565b5092915050565b6000151560a960009054906101000a900460ff16151514612bd5576040517f08c379a000000000000000000000000000000000000000000000000000000000815260040180806020018281038252602b815260200180614b12602b913960400191505060405180910390fd5b601960009054906101000a900473ffffffffffffffffffffffffffffffffffffffff1673ffffffffffffffffffffffffffffffffffffffff163373ffffffffffffffffffffffffffffffffffffffff1614612c98576040517f08c379a00000000000000000000000000000000000000000000000000000000081526004018080602001828103825260198152602001807f4f6e6c7920416e647265772063616e2063616c6c20746869730000000000000081525060200191505060405180910390fd5b612ca0612789565b600160a960006101000a81548160ff021916908315150217905550565b6001151560ab60009054906101000a900460ff16151514612d46576040517f08c379a00000000000000000000000000000000000000000000000000000000081526004018080602001828103825260208152602001807f4d7573742063616c6c206765744c6f6f7073526571756972656420666972737481525060200191505060405180910390fd5b6000151560ad60009054906101000a900460ff16151514612dcf576040517f08c379a00000000000000000000000000000000000000000000000000000000081526004018080602001828103825260198152602001807f4465706f7369747320616c72656164792072657475726e65640000000000000081525060200191505060405180910390fd5b6000809050600060ac5490506000612df28460ac5461323290919063ffffffff16565b905060008090505b6014811015612f8d5760008090505b60938260148110612e1657fe5b0154811015612f7f57838510158015612e2e57508285105b15612f5c57600060b46000848152602001908152602001600020600083815260200190815260200160002060009054906101000a900473ffffffffffffffffffffffffffffffffffffffff169050600060b7600085815260200190815260200160002060008373ffffffffffffffffffffffffffffffffffffffff1673ffffffffffffffffffffffffffffffffffffffff168152602001908152602001600020549050600060b7600086815260200190815260200160002060008473ffffffffffffffffffffffffffffffffffffffff1673ffffffffffffffffffffffffffffffffffffffff168152602001908152602001600020819055506000811115612f3d57612f3c828260006146d4565b5b612f53600160ac5461323290919063ffffffff16565b60ac8190555050505b612f7060018661323290919063ffffffff16565b94508080600101915050612e09565b508080600101915050612dfa565b5060aa548110612fb357600160ad60006101000a81548160ff0219169083151502179055505b50505050565b60938160148110612fc657fe5b016000915090505481565b60428160148110612fde57fe5b016000915090505481565b60565481565b607f8160148110612ffc57fe5b016000915090505481565b600060b36000848152602001908152602001600020600083815260200190815260200160002060010154905092915050565b60b46020528160005260406000206020528060005260406000206000915091509054906101000a900473ffffffffffffffffffffffffffffffffffffffff1681565b6000806000156130b0576130a962015180602e856014811061309957fe5b01546131e890919063ffffffff16565b90506130e0565b6000156130df576130dc6301e13380602e85601481106130cc57fe5b01546131e890919063ffffffff16565b90505b5b60008114156130f25742915050613113565b61310d816130ff85611479565b6131e890919063ffffffff16565b42019150505b919050565b600061315a83836040518060400160405280601e81526020017f536166654d6174683a207375627472616374696f6e206f766572666c6f7700008152506147be565b905092915050565b60008083141561317557600090506131e2565b600082840290508284828161318657fe5b04146131dd576040517f08c379a0000000000000000000000000000000000000000000000000000000008152600401808060200182810382526021815260200180614b3d6021913960400191505060405180910390fd5b809150505b92915050565b600061322a83836040518060400160405280601a81526020017f536166654d6174683a206469766973696f6e206279207a65726f00000000000081525061487e565b905092915050565b6000808284019050838110156132b0576040517f08c379a000000000000000000000000000000000000000000000000000000000815260040180806020018281038252601b8152602001807f536166654d6174683a206164646974696f6e206f766572666c6f77000000000081525060200191505060405180910390fd5b8091505092915050565b60008090505b60001515811515141561352a576000607f83601481106132dc57fe5b015410156132e657fe5b6133086001607f84601481106132f857fe5b015461311890919063ffffffff16565b607f836014811061331557fe5b01819055506000607f836014811061332957fe5b01549050600060b36000858152602001908152602001600020600083815260200190815260200160002060000160009054906101000a900473ffffffffffffffffffffffffffffffffffffffff16905060008214156133945761338b84614944565b60019250613523565b600060b7600086815260200190815260200160002060008373ffffffffffffffffffffffffffffffffffffffff1673ffffffffffffffffffffffffffffffffffffffff168152602001908152602001600020541115613522576000600260009054906101000a900473ffffffffffffffffffffffffffffffffffffffff1673ffffffffffffffffffffffffffffffffffffffff16636352211e866040518263ffffffff1660e01b81526004018082815260200191505060206040518083038186803b15801561346257600080fd5b505afa158015613476573d6000803e3d6000fd5b505050506040513d602081101561348c57600080fd5b81019080805190602001909291905050509050600060b3600087815260200190815260200160002060008581526020019081526020016000206001015490506134d7828483896138fc565b600194508273ffffffffffffffffffffffffffffffffffffffff16867fdcd7d049706cf89eb40b5726d483d3aa2001e43b729f0f411cdda43c2fe59f5260405160405180910390a350505b5b50506132c0565b5050565b600115156000151514156136695760006135526064836131e890919063ffffffff16565b9050601760009054906101000a900473ffffffffffffffffffffffffffffffffffffffff1673ffffffffffffffffffffffffffffffffffffffff1663abb60c806003856014811061359f57fe5b0160009054906101000a900473ffffffffffffffffffffffffffffffffffffffff16836040518363ffffffff1660e01b8152600401808373ffffffffffffffffffffffffffffffffffffffff1673ffffffffffffffffffffffffffffffffffffffff16815260200182815260200192505050602060405180830381600087803b15801561362b57600080fd5b505af115801561363f573d6000803e3d6000fd5b505050506040513d602081101561365557600080fd5b810190808051906020019092919050505050505b5050565b600115156000151514156137dd5760008090505b60148110156137db5760006136ae60646042846014811061369e57fe5b01546131e890919063ffffffff16565b9050601760009054906101000a900473ffffffffffffffffffffffffffffffffffffffff1673ffffffffffffffffffffffffffffffffffffffff1663ad16158e600384601481106136fb57fe5b0160009054906101000a900473ffffffffffffffffffffffffffffffffffffffff16836040518363ffffffff1660e01b8152600401808373ffffffffffffffffffffffffffffffffffffffff1673ffffffffffffffffffffffffffffffffffffffff168152602001828152602001925050506040805180830381600087803b15801561378657600080fd5b505af115801561379a573d6000803e3d6000fd5b505050506040513d60408110156137b057600080fd5b8101908080519060200190929190805190602001909291905050505050508080600101915050613681565b505b565b601860009054906101000a900473ffffffffffffffffffffffffffffffffffffffff1673ffffffffffffffffffffffffffffffffffffffff166323b872dd8330846040518463ffffffff1660e01b8152600401808473ffffffffffffffffffffffffffffffffffffffff1673ffffffffffffffffffffffffffffffffffffffff1681526020018373ffffffffffffffffffffffffffffffffffffffff1673ffffffffffffffffffffffffffffffffffffffff1681526020018281526020019350505050602060405180830381600087803b1580156138bc57600080fd5b505af11580156138d0573d6000803e3d6000fd5b505050506040513d60208110156138e657600080fd5b8101908080519060200190929190505050505050565b600260009054906101000a900473ffffffffffffffffffffffffffffffffffffffff1673ffffffffffffffffffffffffffffffffffffffff166323b872dd8585846040518463ffffffff1660e01b8152600401808473ffffffffffffffffffffffffffffffffffffffff1673ffffffffffffffffffffffffffffffffffffffff1681526020018373ffffffffffffffffffffffffffffffffffffffff1673ffffffffffffffffffffffffffffffffffffffff1681526020018281526020019350505050600060405180830381600087803b1580156139d957600080fd5b505af11580156139ed573d6000803e3d6000fd5b5050505081602e82601481106139ff57fe5b018190555050505050565b60008015613ca557600080905060008090505b6014811015613c8757600060038260148110613a3557fe5b0160009054906101000a900473ffffffffffffffffffffffffffffffffffffffff1673ffffffffffffffffffffffffffffffffffffffff16633c26482060006040518263ffffffff1660e01b81526004018082815260200191505060206040518083038186803b158015613aa857600080fd5b505afa158015613abc573d6000803e3d6000fd5b505050506040513d6020811015613ad257600080fd5b81019080805190602001909291905050501180613ba95750600060038260148110613af957fe5b0160009054906101000a900473ffffffffffffffffffffffffffffffffffffffff1673ffffffffffffffffffffffffffffffffffffffff16633c26482060016040518263ffffffff1660e01b81526004018082815260200191505060206040518083038186803b158015613b6c57600080fd5b505afa158015613b80573d6000803e3d6000fd5b505050506040513d6020811015613b9657600080fd5b8101908080519060200190929190505050115b80613c6e5750600060038260148110613bbe57fe5b0160009054906101000a900473ffffffffffffffffffffffffffffffffffffffff1673ffffffffffffffffffffffffffffffffffffffff16633c26482060026040518263ffffffff1660e01b81526004018082815260200191505060206040518083038186803b158015613c3157600080fd5b505afa158015613c45573d6000803e3d6000fd5b505050506040513d6020811015613c5b57600080fd5b8101908080519060200190929190505050115b15613c7a576001820191505b8080600101915050613a1d565b506014811415613c9b576001915050613caa565b6000915050613caa565b600190505b90565b60008015613fb85762010f2c925060008090506000809050600080905060008090505b6014811015613f7b57600060038260148110613ce857fe5b0160009054906101000a900473ffffffffffffffffffffffffffffffffffffffff1673ffffffffffffffffffffffffffffffffffffffff16633c26482060006040518263ffffffff1660e01b81526004018082815260200191505060206040518083038186803b158015613d5b57600080fd5b505afa158015613d6f573d6000803e3d6000fd5b505050506040513d6020811015613d8557600080fd5b81019080805190602001909291905050501115613db357613db060018361323290919063ffffffff16565b91505b600060038260148110613dc257fe5b0160009054906101000a900473ffffffffffffffffffffffffffffffffffffffff1673ffffffffffffffffffffffffffffffffffffffff16633c26482060016040518263ffffffff1660e01b81526004018082815260200191505060206040518083038186803b158015613e3557600080fd5b505afa158015613e49573d6000803e3d6000fd5b505050506040513d6020811015613e5f57600080fd5b81019080805190602001909291905050501115613e94578060a781905550613e9160018561323290919063ffffffff16565b93505b600060038260148110613ea357fe5b0160009054906101000a900473ffffffffffffffffffffffffffffffffffffffff1673ffffffffffffffffffffffffffffffffffffffff16633c26482060026040518263ffffffff1660e01b81526004018082815260200191505060206040518083038186803b158015613f1657600080fd5b505afa158015613f2a573d6000803e3d6000fd5b505050506040513d6020811015613f4057600080fd5b81019080805190602001909291905050501115613f6e57613f6b60018461323290919063ffffffff16565b92505b8080600101915050613cd0565b50600183148015613f8c5750600081145b8015613f9b5750600160140382145b15613fac5760019350505050613fc3565b60009350505050613fc3565b8260a7819055508190505b92915050565b6000809050600060b05490506000613fec8460b05461323290919063ffffffff16565b905060008090505b609360a7546014811061400357fe5b01548110156141615782841015801561401b57508184105b1561413e57600060b4600060a7548152602001908152602001600020600083815260200190815260200160002060009054906101000a900473ffffffffffffffffffffffffffffffffffffffff169050600060b5600060a754815260200190815260200160002060008373ffffffffffffffffffffffffffffffffffffffff1673ffffffffffffffffffffffffffffffffffffffff16815260200190815260200160002054905060006140d98260ae5461316290919063ffffffff16565b9050600061410560b6600060a754815260200190815260200160002054836131e890919063ffffffff16565b9050600081111561411d5761411c848260016146d4565b5b614133600160b05461323290919063ffffffff16565b60b081905550505050505b61415260018561323290919063ffffffff16565b93508080600101915050613ff4565b50609360a7546014811061417157fe5b0154811061419557600160b260006101000a81548160ff0219169083151502179055505b60ae5460a7547faec4660fb36dce4768bdbe4e8e3291cf849dc4af665b9e32e041c2b2c2a457ae60405160405180910390a350505050565b6000809050600060b154905060006141f08460b15461323290919063ffffffff16565b905060008090505b60148110156143975760008090505b6093826014811061421457fe5b01548110156143895783851015801561422c57508285105b1561436657600060b46000848152602001908152602001600020600083815260200190815260200160002060009054906101000a900473ffffffffffffffffffffffffffffffffffffffff16905060006142d060b960008473ffffffffffffffffffffffffffffffffffffffff1673ffffffffffffffffffffffffffffffffffffffff1681526020019081526020016000205460ae5461316290919063ffffffff16565b905060006142e9605654836131e890919063ffffffff16565b9050600060b960008573ffffffffffffffffffffffffffffffffffffffff1673ffffffffffffffffffffffffffffffffffffffff16815260200190815260200160002081905550600081111561434657614345838260016146d4565b5b61435c600160b15461323290919063ffffffff16565b60b1819055505050505b61437a60018661323290919063ffffffff16565b94508080600101915050614207565b5080806001019150506141f8565b5060aa5481106143bd57600160b260006101000a81548160ff0219169083151502179055505b60ae547f27c045f6b0fb193165b1e937514e394a92ea7d7d64be1f7f98ee0a199cc2978660405160405180910390a250505050565b8160b7600083815260200190815260200160002060003373ffffffffffffffffffffffffffffffffffffffff1673ffffffffffffffffffffffffffffffffffffffff1681526020019081526020016000205410156144b8576040517f08c379a00000000000000000000000000000000000000000000000000000000081526004018080602001828103825260148152602001807f5769746864726177696e6720746f6f206d75636800000000000000000000000081525060200191505060405180910390fd5b61451b8260b7600084815260200190815260200160002060003373ffffffffffffffffffffffffffffffffffffffff1673ffffffffffffffffffffffffffffffffffffffff1681526020019081526020016000205461311890919063ffffffff16565b60b7600083815260200190815260200160002060003373ffffffffffffffffffffffffffffffffffffffff1673ffffffffffffffffffffffffffffffffffffffff1681526020019081526020016000208190555061457b338360006146d4565b600060b7600083815260200190815260200160002060003373ffffffffffffffffffffffffffffffffffffffff1673ffffffffffffffffffffffffffffffffffffffff1681526020019081526020016000205414156145de576145dd816132ba565b5b5050565b600080156146cb57601860009054906101000a900473ffffffffffffffffffffffffffffffffffffffff1673ffffffffffffffffffffffffffffffffffffffff166370a08231306040518263ffffffff1660e01b8152600401808273ffffffffffffffffffffffffffffffffffffffff1673ffffffffffffffffffffffffffffffffffffffff16815260200191505060206040518083038186803b15801561468957600080fd5b505afa15801561469d573d6000803e3d6000fd5b505050506040513d60208110156146b357600080fd5b810190808051906020019092919050505090506146d1565b60565490505b90565b601860009054906101000a900473ffffffffffffffffffffffffffffffffffffffff1673ffffffffffffffffffffffffffffffffffffffff1663a9059cbb84846040518363ffffffff1660e01b8152600401808373ffffffffffffffffffffffffffffffffffffffff1673ffffffffffffffffffffffffffffffffffffffff16815260200182815260200192505050602060405180830381600087803b15801561477d57600080fd5b505af1158015614791573d6000803e3d6000fd5b505050506040513d60208110156147a757600080fd5b810190808051906020019092919050505050505050565b600083831115829061486b576040517f08c379a00000000000000000000000000000000000000000000000000000000081526004018080602001828103825283818151815260200191508051906020019080838360005b83811015614830578082015181840152602081019050614815565b50505050905090810190601f16801561485d5780820380516001836020036101000a031916815260200191505b509250505060405180910390fd5b5060008385039050809150509392505050565b6000808311829061492a576040517f08c379a00000000000000000000000000000000000000000000000000000000081526004018080602001828103825283818151815260200191508051906020019080838360005b838110156148ef5780820151818401526020810190506148d4565b50505050905090810190601f16801561491c5780820380516001836020036101000a031916815260200191505b509250505060405180910390fd5b50600083858161493657fe5b049050809150509392505050565b6000600260009054906101000a900473ffffffffffffffffffffffffffffffffffffffff1673ffffffffffffffffffffffffffffffffffffffff16636352211e836040518263ffffffff1660e01b81526004018082815260200191505060206040518083038186803b1580156149b957600080fd5b505afa1580156149cd573d6000803e3d6000fd5b505050506040513d60208110156149e357600080fd5b81019080805190602001909291905050509050614a0381306000856138fc565b8073ffffffffffffffffffffffffffffffffffffffff167f6d6bbefef62d4cb6d0e3a4dd306a71d3632319b1e03659513df86b247dd657fe60405160405180910390a2505056fe57696e6e696e677320616c72656164792070616964206f722066756e64732072657475726e65644d7573742063616c6c20676574446169417661696c61626c65546f446973747269627574652066697273744e6577207072696365206d75737420626520686967686572207468616e2063757272656e742070726963654d75737420776169742036206d6f6e74687320666f72204175677572204f7261636c655072696365206d75737420626520686967686572207468616e2063757272656e74207072696365546869732066756e6374696f6e2073686f756c64206f6e6c7920626520636f6d706c65746564206f6e6365536166654d6174683a206d756c7469706c69636174696f6e206f766572666c6f77a265627a7a72315820c5e823139e76a03c793e7506920d8eff0521f3d2ef51eae88f7b00787f284fec64736f6c634300050c0032",
  "source": "pragma solidity ^0.5.0;\nimport \"./interfaces/IERC721Full.sol\";\nimport \"./utils/SafeMath.sol\";\n\n/// @title Augur Markets interface\n/// @notice Gets the winner of each market from Augur\ninterface IMarket \n{\n    function getWinningPayoutNumerator(uint256 _outcome) external view returns (uint256);\n}\n\n/// @title Augur ShareToken interface\n/// @notice used for buying and selling complete sets\ninterface ShareToken \n{\n    function publicBuyCompleteSets(IMarket _market, uint256 _amount) external returns (bool)  ;\n    function publicSellCompleteSets(IMarket _market, uint256 _amount) external returns (uint256 _creatorFee, uint256 _reportingFee) ;\n}\n\n/// @title Dai contract interface\n/// @notice Various cash functions\ninterface Cash \n{\n    function approve(address _spender, uint256 _amount) external returns (bool);\n    function balanceOf(address _ownesr) external view returns (uint256);\n    function faucet(uint256 _amount) external;\n    function transfer(address _to, uint256 _amount) external returns (bool);\n    function transferFrom(address _from, address _to, uint256 _amount) external returns (bool);\n}\n\n//TODO: have not yet tested the new check winner functions\n//TODO: replace completesets with OICash\n//TODO: change front end to only approve the same amount that is being sent\n// ^ will also need to figure out how to pass this number in the correct format because decimal\n// ^ does not seem to work for more than 100 dai, it needs big number\n//TODO: remove andrewsAddress from Token contract deployment\n\n/// @title Harber\n/// @author Andrew Stanger\n/// @dev ensure usingAugur is set to false upon local testing and true on kovan or mainnet\ncontract Harber {\n\n    using SafeMath for uint256;\n\n    // NUMBER OF TOKENS\n    // also equals number of markets on augur\n    uint256 constant numberOfTokens = 20;\n\n    // TESTING VARIABLES\n    // if usingAugur false, none of the augur contracts are interacted with. Required false for ganache testing. // must be true in production :)\n    bool constant usingAugur = false; \n    // below are in lieu of interacting with ERC20 token contract, for tests\n    mapping (address => uint256) public winningsSentToUser;\n    mapping (address => uint256) public depositReturnedToUser;\n    // harber_tests1 was written for 100 wei dai and annual rental prices\n    // other tests and production use 100 dai and daily rental prices\n    bool constant usingTests1 =false;\n    \n    // CONTRACT VARIABLES\n    IERC721Full public team; // ERC721 NFT.\n    //Augur contracts:\n    IMarket[numberOfTokens] market;\n    ShareToken completeSets;\n    Cash cash; \n\n    // UINTS ADDRESSES, BOOLS\n    address public andrewsAddress; // my whiskey fund, for my 1% cut\n    address[numberOfTokens] public marketAddresses; // the addresses of the various Augur binary markets. One market for each token. Initiated in the constructor and does not change.\n    uint256[numberOfTokens] public price; //in dai-wei (so $100 = 100000000000000000000)\n    uint256[numberOfTokens] public collectedPerMarket; // amount collected for each token, ie the sum of all owners' rent per token. Used to know how many complete\n    // sets to sell for each market (since there is one market per token) \n    uint256 public totalCollected; // an easy way to track the above across all tokens.\n    uint256[numberOfTokens] public timeLastCollected; // used to determine the rent due. Rent is due for the period (now - timeLastCollected), at which point timeLastCollected is set to now.\n    uint256[numberOfTokens] public timeAcquired; // when a token was bought. used only for front end\n    uint256[numberOfTokens] public currentOwnerIndex; // tracks the position of the current owner in the previousOwnerTracker mapping\n    uint256[numberOfTokens] public numberOfOwners; //used to cycle through ownerTracker during finalse & payout. Since you can't find the size of a mapping. If the value is 5, it means there are 5 owners. Ie it is not doing programming counting. \n  \n    // winning outcome variables\n    uint256 winningOutcome = 42069; //start with invalid winning outcome\n    uint256 public marketExpectedResolutionTime; //so the function to manually set the winner can only be called long after it should have resolved via Augur. Must be public so others can verify it is accurate. \n\n    // Market resolution variables\n    // step1:\n    bool marketsResolved = false; // must be false for step1, true for step2\n    bool marketsResolvedWithoutErrors = false; // set in step 1. If true, normal payout. If false, return all funds\n    // step 2:\n    uint256 loopsRequired = 0; // for returnDeposits and returnAllFunds functions\n    bool loopsRequiredComplete = false; // must be false for step2, true for step3\n    // step 3:\n    uint256 returnDepositsLoopsCompleted = 0;\n    bool returnDepositsComplete = false; // must be false for step3, true for step4\n    // step 4:\n    bool sellCompleteSetsComplete = false; // must be false for step4, true for step5\n    // step 5:\n    uint256 daiAvailableToDistribute = 0;\n    bool getDaiAvailableToDistributeComplete = false; // must be false for step5, true for step6\n    // step 6:\n    uint256 payoutWinningsLoopsCompleted = 0;\n    uint256 returnAllFundsLoopsCompleted = 0;\n    bool doneAndDusted = false; // must be false for step6\n    \n    //  STRUCTS\n    struct purchase {\n        address owner;\n        uint256 price;\n    }\n    \n    // MAPPINGS\n    mapping (uint256 => mapping (uint256 => purchase) ) public previousOwnerTracker; //keeps track of all previous owners of a token, including the price, so that if the current owner's deposit runs out, ownership can be reverted to a previous owner with the previous price. Index 0 is NOT used, this tells the contract to foreclose. This does NOT keep a reliable list of all owners, if it reverts to a previous owner then the next owner will overwrite the owner that was in that slot. The variable currentOwnerIndex is used to track the location of the current owner. \n    mapping (uint256 => mapping (uint256 => address) ) public ownerTracker; //used to keep hold of all the owners, for payout, similar to previousOwnerTracker except that the pointer to the current position never decrements\n    mapping (uint256 => mapping (address => uint256) ) public timeHeld; //this is the key variable that tracks the total amount of time each user has held it for. It is key because this is used to determine the proportion of the pot to be sent to each winning address\n    mapping (uint256 => uint256) public totalTimeHeld; //sums all the timeHelds for each token. Not required, but saves on gas when paying out\n    mapping (uint256 => mapping (address => uint256) ) public deposits; //keeps track of all the deposits for each token, for each owner. Unused deposits are not returned automatically when there is a new buyer. They can be withdrawn manually however. Unused deposits are returned automatically upon resolution of the market\n    mapping (uint256 => mapping (address => bool)) public everOwned; //this is required to prevent the ownerTracker variable being incremented unless a completely new user buys the token. \n    mapping (address => uint256) public collectedPerUser; //keeps track of all the rent paid by each user. So that it can be returned in case of an invalid market outcome. Only required in this instance. \n\n    ////////////// CONSTRUCTOR //////////////\n    constructor(address _andrewsAddress, address _addressOfToken, address _addressOfCashContract, address[numberOfTokens] memory _addressesOfMarkets, address _addressOfCompleteSetsContract, address _addressOfMainAugurContract, uint _marketExpectedResolutionTime) public {\n        //initialise ERC721s\n        team = IERC721Full(_addressOfToken);\n        // team.setup(msg.sender);\n        andrewsAddress = _andrewsAddress;\n        marketAddresses = _addressesOfMarkets; //this is to make the market addresses public so users can check the actual augur markets for themselves\n\n        for (uint i=0; i<numberOfTokens; i++)\n        {\n            currentOwnerIndex[i]=0;\n            numberOfOwners[i]=0;\n            market[i] = IMarket(_addressesOfMarkets[i]);\n        }\n\n        //initialise Augur contract variables (markets variables initialised above)\n        cash = Cash(_addressOfCashContract);\n        completeSets = ShareToken(_addressOfCompleteSetsContract);\n        marketExpectedResolutionTime = _marketExpectedResolutionTime;\n        \n        //approve Augur contract to transfer this contract's dai\n        cash.approve(_addressOfMainAugurContract,(2**256)-1);\n    } \n\n    event LogBuy(address indexed owner, uint256 indexed price);\n    event LogPriceChange(uint256 indexed newPrice);\n    event LogForeclosure(address indexed prevOwner);\n    event LogRentCollection(uint256 indexed collectedPerMarket);\n    event LogFinalised(uint256 indexed winningOutcome, uint256 indexed daiAvailableToDistribute);\n    event LogFundsReturned(uint256 indexed daiAvailableToDistribute);\n    event LogReturnToPreviousOwner(uint256 indexed tokenId, address indexed previousOwner);\n\n\n    ////////////// MODIFIERS //////////////\n    /// @notice prevents functions from being interacted with after the end of the competition \n    /// @dev should be on all public functions\n    modifier notResolved() {\n        require(marketsResolved == false);\n        _;\n    }\n\n    /// @notice collect Rent\n    /// @dev should be on all 'ordinary course of business' functions\n    modifier collectRent(uint256 _tokenId) {\n       _collectRent(_tokenId); \n       _;\n    }\n\n    ////////////// VIEW FUNCTIONS //////////////\n    /// @dev used in testing only\n    function getOwnerTrackerPrice(uint256 _tokenId, uint256 _index) public view returns (uint256)\n    {\n        return (previousOwnerTracker[_tokenId][_index].price);\n    }\n\n    /// @dev used in testing only\n    function getOwnerTrackerAddress(uint256 _tokenId, uint256 _index) public view returns (address)\n    {\n        return (previousOwnerTracker[_tokenId][_index].owner);\n    }\n\n    /// @dev called in collectRent function, and various other view functions \n    function rentOwed(uint256 _tokenId) public view returns (uint256 augurFundsDue) \n    {\n        //the tests are written assuming price = annual rental price. Final version should be price =daily rental price\n        if (usingAugur) {\n            return price[_tokenId].mul(now.sub(timeLastCollected[_tokenId])).div(1 days);\n        }\n        else {\n            if(usingTests1) {\n                return price[_tokenId].mul(now.sub(timeLastCollected[_tokenId])).div(365 days);\n            }\n            else {\n                return price[_tokenId].mul(now.sub(timeLastCollected[_tokenId])).div(1 days);\n            }\n        }\n    }\n\n    /// @dev for front end only\n    /// @return how much the current owner has deposited\n    function liveDepositAbleToWithdraw(uint256 _tokenId) public view returns (uint256) \n    {\n        uint256 _rentOwed = rentOwed(_tokenId);\n        address _currentOwner = team.ownerOf(_tokenId);\n        if(_rentOwed >= deposits[_tokenId][_currentOwner]) {\n            return 0;\n        } else {\n            return deposits[_tokenId][_currentOwner].sub(_rentOwed);\n        }\n    }\n\n    /// @dev for front end only\n    /// @return how much the current user (regardless of whether or not they own it) has deposited\n    function userDepositAbleToWithdraw(uint256 _tokenId) public view returns (uint256) \n    {\n        uint256 _rentOwed = rentOwed(_tokenId);\n        address _currentOwner = team.ownerOf(_tokenId);\n\n        if(_currentOwner == msg.sender)\n        {\n            if(_rentOwed >= deposits[_tokenId][msg.sender]) \n        {\n            return 0;\n        } else {\n            return deposits[_tokenId][msg.sender].sub(_rentOwed);\n        }\n        } else {\n            return deposits[_tokenId][msg.sender];\n        }\n    }\n\n    /// @dev for front end only\n    /// @return estimated rental expiry time\n    function rentalExpiryTime(uint256 _tokenId) public view returns (uint256) \n    {\n        uint256 pps;\n        if (usingAugur) {\n            pps = price[_tokenId].div(24 hours);\n        }\n        else {\n            if(usingTests1) {\n                pps = price[_tokenId].div(365 days);\n            }\n        }\n        if (pps == 0)\n        {\n            return now; //if price is so low that pps = 0 just return current time as a fallback\n        }\n        else\n        {\n            return now + liveDepositAbleToWithdraw(_tokenId).div(pps);\n        }\n    }\n\n    ////////////// AUGUR FUNCTIONS //////////////\n    // * internal * \n    /// @notice buy complete sets from Augur\n    function _buyCompleteSets(uint256 _tokenId, uint256 _rentOwed) internal \n    {\n        if (usingAugur == true)\n        {\n            uint256 _setsToBuy =_rentOwed.div(100);\n            completeSets.publicBuyCompleteSets(market[_tokenId], _setsToBuy);\n        } \n    }\n\n    // * internal *\n    /// @notice buy complete sets from Augur\n    function _sellCompleteSets() internal \n    {\n        if (usingAugur == true)\n        {\n            for (uint i=0; i<numberOfTokens; i++) {\n                uint256 _setsToSell =collectedPerMarket[i].div(100);\n                completeSets.publicSellCompleteSets(market[i], _setsToSell);\n            } \n        } \n    }\n\n    // * internal * \n    /// @notice THIS FUNCTION HAS NOT BEEN TESTED ON AUGUR YET\n    /// @notice checks if all X (x = number of tokens = number of teams) markets have resolved to either yes, no, or invalid\n    /// @return true if yes, false if no\n    function _haveAllAugurMarketsResolved() internal returns(bool) \n    {   \n        if (usingAugur) {\n            uint256 _resolvedOutcomesCount = 0;\n\n            for (uint i=0; i<numberOfTokens; i++) {\n                // binary market has three outcomes: 0 (invalid), 1 (yes), 2 (no)\n                if (market[i].getWinningPayoutNumerator(0) > 0 || market[i].getWinningPayoutNumerator(1) > 0 || market[i].getWinningPayoutNumerator(2) > 0  ) {\n                    _resolvedOutcomesCount = _resolvedOutcomesCount + 1;\n                }\n            }\n\n            if (_resolvedOutcomesCount == numberOfTokens) {\n                return true;\n            } else {\n                return false;\n            }\n        }\n        //hard code 'yes' for testing\n        else {\n            return true;\n        }\n    }\n\n    // * internal * \n    /// @notice THIS FUNCTION HAS NOT BEEN TESTED ON AUGUR YET\n    /// @notice checks if all markets have resolved without conflicts or errors\n    /// @return true if yes, false if no\n    /// @dev this function will also set the winningOutcome variable\n    /// @dev the reason there are two functions (haveAllAugurMarketsResolved and haveAllAugurMarketsResolvedWithoutErrors) is simply to ensure that the contract does not interpret\n    /// @dev ... a delay in one of the market's resolving as an 'error' and refunding everyone prematurely\n    /// @dev the two arguments this function takes are for testing only. They are not used when usingAugur is set to true\n    function _haveAllAugurMarketsResolvedWithoutErrors(uint256 _hardCodedWinner, bool _hardCodedResolvedCorrectly) internal returns(bool) \n    {   \n        if (usingAugur) {\n            _hardCodedWinner = 69420; //just to make it obvious that this is not a relevant variable at this point\n\n            uint256 _winningOutcomesCount = 0;\n            uint256 _losingOutcomesCount = 0;\n            uint256 _invalidOutcomesCount = 0;\n\n            //cycle through all the markets for a positive value on outcome 0 (invalid) or 1 (yes) or 2 (no). \n            //return true if there is 1 winner and 0 invalid and [number of tokens - 1] losers. Anything else, return false. \n            for (uint i=0; i<numberOfTokens; i++) {\n                if (market[i].getWinningPayoutNumerator(0) > 0) {\n                    _invalidOutcomesCount = _invalidOutcomesCount.add(1);\n                }\n                if (market[i].getWinningPayoutNumerator(1) > 0) {\n                    winningOutcome = i; // <- the winning outcome (a global variable) is set here\n                    _winningOutcomesCount = _winningOutcomesCount.add(1);\n                }\n                if (market[i].getWinningPayoutNumerator(2) > 0) {\n                    _losingOutcomesCount = _losingOutcomesCount.add(1);\n                }\n            }\n\n            if (_winningOutcomesCount == 1 && _invalidOutcomesCount == 0 && _losingOutcomesCount == (numberOfTokens - 1)) {\n                return true;\n            } else {\n                return false;\n            }\n        }\n        //if in testing mode, return the supplied arguments\n        else {\n            winningOutcome = _hardCodedWinner;\n            return _hardCodedResolvedCorrectly;\n            }\n        }\n\n    ////////////// DAI CONTRACT FUNCTIONS ////////////// \n\n    // * internal * \n    /// @notice common function for all outgoing DAI transfers\n    /// @param _reason param is for testing only\n    function _sendCash(address _to, uint256 _amount, uint256 _reason) internal { \n        cash.transfer(_to,_amount); \n    }\n\n    // * internal * \n    /// @notice common function for all incoming DAI transfers\n    function _receiveCash(address _from, uint256 _amount) internal {  \n        cash.transferFrom(_from, address(this), _amount);\n    }\n\n    // * internal * \n    /// @return DAI balance of the contract\n    /// @dev if usingAugur = false, totalCollected is returned instead\n    /// @dev this is used to know how much exists to payout to winners\n    function _getContractsCashBalance() internal view returns (uint256) {\n        if (usingAugur) {\n            return cash.balanceOf(address(this));\n        } else {\n            return totalCollected;\n        }\n    }\n\n    ////////////// MARKET RESOLUTION FUNCTIONS ////////////// \n\n    /// @notice the first of six functions which must be called, one after the other, to conclude the competition\n    /// @notice this function checks whether the Augur markets have resolved, and if yes, whether they resolved correct or not\n    /// @dev these six functions are done seperately because if they were done at once, the gas cost could easily cross the block limit\n    /// @dev can be called by anyone \n    /// @dev can be called multiple times, but only once after markets have indeed resolved\n    /// @dev the two arguments passed are for testing only\n    function step1checkMarketsResolved(uint256 _hardCodedWinner, bool _hardCodedResolvedCorrectly) public  \n    {\n        require(marketsResolved == false, \"This function should only be completed once\");\n        // first check if all X markets have all resolved one way or the other\n        if (_haveAllAugurMarketsResolved()) {\n            // do a final rent collection before the contract is locked down\n            collectRentAllTokens();\n            // lock everything down\n            marketsResolved = true;\n             // now check if they all resolved without errors. \n            if (_haveAllAugurMarketsResolvedWithoutErrors(_hardCodedWinner, _hardCodedResolvedCorrectly)) {\n                marketsResolvedWithoutErrors = true;\n            }\n        }\n    }\n\n    /// @notice emergency function in case the augur markets never resolve for whatever reason\n    /// @notice returns all funds to all users\n    /// @notice can only be called 6 months after augur markets should have ended \n    function step1BemergencyExit() public \n    {\n        require(marketsResolved == false, \"This function should only be completed once\");\n        require(now > (marketExpectedResolutionTime + 15778800), \"Must wait 6 months for Augur Oracle\");\n        //do a final rent collection before the contract is locked down\n        collectRentAllTokens();\n        // lock everything down\n        marketsResolved = true;\n    }\n\n    /// @notice Same as above, except that only I can call it, and I can call it whenever\n    function step1CcircuitBraker() public \n    {\n        require(marketsResolved == false, \"This function should only be completed once\");\n        require(msg.sender == andrewsAddress, \"Only Andrew can call this\");\n        //do a final rent collection before the contract is locked down\n        collectRentAllTokens();\n        // lock everything down\n        marketsResolved = true;\n    }\n\n    /// @notice the second of six functions which must be called, one after the other, to conclude the competition\n    /// @dev this function gets the required number of loops needed in the returnDeposits and returnAllFunds functions. We get it once only to save gas. \n    /// @dev can be called by anyone, but only once\n    function step2getLoopsRequired() public\n    {\n        require(marketsResolved == true, \"Markets must resolve first\");\n        // the below is not actually necessary for this function but nobody likes a combo breaker\n        require(loopsRequiredComplete == false, \"This function should only be completed once\"); \n\n        //get the total number of loops required for returnDeposits or returnAllFunds\n        uint256 _loopsRequired = 0;\n        for (uint i=0; i < numberOfTokens; i++) \n        {  \n            for (uint j=0; j < numberOfOwners[i]; j++)\n            {  \n                _loopsRequired = _loopsRequired.add(1);\n            }\n        }\n\n        loopsRequired = _loopsRequired;\n        loopsRequiredComplete = true;\n    }\n\n    /// @notice the third of six functions which must be called, one after the other, to conclude the competition\n    /// @notice returns unused deposits to all users\n    /// @dev the _numberOfLoopsToDo argument allows this function to be completed over multiple txs, protecting against denial of service attacks\n    /// @dev trying to return all deposits to all users at once could easily hit the block limit\n    /// @dev can be called by anyone, but only once (all the way through)\n    function step3returnDeposits(uint256 _numberOfLoopsToDo) public\n    {\n        require(loopsRequiredComplete == true, \"Must call getLoopsRequired first\");\n        require(returnDepositsComplete == false, \"Deposits already returned\");\n\n        uint256 _currentLoop = 0;\n        uint256 _startAtLoop = returnDepositsLoopsCompleted;\n        uint256 _endAtLoop = returnDepositsLoopsCompleted.add(_numberOfLoopsToDo);\n\n        for (uint i=0; i < numberOfTokens; i++) \n        {  \n            for (uint j=0; j < numberOfOwners[i]; j++)\n            { \n                if (_currentLoop >= _startAtLoop && _currentLoop < _endAtLoop) {\n                    address _thisUsersAddress = ownerTracker[i][j];\n                    uint256 _depositToReturn = deposits[i][_thisUsersAddress];\n                    deposits[i][_thisUsersAddress] = 0;\n\n                    if (_depositToReturn > 0) {\n                        _sendCash(_thisUsersAddress,_depositToReturn, 0);\n                    }\n\n                    returnDepositsLoopsCompleted = returnDepositsLoopsCompleted.add(1);\n                }\n                _currentLoop = _currentLoop.add(1);\n            }\n        }\n\n        if (_endAtLoop>=loopsRequired) {\n            returnDepositsComplete = true;\n        }\n    }\n\n    /// @notice the fourth of six functions which must be called, one after the other, to conclude the competition\n    /// @dev gets funds back from Augur\n    /// @dev can be called by anyone, but only once \n    function step4sellCompleteSets() public\n    {\n        require(returnDepositsComplete == true, \"Must return deposits first\");\n        require(sellCompleteSetsComplete == false, \"Cant sell complete sets twice\");\n\n        _sellCompleteSets();\n\n        sellCompleteSetsComplete = true;\n    }\n\n    /// @notice the fifth of six functions which must be called, one after the other, to conclude the competition\n    /// @notice gets the available funds for distribution and pays me my 1%\n    /// @dev the figure cannot be hard coded in advance because of Augur fees \n    /// @dev can be called by anyone, but only once\n    function step5getDaiAvailableToDistribute() public\n    {\n        require(sellCompleteSetsComplete == true, \"Must sell complete sets first\");\n        require(getDaiAvailableToDistributeComplete == false, \"Cant call this twice\");\n\n        daiAvailableToDistribute = _getContractsCashBalance();\n\n        //only pay me if markets resolved correctly. If not I don't deserve shit\n        if (marketsResolvedWithoutErrors) {\n            uint256 _andrewsWellEarntMonies = daiAvailableToDistribute.div(100);\n            _sendCash(andrewsAddress,_andrewsWellEarntMonies, 3);\n            daiAvailableToDistribute = daiAvailableToDistribute.sub(_andrewsWellEarntMonies);\n        }\n\n        getDaiAvailableToDistributeComplete = true;\n    }\n\n    /// @notice the final of six functions which must be called, one after the other, to conclude the competition\n    /// @notice determines whether markets resolved correctly- if yes, payout winnings, if not, return all funds\n    /// @dev can be called by anyone, but only once (all the way through)\n    /// @dev _numberOfLoopsToDo and _hardCodedWinner are testing variables only\n    function step6complete(uint256 _numberOfLoopsToDo) public\n    {\n        require(getDaiAvailableToDistributeComplete == true, \"Must call getDaiAvailableToDistribute first\");\n        require(doneAndDusted == false, \"Winnings already paid or funds returned\"); \n\n        if (marketsResolvedWithoutErrors) {\n                _payoutWinnings(_numberOfLoopsToDo);\n            }\n            else {\n                _returnAllFunds(_numberOfLoopsToDo);\n            }\n    }\n\n    // * internal * \n    /// @notice pays winnings to the winners\n    /// @dev must be internal and only called by step6complete\n    function _payoutWinnings(uint256 _numberOfLoopsToDo) internal\n    {\n        uint256 _currentLoop = 0;\n        uint256 _startAtLoop = payoutWinningsLoopsCompleted;\n        uint256 _endAtLoop = payoutWinningsLoopsCompleted.add(_numberOfLoopsToDo);\n\n        for (uint i=0; i < numberOfOwners[winningOutcome]; i++)\n        {   \n            if (_currentLoop >= _startAtLoop && _currentLoop < _endAtLoop) {   \n                address _winnersAddress = ownerTracker[winningOutcome][i];\n                uint256 _winnersTimeHeld = timeHeld[winningOutcome][_winnersAddress];\n                uint256 _numerator = daiAvailableToDistribute.mul(_winnersTimeHeld);\n                uint256 _winningsToTransfer = _numerator.div(totalTimeHeld[winningOutcome]);\n\n                if (_winningsToTransfer > 0) {\n                    _sendCash(_winnersAddress,_winningsToTransfer, 1);\n                }\n\n                payoutWinningsLoopsCompleted = payoutWinningsLoopsCompleted.add(1);\n            }\n            _currentLoop = _currentLoop.add(1);\n        }\n\n        if (_endAtLoop>=numberOfOwners[winningOutcome]) {\n            doneAndDusted = true;\n        }\n        emit LogFinalised(winningOutcome,daiAvailableToDistribute);\n    }\n\n    // * internal * \n    /// @notice returns all funds to users in case of invalid outcome\n    /// @dev must be internal and only called by step6complete or emergencyExit\n    function _returnAllFunds(uint256 _numberOfLoopsToDo) internal\n    {\n        uint256 _currentLoop = 0;\n        uint256 _startAtLoop = returnAllFundsLoopsCompleted;\n        uint256 _endAtLoop = returnAllFundsLoopsCompleted.add(_numberOfLoopsToDo);\n\n        for (uint i=0; i < numberOfTokens; i++) \n        {  \n            for (uint j=0; j < numberOfOwners[i]; j++)\n            { \n                if (_currentLoop >= _startAtLoop && _currentLoop < _endAtLoop) {\n                    address _usersAddress = ownerTracker[i][j];\n                    uint256 _numerator = daiAvailableToDistribute.mul(collectedPerUser[_usersAddress]);\n                    uint256 _fundsToReturn = _numerator.div(totalCollected);\n                    collectedPerUser[_usersAddress] = 0; //same address could be across multiple tokens, don't want to pay the user more than once\n\n                    if (_fundsToReturn > 0) {\n                        _sendCash(_usersAddress,_fundsToReturn,1);\n                    }\n\n                    returnAllFundsLoopsCompleted = returnAllFundsLoopsCompleted.add(1);\n                }\n                _currentLoop = _currentLoop.add(1);\n            }\n        }\n\n        if (_endAtLoop>=loopsRequired) {\n            doneAndDusted = true;\n        }\n        emit LogFundsReturned(daiAvailableToDistribute);\n    }\n\n    ////////////// ORDINARY COURSE OF BUSINESS FUNCTIONS //////////////\n\n    /// @notice collects rent for all tokens\n    /// @dev originally a modifier but changed to a function to make it easy for me to call whenever I want to keep people paying their rent\n    function collectRentAllTokens() public notResolved() {\n       for (uint i=0; i < numberOfTokens; i++) {\n            _collectRent(i);\n        }\n    }\n\n    /// @notice collects rent for a specific token\n    /// @dev also updates calculates and updates how long the current user has held the token for\n    function _collectRent(uint256 _tokenId) public notResolved() {\n        //only collect rent if the token is owned (ie, if owned by the contract this implies unowned)\n        if (team.ownerOf(_tokenId) != address(this)) {\n            \n            uint256 _rentOwed = rentOwed(_tokenId);\n            address _currentOwner = team.ownerOf(_tokenId);\n            uint256 _timeOfThisCollection;\n            \n            if (_rentOwed >= deposits[_tokenId][_currentOwner]) {\n                // run out of deposit. Calculate time it was actually paid for, then revert to previous owner \n                _timeOfThisCollection = timeLastCollected[_tokenId].add(((now.sub(timeLastCollected[_tokenId])).mul(deposits[_tokenId][_currentOwner]).div(_rentOwed)));\n                _rentOwed = deposits[_tokenId][_currentOwner]; // take what's left     \n                _revertToPreviousOwner(_tokenId);\n                \n            } else  {\n                //normal collection\n                _timeOfThisCollection = now;\n            }\n\n            //decrease deposit by rent owed\n            deposits[_tokenId][_currentOwner] = deposits[_tokenId][_currentOwner].sub(_rentOwed);\n\n            //the 'important bit', where the duration the token has been held by each user is updated\n            //it is essential that timeHeld and totalTimeHeld are incremented together such that the sum of\n            //the first is equal to the second\n            uint256 _timeHeldToIncrement = (_timeOfThisCollection.sub(timeLastCollected[_tokenId])); //just for readability\n            timeHeld[_tokenId][_currentOwner] = timeHeld[_tokenId][_currentOwner].add(_timeHeldToIncrement);\n            totalTimeHeld[_tokenId] = totalTimeHeld[_tokenId].add(_timeHeldToIncrement);\n\n            //it is also essential that collectedPerMarket, collectedPerUser and totalCollected are all incremented together\n            //such that the sum of the first two (individually) is equal to the third\n            collectedPerMarket[_tokenId] = collectedPerMarket[_tokenId].add(_rentOwed);\n            collectedPerUser[_currentOwner] = collectedPerUser[_currentOwner].add(_rentOwed);\n            totalCollected = totalCollected.add(_rentOwed);\n\n            _buyCompleteSets(_tokenId,_rentOwed);\n            \n            emit LogRentCollection(_rentOwed);\n        }\n\n        timeLastCollected[_tokenId] = now;\n    }\n    \n    /// @notice to rent a token\n    // *** this function needs to be modified to actually send the Dai from the user to the contract\n    function newRental(uint256 _newPrice, uint256 _tokenId, uint256 _deposit) public collectRent(_tokenId) notResolved() {\n        require(_tokenId < numberOfTokens, \"This team does not exist\");\n        require(_newPrice > price[_tokenId], \"Price must be higher than current price\");\n        require(_deposit > 0, \"Must deposit something\");\n\n        // get the Dai from the user and add to their deposits balance\n        _receiveCash(msg.sender, _deposit);\n        deposits[_tokenId][msg.sender] = deposits[_tokenId][msg.sender].add(_deposit);\n     \n        address _currentOwner = team.ownerOf(_tokenId);\n\n        // bought by current owner (ie, it just increases the price, token ownership does not change)\n        if(_currentOwner == msg.sender)\n        {\n            changePrice(_newPrice, _tokenId);\n        }\n        // bought by different user (the normal situation)\n        else\n        {   \n            // update currentOwnerIndex and previousOwnerTracker\n            currentOwnerIndex[_tokenId] = currentOwnerIndex[_tokenId].add(1); \n            previousOwnerTracker[_tokenId][currentOwnerIndex[_tokenId]].price = _newPrice;\n            previousOwnerTracker[_tokenId][currentOwnerIndex[_tokenId]].owner = msg.sender; \n\n            // update the ownerTracker and numberOfOwners variables. only for new owners.\n        if (everOwned[_tokenId][msg.sender] == false) {\n            everOwned[_tokenId][msg.sender] = true;\n            ownerTracker[_tokenId][numberOfOwners[_tokenId]] = msg.sender;\n            numberOfOwners[_tokenId] = numberOfOwners[_tokenId].add(1);\n        }\n\n            //update timeAcquired for the front end\n            timeAcquired[_tokenId] = now;\n\n            //transfer token to new owner\n            _transferTokenTo(_currentOwner, msg.sender, _newPrice, _tokenId);\n            emit LogBuy(msg.sender, _newPrice); \n        }\n    }\n\n    /// @notice add new dai deposit to an existing rental\n    // *** this will also need to be adjusted to work with the dai contract properly\n    function depositDai(uint256 _dai, uint256 _tokenId) public collectRent(_tokenId) notResolved() {\n        _receiveCash(msg.sender, _dai);\n        deposits[_tokenId][msg.sender] = deposits[_tokenId][msg.sender].add(_dai);\n    }\n\n    /// @notice increase the price of an existing rental\n    function changePrice(uint256 _newPrice, uint256 _tokenId) public collectRent(_tokenId) notResolved() {\n        require(_newPrice > price[_tokenId], \"New price must be higher than current price\"); \n        require(msg.sender == team.ownerOf(_tokenId), \"Not owner\");\n        \n        //below is the only instance when price is modifed outside of the _transferTokenTo function\n        price[_tokenId] = _newPrice;\n        previousOwnerTracker[_tokenId][currentOwnerIndex[_tokenId]].price = _newPrice;\n        emit LogPriceChange(price[_tokenId]);\n    }\n    \n    /// @notice withdraw deposit\n    /// @dev do not need to be the current owner\n    function withdrawDeposit(uint256 _dai, uint256 _tokenId) public collectRent(_tokenId) notResolved() returns (uint256) {\n        _withdrawDeposit(_dai, _tokenId);\n    }\n\n    /// @notice withdraw full deposit\n    /// @dev do not need to be the current owner\n    function exit(uint256 _tokenId) public collectRent(_tokenId) notResolved() {\n        _withdrawDeposit(deposits[_tokenId][msg.sender],  _tokenId);\n    }\n\n    /* internal */\n    /// @notice actually withdraw the deposit\n    function _withdrawDeposit(uint256 _dai, uint256 _tokenId) internal {\n        require(deposits[_tokenId][msg.sender] >= _dai, 'Withdrawing too much');\n\n        deposits[_tokenId][msg.sender] = deposits[_tokenId][msg.sender].sub(_dai);\n        _sendCash(msg.sender, _dai, 0);\n\n        if(deposits[_tokenId][msg.sender] == 0) {\n            _revertToPreviousOwner(_tokenId);\n        }\n    }\n\n    /* internal */\n    /// @notice if a users deposit runs out, either return to previous owner or foreclose\n    function _revertToPreviousOwner(uint256 _tokenId) internal {\n        bool _reverted = false;\n        while (_reverted == false)\n        {\n            assert(currentOwnerIndex[_tokenId] >=0);\n            currentOwnerIndex[_tokenId] = currentOwnerIndex[_tokenId].sub(1); // ownerTraker will now point to  previous owner\n            uint256 _index = currentOwnerIndex[_tokenId]; //just for readability\n            address _previousOwner = previousOwnerTracker[_tokenId][_index].owner;\n\n            if (_index == 0) \n            //no previous owners. price -> zero, foreclose\n            {\n                _foreclose(_tokenId);\n                _reverted = true;\n            }\n            else if (deposits[_tokenId][_previousOwner] > 0)\n            // previous owner still has a deposit, transfer to them, update the price to what it used to be\n            {\n                address _currentOwner = team.ownerOf(_tokenId);\n                uint256 _oldPrice = previousOwnerTracker[_tokenId][_index].price;\n                _transferTokenTo(_currentOwner, _previousOwner, _oldPrice, _tokenId);\n                _reverted = true;\n                emit LogReturnToPreviousOwner(_tokenId,_previousOwner);\n            }\n        }       \n    }\n\n    /* internal */\n    /// @notice return token to the contract and return price to zero\n    function _foreclose(uint256 _tokenId) internal {\n        address _currentOwner = team.ownerOf(_tokenId);\n        //third field is price, ie price goes to zero\n        _transferTokenTo(_currentOwner, address(this), 0, _tokenId);\n        emit LogForeclosure(_currentOwner);\n    }\n\n    /* internal */\n    /// @notice transfer ERC 721 between users\n    function _transferTokenTo(address _currentOwner, address _newOwner, uint256 _newPrice, uint256 _tokenId) internal {\n        team.transferFrom(_currentOwner, _newOwner, _tokenId);\n        price[_tokenId] = _newPrice;\n    }\n}\n\n",
  "sourcePath": "/Users/mcplums/Repos/Harber/contracts/Harber.sol",
  "compiler": {
    "name": "solc",
    "version": "0.5.12+commit.7709ece9.Emscripten.clang"
  },
  "schemaVersion": "3.0.19",
  "updatedAt": "2020-01-22T08:08:52.607Z",
  "networkType": "ethereum",
  "devdoc": {
    "author": "Andrew Stanger",
    "details": "ensure usingAugur is set to false upon local testing and true on kovan or mainnet",
    "methods": {
      "_collectRent(uint256)": {
        "details": "also updates calculates and updates how long the current user has held the token for"
      },
      "collectRentAllTokens()": {
        "details": "originally a modifier but changed to a function to make it easy for me to call whenever I want to keep people paying their rent"
      },
      "exit(uint256)": {
        "details": "do not need to be the current owner"
      },
      "getOwnerTrackerAddress(uint256,uint256)": {
        "details": "used in testing only"
      },
      "getOwnerTrackerPrice(uint256,uint256)": {
        "details": "used in testing only"
      },
      "liveDepositAbleToWithdraw(uint256)": {
        "details": "for front end only",
        "return": "how much the current owner has deposited"
      },
      "rentOwed(uint256)": {
        "details": "called in collectRent function, and various other view functions "
      },
      "rentalExpiryTime(uint256)": {
        "details": "for front end only",
        "return": "estimated rental expiry time"
      },
      "step1checkMarketsResolved(uint256,bool)": {
        "details": "these six functions are done seperately because if they were done at once, the gas cost could easily cross the block limitcan be called by anyone can be called multiple times, but only once after markets have indeed resolvedthe two arguments passed are for testing only"
      },
      "step2getLoopsRequired()": {
        "details": "this function gets the required number of loops needed in the returnDeposits and returnAllFunds functions. We get it once only to save gas. can be called by anyone, but only once"
      },
      "step3returnDeposits(uint256)": {
        "details": "the _numberOfLoopsToDo argument allows this function to be completed over multiple txs, protecting against denial of service attackstrying to return all deposits to all users at once could easily hit the block limitcan be called by anyone, but only once (all the way through)"
      },
      "step4sellCompleteSets()": {
        "details": "gets funds back from Augurcan be called by anyone, but only once "
      },
      "step5getDaiAvailableToDistribute()": {
        "details": "the figure cannot be hard coded in advance because of Augur fees can be called by anyone, but only once"
      },
      "step6complete(uint256)": {
        "details": "can be called by anyone, but only once (all the way through)_numberOfLoopsToDo and _hardCodedWinner are testing variables only"
      },
      "userDepositAbleToWithdraw(uint256)": {
        "details": "for front end only",
        "return": "how much the current user (regardless of whether or not they own it) has deposited"
      },
      "withdrawDeposit(uint256,uint256)": {
        "details": "do not need to be the current owner"
      }
    },
    "title": "Harber"
  },
  "userdoc": {
    "methods": {
      "_collectRent(uint256)": {
        "notice": "collects rent for a specific token"
      },
      "changePrice(uint256,uint256)": {
        "notice": "increase the price of an existing rental"
      },
      "collectRentAllTokens()": {
        "notice": "/////////// ORDINARY COURSE OF BUSINESS FUNCTIONS //////////////collects rent for all tokens"
      },
      "constructor": "/////////// CONSTRUCTOR //////////////",
      "depositDai(uint256,uint256)": {
        "notice": "add new dai deposit to an existing rental"
      },
      "exit(uint256)": {
        "notice": "withdraw full deposit"
      },
      "getOwnerTrackerPrice(uint256,uint256)": {
        "notice": "/////////// VIEW FUNCTIONS //////////////"
      },
      "newRental(uint256,uint256,uint256)": {
        "notice": "to rent a token"
      },
      "step1BemergencyExit()": {
        "notice": "emergency function in case the augur markets never resolve for whatever reasonreturns all funds to all userscan only be called 6 months after augur markets should have ended "
      },
      "step1CcircuitBraker()": {
        "notice": "Same as above, except that only I can call it, and I can call it whenever"
      },
      "step1checkMarketsResolved(uint256,bool)": {
        "notice": "/////////// MARKET RESOLUTION FUNCTIONS ////////////// the first of six functions which must be called, one after the other, to conclude the competitionthis function checks whether the Augur markets have resolved, and if yes, whether they resolved correct or not"
      },
      "step2getLoopsRequired()": {
        "notice": "the second of six functions which must be called, one after the other, to conclude the competition"
      },
      "step3returnDeposits(uint256)": {
        "notice": "the third of six functions which must be called, one after the other, to conclude the competitionreturns unused deposits to all users"
      },
      "step4sellCompleteSets()": {
        "notice": "the fourth of six functions which must be called, one after the other, to conclude the competition"
      },
      "step5getDaiAvailableToDistribute()": {
        "notice": "the fifth of six functions which must be called, one after the other, to conclude the competitiongets the available funds for distribution and pays me my 1%"
      },
      "step6complete(uint256)": {
        "notice": "the final of six functions which must be called, one after the other, to conclude the competitiondetermines whether markets resolved correctly- if yes, payout winnings, if not, return all funds"
      },
      "withdrawDeposit(uint256,uint256)": {
        "notice": "withdraw deposit"
      }
    }
  }
}