{
  "contractName": "Harber",
  "abi": [
    {
      "inputs": [
        {
          "internalType": "address",
          "name": "_andrewsAddress",
          "type": "address"
        },
        {
          "internalType": "address",
          "name": "_addressOfToken",
          "type": "address"
        },
        {
          "internalType": "address",
          "name": "_addressOfCashContract",
          "type": "address"
        },
        {
          "internalType": "address",
          "name": "_addressOfMarket",
          "type": "address"
        },
        {
          "internalType": "address",
          "name": "_addressOfCompleteSetsContract",
          "type": "address"
        },
        {
          "internalType": "address",
          "name": "_addressOfMainAugurContract",
          "type": "address"
        },
        {
          "internalType": "uint256",
          "name": "_marketExpectedResolutionTime",
          "type": "uint256"
        }
      ],
      "payable": false,
      "stateMutability": "nonpayable",
      "type": "constructor"
    },
    {
      "anonymous": false,
      "inputs": [
        {
          "indexed": true,
          "internalType": "address",
          "name": "owner",
          "type": "address"
        },
        {
          "indexed": true,
          "internalType": "uint256",
          "name": "price",
          "type": "uint256"
        }
      ],
      "name": "LogBuy",
      "type": "event"
    },
    {
      "anonymous": false,
      "inputs": [
        {
          "indexed": true,
          "internalType": "uint256",
          "name": "winningOutcome",
          "type": "uint256"
        },
        {
          "indexed": true,
          "internalType": "uint256",
          "name": "daiAvailableToDistribute",
          "type": "uint256"
        }
      ],
      "name": "LogFinalised",
      "type": "event"
    },
    {
      "anonymous": false,
      "inputs": [
        {
          "indexed": true,
          "internalType": "address",
          "name": "prevOwner",
          "type": "address"
        }
      ],
      "name": "LogForeclosure",
      "type": "event"
    },
    {
      "anonymous": false,
      "inputs": [
        {
          "indexed": true,
          "internalType": "uint256",
          "name": "newPrice",
          "type": "uint256"
        }
      ],
      "name": "LogPriceChange",
      "type": "event"
    },
    {
      "anonymous": false,
      "inputs": [
        {
          "indexed": true,
          "internalType": "uint256",
          "name": "collected",
          "type": "uint256"
        }
      ],
      "name": "LogRentCollection",
      "type": "event"
    },
    {
      "anonymous": false,
      "inputs": [
        {
          "indexed": true,
          "internalType": "uint256",
          "name": "tokenId",
          "type": "uint256"
        },
        {
          "indexed": true,
          "internalType": "address",
          "name": "previousOwner",
          "type": "address"
        }
      ],
      "name": "LogReturnToPreviousOwner",
      "type": "event"
    },
    {
      "constant": true,
      "inputs": [],
      "name": "a",
      "outputs": [
        {
          "internalType": "uint256",
          "name": "",
          "type": "uint256"
        }
      ],
      "payable": false,
      "stateMutability": "view",
      "type": "function"
    },
    {
      "constant": true,
      "inputs": [],
      "name": "andrewsAddress",
      "outputs": [
        {
          "internalType": "address",
          "name": "",
          "type": "address"
        }
      ],
      "payable": false,
      "stateMutability": "view",
      "type": "function"
    },
    {
      "constant": true,
      "inputs": [],
      "name": "b",
      "outputs": [
        {
          "internalType": "uint256",
          "name": "",
          "type": "uint256"
        }
      ],
      "payable": false,
      "stateMutability": "view",
      "type": "function"
    },
    {
      "constant": true,
      "inputs": [],
      "name": "c",
      "outputs": [
        {
          "internalType": "uint256",
          "name": "",
          "type": "uint256"
        }
      ],
      "payable": false,
      "stateMutability": "view",
      "type": "function"
    },
    {
      "constant": true,
      "inputs": [
        {
          "internalType": "uint256",
          "name": "",
          "type": "uint256"
        }
      ],
      "name": "collectedAndSentToAugur",
      "outputs": [
        {
          "internalType": "uint256",
          "name": "",
          "type": "uint256"
        }
      ],
      "payable": false,
      "stateMutability": "view",
      "type": "function"
    },
    {
      "constant": true,
      "inputs": [
        {
          "internalType": "uint256",
          "name": "",
          "type": "uint256"
        }
      ],
      "name": "currentOwnerIndex",
      "outputs": [
        {
          "internalType": "uint256",
          "name": "",
          "type": "uint256"
        }
      ],
      "payable": false,
      "stateMutability": "view",
      "type": "function"
    },
    {
      "constant": true,
      "inputs": [
        {
          "internalType": "address",
          "name": "",
          "type": "address"
        }
      ],
      "name": "depositReturnedToUser",
      "outputs": [
        {
          "internalType": "uint256",
          "name": "",
          "type": "uint256"
        }
      ],
      "payable": false,
      "stateMutability": "view",
      "type": "function"
    },
    {
      "constant": true,
      "inputs": [
        {
          "internalType": "uint256",
          "name": "",
          "type": "uint256"
        },
        {
          "internalType": "address",
          "name": "",
          "type": "address"
        }
      ],
      "name": "deposits",
      "outputs": [
        {
          "internalType": "uint256",
          "name": "",
          "type": "uint256"
        }
      ],
      "payable": false,
      "stateMutability": "view",
      "type": "function"
    },
    {
      "constant": true,
      "inputs": [],
      "name": "doneAndDusted",
      "outputs": [
        {
          "internalType": "bool",
          "name": "",
          "type": "bool"
        }
      ],
      "payable": false,
      "stateMutability": "view",
      "type": "function"
    },
    {
      "constant": true,
      "inputs": [
        {
          "internalType": "uint256",
          "name": "",
          "type": "uint256"
        },
        {
          "internalType": "address",
          "name": "",
          "type": "address"
        }
      ],
      "name": "everOwned",
      "outputs": [
        {
          "internalType": "bool",
          "name": "",
          "type": "bool"
        }
      ],
      "payable": false,
      "stateMutability": "view",
      "type": "function"
    },
    {
      "constant": true,
      "inputs": [],
      "name": "marketAddress",
      "outputs": [
        {
          "internalType": "address",
          "name": "",
          "type": "address"
        }
      ],
      "payable": false,
      "stateMutability": "view",
      "type": "function"
    },
    {
      "constant": true,
      "inputs": [],
      "name": "marketExpectedResolutionTime",
      "outputs": [
        {
          "internalType": "uint256",
          "name": "",
          "type": "uint256"
        }
      ],
      "payable": false,
      "stateMutability": "view",
      "type": "function"
    },
    {
      "constant": true,
      "inputs": [],
      "name": "marketResolved",
      "outputs": [
        {
          "internalType": "bool",
          "name": "",
          "type": "bool"
        }
      ],
      "payable": false,
      "stateMutability": "view",
      "type": "function"
    },
    {
      "constant": true,
      "inputs": [
        {
          "internalType": "uint256",
          "name": "",
          "type": "uint256"
        }
      ],
      "name": "numberOfOwners",
      "outputs": [
        {
          "internalType": "uint256",
          "name": "",
          "type": "uint256"
        }
      ],
      "payable": false,
      "stateMutability": "view",
      "type": "function"
    },
    {
      "constant": true,
      "inputs": [
        {
          "internalType": "uint256",
          "name": "",
          "type": "uint256"
        },
        {
          "internalType": "uint256",
          "name": "",
          "type": "uint256"
        }
      ],
      "name": "ownerTracker",
      "outputs": [
        {
          "internalType": "address",
          "name": "",
          "type": "address"
        }
      ],
      "payable": false,
      "stateMutability": "view",
      "type": "function"
    },
    {
      "constant": true,
      "inputs": [
        {
          "internalType": "uint256",
          "name": "",
          "type": "uint256"
        },
        {
          "internalType": "uint256",
          "name": "",
          "type": "uint256"
        }
      ],
      "name": "previousOwnerTracker",
      "outputs": [
        {
          "internalType": "address",
          "name": "owner",
          "type": "address"
        },
        {
          "internalType": "uint256",
          "name": "price",
          "type": "uint256"
        }
      ],
      "payable": false,
      "stateMutability": "view",
      "type": "function"
    },
    {
      "constant": true,
      "inputs": [
        {
          "internalType": "uint256",
          "name": "",
          "type": "uint256"
        }
      ],
      "name": "price",
      "outputs": [
        {
          "internalType": "uint256",
          "name": "",
          "type": "uint256"
        }
      ],
      "payable": false,
      "stateMutability": "view",
      "type": "function"
    },
    {
      "constant": true,
      "inputs": [
        {
          "internalType": "address",
          "name": "",
          "type": "address"
        }
      ],
      "name": "rentPaid",
      "outputs": [
        {
          "internalType": "uint256",
          "name": "",
          "type": "uint256"
        }
      ],
      "payable": false,
      "stateMutability": "view",
      "type": "function"
    },
    {
      "constant": true,
      "inputs": [
        {
          "internalType": "uint256",
          "name": "",
          "type": "uint256"
        }
      ],
      "name": "state",
      "outputs": [
        {
          "internalType": "enum Harber.ownedState",
          "name": "",
          "type": "uint8"
        }
      ],
      "payable": false,
      "stateMutability": "view",
      "type": "function"
    },
    {
      "constant": true,
      "inputs": [],
      "name": "team",
      "outputs": [
        {
          "internalType": "contract IERC721Full",
          "name": "",
          "type": "address"
        }
      ],
      "payable": false,
      "stateMutability": "view",
      "type": "function"
    },
    {
      "constant": true,
      "inputs": [
        {
          "internalType": "address",
          "name": "",
          "type": "address"
        }
      ],
      "name": "testDaiBalances",
      "outputs": [
        {
          "internalType": "uint256",
          "name": "",
          "type": "uint256"
        }
      ],
      "payable": false,
      "stateMutability": "view",
      "type": "function"
    },
    {
      "constant": true,
      "inputs": [
        {
          "internalType": "uint256",
          "name": "",
          "type": "uint256"
        }
      ],
      "name": "timeAcquired",
      "outputs": [
        {
          "internalType": "uint256",
          "name": "",
          "type": "uint256"
        }
      ],
      "payable": false,
      "stateMutability": "view",
      "type": "function"
    },
    {
      "constant": true,
      "inputs": [
        {
          "internalType": "uint256",
          "name": "",
          "type": "uint256"
        },
        {
          "internalType": "address",
          "name": "",
          "type": "address"
        }
      ],
      "name": "timeHeld",
      "outputs": [
        {
          "internalType": "uint256",
          "name": "",
          "type": "uint256"
        }
      ],
      "payable": false,
      "stateMutability": "view",
      "type": "function"
    },
    {
      "constant": true,
      "inputs": [
        {
          "internalType": "uint256",
          "name": "",
          "type": "uint256"
        }
      ],
      "name": "timeLastCollected",
      "outputs": [
        {
          "internalType": "uint256",
          "name": "",
          "type": "uint256"
        }
      ],
      "payable": false,
      "stateMutability": "view",
      "type": "function"
    },
    {
      "constant": true,
      "inputs": [],
      "name": "totalCollected",
      "outputs": [
        {
          "internalType": "uint256",
          "name": "",
          "type": "uint256"
        }
      ],
      "payable": false,
      "stateMutability": "view",
      "type": "function"
    },
    {
      "constant": true,
      "inputs": [
        {
          "internalType": "uint256",
          "name": "",
          "type": "uint256"
        }
      ],
      "name": "totalTimeHeld",
      "outputs": [
        {
          "internalType": "uint256",
          "name": "",
          "type": "uint256"
        }
      ],
      "payable": false,
      "stateMutability": "view",
      "type": "function"
    },
    {
      "constant": true,
      "inputs": [],
      "name": "winningOutcome",
      "outputs": [
        {
          "internalType": "uint256",
          "name": "",
          "type": "uint256"
        }
      ],
      "payable": false,
      "stateMutability": "view",
      "type": "function"
    },
    {
      "constant": true,
      "inputs": [
        {
          "internalType": "address",
          "name": "",
          "type": "address"
        }
      ],
      "name": "winningsSentToUser",
      "outputs": [
        {
          "internalType": "uint256",
          "name": "",
          "type": "uint256"
        }
      ],
      "payable": false,
      "stateMutability": "view",
      "type": "function"
    },
    {
      "constant": true,
      "inputs": [],
      "name": "getTestDaiBalance",
      "outputs": [
        {
          "internalType": "uint256",
          "name": "",
          "type": "uint256"
        }
      ],
      "payable": false,
      "stateMutability": "view",
      "type": "function"
    },
    {
      "constant": true,
      "inputs": [
        {
          "internalType": "uint256",
          "name": "_tokenId",
          "type": "uint256"
        },
        {
          "internalType": "uint256",
          "name": "_index",
          "type": "uint256"
        }
      ],
      "name": "getOwnerTrackerPrice",
      "outputs": [
        {
          "internalType": "uint256",
          "name": "",
          "type": "uint256"
        }
      ],
      "payable": false,
      "stateMutability": "view",
      "type": "function"
    },
    {
      "constant": true,
      "inputs": [
        {
          "internalType": "uint256",
          "name": "_tokenId",
          "type": "uint256"
        },
        {
          "internalType": "uint256",
          "name": "_index",
          "type": "uint256"
        }
      ],
      "name": "getOwnerTrackerAddress",
      "outputs": [
        {
          "internalType": "address",
          "name": "",
          "type": "address"
        }
      ],
      "payable": false,
      "stateMutability": "view",
      "type": "function"
    },
    {
      "constant": true,
      "inputs": [
        {
          "internalType": "uint256",
          "name": "_tokenId",
          "type": "uint256"
        }
      ],
      "name": "rentOwed",
      "outputs": [
        {
          "internalType": "uint256",
          "name": "augurFundsDue",
          "type": "uint256"
        }
      ],
      "payable": false,
      "stateMutability": "view",
      "type": "function"
    },
    {
      "constant": true,
      "inputs": [
        {
          "internalType": "uint256",
          "name": "_tokenId",
          "type": "uint256"
        }
      ],
      "name": "rentOwedWithTimestamp",
      "outputs": [
        {
          "internalType": "uint256",
          "name": "augurFundsDue",
          "type": "uint256"
        },
        {
          "internalType": "uint256",
          "name": "timestamp",
          "type": "uint256"
        }
      ],
      "payable": false,
      "stateMutability": "view",
      "type": "function"
    },
    {
      "constant": true,
      "inputs": [
        {
          "internalType": "uint256",
          "name": "_tokenId",
          "type": "uint256"
        }
      ],
      "name": "foreclosed",
      "outputs": [
        {
          "internalType": "bool",
          "name": "",
          "type": "bool"
        }
      ],
      "payable": false,
      "stateMutability": "view",
      "type": "function"
    },
    {
      "constant": true,
      "inputs": [
        {
          "internalType": "uint256",
          "name": "_tokenId",
          "type": "uint256"
        }
      ],
      "name": "liveDepositAbleToWithdraw",
      "outputs": [
        {
          "internalType": "uint256",
          "name": "",
          "type": "uint256"
        }
      ],
      "payable": false,
      "stateMutability": "view",
      "type": "function"
    },
    {
      "constant": true,
      "inputs": [
        {
          "internalType": "uint256",
          "name": "_tokenId",
          "type": "uint256"
        }
      ],
      "name": "userDepositAbleToWithdraw",
      "outputs": [
        {
          "internalType": "uint256",
          "name": "",
          "type": "uint256"
        }
      ],
      "payable": false,
      "stateMutability": "view",
      "type": "function"
    },
    {
      "constant": true,
      "inputs": [
        {
          "internalType": "uint256",
          "name": "_tokenId",
          "type": "uint256"
        }
      ],
      "name": "rentalExpiryTime",
      "outputs": [
        {
          "internalType": "uint256",
          "name": "",
          "type": "uint256"
        }
      ],
      "payable": false,
      "stateMutability": "view",
      "type": "function"
    },
    {
      "constant": false,
      "inputs": [],
      "name": "getTestDai",
      "outputs": [],
      "payable": false,
      "stateMutability": "nonpayable",
      "type": "function"
    },
    {
      "constant": false,
      "inputs": [],
      "name": "getWinner",
      "outputs": [],
      "payable": false,
      "stateMutability": "nonpayable",
      "type": "function"
    },
    {
      "constant": false,
      "inputs": [
        {
          "internalType": "uint256",
          "name": "_winner",
          "type": "uint256"
        }
      ],
      "name": "setWinnerMe",
      "outputs": [],
      "payable": false,
      "stateMutability": "nonpayable",
      "type": "function"
    },
    {
      "constant": false,
      "inputs": [],
      "name": "setWinnerPublic",
      "outputs": [],
      "payable": false,
      "stateMutability": "nonpayable",
      "type": "function"
    },
    {
      "constant": false,
      "inputs": [
        {
          "internalType": "uint256",
          "name": "_tokenId",
          "type": "uint256"
        }
      ],
      "name": "_collectRent",
      "outputs": [],
      "payable": false,
      "stateMutability": "nonpayable",
      "type": "function"
    },
    {
      "constant": false,
      "inputs": [
        {
          "internalType": "uint256",
          "name": "_newPrice",
          "type": "uint256"
        },
        {
          "internalType": "uint256",
          "name": "_tokenId",
          "type": "uint256"
        },
        {
          "internalType": "uint256",
          "name": "_deposit",
          "type": "uint256"
        }
      ],
      "name": "buy",
      "outputs": [],
      "payable": false,
      "stateMutability": "nonpayable",
      "type": "function"
    },
    {
      "constant": false,
      "inputs": [
        {
          "internalType": "uint256",
          "name": "_dai",
          "type": "uint256"
        },
        {
          "internalType": "uint256",
          "name": "_tokenId",
          "type": "uint256"
        }
      ],
      "name": "depositDai",
      "outputs": [],
      "payable": false,
      "stateMutability": "nonpayable",
      "type": "function"
    },
    {
      "constant": false,
      "inputs": [
        {
          "internalType": "uint256",
          "name": "_newPrice",
          "type": "uint256"
        },
        {
          "internalType": "uint256",
          "name": "_tokenId",
          "type": "uint256"
        }
      ],
      "name": "changePrice",
      "outputs": [],
      "payable": false,
      "stateMutability": "nonpayable",
      "type": "function"
    },
    {
      "constant": false,
      "inputs": [
        {
          "internalType": "uint256",
          "name": "_dai",
          "type": "uint256"
        },
        {
          "internalType": "uint256",
          "name": "_tokenId",
          "type": "uint256"
        }
      ],
      "name": "withdrawDeposit",
      "outputs": [
        {
          "internalType": "uint256",
          "name": "",
          "type": "uint256"
        }
      ],
      "payable": false,
      "stateMutability": "nonpayable",
      "type": "function"
    },
    {
      "constant": false,
      "inputs": [
        {
          "internalType": "uint256",
          "name": "_tokenId",
          "type": "uint256"
        }
      ],
      "name": "exit",
      "outputs": [],
      "payable": false,
      "stateMutability": "nonpayable",
      "type": "function"
    }
  ],
  "bytecode": "0x608060405260008055600060015560006002556000608460006101000a81548160ff0219169083151502179055506000608460016101000a81548160ff02191690831515021790555060636085553480156200005a57600080fd5b5060405162004ff938038062004ff9833981810160405260e08110156200008057600080fd5b810190808051906020019092919080519060200190929190805190602001909291908051906020019092919080519060200190929190805190602001909291908051906020019092919050505085600560006101000a81548173ffffffffffffffffffffffffffffffffffffffff021916908373ffffffffffffffffffffffffffffffffffffffff160217905550600560009054906101000a900473ffffffffffffffffffffffffffffffffffffffff1673ffffffffffffffffffffffffffffffffffffffff1663ba0bba406040518163ffffffff1660e01b8152600401600060405180830381600087803b1580156200017957600080fd5b505af11580156200018e573d6000803e3d6000fd5b5050505086600960006101000a81548173ffffffffffffffffffffffffffffffffffffffff021916908373ffffffffffffffffffffffffffffffffffffffff16021790555060008090505b601481101562000254576000605c8260148110620001f357fe5b01819055506000607082601481106200020857fe5b01819055506000608f82601481106200021d57fe5b602091828204019190066101000a81548160ff021916908360018111156200024157fe5b02179055508080600101915050620001d9565b5084600860006101000a81548173ffffffffffffffffffffffffffffffffffffffff021916908373ffffffffffffffffffffffffffffffffffffffff16021790555083600660006101000a81548173ffffffffffffffffffffffffffffffffffffffff021916908373ffffffffffffffffffffffffffffffffffffffff16021790555082600760006101000a81548173ffffffffffffffffffffffffffffffffffffffff021916908373ffffffffffffffffffffffffffffffffffffffff16021790555080608681905550600115156000151514156200043757600860009054906101000a900473ffffffffffffffffffffffffffffffffffffffff1673ffffffffffffffffffffffffffffffffffffffff1663095ea7b3837fffffffffffffffffffffffffffffffffffffffffffffffffffffffffffffffff6040518363ffffffff1660e01b8152600401808373ffffffffffffffffffffffffffffffffffffffff1673ffffffffffffffffffffffffffffffffffffffff16815260200182815260200192505050602060405180830381600087803b158015620003f857600080fd5b505af11580156200040d573d6000803e3d6000fd5b505050506040513d60208110156200042457600080fd5b8101908080519060200190929190505050505b50505050505050614bab806200044e6000396000f3fe608060405234801561001057600080fd5b50600436106102955760003560e01c80638e6e3f9311610167578063bae04c9a116100ce578063e29eb83611610087578063e29eb83614610cbe578063f015e54e14610cdc578063f06197b714610d1e578063f3cebadb14610d6a578063f88489c214610d74578063fce0eb0214610dec57610295565b8063bae04c9a14610b6e578063c354a0a614610bba578063c3da42b814610bfc578063cb29417714610c1a578063d5780ec414610c72578063e261b94c14610cb457610295565b80639b34ae03116101205780639b34ae03146109dd5780639e731812146109fb578063a1c84e9114610a7a578063a36252bf14610ad2578063a57aa8eb14610b14578063b3de019c14610b3657610295565b80638e6e3f93146108515780638e7ea5b2146108a957806395623641146108b3578063977f1b28146108fd57806397b4550a1461091b578063994ec7051461099357610295565b806340993b261161020b57806370a23f75116101c457806370a23f75146106f157806373a5226f146107335780637f8661a114610775578063853fd421146107a357806385f2aef2146107c55780638cb688991461080f57610295565b806340993b261461056c5780634df7e3d0146105ae57806353a58de1146105cc5780635b2ace641461062e5780635dfd7e9b146106705780636ca871e3146106a857610295565b806325947a521161025d57806325947a52146103f457806326a49e371461042257806330787fd814610464578063321c7771146104bc57806332f2b04d146104da5780633e4f49e61461051c57610295565b80630dbe671f1461029a578063103e46ee146102b8578063171a2409146102e65780631e8b76ad1461034c578063237b5e4f14610392575b600080fd5b6102a2610e2e565b6040518082815260200191505060405180910390f35b6102e4600480360360208110156102ce57600080fd5b8101908080359060200190929190505050610e34565b005b610332600480360360408110156102fc57600080fd5b8101908080359060200190929190803573ffffffffffffffffffffffffffffffffffffffff169060200190929190505050610fe3565b604051808215151515815260200191505060405180910390f35b6103786004803603602081101561036257600080fd5b8101908080359060200190929190505050611012565b604051808215151515815260200191505060405180910390f35b6103de600480360360408110156103a857600080fd5b8101908080359060200190929190803573ffffffffffffffffffffffffffffffffffffffff16906020019092919050505061108c565b6040518082815260200191505060405180910390f35b6104206004803603602081101561040a57600080fd5b81019080803590602001909291905050506110b1565b005b61044e6004803603602081101561043857600080fd5b81019080803590602001909291905050506117b2565b6040518082815260200191505060405180910390f35b6104a66004803603602081101561047a57600080fd5b81019080803573ffffffffffffffffffffffffffffffffffffffff1690602001909291905050506117ca565b6040518082815260200191505060405180910390f35b6104c46117e2565b6040518082815260200191505060405180910390f35b610506600480360360208110156104f057600080fd5b8101908080359060200190929190505050611829565b6040518082815260200191505060405180910390f35b6105486004803603602081101561053257600080fd5b81019080803590602001909291905050506119b8565b6040518082600181111561055857fe5b60ff16815260200191505060405180910390f35b6105ac6004803603606081101561058257600080fd5b810190808035906020019092919080359060200190929190803590602001909291905050506119df565b005b6105b66120c1565b6040518082815260200191505060405180910390f35b610618600480360360408110156105e257600080fd5b8101908080359060200190929190803573ffffffffffffffffffffffffffffffffffffffff1690602001909291905050506120c7565b6040518082815260200191505060405180910390f35b61065a6004803603602081101561064457600080fd5b81019080803590602001909291905050506120ec565b6040518082815260200191505060405180910390f35b6106a66004803603604081101561068657600080fd5b810190808035906020019092919080359060200190929190505050612104565b005b6106d4600480360360208110156106be57600080fd5b810190808035906020019092919050505061232e565b604051808381526020018281526020019250505060405180910390f35b61071d6004803603602081101561070757600080fd5b8101908080359060200190929190505050612344565b6040518082815260200191505060405180910390f35b61075f6004803603602081101561074957600080fd5b8101908080359060200190929190505050612408565b6040518082815260200191505060405180910390f35b6107a16004803603602081101561078b57600080fd5b8101908080359060200190929190505050612625565b005b6107ab6127fd565b604051808215151515815260200191505060405180910390f35b6107cd612810565b604051808273ffffffffffffffffffffffffffffffffffffffff1673ffffffffffffffffffffffffffffffffffffffff16815260200191505060405180910390f35b61083b6004803603602081101561082557600080fd5b8101908080359060200190929190505050612836565b6040518082815260200191505060405180910390f35b6108936004803603602081101561086757600080fd5b81019080803573ffffffffffffffffffffffffffffffffffffffff16906020019092919050505061284e565b6040518082815260200191505060405180910390f35b6108b1612866565b005b6108bb612924565b604051808273ffffffffffffffffffffffffffffffffffffffff1673ffffffffffffffffffffffffffffffffffffffff16815260200191505060405180910390f35b61090561294a565b6040518082815260200191505060405180910390f35b6109516004803603604081101561093157600080fd5b810190808035906020019092919080359060200190929190505050612950565b604051808273ffffffffffffffffffffffffffffffffffffffff1673ffffffffffffffffffffffffffffffffffffffff16815260200191505060405180910390f35b61099b6129a2565b604051808273ffffffffffffffffffffffffffffffffffffffff1673ffffffffffffffffffffffffffffffffffffffff16815260200191505060405180910390f35b6109e56129c8565b6040518082815260200191505060405180910390f35b610a3160048036036040811015610a1157600080fd5b8101908080359060200190929190803590602001909291905050506129ce565b604051808373ffffffffffffffffffffffffffffffffffffffff1673ffffffffffffffffffffffffffffffffffffffff1681526020018281526020019250505060405180910390f35b610abc60048036036020811015610a9057600080fd5b81019080803573ffffffffffffffffffffffffffffffffffffffff169060200190929190505050612a1f565b6040518082815260200191505060405180910390f35b610afe60048036036020811015610ae857600080fd5b8101908080359060200190929190505050612a37565b6040518082815260200191505060405180910390f35b610b1c612a4f565b604051808215151515815260200191505060405180910390f35b610b6c60048036036040811015610b4c57600080fd5b810190808035906020019092919080359060200190929190505050612a62565b005b610ba460048036036040811015610b8457600080fd5b810190808035906020019092919080359060200190929190505050612d7e565b6040518082815260200191505060405180910390f35b610be660048036036020811015610bd057600080fd5b8101908080359060200190929190505050612f0b565b6040518082815260200191505060405180910390f35b610c04612f23565b6040518082815260200191505060405180910390f35b610c5c60048036036020811015610c3057600080fd5b81019080803573ffffffffffffffffffffffffffffffffffffffff169060200190929190505050612f29565b6040518082815260200191505060405180910390f35b610c9e60048036036020811015610c8857600080fd5b8101908080359060200190929190505050612f41565b6040518082815260200191505060405180910390f35b610cbc612f59565b005b610cc6613041565b6040518082815260200191505060405180910390f35b610d0860048036036020811015610cf257600080fd5b8101908080359060200190929190505050613047565b6040518082815260200191505060405180910390f35b610d5460048036036040811015610d3457600080fd5b81019080803590602001909291908035906020019092919050505061305f565b6040518082815260200191505060405180910390f35b610d72613091565b005b610daa60048036036040811015610d8a57600080fd5b810190808035906020019092919080359060200190929190505050613251565b604051808273ffffffffffffffffffffffffffffffffffffffff1673ffffffffffffffffffffffffffffffffffffffff16815260200191505060405180910390f35b610e1860048036036020811015610e0257600080fd5b8101908080359060200190929190505050613293565b6040518082815260200191505060405180910390f35b60005481565b60001515608460009054906101000a900460ff16151514610e5457600080fd5b600960009054906101000a900473ffffffffffffffffffffffffffffffffffffffff1673ffffffffffffffffffffffffffffffffffffffff163373ffffffffffffffffffffffffffffffffffffffff1614610f17576040517f08c379a00000000000000000000000000000000000000000000000000000000081526004018080602001828103825260118152602001807f496d706f7374657220646574656374656400000000000000000000000000000081525060200191505060405180910390fd5b62278d00608654014211610f76576040517f08c379a0000000000000000000000000000000000000000000000000000000008152600401808060200182810382526027815260200180614b506027913960400191505060405180910390fd5b806085819055506000600190505b6014811015610fa357610f96816110b1565b8080600101915050610f84565b506001608460006101000a81548160ff02191690831515021790555060006085541415610fd757610fd26132f5565b610fe0565b610fdf6135d3565b5b50565b608d6020528160005260406000206020528060005260406000206000915091509054906101000a900460ff1681565b60008061101e83612344565b9050608b600084815260200190815260200160002060003373ffffffffffffffffffffffffffffffffffffffff1673ffffffffffffffffffffffffffffffffffffffff168152602001908152602001600020548110611081576001915050611087565b60009150505b919050565b6089602052816000526040600020602052806000526040600020600091509150505481565b60001515608460009054906101000a900460ff161515146110d157600080fd5b6001808111156110dd57fe5b608f82601481106110ea57fe5b602091828204019190069054906101000a900460ff16600181111561110b57fe5b14156117af57600061111c82612344565b90506000600560009054906101000a900473ffffffffffffffffffffffffffffffffffffffff1673ffffffffffffffffffffffffffffffffffffffff16636352211e846040518263ffffffff1660e01b81526004018082815260200191505060206040518083038186803b15801561119357600080fd5b505afa1580156111a7573d6000803e3d6000fd5b505050506040513d60208110156111bd57600080fd5b810190808051906020019092919050505090506000608b600085815260200190815260200160002060008373ffffffffffffffffffffffffffffffffffffffff1673ffffffffffffffffffffffffffffffffffffffff168152602001908152602001600020548310611341576112de6112c1846112b3608b600089815260200190815260200160002060008773ffffffffffffffffffffffffffffffffffffffff1673ffffffffffffffffffffffffffffffffffffffff168152602001908152602001600020546112a560348a6014811061129457fe5b01544261387490919063ffffffff16565b6138be90919063ffffffff16565b61394490919063ffffffff16565b603486601481106112ce57fe5b015461398e90919063ffffffff16565b9050608b600085815260200190815260200160002060008373ffffffffffffffffffffffffffffffffffffffff1673ffffffffffffffffffffffffffffffffffffffff16815260200190815260200160002054925061133c84613a16565b611345565b4290505b60001515608d600086815260200190815260200160002060008473ffffffffffffffffffffffffffffffffffffffff1673ffffffffffffffffffffffffffffffffffffffff16815260200190815260200160002060009054906101000a900460ff16151514156114ae576001608d600086815260200190815260200160002060008473ffffffffffffffffffffffffffffffffffffffff1673ffffffffffffffffffffffffffffffffffffffff16815260200190815260200160002060006101000a81548160ff021916908315150217905550816088600086815260200190815260200160002060006070876014811061143b57fe5b0154815260200190815260200160002060006101000a81548173ffffffffffffffffffffffffffffffffffffffff021916908373ffffffffffffffffffffffffffffffffffffffff16021790555060016070856014811061149857fe5b015401607085601481106114a857fe5b01819055505b61150083608e60008573ffffffffffffffffffffffffffffffffffffffff1673ffffffffffffffffffffffffffffffffffffffff1681526020019081526020016000205461398e90919063ffffffff16565b608e60008473ffffffffffffffffffffffffffffffffffffffff1673ffffffffffffffffffffffffffffffffffffffff1681526020019081526020016000208190555060006115666034866014811061155557fe5b01548361387490919063ffffffff16565b90506115cb816089600088815260200190815260200160002060008673ffffffffffffffffffffffffffffffffffffffff1673ffffffffffffffffffffffffffffffffffffffff1681526020019081526020016000205461398e90919063ffffffff16565b6089600087815260200190815260200160002060008573ffffffffffffffffffffffffffffffffffffffff1673ffffffffffffffffffffffffffffffffffffffff1681526020019081526020016000208190555061164581608a60008881526020019081526020016000205461398e90919063ffffffff16565b608a600087815260200190815260200160002081905550426034866014811061166a57fe5b01819055506116d284608b600088815260200190815260200160002060008673ffffffffffffffffffffffffffffffffffffffff1673ffffffffffffffffffffffffffffffffffffffff1681526020019081526020016000205461387490919063ffffffff16565b608b600087815260200190815260200160002060008573ffffffffffffffffffffffffffffffffffffffff1673ffffffffffffffffffffffffffffffffffffffff1681526020019081526020016000208190555061174784601f876014811061173757fe5b015461398e90919063ffffffff16565b601f866014811061175457fe5b018190555061176e8460335461398e90919063ffffffff16565b60338190555061177d84613c7a565b837f6ab0172416aeaedce744fba85809be02ae7a61ff89203ff71a33291dc9f310f460405160405180910390a2505050505b50565b600b81601481106117bf57fe5b016000915090505481565b60046020528060005260406000206000915090505481565b6000608c60003373ffffffffffffffffffffffffffffffffffffffff1673ffffffffffffffffffffffffffffffffffffffff16815260200190815260200160002054905090565b60008061183583612344565b90506000600560009054906101000a900473ffffffffffffffffffffffffffffffffffffffff1673ffffffffffffffffffffffffffffffffffffffff16636352211e856040518263ffffffff1660e01b81526004018082815260200191505060206040518083038186803b1580156118ac57600080fd5b505afa1580156118c0573d6000803e3d6000fd5b505050506040513d60208110156118d657600080fd5b81019080805190602001909291905050509050608b600085815260200190815260200160002060008273ffffffffffffffffffffffffffffffffffffffff1673ffffffffffffffffffffffffffffffffffffffff16815260200190815260200160002054821061194b576000925050506119b3565b6119ae82608b600087815260200190815260200160002060008473ffffffffffffffffffffffffffffffffffffffff1673ffffffffffffffffffffffffffffffffffffffff1681526020019081526020016000205461387490919063ffffffff16565b925050505b919050565b608f81601481106119c557fe5b60209182820401919006915054906101000a900460ff1681565b816119e9816110b1565b60001515608460009054906101000a900460ff16151514611a0957600080fd5b6000831415611a80576040517f08c379a000000000000000000000000000000000000000000000000000000000815260040180806020018281038252601d8152602001807f43616e6e6f7420626574206f6e20696e76616c6964206f7574636f6d6500000081525060200191505060405180910390fd5b60148310611af6576040517f08c379a00000000000000000000000000000000000000000000000000000000081526004018080602001828103825260188152602001807f54686973207465616d20646f6573206e6f74206578697374000000000000000081525060200191505060405180910390fd5b600b8360148110611b0357fe5b01548411611b5c576040517f08c379a0000000000000000000000000000000000000000000000000000000008152600401808060200182810382526027815260200180614b086027913960400191505060405180910390fd5b60008211611bd2576040517f08c379a00000000000000000000000000000000000000000000000000000000081526004018080602001828103825260168152602001807f4d757374206465706f73697420736f6d657468696e670000000000000000000081525060200191505060405180910390fd5b81608c60003373ffffffffffffffffffffffffffffffffffffffff1673ffffffffffffffffffffffffffffffffffffffff168152602001908152602001600020541015611c87576040517f08c379a000000000000000000000000000000000000000000000000000000000815260040180806020018281038252600e8152602001807f4e6f7420656e6f7567682044414900000000000000000000000000000000000081525060200191505060405180910390fd5b611cd982608c60003373ffffffffffffffffffffffffffffffffffffffff1673ffffffffffffffffffffffffffffffffffffffff1681526020019081526020016000205461387490919063ffffffff16565b608c60003373ffffffffffffffffffffffffffffffffffffffff1673ffffffffffffffffffffffffffffffffffffffff16815260200190815260200160002081905550611d7f82608b600086815260200190815260200160002060003373ffffffffffffffffffffffffffffffffffffffff1673ffffffffffffffffffffffffffffffffffffffff1681526020019081526020016000205461398e90919063ffffffff16565b608b600085815260200190815260200160002060003373ffffffffffffffffffffffffffffffffffffffff1673ffffffffffffffffffffffffffffffffffffffff168152602001908152602001600020819055506000600560009054906101000a900473ffffffffffffffffffffffffffffffffffffffff1673ffffffffffffffffffffffffffffffffffffffff16636352211e856040518263ffffffff1660e01b81526004018082815260200191505060206040518083038186803b158015611e4857600080fd5b505afa158015611e5c573d6000803e3d6000fd5b505050506040513d6020811015611e7257600080fd5b810190808051906020019092919050505090503373ffffffffffffffffffffffffffffffffffffffff168173ffffffffffffffffffffffffffffffffffffffff161415611ef85784608760008681526020019081526020016000206000605c8760148110611edc57fe5b0154815260200190815260200160002060010181905550611fcb565b6001605c8560148110611f0757fe5b015401605c8560148110611f1757fe5b018190555084608760008681526020019081526020016000206000605c8760148110611f3f57fe5b015481526020019081526020016000206001018190555033608760008681526020019081526020016000206000605c8760148110611f7957fe5b0154815260200190815260200160002060000160006101000a81548173ffffffffffffffffffffffffffffffffffffffff021916908373ffffffffffffffffffffffffffffffffffffffff1602179055505b60006001811115611fd857fe5b608f8560148110611fe557fe5b602091828204019190069054906101000a900460ff16600181111561200657fe5b1415612057576001608f856014811061201b57fe5b602091828204019190066101000a81548160ff0219169083600181111561203e57fe5b0217905550426034856014811061205157fe5b01819055505b426048856014811061206557fe5b018190555061207681338787613dac565b843373ffffffffffffffffffffffffffffffffffffffff167f4f79409f494e81c38036d80aa8a6507c2cb08d90bfb2fead5519447646b3497e60405160405180910390a35050505050565b60015481565b608b602052816000526040600020602052806000526040600020600091509150505481565b604881601481106120f957fe5b016000915090505481565b8061210e816110b1565b60001515608460009054906101000a900460ff1615151461212e57600080fd5b6000600181111561213b57fe5b608f836014811061214857fe5b602091828204019190069054906101000a900460ff16600181111561216957fe5b14156121dd576040517f08c379a000000000000000000000000000000000000000000000000000000000815260040180806020018281038252600a8152602001807f466f7265636c6f7365640000000000000000000000000000000000000000000081525060200191505060405180910390fd5b61222f83608c60003373ffffffffffffffffffffffffffffffffffffffff1673ffffffffffffffffffffffffffffffffffffffff1681526020019081526020016000205461387490919063ffffffff16565b608c60003373ffffffffffffffffffffffffffffffffffffffff1673ffffffffffffffffffffffffffffffffffffffff168152602001908152602001600020819055506122d583608b600085815260200190815260200160002060003373ffffffffffffffffffffffffffffffffffffffff1673ffffffffffffffffffffffffffffffffffffffff1681526020019081526020016000205461398e90919063ffffffff16565b608b600084815260200190815260200160002060003373ffffffffffffffffffffffffffffffffffffffff1673ffffffffffffffffffffffffffffffffffffffff16815260200190815260200160002081905550505050565b60008061233a83612344565b4291509150915091565b600080156123a9576123a2620151806123946123776034866014811061236657fe5b01544261387490919063ffffffff16565b600b866014811061238457fe5b01546138be90919063ffffffff16565b61394490919063ffffffff16565b9050612403565b6124006301e133806123f26123d5603486601481106123c457fe5b01544261387490919063ffffffff16565b600b86601481106123e257fe5b01546138be90919063ffffffff16565b61394490919063ffffffff16565b90505b919050565b60008061241483612344565b90506000600560009054906101000a900473ffffffffffffffffffffffffffffffffffffffff1673ffffffffffffffffffffffffffffffffffffffff16636352211e856040518263ffffffff1660e01b81526004018082815260200191505060206040518083038186803b15801561248b57600080fd5b505afa15801561249f573d6000803e3d6000fd5b505050506040513d60208110156124b557600080fd5b810190808051906020019092919050505090503373ffffffffffffffffffffffffffffffffffffffff168173ffffffffffffffffffffffffffffffffffffffff1614156125ca57608b600085815260200190815260200160002060003373ffffffffffffffffffffffffffffffffffffffff1673ffffffffffffffffffffffffffffffffffffffff16815260200190815260200160002054821061255e57600092505050612620565b6125c182608b600087815260200190815260200160002060003373ffffffffffffffffffffffffffffffffffffffff1673ffffffffffffffffffffffffffffffffffffffff1681526020019081526020016000205461387490919063ffffffff16565b92505050612620565b608b600085815260200190815260200160002060003373ffffffffffffffffffffffffffffffffffffffff1673ffffffffffffffffffffffffffffffffffffffff16815260200190815260200160002054925050505b919050565b80600560009054906101000a900473ffffffffffffffffffffffffffffffffffffffff1673ffffffffffffffffffffffffffffffffffffffff16636352211e826040518263ffffffff1660e01b81526004018082815260200191505060206040518083038186803b15801561269957600080fd5b505afa1580156126ad573d6000803e3d6000fd5b505050506040513d60208110156126c357600080fd5b810190808051906020019092919050505073ffffffffffffffffffffffffffffffffffffffff163373ffffffffffffffffffffffffffffffffffffffff1614612774576040517f08c379a00000000000000000000000000000000000000000000000000000000081526004018080602001828103825260098152602001807f4e6f74206f776e6572000000000000000000000000000000000000000000000081525060200191505060405180910390fd5b8161277e816110b1565b60001515608460009054906101000a900460ff1615151461279e57600080fd5b6127f8608b600085815260200190815260200160002060003373ffffffffffffffffffffffffffffffffffffffff1673ffffffffffffffffffffffffffffffffffffffff1681526020019081526020016000205484613eba565b505050565b608460009054906101000a900460ff1681565b600560009054906101000a900473ffffffffffffffffffffffffffffffffffffffff1681565b6034816014811061284357fe5b016000915090505481565b60036020528060005260406000206000915090505481565b60001515608460009054906101000a900460ff1615151461288657600080fd5b6000600190505b60148110156128ac5761289f816110b1565b808060010191505061288d565b5060008090505b60148110156129215760006128c78261413f565b9050801561291357816085819055506001608460006101000a81548160ff02191690831515021790555060006085541415612909576129046132f5565b612912565b6129116135d3565b5b5b5080806001019150506128b3565b50565b600a60009054906101000a900473ffffffffffffffffffffffffffffffffffffffff1681565b60865481565b600060876000848152602001908152602001600020600083815260200190815260200160002060000160009054906101000a900473ffffffffffffffffffffffffffffffffffffffff16905092915050565b600960009054906101000a900473ffffffffffffffffffffffffffffffffffffffff1681565b60855481565b6087602052816000526040600020602052806000526040600020600091509150508060000160009054906101000a900473ffffffffffffffffffffffffffffffffffffffff16908060010154905082565b608e6020528060005260406000206000915090505481565b608a6020528060005260406000206000915090505481565b608460019054906101000a900460ff1681565b80600560009054906101000a900473ffffffffffffffffffffffffffffffffffffffff1673ffffffffffffffffffffffffffffffffffffffff16636352211e826040518263ffffffff1660e01b81526004018082815260200191505060206040518083038186803b158015612ad657600080fd5b505afa158015612aea573d6000803e3d6000fd5b505050506040513d6020811015612b0057600080fd5b810190808051906020019092919050505073ffffffffffffffffffffffffffffffffffffffff163373ffffffffffffffffffffffffffffffffffffffff1614612bb1576040517f08c379a00000000000000000000000000000000000000000000000000000000081526004018080602001828103825260098152602001807f4e6f74206f776e6572000000000000000000000000000000000000000000000081525060200191505060405180910390fd5b81612bbb816110b1565b60001515608460009054906101000a900460ff16151514612bdb57600080fd5b60006001811115612be857fe5b608f8460148110612bf557fe5b602091828204019190069054906101000a900460ff166001811115612c1657fe5b1415612c8a576040517f08c379a000000000000000000000000000000000000000000000000000000000815260040180806020018281038252600a8152602001807f466f7265636c6f7365640000000000000000000000000000000000000000000081525060200191505060405180910390fd5b600b8360148110612c9757fe5b01548411612cf0576040517f08c379a000000000000000000000000000000000000000000000000000000000815260040180806020018281038252602b815260200180614add602b913960400191505060405180910390fd5b83600b8460148110612cfe57fe5b018190555083608760008581526020019081526020016000206000605c8660148110612d2657fe5b0154815260200190815260200160002060010181905550600b8360148110612d4a57fe5b01547f854d6511a28585103049c7770618450f7c9aeb580c69db2913d63869663f475160405160405180910390a250505050565b600081600560009054906101000a900473ffffffffffffffffffffffffffffffffffffffff1673ffffffffffffffffffffffffffffffffffffffff16636352211e826040518263ffffffff1660e01b81526004018082815260200191505060206040518083038186803b158015612df457600080fd5b505afa158015612e08573d6000803e3d6000fd5b505050506040513d6020811015612e1e57600080fd5b810190808051906020019092919050505073ffffffffffffffffffffffffffffffffffffffff163373ffffffffffffffffffffffffffffffffffffffff1614612ecf576040517f08c379a00000000000000000000000000000000000000000000000000000000081526004018080602001828103825260098152602001807f4e6f74206f776e6572000000000000000000000000000000000000000000000081525060200191505060405180910390fd5b82612ed9816110b1565b60001515608460009054906101000a900460ff16151514612ef957600080fd5b612f038585613eba565b505092915050565b601f8160148110612f1857fe5b016000915090505481565b60025481565b608c6020528060005260406000206000915090505481565b60708160148110612f4e57fe5b016000915090505481565b60001515608460009054906101000a900460ff16151514612f7957600080fd5b6230c780608654014211612ff5576040517f08c379a00000000000000000000000000000000000000000000000000000000081526004018080602001828103825260188152602001807f4769766520416e647265772031207765656b206669727374000000000000000081525060200191505060405180910390fd5b6000600190505b601481101561301b5761300e816110b1565b8080600101915050612ffc565b506001608460006101000a81548160ff02191690831515021790555061303f6132f5565b565b60335481565b605c816014811061305457fe5b016000915090505481565b600060876000848152602001908152602001600020600083815260200190815260200160002060010154905092915050565b600115156000151514156131c857600860009054906101000a900473ffffffffffffffffffffffffffffffffffffffff1673ffffffffffffffffffffffffffffffffffffffff16635791589768056bc75e2d631000006040518263ffffffff1660e01b815260040180828152602001915050600060405180830381600087803b15801561311d57600080fd5b505af1158015613131573d6000803e3d6000fd5b5050505068056bc75e2d63100000608c60003373ffffffffffffffffffffffffffffffffffffffff1673ffffffffffffffffffffffffffffffffffffffff1681526020019081526020016000205401608c60003373ffffffffffffffffffffffffffffffffffffffff1673ffffffffffffffffffffffffffffffffffffffff1681526020019081526020016000208190555061324f565b6064608c60003373ffffffffffffffffffffffffffffffffffffffff1673ffffffffffffffffffffffffffffffffffffffff1681526020019081526020016000205401608c60003373ffffffffffffffffffffffffffffffffffffffff1673ffffffffffffffffffffffffffffffffffffffff168152602001908152602001600020819055505b565b60886020528160005260406000206020528060005260406000206000915091509054906101000a900473ffffffffffffffffffffffffffffffffffffffff1681565b6000806132bb6301e13380600b85601481106132ab57fe5b015461394490919063ffffffff16565b905060008114156132cf57429150506132f0565b6132ea816132dc85611829565b61394490919063ffffffff16565b42019150505b919050565b60011515608460009054906101000a900460ff1615151461337e576040517f08c379a00000000000000000000000000000000000000000000000000000000081526004018080602001828103825260108152602001807f57696e6e6572206e6f74206b6e6f776e0000000000000000000000000000000081525060200191505060405180910390fd5b60001515608460019054906101000a900460ff16151514613407576040517f08c379a00000000000000000000000000000000000000000000000000000000081526004018080602001828103825260108152602001807f416c72656164792070616964206f75740000000000000000000000000000000081525060200191505060405180910390fd5b61340f61422b565b61341a603354614381565b6000613425306144d3565b90506000600190505b60148110156135845760008090505b6070826014811061344a57fe5b015481101561357657600060886000848152602001908152602001600020600083815260200190815260200160002060009054906101000a900473ffffffffffffffffffffffffffffffffffffffff16905060006134f0608e60008473ffffffffffffffffffffffffffffffffffffffff1673ffffffffffffffffffffffffffffffffffffffff16815260200190815260200160002054866138be90919063ffffffff16565b905060006135096033548361394490919063ffffffff16565b90506000608e60008573ffffffffffffffffffffffffffffffffffffffff1673ffffffffffffffffffffffffffffffffffffffff16815260200190815260200160002081905550600081111561356657613565838260016145c7565b5b505050808060010191505061343d565b50808060010191505061342e565b506001608460016101000a81548160ff021916908315150217905550806085547faec4660fb36dce4768bdbe4e8e3291cf849dc4af665b9e32e041c2b2c2a457ae60405160405180910390a350565b60011515608460009054906101000a900460ff1615151461365c576040517f08c379a00000000000000000000000000000000000000000000000000000000081526004018080602001828103825260108152602001807f57696e6e6572206e6f74206b6e6f776e0000000000000000000000000000000081525060200191505060405180910390fd5b60001515608460019054906101000a900460ff161515146136e5576040517f08c379a00000000000000000000000000000000000000000000000000000000081526004018080602001828103825260108152602001807f416c72656164792070616964206f75740000000000000000000000000000000081525060200191505060405180910390fd5b6136ed61422b565b6136f8603354614381565b6000613703306144d3565b905060008090505b60706085546014811061371a57fe5b0154811015613825576000608860006085548152602001908152602001600020600083815260200190815260200160002060009054906101000a900473ffffffffffffffffffffffffffffffffffffffff169050600060896000608554815260200190815260200160002060008373ffffffffffffffffffffffffffffffffffffffff1673ffffffffffffffffffffffffffffffffffffffff16815260200190815260200160002054905060006137da82866138be90919063ffffffff16565b90506000613806608a60006085548152602001908152602001600020548361394490919063ffffffff16565b9050613814848260016145c7565b50505050808060010191505061370b565b506001608460016101000a81548160ff021916908315150217905550806085547faec4660fb36dce4768bdbe4e8e3291cf849dc4af665b9e32e041c2b2c2a457ae60405160405180910390a350565b60006138b683836040518060400160405280601e81526020017f536166654d6174683a207375627472616374696f6e206f766572666c6f7700008152506147f7565b905092915050565b6000808314156138d1576000905061393e565b60008284029050828482816138e257fe5b0414613939576040517f08c379a0000000000000000000000000000000000000000000000000000000008152600401808060200182810382526021815260200180614b2f6021913960400191505060405180910390fd5b809150505b92915050565b600061398683836040518060400160405280601a81526020017f536166654d6174683a206469766973696f6e206279207a65726f0000000000008152506148b7565b905092915050565b600080828401905083811015613a0c576040517f08c379a000000000000000000000000000000000000000000000000000000000815260040180806020018281038252601b8152602001807f536166654d6174683a206164646974696f6e206f766572666c6f77000000000081525060200191505060405180910390fd5b8091505092915050565b60008090505b600015158115151415613c76576000605c8360148110613a3857fe5b01541015613a4257fe5b6001605c8360148110613a5157fe5b015403605c8360148110613a6157fe5b01819055506000605c8360148110613a7557fe5b01549050600060876000858152602001908152602001600020600083815260200190815260200160002060000160009054906101000a900473ffffffffffffffffffffffffffffffffffffffff1690506000821415613ae057613ad78461497d565b60019250613c6f565b6000608b600086815260200190815260200160002060008373ffffffffffffffffffffffffffffffffffffffff1673ffffffffffffffffffffffffffffffffffffffff168152602001908152602001600020541115613c6e576000600560009054906101000a900473ffffffffffffffffffffffffffffffffffffffff1673ffffffffffffffffffffffffffffffffffffffff16636352211e866040518263ffffffff1660e01b81526004018082815260200191505060206040518083038186803b158015613bae57600080fd5b505afa158015613bc2573d6000803e3d6000fd5b505050506040513d6020811015613bd857600080fd5b810190808051906020019092919050505090506000608760008781526020019081526020016000206000858152602001908152602001600020600101549050613c2382848389613dac565b600194508273ffffffffffffffffffffffffffffffffffffffff16867fdcd7d049706cf89eb40b5726d483d3aa2001e43b729f0f411cdda43c2fe59f5260405160405180910390a350505b5b5050613a1c565b5050565b60011515600015151415613da9576000613c9e60648361394490919063ffffffff16565b9050600760009054906101000a900473ffffffffffffffffffffffffffffffffffffffff1673ffffffffffffffffffffffffffffffffffffffff1663abb60c80600660009054906101000a900473ffffffffffffffffffffffffffffffffffffffff16836040518363ffffffff1660e01b8152600401808373ffffffffffffffffffffffffffffffffffffffff1673ffffffffffffffffffffffffffffffffffffffff16815260200182815260200192505050602060405180830381600087803b158015613d6b57600080fd5b505af1158015613d7f573d6000803e3d6000fd5b505050506040513d6020811015613d9557600080fd5b810190808051906020019092919050505050505b50565b600560009054906101000a900473ffffffffffffffffffffffffffffffffffffffff1673ffffffffffffffffffffffffffffffffffffffff166323b872dd8585846040518463ffffffff1660e01b8152600401808473ffffffffffffffffffffffffffffffffffffffff1673ffffffffffffffffffffffffffffffffffffffff1681526020018373ffffffffffffffffffffffffffffffffffffffff1673ffffffffffffffffffffffffffffffffffffffff1681526020018281526020019350505050600060405180830381600087803b158015613e8957600080fd5b505af1158015613e9d573d6000803e3d6000fd5b5050505081600b8260148110613eaf57fe5b018190555050505050565b81608b600083815260200190815260200160002060003373ffffffffffffffffffffffffffffffffffffffff1673ffffffffffffffffffffffffffffffffffffffff168152602001908152602001600020541015613f80576040517f08c379a00000000000000000000000000000000000000000000000000000000081526004018080602001828103825260148152602001807f5769746864726177696e6720746f6f206d75636800000000000000000000000081525060200191505060405180910390fd5b613fe382608b600084815260200190815260200160002060003373ffffffffffffffffffffffffffffffffffffffff1673ffffffffffffffffffffffffffffffffffffffff1681526020019081526020016000205461387490919063ffffffff16565b608b600083815260200190815260200160002060003373ffffffffffffffffffffffffffffffffffffffff1673ffffffffffffffffffffffffffffffffffffffff1681526020019081526020016000208190555061408982608c60003373ffffffffffffffffffffffffffffffffffffffff1673ffffffffffffffffffffffffffffffffffffffff1681526020019081526020016000205461398e90919063ffffffff16565b608c60003373ffffffffffffffffffffffffffffffffffffffff1673ffffffffffffffffffffffffffffffffffffffff168152602001908152602001600020819055506140d8338360006145c7565b6000608b600083815260200190815260200160002060003373ffffffffffffffffffffffffffffffffffffffff1673ffffffffffffffffffffffffffffffffffffffff16815260200190815260200160002054141561413b5761413a81613a16565b5b5050565b6000801561420f576000600660009054906101000a900473ffffffffffffffffffffffffffffffffffffffff1673ffffffffffffffffffffffffffffffffffffffff16633c264820846040518263ffffffff1660e01b81526004018082815260200191505060206040518083038186803b1580156141bc57600080fd5b505afa1580156141d0573d6000803e3d6000fd5b505050506040513d60208110156141e657600080fd5b810190808051906020019092919050505011156142065760019050614226565b60009050614226565b60018214156142215760019050614226565b600090505b919050565b6000600190505b601481101561437e5760008090505b6070826014811061424e57fe5b015481101561437057600060886000848152602001908152602001600020600083815260200190815260200160002060009054906101000a900473ffffffffffffffffffffffffffffffffffffffff1690506000608b600085815260200190815260200160002060008373ffffffffffffffffffffffffffffffffffffffff1673ffffffffffffffffffffffffffffffffffffffff1681526020019081526020016000205490506000608b600086815260200190815260200160002060008473ffffffffffffffffffffffffffffffffffffffff1673ffffffffffffffffffffffffffffffffffffffff16815260200190815260200160002081905550600081111561436157614360828260006145c7565b5b50508080600101915050614241565b508080600101915050614232565b50565b608460009054906101000a900460ff1661439757fe5b600115156000151514156144d05760006143bb60648361394490919063ffffffff16565b9050600760009054906101000a900473ffffffffffffffffffffffffffffffffffffffff1673ffffffffffffffffffffffffffffffffffffffff1663ad16158e600660009054906101000a900473ffffffffffffffffffffffffffffffffffffffff16836040518363ffffffff1660e01b8152600401808373ffffffffffffffffffffffffffffffffffffffff1673ffffffffffffffffffffffffffffffffffffffff168152602001828152602001925050506040805180830381600087803b15801561448757600080fd5b505af115801561449b573d6000803e3d6000fd5b505050506040513d60408110156144b157600080fd5b8101908080519060200190929190805190602001909291905050505050505b50565b600080156145bc57600860009054906101000a900473ffffffffffffffffffffffffffffffffffffffff1673ffffffffffffffffffffffffffffffffffffffff166370a08231836040518263ffffffff1660e01b8152600401808273ffffffffffffffffffffffffffffffffffffffff1673ffffffffffffffffffffffffffffffffffffffff16815260200191505060206040518083038186803b15801561457a57600080fd5b505afa15801561458e573d6000803e3d6000fd5b505050506040513d60208110156145a457600080fd5b810190808051906020019092919050505090506145c2565b60335490505b919050565b6000156146b857600860009054906101000a900473ffffffffffffffffffffffffffffffffffffffff1673ffffffffffffffffffffffffffffffffffffffff1663a9059cbb84846040518363ffffffff1660e01b8152600401808373ffffffffffffffffffffffffffffffffffffffff1673ffffffffffffffffffffffffffffffffffffffff16815260200182815260200192505050602060405180830381600087803b15801561467757600080fd5b505af115801561468b573d6000803e3d6000fd5b505050506040513d60208110156146a157600080fd5b8101908080519060200190929190505050506147f2565b600081141561475b5761471382600460008673ffffffffffffffffffffffffffffffffffffffff1673ffffffffffffffffffffffffffffffffffffffff1681526020019081526020016000205461398e90919063ffffffff16565b600460008573ffffffffffffffffffffffffffffffffffffffff1673ffffffffffffffffffffffffffffffffffffffff168152602001908152602001600020819055506147f1565b6147ad82600360008673ffffffffffffffffffffffffffffffffffffffff1673ffffffffffffffffffffffffffffffffffffffff1681526020019081526020016000205461398e90919063ffffffff16565b600360008573ffffffffffffffffffffffffffffffffffffffff1673ffffffffffffffffffffffffffffffffffffffff168152602001908152602001600020819055505b5b505050565b60008383111582906148a4576040517f08c379a00000000000000000000000000000000000000000000000000000000081526004018080602001828103825283818151815260200191508051906020019080838360005b8381101561486957808201518184015260208101905061484e565b50505050905090810190601f1680156148965780820380516001836020036101000a031916815260200191505b509250505060405180910390fd5b5060008385039050809150509392505050565b60008083118290614963576040517f08c379a00000000000000000000000000000000000000000000000000000000081526004018080602001828103825283818151815260200191508051906020019080838360005b8381101561492857808201518184015260208101905061490d565b50505050905090810190601f1680156149555780820380516001836020036101000a031916815260200191505b509250505060405180910390fd5b50600083858161496f57fe5b049050809150509392505050565b6000600560009054906101000a900473ffffffffffffffffffffffffffffffffffffffff1673ffffffffffffffffffffffffffffffffffffffff16636352211e836040518263ffffffff1660e01b81526004018082815260200191505060206040518083038186803b1580156149f257600080fd5b505afa158015614a06573d6000803e3d6000fd5b505050506040513d6020811015614a1c57600080fd5b81019080805190602001909291905050509050614a5e81600960009054906101000a900473ffffffffffffffffffffffffffffffffffffffff16600085613dac565b6000608f8360148110614a6d57fe5b602091828204019190066101000a81548160ff02191690836001811115614a9057fe5b02179055508073ffffffffffffffffffffffffffffffffffffffff167f6d6bbefef62d4cb6d0e3a4dd306a71d3632319b1e03659513df86b247dd657fe60405160405180910390a2505056fe4e6577207072696365206d75737420626520686967686572207468616e2063757272656e742070726963655072696365206d75737420626520686967686572207468616e2063757272656e74207072696365536166654d6174683a206d756c7469706c69636174696f6e206f766572666c6f775761697420666f7220646563656e7472616c69736564207265736f6c7574696f6e206669727374a265627a7a72315820a48f64551ebe2a69caa143c7f60fbc94252bc017dc64f3294d489f9d59bd0ec364736f6c634300050c0032",
  "source": "pragma solidity ^0.5.0;\nimport \"./interfaces/IERC721Full.sol\";\nimport \"./utils/SafeMath.sol\";\n\ninterface IMarket \n{\n    function getWinningPayoutNumerator(uint256 _outcome) external view returns (uint256);\n}\n\ninterface ShareToken \n{\n    function publicBuyCompleteSets(IMarket _market, uint256 _amount) external returns (bool)  ;\n    function publicSellCompleteSets(IMarket _market, uint256 _amount) external returns (uint256 _creatorFee, uint256 _reportingFee) ;\n}\n\ninterface Cash \n{\n    function approve(address _spender, uint256 _amount) external returns (bool);\n    function balanceOf(address _ownesr) external view returns (uint256);\n    function faucet(uint256 _amount) external;\n    function transfer(address _to, uint256 _amount) external returns (bool);\n    function transferFrom(address _from, address _to, uint256 _amount) external returns (bool);\n}\n\n//TODO: upon learning that the max number of options in a categorical market is 7 I will need to interact with multiple different markets\n//TODO: remove setwinnerme, it is a trust problem\n//TODO: make token ownershiip default to the contract address, not me\n\ncontract Harber {\n    \n    using SafeMath for uint256;\n\n    // NUMBER OF TOKENS\n    // this needs to INCLUDE the invalid outcome. So it will always be 1 higher than the number of teams. But if it is too high, the getWinner function will try and check if a team that does not exist has won, which will cause a revert, preventing the contract from determining the winner. So it must be accurate. \n    // Example: UK Premier League. 20 teams. numberOfTokens must equal 21 (20 teams + invalid outcome)\n    uint256 constant numberOfTokens = 20; // needs to be 5 for ganache testing\n\n    //TESTING VARIABLES\n    bool constant usingAugur = false; //if false, none of the augur contracts are interacted with. Required for ganache testing. Must be true in production :)\n    uint256 public a = 0;\n    uint256 public b = 0;\n    uint256 public c = 0;\n    // these are in lieu of interacting with ERC20 token contract, for tests\n    mapping (address => uint256) public winningsSentToUser;\n    mapping (address => uint256) public depositReturnedToUser;\n    \n    // CONTRACT VARIABLES\n    IERC721Full public team; // ERC721 NFT.\n    //Augur contracts:\n    IMarket market;\n    ShareToken completeSets;\n    Cash cash; \n\n    // UINTS ADDRESSES, BOOLS\n    address public andrewsAddress; // I am the original owner of tokens, and ownership reverts to me should the sale foreclose. Also, only I have the ability to SET the winner (which is an emergency ability if the decentralised approach fails- and can only be done if a month has passed after the augur resolution should have passed).\n    address public marketAddress; // the address of the Augur market. It is set in the constructor. Does not change. \n    uint256[numberOfTokens] public price; //in dai-wei (so $100 = 100000000000000000000)\n    uint256[numberOfTokens] public collectedAndSentToAugur; // amount collected for each token, ie the sum of all owners' rent. Not actually used for anything. \n    uint256 public totalCollected; // an easy way to track the above across all tokens. It is used for a) if there is an invalid outcome and it pays everyone back the amount of: ((total funds available * amount paid by user) / totalCollected). totalCollected is slightly higher than total funds available due to augur fees. And b) upon market resolution, it sells complete sets of Augur equal to totalCollected.\n    uint256[numberOfTokens] public timeLastCollected; // used to determine the rent due. Rent is due for the period (now - timeLastCollected), at which point timeLastCollected is set to now.\n    uint256[numberOfTokens] public timeAcquired; // when a token was bought. used only for front end\n    uint256[numberOfTokens] public currentOwnerIndex; // tracks the position of the current owner in the previousOwnerTracker mapping\n    uint256[numberOfTokens] public numberOfOwners; //used to cycle through ownerTracker during finalse & payout. Since you can't find the size of a mapping. If the value is 5, it means there are 5 owners. Ie it is not doing programming counting. \n  \n    // winning outcome variables\n    bool public marketResolved = false;\n    bool public doneAndDusted = false;\n    uint256 public winningOutcome = 99; //start with invalid winning outcome\n    uint256 public marketExpectedResolutionTime; //so the function to manually set the winner can only be called long after it should have resolved via Augur. Must be public so others can verify it is accurate. \n\n    //  STRUCTS\n    struct purchase {\n        address owner;\n        uint price;\n    }\n    \n    // MAPPINGS\n    mapping (uint256 => mapping (uint256 => purchase) ) public previousOwnerTracker; //keeps track of all previous owners of a token, including the price, so that if the current owner's deposit runs out, ownership can be reverted to a previous owner with the previous price. Index 0 is NOT used, this tells the contract to foreclose. This does NOT keep a reliable list of all owners, if it reverts to a previous owner then the next owner will overwrite the owner that was in that slot. The variable currentOwnerIndex is used to track the location of the current owner. \n    mapping (uint256 => mapping (uint256 => address) ) public ownerTracker; //used to keep hold of all the owners, for payout, similar to previousOwnerTracker except that the pointer to the current position never decrements\n    mapping (uint256 => mapping (address => uint256) ) public timeHeld; //this is the key variable that tracks the total amount of time each user has held it for. It is key because this is used to determine the proportion of the pot to be sent to each winning address\n    mapping (uint256 => uint256) public totalTimeHeld; //for the payout, what is the total time each token is owned for, excluding foreclosed state (ie owned by me). Winning addresses are sent totalFunds * (timeHeld/totalTimeHeld)\n    mapping (uint256 => mapping (address => uint256) ) public deposits; //keeps track of all the deposits for each token, for each owner. Unused deposits are not returned automatically when there is a new buyer. They can be withdrawn manually however. Unused deposits are returned automatically upon resolution of the market\n    mapping (address => uint256) public testDaiBalances;\n    mapping (uint256 => mapping (address => bool)) public everOwned; //this is required to prevent the ownerTracker variable being incremented unless a completely new user buys the token. \n    mapping (address => uint256) public rentPaid; //keeps track of all the rent paid by each user. So that it can be returned in case of an invalid market outcome. Only required in this instance. \n\n    // ENUMS\n    enum ownedState { Foreclosed, Owned }\n    ownedState[numberOfTokens] public state;\n\n    ////////////// CONSTRUCTOR //////////////\n    constructor(address _andrewsAddress, address _addressOfToken, address _addressOfCashContract, address _addressOfMarket, address _addressOfCompleteSetsContract, address _addressOfMainAugurContract, uint _marketExpectedResolutionTime) public {\n        //initialise ERC721s\n        team = IERC721Full(_addressOfToken);\n        team.setup();\n        andrewsAddress = _andrewsAddress;\n\n        //currentOwnerIndex is incremented before being used first so the 0 index will never contain a price/address. A zero index is used in the _revertToPreviousOwner function to commence foreclosure\n        for (uint i=0; i<numberOfTokens; i++)\n        {\n            currentOwnerIndex[i]=0;\n            numberOfOwners[i]=0;\n            state[i] = ownedState.Foreclosed;\n        }\n\n        //initialise Augur contract variables\n        cash = Cash(_addressOfCashContract);\n        market = IMarket(_addressOfMarket);\n        completeSets = ShareToken(_addressOfCompleteSetsContract);\n        marketExpectedResolutionTime = _marketExpectedResolutionTime;\n        \n        //approve augur contract to transfer this contract's dai\n        if (usingAugur == true) {\n            cash.approve(_addressOfMainAugurContract,(2**256)-1);\n        }\n    } \n\n    event LogBuy(address indexed owner, uint256 indexed price);\n    event LogPriceChange(uint256 indexed newPrice);\n    event LogForeclosure(address indexed prevOwner);\n    event LogRentCollection(uint256 indexed collected);\n    event LogFinalised(uint256 indexed winningOutcome, uint256 indexed daiAvailableToDistribute);\n    event LogReturnToPreviousOwner(uint256 indexed tokenId, address indexed previousOwner);\n\n\n    ////////////// MODIFIERS //////////////\n    modifier onlyOwner(uint256 _tokenId) {\n        require(msg.sender == team.ownerOf(_tokenId), \"Not owner\");\n        _;\n    }\n\n    modifier notResolved() {\n        require(marketResolved == false);\n        _;\n    }\n\n    modifier collectRent(uint256 _tokenId) {\n       _collectRent(_tokenId); \n       _;\n    }\n\n    ////////////// VIEW FUNCTIONS //////////////\n    function getTestDaiBalance() public view returns (uint256)\n    {\n        return(testDaiBalances[msg.sender]);\n    }\n\n    function getOwnerTrackerPrice(uint256 _tokenId, uint256 _index) public view returns (uint256)\n    {\n        return (previousOwnerTracker[_tokenId][_index].price);\n    }\n\n    function getOwnerTrackerAddress(uint256 _tokenId, uint256 _index) public view returns (address)\n    {\n        return (previousOwnerTracker[_tokenId][_index].owner);\n    }\n\n    function rentOwed(uint256 _tokenId) public view returns (uint256 augurFundsDue) \n    {\n        //the tests are written assuming price = annual rental price. Final version should be price =daily rental price\n        if (usingAugur) {\n            return price[_tokenId].mul(now.sub(timeLastCollected[_tokenId])).div(1 days);\n        }\n        else {\n            return price[_tokenId].mul(now.sub(timeLastCollected[_tokenId])).div(365 days);\n        }\n    }\n\n    function rentOwedWithTimestamp(uint256 _tokenId) public view returns (uint256 augurFundsDue, uint256 timestamp) \n    {\n        return (rentOwed(_tokenId), now);\n    }\n    function foreclosed(uint256 _tokenId) public view returns (bool) \n    {\n        // returns whether it is in foreclosed state or not\n        // depending on whether deposit covers patronage due\n        // useful helper function when price should be zero, but contract doesn't reflect it yet.\n        uint256 _rentOwed = rentOwed(_tokenId);\n        if(_rentOwed >= deposits[_tokenId][msg.sender]) {\n            return true;\n        } else {\n            return false;\n        }\n    }\n\n    // this is only used to calculate foreclosure time\n    function liveDepositAbleToWithdraw(uint256 _tokenId) public view returns (uint256) \n    {\n        uint256 _rentOwed = rentOwed(_tokenId);\n        address _currentOwner = team.ownerOf(_tokenId);\n        if(_rentOwed >= deposits[_tokenId][_currentOwner]) {\n            return 0;\n        } else {\n            return deposits[_tokenId][_currentOwner].sub(_rentOwed);\n        }\n    }\n\n    //this is my version of the above function. It shows how much each user can withdraw- whether or not they are the current owner. \n    function userDepositAbleToWithdraw(uint256 _tokenId) public view returns (uint256) \n    {\n        uint256 _rentOwed = rentOwed(_tokenId);\n        address _currentOwner = team.ownerOf(_tokenId);\n\n        if(_currentOwner == msg.sender)\n        {\n            if(_rentOwed >= deposits[_tokenId][msg.sender]) \n        {\n            return 0;\n        } else {\n            return deposits[_tokenId][msg.sender].sub(_rentOwed);\n        }\n        } else {\n            return deposits[_tokenId][msg.sender];\n        }\n    }\n\n    function rentalExpiryTime(uint256 _tokenId) public view returns (uint256) \n    {\n        uint256 pps = price[_tokenId].div(365 days);\n        if (pps == 0)\n        {\n            return now; //if price is so low that pps = 0 just return current time as a fallback\n        }\n        else\n        {\n            return now + liveDepositAbleToWithdraw(_tokenId).div(pps);\n        }\n    }\n\n    ////////////// AUGUR FUNCTIONS //////////////\n    function getTestDai() public \n    {\n        if (usingAugur == true) {\n            //instead of the user getting testDai to his account, it is generated here and and allocated to the user\n            cash.faucet(100000000000000000000);\n            testDaiBalances[msg.sender]= testDaiBalances[msg.sender] + 100000000000000000000;\n        }\n        else {\n            testDaiBalances[msg.sender]= testDaiBalances[msg.sender] + 100;\n        }\n    }\n\n    // * internal * \n    function buyCompleteSets(uint256 _rentOwed) internal \n    {\n        if (usingAugur == true)\n        {\n            uint256 _setsToBuy =_rentOwed.div(100);\n            completeSets.publicBuyCompleteSets(market, _setsToBuy);\n        } \n    }\n\n    // * internal *\n    function sellCompleteSets(uint256 _sets) internal \n    {\n        assert (marketResolved);\n        if (usingAugur == true)\n        {\n            uint256 _setsToSell =_sets.div(100);\n            completeSets.publicSellCompleteSets(market, _setsToSell);\n        } \n    }\n\n    // * internal * \n    function getWinnerFromAugur(uint256 _outcomeToTest) internal view returns(bool) \n    {   \n        if (usingAugur) {\n            if (market.getWinningPayoutNumerator(_outcomeToTest) > 0) {\n            return true;\n            } else {\n                return false;\n            }\n        }\n        //hard code a winner for testing\n        else {\n            if (_outcomeToTest == 1) {\n            return true;\n            } else {\n                return false;\n            }\n        }\n    }\n\n    // * internal * \n    function sendCash(address _to, uint256 _amount, uint256 _reason) internal {  \n        if (usingAugur) {\n            cash.transfer(_to,_amount);\n        } else {\n            // using different variables if the cash is sent for different reasons. Allows for more granular testing. \n            if (_reason == 0) { //0 = returned unused deposits at market resolution, or calling withdraw deposit, or calling exit\n                depositReturnedToUser[_to] = depositReturnedToUser[_to].add(_amount);\n            } else { //1 = winnings paid out or invalid outcome\n                winningsSentToUser[_to] = winningsSentToUser[_to].add(_amount);\n            }\n            \n        }\n    }\n\n    function getCashBalance(address _addressToCheck) internal view returns (uint256) {\n        if (usingAugur) {\n            return cash.balanceOf(_addressToCheck);\n        } else {\n            return totalCollected;\n        }\n    }\n\n    ////////////// MARKET RESOLUTION FUNCTIONS ////////////// \n\n    //this can be called by anyone, at any time. getWinningPayoutNumerator will always return with false unless the market is resolved. \n    // of extreme importance here is that the teams that each integer refers to within augur is the same as within my contract. Ie if ID 1 refers to Manchester United within my contract, but ID 1 is equal to Liverpool within the Augur market, the wrong winner will be selected. This can either be dealt with manually or programmatically, either way it needs to happen within the setup() of the ERC721s\n    // it is also imperative that numberOfTokens is set correctly. If getWinningPayoutNumerator is called with a token ID that does not exist, it will revert. \n    function getWinner() notResolved() public \n    {\n        // final rent collection before it is locked down\n        for (uint i=1; i < numberOfTokens; i++) {\n            _collectRent(i);\n        }\n\n        for (uint i=0; i < numberOfTokens; i++) { //start from 0 to test if invalid was the actual outcome\n            bool _isWinner = getWinnerFromAugur(i);\n            if (_isWinner) {\n                winningOutcome = i;\n                marketResolved = true;\n                //check if market resolved invalid\n                if (winningOutcome == 0) {\n                    invalidMarketFinaliseAndPayout();\n                }\n                else {\n                    finaliseAndPayout();\n                }\n            }\n        }\n    }\n\n    //if the above function fails for whatever reason. It can ONLY be called by me, and well after the market should have resolved on Augur, otherwise I could influence the outcome\n    function setWinnerMe(uint256 _winner) notResolved() public \n    {\n        // only I can call this- MAKE SURE IT IS UNCOMMENTED IN PRODUCTION!\n        require (msg.sender == andrewsAddress, \"Imposter detected\"); \n        // can only be called if a month has passed and the Augur market still not resolved\n        require (now > (marketExpectedResolutionTime + 2592000), \"Wait for decentralised resolution first\"); //1 month\n        winningOutcome = _winner;\n        //final rent collection before it is locked down\n        for (uint i=1; i < numberOfTokens; i++) {\n             _collectRent(i);\n        }\n        marketResolved = true;\n        //check if market resolved invalid\n        if (winningOutcome == 0) {\n            invalidMarketFinaliseAndPayout();\n        }\n        else {\n            finaliseAndPayout();\n        }\n    }\n\n    //if getWinner fails but I've been run over by a bus so don't trigger setWinnerMe. Sets the winner as invalid, which returns all funds to all users\n    //must give me 1 week to call the above before this can be called by anyone\n    function setWinnerPublic() notResolved() public \n    {\n        // can only be called if 5 weeks have passed and the Augur market still not resolved\n        require (now > (marketExpectedResolutionTime + 3196800), \"Give Andrew 1 week first\"); //5 weeks\n        //final rent collection before it is locked down\n        for (uint i=1; i < numberOfTokens; i++) {\n            _collectRent(i);\n        }\n        marketResolved = true;\n        invalidMarketFinaliseAndPayout(); //returns all rent to all users\n    }\n\n    // * internal * \n    function finaliseAndPayout() internal\n    {\n        require (marketResolved == true, \"Winner not known\");\n        require (doneAndDusted == false, \"Already paid out\");\n        //return unused deposits\n        returnDeposits();\n        // get the dai back from Augur\n        sellCompleteSets(totalCollected);\n        // the Dai returned to distribute will not be known in advance due to fees, so I cannot hard code the figure to payout to winners. So I will just get the dai balance of the contract. \n        uint256 _daiAvailableToDistribute = getCashBalance(address(this));\n        \n        //do the payout\n        for (uint i=0; i < numberOfOwners[winningOutcome]; i++)\n        {   \n            address _winnersAddress = ownerTracker[winningOutcome][i];\n            uint _winnersTimeHeld = timeHeld[winningOutcome][_winnersAddress];\n            uint256 _numerator = _daiAvailableToDistribute.mul(_winnersTimeHeld);\n            uint256 _winningsToTransfer = _numerator.div(totalTimeHeld[winningOutcome]);\n            sendCash(_winnersAddress,_winningsToTransfer, 1);\n        }\n        doneAndDusted = true;\n        emit LogFinalised(winningOutcome,_daiAvailableToDistribute);\n    }\n\n    // This will ONLY be called if the market returns invalid (or if setWinnerPublic is triggered), in which case everyone's funds will be returned\n    // * internal * \n    function invalidMarketFinaliseAndPayout() internal\n    {\n        require (marketResolved == true, \"Winner not known\");\n        require (doneAndDusted == false, \"Already paid out\");\n        //return unused deposits\n        returnDeposits();\n        // get the dai back from Augur\n        sellCompleteSets(totalCollected);\n        // the Dai returned to distribute will not be known in advance due to fees, so I cannot hard code the figure to payout to winners. So I will just get the dai balance of the contract. \n        uint256 _daiAvailableToDistribute = getCashBalance(address(this));\n\n        for (uint i=1; i < numberOfTokens; i++) //not counting from zero, 0 = invalid\n        {  \n            for (uint j=0; j < numberOfOwners[i]; j++)\n            {  \n                address _usersAddress = ownerTracker[i][j];\n                uint256 _numerator = _daiAvailableToDistribute.mul(rentPaid[_usersAddress]);\n                uint256 _fundsToReturn = _numerator.div(totalCollected);\n                rentPaid[_usersAddress] = 0; //same address could be across multiple tokens, don't want to pay the user more than once\n                if (_fundsToReturn > 0) {\n                    sendCash(_usersAddress,_fundsToReturn,1);\n                }\n            }\n        }\n        doneAndDusted = true;\n        emit LogFinalised(winningOutcome,_daiAvailableToDistribute);\n    }\n\n        //return all unused deposits upon resolution\n    // * internal * \n    function returnDeposits() internal\n    {\n        for (uint i=1; i < numberOfTokens; i++) //not counting from zero, 0 = invalid\n        {  \n            for (uint j=0; j < numberOfOwners[i]; j++)\n            {  \n                address _thisUsersAddress = ownerTracker[i][j];\n                uint256 _depositToReturn = deposits[i][_thisUsersAddress];\n                deposits[i][_thisUsersAddress] = 0;\n\n                if (_depositToReturn > 0) {\n                    sendCash(_thisUsersAddress,_depositToReturn, 0);\n                }\n            }\n        }\n    }\n\n    ////////////// ORDINARY COURSE OF BUSINESS FUNCTIONS //////////////\n\n    function _collectRent(uint256 _tokenId) notResolved() public {\n        // determine rent to pay\n        if (state[_tokenId] == ownedState.Owned) {\n            \n            uint256 _rentOwed = rentOwed(_tokenId);\n            address _currentOwner = team.ownerOf(_tokenId);\n            uint256 _timeOfThisCollection;\n            \n            if (_rentOwed >= deposits[_tokenId][_currentOwner]) {\n                // run out of deposit. Calculate time it was actually paid for, then revert to previous owner \n                _timeOfThisCollection = timeLastCollected[_tokenId].add(((now.sub(timeLastCollected[_tokenId])).mul(deposits[_tokenId][_currentOwner]).div(_rentOwed)));\n                _rentOwed = deposits[_tokenId][_currentOwner]; // take what's left     \n                _revertToPreviousOwner(_tokenId);\n                \n            } else  {\n                //normal collection\n                _timeOfThisCollection = now;\n            }\n\n            //update the ownerTracker and numberOfOwners variables. only for new owners.\n            if (everOwned[_tokenId][_currentOwner] == false) {\n                everOwned[_tokenId][_currentOwner] = true;\n                ownerTracker[_tokenId][numberOfOwners[_tokenId]] = _currentOwner;\n                numberOfOwners[_tokenId] = numberOfOwners[_tokenId] + 1;\n            }\n\n            //update the rentPaid mapping. Only used for invalid outcome, so everyone can be paid back\n            rentPaid[_currentOwner] = rentPaid[_currentOwner].add(_rentOwed);\n\n            //the 'important bit', where the duration the token has been held by each user is updated\n            uint256 _timeHeldToIncrement = (_timeOfThisCollection.sub(timeLastCollected[_tokenId])); //just for readability\n            timeHeld[_tokenId][_currentOwner] = timeHeld[_tokenId][_currentOwner].add(_timeHeldToIncrement);\n\n            //totalTimeHeld should not increment when forelosed (or it would pay me a reward as I am the default owner), but this is taken care of because this entire function only runs if not foreclosed\n            totalTimeHeld[_tokenId] = totalTimeHeld[_tokenId].add(_timeHeldToIncrement);\n\n            timeLastCollected[_tokenId] = now;\n            deposits[_tokenId][_currentOwner] = deposits[_tokenId][_currentOwner].sub(_rentOwed);\n            collectedAndSentToAugur[_tokenId] = collectedAndSentToAugur[_tokenId].add(_rentOwed);\n            totalCollected = totalCollected.add(_rentOwed);\n\n            buyCompleteSets(_rentOwed);\n            \n            emit LogRentCollection(_rentOwed);\n        }\n    }\n    \n    function buy(uint256 _newPrice, uint256 _tokenId, uint256 _deposit) public collectRent(_tokenId) notResolved() {\n        require(_tokenId != 0, \"Cannot bet on invalid outcome\");\n        require(_tokenId < numberOfTokens, \"This team does not exist\");\n        require(_newPrice > price[_tokenId], \"Price must be higher than current price\");\n        require(_deposit > 0, \"Must deposit something\");\n        require(testDaiBalances[msg.sender] >= _deposit, \"Not enough DAI\");\n        \n        testDaiBalances[msg.sender] = testDaiBalances[msg.sender].sub(_deposit);\n        deposits[_tokenId][msg.sender] = deposits[_tokenId][msg.sender].add(_deposit);\n        \n        address _currentOwner = team.ownerOf(_tokenId);\n\n        //bought by current owner (ie, it just increases the price, token ownership does not change)\n        if(_currentOwner == msg.sender)\n        {\n            previousOwnerTracker[_tokenId][currentOwnerIndex[_tokenId]].price = _newPrice;\n        }\n        //bought by different user (the normal situation)\n        else\n        {\n            currentOwnerIndex[_tokenId] = currentOwnerIndex[_tokenId] + 1; \n            // currentOwnerIndex[_tokenId] = currentOwnerIndex[_tokenId].add(1);\n            //^^ the above line causes VM errors, I need to figure out why\n            previousOwnerTracker[_tokenId][currentOwnerIndex[_tokenId]].price = _newPrice;\n            previousOwnerTracker[_tokenId][currentOwnerIndex[_tokenId]].owner = msg.sender; \n        }\n\n        if(state[_tokenId] == ownedState.Foreclosed) \n        {\n            state[_tokenId] = ownedState.Owned;\n            timeLastCollected[_tokenId] = now;\n        }\n        \n        //does the below even if owner hasn't changed. this is ok. \n        timeAcquired[_tokenId] = now;\n        _transferTokenTo(_currentOwner, msg.sender, _newPrice, _tokenId); \n        emit LogBuy(msg.sender, _newPrice);\n    }\n\n    function depositDai(uint256 _dai, uint256 _tokenId) public collectRent(_tokenId) notResolved() {\n        require(state[_tokenId] != ownedState.Foreclosed, \"Foreclosed\");\n        testDaiBalances[msg.sender] = testDaiBalances[msg.sender].sub(_dai);\n        deposits[_tokenId][msg.sender] = deposits[_tokenId][msg.sender].add(_dai);\n    }\n\n    function changePrice(uint256 _newPrice, uint256 _tokenId) public onlyOwner(_tokenId) collectRent(_tokenId) notResolved() {\n        require(state[_tokenId] != ownedState.Foreclosed, \"Foreclosed\");\n        require(_newPrice > price[_tokenId], \"New price must be higher than current price\"); //This is to prevent griefing- buying it then immediately dropping the price really low. The original project did not suffer from this problem because when you bought it, you had to pay the purchase price to the previous user, not so in mine. \n        \n        price[_tokenId] = _newPrice;\n        previousOwnerTracker[_tokenId][currentOwnerIndex[_tokenId]].price = _newPrice;\n        emit LogPriceChange(price[_tokenId]);\n    }\n    \n    function withdrawDeposit(uint256 _dai, uint256 _tokenId) public onlyOwner(_tokenId) collectRent(_tokenId) notResolved() returns (uint256) {\n        _withdrawDeposit(_dai, _tokenId);\n    }\n\n    function exit(uint256 _tokenId) public onlyOwner(_tokenId) collectRent(_tokenId) notResolved() {\n        _withdrawDeposit(deposits[_tokenId][msg.sender],  _tokenId);\n    }\n\n    /* internal */\n    function _withdrawDeposit(uint256 _dai, uint256 _tokenId) internal {\n        require(deposits[_tokenId][msg.sender] >= _dai, 'Withdrawing too much');\n\n        deposits[_tokenId][msg.sender] = deposits[_tokenId][msg.sender].sub(_dai);\n        testDaiBalances[msg.sender] = testDaiBalances[msg.sender].add(_dai);\n        //return the dai\n        sendCash(msg.sender, _dai, 0);\n\n        if(deposits[_tokenId][msg.sender] == 0) {\n            _revertToPreviousOwner(_tokenId);\n        }\n    }\n\n    /* internal */\n    function _revertToPreviousOwner(uint256 _tokenId) internal {\n        bool _reverted = false;\n        while (_reverted == false)\n        {\n            assert(currentOwnerIndex[_tokenId] >=0);\n            //change below to use safemath\n            currentOwnerIndex[_tokenId] = currentOwnerIndex[_tokenId] - 1; // ownerTraker will now point to  previous owner\n            uint256 _index = currentOwnerIndex[_tokenId]; //just for readability\n            address _previousOwner = previousOwnerTracker[_tokenId][_index].owner;\n\n            if (_index == 0) \n            //no previous owners. price -> zero, foreclose\n            {\n                _foreclose(_tokenId);\n                _reverted = true;\n            }\n            else if (deposits[_tokenId][_previousOwner] > 0)\n            // previous owner still has a deposit, transfer to them, update the price to what it used to be\n            {\n                address _currentOwner = team.ownerOf(_tokenId);\n                uint256 _oldPrice = previousOwnerTracker[_tokenId][_index].price;\n                _transferTokenTo(_currentOwner, _previousOwner, _oldPrice, _tokenId);\n                _reverted = true;\n                emit LogReturnToPreviousOwner(_tokenId,_previousOwner);\n            }\n        }       \n    }\n\n    /* internal */\n    function _foreclose(uint256 _tokenId) internal {\n        // I become steward of token (aka foreclose)\n        address _currentOwner = team.ownerOf(_tokenId);\n        //third field is price, ie price goes to zero\n        _transferTokenTo(_currentOwner, andrewsAddress, 0, _tokenId);\n        state[_tokenId] = ownedState.Foreclosed;\n        emit LogForeclosure(_currentOwner);\n    }\n\n    /* internal */\n    function _transferTokenTo(address _currentOwner, address _newOwner, uint256 _newPrice, uint256 _tokenId) internal {\n        team.transferFrom(_currentOwner, _newOwner, _tokenId);\n        price[_tokenId] = _newPrice;\n    }\n}\n\n// require (1 ==2, \"STFU\");\n\n",
  "sourcePath": "/Users/mcplums/Repos/Harber/contracts/Harber.sol",
  "compiler": {
    "name": "solc",
    "version": "0.5.12+commit.7709ece9.Emscripten.clang"
  },
  "schemaVersion": "3.0.19",
  "updatedAt": "2020-01-07T07:58:35.705Z",
  "networkType": "ethereum",
  "devdoc": {
    "methods": {}
  },
  "userdoc": {
    "methods": {
      "_collectRent(uint256)": {
        "notice": "/////////// ORDINARY COURSE OF BUSINESS FUNCTIONS //////////////"
      },
      "constructor": "/////////// CONSTRUCTOR //////////////",
      "getTestDai()": {
        "notice": "/////////// AUGUR FUNCTIONS //////////////"
      },
      "getTestDaiBalance()": {
        "notice": "/////////// VIEW FUNCTIONS //////////////"
      },
      "getWinner()": {
        "notice": "/////////// MARKET RESOLUTION FUNCTIONS ////////////// "
      }
    }
  }
}