{
  "contractName": "Harber",
  "abi": [
    {
      "constant": true,
      "inputs": [
        {
          "name": "",
          "type": "address"
        }
      ],
      "name": "patrons",
      "outputs": [
        {
          "name": "",
          "type": "bool"
        }
      ],
      "payable": false,
      "stateMutability": "view",
      "type": "function"
    },
    {
      "constant": true,
      "inputs": [],
      "name": "art",
      "outputs": [
        {
          "name": "",
          "type": "address"
        }
      ],
      "payable": false,
      "stateMutability": "view",
      "type": "function"
    },
    {
      "constant": true,
      "inputs": [],
      "name": "artist",
      "outputs": [
        {
          "name": "",
          "type": "address"
        }
      ],
      "payable": false,
      "stateMutability": "view",
      "type": "function"
    },
    {
      "constant": true,
      "inputs": [],
      "name": "artistFund",
      "outputs": [
        {
          "name": "",
          "type": "uint256"
        }
      ],
      "payable": false,
      "stateMutability": "view",
      "type": "function"
    },
    {
      "constant": true,
      "inputs": [],
      "name": "timeAcquired",
      "outputs": [
        {
          "name": "",
          "type": "uint256"
        }
      ],
      "payable": false,
      "stateMutability": "view",
      "type": "function"
    },
    {
      "constant": true,
      "inputs": [
        {
          "name": "",
          "type": "address"
        }
      ],
      "name": "timeHeld",
      "outputs": [
        {
          "name": "",
          "type": "uint256"
        }
      ],
      "payable": false,
      "stateMutability": "view",
      "type": "function"
    },
    {
      "constant": true,
      "inputs": [],
      "name": "price",
      "outputs": [
        {
          "name": "",
          "type": "uint256"
        }
      ],
      "payable": false,
      "stateMutability": "view",
      "type": "function"
    },
    {
      "constant": true,
      "inputs": [
        {
          "name": "",
          "type": "address"
        }
      ],
      "name": "paid",
      "outputs": [
        {
          "name": "",
          "type": "uint256"
        }
      ],
      "payable": false,
      "stateMutability": "view",
      "type": "function"
    },
    {
      "constant": true,
      "inputs": [],
      "name": "currentCollected",
      "outputs": [
        {
          "name": "",
          "type": "uint256"
        }
      ],
      "payable": false,
      "stateMutability": "view",
      "type": "function"
    },
    {
      "constant": true,
      "inputs": [],
      "name": "state",
      "outputs": [
        {
          "name": "",
          "type": "uint8"
        }
      ],
      "payable": false,
      "stateMutability": "view",
      "type": "function"
    },
    {
      "constant": true,
      "inputs": [],
      "name": "deposit",
      "outputs": [
        {
          "name": "",
          "type": "uint256"
        }
      ],
      "payable": false,
      "stateMutability": "view",
      "type": "function"
    },
    {
      "constant": true,
      "inputs": [],
      "name": "totalCollected",
      "outputs": [
        {
          "name": "",
          "type": "uint256"
        }
      ],
      "payable": false,
      "stateMutability": "view",
      "type": "function"
    },
    {
      "constant": true,
      "inputs": [],
      "name": "timeLastCollected",
      "outputs": [
        {
          "name": "",
          "type": "uint256"
        }
      ],
      "payable": false,
      "stateMutability": "view",
      "type": "function"
    },
    {
      "inputs": [
        {
          "name": "_artist",
          "type": "address"
        },
        {
          "name": "_artwork",
          "type": "address"
        }
      ],
      "payable": false,
      "stateMutability": "nonpayable",
      "type": "constructor"
    },
    {
      "anonymous": false,
      "inputs": [
        {
          "indexed": true,
          "name": "owner",
          "type": "address"
        },
        {
          "indexed": true,
          "name": "price",
          "type": "uint256"
        }
      ],
      "name": "LogBuy",
      "type": "event"
    },
    {
      "anonymous": false,
      "inputs": [
        {
          "indexed": true,
          "name": "newPrice",
          "type": "uint256"
        }
      ],
      "name": "LogPriceChange",
      "type": "event"
    },
    {
      "anonymous": false,
      "inputs": [
        {
          "indexed": true,
          "name": "prevOwner",
          "type": "address"
        }
      ],
      "name": "LogForeclosure",
      "type": "event"
    },
    {
      "anonymous": false,
      "inputs": [
        {
          "indexed": true,
          "name": "collected",
          "type": "uint256"
        }
      ],
      "name": "LogCollection",
      "type": "event"
    },
    {
      "constant": true,
      "inputs": [],
      "name": "patronageOwed",
      "outputs": [
        {
          "name": "patronageDue",
          "type": "uint256"
        }
      ],
      "payable": false,
      "stateMutability": "view",
      "type": "function"
    },
    {
      "constant": true,
      "inputs": [],
      "name": "patronageOwedWithTimestamp",
      "outputs": [
        {
          "name": "patronageDue",
          "type": "uint256"
        },
        {
          "name": "timestamp",
          "type": "uint256"
        }
      ],
      "payable": false,
      "stateMutability": "view",
      "type": "function"
    },
    {
      "constant": true,
      "inputs": [],
      "name": "foreclosed",
      "outputs": [
        {
          "name": "",
          "type": "bool"
        }
      ],
      "payable": false,
      "stateMutability": "view",
      "type": "function"
    },
    {
      "constant": true,
      "inputs": [],
      "name": "depositAbleToWithdraw",
      "outputs": [
        {
          "name": "",
          "type": "uint256"
        }
      ],
      "payable": false,
      "stateMutability": "view",
      "type": "function"
    },
    {
      "constant": true,
      "inputs": [],
      "name": "foreclosureTime",
      "outputs": [
        {
          "name": "",
          "type": "uint256"
        }
      ],
      "payable": false,
      "stateMutability": "view",
      "type": "function"
    },
    {
      "constant": false,
      "inputs": [],
      "name": "_collectPatronage",
      "outputs": [],
      "payable": false,
      "stateMutability": "nonpayable",
      "type": "function"
    },
    {
      "constant": false,
      "inputs": [],
      "name": "depositWei",
      "outputs": [],
      "payable": true,
      "stateMutability": "payable",
      "type": "function"
    },
    {
      "constant": false,
      "inputs": [
        {
          "name": "_newPrice",
          "type": "uint256"
        }
      ],
      "name": "buy",
      "outputs": [],
      "payable": true,
      "stateMutability": "payable",
      "type": "function"
    },
    {
      "constant": false,
      "inputs": [
        {
          "name": "_newPrice",
          "type": "uint256"
        }
      ],
      "name": "changePrice",
      "outputs": [],
      "payable": false,
      "stateMutability": "nonpayable",
      "type": "function"
    },
    {
      "constant": false,
      "inputs": [
        {
          "name": "_wei",
          "type": "uint256"
        }
      ],
      "name": "withdrawDeposit",
      "outputs": [
        {
          "name": "",
          "type": "uint256"
        }
      ],
      "payable": false,
      "stateMutability": "nonpayable",
      "type": "function"
    },
    {
      "constant": false,
      "inputs": [],
      "name": "withdrawArtistFunds",
      "outputs": [],
      "payable": false,
      "stateMutability": "nonpayable",
      "type": "function"
    },
    {
      "constant": false,
      "inputs": [],
      "name": "exit",
      "outputs": [],
      "payable": false,
      "stateMutability": "nonpayable",
      "type": "function"
    }
  ],
  "bytecode": "0x6080604052640ba43b7400600c5564e8d4a51000600d5534801561002257600080fd5b50604051604080611b218339810180604052604081101561004257600080fd5b81019080805190602001909291908051906020019092919050505080600160006101000a81548173ffffffffffffffffffffffffffffffffffffffff021916908373ffffffffffffffffffffffffffffffffffffffff160217905550600160009054906101000a900473ffffffffffffffffffffffffffffffffffffffff1673ffffffffffffffffffffffffffffffffffffffff1663ba0bba406040518163ffffffff1660e01b8152600401600060405180830381600087803b15801561010857600080fd5b505af115801561011c573d6000803e3d6000fd5b5050505081600660006101000a81548173ffffffffffffffffffffffffffffffffffffffff021916908373ffffffffffffffffffffffffffffffffffffffff1602179055506000600e60006101000a81548160ff0219169083600181111561018057fe5b0217905550505061198b806101966000396000f3fe6080604052600436106101665760003560e01c8063929417db116100d1578063a97d70b11161008a578063d96a094a11610064578063d96a094a14610600578063e29eb8361461062e578063e9fad8ee14610659578063f07af5f71461067057610166565b8063a97d70b114610571578063c19d93fb1461059c578063d0e30db0146105d557610166565b8063929417db146103eb5780639443c2e3146104165780639fc7a65b14610441578063a035b1fe146104a6578063a2b40d19146104d1578063a340cf791461050c57610166565b80633989e231116101235780633989e231146102ca57806343bc1612146102e15780634bd8aeac1461033857806355c3bf1014610363578063879d5aad1461038e5780638bb66d8a146103b957610166565b80630ee591ba1461016b57806315488b88146101825780632ef463201461018c578063301bd28e146101f5578063325678031461024c57806333289a461461027b575b600080fd5b34801561017757600080fd5b5061018061069b565b005b61018a6107d3565b005b34801561019857600080fd5b506101db600480360360208110156101af57600080fd5b81019080803573ffffffffffffffffffffffffffffffffffffffff169060200190929190505050610894565b604051808215151515815260200191505060405180910390f35b34801561020157600080fd5b5061020a6108b4565b604051808273ffffffffffffffffffffffffffffffffffffffff1673ffffffffffffffffffffffffffffffffffffffff16815260200191505060405180910390f35b34801561025857600080fd5b506102616108da565b604051808215151515815260200191505060405180910390f35b34801561028757600080fd5b506102b46004803603602081101561029e57600080fd5b8101908080359060200190929190505050610903565b6040518082815260200191505060405180910390f35b3480156102d657600080fd5b506102df610a6a565b005b3480156102ed57600080fd5b506102f6610bb8565b604051808273ffffffffffffffffffffffffffffffffffffffff1673ffffffffffffffffffffffffffffffffffffffff16815260200191505060405180910390f35b34801561034457600080fd5b5061034d610bde565b6040518082815260200191505060405180910390f35b34801561036f57600080fd5b50610378610be4565b6040518082815260200191505060405180910390f35b34801561039a57600080fd5b506103a3610bea565b6040518082815260200191505060405180910390f35b3480156103c557600080fd5b506103ce610c52565b604051808381526020018281526020019250505060405180910390f35b3480156103f757600080fd5b50610400610c66565b6040518082815260200191505060405180910390f35b34801561042257600080fd5b5061042b610cd4565b6040518082815260200191505060405180910390f35b34801561044d57600080fd5b506104906004803603602081101561046457600080fd5b81019080803573ffffffffffffffffffffffffffffffffffffffff169060200190929190505050610d10565b6040518082815260200191505060405180910390f35b3480156104b257600080fd5b506104bb610d28565b6040518082815260200191505060405180910390f35b3480156104dd57600080fd5b5061050a600480360360208110156104f457600080fd5b8101908080359060200190929190505050610d2e565b005b34801561051857600080fd5b5061055b6004803603602081101561052f57600080fd5b81019080803573ffffffffffffffffffffffffffffffffffffffff169060200190929190505050610fd1565b6040518082815260200191505060405180910390f35b34801561057d57600080fd5b50610586610fe9565b6040518082815260200191505060405180910390f35b3480156105a857600080fd5b506105b1610fef565b604051808260018111156105c157fe5b60ff16815260200191505060405180910390f35b3480156105e157600080fd5b506105ea611002565b6040518082815260200191505060405180910390f35b61062c6004803603602081101561061657600080fd5b8101908080359060200190929190505050611008565b005b34801561063a57600080fd5b50610643611322565b6040518082815260200191505060405180910390f35b34801561066557600080fd5b5061066e611328565b005b34801561067c57600080fd5b5061068561148c565b6040518082815260200191505060405180910390f35b600660009054906101000a900473ffffffffffffffffffffffffffffffffffffffff1673ffffffffffffffffffffffffffffffffffffffff163373ffffffffffffffffffffffffffffffffffffffff161461075e576040517f08c379a000000000000000000000000000000000000000000000000000000000815260040180806020018281038252600a8152602001807f4e6f74206172746973740000000000000000000000000000000000000000000081525060200191505060405180910390fd5b600660009054906101000a900473ffffffffffffffffffffffffffffffffffffffff1673ffffffffffffffffffffffffffffffffffffffff166108fc6007549081150290604051600060405180830381858888f193505050501580156107c8573d6000803e3d6000fd5b506000600781905550565b6107db610a6a565b600060018111156107e857fe5b600e60009054906101000a900460ff16600181111561080357fe5b1415610877576040517f08c379a000000000000000000000000000000000000000000000000000000000815260040180806020018281038252600a8152602001807f466f7265636c6f7365640000000000000000000000000000000000000000000081525060200191505060405180910390fd5b61088c3460055461149290919063ffffffff16565b600581905550565b60086020528060005260406000206000915054906101000a900460ff1681565b600160009054906101000a900473ffffffffffffffffffffffffffffffffffffffff1681565b6000806108e5610c66565b905060055481106108fa576001915050610900565b60009150505b90565b6000600160009054906101000a900473ffffffffffffffffffffffffffffffffffffffff1673ffffffffffffffffffffffffffffffffffffffff16636352211e602a6040518263ffffffff1660e01b81526004018082815260200191505060206040518083038186803b15801561097957600080fd5b505afa15801561098d573d6000803e3d6000fd5b505050506040513d60208110156109a357600080fd5b810190808051906020019092919050505073ffffffffffffffffffffffffffffffffffffffff163373ffffffffffffffffffffffffffffffffffffffff1614610a54576040517f08c379a000000000000000000000000000000000000000000000000000000000815260040180806020018281038252600a8152602001807f4e6f7420706174726f6e0000000000000000000000000000000000000000000081525060200191505060405180910390fd5b610a5c610a6a565b610a65826114b1565b919050565b600180811115610a7657fe5b600e60009054906101000a900460ff166001811115610a9157fe5b1415610bb6576000610aa1610c66565b90506005548110610b1357610afb610aea82610adc600554610ace600454426115a290919063ffffffff16565b6115c290919063ffffffff16565b6115fc90919063ffffffff16565b60045461149290919063ffffffff16565b6004819055506005549050610b0e611622565b610b36565b42600481905550610b2f8160035461149290919063ffffffff16565b6003819055505b610b4b816005546115a290919063ffffffff16565b600581905550610b668160025461149290919063ffffffff16565b600281905550610b818160075461149290919063ffffffff16565b600781905550807f54acb82a9e70d7c289b149758d23167c915428ae854a7aa4abe5bf2f4ef29f3660405160405180910390a2505b565b600660009054906101000a900473ffffffffffffffffffffffffffffffffffffffff1681565b60075481565b600b5481565b600080610c2e6301e13380610c20600d54610c12600c546000546115c290919063ffffffff16565b6115fc90919063ffffffff16565b6115fc90919063ffffffff16565b9050610c4a81610c3c610cd4565b6115fc90919063ffffffff16565b420191505090565b600080610c5d610c66565b42915091509091565b6000610ccf6301e13380610cc1600d54610cb3600c54610ca5610c94600454426115a290919063ffffffff16565b6000546115c290919063ffffffff16565b6115c290919063ffffffff16565b6115fc90919063ffffffff16565b6115fc90919063ffffffff16565b905090565b600080610cdf610c66565b90506005548110610cf4576000915050610d0d565b610d09816005546115a290919063ffffffff16565b9150505b90565b60096020528060005260406000206000915090505481565b60005481565b600160009054906101000a900473ffffffffffffffffffffffffffffffffffffffff1673ffffffffffffffffffffffffffffffffffffffff16636352211e602a6040518263ffffffff1660e01b81526004018082815260200191505060206040518083038186803b158015610da257600080fd5b505afa158015610db6573d6000803e3d6000fd5b505050506040513d6020811015610dcc57600080fd5b810190808051906020019092919050505073ffffffffffffffffffffffffffffffffffffffff163373ffffffffffffffffffffffffffffffffffffffff1614610e7d576040517f08c379a000000000000000000000000000000000000000000000000000000000815260040180806020018281038252600a8152602001807f4e6f7420706174726f6e0000000000000000000000000000000000000000000081525060200191505060405180910390fd5b610e85610a6a565b60006001811115610e9257fe5b600e60009054906101000a900460ff166001811115610ead57fe5b1415610f21576040517f08c379a000000000000000000000000000000000000000000000000000000000815260040180806020018281038252600a8152602001807f466f7265636c6f7365640000000000000000000000000000000000000000000081525060200191505060405180910390fd5b6000811415610f98576040517f08c379a000000000000000000000000000000000000000000000000000000000815260040180806020018281038252600f8152602001807f496e636f7272656374205072696365000000000000000000000000000000000081525060200191505060405180910390fd5b806000819055506000547f854d6511a28585103049c7770618450f7c9aeb580c69db2913d63869663f475160405160405180910390a250565b600a6020528060005260406000206000915090505481565b60035481565b600e60009054906101000a900460ff1681565b60055481565b611010610a6a565b60008111611086576040517f08c379a000000000000000000000000000000000000000000000000000000000815260040180806020018281038252600d8152602001807f5072696365206973207a65726f0000000000000000000000000000000000000081525060200191505060405180910390fd5b60005434116110fd576040517f08c379a000000000000000000000000000000000000000000000000000000000815260040180806020018281038252600a8152602001807f4e6f7420656e6f7567680000000000000000000000000000000000000000000081525060200191505060405180910390fd5b6000600160009054906101000a900473ffffffffffffffffffffffffffffffffffffffff1673ffffffffffffffffffffffffffffffffffffffff16636352211e602a6040518263ffffffff1660e01b81526004018082815260200191505060206040518083038186803b15801561117357600080fd5b505afa158015611187573d6000803e3d6000fd5b505050506040513d602081101561119d57600080fd5b810190808051906020019092919050505090506001808111156111bc57fe5b600e60009054906101000a900460ff1660018111156111d757fe5b14156112595760008054905060006005541115611206576112036005548261149290919063ffffffff16565b90505b60008290508073ffffffffffffffffffffffffffffffffffffffff166108fc839081150290604051600060405180830381858888f19350505050158015611251573d6000803e3d6000fd5b5050506112b4565b6000600181111561126657fe5b600e60009054906101000a900460ff16600181111561128157fe5b14156112b3576001600e60006101000a81548160ff021916908360018111156112a657fe5b0217905550426004819055505b5b6112c9600054346115a290919063ffffffff16565b6005819055506112da813384611753565b813373ffffffffffffffffffffffffffffffffffffffff167f4f79409f494e81c38036d80aa8a6507c2cb08d90bfb2fead5519447646b3497e60405160405180910390a35050565b60025481565b600160009054906101000a900473ffffffffffffffffffffffffffffffffffffffff1673ffffffffffffffffffffffffffffffffffffffff16636352211e602a6040518263ffffffff1660e01b81526004018082815260200191505060206040518083038186803b15801561139c57600080fd5b505afa1580156113b0573d6000803e3d6000fd5b505050506040513d60208110156113c657600080fd5b810190808051906020019092919050505073ffffffffffffffffffffffffffffffffffffffff163373ffffffffffffffffffffffffffffffffffffffff1614611477576040517f08c379a000000000000000000000000000000000000000000000000000000000815260040180806020018281038252600a8152602001807f4e6f7420706174726f6e0000000000000000000000000000000000000000000081525060200191505060405180910390fd5b61147f610a6a565b61148a6005546114b1565b565b60045481565b6000808284019050838110156114a757600080fd5b8091505092915050565b806005541015611529576040517f08c379a00000000000000000000000000000000000000000000000000000000081526004018080602001828103825260148152602001807f5769746864726177696e6720746f6f206d75636800000000000000000000000081525060200191505060405180910390fd5b61153e816005546115a290919063ffffffff16565b6005819055503373ffffffffffffffffffffffffffffffffffffffff166108fc829081150290604051600060405180830381858888f1935050505015801561158a573d6000803e3d6000fd5b506000600554141561159f5761159e611622565b5b50565b6000828211156115b157600080fd5b600082840390508091505092915050565b6000808314156115d557600090506115f6565b60008284029050828482816115e657fe5b04146115f157600080fd5b809150505b92915050565b600080821161160a57600080fd5b600082848161161557fe5b0490508091505092915050565b6000600160009054906101000a900473ffffffffffffffffffffffffffffffffffffffff1673ffffffffffffffffffffffffffffffffffffffff16636352211e602a6040518263ffffffff1660e01b81526004018082815260200191505060206040518083038186803b15801561169857600080fd5b505afa1580156116ac573d6000803e3d6000fd5b505050506040513d60208110156116c257600080fd5b810190808051906020019092919050505090506116e181306000611753565b6000600e60006101000a81548160ff0219169083600181111561170057fe5b021790555060006003819055508073ffffffffffffffffffffffffffffffffffffffff167f6d6bbefef62d4cb6d0e3a4dd306a71d3632319b1e03659513df86b247dd657fe60405160405180910390a250565b6117bb61176d600b546004546115a290919063ffffffff16565b600960008673ffffffffffffffffffffffffffffffffffffffff1673ffffffffffffffffffffffffffffffffffffffff1681526020019081526020016000205461149290919063ffffffff16565b600960008573ffffffffffffffffffffffffffffffffffffffff1673ffffffffffffffffffffffffffffffffffffffff16815260200190815260200160002081905550600160009054906101000a900473ffffffffffffffffffffffffffffffffffffffff1673ffffffffffffffffffffffffffffffffffffffff166323b872dd8484602a6040518463ffffffff1660e01b8152600401808473ffffffffffffffffffffffffffffffffffffffff1673ffffffffffffffffffffffffffffffffffffffff1681526020018373ffffffffffffffffffffffffffffffffffffffff1673ffffffffffffffffffffffffffffffffffffffff1681526020018281526020019350505050600060405180830381600087803b1580156118dc57600080fd5b505af11580156118f0573d6000803e3d6000fd5b505050508060008190555042600b819055506001600860008473ffffffffffffffffffffffffffffffffffffffff1673ffffffffffffffffffffffffffffffffffffffff16815260200190815260200160002060006101000a81548160ff02191690831515021790555050505056fea165627a7a72305820cfcda7297e3e4fbabee3af55a800d78e650d007b5c759bc28fbcd4ec157307110029",
  "source": "pragma solidity ^0.5.0;\nimport \"./interfaces/IERC721Full.sol\";\nimport \"./utils/SafeMath.sol\";\n\ncontract Harber {\n    \n    /*\n    This smart contract collects patronage from current owner through a Harberger tax model and \n    takes stewardship of the artwork if the patron can't pay anymore.\n\n    Harberger Tax (COST): \n    - Artwork is always on sale.\n    - You have to have a price set.\n    - Tax (Patronage) is paid to maintain ownership.\n    - Steward maints control over ERC721.\n    */\n    using SafeMath for uint256;\n    \n    uint256 public price; //in wei\n    IERC721Full public art; // ERC721 NFT.\n    \n    uint256 public totalCollected; // all patronage ever collected\n    uint256 public currentCollected; // amount currently collected for patron  \n    uint256 public timeLastCollected; // \n    uint256 public deposit;\n    address payable public artist;\n    uint256 public artistFund;\n    \n    mapping (address => bool) public patrons;\n    mapping (address => uint256) public timeHeld;\n    mapping (address => uint256) public paid; // NOTE: not used [accident]\n\n    uint256 public timeAcquired;\n    \n    // 5% patronage\n    uint256 patronageNumerator = 50000000000;\n    uint256 patronageDenominator = 1000000000000;\n\n    enum StewardState { Foreclosed, Owned }\n    StewardState public state;\n\n    constructor(address payable _artist, address _artwork) public {\n        art = IERC721Full(_artwork);\n        art.setup();\n        artist = _artist;\n        state = StewardState.Foreclosed;\n    } \n\n    event LogBuy(address indexed owner, uint256 indexed price);\n    event LogPriceChange(uint256 indexed newPrice);\n    event LogForeclosure(address indexed prevOwner);\n    event LogCollection(uint256 indexed collected);\n    \n    modifier onlyPatron() {\n        require(msg.sender == art.ownerOf(42), \"Not patron\");\n        _;\n    }\n\n    modifier collectPatronage() {\n       _collectPatronage(); \n       _;\n    }\n\n    /* public view functions */\n    function patronageOwed() public view returns (uint256 patronageDue) {\n        return price.mul(now.sub(timeLastCollected)).mul(patronageNumerator)\n            .div(patronageDenominator).div(365 days);\n    }\n\n    function patronageOwedWithTimestamp() public view returns (uint256 patronageDue, uint256 timestamp) {\n        return (patronageOwed(), now);\n    }\n\n    function foreclosed() public view returns (bool) {\n        // returns whether it is in foreclosed state or not\n        // depending on whether deposit covers patronage due\n        // useful helper function when price should be zero, but contract doesn't reflect it yet.\n        uint256 collection = patronageOwed();\n        if(collection >= deposit) {\n            return true;\n        } else {\n            return false;\n        }\n    }\n\n    // same function as above, basically\n    function depositAbleToWithdraw() public view returns (uint256) {\n        uint256 collection = patronageOwed();\n        if(collection >= deposit) {\n            return 0;\n        } else {\n            return deposit.sub(collection);\n        }\n    }\n\n    /*\n    now + deposit/patronage per second \n    now + depositAbleToWithdraw/(price*nume/denom/365).\n    */\n    function foreclosureTime() public view returns (uint256) {\n        // patronage per second\n        uint256 pps = price.mul(patronageNumerator).div(patronageDenominator).div(365 days);\n        return now + depositAbleToWithdraw().div(pps); // zero division if price is zero.\n    }\n\n    /* actions */\n    function _collectPatronage() public {\n        // determine patronage to pay\n        if (state == StewardState.Owned) {\n            uint256 collection = patronageOwed();\n            \n            // should foreclose and stake stewardship\n            if (collection >= deposit) {\n                // up to when was it actually paid for?\n                timeLastCollected = timeLastCollected.add(((now.sub(timeLastCollected)).mul(deposit).div(collection)));\n                collection = deposit; // take what's left.\n\n                _foreclose();\n            } else  {\n                // just a normal collection\n                timeLastCollected = now;\n                currentCollected = currentCollected.add(collection);\n            }\n            \n            deposit = deposit.sub(collection);\n            totalCollected = totalCollected.add(collection);\n            artistFund = artistFund.add(collection);\n            emit LogCollection(collection);\n        }\n    }\n    \n    // note: anyone can deposit\n    function depositWei() public payable collectPatronage {\n        require(state != StewardState.Foreclosed, \"Foreclosed\");\n        deposit = deposit.add(msg.value);\n    }\n    \n    function buy(uint256 _newPrice) public payable collectPatronage {\n        require(_newPrice > 0, \"Price is zero\");\n        require(msg.value > price, \"Not enough\"); // >, coz need to have at least something for deposit\n        address currentOwner = art.ownerOf(42);\n\n        if (state == StewardState.Owned) {\n            uint256 totalToPayBack = price;\n            if(deposit > 0) {\n                totalToPayBack = totalToPayBack.add(deposit);\n            }  \n    \n            // pay previous owner their price + deposit back.\n            address payable payableCurrentOwner = address(uint160(currentOwner));\n            payableCurrentOwner.transfer(totalToPayBack);\n        } else if(state == StewardState.Foreclosed) {\n            state = StewardState.Owned;\n            timeLastCollected = now;\n        }\n        \n        deposit = msg.value.sub(price);\n        transferArtworkTo(currentOwner, msg.sender, _newPrice);\n        emit LogBuy(msg.sender, _newPrice);\n    }\n\n    function changePrice(uint256 _newPrice) public onlyPatron collectPatronage {\n        require(state != StewardState.Foreclosed, \"Foreclosed\");\n        require(_newPrice != 0, \"Incorrect Price\");\n        \n        price = _newPrice;\n        emit LogPriceChange(price);\n    }\n    \n    function withdrawDeposit(uint256 _wei) public onlyPatron collectPatronage returns (uint256) {\n        _withdrawDeposit(_wei);\n    }\n\n    function withdrawArtistFunds() public {\n        require(msg.sender == artist, \"Not artist\");\n        artist.transfer(artistFund);\n        artistFund = 0;\n    }\n\n    function exit() public onlyPatron collectPatronage {\n        _withdrawDeposit(deposit);\n    }\n\n    /* internal */\n\n    function _withdrawDeposit(uint256 _wei) internal {\n        // note: can withdraw whole deposit, which puts it in immediate to be foreclosed state.\n        require(deposit >= _wei, 'Withdrawing too much');\n\n        deposit = deposit.sub(_wei);\n        msg.sender.transfer(_wei); // msg.sender == patron\n\n        if(deposit == 0) {\n            _foreclose();\n        }\n    }\n\n    function _foreclose() internal {\n        // become steward of artwork (aka foreclose)\n        address currentOwner = art.ownerOf(42);\n        transferArtworkTo(currentOwner, address(this), 0);\n        state = StewardState.Foreclosed;\n        currentCollected = 0;\n\n        emit LogForeclosure(currentOwner);\n    }\n\n    function transferArtworkTo(address _currentOwner, address _newOwner, uint256 _newPrice) internal {\n        // note: it would also tabulate time held in stewardship by smart contract\n        timeHeld[_currentOwner] = timeHeld[_currentOwner].add((timeLastCollected.sub(timeAcquired)));\n        \n        art.transferFrom(_currentOwner, _newOwner, 42);\n\n        price = _newPrice;\n        timeAcquired = now;\n        patrons[_newOwner] = true;\n    }\n}",
  "sourcePath": "/Users/mcplums/Repos/Harber/contracts/Harber.sol",
  "compiler": {
    "name": "solc",
    "version": "0.5.8+commit.23d335f2.Emscripten.clang"
  },
  "schemaVersion": "3.0.17",
  "updatedAt": "2019-11-27T08:46:30.377Z",
  "networkType": "ethereum",
  "devdoc": {
    "methods": {}
  },
  "userdoc": {
    "methods": {}
  }
}