{
  "contractName": "Harber",
  "abi": [
    {
      "inputs": [
        {
          "internalType": "address",
          "name": "_andrewsAddress",
          "type": "address"
        },
        {
          "internalType": "address",
          "name": "_addressOfToken",
          "type": "address"
        },
        {
          "internalType": "address",
          "name": "_addressOfCashContract",
          "type": "address"
        },
        {
          "internalType": "address",
          "name": "_addressOfMarket",
          "type": "address"
        },
        {
          "internalType": "address",
          "name": "_addressOfCompleteSetsContract",
          "type": "address"
        },
        {
          "internalType": "address",
          "name": "_addressOfMainAugurContract",
          "type": "address"
        }
      ],
      "payable": false,
      "stateMutability": "nonpayable",
      "type": "constructor"
    },
    {
      "anonymous": false,
      "inputs": [
        {
          "indexed": true,
          "internalType": "address",
          "name": "owner",
          "type": "address"
        },
        {
          "indexed": true,
          "internalType": "uint256",
          "name": "price",
          "type": "uint256"
        }
      ],
      "name": "LogBuy",
      "type": "event"
    },
    {
      "anonymous": false,
      "inputs": [
        {
          "indexed": true,
          "internalType": "uint256",
          "name": "collected",
          "type": "uint256"
        }
      ],
      "name": "LogCollection",
      "type": "event"
    },
    {
      "anonymous": false,
      "inputs": [
        {
          "indexed": true,
          "internalType": "address",
          "name": "prevOwner",
          "type": "address"
        }
      ],
      "name": "LogForeclosure",
      "type": "event"
    },
    {
      "anonymous": false,
      "inputs": [
        {
          "indexed": true,
          "internalType": "uint256",
          "name": "newPrice",
          "type": "uint256"
        }
      ],
      "name": "LogPriceChange",
      "type": "event"
    },
    {
      "constant": true,
      "inputs": [],
      "name": "a",
      "outputs": [
        {
          "internalType": "uint256",
          "name": "",
          "type": "uint256"
        }
      ],
      "payable": false,
      "stateMutability": "view",
      "type": "function"
    },
    {
      "constant": true,
      "inputs": [],
      "name": "b",
      "outputs": [
        {
          "internalType": "uint256",
          "name": "",
          "type": "uint256"
        }
      ],
      "payable": false,
      "stateMutability": "view",
      "type": "function"
    },
    {
      "constant": true,
      "inputs": [],
      "name": "c",
      "outputs": [
        {
          "internalType": "uint256",
          "name": "",
          "type": "uint256"
        }
      ],
      "payable": false,
      "stateMutability": "view",
      "type": "function"
    },
    {
      "constant": true,
      "inputs": [
        {
          "internalType": "uint256",
          "name": "",
          "type": "uint256"
        }
      ],
      "name": "collectedAndSentToAugur",
      "outputs": [
        {
          "internalType": "uint256",
          "name": "",
          "type": "uint256"
        }
      ],
      "payable": false,
      "stateMutability": "view",
      "type": "function"
    },
    {
      "constant": true,
      "inputs": [
        {
          "internalType": "uint256",
          "name": "",
          "type": "uint256"
        }
      ],
      "name": "currentOwnerIndex",
      "outputs": [
        {
          "internalType": "uint256",
          "name": "",
          "type": "uint256"
        }
      ],
      "payable": false,
      "stateMutability": "view",
      "type": "function"
    },
    {
      "constant": true,
      "inputs": [
        {
          "internalType": "uint256",
          "name": "",
          "type": "uint256"
        },
        {
          "internalType": "address",
          "name": "",
          "type": "address"
        }
      ],
      "name": "deposits",
      "outputs": [
        {
          "internalType": "uint256",
          "name": "",
          "type": "uint256"
        }
      ],
      "payable": false,
      "stateMutability": "view",
      "type": "function"
    },
    {
      "constant": true,
      "inputs": [
        {
          "internalType": "uint256",
          "name": "",
          "type": "uint256"
        },
        {
          "internalType": "uint256",
          "name": "",
          "type": "uint256"
        }
      ],
      "name": "ownerTracker",
      "outputs": [
        {
          "internalType": "address",
          "name": "owner",
          "type": "address"
        },
        {
          "internalType": "uint256",
          "name": "price",
          "type": "uint256"
        }
      ],
      "payable": false,
      "stateMutability": "view",
      "type": "function"
    },
    {
      "constant": true,
      "inputs": [
        {
          "internalType": "uint256",
          "name": "",
          "type": "uint256"
        }
      ],
      "name": "price",
      "outputs": [
        {
          "internalType": "uint256",
          "name": "",
          "type": "uint256"
        }
      ],
      "payable": false,
      "stateMutability": "view",
      "type": "function"
    },
    {
      "constant": true,
      "inputs": [
        {
          "internalType": "uint256",
          "name": "",
          "type": "uint256"
        }
      ],
      "name": "state",
      "outputs": [
        {
          "internalType": "enum Harber.ownedState",
          "name": "",
          "type": "uint8"
        }
      ],
      "payable": false,
      "stateMutability": "view",
      "type": "function"
    },
    {
      "constant": true,
      "inputs": [],
      "name": "team",
      "outputs": [
        {
          "internalType": "contract IERC721Full",
          "name": "",
          "type": "address"
        }
      ],
      "payable": false,
      "stateMutability": "view",
      "type": "function"
    },
    {
      "constant": true,
      "inputs": [
        {
          "internalType": "address",
          "name": "",
          "type": "address"
        }
      ],
      "name": "testDaiBalances",
      "outputs": [
        {
          "internalType": "uint256",
          "name": "",
          "type": "uint256"
        }
      ],
      "payable": false,
      "stateMutability": "view",
      "type": "function"
    },
    {
      "constant": true,
      "inputs": [],
      "name": "testingVariable",
      "outputs": [
        {
          "internalType": "uint256",
          "name": "",
          "type": "uint256"
        }
      ],
      "payable": false,
      "stateMutability": "view",
      "type": "function"
    },
    {
      "constant": true,
      "inputs": [
        {
          "internalType": "uint256",
          "name": "",
          "type": "uint256"
        }
      ],
      "name": "timeAcquired",
      "outputs": [
        {
          "internalType": "uint256",
          "name": "",
          "type": "uint256"
        }
      ],
      "payable": false,
      "stateMutability": "view",
      "type": "function"
    },
    {
      "constant": true,
      "inputs": [
        {
          "internalType": "uint256",
          "name": "",
          "type": "uint256"
        },
        {
          "internalType": "address",
          "name": "",
          "type": "address"
        }
      ],
      "name": "timeHeld",
      "outputs": [
        {
          "internalType": "uint256",
          "name": "",
          "type": "uint256"
        }
      ],
      "payable": false,
      "stateMutability": "view",
      "type": "function"
    },
    {
      "constant": true,
      "inputs": [
        {
          "internalType": "uint256",
          "name": "",
          "type": "uint256"
        }
      ],
      "name": "timeLastCollected",
      "outputs": [
        {
          "internalType": "uint256",
          "name": "",
          "type": "uint256"
        }
      ],
      "payable": false,
      "stateMutability": "view",
      "type": "function"
    },
    {
      "constant": true,
      "inputs": [],
      "name": "totalCollectedAndSentToAugur",
      "outputs": [
        {
          "internalType": "uint256",
          "name": "",
          "type": "uint256"
        }
      ],
      "payable": false,
      "stateMutability": "view",
      "type": "function"
    },
    {
      "constant": false,
      "inputs": [],
      "name": "getTestDai",
      "outputs": [],
      "payable": false,
      "stateMutability": "nonpayable",
      "type": "function"
    },
    {
      "constant": false,
      "inputs": [],
      "name": "augurTest",
      "outputs": [],
      "payable": false,
      "stateMutability": "nonpayable",
      "type": "function"
    },
    {
      "constant": false,
      "inputs": [],
      "name": "buyCompleteSets",
      "outputs": [],
      "payable": false,
      "stateMutability": "nonpayable",
      "type": "function"
    },
    {
      "constant": false,
      "inputs": [],
      "name": "sellCompleteSets",
      "outputs": [],
      "payable": false,
      "stateMutability": "nonpayable",
      "type": "function"
    },
    {
      "constant": true,
      "inputs": [],
      "name": "getTestDaiBalance",
      "outputs": [
        {
          "internalType": "uint256",
          "name": "",
          "type": "uint256"
        }
      ],
      "payable": false,
      "stateMutability": "view",
      "type": "function"
    },
    {
      "constant": true,
      "inputs": [
        {
          "internalType": "uint256",
          "name": "_tokenId",
          "type": "uint256"
        },
        {
          "internalType": "uint256",
          "name": "_index",
          "type": "uint256"
        }
      ],
      "name": "getOwnerTrackerPrice",
      "outputs": [
        {
          "internalType": "uint256",
          "name": "",
          "type": "uint256"
        }
      ],
      "payable": false,
      "stateMutability": "view",
      "type": "function"
    },
    {
      "constant": true,
      "inputs": [
        {
          "internalType": "uint256",
          "name": "_tokenId",
          "type": "uint256"
        },
        {
          "internalType": "uint256",
          "name": "_index",
          "type": "uint256"
        }
      ],
      "name": "getOwnerTrackerAddress",
      "outputs": [
        {
          "internalType": "address",
          "name": "",
          "type": "address"
        }
      ],
      "payable": false,
      "stateMutability": "view",
      "type": "function"
    },
    {
      "constant": true,
      "inputs": [
        {
          "internalType": "uint256",
          "name": "_tokenId",
          "type": "uint256"
        }
      ],
      "name": "augurFundsOwed",
      "outputs": [
        {
          "internalType": "uint256",
          "name": "augurFundsDue",
          "type": "uint256"
        }
      ],
      "payable": false,
      "stateMutability": "view",
      "type": "function"
    },
    {
      "constant": true,
      "inputs": [
        {
          "internalType": "uint256",
          "name": "_tokenId",
          "type": "uint256"
        }
      ],
      "name": "augurFundsOwedWithTimestamp",
      "outputs": [
        {
          "internalType": "uint256",
          "name": "augurFundsDue",
          "type": "uint256"
        },
        {
          "internalType": "uint256",
          "name": "timestamp",
          "type": "uint256"
        }
      ],
      "payable": false,
      "stateMutability": "view",
      "type": "function"
    },
    {
      "constant": true,
      "inputs": [
        {
          "internalType": "uint256",
          "name": "_tokenId",
          "type": "uint256"
        }
      ],
      "name": "foreclosed",
      "outputs": [
        {
          "internalType": "bool",
          "name": "",
          "type": "bool"
        }
      ],
      "payable": false,
      "stateMutability": "view",
      "type": "function"
    },
    {
      "constant": true,
      "inputs": [
        {
          "internalType": "uint256",
          "name": "_tokenId",
          "type": "uint256"
        }
      ],
      "name": "liveDepositAbleToWithdraw",
      "outputs": [
        {
          "internalType": "uint256",
          "name": "",
          "type": "uint256"
        }
      ],
      "payable": false,
      "stateMutability": "view",
      "type": "function"
    },
    {
      "constant": true,
      "inputs": [
        {
          "internalType": "uint256",
          "name": "_tokenId",
          "type": "uint256"
        }
      ],
      "name": "userDepositAbleToWithdraw",
      "outputs": [
        {
          "internalType": "uint256",
          "name": "",
          "type": "uint256"
        }
      ],
      "payable": false,
      "stateMutability": "view",
      "type": "function"
    },
    {
      "constant": true,
      "inputs": [
        {
          "internalType": "uint256",
          "name": "_tokenId",
          "type": "uint256"
        }
      ],
      "name": "rentalExpiryTime",
      "outputs": [
        {
          "internalType": "uint256",
          "name": "",
          "type": "uint256"
        }
      ],
      "payable": false,
      "stateMutability": "view",
      "type": "function"
    },
    {
      "constant": false,
      "inputs": [
        {
          "internalType": "uint256",
          "name": "_tokenId",
          "type": "uint256"
        }
      ],
      "name": "_collectAugurFunds",
      "outputs": [],
      "payable": false,
      "stateMutability": "nonpayable",
      "type": "function"
    },
    {
      "constant": false,
      "inputs": [
        {
          "internalType": "uint256",
          "name": "_dai",
          "type": "uint256"
        },
        {
          "internalType": "uint256",
          "name": "_tokenId",
          "type": "uint256"
        }
      ],
      "name": "depositDai",
      "outputs": [],
      "payable": false,
      "stateMutability": "nonpayable",
      "type": "function"
    },
    {
      "constant": false,
      "inputs": [
        {
          "internalType": "uint256",
          "name": "_newPrice",
          "type": "uint256"
        },
        {
          "internalType": "uint256",
          "name": "_tokenId",
          "type": "uint256"
        },
        {
          "internalType": "uint256",
          "name": "_deposit",
          "type": "uint256"
        }
      ],
      "name": "buy",
      "outputs": [],
      "payable": false,
      "stateMutability": "nonpayable",
      "type": "function"
    },
    {
      "constant": false,
      "inputs": [
        {
          "internalType": "uint256",
          "name": "_newPrice",
          "type": "uint256"
        },
        {
          "internalType": "uint256",
          "name": "_tokenId",
          "type": "uint256"
        }
      ],
      "name": "changePrice",
      "outputs": [],
      "payable": false,
      "stateMutability": "nonpayable",
      "type": "function"
    },
    {
      "constant": false,
      "inputs": [
        {
          "internalType": "uint256",
          "name": "_dai",
          "type": "uint256"
        },
        {
          "internalType": "uint256",
          "name": "_tokenId",
          "type": "uint256"
        }
      ],
      "name": "withdrawDeposit",
      "outputs": [
        {
          "internalType": "uint256",
          "name": "",
          "type": "uint256"
        }
      ],
      "payable": false,
      "stateMutability": "nonpayable",
      "type": "function"
    },
    {
      "constant": false,
      "inputs": [
        {
          "internalType": "uint256",
          "name": "_tokenId",
          "type": "uint256"
        }
      ],
      "name": "exit",
      "outputs": [],
      "payable": false,
      "stateMutability": "nonpayable",
      "type": "function"
    }
  ],
  "bytecode": "0x608060405260006020556000602155600060225560006023553480156200002557600080fd5b506040516200384f3803806200384f833981810160405260c08110156200004b57600080fd5b81019080805190602001909291908051906020019092919080519060200190929190805190602001909291908051906020019092919080519060200190929190505050846000806101000a81548173ffffffffffffffffffffffffffffffffffffffff021916908373ffffffffffffffffffffffffffffffffffffffff1602179055506000809054906101000a900473ffffffffffffffffffffffffffffffffffffffff1673ffffffffffffffffffffffffffffffffffffffff1663ba0bba406040518163ffffffff1660e01b8152600401600060405180830381600087803b1580156200013857600080fd5b505af11580156200014d573d6000803e3d6000fd5b5050505085600460006101000a81548173ffffffffffffffffffffffffffffffffffffffff021916908373ffffffffffffffffffffffffffffffffffffffff16021790555060006028600060058110620001a357fe5b602091828204019190066101000a81548160ff02191690836001811115620001c757fe5b021790555060006028600160058110620001dd57fe5b602091828204019190066101000a81548160ff021916908360018111156200020157fe5b0217905550600060286002600581106200021757fe5b602091828204019190066101000a81548160ff021916908360018111156200023b57fe5b0217905550600060286003600581106200025157fe5b602091828204019190066101000a81548160ff021916908360018111156200027557fe5b0217905550600060286004600581106200028b57fe5b602091828204019190066101000a81548160ff02191690836001811115620002af57fe5b02179055506000601b600060058110620002c557fe5b01819055506000601b600160058110620002db57fe5b01819055506000601b600260058110620002f157fe5b01819055506000601b6003600581106200030757fe5b01819055506000601b6004600581106200031d57fe5b018190555083600360006101000a81548173ffffffffffffffffffffffffffffffffffffffff021916908373ffffffffffffffffffffffffffffffffffffffff16021790555082600160006101000a81548173ffffffffffffffffffffffffffffffffffffffff021916908373ffffffffffffffffffffffffffffffffffffffff16021790555081600260006101000a81548173ffffffffffffffffffffffffffffffffffffffff021916908373ffffffffffffffffffffffffffffffffffffffff16021790555080600560006101000a81548173ffffffffffffffffffffffffffffffffffffffff021916908373ffffffffffffffffffffffffffffffffffffffff160217905550505050505050613413806200043c6000396000f3fe608060405234801561001057600080fd5b50600436106102115760003560e01c80637603846011610125578063c3da42b8116100ad578063f06197b71161007c578063f06197b7146108f1578063f3cebadb1461093d578063f88489c214610947578063fce0eb02146109c6578063fde23d7c14610a0857610211565b8063c3da42b8146107f7578063cb29417714610815578063e6a9d4291461086d578063f015e54e146108af57610211565b80638cb68899116100f45780638cb688991461067757806397b4550a146106b9578063b3de019c14610731578063bae04c9a14610769578063c354a0a6146107b557610211565b806376038460146105d75780637902bd97146105e15780637f8661a1146105ff57806385f2aef21461062d57610211565b80633e4f49e6116101a85780635b2ace64116101775780635b2ace64146105075780635dfd7e9b1461054957806360e4ac691461058157806373a5226f1461058b578063759818ec146105cd57610211565b80633e4f49e6146103f557806340993b26146104455780634df7e3d01461048757806353a58de1146104a557610211565b806326a49e37116101e457806326a49e3714610325578063321c77711461036757806332f2b04d14610385578063391edb3a146103c757610211565b80630dbe671f146102165780631e8b76ad14610234578063224ce1b91461027a578063237b5e4f146102c3575b600080fd5b61021e610a26565b6040518082815260200191505060405180910390f35b6102606004803603602081101561024a57600080fd5b8101908080359060200190929190505050610a2c565b604051808215151515815260200191505060405180910390f35b6102a66004803603602081101561029057600080fd5b8101908080359060200190929190505050610aa6565b604051808381526020018281526020019250505060405180910390f35b61030f600480360360408110156102d957600080fd5b8101908080359060200190929190803573ffffffffffffffffffffffffffffffffffffffff169060200190929190505050610abc565b6040518082815260200191505060405180910390f35b6103516004803603602081101561033b57600080fd5b8101908080359060200190929190505050610ae1565b6040518082815260200191505060405180910390f35b61036f610af9565b6040518082815260200191505060405180910390f35b6103b16004803603602081101561039b57600080fd5b8101908080359060200190929190505050610b40565b6040518082815260200191505060405180910390f35b6103f3600480360360208110156103dd57600080fd5b8101908080359060200190929190505050610cce565b005b6104216004803603602081101561040b57600080fd5b8101908080359060200190929190505050611097565b6040518082600181111561043157fe5b60ff16815260200191505060405180910390f35b6104856004803603606081101561045b57600080fd5b810190808035906020019092919080359060200190929190803590602001909291905050506110be565b005b61048f61166c565b6040518082815260200191505060405180910390f35b6104f1600480360360408110156104bb57600080fd5b8101908080359060200190929190803573ffffffffffffffffffffffffffffffffffffffff169060200190929190505050611672565b6040518082815260200191505060405180910390f35b6105336004803603602081101561051d57600080fd5b8101908080359060200190929190505050611697565b6040518082815260200191505060405180910390f35b61057f6004803603604081101561055f57600080fd5b8101908080359060200190929190803590602001909291905050506116af565b005b6105896118b9565b005b6105b7600480360360208110156105a157600080fd5b81019080803590602001909291905050506119c6565b6040518082815260200191505060405180910390f35b6105d5611be2565b005b6105df611cf9565b005b6105e9611eb8565b6040518082815260200191505060405180910390f35b61062b6004803603602081101561061557600080fd5b8101908080359060200190929190505050611ebe565b005b610635612075565b604051808273ffffffffffffffffffffffffffffffffffffffff1673ffffffffffffffffffffffffffffffffffffffff16815260200191505060405180910390f35b6106a36004803603602081101561068d57600080fd5b810190808035906020019092919050505061209a565b6040518082815260200191505060405180910390f35b6106ef600480360360408110156106cf57600080fd5b8101908080359060200190929190803590602001909291905050506120b2565b604051808273ffffffffffffffffffffffffffffffffffffffff1673ffffffffffffffffffffffffffffffffffffffff16815260200191505060405180910390f35b6107676004803603604081101561074757600080fd5b810190808035906020019092919080359060200190929190505050612104565b005b61079f6004803603604081101561077f57600080fd5b8101908080359060200190929190803590602001909291905050506123ff565b6040518082815260200191505060405180910390f35b6107e1600480360360208110156107cb57600080fd5b810190808035906020019092919050505061256b565b6040518082815260200191505060405180910390f35b6107ff612583565b6040518082815260200191505060405180910390f35b6108576004803603602081101561082b57600080fd5b81019080803573ffffffffffffffffffffffffffffffffffffffff169060200190929190505050612589565b6040518082815260200191505060405180910390f35b6108996004803603602081101561088357600080fd5b81019080803590602001909291905050506125a1565b6040518082815260200191505060405180910390f35b6108db600480360360208110156108c557600080fd5b8101908080359060200190929190505050612601565b6040518082815260200191505060405180910390f35b6109276004803603604081101561090757600080fd5b810190808035906020019092919080359060200190929190505050612619565b6040518082815260200191505060405180910390f35b61094561264b565b005b61097d6004803603604081101561095d57600080fd5b8101908080359060200190929190803590602001909291905050506126d3565b604051808373ffffffffffffffffffffffffffffffffffffffff1673ffffffffffffffffffffffffffffffffffffffff1681526020018281526020019250505060405180910390f35b6109f2600480360360208110156109dc57600080fd5b8101908080359060200190929190505050612724565b6040518082815260200191505060405180910390f35b610a10612786565b6040518082815260200191505060405180910390f35b60215481565b600080610a38836125a1565b90506026600084815260200190815260200160002060003373ffffffffffffffffffffffffffffffffffffffff1673ffffffffffffffffffffffffffffffffffffffff168152602001908152602001600020548110610a9b576001915050610aa1565b60009150505b919050565b600080610ab2836125a1565b4291509150915091565b6025602052816000526040600020602052806000526040600020600091509150505481565b60068160058110610aee57fe5b016000915090505481565b6000602760003373ffffffffffffffffffffffffffffffffffffffff1673ffffffffffffffffffffffffffffffffffffffff16815260200190815260200160002054905090565b600080610b4c836125a1565b905060008060009054906101000a900473ffffffffffffffffffffffffffffffffffffffff1673ffffffffffffffffffffffffffffffffffffffff16636352211e856040518263ffffffff1660e01b81526004018082815260200191505060206040518083038186803b158015610bc257600080fd5b505afa158015610bd6573d6000803e3d6000fd5b505050506040513d6020811015610bec57600080fd5b810190808051906020019092919050505090506026600085815260200190815260200160002060008273ffffffffffffffffffffffffffffffffffffffff1673ffffffffffffffffffffffffffffffffffffffff168152602001908152602001600020548210610c6157600092505050610cc9565b610cc4826026600087815260200190815260200160002060008473ffffffffffffffffffffffffffffffffffffffff1673ffffffffffffffffffffffffffffffffffffffff1681526020019081526020016000205461278c90919063ffffffff16565b925050505b919050565b600180811115610cda57fe5b60288260058110610ce757fe5b602091828204019190069054906101000a900460ff166001811115610d0857fe5b1415611094576000610d19826125a1565b905060008060009054906101000a900473ffffffffffffffffffffffffffffffffffffffff1673ffffffffffffffffffffffffffffffffffffffff16636352211e846040518263ffffffff1660e01b81526004018082815260200191505060206040518083038186803b158015610d8f57600080fd5b505afa158015610da3573d6000803e3d6000fd5b505050506040513d6020811015610db957600080fd5b810190808051906020019092919050505090506026600084815260200190815260200160002060008273ffffffffffffffffffffffffffffffffffffffff1673ffffffffffffffffffffffffffffffffffffffff168152602001908152602001600020548210610f4b57610ed8610ebb83610ead6026600088815260200190815260200160002060008673ffffffffffffffffffffffffffffffffffffffff1673ffffffffffffffffffffffffffffffffffffffff16815260200190815260200160002054610e9f60118960058110610e8e57fe5b01544261278c90919063ffffffff16565b6127d690919063ffffffff16565b61285c90919063ffffffff16565b60118560058110610ec857fe5b01546128a690919063ffffffff16565b60118460058110610ee557fe5b01819055506026600084815260200190815260200160002060008273ffffffffffffffffffffffffffffffffffffffff1673ffffffffffffffffffffffffffffffffffffffff168152602001908152602001600020549150610f468361292e565b610f5f565b4260118460058110610f5957fe5b01819055505b610fc2826026600086815260200190815260200160002060008473ffffffffffffffffffffffffffffffffffffffff1673ffffffffffffffffffffffffffffffffffffffff1681526020019081526020016000205461278c90919063ffffffff16565b6026600085815260200190815260200160002060008373ffffffffffffffffffffffffffffffffffffffff1673ffffffffffffffffffffffffffffffffffffffff1681526020019081526020016000208190555061103782600b856005811061102757fe5b01546128a690919063ffffffff16565b600b846005811061104457fe5b018190555061105e826010546128a690919063ffffffff16565b601081905550817f54acb82a9e70d7c289b149758d23167c915428ae854a7aa4abe5bf2f4ef29f3660405160405180910390a250505b50565b602881600581106110a457fe5b60209182820401919006915054906101000a900460ff1681565b816110c881610cce565b600683600581106110d557fe5b0154841161112e576040517f08c379a00000000000000000000000000000000000000000000000000000000081526004018080602001828103825260278152602001806133636027913960400191505060405180910390fd5b600082116111a4576040517f08c379a00000000000000000000000000000000000000000000000000000000081526004018080602001828103825260168152602001807f4d757374206465706f73697420736f6d657468696e670000000000000000000081525060200191505060405180910390fd5b81602760003373ffffffffffffffffffffffffffffffffffffffff1673ffffffffffffffffffffffffffffffffffffffff168152602001908152602001600020541015611259576040517f08c379a000000000000000000000000000000000000000000000000000000000815260040180806020018281038252600e8152602001807f4e6f7420656e6f7567682044414900000000000000000000000000000000000081525060200191505060405180910390fd5b6112ab82602760003373ffffffffffffffffffffffffffffffffffffffff1673ffffffffffffffffffffffffffffffffffffffff1681526020019081526020016000205461278c90919063ffffffff16565b602760003373ffffffffffffffffffffffffffffffffffffffff1673ffffffffffffffffffffffffffffffffffffffff16815260200190815260200160002081905550611351826026600086815260200190815260200160002060003373ffffffffffffffffffffffffffffffffffffffff1673ffffffffffffffffffffffffffffffffffffffff168152602001908152602001600020546128a690919063ffffffff16565b6026600085815260200190815260200160002060003373ffffffffffffffffffffffffffffffffffffffff1673ffffffffffffffffffffffffffffffffffffffff1681526020019081526020016000208190555060008060009054906101000a900473ffffffffffffffffffffffffffffffffffffffff1673ffffffffffffffffffffffffffffffffffffffff16636352211e856040518263ffffffff1660e01b81526004018082815260200191505060206040518083038186803b15801561141957600080fd5b505afa15801561142d573d6000803e3d6000fd5b505050506040513d602081101561144357600080fd5b810190808051906020019092919050505090503373ffffffffffffffffffffffffffffffffffffffff168173ffffffffffffffffffffffffffffffffffffffff1614156114c95784602460008681526020019081526020016000206000601b87600581106114ad57fe5b015481526020019081526020016000206001018190555061159c565b6001601b85600581106114d857fe5b015401601b85600581106114e857fe5b018190555084602460008681526020019081526020016000206000601b876005811061151057fe5b015481526020019081526020016000206001018190555033602460008681526020019081526020016000206000601b876005811061154a57fe5b0154815260200190815260200160002060000160006101000a81548173ffffffffffffffffffffffffffffffffffffffff021916908373ffffffffffffffffffffffffffffffffffffffff1602179055505b600060018111156115a957fe5b602885600581106115b657fe5b602091828204019190069054906101000a900460ff1660018111156115d757fe5b1415611615576001602885600581106115ec57fe5b602091828204019190066101000a81548160ff0219169083600181111561160f57fe5b02179055505b61162181338787612b4d565b843373ffffffffffffffffffffffffffffffffffffffff167f4f79409f494e81c38036d80aa8a6507c2cb08d90bfb2fead5519447646b3497e60405160405180910390a35050505050565b60225481565b6026602052816000526040600020602052806000526040600020600091509150505481565b601681600581106116a457fe5b016000915090505481565b806116b981610cce565b600060018111156116c657fe5b602883600581106116d357fe5b602091828204019190069054906101000a900460ff1660018111156116f457fe5b1415611768576040517f08c379a000000000000000000000000000000000000000000000000000000000815260040180806020018281038252600a8152602001807f466f7265636c6f7365640000000000000000000000000000000000000000000081525060200191505060405180910390fd5b6117ba83602760003373ffffffffffffffffffffffffffffffffffffffff1673ffffffffffffffffffffffffffffffffffffffff1681526020019081526020016000205461278c90919063ffffffff16565b602760003373ffffffffffffffffffffffffffffffffffffffff1673ffffffffffffffffffffffffffffffffffffffff16815260200190815260200160002081905550611860836026600085815260200190815260200160002060003373ffffffffffffffffffffffffffffffffffffffff1673ffffffffffffffffffffffffffffffffffffffff168152602001908152602001600020546128a690919063ffffffff16565b6026600084815260200190815260200160002060003373ffffffffffffffffffffffffffffffffffffffff1673ffffffffffffffffffffffffffffffffffffffff16815260200190815260200160002081905550505050565b600260009054906101000a900473ffffffffffffffffffffffffffffffffffffffff1673ffffffffffffffffffffffffffffffffffffffff1663abb60c80600160009054906101000a900473ffffffffffffffffffffffffffffffffffffffff166305f5e1006040518363ffffffff1660e01b8152600401808373ffffffffffffffffffffffffffffffffffffffff1673ffffffffffffffffffffffffffffffffffffffff16815260200182815260200192505050602060405180830381600087803b15801561198857600080fd5b505af115801561199c573d6000803e3d6000fd5b505050506040513d60208110156119b257600080fd5b810190808051906020019092919050505050565b6000806119d2836125a1565b905060008060009054906101000a900473ffffffffffffffffffffffffffffffffffffffff1673ffffffffffffffffffffffffffffffffffffffff16636352211e856040518263ffffffff1660e01b81526004018082815260200191505060206040518083038186803b158015611a4857600080fd5b505afa158015611a5c573d6000803e3d6000fd5b505050506040513d6020811015611a7257600080fd5b810190808051906020019092919050505090503373ffffffffffffffffffffffffffffffffffffffff168173ffffffffffffffffffffffffffffffffffffffff161415611b87576026600085815260200190815260200160002060003373ffffffffffffffffffffffffffffffffffffffff1673ffffffffffffffffffffffffffffffffffffffff168152602001908152602001600020548210611b1b57600092505050611bdd565b611b7e826026600087815260200190815260200160002060003373ffffffffffffffffffffffffffffffffffffffff1673ffffffffffffffffffffffffffffffffffffffff1681526020019081526020016000205461278c90919063ffffffff16565b92505050611bdd565b6026600085815260200190815260200160002060003373ffffffffffffffffffffffffffffffffffffffff1673ffffffffffffffffffffffffffffffffffffffff16815260200190815260200160002054925050505b919050565b600260009054906101000a900473ffffffffffffffffffffffffffffffffffffffff1673ffffffffffffffffffffffffffffffffffffffff1663ad16158e600160009054906101000a900473ffffffffffffffffffffffffffffffffffffffff166305f5e1006040518363ffffffff1660e01b8152600401808373ffffffffffffffffffffffffffffffffffffffff1673ffffffffffffffffffffffffffffffffffffffff168152602001828152602001925050506040805180830381600087803b158015611cb057600080fd5b505af1158015611cc4573d6000803e3d6000fd5b505050506040513d6040811015611cda57600080fd5b8101908080519060200190929190805190602001909291905050505050565b600360009054906101000a900473ffffffffffffffffffffffffffffffffffffffff1673ffffffffffffffffffffffffffffffffffffffff16635791589768056bc75e2d631000006040518263ffffffff1660e01b815260040180828152602001915050600060405180830381600087803b158015611d7757600080fd5b505af1158015611d8b573d6000803e3d6000fd5b50505050600360009054906101000a900473ffffffffffffffffffffffffffffffffffffffff1673ffffffffffffffffffffffffffffffffffffffff1663095ea7b3600560009054906101000a900473ffffffffffffffffffffffffffffffffffffffff167fffffffffffffffffffffffffffffffffffffffffffffffffffffffffffffffff6040518363ffffffff1660e01b8152600401808373ffffffffffffffffffffffffffffffffffffffff1673ffffffffffffffffffffffffffffffffffffffff16815260200182815260200192505050602060405180830381600087803b158015611e7a57600080fd5b505af1158015611e8e573d6000803e3d6000fd5b505050506040513d6020811015611ea457600080fd5b810190808051906020019092919050505050565b60205481565b806000809054906101000a900473ffffffffffffffffffffffffffffffffffffffff1673ffffffffffffffffffffffffffffffffffffffff16636352211e826040518263ffffffff1660e01b81526004018082815260200191505060206040518083038186803b158015611f3157600080fd5b505afa158015611f45573d6000803e3d6000fd5b505050506040513d6020811015611f5b57600080fd5b810190808051906020019092919050505073ffffffffffffffffffffffffffffffffffffffff163373ffffffffffffffffffffffffffffffffffffffff161461200c576040517f08c379a00000000000000000000000000000000000000000000000000000000081526004018080602001828103825260098152602001807f4e6f74206f776e6572000000000000000000000000000000000000000000000081525060200191505060405180910390fd5b8161201681610cce565b6120706026600085815260200190815260200160002060003373ffffffffffffffffffffffffffffffffffffffff1673ffffffffffffffffffffffffffffffffffffffff1681526020019081526020016000205484612dda565b505050565b6000809054906101000a900473ffffffffffffffffffffffffffffffffffffffff1681565b601181600581106120a757fe5b016000915090505481565b600060246000848152602001908152602001600020600083815260200190815260200160002060000160009054906101000a900473ffffffffffffffffffffffffffffffffffffffff16905092915050565b806000809054906101000a900473ffffffffffffffffffffffffffffffffffffffff1673ffffffffffffffffffffffffffffffffffffffff16636352211e826040518263ffffffff1660e01b81526004018082815260200191505060206040518083038186803b15801561217757600080fd5b505afa15801561218b573d6000803e3d6000fd5b505050506040513d60208110156121a157600080fd5b810190808051906020019092919050505073ffffffffffffffffffffffffffffffffffffffff163373ffffffffffffffffffffffffffffffffffffffff1614612252576040517f08c379a00000000000000000000000000000000000000000000000000000000081526004018080602001828103825260098152602001807f4e6f74206f776e6572000000000000000000000000000000000000000000000081525060200191505060405180910390fd5b8161225c81610cce565b6000600181111561226957fe5b6028846005811061227657fe5b602091828204019190069054906101000a900460ff16600181111561229757fe5b141561230b576040517f08c379a000000000000000000000000000000000000000000000000000000000815260040180806020018281038252600a8152602001807f466f7265636c6f7365640000000000000000000000000000000000000000000081525060200191505060405180910390fd5b6006836005811061231857fe5b01548411612371576040517f08c379a000000000000000000000000000000000000000000000000000000000815260040180806020018281038252602b815260200180613338602b913960400191505060405180910390fd5b836006846005811061237f57fe5b018190555083602460008581526020019081526020016000206000601b86600581106123a757fe5b0154815260200190815260200160002060010181905550600683600581106123cb57fe5b01547f854d6511a28585103049c7770618450f7c9aeb580c69db2913d63869663f475160405160405180910390a250505050565b6000816000809054906101000a900473ffffffffffffffffffffffffffffffffffffffff1673ffffffffffffffffffffffffffffffffffffffff16636352211e826040518263ffffffff1660e01b81526004018082815260200191505060206040518083038186803b15801561247457600080fd5b505afa158015612488573d6000803e3d6000fd5b505050506040513d602081101561249e57600080fd5b810190808051906020019092919050505073ffffffffffffffffffffffffffffffffffffffff163373ffffffffffffffffffffffffffffffffffffffff161461254f576040517f08c379a00000000000000000000000000000000000000000000000000000000081526004018080602001828103825260098152602001807f4e6f74206f776e6572000000000000000000000000000000000000000000000081525060200191505060405180910390fd5b8261255981610cce565b6125638585612dda565b505092915050565b600b816005811061257857fe5b016000915090505481565b60235481565b60276020528060005260406000206000915090505481565b60006125fa6301e133806125ec6125cf601186600581106125be57fe5b01544261278c90919063ffffffff16565b600686600581106125dc57fe5b01546127d690919063ffffffff16565b61285c90919063ffffffff16565b9050919050565b601b816005811061260e57fe5b016000915090505481565b600060246000848152602001908152602001600020600083815260200190815260200160002060010154905092915050565b6064602760003373ffffffffffffffffffffffffffffffffffffffff1673ffffffffffffffffffffffffffffffffffffffff1681526020019081526020016000205401602760003373ffffffffffffffffffffffffffffffffffffffff1673ffffffffffffffffffffffffffffffffffffffff16815260200190815260200160002081905550565b6024602052816000526040600020602052806000526040600020600091509150508060000160009054906101000a900473ffffffffffffffffffffffffffffffffffffffff16908060010154905082565b60008061274c6301e133806006856005811061273c57fe5b015461285c90919063ffffffff16565b905060008114156127605742915050612781565b61277b8161276d85610b40565b61285c90919063ffffffff16565b42019150505b919050565b60105481565b60006127ce83836040518060400160405280601e81526020017f536166654d6174683a207375627472616374696f6e206f766572666c6f770000815250613053565b905092915050565b6000808314156127e95760009050612856565b60008284029050828482816127fa57fe5b0414612851576040517f08c379a000000000000000000000000000000000000000000000000000000000815260040180806020018281038252602181526020018061338a6021913960400191505060405180910390fd5b809150505b92915050565b600061289e83836040518060400160405280601a81526020017f536166654d6174683a206469766973696f6e206279207a65726f000000000000815250613113565b905092915050565b600080828401905083811015612924576040517f08c379a000000000000000000000000000000000000000000000000000000000815260040180806020018281038252601b8152602001807f536166654d6174683a206164646974696f6e206f766572666c6f77000000000081525060200191505060405180910390fd5b8091505092915050565b60008090505b600015158115151415612b49576000601b836005811061295057fe5b0154101561295a57fe5b6001601b836005811061296957fe5b015403601b836005811061297957fe5b01819055506000601b836005811061298d57fe5b01549050600060246000858152602001908152602001600020600083815260200190815260200160002060000160009054906101000a900473ffffffffffffffffffffffffffffffffffffffff16905060008214156129f8576129ef846131d9565b60019250612b42565b60006026600086815260200190815260200160002060008373ffffffffffffffffffffffffffffffffffffffff1673ffffffffffffffffffffffffffffffffffffffff168152602001908152602001600020541115612b415760008060009054906101000a900473ffffffffffffffffffffffffffffffffffffffff1673ffffffffffffffffffffffffffffffffffffffff16636352211e866040518263ffffffff1660e01b81526004018082815260200191505060206040518083038186803b158015612ac557600080fd5b505afa158015612ad9573d6000803e3d6000fd5b505050506040513d6020811015612aef57600080fd5b810190808051906020019092919050505090506000602460008781526020019081526020016000206000858152602001908152602001600020600101549050612b3a82848389612b4d565b6001945050505b5b5050612934565b5050565b60168160058110612b5a57fe5b015460118260058110612b6957fe5b01541015612bc2576040517f08c379a00000000000000000000000000000000000000000000000000000000081526004018080602001828103825260348152602001806133ab6034913960400191505060405180910390fd5b612c53612bf460168360058110612bd557fe5b015460118460058110612be457fe5b015461278c90919063ffffffff16565b6025600084815260200190815260200160002060008773ffffffffffffffffffffffffffffffffffffffff1673ffffffffffffffffffffffffffffffffffffffff168152602001908152602001600020546128a690919063ffffffff16565b6025600083815260200190815260200160002060008673ffffffffffffffffffffffffffffffffffffffff1673ffffffffffffffffffffffffffffffffffffffff168152602001908152602001600020819055506000809054906101000a900473ffffffffffffffffffffffffffffffffffffffff1673ffffffffffffffffffffffffffffffffffffffff166323b872dd8585846040518463ffffffff1660e01b8152600401808473ffffffffffffffffffffffffffffffffffffffff1673ffffffffffffffffffffffffffffffffffffffff1681526020018373ffffffffffffffffffffffffffffffffffffffff1673ffffffffffffffffffffffffffffffffffffffff1681526020018281526020019350505050600060405180830381600087803b158015612d8357600080fd5b505af1158015612d97573d6000803e3d6000fd5b505050508160068260058110612da957fe5b01819055504260168260058110612dbc57fe5b01819055504260118260058110612dcf57fe5b018190555050505050565b816026600083815260200190815260200160002060003373ffffffffffffffffffffffffffffffffffffffff1673ffffffffffffffffffffffffffffffffffffffff168152602001908152602001600020541015612ea0576040517f08c379a00000000000000000000000000000000000000000000000000000000081526004018080602001828103825260148152602001807f5769746864726177696e6720746f6f206d75636800000000000000000000000081525060200191505060405180910390fd5b612f03826026600084815260200190815260200160002060003373ffffffffffffffffffffffffffffffffffffffff1673ffffffffffffffffffffffffffffffffffffffff1681526020019081526020016000205461278c90919063ffffffff16565b6026600083815260200190815260200160002060003373ffffffffffffffffffffffffffffffffffffffff1673ffffffffffffffffffffffffffffffffffffffff16815260200190815260200160002081905550612fa982602760003373ffffffffffffffffffffffffffffffffffffffff1673ffffffffffffffffffffffffffffffffffffffff168152602001908152602001600020546128a690919063ffffffff16565b602760003373ffffffffffffffffffffffffffffffffffffffff1673ffffffffffffffffffffffffffffffffffffffff1681526020019081526020016000208190555060006026600083815260200190815260200160002060003373ffffffffffffffffffffffffffffffffffffffff1673ffffffffffffffffffffffffffffffffffffffff16815260200190815260200160002054141561304f5761304e8161292e565b5b5050565b6000838311158290613100576040517f08c379a00000000000000000000000000000000000000000000000000000000081526004018080602001828103825283818151815260200191508051906020019080838360005b838110156130c55780820151818401526020810190506130aa565b50505050905090810190601f1680156130f25780820380516001836020036101000a031916815260200191505b509250505060405180910390fd5b5060008385039050809150509392505050565b600080831182906131bf576040517f08c379a00000000000000000000000000000000000000000000000000000000081526004018080602001828103825283818151815260200191508051906020019080838360005b83811015613184578082015181840152602081019050613169565b50505050905090810190601f1680156131b15780820380516001836020036101000a031916815260200191505b509250505060405180910390fd5b5060008385816131cb57fe5b049050809150509392505050565b60008060009054906101000a900473ffffffffffffffffffffffffffffffffffffffff1673ffffffffffffffffffffffffffffffffffffffff16636352211e836040518263ffffffff1660e01b81526004018082815260200191505060206040518083038186803b15801561324d57600080fd5b505afa158015613261573d6000803e3d6000fd5b505050506040513d602081101561327757600080fd5b810190808051906020019092919050505090506132b981600460009054906101000a900473ffffffffffffffffffffffffffffffffffffffff16600085612b4d565b6000602883600581106132c857fe5b602091828204019190066101000a81548160ff021916908360018111156132eb57fe5b02179055508073ffffffffffffffffffffffffffffffffffffffff167f6d6bbefef62d4cb6d0e3a4dd306a71d3632319b1e03659513df86b247dd657fe60405160405180910390a2505056fe4e6577207072696365206d75737420626520686967686572207468616e2063757272656e742070726963655072696365206d75737420626520686967686572207468616e2063757272656e74207072696365536166654d6174683a206d756c7469706c69636174696f6e206f766572666c6f7774696d654163717569726564206973206d6f726520726563656e74207468616e2074696d65206c61737420636f6c6c6563746564a265627a7a72315820ca611336c2dc60417e3569a907258abdf5b5d40e6ab8fc350bf5be4de13bbd2764736f6c634300050c0032",
  "source": "pragma solidity ^0.5.0;\nimport \"./interfaces/IERC721Full.sol\";\nimport \"./utils/SafeMath.sol\";\n\ninterface IMarket \n{\n    function getWinningPayoutNumerator(uint256 _outcome) external view returns (uint256);\n}\n\ninterface ShareToken \n\n{\n    function publicBuyCompleteSets(IMarket _market, uint256 _amount) external returns (bool)  ;\n    function publicSellCompleteSets(IMarket _market, uint256 _amount) external returns (uint256 _creatorFee, uint256 _reportingFee) ;\n}\n\ninterface Cash \n{\n    function approve(address _spender, uint256 _amount) external returns (bool);\n    function balanceOf(address _owner) external view returns (uint256);\n    function faucet(uint256 _amount) external;\n    function transfer(address _to, uint256 _amount) external returns (bool);\n    function transferFrom(address _from, address _to, uint256 _amount) external returns (bool);\n}\n\n//TODO: make sure timeHeld is updated for the final owner because it is not automatically updated unless there is a transfer of the token. \n\ncontract Harber {\n    \n    using SafeMath for uint256;\n    \n    // CONTRACT VARIABLES\n    IERC721Full public team; // ERC721 NFT.\n    //Augur contracts:\n    IMarket market;\n    ShareToken completeSets;\n    Cash cash; \n\n    // UINTS AND ADDRESSES\n    address andrewsAddress; // I am the original owner of tokens, and ownership reverts to me should the sale foreclose\n    address augurMainAddress; // this is needed only to give augur approval to transfer dai on the contract's behalf\n    uint256 constant numberOfTokens = 5; \n    uint256[numberOfTokens] public price; //in wei\n    uint256[numberOfTokens] public collectedAndSentToAugur; // amount collected for each token, ie the sum of all owners' rent  \n    uint256  public totalCollectedAndSentToAugur; // an easy way to track the above\n    uint256[numberOfTokens] public timeLastCollected; \n    uint256[numberOfTokens] public timeAcquired;\n    uint256[numberOfTokens] public currentOwnerIndex; // tracks the position of the current owner in the ownerTracker mapping\n    uint256 public testingVariable = 0;\n    uint256 public a = 0;\n    uint256 public b = 0;\n    uint256 public c = 0;\n\n    //  STRUCTS\n    struct purchase {\n        address owner;\n        uint price;\n    }\n    \n    // MAPPINGS\n    mapping (uint256 => mapping (uint256 => purchase) ) public ownerTracker; //keeps track of all owners of a token, including the price, so that if the current owner's deposit runs out, ownership can be reverted to a previous owner with the previous price. Index 0 is NOT used, this tells the contract to foreclose\n    mapping (uint256 => mapping (address => uint256) ) public timeHeld; //this is the key variable that tracks the total amount of time each user has held it for. It is ONLY updated upon a new owner buying the token. If _collect is run and there is no new owner, this is not updated.\n    mapping (uint256 => mapping (address => uint256) ) public deposits; //keeps track of all the deposits for each token, for each owner.\n    mapping (address => uint256) public testDaiBalances;\n\n    // ENUMS\n    enum ownedState { Foreclosed, Owned }\n    ownedState[numberOfTokens] public state;\n\n    constructor(address _andrewsAddress, address _addressOfToken, address _addressOfCashContract, address _addressOfMarket, address _addressOfCompleteSetsContract, address _addressOfMainAugurContract) public {\n        //initialise ERC721s\n        team = IERC721Full(_addressOfToken);\n        team.setup();\n        andrewsAddress = _andrewsAddress;\n        state[0] = ownedState.Foreclosed;\n        state[1] = ownedState.Foreclosed;\n        state[2] = ownedState.Foreclosed;\n        state[3] = ownedState.Foreclosed;\n        state[4] = ownedState.Foreclosed;\n\n        //this variable is incremented before being used first so the 0 index will never contain a price/address. A zero index is used in the _revertToPreviousOwner  function to commence foreclosure\n        currentOwnerIndex[0]=0;\n        currentOwnerIndex[1]=0;\n        currentOwnerIndex[2]=0;\n        currentOwnerIndex[3]=0;\n        currentOwnerIndex[4]=0;\n\n        //initialise augur contract variables\n        cash = Cash(_addressOfCashContract);\n        market = IMarket(_addressOfMarket);\n        completeSets = ShareToken(_addressOfCompleteSetsContract);\n        augurMainAddress = _addressOfMainAugurContract;\n    } \n\n    event LogBuy(address indexed owner, uint256 indexed price);\n    event LogPriceChange(uint256 indexed newPrice);\n    event LogForeclosure(address indexed prevOwner);\n    event LogCollection(uint256 indexed collected);\n    \n    modifier onlyOwner(uint256 _tokenId) {\n        require(msg.sender == team.ownerOf(_tokenId), \"Not owner\");\n        _;\n    }\n\n    modifier collectAugurFunds(uint256 _tokenId) {\n       _collectAugurFunds(_tokenId); \n       _;\n    }\n\n    /* public view functions */\n    // function getTimeHeld(uint256 _tokenId, address _adress) public view returns (uint256)\n    // {\n    //     return timeHeld[_tokenId][_address];\n    // }\n\n    function getTestDai() public \n    {\n        //// PUBLIC NETWORK VERSION\n        // cash.faucet(100000000000000000000);\n        // testDaiBalances[msg.sender]= testDaiBalances[msg.sender] + 100000000000000000000;\n\n        //// FOR TESTS\n        testDaiBalances[msg.sender]= testDaiBalances[msg.sender] + 100;\n    }\n\n    function augurTest() public \n    {\n        //// PUBLIC NETWORK VERSION\n        cash.faucet(100000000000000000000);\n        cash.approve(augurMainAddress,(2**256)-1);\n        // completeSets.publicBuyCompleteSets(market,100000000);\n    }\n\n    function buyCompleteSets() public {\n        completeSets.publicBuyCompleteSets(market,100000000);\n    }\n\n    function sellCompleteSets() public {\n        completeSets.publicSellCompleteSets(market,100000000);\n    }\n\n    function getTestDaiBalance() public view returns (uint256)\n    {\n        return(testDaiBalances[msg.sender]);\n    }\n\n    function getOwnerTrackerPrice(uint256 _tokenId, uint256 _index) public view returns (uint256)\n    {\n        return (ownerTracker[_tokenId][_index].price);\n    }\n\n    function getOwnerTrackerAddress(uint256 _tokenId, uint256 _index) public view returns (address)\n    {\n        return (ownerTracker[_tokenId][_index].owner);\n    }\n\n    function augurFundsOwed(uint256 _tokenId) public view returns (uint256 augurFundsDue) {\n        return price[_tokenId].mul(now.sub(timeLastCollected[_tokenId])).div(365 days);\n    }\n\n    function augurFundsOwedWithTimestamp(uint256 _tokenId) public view returns (uint256 augurFundsDue, uint256 timestamp) {\n        return (augurFundsOwed(_tokenId), now);\n    }\n    function foreclosed(uint256 _tokenId) public view returns (bool) {\n        // returns whether it is in foreclosed state or not\n        // depending on whether deposit covers patronage due\n        // useful helper function when price should be zero, but contract doesn't reflect it yet.\n        uint256 _collection = augurFundsOwed(_tokenId);\n        if(_collection >= deposits[_tokenId][msg.sender]) {\n            return true;\n        } else {\n            return false;\n        }\n    }\n\n    // this is only used to calculate foreclosure time\n    function liveDepositAbleToWithdraw(uint256 _tokenId) public view returns (uint256) {\n        uint256 _collection = augurFundsOwed(_tokenId);\n        address _currentOwner = team.ownerOf(_tokenId);\n        if(_collection >= deposits[_tokenId][_currentOwner]) {\n            return 0;\n        } else {\n            return deposits[_tokenId][_currentOwner].sub(_collection);\n        }\n    }\n\n    //this is my version of the above function. It shows how much each user can withdraw- whether or not they are the current owner. \n    function userDepositAbleToWithdraw(uint256 _tokenId) public view returns (uint256) {\n        uint256 _collection = augurFundsOwed(_tokenId);\n        address _currentOwner = team.ownerOf(_tokenId);\n\n        if(_currentOwner == msg.sender)\n        {\n            if(_collection >= deposits[_tokenId][msg.sender]) \n        {\n            return 0;\n        } else {\n            return deposits[_tokenId][msg.sender].sub(_collection);\n        }\n        } else {\n            return deposits[_tokenId][msg.sender];\n        }\n    }\n\n    function rentalExpiryTime(uint256 _tokenId) public view returns (uint256) {\n        uint256 pps = price[_tokenId].div(365 days);\n        if (pps == 0)\n        {\n            return now; //if price is so low that pps = 0 just return current time as a fallback\n        }\n        else\n        {\n            return now + liveDepositAbleToWithdraw(_tokenId).div(pps);\n        }\n    }\n\n    /* actions */\n    function _collectAugurFunds(uint256 _tokenId) public {\n        // determine patronage to pay\n        if (state[_tokenId] == ownedState.Owned) {\n            \n            uint256 _collection = augurFundsOwed(_tokenId);\n            address _currentOwner = team.ownerOf(_tokenId);\n            \n            // run out of deposit. Revert to Previous owner. \n            if (_collection >= deposits[_tokenId][_currentOwner]) {\n                // up to when was it actually paid for?\n\n                timeLastCollected[_tokenId] = timeLastCollected[_tokenId].add(((now.sub(timeLastCollected[_tokenId])).mul(deposits[_tokenId][_currentOwner]).div(_collection)));\n\n                _collection = deposits[_tokenId][_currentOwner]; // take what's left     \n                _revertToPreviousOwner(_tokenId);\n                \n            } else  {\n                // just a normal collection\n                timeLastCollected[_tokenId] = now;\n            }\n\n            deposits[_tokenId][_currentOwner] = deposits[_tokenId][_currentOwner].sub(_collection);\n            collectedAndSentToAugur[_tokenId] = collectedAndSentToAugur[_tokenId].add(_collection);\n            totalCollectedAndSentToAugur = totalCollectedAndSentToAugur.add(_collection);\n            // TODO: will  need a function here to actually send the dai to augur\n            emit LogCollection(_collection);\n        }\n    }\n\n    // note: anyone can deposit\n    function depositDai(uint256 _dai, uint256 _tokenId) public collectAugurFunds(_tokenId) {\n        require(state[_tokenId] != ownedState.Foreclosed, \"Foreclosed\");\n        testDaiBalances[msg.sender] = testDaiBalances[msg.sender].sub(_dai);\n        deposits[_tokenId][msg.sender] = deposits[_tokenId][msg.sender].add(_dai);\n    }\n    \n    function buy(uint256 _newPrice, uint256 _tokenId, uint256 _deposit) public collectAugurFunds(_tokenId) {\n        require(_newPrice > price[_tokenId], \"Price must be higher than current price\");\n        require(_deposit > 0, \"Must deposit something\");\n        require(testDaiBalances[msg.sender] >= _deposit, \"Not enough DAI\");\n        \n        testDaiBalances[msg.sender] = testDaiBalances[msg.sender].sub(_deposit);\n        deposits[_tokenId][msg.sender] = deposits[_tokenId][msg.sender].add(_deposit);\n        \n        address _currentOwner = team.ownerOf(_tokenId);\n\n        if(_currentOwner == msg.sender)\n        {\n            ownerTracker[_tokenId][currentOwnerIndex[_tokenId]].price = _newPrice;\n        }\n        else\n        {\n            currentOwnerIndex[_tokenId] = currentOwnerIndex[_tokenId] + 1; \n            // currentOwnerIndex[_tokenId] = currentOwnerIndex[_tokenId].add(1);\n            //^^ the above line causes VM errors, I need to figure out why\n            ownerTracker[_tokenId][currentOwnerIndex[_tokenId]].price = _newPrice;\n            ownerTracker[_tokenId][currentOwnerIndex[_tokenId]].owner = msg.sender; \n        }\n\n        if(state[_tokenId] == ownedState.Foreclosed) \n        {\n            state[_tokenId] = ownedState.Owned;\n        }\n        \n        _transferTokenTo(_currentOwner, msg.sender, _newPrice, _tokenId); //does this even if owner hasn't changed. this is ok. \n        emit LogBuy(msg.sender, _newPrice);\n    }\n\n    function changePrice(uint256 _newPrice, uint256 _tokenId) public onlyOwner(_tokenId) collectAugurFunds(_tokenId) {\n        require(state[_tokenId] != ownedState.Foreclosed, \"Foreclosed\");\n        require(_newPrice > price[_tokenId], \"New price must be higher than current price\"); //This is to prevent griefing- buying it then immediately dropping the price really low. The original project did not suffer from this problem because when you bought it, you had to pay the purchase price to the previous user, not so in mine. \n        \n        price[_tokenId] = _newPrice;\n        ownerTracker[_tokenId][currentOwnerIndex[_tokenId]].price = _newPrice;\n        emit LogPriceChange(price[_tokenId]);\n    }\n    \n    function withdrawDeposit(uint256 _dai, uint256 _tokenId) public onlyOwner(_tokenId) collectAugurFunds(_tokenId) returns (uint256) {\n        _withdrawDeposit(_dai, _tokenId);\n    }\n\n    function exit(uint256 _tokenId) public onlyOwner(_tokenId) collectAugurFunds(_tokenId) {\n        _withdrawDeposit(deposits[_tokenId][msg.sender],  _tokenId);\n    }\n\n    /* internal */\n    function _withdrawDeposit(uint256 _dai, uint256 _tokenId) internal {\n        // note: can withdraw whole deposit, which puts it in immediate to be foreclosed state.\n        require(deposits[_tokenId][msg.sender] >= _dai, 'Withdrawing too much');\n\n        deposits[_tokenId][msg.sender] = deposits[_tokenId][msg.sender].sub(_dai);\n        testDaiBalances[msg.sender] = testDaiBalances[msg.sender].add(_dai);\n        //TO DO THE SEND DAI FUNCTION, CANNOT DO ON TESTNET\n\n        if(deposits[_tokenId][msg.sender] == 0) {\n            _revertToPreviousOwner(_tokenId);\n        }\n    }\n\n    function _revertToPreviousOwner(uint256 _tokenId) internal {\n        bool _reverted = false;\n        while (_reverted == false)\n        {\n            assert(currentOwnerIndex[_tokenId] >=0);\n            currentOwnerIndex[_tokenId] = currentOwnerIndex[_tokenId] - 1; // ownerTraker will now point to  previous owner\n            uint256 _index = currentOwnerIndex[_tokenId]; //just for readability\n            address _previousOwner = ownerTracker[_tokenId][_index].owner;\n\n            if (_index == 0) \n            //no previous owners. price -> zero, foreclose\n            {\n                _foreclose(_tokenId);\n                _reverted = true;\n            }\n            else if (deposits[_tokenId][_previousOwner] > 0)\n            // previous owner still has a deposit, transfer to them, update the price to what it used to be\n            {\n                address _currentOwner = team.ownerOf(_tokenId);\n                uint256 _oldPrice = ownerTracker[_tokenId][_index].price;\n                _transferTokenTo(_currentOwner, _previousOwner, _oldPrice, _tokenId);\n                _reverted = true;\n            }\n        }       \n    }\n\n    function _foreclose(uint256 _tokenId) internal {\n        // I become steward of artwork (aka foreclose)\n        address _currentOwner = team.ownerOf(_tokenId);\n        //third field is price, ie price goes to zero\n        _transferTokenTo(_currentOwner, andrewsAddress, 0, _tokenId);\n        state[_tokenId] = ownedState.Foreclosed;\n        emit LogForeclosure(_currentOwner);\n    }\n\n    function _transferTokenTo(address _currentOwner, address _newOwner, uint256 _newPrice, uint256 _tokenId) internal {\n        //leaving the below for now only for testing, can remove in production\n        require(timeLastCollected[_tokenId] >= timeAcquired[_tokenId], \"timeAcquired is more recent than time last collected\");\n\n        timeHeld[_tokenId][_currentOwner] = timeHeld[_tokenId][_currentOwner].add((timeLastCollected[_tokenId].sub(timeAcquired[_tokenId])));\n\n        team.transferFrom(_currentOwner, _newOwner, _tokenId);\n        \n        price[_tokenId] = _newPrice;\n        timeAcquired[_tokenId] = now;\n        timeLastCollected[_tokenId] = now;\n    }\n}\n\n                // require(1 > 2, \"STFU\");\n",
  "sourcePath": "/Users/mcplums/Repos/Harber/contracts/Harber.sol",
  "compiler": {
    "name": "solc",
    "version": "0.5.12+commit.7709ece9.Emscripten.clang"
  },
  "schemaVersion": "3.0.19",
  "updatedAt": "2019-12-12T10:05:42.481Z",
  "networkType": "ethereum",
  "devdoc": {
    "methods": {}
  },
  "userdoc": {
    "methods": {}
  }
}