{
  "contractName": "Harber",
  "abi": [
    {
      "inputs": [
        {
          "internalType": "address",
          "name": "_andrewsAddress",
          "type": "address"
        },
        {
          "internalType": "address",
          "name": "_addressOfToken",
          "type": "address"
        },
        {
          "internalType": "address",
          "name": "_addressOfCashContract",
          "type": "address"
        },
        {
          "internalType": "address[5]",
          "name": "_addressesOfMarkets",
          "type": "address[5]"
        },
        {
          "internalType": "address",
          "name": "_addressOfCompleteSetsContract",
          "type": "address"
        },
        {
          "internalType": "address",
          "name": "_addressOfMainAugurContract",
          "type": "address"
        },
        {
          "internalType": "uint256",
          "name": "_marketExpectedResolutionTime",
          "type": "uint256"
        }
      ],
      "payable": false,
      "stateMutability": "nonpayable",
      "type": "constructor"
    },
    {
      "anonymous": false,
      "inputs": [
        {
          "indexed": true,
          "internalType": "address",
          "name": "owner",
          "type": "address"
        },
        {
          "indexed": true,
          "internalType": "uint256",
          "name": "price",
          "type": "uint256"
        }
      ],
      "name": "LogBuy",
      "type": "event"
    },
    {
      "anonymous": false,
      "inputs": [
        {
          "indexed": true,
          "internalType": "uint256",
          "name": "winningOutcome",
          "type": "uint256"
        },
        {
          "indexed": true,
          "internalType": "uint256",
          "name": "daiAvailableToDistribute",
          "type": "uint256"
        }
      ],
      "name": "LogFinalised",
      "type": "event"
    },
    {
      "anonymous": false,
      "inputs": [
        {
          "indexed": true,
          "internalType": "address",
          "name": "prevOwner",
          "type": "address"
        }
      ],
      "name": "LogForeclosure",
      "type": "event"
    },
    {
      "anonymous": false,
      "inputs": [
        {
          "indexed": true,
          "internalType": "uint256",
          "name": "newPrice",
          "type": "uint256"
        }
      ],
      "name": "LogPriceChange",
      "type": "event"
    },
    {
      "anonymous": false,
      "inputs": [
        {
          "indexed": true,
          "internalType": "uint256",
          "name": "collected",
          "type": "uint256"
        }
      ],
      "name": "LogRentCollection",
      "type": "event"
    },
    {
      "anonymous": false,
      "inputs": [
        {
          "indexed": true,
          "internalType": "uint256",
          "name": "tokenId",
          "type": "uint256"
        },
        {
          "indexed": true,
          "internalType": "address",
          "name": "previousOwner",
          "type": "address"
        }
      ],
      "name": "LogReturnToPreviousOwner",
      "type": "event"
    },
    {
      "constant": true,
      "inputs": [],
      "name": "a",
      "outputs": [
        {
          "internalType": "uint256",
          "name": "",
          "type": "uint256"
        }
      ],
      "payable": false,
      "stateMutability": "view",
      "type": "function"
    },
    {
      "constant": true,
      "inputs": [],
      "name": "b",
      "outputs": [
        {
          "internalType": "uint256",
          "name": "",
          "type": "uint256"
        }
      ],
      "payable": false,
      "stateMutability": "view",
      "type": "function"
    },
    {
      "constant": true,
      "inputs": [],
      "name": "c",
      "outputs": [
        {
          "internalType": "uint256",
          "name": "",
          "type": "uint256"
        }
      ],
      "payable": false,
      "stateMutability": "view",
      "type": "function"
    },
    {
      "constant": true,
      "inputs": [
        {
          "internalType": "uint256",
          "name": "",
          "type": "uint256"
        }
      ],
      "name": "collectedAndSentToAugur",
      "outputs": [
        {
          "internalType": "uint256",
          "name": "",
          "type": "uint256"
        }
      ],
      "payable": false,
      "stateMutability": "view",
      "type": "function"
    },
    {
      "constant": true,
      "inputs": [
        {
          "internalType": "uint256",
          "name": "",
          "type": "uint256"
        }
      ],
      "name": "currentOwnerIndex",
      "outputs": [
        {
          "internalType": "uint256",
          "name": "",
          "type": "uint256"
        }
      ],
      "payable": false,
      "stateMutability": "view",
      "type": "function"
    },
    {
      "constant": true,
      "inputs": [
        {
          "internalType": "address",
          "name": "",
          "type": "address"
        }
      ],
      "name": "depositReturnedToUser",
      "outputs": [
        {
          "internalType": "uint256",
          "name": "",
          "type": "uint256"
        }
      ],
      "payable": false,
      "stateMutability": "view",
      "type": "function"
    },
    {
      "constant": true,
      "inputs": [
        {
          "internalType": "uint256",
          "name": "",
          "type": "uint256"
        },
        {
          "internalType": "address",
          "name": "",
          "type": "address"
        }
      ],
      "name": "deposits",
      "outputs": [
        {
          "internalType": "uint256",
          "name": "",
          "type": "uint256"
        }
      ],
      "payable": false,
      "stateMutability": "view",
      "type": "function"
    },
    {
      "constant": true,
      "inputs": [],
      "name": "doneAndDusted",
      "outputs": [
        {
          "internalType": "bool",
          "name": "",
          "type": "bool"
        }
      ],
      "payable": false,
      "stateMutability": "view",
      "type": "function"
    },
    {
      "constant": true,
      "inputs": [
        {
          "internalType": "uint256",
          "name": "",
          "type": "uint256"
        },
        {
          "internalType": "address",
          "name": "",
          "type": "address"
        }
      ],
      "name": "everOwned",
      "outputs": [
        {
          "internalType": "bool",
          "name": "",
          "type": "bool"
        }
      ],
      "payable": false,
      "stateMutability": "view",
      "type": "function"
    },
    {
      "constant": true,
      "inputs": [
        {
          "internalType": "uint256",
          "name": "",
          "type": "uint256"
        }
      ],
      "name": "marketAddresses",
      "outputs": [
        {
          "internalType": "address",
          "name": "",
          "type": "address"
        }
      ],
      "payable": false,
      "stateMutability": "view",
      "type": "function"
    },
    {
      "constant": true,
      "inputs": [],
      "name": "marketExpectedResolutionTime",
      "outputs": [
        {
          "internalType": "uint256",
          "name": "",
          "type": "uint256"
        }
      ],
      "payable": false,
      "stateMutability": "view",
      "type": "function"
    },
    {
      "constant": true,
      "inputs": [],
      "name": "marketsResolved",
      "outputs": [
        {
          "internalType": "bool",
          "name": "",
          "type": "bool"
        }
      ],
      "payable": false,
      "stateMutability": "view",
      "type": "function"
    },
    {
      "constant": true,
      "inputs": [
        {
          "internalType": "uint256",
          "name": "",
          "type": "uint256"
        }
      ],
      "name": "numberOfOwners",
      "outputs": [
        {
          "internalType": "uint256",
          "name": "",
          "type": "uint256"
        }
      ],
      "payable": false,
      "stateMutability": "view",
      "type": "function"
    },
    {
      "constant": true,
      "inputs": [
        {
          "internalType": "uint256",
          "name": "",
          "type": "uint256"
        },
        {
          "internalType": "uint256",
          "name": "",
          "type": "uint256"
        }
      ],
      "name": "ownerTracker",
      "outputs": [
        {
          "internalType": "address",
          "name": "",
          "type": "address"
        }
      ],
      "payable": false,
      "stateMutability": "view",
      "type": "function"
    },
    {
      "constant": true,
      "inputs": [
        {
          "internalType": "uint256",
          "name": "",
          "type": "uint256"
        },
        {
          "internalType": "uint256",
          "name": "",
          "type": "uint256"
        }
      ],
      "name": "previousOwnerTracker",
      "outputs": [
        {
          "internalType": "address",
          "name": "owner",
          "type": "address"
        },
        {
          "internalType": "uint256",
          "name": "price",
          "type": "uint256"
        }
      ],
      "payable": false,
      "stateMutability": "view",
      "type": "function"
    },
    {
      "constant": true,
      "inputs": [
        {
          "internalType": "uint256",
          "name": "",
          "type": "uint256"
        }
      ],
      "name": "price",
      "outputs": [
        {
          "internalType": "uint256",
          "name": "",
          "type": "uint256"
        }
      ],
      "payable": false,
      "stateMutability": "view",
      "type": "function"
    },
    {
      "constant": true,
      "inputs": [
        {
          "internalType": "address",
          "name": "",
          "type": "address"
        }
      ],
      "name": "rentPaid",
      "outputs": [
        {
          "internalType": "uint256",
          "name": "",
          "type": "uint256"
        }
      ],
      "payable": false,
      "stateMutability": "view",
      "type": "function"
    },
    {
      "constant": true,
      "inputs": [
        {
          "internalType": "uint256",
          "name": "",
          "type": "uint256"
        }
      ],
      "name": "state",
      "outputs": [
        {
          "internalType": "enum Harber.ownedState",
          "name": "",
          "type": "uint8"
        }
      ],
      "payable": false,
      "stateMutability": "view",
      "type": "function"
    },
    {
      "constant": true,
      "inputs": [],
      "name": "team",
      "outputs": [
        {
          "internalType": "contract IERC721Full",
          "name": "",
          "type": "address"
        }
      ],
      "payable": false,
      "stateMutability": "view",
      "type": "function"
    },
    {
      "constant": true,
      "inputs": [
        {
          "internalType": "address",
          "name": "",
          "type": "address"
        }
      ],
      "name": "testDaiBalances",
      "outputs": [
        {
          "internalType": "uint256",
          "name": "",
          "type": "uint256"
        }
      ],
      "payable": false,
      "stateMutability": "view",
      "type": "function"
    },
    {
      "constant": true,
      "inputs": [
        {
          "internalType": "uint256",
          "name": "",
          "type": "uint256"
        }
      ],
      "name": "timeAcquired",
      "outputs": [
        {
          "internalType": "uint256",
          "name": "",
          "type": "uint256"
        }
      ],
      "payable": false,
      "stateMutability": "view",
      "type": "function"
    },
    {
      "constant": true,
      "inputs": [
        {
          "internalType": "uint256",
          "name": "",
          "type": "uint256"
        },
        {
          "internalType": "address",
          "name": "",
          "type": "address"
        }
      ],
      "name": "timeHeld",
      "outputs": [
        {
          "internalType": "uint256",
          "name": "",
          "type": "uint256"
        }
      ],
      "payable": false,
      "stateMutability": "view",
      "type": "function"
    },
    {
      "constant": true,
      "inputs": [
        {
          "internalType": "uint256",
          "name": "",
          "type": "uint256"
        }
      ],
      "name": "timeLastCollected",
      "outputs": [
        {
          "internalType": "uint256",
          "name": "",
          "type": "uint256"
        }
      ],
      "payable": false,
      "stateMutability": "view",
      "type": "function"
    },
    {
      "constant": true,
      "inputs": [],
      "name": "totalCollected",
      "outputs": [
        {
          "internalType": "uint256",
          "name": "",
          "type": "uint256"
        }
      ],
      "payable": false,
      "stateMutability": "view",
      "type": "function"
    },
    {
      "constant": true,
      "inputs": [
        {
          "internalType": "uint256",
          "name": "",
          "type": "uint256"
        }
      ],
      "name": "totalTimeHeld",
      "outputs": [
        {
          "internalType": "uint256",
          "name": "",
          "type": "uint256"
        }
      ],
      "payable": false,
      "stateMutability": "view",
      "type": "function"
    },
    {
      "constant": true,
      "inputs": [],
      "name": "winningOutcome",
      "outputs": [
        {
          "internalType": "uint256",
          "name": "",
          "type": "uint256"
        }
      ],
      "payable": false,
      "stateMutability": "view",
      "type": "function"
    },
    {
      "constant": true,
      "inputs": [
        {
          "internalType": "address",
          "name": "",
          "type": "address"
        }
      ],
      "name": "winningsSentToUser",
      "outputs": [
        {
          "internalType": "uint256",
          "name": "",
          "type": "uint256"
        }
      ],
      "payable": false,
      "stateMutability": "view",
      "type": "function"
    },
    {
      "constant": true,
      "inputs": [],
      "name": "getTestDaiBalance",
      "outputs": [
        {
          "internalType": "uint256",
          "name": "",
          "type": "uint256"
        }
      ],
      "payable": false,
      "stateMutability": "view",
      "type": "function"
    },
    {
      "constant": true,
      "inputs": [
        {
          "internalType": "uint256",
          "name": "_tokenId",
          "type": "uint256"
        },
        {
          "internalType": "uint256",
          "name": "_index",
          "type": "uint256"
        }
      ],
      "name": "getOwnerTrackerPrice",
      "outputs": [
        {
          "internalType": "uint256",
          "name": "",
          "type": "uint256"
        }
      ],
      "payable": false,
      "stateMutability": "view",
      "type": "function"
    },
    {
      "constant": true,
      "inputs": [
        {
          "internalType": "uint256",
          "name": "_tokenId",
          "type": "uint256"
        },
        {
          "internalType": "uint256",
          "name": "_index",
          "type": "uint256"
        }
      ],
      "name": "getOwnerTrackerAddress",
      "outputs": [
        {
          "internalType": "address",
          "name": "",
          "type": "address"
        }
      ],
      "payable": false,
      "stateMutability": "view",
      "type": "function"
    },
    {
      "constant": true,
      "inputs": [
        {
          "internalType": "uint256",
          "name": "_tokenId",
          "type": "uint256"
        }
      ],
      "name": "rentOwed",
      "outputs": [
        {
          "internalType": "uint256",
          "name": "augurFundsDue",
          "type": "uint256"
        }
      ],
      "payable": false,
      "stateMutability": "view",
      "type": "function"
    },
    {
      "constant": true,
      "inputs": [
        {
          "internalType": "uint256",
          "name": "_tokenId",
          "type": "uint256"
        }
      ],
      "name": "rentOwedWithTimestamp",
      "outputs": [
        {
          "internalType": "uint256",
          "name": "augurFundsDue",
          "type": "uint256"
        },
        {
          "internalType": "uint256",
          "name": "timestamp",
          "type": "uint256"
        }
      ],
      "payable": false,
      "stateMutability": "view",
      "type": "function"
    },
    {
      "constant": true,
      "inputs": [
        {
          "internalType": "uint256",
          "name": "_tokenId",
          "type": "uint256"
        }
      ],
      "name": "foreclosed",
      "outputs": [
        {
          "internalType": "bool",
          "name": "",
          "type": "bool"
        }
      ],
      "payable": false,
      "stateMutability": "view",
      "type": "function"
    },
    {
      "constant": true,
      "inputs": [
        {
          "internalType": "uint256",
          "name": "_tokenId",
          "type": "uint256"
        }
      ],
      "name": "liveDepositAbleToWithdraw",
      "outputs": [
        {
          "internalType": "uint256",
          "name": "",
          "type": "uint256"
        }
      ],
      "payable": false,
      "stateMutability": "view",
      "type": "function"
    },
    {
      "constant": true,
      "inputs": [
        {
          "internalType": "uint256",
          "name": "_tokenId",
          "type": "uint256"
        }
      ],
      "name": "userDepositAbleToWithdraw",
      "outputs": [
        {
          "internalType": "uint256",
          "name": "",
          "type": "uint256"
        }
      ],
      "payable": false,
      "stateMutability": "view",
      "type": "function"
    },
    {
      "constant": true,
      "inputs": [
        {
          "internalType": "uint256",
          "name": "_tokenId",
          "type": "uint256"
        }
      ],
      "name": "rentalExpiryTime",
      "outputs": [
        {
          "internalType": "uint256",
          "name": "",
          "type": "uint256"
        }
      ],
      "payable": false,
      "stateMutability": "view",
      "type": "function"
    },
    {
      "constant": false,
      "inputs": [],
      "name": "getTestDai",
      "outputs": [],
      "payable": false,
      "stateMutability": "nonpayable",
      "type": "function"
    },
    {
      "constant": false,
      "inputs": [],
      "name": "getWinner",
      "outputs": [],
      "payable": false,
      "stateMutability": "nonpayable",
      "type": "function"
    },
    {
      "constant": false,
      "inputs": [],
      "name": "emergencyExit",
      "outputs": [],
      "payable": false,
      "stateMutability": "nonpayable",
      "type": "function"
    },
    {
      "constant": false,
      "inputs": [
        {
          "internalType": "uint256",
          "name": "_tokenId",
          "type": "uint256"
        }
      ],
      "name": "_collectRent",
      "outputs": [],
      "payable": false,
      "stateMutability": "nonpayable",
      "type": "function"
    },
    {
      "constant": false,
      "inputs": [
        {
          "internalType": "uint256",
          "name": "_newPrice",
          "type": "uint256"
        },
        {
          "internalType": "uint256",
          "name": "_tokenId",
          "type": "uint256"
        },
        {
          "internalType": "uint256",
          "name": "_deposit",
          "type": "uint256"
        }
      ],
      "name": "buy",
      "outputs": [],
      "payable": false,
      "stateMutability": "nonpayable",
      "type": "function"
    },
    {
      "constant": false,
      "inputs": [
        {
          "internalType": "uint256",
          "name": "_dai",
          "type": "uint256"
        },
        {
          "internalType": "uint256",
          "name": "_tokenId",
          "type": "uint256"
        }
      ],
      "name": "depositDai",
      "outputs": [],
      "payable": false,
      "stateMutability": "nonpayable",
      "type": "function"
    },
    {
      "constant": false,
      "inputs": [
        {
          "internalType": "uint256",
          "name": "_newPrice",
          "type": "uint256"
        },
        {
          "internalType": "uint256",
          "name": "_tokenId",
          "type": "uint256"
        }
      ],
      "name": "changePrice",
      "outputs": [],
      "payable": false,
      "stateMutability": "nonpayable",
      "type": "function"
    },
    {
      "constant": false,
      "inputs": [
        {
          "internalType": "uint256",
          "name": "_dai",
          "type": "uint256"
        },
        {
          "internalType": "uint256",
          "name": "_tokenId",
          "type": "uint256"
        }
      ],
      "name": "withdrawDeposit",
      "outputs": [
        {
          "internalType": "uint256",
          "name": "",
          "type": "uint256"
        }
      ],
      "payable": false,
      "stateMutability": "nonpayable",
      "type": "function"
    },
    {
      "constant": false,
      "inputs": [
        {
          "internalType": "uint256",
          "name": "_tokenId",
          "type": "uint256"
        }
      ],
      "name": "exit",
      "outputs": [],
      "payable": false,
      "stateMutability": "nonpayable",
      "type": "function"
    }
  ],
  "bytecode": "0x608060405260008055600060015560006002556000603260006101000a81548160ff0219169083151502179055506000603260016101000a81548160ff02191690831515021790555060636033553480156200005a57600080fd5b50604051620052de380380620052de83398181016040526101608110156200008157600080fd5b8101908080519060200190929190805190602001909291908051906020019092919091908260a00180519060200190929190805190602001909291908051906020019092919050505085600560006101000a81548173ffffffffffffffffffffffffffffffffffffffff021916908373ffffffffffffffffffffffffffffffffffffffff160217905550600560009054906101000a900473ffffffffffffffffffffffffffffffffffffffff1673ffffffffffffffffffffffffffffffffffffffff1663ba0bba406040518163ffffffff1660e01b8152600401600060405180830381600087803b1580156200017657600080fd5b505af11580156200018b573d6000803e3d6000fd5b5050505086600d60006101000a81548173ffffffffffffffffffffffffffffffffffffffff021916908373ffffffffffffffffffffffffffffffffffffffff16021790555083600e906005620001e392919062000473565b5060008090505b6005811015620002c4576000602882600581106200020457fe5b01819055506000602d82600581106200021957fe5b01819055506000603d82600581106200022e57fe5b602091828204019190066101000a81548160ff021916908360018111156200025257fe5b02179055508481600581106200026457fe5b6020020151600682600581106200027757fe5b0160006101000a81548173ffffffffffffffffffffffffffffffffffffffff021916908373ffffffffffffffffffffffffffffffffffffffff1602179055508080600101915050620001ea565b5084600c60006101000a81548173ffffffffffffffffffffffffffffffffffffffff021916908373ffffffffffffffffffffffffffffffffffffffff16021790555082600b60006101000a81548173ffffffffffffffffffffffffffffffffffffffff021916908373ffffffffffffffffffffffffffffffffffffffff16021790555080603481905550600115156000151514156200046657600c60009054906101000a900473ffffffffffffffffffffffffffffffffffffffff1673ffffffffffffffffffffffffffffffffffffffff1663095ea7b3837fffffffffffffffffffffffffffffffffffffffffffffffffffffffffffffffff6040518363ffffffff1660e01b8152600401808373ffffffffffffffffffffffffffffffffffffffff1673ffffffffffffffffffffffffffffffffffffffff16815260200182815260200192505050602060405180830381600087803b1580156200042757600080fd5b505af11580156200043c573d6000803e3d6000fd5b505050506040513d60208110156200045357600080fd5b8101908080519060200190929190505050505b505050505050506200053b565b8260058101928215620004e2579160200282015b82811115620004e15782518260006101000a81548173ffffffffffffffffffffffffffffffffffffffff021916908373ffffffffffffffffffffffffffffffffffffffff1602179055509160200191906001019062000487565b5b509050620004f19190620004f5565b5090565b6200053891905b808211156200053457600081816101000a81549073ffffffffffffffffffffffffffffffffffffffff021916905550600101620004fc565b5090565b90565b614d93806200054b6000396000f3fe608060405234801561001057600080fd5b506004361061027f5760003560e01c806385f2aef21161015c578063b3de019c116100ce578063e29eb83611610087578063e29eb83614610c54578063f015e54e14610c72578063f06197b714610cb4578063f3cebadb14610d00578063f88489c214610d0a578063fce0eb0214610d825761027f565b8063b3de019c14610ad6578063bae04c9a14610b0e578063c354a0a614610b5a578063c3da42b814610b9c578063cb29417714610bba578063d5780ec414610c125761027f565b806397b4550a1161012057806397b4550a146109055780639b34ae031461097d5780639e7318121461099b578063a1c84e9114610a1a578063a36252bf14610a72578063a57aa8eb14610ab45761027f565b806385f2aef2146107f95780638cb68899146108435780638e6e3f93146108855780638e7ea5b2146108dd578063977f1b28146108e75761027f565b806340993b26116101f55780635b2ace64116101b95780635b2ace64146106845780635dfd7e9b146106c65780636ca871e3146106fe57806370a23f751461074757806373a5226f146107895780637f8661a1146107cb5761027f565b806340993b261461059657806348bdf8fe146105d85780634df7e3d0146105fa57806353a58de1146106185780635641ec031461067a5761027f565b806326a49e371161024757806326a49e37146103de57806330787fd814610420578063321c77711461047857806332f2b04d14610496578063350293a1146104d85780633e4f49e6146105465761027f565b80630dbe671f14610284578063171a2409146102a25780631e8b76ad14610308578063237b5e4f1461034e57806325947a52146103b0575b600080fd5b61028c610dc4565b6040518082815260200191505060405180910390f35b6102ee600480360360408110156102b857600080fd5b8101908080359060200190929190803573ffffffffffffffffffffffffffffffffffffffff169060200190929190505050610dca565b604051808215151515815260200191505060405180910390f35b6103346004803603602081101561031e57600080fd5b8101908080359060200190929190505050610df9565b604051808215151515815260200191505060405180910390f35b61039a6004803603604081101561036457600080fd5b8101908080359060200190929190803573ffffffffffffffffffffffffffffffffffffffff169060200190929190505050610e73565b6040518082815260200191505060405180910390f35b6103dc600480360360208110156103c657600080fd5b8101908080359060200190929190505050610e98565b005b61040a600480360360208110156103f457600080fd5b810190808035906020019092919050505061159a565b6040518082815260200191505060405180910390f35b6104626004803603602081101561043657600080fd5b81019080803573ffffffffffffffffffffffffffffffffffffffff1690602001909291905050506115b2565b6040518082815260200191505060405180910390f35b6104806115ca565b6040518082815260200191505060405180910390f35b6104c2600480360360208110156104ac57600080fd5b8101908080359060200190929190505050611611565b6040518082815260200191505060405180910390f35b610504600480360360208110156104ee57600080fd5b81019080803590602001909291905050506117a0565b604051808273ffffffffffffffffffffffffffffffffffffffff1673ffffffffffffffffffffffffffffffffffffffff16815260200191505060405180910390f35b6105726004803603602081101561055c57600080fd5b81019080803590602001909291905050506117d3565b6040518082600181111561058257fe5b60ff16815260200191505060405180910390f35b6105d6600480360360608110156105ac57600080fd5b810190808035906020019092919080359060200190929190803590602001909291905050506117fa565b005b6105e0611e65565b604051808215151515815260200191505060405180910390f35b610602611e78565b6040518082815260200191505060405180910390f35b6106646004803603604081101561062e57600080fd5b8101908080359060200190929190803573ffffffffffffffffffffffffffffffffffffffff169060200190929190505050611e7e565b6040518082815260200191505060405180910390f35b610682611ea3565b005b6106b06004803603602081101561069a57600080fd5b8101908080359060200190929190505050611f6d565b6040518082815260200191505060405180910390f35b6106fc600480360360408110156106dc57600080fd5b810190808035906020019092919080359060200190929190505050611f85565b005b61072a6004803603602081101561071457600080fd5b81019080803590602001909291905050506121af565b604051808381526020018281526020019250505060405180910390f35b6107736004803603602081101561075d57600080fd5b81019080803590602001909291905050506121c5565b6040518082815260200191505060405180910390f35b6107b56004803603602081101561079f57600080fd5b8101908080359060200190929190505050612289565b6040518082815260200191505060405180910390f35b6107f7600480360360208110156107e157600080fd5b81019080803590602001909291905050506124a6565b005b61080161267e565b604051808273ffffffffffffffffffffffffffffffffffffffff1673ffffffffffffffffffffffffffffffffffffffff16815260200191505060405180910390f35b61086f6004803603602081101561085957600080fd5b81019080803590602001909291905050506126a4565b6040518082815260200191505060405180910390f35b6108c76004803603602081101561089b57600080fd5b81019080803573ffffffffffffffffffffffffffffffffffffffff1690602001909291905050506126bc565b6040518082815260200191505060405180910390f35b6108e56126d4565b005b6108ef612759565b6040518082815260200191505060405180910390f35b61093b6004803603604081101561091b57600080fd5b81019080803590602001909291908035906020019092919050505061275f565b604051808273ffffffffffffffffffffffffffffffffffffffff1673ffffffffffffffffffffffffffffffffffffffff16815260200191505060405180910390f35b6109856127b1565b6040518082815260200191505060405180910390f35b6109d1600480360360408110156109b157600080fd5b8101908080359060200190929190803590602001909291905050506127b7565b604051808373ffffffffffffffffffffffffffffffffffffffff1673ffffffffffffffffffffffffffffffffffffffff1681526020018281526020019250505060405180910390f35b610a5c60048036036020811015610a3057600080fd5b81019080803573ffffffffffffffffffffffffffffffffffffffff169060200190929190505050612808565b6040518082815260200191505060405180910390f35b610a9e60048036036020811015610a8857600080fd5b8101908080359060200190929190505050612820565b6040518082815260200191505060405180910390f35b610abc612838565b604051808215151515815260200191505060405180910390f35b610b0c60048036036040811015610aec57600080fd5b81019080803590602001909291908035906020019092919050505061284b565b005b610b4460048036036040811015610b2457600080fd5b810190808035906020019092919080359060200190929190505050612b67565b6040518082815260200191505060405180910390f35b610b8660048036036020811015610b7057600080fd5b8101908080359060200190929190505050612cf4565b6040518082815260200191505060405180910390f35b610ba4612d0c565b6040518082815260200191505060405180910390f35b610bfc60048036036020811015610bd057600080fd5b81019080803573ffffffffffffffffffffffffffffffffffffffff169060200190929190505050612d12565b6040518082815260200191505060405180910390f35b610c3e60048036036020811015610c2857600080fd5b8101908080359060200190929190505050612d2a565b6040518082815260200191505060405180910390f35b610c5c612d42565b6040518082815260200191505060405180910390f35b610c9e60048036036020811015610c8857600080fd5b8101908080359060200190929190505050612d48565b6040518082815260200191505060405180910390f35b610cea60048036036040811015610cca57600080fd5b810190808035906020019092919080359060200190929190505050612d60565b6040518082815260200191505060405180910390f35b610d08612d92565b005b610d4060048036036040811015610d2057600080fd5b810190808035906020019092919080359060200190929190505050612f52565b604051808273ffffffffffffffffffffffffffffffffffffffff1673ffffffffffffffffffffffffffffffffffffffff16815260200191505060405180910390f35b610dae60048036036020811015610d9857600080fd5b8101908080359060200190929190505050612f94565b6040518082815260200191505060405180910390f35b60005481565b603b6020528160005260406000206020528060005260406000206000915091509054906101000a900460ff1681565b600080610e05836121c5565b90506039600084815260200190815260200160002060003373ffffffffffffffffffffffffffffffffffffffff1673ffffffffffffffffffffffffffffffffffffffff168152602001908152602001600020548110610e68576001915050610e6e565b60009150505b919050565b6037602052816000526040600020602052806000526040600020600091509150505481565b60001515603260009054906101000a900460ff16151514610eb857600080fd5b600180811115610ec457fe5b603d8260058110610ed157fe5b602091828204019190069054906101000a900460ff166001811115610ef257fe5b1415611597576000610f03826121c5565b90506000600560009054906101000a900473ffffffffffffffffffffffffffffffffffffffff1673ffffffffffffffffffffffffffffffffffffffff16636352211e846040518263ffffffff1660e01b81526004018082815260200191505060206040518083038186803b158015610f7a57600080fd5b505afa158015610f8e573d6000803e3d6000fd5b505050506040513d6020811015610fa457600080fd5b8101908080519060200190929190505050905060006039600085815260200190815260200160002060008373ffffffffffffffffffffffffffffffffffffffff1673ffffffffffffffffffffffffffffffffffffffff168152602001908152602001600020548310611128576110c56110a88461109a6039600089815260200190815260200160002060008773ffffffffffffffffffffffffffffffffffffffff1673ffffffffffffffffffffffffffffffffffffffff1681526020019081526020016000205461108c601e8a6005811061107b57fe5b015442612ff690919063ffffffff16565b61304090919063ffffffff16565b6130c690919063ffffffff16565b601e86600581106110b557fe5b015461311090919063ffffffff16565b90506039600085815260200190815260200160002060008373ffffffffffffffffffffffffffffffffffffffff1673ffffffffffffffffffffffffffffffffffffffff16815260200190815260200160002054925061112384613198565b61112c565b4290505b60001515603b600086815260200190815260200160002060008473ffffffffffffffffffffffffffffffffffffffff1673ffffffffffffffffffffffffffffffffffffffff16815260200190815260200160002060009054906101000a900460ff1615151415611295576001603b600086815260200190815260200160002060008473ffffffffffffffffffffffffffffffffffffffff1673ffffffffffffffffffffffffffffffffffffffff16815260200190815260200160002060006101000a81548160ff02191690831515021790555081603660008681526020019081526020016000206000602d876005811061122257fe5b0154815260200190815260200160002060006101000a81548173ffffffffffffffffffffffffffffffffffffffff021916908373ffffffffffffffffffffffffffffffffffffffff1602179055506001602d856005811061127f57fe5b015401602d856005811061128f57fe5b01819055505b6112e783603c60008573ffffffffffffffffffffffffffffffffffffffff1673ffffffffffffffffffffffffffffffffffffffff1681526020019081526020016000205461311090919063ffffffff16565b603c60008473ffffffffffffffffffffffffffffffffffffffff1673ffffffffffffffffffffffffffffffffffffffff16815260200190815260200160002081905550600061134d601e866005811061133c57fe5b015483612ff690919063ffffffff16565b90506113b2816037600088815260200190815260200160002060008673ffffffffffffffffffffffffffffffffffffffff1673ffffffffffffffffffffffffffffffffffffffff1681526020019081526020016000205461311090919063ffffffff16565b6037600087815260200190815260200160002060008573ffffffffffffffffffffffffffffffffffffffff1673ffffffffffffffffffffffffffffffffffffffff1681526020019081526020016000208190555061142c81603860008881526020019081526020016000205461311090919063ffffffff16565b603860008781526020019081526020016000208190555042601e866005811061145157fe5b01819055506114b9846039600088815260200190815260200160002060008673ffffffffffffffffffffffffffffffffffffffff1673ffffffffffffffffffffffffffffffffffffffff16815260200190815260200160002054612ff690919063ffffffff16565b6039600087815260200190815260200160002060008573ffffffffffffffffffffffffffffffffffffffff1673ffffffffffffffffffffffffffffffffffffffff1681526020019081526020016000208190555061152e846018876005811061151e57fe5b015461311090919063ffffffff16565b6018866005811061153b57fe5b018190555061155584601d5461311090919063ffffffff16565b601d8190555061156585856133fc565b837f6ab0172416aeaedce744fba85809be02ae7a61ff89203ff71a33291dc9f310f460405160405180910390a2505050505b50565b601381600581106115a757fe5b016000915090505481565b60046020528060005260406000206000915090505481565b6000603a60003373ffffffffffffffffffffffffffffffffffffffff1673ffffffffffffffffffffffffffffffffffffffff16815260200190815260200160002054905090565b60008061161d836121c5565b90506000600560009054906101000a900473ffffffffffffffffffffffffffffffffffffffff1673ffffffffffffffffffffffffffffffffffffffff16636352211e856040518263ffffffff1660e01b81526004018082815260200191505060206040518083038186803b15801561169457600080fd5b505afa1580156116a8573d6000803e3d6000fd5b505050506040513d60208110156116be57600080fd5b810190808051906020019092919050505090506039600085815260200190815260200160002060008273ffffffffffffffffffffffffffffffffffffffff1673ffffffffffffffffffffffffffffffffffffffff1681526020019081526020016000205482106117335760009250505061179b565b611796826039600087815260200190815260200160002060008473ffffffffffffffffffffffffffffffffffffffff1673ffffffffffffffffffffffffffffffffffffffff16815260200190815260200160002054612ff690919063ffffffff16565b925050505b919050565b600e81600581106117ad57fe5b016000915054906101000a900473ffffffffffffffffffffffffffffffffffffffff1681565b603d81600581106117e057fe5b60209182820401919006915054906101000a900460ff1681565b8161180481610e98565b60001515603260009054906101000a900460ff1615151461182457600080fd5b6005831061189a576040517f08c379a00000000000000000000000000000000000000000000000000000000081526004018080602001828103825260188152602001807f54686973207465616d20646f6573206e6f74206578697374000000000000000081525060200191505060405180910390fd5b601383600581106118a757fe5b01548411611900576040517f08c379a0000000000000000000000000000000000000000000000000000000008152600401808060200182810382526027815260200180614d176027913960400191505060405180910390fd5b60008211611976576040517f08c379a00000000000000000000000000000000000000000000000000000000081526004018080602001828103825260168152602001807f4d757374206465706f73697420736f6d657468696e670000000000000000000081525060200191505060405180910390fd5b81603a60003373ffffffffffffffffffffffffffffffffffffffff1673ffffffffffffffffffffffffffffffffffffffff168152602001908152602001600020541015611a2b576040517f08c379a000000000000000000000000000000000000000000000000000000000815260040180806020018281038252600e8152602001807f4e6f7420656e6f7567682044414900000000000000000000000000000000000081525060200191505060405180910390fd5b611a7d82603a60003373ffffffffffffffffffffffffffffffffffffffff1673ffffffffffffffffffffffffffffffffffffffff16815260200190815260200160002054612ff690919063ffffffff16565b603a60003373ffffffffffffffffffffffffffffffffffffffff1673ffffffffffffffffffffffffffffffffffffffff16815260200190815260200160002081905550611b23826039600086815260200190815260200160002060003373ffffffffffffffffffffffffffffffffffffffff1673ffffffffffffffffffffffffffffffffffffffff1681526020019081526020016000205461311090919063ffffffff16565b6039600085815260200190815260200160002060003373ffffffffffffffffffffffffffffffffffffffff1673ffffffffffffffffffffffffffffffffffffffff168152602001908152602001600020819055506000600560009054906101000a900473ffffffffffffffffffffffffffffffffffffffff1673ffffffffffffffffffffffffffffffffffffffff16636352211e856040518263ffffffff1660e01b81526004018082815260200191505060206040518083038186803b158015611bec57600080fd5b505afa158015611c00573d6000803e3d6000fd5b505050506040513d6020811015611c1657600080fd5b810190808051906020019092919050505090503373ffffffffffffffffffffffffffffffffffffffff168173ffffffffffffffffffffffffffffffffffffffff161415611c9c578460356000868152602001908152602001600020600060288760058110611c8057fe5b0154815260200190815260200160002060010181905550611d6f565b600160288560058110611cab57fe5b01540160288560058110611cbb57fe5b01819055508460356000868152602001908152602001600020600060288760058110611ce357fe5b01548152602001908152602001600020600101819055503360356000868152602001908152602001600020600060288760058110611d1d57fe5b0154815260200190815260200160002060000160006101000a81548173ffffffffffffffffffffffffffffffffffffffff021916908373ffffffffffffffffffffffffffffffffffffffff1602179055505b60006001811115611d7c57fe5b603d8560058110611d8957fe5b602091828204019190069054906101000a900460ff166001811115611daa57fe5b1415611dfb576001603d8560058110611dbf57fe5b602091828204019190066101000a81548160ff02191690836001811115611de257fe5b021790555042601e8560058110611df557fe5b01819055505b4260238560058110611e0957fe5b0181905550611e1a8133878761353b565b843373ffffffffffffffffffffffffffffffffffffffff167f4f79409f494e81c38036d80aa8a6507c2cb08d90bfb2fead5519447646b3497e60405160405180910390a35050505050565b603260009054906101000a900460ff1681565b60015481565b6039602052816000526040600020602052806000526040600020600091509150505481565b60001515603260009054906101000a900460ff16151514611ec357600080fd5b62f0c3f0603454014211611f22576040517f08c379a0000000000000000000000000000000000000000000000000000000008152600401808060200182810382526023815260200180614cf46023913960400191505060405180910390fd5b60008090505b6005811015611f4757611f3a81610e98565b8080600101915050611f28565b506001603260006101000a81548160ff021916908315150217905550611f6b613649565b565b60238160058110611f7a57fe5b016000915090505481565b80611f8f81610e98565b60001515603260009054906101000a900460ff16151514611faf57600080fd5b60006001811115611fbc57fe5b603d8360058110611fc957fe5b602091828204019190069054906101000a900460ff166001811115611fea57fe5b141561205e576040517f08c379a000000000000000000000000000000000000000000000000000000000815260040180806020018281038252600a8152602001807f466f7265636c6f7365640000000000000000000000000000000000000000000081525060200191505060405180910390fd5b6120b083603a60003373ffffffffffffffffffffffffffffffffffffffff1673ffffffffffffffffffffffffffffffffffffffff16815260200190815260200160002054612ff690919063ffffffff16565b603a60003373ffffffffffffffffffffffffffffffffffffffff1673ffffffffffffffffffffffffffffffffffffffff16815260200190815260200160002081905550612156836039600085815260200190815260200160002060003373ffffffffffffffffffffffffffffffffffffffff1673ffffffffffffffffffffffffffffffffffffffff1681526020019081526020016000205461311090919063ffffffff16565b6039600084815260200190815260200160002060003373ffffffffffffffffffffffffffffffffffffffff1673ffffffffffffffffffffffffffffffffffffffff16815260200190815260200160002081905550505050565b6000806121bb836121c5565b4291509150915091565b6000801561222a57612223620151806122156121f8601e86600581106121e757fe5b015442612ff690919063ffffffff16565b6013866005811061220557fe5b015461304090919063ffffffff16565b6130c690919063ffffffff16565b9050612284565b6122816301e13380612273612256601e866005811061224557fe5b015442612ff690919063ffffffff16565b6013866005811061226357fe5b015461304090919063ffffffff16565b6130c690919063ffffffff16565b90505b919050565b600080612295836121c5565b90506000600560009054906101000a900473ffffffffffffffffffffffffffffffffffffffff1673ffffffffffffffffffffffffffffffffffffffff16636352211e856040518263ffffffff1660e01b81526004018082815260200191505060206040518083038186803b15801561230c57600080fd5b505afa158015612320573d6000803e3d6000fd5b505050506040513d602081101561233657600080fd5b810190808051906020019092919050505090503373ffffffffffffffffffffffffffffffffffffffff168173ffffffffffffffffffffffffffffffffffffffff16141561244b576039600085815260200190815260200160002060003373ffffffffffffffffffffffffffffffffffffffff1673ffffffffffffffffffffffffffffffffffffffff1681526020019081526020016000205482106123df576000925050506124a1565b612442826039600087815260200190815260200160002060003373ffffffffffffffffffffffffffffffffffffffff1673ffffffffffffffffffffffffffffffffffffffff16815260200190815260200160002054612ff690919063ffffffff16565b925050506124a1565b6039600085815260200190815260200160002060003373ffffffffffffffffffffffffffffffffffffffff1673ffffffffffffffffffffffffffffffffffffffff16815260200190815260200160002054925050505b919050565b80600560009054906101000a900473ffffffffffffffffffffffffffffffffffffffff1673ffffffffffffffffffffffffffffffffffffffff16636352211e826040518263ffffffff1660e01b81526004018082815260200191505060206040518083038186803b15801561251a57600080fd5b505afa15801561252e573d6000803e3d6000fd5b505050506040513d602081101561254457600080fd5b810190808051906020019092919050505073ffffffffffffffffffffffffffffffffffffffff163373ffffffffffffffffffffffffffffffffffffffff16146125f5576040517f08c379a00000000000000000000000000000000000000000000000000000000081526004018080602001828103825260098152602001807f4e6f74206f776e6572000000000000000000000000000000000000000000000081525060200191505060405180910390fd5b816125ff81610e98565b60001515603260009054906101000a900460ff1615151461261f57600080fd5b6126796039600085815260200190815260200160002060003373ffffffffffffffffffffffffffffffffffffffff1673ffffffffffffffffffffffffffffffffffffffff1681526020019081526020016000205484613923565b505050565b600560009054906101000a900473ffffffffffffffffffffffffffffffffffffffff1681565b601e81600581106126b157fe5b016000915090505481565b60036020528060005260406000206000915090505481565b60001515603260009054906101000a900460ff161515146126f457600080fd5b60008090505b60058110156127195761270c81610e98565b80806001019150506126fa565b506000612724613ba8565b90508015612756576000612736613e81565b9050801561274b57612746614166565b612754565b612753613649565b5b505b50565b60345481565b600060356000848152602001908152602001600020600083815260200190815260200160002060000160009054906101000a900473ffffffffffffffffffffffffffffffffffffffff16905092915050565b60335481565b6035602052816000526040600020602052806000526040600020600091509150508060000160009054906101000a900473ffffffffffffffffffffffffffffffffffffffff16908060010154905082565b603c6020528060005260406000206000915090505481565b60386020528060005260406000206000915090505481565b603260019054906101000a900460ff1681565b80600560009054906101000a900473ffffffffffffffffffffffffffffffffffffffff1673ffffffffffffffffffffffffffffffffffffffff16636352211e826040518263ffffffff1660e01b81526004018082815260200191505060206040518083038186803b1580156128bf57600080fd5b505afa1580156128d3573d6000803e3d6000fd5b505050506040513d60208110156128e957600080fd5b810190808051906020019092919050505073ffffffffffffffffffffffffffffffffffffffff163373ffffffffffffffffffffffffffffffffffffffff161461299a576040517f08c379a00000000000000000000000000000000000000000000000000000000081526004018080602001828103825260098152602001807f4e6f74206f776e6572000000000000000000000000000000000000000000000081525060200191505060405180910390fd5b816129a481610e98565b60001515603260009054906101000a900460ff161515146129c457600080fd5b600060018111156129d157fe5b603d84600581106129de57fe5b602091828204019190069054906101000a900460ff1660018111156129ff57fe5b1415612a73576040517f08c379a000000000000000000000000000000000000000000000000000000000815260040180806020018281038252600a8152602001807f466f7265636c6f7365640000000000000000000000000000000000000000000081525060200191505060405180910390fd5b60138360058110612a8057fe5b01548411612ad9576040517f08c379a000000000000000000000000000000000000000000000000000000000815260040180806020018281038252602b815260200180614cc9602b913960400191505060405180910390fd5b8360138460058110612ae757fe5b01819055508360356000858152602001908152602001600020600060288660058110612b0f57fe5b015481526020019081526020016000206001018190555060138360058110612b3357fe5b01547f854d6511a28585103049c7770618450f7c9aeb580c69db2913d63869663f475160405160405180910390a250505050565b600081600560009054906101000a900473ffffffffffffffffffffffffffffffffffffffff1673ffffffffffffffffffffffffffffffffffffffff16636352211e826040518263ffffffff1660e01b81526004018082815260200191505060206040518083038186803b158015612bdd57600080fd5b505afa158015612bf1573d6000803e3d6000fd5b505050506040513d6020811015612c0757600080fd5b810190808051906020019092919050505073ffffffffffffffffffffffffffffffffffffffff163373ffffffffffffffffffffffffffffffffffffffff1614612cb8576040517f08c379a00000000000000000000000000000000000000000000000000000000081526004018080602001828103825260098152602001807f4e6f74206f776e6572000000000000000000000000000000000000000000000081525060200191505060405180910390fd5b82612cc281610e98565b60001515603260009054906101000a900460ff16151514612ce257600080fd5b612cec8585613923565b505092915050565b60188160058110612d0157fe5b016000915090505481565b60025481565b603a6020528060005260406000206000915090505481565b602d8160058110612d3757fe5b016000915090505481565b601d5481565b60288160058110612d5557fe5b016000915090505481565b600060356000848152602001908152602001600020600083815260200190815260200160002060010154905092915050565b60011515600015151415612ec957600c60009054906101000a900473ffffffffffffffffffffffffffffffffffffffff1673ffffffffffffffffffffffffffffffffffffffff16635791589768056bc75e2d631000006040518263ffffffff1660e01b815260040180828152602001915050600060405180830381600087803b158015612e1e57600080fd5b505af1158015612e32573d6000803e3d6000fd5b5050505068056bc75e2d63100000603a60003373ffffffffffffffffffffffffffffffffffffffff1673ffffffffffffffffffffffffffffffffffffffff1681526020019081526020016000205401603a60003373ffffffffffffffffffffffffffffffffffffffff1673ffffffffffffffffffffffffffffffffffffffff16815260200190815260200160002081905550612f50565b6064603a60003373ffffffffffffffffffffffffffffffffffffffff1673ffffffffffffffffffffffffffffffffffffffff1681526020019081526020016000205401603a60003373ffffffffffffffffffffffffffffffffffffffff1673ffffffffffffffffffffffffffffffffffffffff168152602001908152602001600020819055505b565b60366020528160005260406000206020528060005260406000206000915091509054906101000a900473ffffffffffffffffffffffffffffffffffffffff1681565b600080612fbc6301e1338060138560058110612fac57fe5b01546130c690919063ffffffff16565b90506000811415612fd05742915050612ff1565b612feb81612fdd85611611565b6130c690919063ffffffff16565b42019150505b919050565b600061303883836040518060400160405280601e81526020017f536166654d6174683a207375627472616374696f6e206f766572666c6f770000815250614404565b905092915050565b60008083141561305357600090506130c0565b600082840290508284828161306457fe5b04146130bb576040517f08c379a0000000000000000000000000000000000000000000000000000000008152600401808060200182810382526021815260200180614d3e6021913960400191505060405180910390fd5b809150505b92915050565b600061310883836040518060400160405280601a81526020017f536166654d6174683a206469766973696f6e206279207a65726f0000000000008152506144c4565b905092915050565b60008082840190508381101561318e576040517f08c379a000000000000000000000000000000000000000000000000000000000815260040180806020018281038252601b8152602001807f536166654d6174683a206164646974696f6e206f766572666c6f77000000000081525060200191505060405180910390fd5b8091505092915050565b60008090505b6000151581151514156133f8576000602883600581106131ba57fe5b015410156131c457fe5b6001602883600581106131d357fe5b015403602883600581106131e357fe5b01819055506000602883600581106131f757fe5b01549050600060356000858152602001908152602001600020600083815260200190815260200160002060000160009054906101000a900473ffffffffffffffffffffffffffffffffffffffff1690506000821415613262576132598461458a565b600192506133f1565b60006039600086815260200190815260200160002060008373ffffffffffffffffffffffffffffffffffffffff1673ffffffffffffffffffffffffffffffffffffffff1681526020019081526020016000205411156133f0576000600560009054906101000a900473ffffffffffffffffffffffffffffffffffffffff1673ffffffffffffffffffffffffffffffffffffffff16636352211e866040518263ffffffff1660e01b81526004018082815260200191505060206040518083038186803b15801561333057600080fd5b505afa158015613344573d6000803e3d6000fd5b505050506040513d602081101561335a57600080fd5b8101908080519060200190929190505050905060006035600087815260200190815260200160002060008581526020019081526020016000206001015490506133a58284838961353b565b600194508273ffffffffffffffffffffffffffffffffffffffff16867fdcd7d049706cf89eb40b5726d483d3aa2001e43b729f0f411cdda43c2fe59f5260405160405180910390a350505b5b505061319e565b5050565b600115156000151514156135375760006134206064836130c690919063ffffffff16565b9050600b60009054906101000a900473ffffffffffffffffffffffffffffffffffffffff1673ffffffffffffffffffffffffffffffffffffffff1663abb60c806006856005811061346d57fe5b0160009054906101000a900473ffffffffffffffffffffffffffffffffffffffff16836040518363ffffffff1660e01b8152600401808373ffffffffffffffffffffffffffffffffffffffff1673ffffffffffffffffffffffffffffffffffffffff16815260200182815260200192505050602060405180830381600087803b1580156134f957600080fd5b505af115801561350d573d6000803e3d6000fd5b505050506040513d602081101561352357600080fd5b810190808051906020019092919050505050505b5050565b600560009054906101000a900473ffffffffffffffffffffffffffffffffffffffff1673ffffffffffffffffffffffffffffffffffffffff166323b872dd8585846040518463ffffffff1660e01b8152600401808473ffffffffffffffffffffffffffffffffffffffff1673ffffffffffffffffffffffffffffffffffffffff1681526020018373ffffffffffffffffffffffffffffffffffffffff1673ffffffffffffffffffffffffffffffffffffffff1681526020018281526020019350505050600060405180830381600087803b15801561361857600080fd5b505af115801561362c573d6000803e3d6000fd5b50505050816013826005811061363e57fe5b018190555050505050565b60011515603260009054906101000a900460ff161515146136d2576040517f08c379a00000000000000000000000000000000000000000000000000000000081526004018080602001828103825260108152602001807f57696e6e6572206e6f74206b6e6f776e0000000000000000000000000000000081525060200191505060405180910390fd5b60001515603260019054906101000a900460ff1615151461375b576040517f08c379a00000000000000000000000000000000000000000000000000000000081526004018080602001828103825260108152602001807f416c72656164792070616964206f75740000000000000000000000000000000081525060200191505060405180910390fd5b6137636146c7565b61376b61481c565b6000613776306149a4565b905060008090505b60058110156138d45760008090505b602d826005811061379a57fe5b01548110156138c657600060366000848152602001908152602001600020600083815260200190815260200160002060009054906101000a900473ffffffffffffffffffffffffffffffffffffffff1690506000613840603c60008473ffffffffffffffffffffffffffffffffffffffff1673ffffffffffffffffffffffffffffffffffffffff168152602001908152602001600020548661304090919063ffffffff16565b90506000613859601d54836130c690919063ffffffff16565b90506000603c60008573ffffffffffffffffffffffffffffffffffffffff1673ffffffffffffffffffffffffffffffffffffffff1681526020019081526020016000208190555060008111156138b6576138b583826001614a98565b5b505050808060010191505061378d565b50808060010191505061377e565b506001603260016101000a81548160ff021916908315150217905550806033547faec4660fb36dce4768bdbe4e8e3291cf849dc4af665b9e32e041c2b2c2a457ae60405160405180910390a350565b816039600083815260200190815260200160002060003373ffffffffffffffffffffffffffffffffffffffff1673ffffffffffffffffffffffffffffffffffffffff1681526020019081526020016000205410156139e9576040517f08c379a00000000000000000000000000000000000000000000000000000000081526004018080602001828103825260148152602001807f5769746864726177696e6720746f6f206d75636800000000000000000000000081525060200191505060405180910390fd5b613a4c826039600084815260200190815260200160002060003373ffffffffffffffffffffffffffffffffffffffff1673ffffffffffffffffffffffffffffffffffffffff16815260200190815260200160002054612ff690919063ffffffff16565b6039600083815260200190815260200160002060003373ffffffffffffffffffffffffffffffffffffffff1673ffffffffffffffffffffffffffffffffffffffff16815260200190815260200160002081905550613af282603a60003373ffffffffffffffffffffffffffffffffffffffff1673ffffffffffffffffffffffffffffffffffffffff1681526020019081526020016000205461311090919063ffffffff16565b603a60003373ffffffffffffffffffffffffffffffffffffffff1673ffffffffffffffffffffffffffffffffffffffff16815260200190815260200160002081905550613b4133836000614a98565b60006039600083815260200190815260200160002060003373ffffffffffffffffffffffffffffffffffffffff1673ffffffffffffffffffffffffffffffffffffffff168152602001908152602001600020541415613ba457613ba381613198565b5b5050565b60008015613e5e57600080905060008090505b6005811015613e2557600060068260058110613bd357fe5b0160009054906101000a900473ffffffffffffffffffffffffffffffffffffffff1673ffffffffffffffffffffffffffffffffffffffff16633c26482060006040518263ffffffff1660e01b81526004018082815260200191505060206040518083038186803b158015613c4657600080fd5b505afa158015613c5a573d6000803e3d6000fd5b505050506040513d6020811015613c7057600080fd5b81019080805190602001909291905050501180613d475750600060068260058110613c9757fe5b0160009054906101000a900473ffffffffffffffffffffffffffffffffffffffff1673ffffffffffffffffffffffffffffffffffffffff16633c26482060016040518263ffffffff1660e01b81526004018082815260200191505060206040518083038186803b158015613d0a57600080fd5b505afa158015613d1e573d6000803e3d6000fd5b505050506040513d6020811015613d3457600080fd5b8101908080519060200190929190505050115b80613e0c5750600060068260058110613d5c57fe5b0160009054906101000a900473ffffffffffffffffffffffffffffffffffffffff1673ffffffffffffffffffffffffffffffffffffffff16633c26482060026040518263ffffffff1660e01b81526004018082815260200191505060206040518083038186803b158015613dcf57600080fd5b505afa158015613de3573d6000803e3d6000fd5b505050506040513d6020811015613df957600080fd5b8101908080519060200190929190505050115b15613e18576001820191505b8080600101915050613bbb565b506005811415613e54576001603260006101000a81548160ff0219169083151502179055506001915050613e7e565b6000915050613e7e565b6001603260006101000a81548160ff021916908315150217905550600190505b90565b600080156141565760008090506000809050600080905060008090505b600581101561411957600060068260058110613eb657fe5b0160009054906101000a900473ffffffffffffffffffffffffffffffffffffffff1673ffffffffffffffffffffffffffffffffffffffff16633c26482060006040518263ffffffff1660e01b81526004018082815260200191505060206040518083038186803b158015613f2957600080fd5b505afa158015613f3d573d6000803e3d6000fd5b505050506040513d6020811015613f5357600080fd5b81019080805190602001909291905050501115613f71576001820191505b600060068260058110613f8057fe5b0160009054906101000a900473ffffffffffffffffffffffffffffffffffffffff1673ffffffffffffffffffffffffffffffffffffffff16633c26482060016040518263ffffffff1660e01b81526004018082815260200191505060206040518083038186803b158015613ff357600080fd5b505afa158015614007573d6000803e3d6000fd5b505050506040513d602081101561401d57600080fd5b8101908080519060200190929190505050111561404257806033819055506001840193505b60006006826005811061405157fe5b0160009054906101000a900473ffffffffffffffffffffffffffffffffffffffff1673ffffffffffffffffffffffffffffffffffffffff16633c26482060026040518263ffffffff1660e01b81526004018082815260200191505060206040518083038186803b1580156140c457600080fd5b505afa1580156140d8573d6000803e3d6000fd5b505050506040513d60208110156140ee57600080fd5b8101908080519060200190929190505050111561410c576001830192505b8080600101915050613e9e565b5060018314801561412a5750600081145b80156141395750600160050382145b1561414a5760019350505050614163565b60009350505050614163565b6002603381905550600190505b90565b60011515603260009054906101000a900460ff161515146141ef576040517f08c379a00000000000000000000000000000000000000000000000000000000081526004018080602001828103825260108152602001807f57696e6e6572206e6f74206b6e6f776e0000000000000000000000000000000081525060200191505060405180910390fd5b60001515603260019054906101000a900460ff16151514614278576040517f08c379a00000000000000000000000000000000000000000000000000000000081526004018080602001828103825260108152602001807f416c72656164792070616964206f75740000000000000000000000000000000081525060200191505060405180910390fd5b6142806146c7565b61428861481c565b6000614293306149a4565b905060008090505b602d603354600581106142aa57fe5b01548110156143b5576000603660006033548152602001908152602001600020600083815260200190815260200160002060009054906101000a900473ffffffffffffffffffffffffffffffffffffffff169050600060376000603354815260200190815260200160002060008373ffffffffffffffffffffffffffffffffffffffff1673ffffffffffffffffffffffffffffffffffffffff168152602001908152602001600020549050600061436a828661304090919063ffffffff16565b9050600061439660386000603354815260200190815260200160002054836130c690919063ffffffff16565b90506143a484826001614a98565b50505050808060010191505061429b565b506001603260016101000a81548160ff021916908315150217905550806033547faec4660fb36dce4768bdbe4e8e3291cf849dc4af665b9e32e041c2b2c2a457ae60405160405180910390a350565b60008383111582906144b1576040517f08c379a00000000000000000000000000000000000000000000000000000000081526004018080602001828103825283818151815260200191508051906020019080838360005b8381101561447657808201518184015260208101905061445b565b50505050905090810190601f1680156144a35780820380516001836020036101000a031916815260200191505b509250505060405180910390fd5b5060008385039050809150509392505050565b60008083118290614570576040517f08c379a00000000000000000000000000000000000000000000000000000000081526004018080602001828103825283818151815260200191508051906020019080838360005b8381101561453557808201518184015260208101905061451a565b50505050905090810190601f1680156145625780820380516001836020036101000a031916815260200191505b509250505060405180910390fd5b50600083858161457c57fe5b049050809150509392505050565b6000600560009054906101000a900473ffffffffffffffffffffffffffffffffffffffff1673ffffffffffffffffffffffffffffffffffffffff16636352211e836040518263ffffffff1660e01b81526004018082815260200191505060206040518083038186803b1580156145ff57600080fd5b505afa158015614613573d6000803e3d6000fd5b505050506040513d602081101561462957600080fd5b81019080805190602001909291905050509050614649813060008561353b565b6000603d836005811061465857fe5b602091828204019190066101000a81548160ff0219169083600181111561467b57fe5b02179055508073ffffffffffffffffffffffffffffffffffffffff167f6d6bbefef62d4cb6d0e3a4dd306a71d3632319b1e03659513df86b247dd657fe60405160405180910390a25050565b60008090505b60058110156148195760008090505b602d82600581106146e957fe5b015481101561480b57600060366000848152602001908152602001600020600083815260200190815260200160002060009054906101000a900473ffffffffffffffffffffffffffffffffffffffff16905060006039600085815260200190815260200160002060008373ffffffffffffffffffffffffffffffffffffffff1673ffffffffffffffffffffffffffffffffffffffff16815260200190815260200160002054905060006039600086815260200190815260200160002060008473ffffffffffffffffffffffffffffffffffffffff1673ffffffffffffffffffffffffffffffffffffffff1681526020019081526020016000208190555060008111156147fc576147fb82826000614a98565b5b505080806001019150506146dc565b5080806001019150506146cd565b50565b603260009054906101000a900460ff1661483257fe5b600115156000151514156149a25760008090505b60058110156149a057600061487360646018846005811061486357fe5b01546130c690919063ffffffff16565b9050600b60009054906101000a900473ffffffffffffffffffffffffffffffffffffffff1673ffffffffffffffffffffffffffffffffffffffff1663ad16158e600684600581106148c057fe5b0160009054906101000a900473ffffffffffffffffffffffffffffffffffffffff16836040518363ffffffff1660e01b8152600401808373ffffffffffffffffffffffffffffffffffffffff1673ffffffffffffffffffffffffffffffffffffffff168152602001828152602001925050506040805180830381600087803b15801561494b57600080fd5b505af115801561495f573d6000803e3d6000fd5b505050506040513d604081101561497557600080fd5b8101908080519060200190929190805190602001909291905050505050508080600101915050614846565b505b565b60008015614a8d57600c60009054906101000a900473ffffffffffffffffffffffffffffffffffffffff1673ffffffffffffffffffffffffffffffffffffffff166370a08231836040518263ffffffff1660e01b8152600401808273ffffffffffffffffffffffffffffffffffffffff1673ffffffffffffffffffffffffffffffffffffffff16815260200191505060206040518083038186803b158015614a4b57600080fd5b505afa158015614a5f573d6000803e3d6000fd5b505050506040513d6020811015614a7557600080fd5b81019080805190602001909291905050509050614a93565b601d5490505b919050565b600015614b8957600c60009054906101000a900473ffffffffffffffffffffffffffffffffffffffff1673ffffffffffffffffffffffffffffffffffffffff1663a9059cbb84846040518363ffffffff1660e01b8152600401808373ffffffffffffffffffffffffffffffffffffffff1673ffffffffffffffffffffffffffffffffffffffff16815260200182815260200192505050602060405180830381600087803b158015614b4857600080fd5b505af1158015614b5c573d6000803e3d6000fd5b505050506040513d6020811015614b7257600080fd5b810190808051906020019092919050505050614cc3565b6000811415614c2c57614be482600460008673ffffffffffffffffffffffffffffffffffffffff1673ffffffffffffffffffffffffffffffffffffffff1681526020019081526020016000205461311090919063ffffffff16565b600460008573ffffffffffffffffffffffffffffffffffffffff1673ffffffffffffffffffffffffffffffffffffffff16815260200190815260200160002081905550614cc2565b614c7e82600360008673ffffffffffffffffffffffffffffffffffffffff1673ffffffffffffffffffffffffffffffffffffffff1681526020019081526020016000205461311090919063ffffffff16565b600360008573ffffffffffffffffffffffffffffffffffffffff1673ffffffffffffffffffffffffffffffffffffffff168152602001908152602001600020819055505b5b50505056fe4e6577207072696365206d75737420626520686967686572207468616e2063757272656e742070726963654d75737420776169742036206d6f6e74687320666f72204175677572204f7261636c655072696365206d75737420626520686967686572207468616e2063757272656e74207072696365536166654d6174683a206d756c7469706c69636174696f6e206f766572666c6f77a265627a7a72315820c86ef1dbb50d77f0a64714db764e0c883695a087c6172a3ea29061cdc7bfe73c64736f6c634300050c0032",
  "source": "pragma solidity ^0.5.0;\nimport \"./interfaces/IERC721Full.sol\";\nimport \"./utils/SafeMath.sol\";\n\ninterface IMarket \n{\n    function getWinningPayoutNumerator(uint256 _outcome) external view returns (uint256);\n}\n\ninterface ShareToken \n{\n    function publicBuyCompleteSets(IMarket _market, uint256 _amount) external returns (bool)  ;\n    function publicSellCompleteSets(IMarket _market, uint256 _amount) external returns (uint256 _creatorFee, uint256 _reportingFee) ;\n}\n\ninterface Cash \n{\n    function approve(address _spender, uint256 _amount) external returns (bool);\n    function balanceOf(address _ownesr) external view returns (uint256);\n    function faucet(uint256 _amount) external;\n    function transfer(address _to, uint256 _amount) external returns (bool);\n    function transferFrom(address _from, address _to, uint256 _amount) external returns (bool);\n}\n\n//TODO: have not yet tested the new check winner functions\n\ncontract Harber {\n    \n    using SafeMath for uint256;\n\n    // NUMBER OF TOKENS\n    //Also equals number of markets on augur\n    uint256 constant numberOfTokens = 5; // needs to be 5 for ganache testing\n\n    //TESTING VARIABLES\n    bool constant usingAugur = false; //if false, none of the augur contracts are interacted with. Required for ganache testing. Must be true in production :)\n    uint256 public a = 0;\n    uint256 public b = 0;\n    uint256 public c = 0;\n    // these are in lieu of interacting with ERC20 token contract, for tests\n    mapping (address => uint256) public winningsSentToUser;\n    mapping (address => uint256) public depositReturnedToUser;\n    \n    // CONTRACT VARIABLES\n    IERC721Full public team; // ERC721 NFT.\n    //Augur contracts:\n    IMarket[numberOfTokens] market;\n    ShareToken completeSets;\n    Cash cash; \n\n    // UINTS ADDRESSES, BOOLS\n    address andrewsAddress; // my whiskey fund, for my cut (TBD)\n    address[numberOfTokens] public marketAddresses; // the addresses of the various Augur binary markets. One market for each token. Does not change. Initiated in the constructor and does not change.\n    uint256[numberOfTokens] public price; //in dai-wei (so $100 = 100000000000000000000)\n    uint256[numberOfTokens] public collectedAndSentToAugur; // amount collected for each token, ie the sum of all owners' rent per token. Used to know how many complete\n    // sets to sell for each market (since there is one market per token) \n    uint256 public totalCollected; // an easy way to track the above across all tokens. It is used for a) if there is an invalid outcome and it pays everyone back the amount of: ((total funds available * amount paid by user) / totalCollected). totalCollected is slightly higher than total funds available due to augur fees. And b) upon market resolution, it sells complete sets of Augur equal to totalCollected.\n    uint256[numberOfTokens] public timeLastCollected; // used to determine the rent due. Rent is due for the period (now - timeLastCollected), at which point timeLastCollected is set to now.\n    uint256[numberOfTokens] public timeAcquired; // when a token was bought. used only for front end\n    uint256[numberOfTokens] public currentOwnerIndex; // tracks the position of the current owner in the previousOwnerTracker mapping\n    uint256[numberOfTokens] public numberOfOwners; //used to cycle through ownerTracker during finalse & payout. Since you can't find the size of a mapping. If the value is 5, it means there are 5 owners. Ie it is not doing programming counting. \n  \n    // winning outcome variables\n    bool public marketsResolved = false;\n    bool public doneAndDusted = false;\n    uint256 public winningOutcome = 99; //start with invalid winning outcome\n    uint256 public marketExpectedResolutionTime; //so the function to manually set the winner can only be called long after it should have resolved via Augur. Must be public so others can verify it is accurate. \n\n    //  STRUCTS\n    struct purchase {\n        address owner;\n        uint price;\n    }\n    \n    // MAPPINGS\n    mapping (uint256 => mapping (uint256 => purchase) ) public previousOwnerTracker; //keeps track of all previous owners of a token, including the price, so that if the current owner's deposit runs out, ownership can be reverted to a previous owner with the previous price. Index 0 is NOT used, this tells the contract to foreclose. This does NOT keep a reliable list of all owners, if it reverts to a previous owner then the next owner will overwrite the owner that was in that slot. The variable currentOwnerIndex is used to track the location of the current owner. \n    mapping (uint256 => mapping (uint256 => address) ) public ownerTracker; //used to keep hold of all the owners, for payout, similar to previousOwnerTracker except that the pointer to the current position never decrements\n    mapping (uint256 => mapping (address => uint256) ) public timeHeld; //this is the key variable that tracks the total amount of time each user has held it for. It is key because this is used to determine the proportion of the pot to be sent to each winning address\n    mapping (uint256 => uint256) public totalTimeHeld; //for the payout, what is the total time each token is owned for, excluding foreclosed state (ie owned by me). Winning addresses are sent totalFunds * (timeHeld/totalTimeHeld)\n    mapping (uint256 => mapping (address => uint256) ) public deposits; //keeps track of all the deposits for each token, for each owner. Unused deposits are not returned automatically when there is a new buyer. They can be withdrawn manually however. Unused deposits are returned automatically upon resolution of the market\n    mapping (address => uint256) public testDaiBalances;\n    mapping (uint256 => mapping (address => bool)) public everOwned; //this is required to prevent the ownerTracker variable being incremented unless a completely new user buys the token. \n    mapping (address => uint256) public rentPaid; //keeps track of all the rent paid by each user. So that it can be returned in case of an invalid market outcome. Only required in this instance. \n\n    // ENUMS\n    enum ownedState { Foreclosed, Owned }\n    ownedState[numberOfTokens] public state;\n\n    ////////////// CONSTRUCTOR //////////////\n    constructor(address _andrewsAddress, address _addressOfToken, address _addressOfCashContract, address[numberOfTokens] memory _addressesOfMarkets, address _addressOfCompleteSetsContract, address _addressOfMainAugurContract, uint _marketExpectedResolutionTime) public {\n        //initialise ERC721s\n        team = IERC721Full(_addressOfToken);\n        team.setup();\n        andrewsAddress = _andrewsAddress;\n        marketAddresses = _addressesOfMarkets; //this is to make the market addresses public so users can check the actual augur markets for themselves\n\n        for (uint i=0; i<numberOfTokens; i++)\n        {\n            currentOwnerIndex[i]=0;\n            numberOfOwners[i]=0;\n            state[i] = ownedState.Foreclosed;\n            market[i] = IMarket(_addressesOfMarkets[i]);\n        }\n\n        //initialise Augur contract variables (markets variables initialised above)\n        cash = Cash(_addressOfCashContract);\n        completeSets = ShareToken(_addressOfCompleteSetsContract);\n        marketExpectedResolutionTime = _marketExpectedResolutionTime;\n        \n        //approve augur contract to transfer this contract's dai\n        if (usingAugur == true) {\n            cash.approve(_addressOfMainAugurContract,(2**256)-1);\n        }\n    } \n\n    event LogBuy(address indexed owner, uint256 indexed price);\n    event LogPriceChange(uint256 indexed newPrice);\n    event LogForeclosure(address indexed prevOwner);\n    event LogRentCollection(uint256 indexed collected);\n    event LogFinalised(uint256 indexed winningOutcome, uint256 indexed daiAvailableToDistribute);\n    event LogReturnToPreviousOwner(uint256 indexed tokenId, address indexed previousOwner);\n\n\n    ////////////// MODIFIERS //////////////\n    modifier onlyOwner(uint256 _tokenId) {\n        require(msg.sender == team.ownerOf(_tokenId), \"Not owner\");\n        _;\n    }\n\n    modifier notResolved() {\n        require(marketsResolved == false);\n        _;\n    }\n\n    modifier collectRent(uint256 _tokenId) {\n       _collectRent(_tokenId); \n       _;\n    }\n\n    ////////////// VIEW FUNCTIONS //////////////\n    function getTestDaiBalance() public view returns (uint256)\n    {\n        return(testDaiBalances[msg.sender]);\n    }\n\n    function getOwnerTrackerPrice(uint256 _tokenId, uint256 _index) public view returns (uint256)\n    {\n        return (previousOwnerTracker[_tokenId][_index].price);\n    }\n\n    function getOwnerTrackerAddress(uint256 _tokenId, uint256 _index) public view returns (address)\n    {\n        return (previousOwnerTracker[_tokenId][_index].owner);\n    }\n\n    function rentOwed(uint256 _tokenId) public view returns (uint256 augurFundsDue) \n    {\n        //the tests are written assuming price = annual rental price. Final version should be price =daily rental price\n        if (usingAugur) {\n            return price[_tokenId].mul(now.sub(timeLastCollected[_tokenId])).div(1 days);\n        }\n        else {\n            return price[_tokenId].mul(now.sub(timeLastCollected[_tokenId])).div(365 days);\n        }\n    }\n\n    function rentOwedWithTimestamp(uint256 _tokenId) public view returns (uint256 augurFundsDue, uint256 timestamp) \n    {\n        return (rentOwed(_tokenId), now);\n    }\n    function foreclosed(uint256 _tokenId) public view returns (bool) \n    {\n        // returns whether it is in foreclosed state or not\n        // depending on whether deposit covers patronage due\n        // useful helper function when price should be zero, but contract doesn't reflect it yet.\n        uint256 _rentOwed = rentOwed(_tokenId);\n        if(_rentOwed >= deposits[_tokenId][msg.sender]) {\n            return true;\n        } else {\n            return false;\n        }\n    }\n\n    // this is only used to calculate foreclosure time\n    function liveDepositAbleToWithdraw(uint256 _tokenId) public view returns (uint256) \n    {\n        uint256 _rentOwed = rentOwed(_tokenId);\n        address _currentOwner = team.ownerOf(_tokenId);\n        if(_rentOwed >= deposits[_tokenId][_currentOwner]) {\n            return 0;\n        } else {\n            return deposits[_tokenId][_currentOwner].sub(_rentOwed);\n        }\n    }\n\n    //this is my version of the above function. It shows how much each user can withdraw- whether or not they are the current owner. \n    function userDepositAbleToWithdraw(uint256 _tokenId) public view returns (uint256) \n    {\n        uint256 _rentOwed = rentOwed(_tokenId);\n        address _currentOwner = team.ownerOf(_tokenId);\n\n        if(_currentOwner == msg.sender)\n        {\n            if(_rentOwed >= deposits[_tokenId][msg.sender]) \n        {\n            return 0;\n        } else {\n            return deposits[_tokenId][msg.sender].sub(_rentOwed);\n        }\n        } else {\n            return deposits[_tokenId][msg.sender];\n        }\n    }\n\n    function rentalExpiryTime(uint256 _tokenId) public view returns (uint256) \n    {\n        uint256 pps = price[_tokenId].div(365 days);\n        if (pps == 0)\n        {\n            return now; //if price is so low that pps = 0 just return current time as a fallback\n        }\n        else\n        {\n            return now + liveDepositAbleToWithdraw(_tokenId).div(pps);\n        }\n    }\n\n    ////////////// AUGUR FUNCTIONS //////////////\n    function getTestDai() public \n    {\n        if (usingAugur == true) {\n            //instead of the user getting testDai to his account, it is generated here and and allocated to the user\n            cash.faucet(100000000000000000000);\n            testDaiBalances[msg.sender]= testDaiBalances[msg.sender] + 100000000000000000000;\n        }\n        else {\n            testDaiBalances[msg.sender]= testDaiBalances[msg.sender] + 100;\n        }\n    }\n\n    // * internal * \n    function buyCompleteSets(uint256 _tokenId, uint256 _rentOwed) internal \n    {\n        if (usingAugur == true)\n        {\n            uint256 _setsToBuy =_rentOwed.div(100);\n            completeSets.publicBuyCompleteSets(market[_tokenId], _setsToBuy);\n        } \n    }\n\n    // * internal *\n    function sellCompleteSets() internal \n    {\n        assert (marketsResolved);\n        if (usingAugur == true)\n        {\n            for (uint i=0; i<numberOfTokens; i++) {\n                uint256 _setsToSell =collectedAndSentToAugur[i].div(100);\n                completeSets.publicSellCompleteSets(market[i], _setsToSell);\n            } \n        } \n    }\n\n    // * internal * \n    // checks if all X (x = number of tokens = number of teams) markets have resolved to either yes, no, or invalid\n    function haveAllAugurMarketsResolved() internal returns(bool) \n    {   \n        if (usingAugur) {\n            uint256 _resolvedOutcomesCount = 0;\n\n            for (uint i=0; i<numberOfTokens; i++) {\n                // binary market has three outcomes: 0 (invalid), 1 (yes), 2 (no)\n                if (market[i].getWinningPayoutNumerator(0) > 0 || market[i].getWinningPayoutNumerator(1) > 0 || market[i].getWinningPayoutNumerator(2) > 0  ) {\n                    _resolvedOutcomesCount = _resolvedOutcomesCount + 1;\n                }\n            }\n\n            if (_resolvedOutcomesCount == numberOfTokens) {\n                marketsResolved = true;\n                return true;\n            } else {\n                return false;\n            }\n        }\n        //hard code 'yes' for testing\n        else {\n            marketsResolved = true;\n            return true;\n        }\n    }\n\n    // * internal * \n    // zero errors = all markets resolved 'no' except one that resolved 'yes'\n    // this function will also set the winningOutcome variable\n    // the reason there are two functions (haveAllAugurMarketsResolved and haveAllAugurMarketsResolvedWithoutErrors) is simply to ensure that the contract does not interpret\n    // a delay in one of the market's resolving as an 'error' and refunding everyone prematurely\n    function haveAllAugurMarketsResolvedWithoutErrors() internal returns(bool) \n    {   \n        if (usingAugur) {\n            uint256 _winningOutcomesCount = 0;\n            uint256 _losingOutcomesCount = 0;\n            uint256 _invalidOutcomesCount = 0;\n\n            //cycle through all the markets for a positive value on outcome 0 (invalid) or 1 (yes) or 2 (no). \n            //return true if there is 1 winner and 0 invalid and [number of tokens - 1] losers. Anything else, return false. \n            for (uint i=0; i<numberOfTokens; i++) {\n                if (market[i].getWinningPayoutNumerator(0) > 0) {\n                    _invalidOutcomesCount = _invalidOutcomesCount + 1;\n                }\n                if (market[i].getWinningPayoutNumerator(1) > 0) {\n                    winningOutcome = i; // <- the winning outcome (a global variable) is set here\n                    _winningOutcomesCount = _winningOutcomesCount + 1;\n                }\n                if (market[i].getWinningPayoutNumerator(2) > 0) {\n                    _losingOutcomesCount = _losingOutcomesCount + 1;\n                }\n            }\n\n            if (_winningOutcomesCount == 1 && _invalidOutcomesCount == 0 && _losingOutcomesCount == (numberOfTokens - 1)) {\n                return true;\n            } else {\n                return false;\n            }\n        }\n        //hard code a winner for testing\n        else {\n            winningOutcome = 2;\n            return true;\n            }\n        }\n    function sendCash(address _to, uint256 _amount, uint256 _reason) internal {  \n        if (usingAugur) {\n            cash.transfer(_to,_amount);\n        } else {\n            // using different variables if the cash is sent for different reasons. Allows for more granular testing. \n            if (_reason == 0) { //0 = returned unused deposits at market resolution, or calling withdraw deposit, or calling exit\n                depositReturnedToUser[_to] = depositReturnedToUser[_to].add(_amount);\n            } else { //1 = winnings paid out or invalid outcome\n                winningsSentToUser[_to] = winningsSentToUser[_to].add(_amount);\n            }\n            \n        }\n    }\n\n    function getCashBalance(address _addressToCheck) internal view returns (uint256) {\n        if (usingAugur) {\n            return cash.balanceOf(_addressToCheck);\n        } else {\n            return totalCollected;\n        }\n    }\n\n    ////////////// MARKET RESOLUTION FUNCTIONS ////////////// \n\n    //this can be called by anyone, at any time. \n    function getWinner() notResolved() public \n    {\n        // final rent collection before it is locked down\n        for (uint i=0; i < numberOfTokens; i++) {\n            _collectRent(i);\n        }\n\n        //first check if all X markets have all resolved one way or the other\n        bool _haveAllAugurMarketsResolved = haveAllAugurMarketsResolved();\n\n        if (_haveAllAugurMarketsResolved) {\n\n            //now check if they all resolved without errors. If yes, normal payout. If no, return all funds to all users. \n            bool _haveAllAugurMarketsResolvedWithoutErrors = haveAllAugurMarketsResolvedWithoutErrors();\n            if (_haveAllAugurMarketsResolvedWithoutErrors) {\n                finaliseAndPayout();\n            }\n            else {\n                invalidMarketFinaliseAndPayout();\n            }\n        }\n    }\n\n    // Sets the winner as invalid, which returns all funds to all users. Anyone can call this. Emergency function in case the augur markets never resolve for whatever reason,\n    // (or perhaps the markets resolve, but this contract cant see due to a bug in the relevant function)\n    // can only be called 6 months after augur markets should have ended\n    function emergencyExit() notResolved() public \n    {\n        require (now > (marketExpectedResolutionTime + 15778800), \"Must wait 6 months for Augur Oracle\"); //5 weeks\n        //final rent collection before it is locked down\n        for (uint i=0; i < numberOfTokens; i++) {\n            _collectRent(i);\n        }\n        marketsResolved = true;\n        invalidMarketFinaliseAndPayout(); //returns all rent to all users\n    }\n\n    // * internal * \n    function finaliseAndPayout() internal\n    {\n        require (marketsResolved == true, \"Winner not known\");\n        require (doneAndDusted == false, \"Already paid out\");\n        //return unused deposits\n        returnDeposits();\n        // get the dai back from Augur\n        sellCompleteSets();\n        // the Dai returned to distribute will not be known in advance due to fees, so I cannot hard code the figure to payout to winners. So I will just get the dai balance of the contract. \n        uint256 _daiAvailableToDistribute = getCashBalance(address(this));\n        \n        //do the payout\n        for (uint i=0; i < numberOfOwners[winningOutcome]; i++)\n        {   \n            address _winnersAddress = ownerTracker[winningOutcome][i];\n            uint _winnersTimeHeld = timeHeld[winningOutcome][_winnersAddress];\n            uint256 _numerator = _daiAvailableToDistribute.mul(_winnersTimeHeld);\n            uint256 _winningsToTransfer = _numerator.div(totalTimeHeld[winningOutcome]);\n            sendCash(_winnersAddress,_winningsToTransfer, 1);\n        }\n        doneAndDusted = true;\n        emit LogFinalised(winningOutcome,_daiAvailableToDistribute);\n    }\n\n    // This will ONLY be called if the market returns invalid (or if setWinnerPublic is triggered), in which case everyone's funds will be returned\n    // * internal * \n    function invalidMarketFinaliseAndPayout() internal\n    {\n        require (marketsResolved == true, \"Winner not known\");\n        require (doneAndDusted == false, \"Already paid out\");\n        //return unused deposits\n        returnDeposits();\n        // get the dai back from Augur\n        sellCompleteSets();\n        // the Dai returned to distribute will not be known in advance due to fees, so I cannot hard code the figure to payout to winners. So I will just get the dai balance of the contract. \n        uint256 _daiAvailableToDistribute = getCashBalance(address(this));\n\n        for (uint i=0; i < numberOfTokens; i++) \n        {  \n            for (uint j=0; j < numberOfOwners[i]; j++)\n            {  \n                address _usersAddress = ownerTracker[i][j];\n                uint256 _numerator = _daiAvailableToDistribute.mul(rentPaid[_usersAddress]);\n                uint256 _fundsToReturn = _numerator.div(totalCollected);\n                rentPaid[_usersAddress] = 0; //same address could be across multiple tokens, don't want to pay the user more than once\n                if (_fundsToReturn > 0) {\n                    sendCash(_usersAddress,_fundsToReturn,1);\n                }\n            }\n        }\n        doneAndDusted = true;\n        emit LogFinalised(winningOutcome,_daiAvailableToDistribute);\n    }\n\n    //return all unused deposits upon resolution\n    // * internal * \n    function returnDeposits() internal\n    {\n        for (uint i=0; i < numberOfTokens; i++) \n        {  \n            for (uint j=0; j < numberOfOwners[i]; j++)\n            {  \n                address _thisUsersAddress = ownerTracker[i][j];\n                uint256 _depositToReturn = deposits[i][_thisUsersAddress];\n                deposits[i][_thisUsersAddress] = 0;\n\n                if (_depositToReturn > 0) {\n                    sendCash(_thisUsersAddress,_depositToReturn, 0);\n                }\n            }\n        }\n    }\n\n    ////////////// ORDINARY COURSE OF BUSINESS FUNCTIONS //////////////\n\n    function _collectRent(uint256 _tokenId) notResolved() public {\n        // determine rent to pay\n        if (state[_tokenId] == ownedState.Owned) {\n            \n            uint256 _rentOwed = rentOwed(_tokenId);\n            address _currentOwner = team.ownerOf(_tokenId);\n            uint256 _timeOfThisCollection;\n            \n            if (_rentOwed >= deposits[_tokenId][_currentOwner]) {\n                // run out of deposit. Calculate time it was actually paid for, then revert to previous owner \n                _timeOfThisCollection = timeLastCollected[_tokenId].add(((now.sub(timeLastCollected[_tokenId])).mul(deposits[_tokenId][_currentOwner]).div(_rentOwed)));\n                _rentOwed = deposits[_tokenId][_currentOwner]; // take what's left     \n                _revertToPreviousOwner(_tokenId);\n                \n            } else  {\n                //normal collection\n                _timeOfThisCollection = now;\n            }\n\n            //update the ownerTracker and numberOfOwners variables. only for new owners.\n            if (everOwned[_tokenId][_currentOwner] == false) {\n                everOwned[_tokenId][_currentOwner] = true;\n                ownerTracker[_tokenId][numberOfOwners[_tokenId]] = _currentOwner;\n                numberOfOwners[_tokenId] = numberOfOwners[_tokenId] + 1;\n            }\n\n            //update the rentPaid mapping. Only used for invalid outcome, so everyone can be paid back\n            rentPaid[_currentOwner] = rentPaid[_currentOwner].add(_rentOwed);\n\n            //the 'important bit', where the duration the token has been held by each user is updated\n            uint256 _timeHeldToIncrement = (_timeOfThisCollection.sub(timeLastCollected[_tokenId])); //just for readability\n            timeHeld[_tokenId][_currentOwner] = timeHeld[_tokenId][_currentOwner].add(_timeHeldToIncrement);\n\n            //totalTimeHeld should not increment when forelosed (or it would pay me a reward as I am the default owner), but this is taken care of because this entire function only runs if not foreclosed\n            totalTimeHeld[_tokenId] = totalTimeHeld[_tokenId].add(_timeHeldToIncrement);\n\n            timeLastCollected[_tokenId] = now;\n            deposits[_tokenId][_currentOwner] = deposits[_tokenId][_currentOwner].sub(_rentOwed);\n            collectedAndSentToAugur[_tokenId] = collectedAndSentToAugur[_tokenId].add(_rentOwed);\n            totalCollected = totalCollected.add(_rentOwed);\n\n            buyCompleteSets(_tokenId,_rentOwed);\n            \n            emit LogRentCollection(_rentOwed);\n        }\n    }\n    \n    function buy(uint256 _newPrice, uint256 _tokenId, uint256 _deposit) public collectRent(_tokenId) notResolved() {\n        require(_tokenId < numberOfTokens, \"This team does not exist\");\n        require(_newPrice > price[_tokenId], \"Price must be higher than current price\");\n        require(_deposit > 0, \"Must deposit something\");\n        require(testDaiBalances[msg.sender] >= _deposit, \"Not enough DAI\");\n        \n        testDaiBalances[msg.sender] = testDaiBalances[msg.sender].sub(_deposit);\n        deposits[_tokenId][msg.sender] = deposits[_tokenId][msg.sender].add(_deposit);\n        \n        address _currentOwner = team.ownerOf(_tokenId);\n\n        //bought by current owner (ie, it just increases the price, token ownership does not change)\n        if(_currentOwner == msg.sender)\n        {\n            previousOwnerTracker[_tokenId][currentOwnerIndex[_tokenId]].price = _newPrice;\n        }\n        //bought by different user (the normal situation)\n        else\n        {\n            currentOwnerIndex[_tokenId] = currentOwnerIndex[_tokenId] + 1; \n            // currentOwnerIndex[_tokenId] = currentOwnerIndex[_tokenId].add(1);\n            //^^ the above line causes VM errors, I need to figure out why\n            previousOwnerTracker[_tokenId][currentOwnerIndex[_tokenId]].price = _newPrice;\n            previousOwnerTracker[_tokenId][currentOwnerIndex[_tokenId]].owner = msg.sender; \n        }\n\n        if(state[_tokenId] == ownedState.Foreclosed) \n        {\n            state[_tokenId] = ownedState.Owned;\n            timeLastCollected[_tokenId] = now;\n        }\n        \n        //does the below even if owner hasn't changed. this is ok. \n        timeAcquired[_tokenId] = now;\n        _transferTokenTo(_currentOwner, msg.sender, _newPrice, _tokenId); \n        emit LogBuy(msg.sender, _newPrice);\n    }\n\n    function depositDai(uint256 _dai, uint256 _tokenId) public collectRent(_tokenId) notResolved() {\n        require(state[_tokenId] != ownedState.Foreclosed, \"Foreclosed\");\n        testDaiBalances[msg.sender] = testDaiBalances[msg.sender].sub(_dai);\n        deposits[_tokenId][msg.sender] = deposits[_tokenId][msg.sender].add(_dai);\n    }\n\n    function changePrice(uint256 _newPrice, uint256 _tokenId) public onlyOwner(_tokenId) collectRent(_tokenId) notResolved() {\n        require(state[_tokenId] != ownedState.Foreclosed, \"Foreclosed\");\n        require(_newPrice > price[_tokenId], \"New price must be higher than current price\"); //This is to prevent griefing- buying it then immediately dropping the price really low. The original project did not suffer from this problem because when you bought it, you had to pay the purchase price to the previous user, not so in mine. \n        \n        price[_tokenId] = _newPrice;\n        previousOwnerTracker[_tokenId][currentOwnerIndex[_tokenId]].price = _newPrice;\n        emit LogPriceChange(price[_tokenId]);\n    }\n    \n    function withdrawDeposit(uint256 _dai, uint256 _tokenId) public onlyOwner(_tokenId) collectRent(_tokenId) notResolved() returns (uint256) {\n        _withdrawDeposit(_dai, _tokenId);\n    }\n\n    function exit(uint256 _tokenId) public onlyOwner(_tokenId) collectRent(_tokenId) notResolved() {\n        _withdrawDeposit(deposits[_tokenId][msg.sender],  _tokenId);\n    }\n\n    /* internal */\n    function _withdrawDeposit(uint256 _dai, uint256 _tokenId) internal {\n        require(deposits[_tokenId][msg.sender] >= _dai, 'Withdrawing too much');\n\n        deposits[_tokenId][msg.sender] = deposits[_tokenId][msg.sender].sub(_dai);\n        testDaiBalances[msg.sender] = testDaiBalances[msg.sender].add(_dai);\n        //return the dai\n        sendCash(msg.sender, _dai, 0);\n\n        if(deposits[_tokenId][msg.sender] == 0) {\n            _revertToPreviousOwner(_tokenId);\n        }\n    }\n\n    /* internal */\n    function _revertToPreviousOwner(uint256 _tokenId) internal {\n        bool _reverted = false;\n        while (_reverted == false)\n        {\n            assert(currentOwnerIndex[_tokenId] >=0);\n            //change below to use safemath\n            currentOwnerIndex[_tokenId] = currentOwnerIndex[_tokenId] - 1; // ownerTraker will now point to  previous owner\n            uint256 _index = currentOwnerIndex[_tokenId]; //just for readability\n            address _previousOwner = previousOwnerTracker[_tokenId][_index].owner;\n\n            if (_index == 0) \n            //no previous owners. price -> zero, foreclose\n            {\n                _foreclose(_tokenId);\n                _reverted = true;\n            }\n            else if (deposits[_tokenId][_previousOwner] > 0)\n            // previous owner still has a deposit, transfer to them, update the price to what it used to be\n            {\n                address _currentOwner = team.ownerOf(_tokenId);\n                uint256 _oldPrice = previousOwnerTracker[_tokenId][_index].price;\n                _transferTokenTo(_currentOwner, _previousOwner, _oldPrice, _tokenId);\n                _reverted = true;\n                emit LogReturnToPreviousOwner(_tokenId,_previousOwner);\n            }\n        }       \n    }\n\n    /* internal */\n    function _foreclose(uint256 _tokenId) internal {\n        // the contract becomes owner of token (aka foreclose)\n        address _currentOwner = team.ownerOf(_tokenId);\n        //third field is price, ie price goes to zero\n        _transferTokenTo(_currentOwner, address(this), 0, _tokenId);\n        state[_tokenId] = ownedState.Foreclosed;\n        emit LogForeclosure(_currentOwner);\n    }\n\n    /* internal */\n    function _transferTokenTo(address _currentOwner, address _newOwner, uint256 _newPrice, uint256 _tokenId) internal {\n        team.transferFrom(_currentOwner, _newOwner, _tokenId);\n        price[_tokenId] = _newPrice;\n    }\n}\n\n// require (1 ==2, \"STFU\");\n\n",
  "sourcePath": "/Users/mcplums/Repos/Harber/contracts/Harber.sol",
  "compiler": {
    "name": "solc",
    "version": "0.5.12+commit.7709ece9.Emscripten.clang"
  },
  "schemaVersion": "3.0.19",
  "updatedAt": "2020-01-09T07:09:01.547Z",
  "networkType": "ethereum",
  "devdoc": {
    "methods": {}
  },
  "userdoc": {
    "methods": {
      "_collectRent(uint256)": {
        "notice": "/////////// ORDINARY COURSE OF BUSINESS FUNCTIONS //////////////"
      },
      "constructor": "/////////// CONSTRUCTOR //////////////",
      "getTestDai()": {
        "notice": "/////////// AUGUR FUNCTIONS //////////////"
      },
      "getTestDaiBalance()": {
        "notice": "/////////// VIEW FUNCTIONS //////////////"
      },
      "getWinner()": {
        "notice": "/////////// MARKET RESOLUTION FUNCTIONS ////////////// "
      }
    }
  }
}