{
  "contractName": "HarberSimple",
  "abi": [
    {
      "constant": true,
      "inputs": [],
      "name": "version",
      "outputs": [
        {
          "internalType": "uint256",
          "name": "",
          "type": "uint256"
        }
      ],
      "payable": false,
      "stateMutability": "view",
      "type": "function"
    },
    {
      "constant": true,
      "inputs": [],
      "name": "getVersion",
      "outputs": [
        {
          "internalType": "uint256",
          "name": "",
          "type": "uint256"
        }
      ],
      "payable": false,
      "stateMutability": "pure",
      "type": "function"
    }
  ],
  "bytecode": "0x608060405234801561001057600080fd5b5060b28061001f6000396000f3fe6080604052348015600f57600080fd5b506004361060325760003560e01c80630d8e6e2c14603757806354fd4d50146053575b600080fd5b603d606f565b6040518082815260200191505060405180910390f35b60596078565b6040518082815260200191505060405180910390f35b60006015905090565b60158156fea265627a7a723158203ae8e58b939673fe4c13ecdb587cab45f2910b010404cf8530404edcd8ebcf3864736f6c634300050c0032",
  "source": "pragma solidity ^0.5.0;\n\ncontract HarberSimple {\n    \n    uint256 public constant version = 21;\n\n    function getVersion() public pure returns(uint256)\n    {\n        return (version);\n    }\n\n}",
  "sourcePath": "/Users/mcplums/Repos/Harber/contracts/HarberSimple.sol",
  "compiler": {
    "name": "solc",
    "version": "0.5.12+commit.7709ece9.Emscripten.clang"
  },
  "schemaVersion": "3.0.19",
  "updatedAt": "2019-12-12T08:00:59.134Z",
  "networkType": "ethereum",
  "devdoc": {
    "methods": {}
  },
  "userdoc": {
    "methods": {}
  }
}