{
  "contractName": "Harber",
  "abi": [
    {
      "inputs": [
        {
          "internalType": "address",
          "name": "_owner",
          "type": "address"
        },
        {
          "internalType": "contract ICash",
          "name": "_addressOfCashContract",
          "type": "address"
        },
        {
          "internalType": "contract IRealitio",
          "name": "_addressOfRealitioContract",
          "type": "address"
        },
        {
          "internalType": "uint32",
          "name": "_marketExpectedResolutionTime",
          "type": "uint32"
        }
      ],
      "stateMutability": "nonpayable",
      "type": "constructor"
    },
    {
      "anonymous": false,
      "inputs": [
        {
          "indexed": true,
          "internalType": "uint256",
          "name": "daiDeposited",
          "type": "uint256"
        },
        {
          "indexed": true,
          "internalType": "uint256",
          "name": "tokenId",
          "type": "uint256"
        },
        {
          "indexed": true,
          "internalType": "address",
          "name": "sentBy",
          "type": "address"
        }
      ],
      "name": "LogDepositIncreased",
      "type": "event"
    },
    {
      "anonymous": false,
      "inputs": [
        {
          "indexed": true,
          "internalType": "uint256",
          "name": "daiWithdrawn",
          "type": "uint256"
        },
        {
          "indexed": true,
          "internalType": "uint256",
          "name": "tokenId",
          "type": "uint256"
        },
        {
          "indexed": true,
          "internalType": "address",
          "name": "returnedTo",
          "type": "address"
        }
      ],
      "name": "LogDepositWithdrawal",
      "type": "event"
    },
    {
      "anonymous": false,
      "inputs": [
        {
          "indexed": true,
          "internalType": "address",
          "name": "prevOwner",
          "type": "address"
        },
        {
          "indexed": true,
          "internalType": "uint256",
          "name": "tokenId",
          "type": "uint256"
        }
      ],
      "name": "LogForeclosure",
      "type": "event"
    },
    {
      "anonymous": false,
      "inputs": [
        {
          "indexed": true,
          "internalType": "address",
          "name": "newOwner",
          "type": "address"
        },
        {
          "indexed": true,
          "internalType": "uint256",
          "name": "newPrice",
          "type": "uint256"
        },
        {
          "indexed": true,
          "internalType": "uint256",
          "name": "tokenId",
          "type": "uint256"
        }
      ],
      "name": "LogNewRental",
      "type": "event"
    },
    {
      "anonymous": false,
      "inputs": [
        {
          "indexed": true,
          "internalType": "uint256",
          "name": "newPrice",
          "type": "uint256"
        },
        {
          "indexed": true,
          "internalType": "uint256",
          "name": "tokenId",
          "type": "uint256"
        }
      ],
      "name": "LogPriceChange",
      "type": "event"
    },
    {
      "anonymous": false,
      "inputs": [
        {
          "indexed": true,
          "internalType": "uint256",
          "name": "rentCollected",
          "type": "uint256"
        },
        {
          "indexed": true,
          "internalType": "uint256",
          "name": "tokenId",
          "type": "uint256"
        }
      ],
      "name": "LogRentCollection",
      "type": "event"
    },
    {
      "anonymous": false,
      "inputs": [
        {
          "indexed": true,
          "internalType": "address",
          "name": "returnedTo",
          "type": "address"
        },
        {
          "indexed": true,
          "internalType": "uint256",
          "name": "amountReturned",
          "type": "uint256"
        }
      ],
      "name": "LogRentReturned",
      "type": "event"
    },
    {
      "anonymous": false,
      "inputs": [
        {
          "indexed": true,
          "internalType": "uint256",
          "name": "tokenId",
          "type": "uint256"
        },
        {
          "indexed": true,
          "internalType": "address",
          "name": "previousOwner",
          "type": "address"
        }
      ],
      "name": "LogReturnToPreviousOwner",
      "type": "event"
    },
    {
      "anonymous": false,
      "inputs": [
        {
          "indexed": true,
          "internalType": "bool",
          "name": "didTheEventFinish",
          "type": "bool"
        }
      ],
      "name": "LogStep1Complete",
      "type": "event"
    },
    {
      "anonymous": false,
      "inputs": [
        {
          "indexed": true,
          "internalType": "bool",
          "name": "didRealitioResolve",
          "type": "bool"
        },
        {
          "indexed": true,
          "internalType": "uint256",
          "name": "winningOutcome",
          "type": "uint256"
        },
        {
          "indexed": true,
          "internalType": "bool",
          "name": "didRealitioResolveInvalid",
          "type": "bool"
        }
      ],
      "name": "LogStep2Complete",
      "type": "event"
    },
    {
      "anonymous": false,
      "inputs": [
        {
          "indexed": true,
          "internalType": "address",
          "name": "paidTo",
          "type": "address"
        },
        {
          "indexed": true,
          "internalType": "uint256",
          "name": "amountPaid",
          "type": "uint256"
        }
      ],
      "name": "LogWinningsPaid",
      "type": "event"
    },
    {
      "anonymous": false,
      "inputs": [
        {
          "indexed": true,
          "internalType": "address",
          "name": "previousOwner",
          "type": "address"
        },
        {
          "indexed": true,
          "internalType": "address",
          "name": "newOwner",
          "type": "address"
        }
      ],
      "name": "OwnershipTransferred",
      "type": "event"
    },
    {
      "anonymous": false,
      "inputs": [
        {
          "indexed": true,
          "internalType": "uint256",
          "name": "testingVariable",
          "type": "uint256"
        }
      ],
      "name": "TestingVariable",
      "type": "event"
    },
    {
      "inputs": [],
      "name": "cash",
      "outputs": [
        {
          "internalType": "contract ICash",
          "name": "",
          "type": "address"
        }
      ],
      "stateMutability": "view",
      "type": "function"
    },
    {
      "inputs": [
        {
          "internalType": "uint256",
          "name": "",
          "type": "uint256"
        }
      ],
      "name": "collectedPerToken",
      "outputs": [
        {
          "internalType": "uint256",
          "name": "",
          "type": "uint256"
        }
      ],
      "stateMutability": "view",
      "type": "function"
    },
    {
      "inputs": [
        {
          "internalType": "address",
          "name": "",
          "type": "address"
        }
      ],
      "name": "collectedPerUser",
      "outputs": [
        {
          "internalType": "uint256",
          "name": "",
          "type": "uint256"
        }
      ],
      "stateMutability": "view",
      "type": "function"
    },
    {
      "inputs": [
        {
          "internalType": "uint256",
          "name": "",
          "type": "uint256"
        },
        {
          "internalType": "address",
          "name": "",
          "type": "address"
        }
      ],
      "name": "deposits",
      "outputs": [
        {
          "internalType": "uint256",
          "name": "",
          "type": "uint256"
        }
      ],
      "stateMutability": "view",
      "type": "function"
    },
    {
      "inputs": [
        {
          "internalType": "uint256",
          "name": "",
          "type": "uint256"
        },
        {
          "internalType": "address",
          "name": "",
          "type": "address"
        }
      ],
      "name": "linkedListNext",
      "outputs": [
        {
          "internalType": "address",
          "name": "",
          "type": "address"
        }
      ],
      "stateMutability": "view",
      "type": "function"
    },
    {
      "inputs": [
        {
          "internalType": "uint256",
          "name": "",
          "type": "uint256"
        },
        {
          "internalType": "address",
          "name": "",
          "type": "address"
        }
      ],
      "name": "linkedListPrevious",
      "outputs": [
        {
          "internalType": "address",
          "name": "",
          "type": "address"
        }
      ],
      "stateMutability": "view",
      "type": "function"
    },
    {
      "inputs": [],
      "name": "marketExpectedResolutionTime",
      "outputs": [
        {
          "internalType": "uint32",
          "name": "",
          "type": "uint32"
        }
      ],
      "stateMutability": "view",
      "type": "function"
    },
    {
      "inputs": [],
      "name": "owner",
      "outputs": [
        {
          "internalType": "address",
          "name": "",
          "type": "address"
        }
      ],
      "stateMutability": "view",
      "type": "function"
    },
    {
      "inputs": [
        {
          "internalType": "uint256",
          "name": "",
          "type": "uint256"
        },
        {
          "internalType": "address",
          "name": "",
          "type": "address"
        }
      ],
      "name": "previousPrices",
      "outputs": [
        {
          "internalType": "uint256",
          "name": "",
          "type": "uint256"
        }
      ],
      "stateMutability": "view",
      "type": "function"
    },
    {
      "inputs": [
        {
          "internalType": "uint256",
          "name": "",
          "type": "uint256"
        }
      ],
      "name": "price",
      "outputs": [
        {
          "internalType": "uint256",
          "name": "",
          "type": "uint256"
        }
      ],
      "stateMutability": "view",
      "type": "function"
    },
    {
      "inputs": [],
      "name": "questionId",
      "outputs": [
        {
          "internalType": "bytes32",
          "name": "",
          "type": "bytes32"
        }
      ],
      "stateMutability": "view",
      "type": "function"
    },
    {
      "inputs": [],
      "name": "questionResolvedInvalid",
      "outputs": [
        {
          "internalType": "bool",
          "name": "",
          "type": "bool"
        }
      ],
      "stateMutability": "view",
      "type": "function"
    },
    {
      "inputs": [],
      "name": "realitio",
      "outputs": [
        {
          "internalType": "contract IRealitio",
          "name": "",
          "type": "address"
        }
      ],
      "stateMutability": "view",
      "type": "function"
    },
    {
      "inputs": [],
      "name": "renounceOwnership",
      "outputs": [],
      "stateMutability": "nonpayable",
      "type": "function"
    },
    {
      "inputs": [],
      "name": "state",
      "outputs": [
        {
          "internalType": "enum Harber.States",
          "name": "",
          "type": "uint8"
        }
      ],
      "stateMutability": "view",
      "type": "function"
    },
    {
      "inputs": [
        {
          "internalType": "uint256",
          "name": "",
          "type": "uint256"
        }
      ],
      "name": "timeAcquired",
      "outputs": [
        {
          "internalType": "uint256",
          "name": "",
          "type": "uint256"
        }
      ],
      "stateMutability": "view",
      "type": "function"
    },
    {
      "inputs": [
        {
          "internalType": "uint256",
          "name": "",
          "type": "uint256"
        },
        {
          "internalType": "address",
          "name": "",
          "type": "address"
        }
      ],
      "name": "timeHeld",
      "outputs": [
        {
          "internalType": "uint256",
          "name": "",
          "type": "uint256"
        }
      ],
      "stateMutability": "view",
      "type": "function"
    },
    {
      "inputs": [
        {
          "internalType": "uint256",
          "name": "",
          "type": "uint256"
        }
      ],
      "name": "timeLastCollected",
      "outputs": [
        {
          "internalType": "uint256",
          "name": "",
          "type": "uint256"
        }
      ],
      "stateMutability": "view",
      "type": "function"
    },
    {
      "inputs": [],
      "name": "token",
      "outputs": [
        {
          "internalType": "contract Token",
          "name": "",
          "type": "address"
        }
      ],
      "stateMutability": "view",
      "type": "function"
    },
    {
      "inputs": [],
      "name": "totalCollected",
      "outputs": [
        {
          "internalType": "uint256",
          "name": "",
          "type": "uint256"
        }
      ],
      "stateMutability": "view",
      "type": "function"
    },
    {
      "inputs": [
        {
          "internalType": "uint256",
          "name": "",
          "type": "uint256"
        }
      ],
      "name": "totalTimeHeld",
      "outputs": [
        {
          "internalType": "uint256",
          "name": "",
          "type": "uint256"
        }
      ],
      "stateMutability": "view",
      "type": "function"
    },
    {
      "inputs": [
        {
          "internalType": "address",
          "name": "newOwner",
          "type": "address"
        }
      ],
      "name": "transferOwnership",
      "outputs": [],
      "stateMutability": "nonpayable",
      "type": "function"
    },
    {
      "inputs": [],
      "name": "winningOutcome",
      "outputs": [
        {
          "internalType": "uint256",
          "name": "",
          "type": "uint256"
        }
      ],
      "stateMutability": "view",
      "type": "function"
    },
    {
      "inputs": [],
      "name": "deployTokenContract",
      "outputs": [],
      "stateMutability": "nonpayable",
      "type": "function"
    },
    {
      "inputs": [
        {
          "internalType": "string",
          "name": "_uri",
          "type": "string"
        }
      ],
      "name": "mintNfts",
      "outputs": [],
      "stateMutability": "nonpayable",
      "type": "function"
    },
    {
      "inputs": [
        {
          "internalType": "uint256",
          "name": "_tokenId",
          "type": "uint256"
        }
      ],
      "name": "rentOwed",
      "outputs": [
        {
          "internalType": "uint256",
          "name": "",
          "type": "uint256"
        }
      ],
      "stateMutability": "view",
      "type": "function"
    },
    {
      "inputs": [
        {
          "internalType": "uint256",
          "name": "_tokenId",
          "type": "uint256"
        }
      ],
      "name": "liveDepositAbleToWithdraw",
      "outputs": [
        {
          "internalType": "uint256",
          "name": "",
          "type": "uint256"
        }
      ],
      "stateMutability": "view",
      "type": "function"
    },
    {
      "inputs": [
        {
          "internalType": "uint256",
          "name": "_tokenId",
          "type": "uint256"
        }
      ],
      "name": "userDepositAbleToWithdraw",
      "outputs": [
        {
          "internalType": "uint256",
          "name": "",
          "type": "uint256"
        }
      ],
      "stateMutability": "view",
      "type": "function"
    },
    {
      "inputs": [
        {
          "internalType": "uint256",
          "name": "_tokenId",
          "type": "uint256"
        }
      ],
      "name": "rentalExpiryTime",
      "outputs": [
        {
          "internalType": "uint256",
          "name": "",
          "type": "uint256"
        }
      ],
      "stateMutability": "view",
      "type": "function"
    },
    {
      "inputs": [
        {
          "internalType": "uint256",
          "name": "_winningOutcome",
          "type": "uint256"
        }
      ],
      "name": "getWinnings",
      "outputs": [
        {
          "internalType": "uint256",
          "name": "",
          "type": "uint256"
        }
      ],
      "stateMutability": "view",
      "type": "function"
    },
    {
      "inputs": [],
      "name": "step1checkMarketEnded",
      "outputs": [],
      "stateMutability": "nonpayable",
      "type": "function"
    },
    {
      "inputs": [],
      "name": "step2getWinner",
      "outputs": [],
      "stateMutability": "nonpayable",
      "type": "function"
    },
    {
      "inputs": [],
      "name": "step2BemergencyExit",
      "outputs": [],
      "stateMutability": "nonpayable",
      "type": "function"
    },
    {
      "inputs": [],
      "name": "step2CcircuitBreaker",
      "outputs": [],
      "stateMutability": "nonpayable",
      "type": "function"
    },
    {
      "inputs": [],
      "name": "withdraw",
      "outputs": [],
      "stateMutability": "nonpayable",
      "type": "function"
    },
    {
      "inputs": [],
      "name": "withdrawDepositAfterMarketEnded",
      "outputs": [],
      "stateMutability": "nonpayable",
      "type": "function"
    },
    {
      "inputs": [],
      "name": "collectRentAllTokens",
      "outputs": [],
      "stateMutability": "nonpayable",
      "type": "function"
    },
    {
      "inputs": [
        {
          "internalType": "uint256",
          "name": "_newPrice",
          "type": "uint256"
        },
        {
          "internalType": "uint256",
          "name": "_tokenId",
          "type": "uint256"
        },
        {
          "internalType": "uint256",
          "name": "_deposit",
          "type": "uint256"
        }
      ],
      "name": "newRental",
      "outputs": [],
      "stateMutability": "nonpayable",
      "type": "function"
    },
    {
      "inputs": [
        {
          "internalType": "uint256",
          "name": "_dai",
          "type": "uint256"
        },
        {
          "internalType": "uint256",
          "name": "_tokenId",
          "type": "uint256"
        }
      ],
      "name": "depositDai",
      "outputs": [],
      "stateMutability": "nonpayable",
      "type": "function"
    },
    {
      "inputs": [
        {
          "internalType": "uint256",
          "name": "_newPrice",
          "type": "uint256"
        },
        {
          "internalType": "uint256",
          "name": "_tokenId",
          "type": "uint256"
        }
      ],
      "name": "changePrice",
      "outputs": [],
      "stateMutability": "nonpayable",
      "type": "function"
    },
    {
      "inputs": [
        {
          "internalType": "uint256",
          "name": "_daiToWithdraw",
          "type": "uint256"
        },
        {
          "internalType": "uint256",
          "name": "_tokenId",
          "type": "uint256"
        }
      ],
      "name": "withdrawDeposit",
      "outputs": [],
      "stateMutability": "nonpayable",
      "type": "function"
    },
    {
      "inputs": [
        {
          "internalType": "uint256",
          "name": "_tokenId",
          "type": "uint256"
        }
      ],
      "name": "exit",
      "outputs": [],
      "stateMutability": "nonpayable",
      "type": "function"
    }
  ],
  "bytecode": "0x608060405261a4556044556001604560046101000a81548160ff0219169083151502179055503480156200003257600080fd5b50604051620087da380380620087da833981810160405260808110156200005857600080fd5b81019080805190602001909291908051906020019092919080519060200190929190805190602001909291905050506000620000996200026660201b60201c565b9050806000806101000a81548173ffffffffffffffffffffffffffffffffffffffff021916908373ffffffffffffffffffffffffffffffffffffffff1602179055508073ffffffffffffffffffffffffffffffffffffffff16600073ffffffffffffffffffffffffffffffffffffffff167f8be0079c531659141344cd1fd0a4f28419497f9722a3daafe3b4186f6b6457e060405160405180910390a35062000148846200026e60201b60201c565b80604560006101000a81548163ffffffff021916908363ffffffff16021790555081600560006101000a81548173ffffffffffffffffffffffffffffffffffffffff021916908373ffffffffffffffffffffffffffffffffffffffff16021790555082600660006101000a81548173ffffffffffffffffffffffffffffffffffffffff021916908373ffffffffffffffffffffffffffffffffffffffff16021790555060006002905060606040518060600160405280602c8152602001620087ae602c91399050600073a6ead513d05347138184324392d8ceb24c1161189050600062015180905060008590506000809050620002508686868686866200048660201b60201c565b600381905550505050505050505050506200061b565b600033905090565b6200027e6200026660201b60201c565b73ffffffffffffffffffffffffffffffffffffffff166000809054906101000a900473ffffffffffffffffffffffffffffffffffffffff1673ffffffffffffffffffffffffffffffffffffffff161462000340576040517f08c379a00000000000000000000000000000000000000000000000000000000081526004018080602001828103825260208152602001807f4f776e61626c653a2063616c6c6572206973206e6f7420746865206f776e657281525060200191505060405180910390fd5b600073ffffffffffffffffffffffffffffffffffffffff168173ffffffffffffffffffffffffffffffffffffffff161415620003c8576040517f08c379a0000000000000000000000000000000000000000000000000000000008152600401808060200182810382526026815260200180620087886026913960400191505060405180910390fd5b8073ffffffffffffffffffffffffffffffffffffffff166000809054906101000a900473ffffffffffffffffffffffffffffffffffffffff1673ffffffffffffffffffffffffffffffffffffffff167f8be0079c531659141344cd1fd0a4f28419497f9722a3daafe3b4186f6b6457e060405160405180910390a3806000806101000a81548173ffffffffffffffffffffffffffffffffffffffff021916908373ffffffffffffffffffffffffffffffffffffffff16021790555050565b6000600560009054906101000a900473ffffffffffffffffffffffffffffffffffffffff1673ffffffffffffffffffffffffffffffffffffffff1663762c38fd8888888888886040518763ffffffff1660e01b815260040180878152602001806020018673ffffffffffffffffffffffffffffffffffffffff1673ffffffffffffffffffffffffffffffffffffffff1681526020018563ffffffff1663ffffffff1681526020018463ffffffff1663ffffffff168152602001838152602001828103825287818151815260200191508051906020019080838360005b838110156200057f57808201518184015260208101905062000562565b50505050905090810190601f168015620005ad5780820380516001836020036101000a031916815260200191505b50975050505050505050602060405180830381600087803b158015620005d257600080fd5b505af1158015620005e7573d6000803e3d6000fd5b505050506040513d6020811015620005fe57600080fd5b810190808051906020019092919050505090509695505050505050565b61815d806200062b6000396000f3fe60806040523480156200001157600080fd5b5060043610620002985760003560e01c8063961be3911162000165578063bae04c9a11620000d5578063e29eb8361162000093578063e29eb8361462000b53578063f2fde38b1462000b73578063f69a13141462000bba578063fc0c546a1462000bc6578063fc1ba5111462000c12578063fce0eb021462000c1e5762000298565b8063bae04c9a1462000a00578063bc8802a21462000a3b578063c19d93fb1462000a87578063c85d94d11462000ab6578063ca9e3d4f1462000b475762000298565b8063ad5d28621162000123578063ad5d28621462000948578063adfbe13c146200098d578063af81ebf81462000999578063b06a5c5214620009a5578063b3de019c14620009c55762000298565b8063961be3911462000806578063977f1b2814620008525780639b34ae03146200087e578063a36252bf146200089e578063abcece2614620008e35762000298565b80635b2ace64116200020d57806373a5226f11620001cb57806373a5226f14620006985780637c1bfa5414620006dd5780637dab581914620007385780637f8661a114620007445780638cb6889914620007755780638da5cb5b14620007ba5762000298565b80635b2ace6414620005485780635dfd7e9b146200058d57806370a23f7514620005c8578063715018a6146200060d578063736aab4c14620006195762000298565b806343ac0ecb116200025b57806343ac0ecb14620003dd57806347254f4f146200042257806349d4d6b7146200044657806353a58de11462000452578063584c9cdf14620004b75762000298565b8063237b5e4f146200029d57806326a49e37146200030257806332f2b04d14620003475780633ccfd60b146200038c5780633f17e86f1462000398575b600080fd5b620002ec60048036036040811015620002b557600080fd5b8101908080359060200190929190803573ffffffffffffffffffffffffffffffffffffffff16906020019092919050505062000c63565b6040518082815260200191505060405180910390f35b62000331600480360360208110156200031a57600080fd5b810190808035906020019092919050505062000c88565b6040518082815260200191505060405180910390f35b62000376600480360360208110156200035f57600080fd5b810190808035906020019092919050505062000ca1565b6040518082815260200191505060405180910390f35b6200039662000e39565b005b620003db60048036036060811015620003b057600080fd5b8101908080359060200190929190803590602001909291908035906020019092919050505062000f0b565b005b6200040c60048036036020811015620003f557600080fd5b810190808035906020019092919050505062001565565b6040518082815260200191505060405180910390f35b6200042c6200157d565b604051808215151515815260200191505060405180910390f35b6200045062001590565b005b620004a1600480360360408110156200046a57600080fd5b8101908080359060200190929190803573ffffffffffffffffffffffffffffffffffffffff1690602001909291905050506200173f565b6040518082815260200191505060405180910390f35b6200050660048036036040811015620004cf57600080fd5b8101908080359060200190929190803573ffffffffffffffffffffffffffffffffffffffff16906020019092919050505062001764565b604051808273ffffffffffffffffffffffffffffffffffffffff1673ffffffffffffffffffffffffffffffffffffffff16815260200191505060405180910390f35b62000577600480360360208110156200056057600080fd5b8101908080359060200190929190505050620017a6565b6040518082815260200191505060405180910390f35b620005c660048036036040811015620005a557600080fd5b810190808035906020019092919080359060200190929190505050620017bf565b005b620005f760048036036020811015620005e057600080fd5b81019080803590602001909291905050506200197a565b6040518082815260200191505060405180910390f35b62000617620019e1565b005b62000696600480360360208110156200063157600080fd5b81019080803590602001906401000000008111156200064f57600080fd5b8201836020820111156200066257600080fd5b803590602001918460018302840111640100000000831117156200068557600080fd5b909192939192939050505062001b6c565b005b620006c760048036036020811015620006b057600080fd5b810190808035906020019092919050505062001e09565b6040518082815260200191505060405180910390f35b6200072260048036036020811015620006f557600080fd5b81019080803573ffffffffffffffffffffffffffffffffffffffff16906020019092919050505062002031565b6040518082815260200191505060405180910390f35b6200074262002049565b005b62000773600480360360208110156200075c57600080fd5b8101908080359060200190929190505050620021bf565b005b620007a4600480360360208110156200078d57600080fd5b81019080803590602001909291905050506200221e565b6040518082815260200191505060405180910390f35b620007c462002237565b604051808273ffffffffffffffffffffffffffffffffffffffff1673ffffffffffffffffffffffffffffffffffffffff16815260200191505060405180910390f35b6200081062002260565b604051808273ffffffffffffffffffffffffffffffffffffffff1673ffffffffffffffffffffffffffffffffffffffff16815260200191505060405180910390f35b6200085c62002286565b604051808263ffffffff1663ffffffff16815260200191505060405180910390f35b620008886200229c565b6040518082815260200191505060405180910390f35b620008cd60048036036020811015620008b657600080fd5b8101908080359060200190929190505050620022a2565b6040518082815260200191505060405180910390f35b6200093260048036036040811015620008fb57600080fd5b8101908080359060200190929190803573ffffffffffffffffffffffffffffffffffffffff169060200190929190505050620022ba565b6040518082815260200191505060405180910390f35b62000977600480360360208110156200096057600080fd5b8101908080359060200190929190505050620022df565b6040518082815260200191505060405180910390f35b6200099762002389565b005b620009a362002455565b005b620009af620025cd565b6040518082815260200191505060405180910390f35b620009fe60048036036040811015620009dd57600080fd5b810190808035906020019092919080359060200190929190505050620025d3565b005b62000a396004803603604081101562000a1857600080fd5b810190808035906020019092919080359060200190929190505050620028ee565b005b62000a4562002b5c565b604051808273ffffffffffffffffffffffffffffffffffffffff1673ffffffffffffffffffffffffffffffffffffffff16815260200191505060405180910390f35b62000a9162002b82565b6040518082600481111562000aa257fe5b60ff16815260200191505060405180910390f35b62000b056004803603604081101562000ace57600080fd5b8101908080359060200190929190803573ffffffffffffffffffffffffffffffffffffffff16906020019092919050505062002b95565b604051808273ffffffffffffffffffffffffffffffffffffffff1673ffffffffffffffffffffffffffffffffffffffff16815260200191505060405180910390f35b62000b5162002bd7565b005b62000b5d62002dbb565b6040518082815260200191505060405180910390f35b62000bb86004803603602081101562000b8b57600080fd5b81019080803573ffffffffffffffffffffffffffffffffffffffff16906020019092919050505062002dc1565b005b62000bc462002fd3565b005b62000bd06200319e565b604051808273ffffffffffffffffffffffffffffffffffffffff1673ffffffffffffffffffffffffffffffffffffffff16815260200191505060405180910390f35b62000c1c620031c4565b005b62000c4d6004803603602081101562000c3657600080fd5b81019080803590602001909291905050506200342b565b6040518082815260200191505060405180910390f35b6046602052816000526040600020602052806000526040600020600091509150505481565b6007816014811062000c9657fe5b016000915090505481565b60008062000caf836200197a565b90506000600460019054906101000a900473ffffffffffffffffffffffffffffffffffffffff1673ffffffffffffffffffffffffffffffffffffffff16636352211e856040518263ffffffff1660e01b81526004018082815260200191505060206040518083038186803b15801562000d2757600080fd5b505afa15801562000d3c573d6000803e3d6000fd5b505050506040513d602081101562000d5357600080fd5b810190808051906020019092919050505090506048600085815260200190815260200160002060008273ffffffffffffffffffffffffffffffffffffffff1673ffffffffffffffffffffffffffffffffffffffff16815260200190815260200160002054821062000dca5760009250505062000e34565b62000e2f826048600087815260200190815260200160002060008473ffffffffffffffffffffffffffffffffffffffff1673ffffffffffffffffffffffffffffffffffffffff168152602001908152602001600020546200349590919063ffffffff16565b925050505b919050565b600480600481111562000e4857fe5b600460009054906101000a900460ff16600481111562000e6457fe5b1462000ed8576040517f08c379a000000000000000000000000000000000000000000000000000000000815260040180806020018281038252600f8152602001807f496e636f7272656374207374617465000000000000000000000000000000000081525060200191505060405180910390fd5b604560049054906101000a900460ff1662000efd5762000ef7620034e1565b62000f08565b62000f07620035f8565b5b50565b600280600481111562000f1a57fe5b600460009054906101000a900460ff16600481111562000f3657fe5b1462000faa576040517f08c379a000000000000000000000000000000000000000000000000000000000815260040180806020018281038252600f8152602001807f496e636f7272656374207374617465000000000000000000000000000000000081525060200191505060405180910390fd5b826000811015801562000fbd5750601481105b62001030576040517f08c379a00000000000000000000000000000000000000000000000000000000081526004018080602001828103825260198152602001807f5468697320746f6b656e20646f6573206e6f742065786973740000000000000081525060200191505060405180910390fd5b8260008111620010a8576040517f08c379a00000000000000000000000000000000000000000000000000000000081526004018080602001828103825260198152602001807f416d6f756e74206d7573742062652061626f7665207a65726f0000000000000081525060200191505060405180910390fd5b6000620010e4600a620010d5600b60078a60148110620010c457fe5b01546200372f90919063ffffffff16565b620037ba90919063ffffffff16565b90506000620010fe601889620037ba90919063ffffffff16565b90508188101562001177576040517f08c379a00000000000000000000000000000000000000000000000000000000081526004018080602001828103825260148152602001807f5072696365206e6f74203130252068696768657200000000000000000000000081525060200191505060405180910390fd5b80861015620011ee576040517f08c379a00000000000000000000000000000000000000000000000000000000081526004018080602001828103825260178152602001807f4f6e6520686f757227732072656e74206d696e696d756d00000000000000000081525060200191505060405180910390fd5b662386f26fc100008810156200126c576040517f08c379a00000000000000000000000000000000000000000000000000000000081526004018080602001828103825260178152602001807f4d696e696d756d2072656e74616c20302e30312044616900000000000000000081525060200191505060405180910390fd5b620012778762003806565b62001283868862003e47565b6000600460019054906101000a900473ffffffffffffffffffffffffffffffffffffffff1673ffffffffffffffffffffffffffffffffffffffff16636352211e896040518263ffffffff1660e01b81526004018082815260200191505060206040518083038186803b158015620012f957600080fd5b505afa1580156200130e573d6000803e3d6000fd5b505050506040513d60208110156200132557600080fd5b810190808051906020019092919050505090503373ffffffffffffffffffffffffffffffffffffffff168173ffffffffffffffffffffffffffffffffffffffff1614156200137f5762001379898962003f55565b6200155a565b42602f89601481106200138e57fe5b018190555080604b60008a815260200190815260200160002060003373ffffffffffffffffffffffffffffffffffffffff1673ffffffffffffffffffffffffffffffffffffffff16815260200190815260200160002060006101000a81548173ffffffffffffffffffffffffffffffffffffffff021916908373ffffffffffffffffffffffffffffffffffffffff16021790555033604c60008a815260200190815260200160002060008373ffffffffffffffffffffffffffffffffffffffff1673ffffffffffffffffffffffffffffffffffffffff16815260200190815260200160002060006101000a81548173ffffffffffffffffffffffffffffffffffffffff021916908373ffffffffffffffffffffffffffffffffffffffff16021790555088604d60008a815260200190815260200160002060003373ffffffffffffffffffffffffffffffffffffffff1673ffffffffffffffffffffffffffffffffffffffff168152602001908152602001600020819055506200151481338b8b62003fff565b87893373ffffffffffffffffffffffffffffffffffffffff167ff31de299869a9c4bcad2bafc2e290031d2a7102799d817cb41b090e6a1dd6d4760405160405180910390a45b505050505050505050565b604a6020528060005260406000206000915090505481565b604560049054906101000a900460ff1681565b60038060048111156200159f57fe5b600460009054906101000a900460ff166004811115620015bb57fe5b146200162f576040517f08c379a000000000000000000000000000000000000000000000000000000000815260040180806020018281038252600f8152602001807f496e636f7272656374207374617465000000000000000000000000000000000081525060200191505060405180910390fd5b62001639620041ee565b73ffffffffffffffffffffffffffffffffffffffff166000809054906101000a900473ffffffffffffffffffffffffffffffffffffffff1673ffffffffffffffffffffffffffffffffffffffff1614620016fb576040517f08c379a00000000000000000000000000000000000000000000000000000000081526004018080602001828103825260208152602001807f4f776e61626c653a2063616c6c6572206973206e6f7420746865206f776e657281525060200191505060405180910390fd5b62001705620041f6565b60001515604454600015157f311895ae40783b00783a8fd9ec16fd07ec9750f9a59dbd5557d209699d9a654660405160405180910390a450565b6048602052816000526040600020602052806000526040600020600091509150505481565b604b6020528160005260406000206020528060005260406000206000915091509054906101000a900473ffffffffffffffffffffffffffffffffffffffff1681565b602f8160148110620017b457fe5b016000915090505481565b6002806004811115620017ce57fe5b600460009054906101000a900460ff166004811115620017ea57fe5b146200185e576040517f08c379a000000000000000000000000000000000000000000000000000000000815260040180806020018281038252600f8152602001807f496e636f7272656374207374617465000000000000000000000000000000000081525060200191505060405180910390fd5b8260008111620018d6576040517f08c379a00000000000000000000000000000000000000000000000000000000081526004018080602001828103825260198152602001807f416d6f756e74206d7573742062652061626f7665207a65726f0000000000000081525060200191505060405180910390fd5b8260008110158015620018e95750601481105b6200195c576040517f08c379a00000000000000000000000000000000000000000000000000000000081526004018080602001828103825260198152602001807f5468697320746f6b656e20646f6573206e6f742065786973740000000000000081525060200191505060405180910390fd5b620019678462003806565b62001973858562003e47565b5050505050565b6000620019da62015180620019cb620019ac601b86601481106200199a57fe5b0154426200349590919063ffffffff16565b60078660148110620019ba57fe5b01546200372f90919063ffffffff16565b620037ba90919063ffffffff16565b9050919050565b620019eb620041ee565b73ffffffffffffffffffffffffffffffffffffffff166000809054906101000a900473ffffffffffffffffffffffffffffffffffffffff1673ffffffffffffffffffffffffffffffffffffffff161462001aad576040517f08c379a00000000000000000000000000000000000000000000000000000000081526004018080602001828103825260208152602001807f4f776e61626c653a2063616c6c6572206973206e6f7420746865206f776e657281525060200191505060405180910390fd5b600073ffffffffffffffffffffffffffffffffffffffff166000809054906101000a900473ffffffffffffffffffffffffffffffffffffffff1673ffffffffffffffffffffffffffffffffffffffff167f8be0079c531659141344cd1fd0a4f28419497f9722a3daafe3b4186f6b6457e060405160405180910390a360008060006101000a81548173ffffffffffffffffffffffffffffffffffffffff021916908373ffffffffffffffffffffffffffffffffffffffff160217905550565b600180600481111562001b7b57fe5b600460009054906101000a900460ff16600481111562001b9757fe5b1462001c0b576040517f08c379a000000000000000000000000000000000000000000000000000000000815260040180806020018281038252600f8152602001807f496e636f7272656374207374617465000000000000000000000000000000000081525060200191505060405180910390fd5b62001c15620041ee565b73ffffffffffffffffffffffffffffffffffffffff166000809054906101000a900473ffffffffffffffffffffffffffffffffffffffff1673ffffffffffffffffffffffffffffffffffffffff161462001cd7576040517f08c379a00000000000000000000000000000000000000000000000000000000081526004018080602001828103825260208152602001807f4f776e61626c653a2063616c6c6572206973206e6f7420746865206f776e657281525060200191505060405180910390fd5b600460019054906101000a900473ffffffffffffffffffffffffffffffffffffffff1673ffffffffffffffffffffffffffffffffffffffff1663d3fc98643060015486866040518563ffffffff1660e01b8152600401808573ffffffffffffffffffffffffffffffffffffffff1673ffffffffffffffffffffffffffffffffffffffff168152602001848152602001806020018281038252848482818152602001925080828437600081840152601f19601f82011690508083019250505095505050505050600060405180830381600087803b15801562001db757600080fd5b505af115801562001dcc573d6000803e3d6000fd5b5050505062001de7600180546200424690919063ffffffff16565b6001819055506014600154141562001e045762001e03620041f6565b5b505050565b60008062001e17836200197a565b90506000600460019054906101000a900473ffffffffffffffffffffffffffffffffffffffff1673ffffffffffffffffffffffffffffffffffffffff16636352211e856040518263ffffffff1660e01b81526004018082815260200191505060206040518083038186803b15801562001e8f57600080fd5b505afa15801562001ea4573d6000803e3d6000fd5b505050506040513d602081101562001ebb57600080fd5b810190808051906020019092919050505090503373ffffffffffffffffffffffffffffffffffffffff168173ffffffffffffffffffffffffffffffffffffffff16141562001fd6576048600085815260200190815260200160002060003373ffffffffffffffffffffffffffffffffffffffff1673ffffffffffffffffffffffffffffffffffffffff16815260200190815260200160002054821062001f67576000925050506200202c565b62001fcc826048600087815260200190815260200160002060003373ffffffffffffffffffffffffffffffffffffffff1673ffffffffffffffffffffffffffffffffffffffff168152602001908152602001600020546200349590919063ffffffff16565b925050506200202c565b6048600085815260200190815260200160002060003373ffffffffffffffffffffffffffffffffffffffff1673ffffffffffffffffffffffffffffffffffffffff16815260200190815260200160002054925050505b919050565b60496020528060005260406000206000915090505481565b60038060048111156200205857fe5b600460009054906101000a900460ff1660048111156200207457fe5b14620020e8576040517f08c379a000000000000000000000000000000000000000000000000000000000815260040180806020018281038252600f8152602001807f496e636f7272656374207374617465000000000000000000000000000000000081525060200191505060405180910390fd5b6224ea00604560009054906101000a900463ffffffff160163ffffffff1642116200217b576040517f08c379a00000000000000000000000000000000000000000000000000000000081526004018080602001828103825260118152602001807f4d75737420776169742031206d6f6e746800000000000000000000000000000081525060200191505060405180910390fd5b62002185620041f6565b60001515604454600015157f311895ae40783b00783a8fd9ec16fd07ec9750f9a59dbd5557d209699d9a654660405160405180910390a450565b6200221b6048600083815260200190815260200160002060003373ffffffffffffffffffffffffffffffffffffffff1673ffffffffffffffffffffffffffffffffffffffff1681526020019081526020016000205482620028ee565b50565b601b81601481106200222c57fe5b016000915090505481565b60008060009054906101000a900473ffffffffffffffffffffffffffffffffffffffff16905090565b600660009054906101000a900473ffffffffffffffffffffffffffffffffffffffff1681565b604560009054906101000a900463ffffffff1681565b60445481565b60476020528060005260406000206000915090505481565b604d602052816000526040600020602052806000526040600020600091509150505481565b6000806046600084815260200190815260200160002060003373ffffffffffffffffffffffffffffffffffffffff1673ffffffffffffffffffffffffffffffffffffffff16815260200190815260200160002054905060006200234e826043546200372f90919063ffffffff16565b905060006200237c6047600060445481526020019081526020016000205483620037ba90919063ffffffff16565b9050809350505050919050565b60028060048111156200239857fe5b600460009054906101000a900460ff166004811115620023b457fe5b1462002428576040517f08c379a000000000000000000000000000000000000000000000000000000000815260040180806020018281038252600f8152602001807f496e636f7272656374207374617465000000000000000000000000000000000081525060200191505060405180910390fd5b60008090505b60148110156200245157620024438162003806565b80806001019150506200242e565b5050565b60028060048111156200246457fe5b600460009054906101000a900460ff1660048111156200248057fe5b14620024f4576040517f08c379a000000000000000000000000000000000000000000000000000000000815260040180806020018281038252600f8152602001807f496e636f7272656374207374617465000000000000000000000000000000000081525060200191505060405180910390fd5b610e104203604560009054906101000a900463ffffffff1663ffffffff161062002586576040517f08c379a00000000000000000000000000000000000000000000000000000000081526004018080602001828103825260178152602001807f4d61726b657420686173206e6f742066696e697368656400000000000000000081525060200191505060405180910390fd5b6200259062002389565b6200259a620041f6565b600115157f78f999e75feb0a891f8d2eab8e6babef9caef4444d0b1bfae9c50a610436902d60405160405180910390a250565b60035481565b6002806004811115620025e257fe5b600460009054906101000a900460ff166004811115620025fe57fe5b1462002672576040517f08c379a000000000000000000000000000000000000000000000000000000000815260040180806020018281038252600f8152602001807f496e636f7272656374207374617465000000000000000000000000000000000081525060200191505060405180910390fd5b8160008110158015620026855750601481105b620026f8576040517f08c379a00000000000000000000000000000000000000000000000000000000081526004018080602001828103825260198152602001807f5468697320746f6b656e20646f6573206e6f742065786973740000000000000081525060200191505060405180910390fd5b82600460019054906101000a900473ffffffffffffffffffffffffffffffffffffffff1673ffffffffffffffffffffffffffffffffffffffff16636352211e826040518263ffffffff1660e01b81526004018082815260200191505060206040518083038186803b1580156200276d57600080fd5b505afa15801562002782573d6000803e3d6000fd5b505050506040513d60208110156200279957600080fd5b810190808051906020019092919050505073ffffffffffffffffffffffffffffffffffffffff163373ffffffffffffffffffffffffffffffffffffffff16146200284b576040517f08c379a00000000000000000000000000000000000000000000000000000000081526004018080602001828103825260098152602001807f4e6f74206f776e6572000000000000000000000000000000000000000000000081525060200191505060405180910390fd5b600784601481106200285957fe5b01548511620028d0576040517f08c379a00000000000000000000000000000000000000000000000000000000081526004018080602001828103825260188152602001807f4e6577207072696365206d75737420626520686967686572000000000000000081525060200191505060405180910390fd5b620028db8462003806565b620028e7858562003f55565b5050505050565b6002806004811115620028fd57fe5b600460009054906101000a900460ff1660048111156200291957fe5b146200298d576040517f08c379a000000000000000000000000000000000000000000000000000000000815260040180806020018281038252600f8152602001807f496e636f7272656374207374617465000000000000000000000000000000000081525060200191505060405180910390fd5b8160008110158015620029a05750601481105b62002a13576040517f08c379a00000000000000000000000000000000000000000000000000000000081526004018080602001828103825260198152602001807f5468697320746f6b656e20646f6573206e6f742065786973740000000000000081525060200191505060405180910390fd5b836000811162002a8b576040517f08c379a00000000000000000000000000000000000000000000000000000000081526004018080602001828103825260198152602001807f416d6f756e74206d7573742062652061626f7665207a65726f0000000000000081525060200191505060405180910390fd5b62002a968462003806565b60006048600086815260200190815260200160002060003373ffffffffffffffffffffffffffffffffffffffff1673ffffffffffffffffffffffffffffffffffffffff168152602001908152602001600020549050600081111562002b54578581101562002b02578095505b62002b0e8686620042cf565b3373ffffffffffffffffffffffffffffffffffffffff1685877ff02d3ef90a5110daf1fc2ab511a90b5c3fc58591405de80c06dfff0fd6b42ea860405160405180910390a45b505050505050565b600560009054906101000a900473ffffffffffffffffffffffffffffffffffffffff1681565b600460009054906101000a900460ff1681565b604c6020528160005260406000206020528060005260406000206000915091509054906101000a900473ffffffffffffffffffffffffffffffffffffffff1681565b600080600481111562002be657fe5b600460009054906101000a900460ff16600481111562002c0257fe5b1462002c76576040517f08c379a000000000000000000000000000000000000000000000000000000000815260040180806020018281038252600f8152602001807f496e636f7272656374207374617465000000000000000000000000000000000081525060200191505060405180910390fd5b62002c80620041ee565b73ffffffffffffffffffffffffffffffffffffffff166000809054906101000a900473ffffffffffffffffffffffffffffffffffffffff1673ffffffffffffffffffffffffffffffffffffffff161462002d42576040517f08c379a00000000000000000000000000000000000000000000000000000000081526004018080602001828103825260208152602001807f4f776e61626c653a2063616c6c6572206973206e6f7420746865206f776e657281525060200191505060405180910390fd5b60405162002d509062005144565b604051809103906000f08015801562002d6d573d6000803e3d6000fd5b50600460016101000a81548173ffffffffffffffffffffffffffffffffffffffff021916908373ffffffffffffffffffffffffffffffffffffffff16021790555062002db8620041f6565b50565b60435481565b62002dcb620041ee565b73ffffffffffffffffffffffffffffffffffffffff166000809054906101000a900473ffffffffffffffffffffffffffffffffffffffff1673ffffffffffffffffffffffffffffffffffffffff161462002e8d576040517f08c379a00000000000000000000000000000000000000000000000000000000081526004018080602001828103825260208152602001807f4f776e61626c653a2063616c6c6572206973206e6f7420746865206f776e657281525060200191505060405180910390fd5b600073ffffffffffffffffffffffffffffffffffffffff168173ffffffffffffffffffffffffffffffffffffffff16141562002f15576040517f08c379a0000000000000000000000000000000000000000000000000000000008152600401808060200182810382526026815260200180620080956026913960400191505060405180910390fd5b8073ffffffffffffffffffffffffffffffffffffffff166000809054906101000a900473ffffffffffffffffffffffffffffffffffffffff1673ffffffffffffffffffffffffffffffffffffffff167f8be0079c531659141344cd1fd0a4f28419497f9722a3daafe3b4186f6b6457e060405160405180910390a3806000806101000a81548173ffffffffffffffffffffffffffffffffffffffff021916908373ffffffffffffffffffffffffffffffffffffffff16021790555050565b600380600481111562002fe257fe5b600460009054906101000a900460ff16600481111562002ffe57fe5b1462003072576040517f08c379a000000000000000000000000000000000000000000000000000000000815260040180806020018281038252600f8152602001807f496e636f7272656374207374617465000000000000000000000000000000000081525060200191505060405180910390fd5b600115156200308062004820565b151514620030f6576040517f08c379a00000000000000000000000000000000000000000000000000000000081526004018080602001828103825260138152602001807f4f7261636c65206e6f74207265736f6c7665640000000000000000000000000081525060200191505060405180910390fd5b62003100620048da565b6044819055507fffffffffffffffffffffffffffffffffffffffffffffffffffffffffffffffff604454146200314c576000604560046101000a81548160ff0219169083151502179055505b62003156620041f6565b604560049054906101000a900460ff161515604454600115157f311895ae40783b00783a8fd9ec16fd07ec9750f9a59dbd5557d209699d9a654660405160405180910390a450565b600460019054906101000a900473ffffffffffffffffffffffffffffffffffffffff1681565b60016004811115620031d257fe5b600460009054906101000a900460ff166004811115620031ee57fe5b141562003263576040517f08c379a000000000000000000000000000000000000000000000000000000000815260040180806020018281038252600f8152602001807f496e636f7272656374207374617465000000000000000000000000000000000081525060200191505060405180910390fd5b600260048111156200327157fe5b600460009054906101000a900460ff1660048111156200328d57fe5b141562003302576040517f08c379a000000000000000000000000000000000000000000000000000000000815260040180806020018281038252600f8152602001807f496e636f7272656374207374617465000000000000000000000000000000000081525060200191505060405180910390fd5b60008090505b6014811015620034285760006048600083815260200190815260200160002060003373ffffffffffffffffffffffffffffffffffffffff1673ffffffffffffffffffffffffffffffffffffffff1681526020019081526020016000205490506000811115620034195760006048600084815260200190815260200160002060003373ffffffffffffffffffffffffffffffffffffffff1673ffffffffffffffffffffffffffffffffffffffff16815260200190815260200160002081905550620033d333826200499c565b3373ffffffffffffffffffffffffffffffffffffffff1682827ff02d3ef90a5110daf1fc2ab511a90b5c3fc58591405de80c06dfff0fd6b42ea860405160405180910390a45b50808060010191505062003308565b50565b6000806200345562015180600785601481106200344457fe5b0154620037ba90919063ffffffff16565b905060008114156200346b574291505062003490565b6200348a816200347b8562000ca1565b620037ba90919063ffffffff16565b42019150505b919050565b6000620034d983836040518060400160405280601e81526020017f536166654d6174683a207375627472616374696f6e206f766572666c6f77000081525062004afa565b905092915050565b6000620034f0604454620022df565b9050600081116200354d576040517f08c379a0000000000000000000000000000000000000000000000000000000008152600401808060200182810382526026815260200180620080dc6026913960400191505060405180910390fd5b600060466000604454815260200190815260200160002060003373ffffffffffffffffffffffffffffffffffffffff1673ffffffffffffffffffffffffffffffffffffffff16815260200190815260200160002081905550620035b133826200499c565b803373ffffffffffffffffffffffffffffffffffffffff167f0e72eb54add8566fa8248d61d8dc2b9953fbec55cfec138cdc887c8e34df495160405160405180910390a350565b6000604960003373ffffffffffffffffffffffffffffffffffffffff1673ffffffffffffffffffffffffffffffffffffffff1681526020019081526020016000205490506000811162003697576040517f08c379a0000000000000000000000000000000000000000000000000000000008152600401808060200182810382526026815260200180620081026026913960400191505060405180910390fd5b6000604960003373ffffffffffffffffffffffffffffffffffffffff1673ffffffffffffffffffffffffffffffffffffffff16815260200190815260200160002081905550620036e833826200499c565b803373ffffffffffffffffffffffffffffffffffffffff167f40db9a7a1327f1f949933daff746d2d9be9f2ff608d832e39b6764f5f15a957360405160405180910390a350565b600080831415620037445760009050620037b4565b60008284029050828482816200375657fe5b0414620037af576040517f08c379a0000000000000000000000000000000000000000000000000000000008152600401808060200182810382526021815260200180620080bb6021913960400191505060405180910390fd5b809150505b92915050565b6000620037fe83836040518060400160405280601a81526020017f536166654d6174683a206469766973696f6e206279207a65726f00000000000081525062004bbe565b905092915050565b3073ffffffffffffffffffffffffffffffffffffffff16600460019054906101000a900473ffffffffffffffffffffffffffffffffffffffff1673ffffffffffffffffffffffffffffffffffffffff16636352211e836040518263ffffffff1660e01b81526004018082815260200191505060206040518083038186803b1580156200389157600080fd5b505afa158015620038a6573d6000803e3d6000fd5b505050506040513d6020811015620038bd57600080fd5b810190808051906020019092919050505073ffffffffffffffffffffffffffffffffffffffff161462003e30576000620038f7826200197a565b90506000600460019054906101000a900473ffffffffffffffffffffffffffffffffffffffff1673ffffffffffffffffffffffffffffffffffffffff16636352211e846040518263ffffffff1660e01b81526004018082815260200191505060206040518083038186803b1580156200396f57600080fd5b505afa15801562003984573d6000803e3d6000fd5b505050506040513d60208110156200399b57600080fd5b8101908080519060200190929190505050905060006048600085815260200190815260200160002060008373ffffffffffffffffffffffffffffffffffffffff1673ffffffffffffffffffffffffffffffffffffffff16815260200190815260200160002054831062003b2d5762003ac762003aa88462003a996048600089815260200190815260200160002060008773ffffffffffffffffffffffffffffffffffffffff1673ffffffffffffffffffffffffffffffffffffffff1681526020019081526020016000205462003a8a601b8a6014811062003a7857fe5b0154426200349590919063ffffffff16565b6200372f90919063ffffffff16565b620037ba90919063ffffffff16565b601b866014811062003ab657fe5b01546200424690919063ffffffff16565b90506048600085815260200190815260200160002060008373ffffffffffffffffffffffffffffffffffffffff1673ffffffffffffffffffffffffffffffffffffffff16815260200190815260200160002054925062003b278462004c89565b62003b31565b4290505b62003b96836048600087815260200190815260200160002060008573ffffffffffffffffffffffffffffffffffffffff1673ffffffffffffffffffffffffffffffffffffffff168152602001908152602001600020546200349590919063ffffffff16565b6048600086815260200190815260200160002060008473ffffffffffffffffffffffffffffffffffffffff1673ffffffffffffffffffffffffffffffffffffffff16815260200190815260200160002081905550600062003c10601b866014811062003bfe57fe5b0154836200349590919063ffffffff16565b905062003c77816046600088815260200190815260200160002060008673ffffffffffffffffffffffffffffffffffffffff1673ffffffffffffffffffffffffffffffffffffffff168152602001908152602001600020546200424690919063ffffffff16565b6046600087815260200190815260200160002060008573ffffffffffffffffffffffffffffffffffffffff1673ffffffffffffffffffffffffffffffffffffffff1681526020019081526020016000208190555062003cf38160476000888152602001908152602001600020546200424690919063ffffffff16565b604760008781526020019081526020016000208190555062003d5e84604960008673ffffffffffffffffffffffffffffffffffffffff1673ffffffffffffffffffffffffffffffffffffffff168152602001908152602001600020546200424690919063ffffffff16565b604960008573ffffffffffffffffffffffffffffffffffffffff1673ffffffffffffffffffffffffffffffffffffffff1681526020019081526020016000208190555062003dc984604a6000888152602001908152602001600020546200424690919063ffffffff16565b604a60008781526020019081526020016000208190555062003df7846043546200424690919063ffffffff16565b60438190555084847fbd6a0009de32b24a5a6a1a6d50ef5ad8a8a09b7329cfc44c65b36c3e91bea91d60405160405180910390a3505050505b42601b826014811062003e3f57fe5b018190555050565b62003eac826048600084815260200190815260200160002060003373ffffffffffffffffffffffffffffffffffffffff1673ffffffffffffffffffffffffffffffffffffffff168152602001908152602001600020546200424690919063ffffffff16565b6048600083815260200190815260200160002060003373ffffffffffffffffffffffffffffffffffffffff1673ffffffffffffffffffffffffffffffffffffffff1681526020019081526020016000208190555062003f0c338362004ea6565b3373ffffffffffffffffffffffffffffffffffffffff1681837fe1f2f21fb1114ab2d2decad00b03b417c36f962c5bb4d917ab391fb546df0e4560405160405180910390a45050565b816007826014811062003f6457fe5b018190555081604d600083815260200190815260200160002060003373ffffffffffffffffffffffffffffffffffffffff1673ffffffffffffffffffffffffffffffffffffffff16815260200190815260200160002081905550806007826014811062003fcd57fe5b01547f4a02295c87a60873dbea741004d8f588cc9f62f944eefe5e5d8ae8e629cc9ddb60405160405180910390a35050565b600073ffffffffffffffffffffffffffffffffffffffff168473ffffffffffffffffffffffffffffffffffffffff16141580156200406a5750600073ffffffffffffffffffffffffffffffffffffffff168373ffffffffffffffffffffffffffffffffffffffff1614155b620040dd576040517f08c379a00000000000000000000000000000000000000000000000000000000081526004018080602001828103825260208152602001807f43616e6e6f742073656e6420746f2f66726f6d207a65726f206164647265737381525060200191505060405180910390fd5b8160078260148110620040ec57fe5b0181905550600460019054906101000a900473ffffffffffffffffffffffffffffffffffffffff1673ffffffffffffffffffffffffffffffffffffffff16639e68eb4a8585846040518463ffffffff1660e01b8152600401808473ffffffffffffffffffffffffffffffffffffffff1673ffffffffffffffffffffffffffffffffffffffff1681526020018373ffffffffffffffffffffffffffffffffffffffff1673ffffffffffffffffffffffffffffffffffffffff1681526020018281526020019350505050600060405180830381600087803b158015620041cf57600080fd5b505af1158015620041e4573d6000803e3d6000fd5b5050505050505050565b600033905090565b6001600460009054906101000a900460ff1660048111156200421457fe5b0160048111156200422157fe5b600460006101000a81548160ff021916908360048111156200423f57fe5b0217905550565b600080828401905083811015620042c5576040517f08c379a000000000000000000000000000000000000000000000000000000000815260040180806020018281038252601b8152602001807f536166654d6174683a206164646974696f6e206f766572666c6f77000000000081525060200191505060405180910390fd5b8091505092915050565b816048600083815260200190815260200160002060003373ffffffffffffffffffffffffffffffffffffffff1673ffffffffffffffffffffffffffffffffffffffff1681526020019081526020016000205410156200432a57fe5b6000600460019054906101000a900473ffffffffffffffffffffffffffffffffffffffff1673ffffffffffffffffffffffffffffffffffffffff16636352211e836040518263ffffffff1660e01b81526004018082815260200191505060206040518083038186803b158015620043a057600080fd5b505afa158015620043b5573d6000803e3d6000fd5b505050506040513d6020811015620043cc57600080fd5b810190808051906020019092919050505090503373ffffffffffffffffffffffffffffffffffffffff168173ffffffffffffffffffffffffffffffffffffffff16141562004539576000610e109050600062004441602f85601481106200442f57fe5b0154426200349590919063ffffffff16565b90508181101562004536576000620044736018600787601481106200446257fe5b0154620037ba90919063ffffffff16565b905060006200448c83856200349590919063ffffffff16565b90506000620044b985620044aa84866200372f90919063ffffffff16565b620037ba90919063ffffffff16565b905060006200452282604860008b815260200190815260200160002060003373ffffffffffffffffffffffffffffffffffffffff1673ffffffffffffffffffffffffffffffffffffffff168152602001908152602001600020546200349590919063ffffffff16565b90508881101562004531578098505b505050505b50505b6200459e836048600085815260200190815260200160002060003373ffffffffffffffffffffffffffffffffffffffff1673ffffffffffffffffffffffffffffffffffffffff168152602001908152602001600020546200349590919063ffffffff16565b6048600084815260200190815260200160002060003373ffffffffffffffffffffffffffffffffffffffff1673ffffffffffffffffffffffffffffffffffffffff1681526020019081526020016000208190555060006048600084815260200190815260200160002060003373ffffffffffffffffffffffffffffffffffffffff1673ffffffffffffffffffffffffffffffffffffffff1681526020019081526020016000205414156200480f573373ffffffffffffffffffffffffffffffffffffffff168173ffffffffffffffffffffffffffffffffffffffff16141562004692576200468c8262004c89565b6200480e565b6000604c600084815260200190815260200160002060003373ffffffffffffffffffffffffffffffffffffffff1673ffffffffffffffffffffffffffffffffffffffff16815260200190815260200160002060009054906101000a900473ffffffffffffffffffffffffffffffffffffffff1690506000604b600085815260200190815260200160002060003373ffffffffffffffffffffffffffffffffffffffff1673ffffffffffffffffffffffffffffffffffffffff16815260200190815260200160002060009054906101000a900473ffffffffffffffffffffffffffffffffffffffff16905080604b600086815260200190815260200160002060008473ffffffffffffffffffffffffffffffffffffffff1673ffffffffffffffffffffffffffffffffffffffff16815260200190815260200160002060006101000a81548173ffffffffffffffffffffffffffffffffffffffff021916908373ffffffffffffffffffffffffffffffffffffffff16021790555050505b5b6200481b33846200499c565b505050565b6000600560009054906101000a900473ffffffffffffffffffffffffffffffffffffffff1673ffffffffffffffffffffffffffffffffffffffff16637f8d429e6003546040518263ffffffff1660e01b81526004018082815260200191505060206040518083038186803b1580156200489857600080fd5b505afa158015620048ad573d6000803e3d6000fd5b505050506040513d6020811015620048c457600080fd5b8101908080519060200190929190505050905090565b600080600560009054906101000a900473ffffffffffffffffffffffffffffffffffffffff1673ffffffffffffffffffffffffffffffffffffffff1663d09cc57e6003546040518263ffffffff1660e01b81526004018082815260200191505060206040518083038186803b1580156200495357600080fd5b505afa15801562004968573d6000803e3d6000fd5b505050506040513d60208110156200497f57600080fd5b810190808051906020019092919050505090508060001c91505090565b600660009054906101000a900473ffffffffffffffffffffffffffffffffffffffff1673ffffffffffffffffffffffffffffffffffffffff1663a9059cbb83836040518363ffffffff1660e01b8152600401808373ffffffffffffffffffffffffffffffffffffffff1673ffffffffffffffffffffffffffffffffffffffff16815260200182815260200192505050602060405180830381600087803b15801562004a4657600080fd5b505af115801562004a5b573d6000803e3d6000fd5b505050506040513d602081101562004a7257600080fd5b810190808051906020019092919050505062004af6576040517f08c379a00000000000000000000000000000000000000000000000000000000081526004018080602001828103825260148152602001807f43617368207472616e73666572206661696c656400000000000000000000000081525060200191505060405180910390fd5b5050565b600083831115829062004bab576040517f08c379a00000000000000000000000000000000000000000000000000000000081526004018080602001828103825283818151815260200191508051906020019080838360005b8381101562004b6f57808201518184015260208101905062004b52565b50505050905090810190601f16801562004b9d5780820380516001836020036101000a031916815260200191505b509250505060405180910390fd5b5060008385039050809150509392505050565b6000808311829062004c6e576040517f08c379a00000000000000000000000000000000000000000000000000000000081526004018080602001828103825283818151815260200191508051906020019080838360005b8381101562004c3257808201518184015260208101905062004c15565b50505050905090810190601f16801562004c605780820380516001836020036101000a031916815260200191505b509250505060405180910390fd5b50600083858162004c7b57fe5b049050809150509392505050565b6000600460019054906101000a900473ffffffffffffffffffffffffffffffffffffffff1673ffffffffffffffffffffffffffffffffffffffff16636352211e836040518263ffffffff1660e01b81526004018082815260200191505060206040518083038186803b15801562004cff57600080fd5b505afa15801562004d14573d6000803e3d6000fd5b505050506040513d602081101562004d2b57600080fd5b810190808051906020019092919050505090506000604b600084815260200190815260200160002060008373ffffffffffffffffffffffffffffffffffffffff1673ffffffffffffffffffffffffffffffffffffffff16815260200190815260200160002060009054906101000a900473ffffffffffffffffffffffffffffffffffffffff1690503073ffffffffffffffffffffffffffffffffffffffff168173ffffffffffffffffffffffffffffffffffffffff161462004e95576000604d600085815260200190815260200160002060008373ffffffffffffffffffffffffffffffffffffffff1673ffffffffffffffffffffffffffffffffffffffff16815260200190815260200160002054905062004e4a8383838762003fff565b8173ffffffffffffffffffffffffffffffffffffffff16847fdcd7d049706cf89eb40b5726d483d3aa2001e43b729f0f411cdda43c2fe59f5260405160405180910390a35062004ea1565b62004ea08362005038565b5b505050565b600660009054906101000a900473ffffffffffffffffffffffffffffffffffffffff1673ffffffffffffffffffffffffffffffffffffffff166323b872dd8330846040518463ffffffff1660e01b8152600401808473ffffffffffffffffffffffffffffffffffffffff1673ffffffffffffffffffffffffffffffffffffffff1681526020018373ffffffffffffffffffffffffffffffffffffffff1673ffffffffffffffffffffffffffffffffffffffff1681526020018281526020019350505050602060405180830381600087803b15801562004f8457600080fd5b505af115801562004f99573d6000803e3d6000fd5b505050506040513d602081101562004fb057600080fd5b810190808051906020019092919050505062005034576040517f08c379a00000000000000000000000000000000000000000000000000000000081526004018080602001828103825260148152602001807f43617368207472616e73666572206661696c656400000000000000000000000081525060200191505060405180910390fd5b5050565b6000600460019054906101000a900473ffffffffffffffffffffffffffffffffffffffff1673ffffffffffffffffffffffffffffffffffffffff16636352211e836040518263ffffffff1660e01b81526004018082815260200191505060206040518083038186803b158015620050ae57600080fd5b505afa158015620050c3573d6000803e3d6000fd5b505050506040513d6020811015620050da57600080fd5b81019080805190602001909291905050509050620050fc813060008562003fff565b818173ffffffffffffffffffffffffffffffffffffffff167fafcc8a4b82e5204af0a7a41fc84d1d60492410d031ee4ea1769a4f90fd1fb59d60405160405180910390a35050565b612f4280620051538339019056fe60806040523480156200001157600080fd5b506040518060400160405280600f81526020017f7265616c69747963617264732e696f00000000000000000000000000000000008152506040518060400160405280600281526020017f5243000000000000000000000000000000000000000000000000000000000000815250620000966301ffc9a760e01b620001c960201b60201c565b8160069080519060200190620000ae929190620002da565b508060079080519060200190620000c7929190620002da565b50620000e06380ac58cd60e01b620001c960201b60201c565b620000f8635b5e139f60e01b620001c960201b60201c565b6200011063780e9d6360e01b620001c960201b60201c565b5050600062000124620002d260201b60201c565b905080600a60006101000a81548173ffffffffffffffffffffffffffffffffffffffff021916908373ffffffffffffffffffffffffffffffffffffffff1602179055508073ffffffffffffffffffffffffffffffffffffffff16600073ffffffffffffffffffffffffffffffffffffffff167f8be0079c531659141344cd1fd0a4f28419497f9722a3daafe3b4186f6b6457e060405160405180910390a35062000389565b63ffffffff60e01b817bffffffffffffffffffffffffffffffffffffffffffffffffffffffff1916141562000266576040517f08c379a000000000000000000000000000000000000000000000000000000000815260040180806020018281038252601c8152602001807f4552433136353a20696e76616c696420696e746572666163652069640000000081525060200191505060405180910390fd5b6001600080837bffffffffffffffffffffffffffffffffffffffffffffffffffffffff19167bffffffffffffffffffffffffffffffffffffffffffffffffffffffff1916815260200190815260200160002060006101000a81548160ff02191690831515021790555050565b600033905090565b828054600181600116156101000203166002900490600052602060002090601f016020900481019282601f106200031d57805160ff19168380011785556200034e565b828001600101855582156200034e579182015b828111156200034d57825182559160200191906001019062000330565b5b5090506200035d919062000361565b5090565b6200038691905b808211156200038257600081600090555060010162000368565b5090565b90565b612ba980620003996000396000f3fe608060405234801561001057600080fd5b50600436106101425760003560e01c806370a08231116100b8578063a22cb4651161007c578063a22cb46514610717578063b88d4fde14610767578063c87b56dd1461086c578063d3fc986414610913578063e985e9c5146109b6578063f2fde38b14610a3257610142565b806370a082311461057a578063715018a6146105d25780638da5cb5b146105dc57806395d89b41146106265780639e68eb4a146106a957610142565b806323b872dd1161010a57806323b872dd146103095780632f745c591461037757806342842e0e146103d95780634f6ccce7146104475780636352211e146104895780636c0360eb146104f757610142565b806301ffc9a71461014757806306fdde03146101ac578063081812fc1461022f578063095ea7b31461029d57806318160ddd146102eb575b600080fd5b6101926004803603602081101561015d57600080fd5b8101908080357bffffffffffffffffffffffffffffffffffffffffffffffffffffffff19169060200190929190505050610a76565b604051808215151515815260200191505060405180910390f35b6101b4610add565b6040518080602001828103825283818151815260200191508051906020019080838360005b838110156101f45780820151818401526020810190506101d9565b50505050905090810190601f1680156102215780820380516001836020036101000a031916815260200191505b509250505060405180910390f35b61025b6004803603602081101561024557600080fd5b8101908080359060200190929190505050610b7f565b604051808273ffffffffffffffffffffffffffffffffffffffff1673ffffffffffffffffffffffffffffffffffffffff16815260200191505060405180910390f35b6102e9600480360360408110156102b357600080fd5b81019080803573ffffffffffffffffffffffffffffffffffffffff16906020019092919080359060200190929190505050610c1a565b005b6102f3610d5e565b6040518082815260200191505060405180910390f35b6103756004803603606081101561031f57600080fd5b81019080803573ffffffffffffffffffffffffffffffffffffffff169060200190929190803573ffffffffffffffffffffffffffffffffffffffff16906020019092919080359060200190929190505050610d6f565b005b6103c36004803603604081101561038d57600080fd5b81019080803573ffffffffffffffffffffffffffffffffffffffff16906020019092919080359060200190929190505050610dcb565b6040518082815260200191505060405180910390f35b610445600480360360608110156103ef57600080fd5b81019080803573ffffffffffffffffffffffffffffffffffffffff169060200190929190803573ffffffffffffffffffffffffffffffffffffffff16906020019092919080359060200190929190505050610e26565b005b6104736004803603602081101561045d57600080fd5b8101908080359060200190929190505050610e46565b6040518082815260200191505060405180910390f35b6104b56004803603602081101561049f57600080fd5b8101908080359060200190929190505050610e69565b604051808273ffffffffffffffffffffffffffffffffffffffff1673ffffffffffffffffffffffffffffffffffffffff16815260200191505060405180910390f35b6104ff610ea0565b6040518080602001828103825283818151815260200191508051906020019080838360005b8381101561053f578082015181840152602081019050610524565b50505050905090810190601f16801561056c5780820380516001836020036101000a031916815260200191505b509250505060405180910390f35b6105bc6004803603602081101561059057600080fd5b81019080803573ffffffffffffffffffffffffffffffffffffffff169060200190929190505050610f42565b6040518082815260200191505060405180910390f35b6105da611017565b005b6105e46111a2565b604051808273ffffffffffffffffffffffffffffffffffffffff1673ffffffffffffffffffffffffffffffffffffffff16815260200191505060405180910390f35b61062e6111cc565b6040518080602001828103825283818151815260200191508051906020019080838360005b8381101561066e578082015181840152602081019050610653565b50505050905090810190601f16801561069b5780820380516001836020036101000a031916815260200191505b509250505060405180910390f35b610715600480360360608110156106bf57600080fd5b81019080803573ffffffffffffffffffffffffffffffffffffffff169060200190929190803573ffffffffffffffffffffffffffffffffffffffff1690602001909291908035906020019092919050505061126e565b005b6107656004803603604081101561072d57600080fd5b81019080803573ffffffffffffffffffffffffffffffffffffffff169060200190929190803515159060200190929190505050611348565b005b61086a6004803603608081101561077d57600080fd5b81019080803573ffffffffffffffffffffffffffffffffffffffff169060200190929190803573ffffffffffffffffffffffffffffffffffffffff16906020019092919080359060200190929190803590602001906401000000008111156107e457600080fd5b8201836020820111156107f657600080fd5b8035906020019184600183028401116401000000008311171561081857600080fd5b91908080601f016020809104026020016040519081016040528093929190818152602001838380828437600081840152601f19601f820116905080830192505050505050509192919290505050611500565b005b6108986004803603602081101561088257600080fd5b810190808035906020019092919050505061155d565b6040518080602001828103825283818151815260200191508051906020019080838360005b838110156108d85780820151818401526020810190506108bd565b50505050905090810190601f1680156109055780820380516001836020036101000a031916815260200191505b509250505060405180910390f35b6109b46004803603606081101561092957600080fd5b81019080803573ffffffffffffffffffffffffffffffffffffffff169060200190929190803590602001909291908035906020019064010000000081111561097057600080fd5b82018360208201111561098257600080fd5b803590602001918460018302840111640100000000831117156109a457600080fd5b9091929391929390505050611846565b005b610a18600480360360408110156109cc57600080fd5b81019080803573ffffffffffffffffffffffffffffffffffffffff169060200190929190803573ffffffffffffffffffffffffffffffffffffffff16906020019092919050505061196e565b604051808215151515815260200191505060405180910390f35b610a7460048036036020811015610a4857600080fd5b81019080803573ffffffffffffffffffffffffffffffffffffffff169060200190929190505050611a02565b005b6000806000837bffffffffffffffffffffffffffffffffffffffffffffffffffffffff19167bffffffffffffffffffffffffffffffffffffffffffffffffffffffff1916815260200190815260200160002060009054906101000a900460ff169050919050565b606060068054600181600116156101000203166002900480601f016020809104026020016040519081016040528092919081815260200182805460018160011615610100020316600290048015610b755780601f10610b4a57610100808354040283529160200191610b75565b820191906000526020600020905b815481529060010190602001808311610b5857829003601f168201915b5050505050905090565b6000610b8a82611c12565b610bdf576040517f08c379a000000000000000000000000000000000000000000000000000000000815260040180806020018281038252602c815260200180612aa3602c913960400191505060405180910390fd5b6004600083815260200190815260200160002060009054906101000a900473ffffffffffffffffffffffffffffffffffffffff169050919050565b6000610c2582610e69565b90508073ffffffffffffffffffffffffffffffffffffffff168373ffffffffffffffffffffffffffffffffffffffff161415610cac576040517f08c379a0000000000000000000000000000000000000000000000000000000008152600401808060200182810382526021815260200180612b536021913960400191505060405180910390fd5b8073ffffffffffffffffffffffffffffffffffffffff16610ccb611c2f565b73ffffffffffffffffffffffffffffffffffffffff161480610cfa5750610cf981610cf4611c2f565b61196e565b5b610d4f576040517f08c379a00000000000000000000000000000000000000000000000000000000081526004018080602001828103825260388152602001806129f66038913960400191505060405180910390fd5b610d598383611c37565b505050565b6000610d6a6002611cf0565b905090565b6000610dc6576040517f08c379a00000000000000000000000000000000000000000000000000000000081526004018080602001828103825260248152602001806129d26024913960400191505060405180910390fd5b505050565b6000610e1e82600160008673ffffffffffffffffffffffffffffffffffffffff1673ffffffffffffffffffffffffffffffffffffffff168152602001908152602001600020611d0590919063ffffffff16565b905092915050565b610e4183838360405180602001604052806000815250611500565b505050565b600080610e5d836002611d1f90919063ffffffff16565b50905080915050919050565b6000610e9982604051806060016040528060298152602001612a58602991396002611d4e9092919063ffffffff16565b9050919050565b606060098054600181600116156101000203166002900480601f016020809104026020016040519081016040528092919081815260200182805460018160011615610100020316600290048015610f385780601f10610f0d57610100808354040283529160200191610f38565b820191906000526020600020905b815481529060010190602001808311610f1b57829003601f168201915b5050505050905090565b60008073ffffffffffffffffffffffffffffffffffffffff168273ffffffffffffffffffffffffffffffffffffffff161415610fc9576040517f08c379a000000000000000000000000000000000000000000000000000000000815260040180806020018281038252602a815260200180612a2e602a913960400191505060405180910390fd5b611010600160008473ffffffffffffffffffffffffffffffffffffffff1673ffffffffffffffffffffffffffffffffffffffff168152602001908152602001600020611d6d565b9050919050565b61101f611c2f565b73ffffffffffffffffffffffffffffffffffffffff16600a60009054906101000a900473ffffffffffffffffffffffffffffffffffffffff1673ffffffffffffffffffffffffffffffffffffffff16146110e1576040517f08c379a00000000000000000000000000000000000000000000000000000000081526004018080602001828103825260208152602001807f4f776e61626c653a2063616c6c6572206973206e6f7420746865206f776e657281525060200191505060405180910390fd5b600073ffffffffffffffffffffffffffffffffffffffff16600a60009054906101000a900473ffffffffffffffffffffffffffffffffffffffff1673ffffffffffffffffffffffffffffffffffffffff167f8be0079c531659141344cd1fd0a4f28419497f9722a3daafe3b4186f6b6457e060405160405180910390a36000600a60006101000a81548173ffffffffffffffffffffffffffffffffffffffff021916908373ffffffffffffffffffffffffffffffffffffffff160217905550565b6000600a60009054906101000a900473ffffffffffffffffffffffffffffffffffffffff16905090565b606060078054600181600116156101000203166002900480601f0160208091040260200160405190810160405280929190818152602001828054600181600116156101000203166002900480156112645780601f1061123957610100808354040283529160200191611264565b820191906000526020600020905b81548152906001019060200180831161124757829003601f168201915b5050505050905090565b611276611c2f565b73ffffffffffffffffffffffffffffffffffffffff16600a60009054906101000a900473ffffffffffffffffffffffffffffffffffffffff1673ffffffffffffffffffffffffffffffffffffffff1614611338576040517f08c379a00000000000000000000000000000000000000000000000000000000081526004018080602001828103825260208152602001807f4f776e61626c653a2063616c6c6572206973206e6f7420746865206f776e657281525060200191505060405180910390fd5b611343838383611d82565b505050565b611350611c2f565b73ffffffffffffffffffffffffffffffffffffffff168273ffffffffffffffffffffffffffffffffffffffff1614156113f1576040517f08c379a00000000000000000000000000000000000000000000000000000000081526004018080602001828103825260198152602001807f4552433732313a20617070726f766520746f2063616c6c65720000000000000081525060200191505060405180910390fd5b80600560006113fe611c2f565b73ffffffffffffffffffffffffffffffffffffffff1673ffffffffffffffffffffffffffffffffffffffff16815260200190815260200160002060008473ffffffffffffffffffffffffffffffffffffffff1673ffffffffffffffffffffffffffffffffffffffff16815260200190815260200160002060006101000a81548160ff0219169083151502179055508173ffffffffffffffffffffffffffffffffffffffff166114ab611c2f565b73ffffffffffffffffffffffffffffffffffffffff167f17307eab39ab6107e8899845ad3d59bd9653f200f220920489ca2b5937696c3183604051808215151515815260200191505060405180910390a35050565b6000611557576040517f08c379a00000000000000000000000000000000000000000000000000000000081526004018080602001828103825260248152602001806129d26024913960400191505060405180910390fd5b50505050565b606061156882611c12565b6115bd576040517f08c379a000000000000000000000000000000000000000000000000000000000815260040180806020018281038252602f815260200180612b24602f913960400191505060405180910390fd5b6060600860008481526020019081526020016000208054600181600116156101000203166002900480601f0160208091040260200160405190810160405280929190818152602001828054600181600116156101000203166002900480156116665780601f1061163b57610100808354040283529160200191611666565b820191906000526020600020905b81548152906001019060200180831161164957829003601f168201915b505050505090506000600980546001816001161561010002031660029004905014156116955780915050611841565b60008151111561176e5760098160405160200180838054600181600116156101000203166002900480156117005780601f106116de576101008083540402835291820191611700565b820191906000526020600020905b8154815290600101906020018083116116ec575b505082805190602001908083835b60208310611731578051825260208201915060208101905060208303925061170e565b6001836020036101000a03801982511681845116808217855250505050505090500192505050604051602081830303815290604052915050611841565b600961177984611fc5565b60405160200180838054600181600116156101000203166002900480156117d75780601f106117b55761010080835404028352918201916117d7565b820191906000526020600020905b8154815290600101906020018083116117c3575b505082805190602001908083835b6020831061180857805182526020820191506020810190506020830392506117e5565b6001836020036101000a038019825116818451168082178552505050505050905001925050506040516020818303038152906040529150505b919050565b61184e611c2f565b73ffffffffffffffffffffffffffffffffffffffff16600a60009054906101000a900473ffffffffffffffffffffffffffffffffffffffff1673ffffffffffffffffffffffffffffffffffffffff1614611910576040517f08c379a00000000000000000000000000000000000000000000000000000000081526004018080602001828103825260208152602001807f4f776e61626c653a2063616c6c6572206973206e6f7420746865206f776e657281525060200191505060405180910390fd5b61191a848461210c565b6119688383838080601f016020809104026020016040519081016040528093929190818152602001838380828437600081840152601f19601f82011690508083019250505050505050612300565b50505050565b6000600560008473ffffffffffffffffffffffffffffffffffffffff1673ffffffffffffffffffffffffffffffffffffffff16815260200190815260200160002060008373ffffffffffffffffffffffffffffffffffffffff1673ffffffffffffffffffffffffffffffffffffffff16815260200190815260200160002060009054906101000a900460ff16905092915050565b611a0a611c2f565b73ffffffffffffffffffffffffffffffffffffffff16600a60009054906101000a900473ffffffffffffffffffffffffffffffffffffffff1673ffffffffffffffffffffffffffffffffffffffff1614611acc576040517f08c379a00000000000000000000000000000000000000000000000000000000081526004018080602001828103825260208152602001807f4f776e61626c653a2063616c6c6572206973206e6f7420746865206f776e657281525060200191505060405180910390fd5b600073ffffffffffffffffffffffffffffffffffffffff168173ffffffffffffffffffffffffffffffffffffffff161415611b52576040517f08c379a00000000000000000000000000000000000000000000000000000000081526004018080602001828103825260268152602001806129886026913960400191505060405180910390fd5b8073ffffffffffffffffffffffffffffffffffffffff16600a60009054906101000a900473ffffffffffffffffffffffffffffffffffffffff1673ffffffffffffffffffffffffffffffffffffffff167f8be0079c531659141344cd1fd0a4f28419497f9722a3daafe3b4186f6b6457e060405160405180910390a380600a60006101000a81548173ffffffffffffffffffffffffffffffffffffffff021916908373ffffffffffffffffffffffffffffffffffffffff16021790555050565b6000611c2882600261238a90919063ffffffff16565b9050919050565b600033905090565b816004600083815260200190815260200160002060006101000a81548173ffffffffffffffffffffffffffffffffffffffff021916908373ffffffffffffffffffffffffffffffffffffffff160217905550808273ffffffffffffffffffffffffffffffffffffffff16611caa83610e69565b73ffffffffffffffffffffffffffffffffffffffff167f8c5be1e5ebec7d5bd14f71427d1e84f3dd0314c0f7b2291e5b200ac8c7c3b92560405160405180910390a45050565b6000611cfe826000016123a4565b9050919050565b6000611d1483600001836123b5565b60001c905092915050565b600080600080611d328660000186612438565b915091508160001c8160001c8090509350935050509250929050565b6000611d61846000018460001b846124d1565b60001c90509392505050565b6000611d7b826000016125c7565b9050919050565b8273ffffffffffffffffffffffffffffffffffffffff16611da282610e69565b73ffffffffffffffffffffffffffffffffffffffff1614611e0e576040517f08c379a0000000000000000000000000000000000000000000000000000000008152600401808060200182810382526029815260200180612afb6029913960400191505060405180910390fd5b600073ffffffffffffffffffffffffffffffffffffffff168273ffffffffffffffffffffffffffffffffffffffff161415611e94576040517f08c379a00000000000000000000000000000000000000000000000000000000081526004018080602001828103825260248152602001806129ae6024913960400191505060405180910390fd5b611e9f8383836125d8565b611eaa600082611c37565b611efb81600160008673ffffffffffffffffffffffffffffffffffffffff1673ffffffffffffffffffffffffffffffffffffffff1681526020019081526020016000206125dd90919063ffffffff16565b50611f4d81600160008573ffffffffffffffffffffffffffffffffffffffff1673ffffffffffffffffffffffffffffffffffffffff1681526020019081526020016000206125f790919063ffffffff16565b50611f64818360026126119092919063ffffffff16565b50808273ffffffffffffffffffffffffffffffffffffffff168473ffffffffffffffffffffffffffffffffffffffff167fddf252ad1be2c89b69c2b068fc378daa952ba7f163c4a11628f55a4df523b3ef60405160405180910390a4505050565b6060600082141561200d576040518060400160405280600181526020017f30000000000000000000000000000000000000000000000000000000000000008152509050612107565b600082905060005b60008214612037578080600101915050600a828161202f57fe5b049150612015565b60608167ffffffffffffffff8111801561205057600080fd5b506040519080825280601f01601f1916602001820160405280156120835781602001600182028036833780820191505090505b50905060006001830390508593505b600084146120ff57600a84816120a457fe5b0660300160f81b828280600190039350815181106120be57fe5b60200101907effffffffffffffffffffffffffffffffffffffffffffffffffffffffffffff1916908160001a905350600a84816120f757fe5b049350612092565b819450505050505b919050565b600073ffffffffffffffffffffffffffffffffffffffff168273ffffffffffffffffffffffffffffffffffffffff1614156121af576040517f08c379a00000000000000000000000000000000000000000000000000000000081526004018080602001828103825260208152602001807f4552433732313a206d696e7420746f20746865207a65726f206164647265737381525060200191505060405180910390fd5b6121b881611c12565b1561222b576040517f08c379a000000000000000000000000000000000000000000000000000000000815260040180806020018281038252601c8152602001807f4552433732313a20746f6b656e20616c7265616479206d696e7465640000000081525060200191505060405180910390fd5b612237600083836125d8565b61228881600160008573ffffffffffffffffffffffffffffffffffffffff1673ffffffffffffffffffffffffffffffffffffffff1681526020019081526020016000206125f790919063ffffffff16565b5061229f818360026126119092919063ffffffff16565b50808273ffffffffffffffffffffffffffffffffffffffff16600073ffffffffffffffffffffffffffffffffffffffff167fddf252ad1be2c89b69c2b068fc378daa952ba7f163c4a11628f55a4df523b3ef60405160405180910390a45050565b61230982611c12565b61235e576040517f08c379a000000000000000000000000000000000000000000000000000000000815260040180806020018281038252602c815260200180612acf602c913960400191505060405180910390fd5b806008600084815260200190815260200160002090805190602001906123859291906128c0565b505050565b600061239c836000018360001b612646565b905092915050565b600081600001805490509050919050565b600081836000018054905011612416576040517f08c379a00000000000000000000000000000000000000000000000000000000081526004018080602001828103825260228152602001806129666022913960400191505060405180910390fd5b82600001828154811061242557fe5b9060005260206000200154905092915050565b6000808284600001805490501161249a576040517f08c379a0000000000000000000000000000000000000000000000000000000008152600401808060200182810382526022815260200180612a816022913960400191505060405180910390fd5b60008460000184815481106124ab57fe5b906000526020600020906002020190508060000154816001015492509250509250929050565b60008084600101600085815260200190815260200160002054905060008114158390612598576040517f08c379a00000000000000000000000000000000000000000000000000000000081526004018080602001828103825283818151815260200191508051906020019080838360005b8381101561255d578082015181840152602081019050612542565b50505050905090810190601f16801561258a5780820380516001836020036101000a031916815260200191505b509250505060405180910390fd5b508460000160018203815481106125ab57fe5b9060005260206000209060020201600101549150509392505050565b600081600001805490509050919050565b505050565b60006125ef836000018360001b612669565b905092915050565b6000612609836000018360001b612751565b905092915050565b600061263d846000018460001b8473ffffffffffffffffffffffffffffffffffffffff1660001b6127c1565b90509392505050565b600080836001016000848152602001908152602001600020541415905092915050565b6000808360010160008481526020019081526020016000205490506000811461274557600060018203905060006001866000018054905003905060008660000182815481106126b457fe5b90600052602060002001549050808760000184815481106126d157fe5b906000526020600020018190555060018301876001016000838152602001908152602001600020819055508660000180548061270957fe5b6001900381819060005260206000200160009055905586600101600087815260200190815260200160002060009055600194505050505061274b565b60009150505b92915050565b600061275d838361289d565b6127b65782600001829080600181540180825580915050600190039060005260206000200160009091909190915055826000018054905083600101600084815260200190815260200160002081905550600190506127bb565b600090505b92915050565b600080846001016000858152602001908152602001600020549050600081141561286857846000016040518060400160405280868152602001858152509080600181540180825580915050600190039060005260206000209060020201600090919091909150600082015181600001556020820151816001015550508460000180549050856001016000868152602001908152602001600020819055506001915050612896565b8285600001600183038154811061287b57fe5b90600052602060002090600202016001018190555060009150505b9392505050565b600080836001016000848152602001908152602001600020541415905092915050565b828054600181600116156101000203166002900490600052602060002090601f016020900481019282601f1061290157805160ff191683800117855561292f565b8280016001018555821561292f579182015b8281111561292e578251825591602001919060010190612913565b5b50905061293c9190612940565b5090565b61296291905b8082111561295e576000816000905550600101612946565b5090565b9056fe456e756d657261626c655365743a20696e646578206f7574206f6620626f756e64734f776e61626c653a206e6577206f776e657220697320746865207a65726f20616464726573734552433732313a207472616e7366657220746f20746865207a65726f20616464726573734f6e6c792074686520636f6e74726163742063616e206d616b65207472616e73666572734552433732313a20617070726f76652063616c6c6572206973206e6f74206f776e6572206e6f7220617070726f76656420666f7220616c6c4552433732313a2062616c616e636520717565727920666f7220746865207a65726f20616464726573734552433732313a206f776e657220717565727920666f72206e6f6e6578697374656e7420746f6b656e456e756d657261626c654d61703a20696e646578206f7574206f6620626f756e64734552433732313a20617070726f76656420717565727920666f72206e6f6e6578697374656e7420746f6b656e4552433732314d657461646174613a2055524920736574206f66206e6f6e6578697374656e7420746f6b656e4552433732313a207472616e73666572206f6620746f6b656e2074686174206973206e6f74206f776e4552433732314d657461646174613a2055524920717565727920666f72206e6f6e6578697374656e7420746f6b656e4552433732313a20617070726f76616c20746f2063757272656e74206f776e6572a2646970667358221220a5198f237ecd7dec5bb3745799113ca7845652fc64cc4758ed49f76fe51ad59364736f6c634300060600334f776e61626c653a206e6577206f776e657220697320746865207a65726f2061646472657373536166654d6174683a206d756c7469706c69636174696f6e206f766572666c6f774e6f7420612077696e6e65722c206f722077696e6e696e677320616c7265616479207061696450616964206e6f2072656e742c206f722072656e7420616c72656164792072657475726e6564a2646970667358221220593bbf9ef87f4299038ebd0eb72fea0c06926fcd8e84b4f9fc104be7817b354264736f6c634300060600334f776e61626c653a206e6577206f776e657220697320746865207a65726f2061646472657373546573742036e2909f2258222c2259222c225a22e2909f6e6577732d706f6c6974696373e2909f656e5f5553",
  "immutableReferences": {},
  "source": "pragma solidity 0.6.6;\nimport \"@openzeppelin/contracts/math/SafeMath.sol\";\nimport \"@openzeppelin/contracts/access/Ownable.sol\";\nimport \"./interfaces/ICash.sol\";\nimport \"./interfaces/IRealitio.sol\";\nimport \"./Token.sol\";\n\n/// @title Harber\n/// @author Andrew Stanger\n\ncontract Harber is Ownable {\n\n    using SafeMath for uint256;\n\n    ////////////////////////////////////\n    //////// VARIABLES /////////////////\n    ////////////////////////////////////\n\n    /// CONTRACT SETUP\n    /// @dev not set in the constructor because so many other variables need it for initating.  \n    uint256 constant private numberOfTokens = 20;\n    /// @dev counts how many NFTs have been minted \n    /// @dev when nftMintCount = numberOfTokens, allNftsMinted -> true\n    uint256 private nftMintCount;\n    /// @dev must be true for any functions to work (except mintNfts)\n    bool private allNftsMinted;\n    /// @dev the question ID of the question on realitio\n    bytes32 public questionId;\n    /// @dev only for _revertToPreviousOwner to prevent gas limits\n    uint256 constant private MAX_ITERATIONS = 10;\n    enum States {NOTOKENCONTRACT, NFTSNOTMINTED, OPEN, LOCKED, WITHDRAW}\n    States public state; \n\n    /// CONTRACT VARIABLES\n    Token public token;\n    IRealitio public realitio;\n    ICash public cash; \n\n    /// NFT/USER DATA\n    /// @dev in attodai (so $100 = 100000000000000000000)\n    uint256[numberOfTokens] public price; \n    /// @dev used to determine the rent due. Rent is due for the period (now - timeLastCollected), at which point timeLastCollected is set to now.\n    uint256[numberOfTokens] public timeLastCollected; \n    /// @dev when a token was bought. Used to enforce minimum of one hour rental, also used in front end. Rent collection does not need this, only needs timeLastCollected.\n    uint256[numberOfTokens] public timeAcquired; \n    /// @dev tracks the position of the current owner in the ownerTracker mapping\n    // uint256[numberOfTokens] public currentOwnerIndex; \n    /// @dev an easy way to track the above across all tokens. It should always increment at the same time as the above increments. \n    uint256 public totalCollected; \n    \n    /// WINNING OUTCOME VARIABLES\n    /// @dev start with invalid winning outcome\n    uint256 public winningOutcome = 42069; \n    //// @dev when the question can be answered on Realitio. \n    uint32 public marketExpectedResolutionTime; \n\n    /// MARKET RESOLUTION VARIABLES\n    bool public questionResolvedInvalid = true; // set in step 2. If false, normal payout. If true, return all funds\n    \n    ///  STRUCTS\n    struct purchase {\n        address owner;\n        uint256 price;\n    }\n    \n    /// MAPPINGS\n    /// @dev keeps track of all previous owners of a token, including the price, so that if the current owner's deposit runs out,\n    /// @dev ...ownership can be reverted to a previous owner with the previous price. Index 0 is NOT used, this tells the contract to foreclose.\n    /// @dev this does NOT keep a reliable list of all owners, if it reverts to a previous owner then the next owner will overwrite the owner that was in that slot.\n    /// @dev the variable currentOwnerIndex is used to track the location of the current owner. \n    // mapping (uint256 => mapping (uint256 => purchase) ) public ownerTracker;  \n    /// @dev how many seconds each user has held each token for, for determining winnings  \n    mapping (uint256 => mapping (address => uint256) ) public timeHeld;\n    /// @dev sums all the timeHelds for each  Not required, but saves on gas when paying out. Should always increment at the same time as timeHeld\n    mapping (uint256 => uint256) public totalTimeHeld; \n    /// @dev keeps track of all the deposits for each token, for each owner. Unused deposits are not returned automatically when there is a new buyer. \n    /// @dev they can be withdrawn manually however. Unused deposits are returned automatically upon resolution of the market\n    mapping (uint256 => mapping (address => uint256) ) public deposits; \n    /// @dev keeps track of all the rent paid by each user. So that it can be returned in case of an invalid market outcome. Only required in this instance. \n    mapping (address => uint256) public collectedPerUser;\n    /// @dev keeps track of all the rent paid for each  Front end only\n    mapping (uint256 => uint256) public collectedPerToken;\n    /// @dev stores the address to revert ownership to should this user's deposit run out\n    mapping (uint256 => mapping (address => address) ) public linkedListPrevious; \n    /// @dev stores the address that will revert back to this user if that owner's deposit runs out\n    mapping (uint256 => mapping (address => address) ) public linkedListNext;\n    /// @dev the token prices of previous owners, in case ownership reverts back to them\n    mapping (uint256 => mapping (address => uint256) ) public previousPrices; \n\n    ////////////////////////////////////\n    //////// CONSTRUCTOR ///////////////\n    ////////////////////////////////////\n\n    constructor(address _owner, ICash _addressOfCashContract, IRealitio _addressOfRealitioContract, uint32 _marketExpectedResolutionTime) public\n    {\n        // reassign ownership (because deployed using public seed)\n        transferOwnership(_owner);\n\n        // assign arguments to relevant variables\n        marketExpectedResolutionTime = _marketExpectedResolutionTime;\n        \n        // external contract variables:\n        realitio = _addressOfRealitioContract;\n        cash = _addressOfCashContract;\n\n        // Create the question on Realitio\n        uint256 template_id = 2;\n        string memory question = 'Test 6\"X\",\"Y\",\"Z\"news-politicsen_US';\n        address arbitrator = 0xA6EAd513D05347138184324392d8ceb24C116118; // to change\n        uint32 timeout = 86400; // 24 hours\n        uint32 opening_ts = _marketExpectedResolutionTime;\n        uint256 nonce = 0;\n        questionId = _postQuestion(template_id, question, arbitrator, timeout, opening_ts, nonce);\n    } \n\n    ////////////////////////////////////\n    //////// EVENTS ////////////////////\n    ////////////////////////////////////\n\n    event LogNewRental(address indexed newOwner, uint256 indexed newPrice, uint256 indexed tokenId);\n    event LogPriceChange(uint256 indexed newPrice, uint256 indexed tokenId);\n    event LogForeclosure(address indexed prevOwner, uint256 indexed tokenId);\n    event LogRentCollection(uint256 indexed rentCollected, uint256 indexed tokenId);\n    event LogReturnToPreviousOwner(uint256 indexed tokenId, address indexed previousOwner);\n    event LogDepositWithdrawal(uint256 indexed daiWithdrawn, uint256 indexed tokenId, address indexed returnedTo);\n    event LogDepositIncreased(uint256 indexed daiDeposited, uint256 indexed tokenId, address indexed sentBy);\n    event LogStep1Complete(bool indexed didTheEventFinish);\n    event LogStep2Complete(bool indexed didRealitioResolve, uint256 indexed winningOutcome, bool indexed didRealitioResolveInvalid);\n    event LogWinningsPaid(address indexed paidTo, uint256 indexed amountPaid);\n    event LogRentReturned(address indexed returnedTo, uint256 indexed amountReturned);\n    event TestingVariable(uint indexed testingVariable);\n\n    ////////////////////////////////////\n    //////// INITIAL SETUP /////////////\n    ////////////////////////////////////\n\n    /// @notice deploys the ERC721 contract\n    function deployTokenContract() external checkState(States.NOTOKENCONTRACT) onlyOwner {\n        token = new Token();\n        _incrementState();\n    }\n\n    /// @notice mint the NFTs. Must setTokenOwner first or will revert\n    function mintNfts(string calldata _uri) external checkState(States.NFTSNOTMINTED) onlyOwner {\n        token.mint(address(this), nftMintCount, _uri); \n        nftMintCount = nftMintCount.add(1);\n        if (nftMintCount == numberOfTokens) {\n            _incrementState();\n        }\n    }\n\n    ////////////////////////////////////\n    /////////// MODIFIERS //////////////\n    ////////////////////////////////////\n\n    modifier checkState(States currentState) {\n        require(state == currentState, \"Incorrect state\");\n        _;\n    }\n\n    /// @notice checks the token exists\n    modifier tokenExists(uint256 _tokenId) {\n        require(_tokenId  >= 0 && _tokenId < numberOfTokens, \"This token does not exist\");\n       _;\n    }\n\n    /// @notice what it says on the tin\n    modifier amountNotZero(uint256 _dai) {\n        require(_dai  > 0, \"Amount must be above zero\");\n       _;\n    }\n\n    /// @notice what it says on the tin\n    modifier onlyTokenOwner(uint256 _tokenId) {\n        require(msg.sender == token.ownerOf(_tokenId), \"Not owner\");\n       _;\n    }\n\n    ////////////////////////////////////\n    //////// VIEW FUNCTIONS ////////////\n    ////////////////////////////////////\n\n    /// @dev called in collectRent function, and various other view functions \n    function rentOwed(uint256 _tokenId) public view returns (uint256) {\n        return price[_tokenId].mul(now.sub(timeLastCollected[_tokenId])).div(1 days);\n    }\n\n    // /// @dev used in testing only\n    // function getOwnerTrackerPrice(uint256 _tokenId, uint256 _index) external view returns (uint256) {\n    //     return (ownerTracker[_tokenId][_index].price);\n    // }\n\n    // /// @dev used in testing only\n    // function getOwnerTrackerAddress(uint256 _tokenId, uint256 _index) external view returns (address) {\n    //     return (ownerTracker[_tokenId][_index].owner);\n    // }\n\n    /// @dev for front end only\n    /// @return how much the current owner has deposited\n    function liveDepositAbleToWithdraw(uint256 _tokenId) public view returns (uint256) {\n        uint256 _rentOwed = rentOwed(_tokenId);\n        address _currentOwner = token.ownerOf(_tokenId);\n        if(_rentOwed >= deposits[_tokenId][_currentOwner]) {\n            return 0;\n        } else {\n            return deposits[_tokenId][_currentOwner].sub(_rentOwed);\n        }\n    }\n\n    /// @dev for front end only\n    /// @return how much the current user has deposited (note: user not owner)\n    function userDepositAbleToWithdraw(uint256 _tokenId) external view returns (uint256) {\n        uint256 _rentOwed = rentOwed(_tokenId);\n        address _currentOwner = token.ownerOf(_tokenId);\n\n        if(_currentOwner == msg.sender) {\n            if(_rentOwed >= deposits[_tokenId][msg.sender]) {\n                return 0;\n            } else {\n                return deposits[_tokenId][msg.sender].sub(_rentOwed);\n            }\n        } else {\n            return deposits[_tokenId][msg.sender];\n        }\n    }\n\n    /// @dev for front end only\n    /// @return estimated rental expiry time\n    function rentalExpiryTime(uint256 _tokenId) external view returns (uint256) {\n        uint256 pps;\n        pps = price[_tokenId].div(1 days);\n        if (pps == 0) {\n            return now; //if price is so low that pps = 0 just return current time as a fallback\n        }\n        else {\n            return now + liveDepositAbleToWithdraw(_tokenId).div(pps);\n        }\n    }\n\n    /// @dev for front end and _payoutWinnings function\n    function getWinnings(uint256 _winningOutcome) public view returns (uint256) {\n        uint256 _winnersTimeHeld = timeHeld[_winningOutcome][msg.sender];\n        uint256 _numerator = totalCollected.mul(_winnersTimeHeld);\n        uint256 _winnings = _numerator.div(totalTimeHeld[winningOutcome]);    \n        return _winnings;    \n    }\n    \n    ////////////////////////////////////\n    ///// EXTERNAL DAI FUNCTIONS ///////\n    ////////////////////////////////////\n\n    // * internal * \n    /// @notice common function for all outgoing DAI transfers\n    function _sendCash(address _to, uint256 _amount) internal { \n        require(cash.transfer(_to,_amount), \"Cash transfer failed\"); \n    }\n\n    // * internal * \n    /// @notice common function for all incoming DAI transfers\n    function _receiveCash(address _from, uint256 _amount) internal {  \n        require(cash.transferFrom(_from, address(this), _amount), \"Cash transfer failed\");\n    }\n\n    ////////////////////////////////////\n    //// EXTERNAL REALITIO FUNCTIONS ///\n    ////////////////////////////////////\n\n    /// @notice posts the question to realit.io\n    function _postQuestion(uint256 template_id, string memory question, address arbitrator, uint32 timeout, uint32 opening_ts, uint256 nonce) internal returns (bytes32) {\n        return realitio.askQuestion(template_id, question, arbitrator, timeout, opening_ts, nonce);\n    }\n\n    /// @notice gets the winning outcome from realitio\n    /// @dev the returned value is equivilent to tokenId\n    /// @dev this function call will revert if it has not yet resolved\n    function _getWinner() internal view returns(uint256) {\n        bytes32 _winningOutcome = realitio.resultFor(questionId);\n        return uint256(_winningOutcome);\n    }\n\n    /// @notice has the question been finalized on realitio?\n    function _isQuestionFinalized() internal view returns (bool) {\n        return realitio.isFinalized(questionId);\n    }\n\n    ////////////////////////////////////\n    //// MARKET RESOLUTION FUNCTIONS ///\n    ////////////////////////////////////\n\n    /// @notice the first of two functions which must be called, one after the other, to conclude the competition\n    /// @notice winnings can be paid out (or funds returned) only when these three steps are completed\n    /// @notice this function checks whether the competition has ended (1 hour grace), if so closes down all 'ordinary course of business' functions\n    /// @dev can be called by anyone \n    function step1checkMarketEnded() external checkState(States.OPEN) {\n        require(marketExpectedResolutionTime < (now - 1 hours), \"Market has not finished\");\n        // do a final rent collection before the contract is locked down\n        collectRentAllTokens();\n        // lock everything down\n        _incrementState();\n        emit LogStep1Complete(true);\n    }\n\n    /// @notice the second of two functions which must be called, one after the other, to conclude the competition\n    /// @notice this function checks whether the Realitio question has resolved, and if yes, gets the winner\n    /// @dev can be called by anyone \n    function step2getWinner() external checkState(States.LOCKED) {\n        require(_isQuestionFinalized() == true, \"Oracle not resolved\");\n        // get the winner. This will revert if answer is not resolved.\n        winningOutcome = _getWinner();\n        // check if question resolved invalid\n        if (winningOutcome !=  ((2**256)-1)) {\n            questionResolvedInvalid = false;\n        }\n        _incrementState();\n        emit LogStep2Complete(true, winningOutcome, questionResolvedInvalid);\n    }\n\n    /// @notice emergency function in case the Realitio question never resolves for whatever reason, can be called by anyone\n    /// @notice returns all funds to all users\n    /// @notice can only be called 1 month after Realitio question should have ended \n    function step2BemergencyExit() external checkState(States.LOCKED) {\n        require(now > (marketExpectedResolutionTime + 4 weeks), \"Must wait 1 month\");\n        _incrementState();\n        emit LogStep2Complete(false, winningOutcome, false);\n    }\n\n    /// @notice Same as above, except that only owner can call it, and can be called at any time\n    /// @notice to be clear, this only allows owner to return all funds, not to set a winner\n    function step2CcircuitBreaker() external checkState(States.LOCKED) onlyOwner {\n        _incrementState();\n        emit LogStep2Complete(false, winningOutcome, false);\n    }\n\n    /// @notice the final function of the competition resolution process. Pays out winnings, or returns funds, as necessary\n    /// @dev users pull dai into their ac   count. \n    function withdraw() external checkState(States.WITHDRAW) {\n        if (!questionResolvedInvalid) {\n            _payoutWinnings();\n        } else {\n             _returnRent();\n        }\n    }\n\n     // * internal * \n    /// @notice pays winnings to the winners\n    /// @dev must be internal and only called by complete\n    function _payoutWinnings() internal {\n        uint256 _winningsToTransfer = getWinnings(winningOutcome);\n        require(_winningsToTransfer > 0, \"Not a winner, or winnings already paid\");\n        timeHeld[winningOutcome][msg.sender] = 0; // otherwise they can keep paying themselves over and over\n        _sendCash(msg.sender, _winningsToTransfer);\n        emit LogWinningsPaid(msg.sender, _winningsToTransfer);\n    }\n\n    // * internal * \n    /// @notice returns all funds to users in case of invalid outcome\n    /// @dev must be internal and only called by complete\n    function _returnRent() internal {\n        uint256 _rentCollected = collectedPerUser[msg.sender];\n        require(_rentCollected > 0, \"Paid no rent, or rent already returned\");\n        collectedPerUser[msg.sender] = 0; // otherwise they can keep paying themselves over and over\n        _sendCash(msg.sender, _rentCollected);\n        emit LogRentReturned(msg.sender, _rentCollected);\n    }\n\n    /// @notice withdraw full deposit after markets have resolved\n    /// @dev the other withdraw deposit functions are locked when markets have closed so must use this one\n    /// @dev can be called in either locked or withdraw state\n    /// @dev this function is also different in that it does \n    /// @dev ... not attempt to collect rent or transfer ownership to a previous owner\n    function withdrawDepositAfterMarketEnded() external {\n        require(state != States.NFTSNOTMINTED, \"Incorrect state\");\n        require(state != States.OPEN, \"Incorrect state\");\n        for (uint i = 0; i < numberOfTokens; i++) {\n\n            uint256 _depositToReturn = deposits[i][msg.sender];\n\n            if (_depositToReturn > 0) {\n                deposits[i][msg.sender] = 0;\n                _sendCash(msg.sender, _depositToReturn);\n                emit LogDepositWithdrawal(_depositToReturn, i, msg.sender);\n            }\n        }\n    }\n\n    ////////////////////////////////////\n    ///// MAIN FUNCTIONS- EXTERNAL /////\n    ////////////////////////////////////\n    /// @dev basically functions that have checkState(States.OPEN) modifier\n\n    /// @notice collects rent for all tokens\n    /// @dev makes it easy for me to call whenever I want to keep people paying their rent, thus cannot be internal\n    /// @dev cannot be external because it is called within the step1 functions, therefore public\n    function collectRentAllTokens() public checkState(States.OPEN) {\n       for (uint i = 0; i < numberOfTokens; i++) {\n            _collectRent(i);\n        }\n    }\n    \n    /// @notice to rent a token\n    function newRental(uint256 _newPrice, uint256 _tokenId, uint256 _deposit) external checkState(States.OPEN) tokenExists(_tokenId) amountNotZero(_deposit) {\n        uint256 _currentPricePlusTenPercent = price[_tokenId].mul(11).div(10);\n        uint256 _oneHoursDeposit = _newPrice.div(24);\n        require(_newPrice >= _currentPricePlusTenPercent, \"Price not 10% higher\");\n        require(_deposit >= _oneHoursDeposit, \"One hour's rent minimum\");\n        require(_newPrice >= 0.01 ether, \"Minimum rental 0.01 Dai\");\n        \n        _collectRent(_tokenId);\n        _depositDai(_deposit, _tokenId);\n\n        address _currentOwner = token.ownerOf(_tokenId);\n\n        if (_currentOwner == msg.sender) { // bought by current owner- just change price\n            _changePrice(_newPrice, _tokenId);\n        } else {   // bought by new user- the normal flow\n            // update internals\n            // currentOwnerIndex[_tokenId] = currentOwnerIndex[_tokenId].add(1); \n            // ownerTracker[_tokenId][currentOwnerIndex[_tokenId]].price = _newPrice;\n            // ownerTracker[_tokenId][currentOwnerIndex[_tokenId]].owner = msg.sender; \n            timeAcquired[_tokenId] = now;\n            // add previous owner to linkedlists\n            linkedListPrevious[_tokenId][msg.sender] = _currentOwner;\n            linkedListNext[_tokenId][_currentOwner] = msg.sender;\n            previousPrices[_tokenId][msg.sender] = _newPrice;\n            // ownershipDetails[_tokenId][msg.sender].price = _newPrice;\n            _transferTokenTo(_currentOwner, msg.sender, _newPrice, _tokenId);\n            emit LogNewRental(msg.sender, _newPrice, _tokenId); \n        }\n    }\n\n    /// @notice add new dai deposit to an existing rental\n    /// @dev it is possible a user's deposit could be reduced to zero following _collectRent\n    /// @dev they would then increase their deposit despite no longer owning it\n    /// @dev this is ok, they can still withdraw via withdrawDeposit. \n    /// @dev can be called by anyone- you can top up someone else's deposit if you wish!\n    function depositDai(uint256 _dai, uint256 _tokenId) external checkState(States.OPEN) amountNotZero(_dai) tokenExists(_tokenId) {\n        _collectRent(_tokenId);\n        _depositDai(_dai, _tokenId);\n    }\n\n    /// @notice increase the price of an existing rental\n    function changePrice(uint256 _newPrice, uint256 _tokenId) external checkState(States.OPEN) tokenExists(_tokenId) onlyTokenOwner(_tokenId) {\n        require(_newPrice > price[_tokenId], \"New price must be higher\"); \n        _collectRent(_tokenId);\n        _changePrice(_newPrice, _tokenId);\n    }\n    \n    /// @notice withdraw deposit\n    /// @dev do not need to be the current owner\n    /// @dev public because called by exit\n    function withdrawDeposit(uint256 _daiToWithdraw, uint256 _tokenId) public checkState(States.OPEN) tokenExists(_tokenId) amountNotZero(_daiToWithdraw) {\n        _collectRent(_tokenId);\n        uint256 _remainingDeposit = deposits[_tokenId][msg.sender];\n        // deposits may be lower (or zero) then when function called due to _collectRent \n        if (_remainingDeposit > 0) { \n            if (_remainingDeposit < _daiToWithdraw) {\n                _daiToWithdraw = _remainingDeposit;\n            }\n            _withdrawDeposit(_daiToWithdraw, _tokenId);\n            emit LogDepositWithdrawal(_daiToWithdraw, _tokenId, msg.sender);\n        }\n    }\n\n    /// @notice withdraw full deposit\n    /// @dev do not need to be the current owner\n    /// @dev no modifiers because they are on withdrawDeposit\n    function exit(uint256 _tokenId) external {\n        withdrawDeposit(deposits[_tokenId][msg.sender],  _tokenId);\n    }\n\n    ////////////////////////////////////\n    ///// MAIN FUNCTIONS- INTERNAL /////\n    ////////////////////////////////////\n\n    /// @dev should only be called thrice\n    function _incrementState() internal  {\n        state = States(uint(state) + 1);\n    }\n\n    /// @notice collects rent for a specific token\n    /// @dev also calculates and updates how long the current user has held the token for\n    /// @dev called frequently internally, so cant be external. \n    /// @dev is not a problem if called externally, but making internal over public to save gas\n    function _collectRent(uint256 _tokenId) internal {\n        //only collect rent if the token is owned (ie, if owned by the contract this implies unowned)\n        if (token.ownerOf(_tokenId) != address(this)) {\n            \n            uint256 _rentOwed = rentOwed(_tokenId);\n            address _currentOwner = token.ownerOf(_tokenId);\n            uint256 _timeOfThisCollection;\n            \n            if (_rentOwed >= deposits[_tokenId][_currentOwner]) {\n                // run out of deposit. Calculate time it was actually paid for, then revert to previous owner \n                _timeOfThisCollection = timeLastCollected[_tokenId].add(((now.sub(timeLastCollected[_tokenId])).mul(deposits[_tokenId][_currentOwner]).div(_rentOwed)));\n                _rentOwed = deposits[_tokenId][_currentOwner]; // take what's left     \n                _revertToPreviousOwner(_tokenId);\n                \n            } else  {\n                // normal collection\n                _timeOfThisCollection = now;\n            }\n\n            // decrease deposit by rent owed\n            deposits[_tokenId][_currentOwner] = deposits[_tokenId][_currentOwner].sub(_rentOwed);\n\n            // update time held and amount collected variables\n            uint256 _timeHeldToIncrement = (_timeOfThisCollection.sub(timeLastCollected[_tokenId])); //just for readability\n            timeHeld[_tokenId][_currentOwner] = timeHeld[_tokenId][_currentOwner].add(_timeHeldToIncrement);\n            totalTimeHeld[_tokenId] = totalTimeHeld[_tokenId].add(_timeHeldToIncrement);\n            collectedPerUser[_currentOwner] = collectedPerUser[_currentOwner].add(_rentOwed);\n            collectedPerToken[_tokenId] = collectedPerToken[_tokenId].add(_rentOwed);\n            totalCollected = totalCollected.add(_rentOwed);\n\n            emit LogRentCollection(_rentOwed, _tokenId);\n        }\n\n        // timeLastCollected is updated regardless of whether the token is owned, so that the clock starts ticking\n        // ... when the first owner buys it, because this function is run before ownership changes upon calling\n        // ... newRental\n        timeLastCollected[_tokenId] = now;\n    }\n\n    /// @dev depositDai is split into two, because it needs to be called direct from newRental\n    /// @dev ... without collecing rent first (otherwise it would be collected twice, possibly causing logic errors)\n    function _depositDai(uint256 _dai, uint256 _tokenId) internal {\n        deposits[_tokenId][msg.sender] = deposits[_tokenId][msg.sender].add(_dai);\n        _receiveCash(msg.sender, _dai);\n        emit LogDepositIncreased(_dai, _tokenId, msg.sender);\n    }\n\n    /// @dev changePrice is split into two, because it needs to be called direct from newRental\n    /// @dev ... without collecing rent first (otherwise it would be collected twice, possibly causing logic errors)\n    function _changePrice(uint256 _newPrice, uint256 _tokenId) internal {\n        // below is the only instance when price is modifed outside of the _transferTokenTo function\n        price[_tokenId] = _newPrice;\n        // ownerTracker[_tokenId][currentOwnerIndex[_tokenId]].price = _newPrice;\n        previousPrices[_tokenId][msg.sender] = _newPrice;\n        emit LogPriceChange(price[_tokenId], _tokenId);\n    }\n\n    /// @notice actually withdraw the deposit and call _revertToPreviousOwner if necessary\n    function _withdrawDeposit(uint256 _daiToWithdraw, uint256 _tokenId) internal {\n        assert(deposits[_tokenId][msg.sender] >= _daiToWithdraw);\n        address _currentOwner = token.ownerOf(_tokenId);\n\n        // must rent for minimum of 1 hour for current owner\n        if(_currentOwner == msg.sender) {\n            uint256 _oneHour = 3600;\n            uint256 _secondsOwned = now.sub(timeAcquired[_tokenId]);\n            if (_secondsOwned < _oneHour) { \n                uint256 _oneHoursDeposit = price[_tokenId].div(24);\n                uint256 _secondsStillToPay = _oneHour.sub(_secondsOwned);\n                uint256 _minDepositToLeave = _oneHoursDeposit.mul(_secondsStillToPay).div(_oneHour);\n                uint256 _maxDaiToWithdraw = deposits[_tokenId][msg.sender].sub(_minDepositToLeave);\n                if (_maxDaiToWithdraw < _daiToWithdraw) {\n                    _daiToWithdraw = _maxDaiToWithdraw;\n                }\n            }\n        }\n\n        deposits[_tokenId][msg.sender] = deposits[_tokenId][msg.sender].sub(_daiToWithdraw);\n        \n        if (deposits[_tokenId][msg.sender] == 0) {\n            if (_currentOwner == msg.sender) {\n                _revertToPreviousOwner(_tokenId);\n            } else {\n                // update linked lists: get the user who would revert to this user\n                // ... and update the list so that they will revert to this user's \n                // ... revert user instead\n                address _thisUsersNextOwner = linkedListNext[_tokenId][msg.sender];\n                address _thisUsersPreviousOwner = linkedListPrevious[_tokenId][msg.sender];\n                linkedListPrevious[_tokenId][_thisUsersNextOwner] = _thisUsersPreviousOwner;\n            }\n        }\n        _sendCash(msg.sender, _daiToWithdraw);\n    }\n\n    /// @notice if a users deposit runs out, either return to previous owner or foreclose\n    function _revertToPreviousOwner(uint256 _tokenId) internal {\n        // uint256 _index;\n        // address _previousOwner;\n\n        address _currentOwner = token.ownerOf(_tokenId);\n        address _addressToReturnTo = linkedListPrevious[_tokenId][_currentOwner];\n\n        if (_addressToReturnTo != address(this)) {\n            uint256 _oldPrice = previousPrices[_tokenId][_addressToReturnTo];\n            _transferTokenTo(_currentOwner, _addressToReturnTo, _oldPrice, _tokenId);\n            emit LogReturnToPreviousOwner(_tokenId, _addressToReturnTo);\n        } else {\n            _foreclose(_tokenId);\n        }\n\n        // // loop max ten times before just assigning it to that owner, to prevent block limit\n        // for (uint i=0; i < MAX_ITERATIONS; i++)  {\n        //     currentOwnerIndex[_tokenId] = currentOwnerIndex[_tokenId].sub(1); // currentOwnerIndex will now point to  previous owner\n        //     _index = currentOwnerIndex[_tokenId]; // just for readability\n        //     _previousOwner = ownerTracker[_tokenId][_index].owner;\n\n        //     // if no previous owners. price -> zero, foreclose\n        //     // if previous owner still has a deposit, transfer to them, update the price to what it used to be\n        //     if (_index == 0) {\n        //         _foreclose(_tokenId);\n        //         break;\n        //     } else if (deposits[_tokenId][_previousOwner] > 0) {\n        //         break;\n        //     }  \n        // }   \n\n        // if the above loop did not foreclose, then transfer to previous owner\n        // if (token.ownerOf(_tokenId) != address(this)) {\n        //     address _currentOwner = token.ownerOf(_tokenId);\n        //     uint256 _oldPrice = ownerTracker[_tokenId][_index].price;\n        //     _transferTokenTo(_currentOwner, _previousOwner, _oldPrice, _tokenId);\n        //     emit LogReturnToPreviousOwner(_tokenId, _previousOwner);\n        // }\n    }\n\n    /// @notice return token to the contract and return price to zero\n    function _foreclose(uint256 _tokenId) internal {\n        address _currentOwner = token.ownerOf(_tokenId);\n        // third field is price, ie price goes to zero\n        _transferTokenTo(_currentOwner, address(this), 0, _tokenId);\n        emit LogForeclosure(_currentOwner, _tokenId);\n    }\n\n    /// @notice transfer ERC 721 between users\n    /// @dev there is no event emitted as this is handled in ERC721.sol\n    function _transferTokenTo(address _currentOwner, address _newOwner, uint256 _newPrice, uint256 _tokenId) internal {\n        require(_currentOwner != address(0) && _newOwner != address(0) , \"Cannot send to/from zero address\");\n        price[_tokenId] = _newPrice;\n        token.transferRcOnly(_currentOwner, _newOwner, _tokenId);\n    }\n\n}\n\n",
  "sourcePath": "/Users/mcplums/Repos/Harber/contracts/Harber.sol",
  "compiler": {
    "name": "solc",
    "version": "0.6.6+commit.6c089d02.Emscripten.clang"
  },
  "schemaVersion": "3.1.0",
  "updatedAt": "2020-05-07T11:24:21.656Z",
  "devdoc": {
    "author": "Andrew Stanger",
    "methods": {
      "collectRentAllTokens()": {
        "details": "basically functions that have checkState(States.OPEN) modifiermakes it easy for me to call whenever I want to keep people paying their rent, thus cannot be internalcannot be external because it is called within the step1 functions, therefore public"
      },
      "depositDai(uint256,uint256)": {
        "details": "it is possible a user's deposit could be reduced to zero following _collectRentthey would then increase their deposit despite no longer owning itthis is ok, they can still withdraw via withdrawDeposit. can be called by anyone- you can top up someone else's deposit if you wish!"
      },
      "exit(uint256)": {
        "details": "do not need to be the current ownerno modifiers because they are on withdrawDeposit"
      },
      "getWinnings(uint256)": {
        "details": "for front end and _payoutWinnings function"
      },
      "liveDepositAbleToWithdraw(uint256)": {
        "details": "for front end only",
        "returns": {
          "_0": "how much the current owner has deposited"
        }
      },
      "owner()": {
        "details": "Returns the address of the current owner."
      },
      "renounceOwnership()": {
        "details": "Leaves the contract without owner. It will not be possible to call `onlyOwner` functions anymore. Can only be called by the current owner.     * NOTE: Renouncing ownership will leave the contract without an owner, thereby removing any functionality that is only available to the owner."
      },
      "rentOwed(uint256)": {
        "details": "called in collectRent function, and various other view functions "
      },
      "rentalExpiryTime(uint256)": {
        "details": "for front end only",
        "returns": {
          "_0": "estimated rental expiry time"
        }
      },
      "step1checkMarketEnded()": {
        "details": "can be called by anyone "
      },
      "step2getWinner()": {
        "details": "can be called by anyone "
      },
      "transferOwnership(address)": {
        "details": "Transfers ownership of the contract to a new account (`newOwner`). Can only be called by the current owner."
      },
      "userDepositAbleToWithdraw(uint256)": {
        "details": "for front end only",
        "returns": {
          "_0": "how much the current user has deposited (note: user not owner)"
        }
      },
      "withdraw()": {
        "details": "users pull dai into their ac   count. "
      },
      "withdrawDeposit(uint256,uint256)": {
        "details": "do not need to be the current ownerpublic because called by exit"
      },
      "withdrawDepositAfterMarketEnded()": {
        "details": "the other withdraw deposit functions are locked when markets have closed so must use this onecan be called in either locked or withdraw statethis function is also different in that it does ... not attempt to collect rent or transfer ownership to a previous owner"
      }
    },
    "title": "Harber"
  },
  "userdoc": {
    "methods": {
      "changePrice(uint256,uint256)": {
        "notice": "increase the price of an existing rental"
      },
      "collectRentAllTokens()": {
        "notice": "///////////////////////////////// // MAIN FUNCTIONS- EXTERNAL ///// /////////////////////////////////collects rent for all tokens"
      },
      "constructor": "///////////////////////////////// ///// CONSTRUCTOR /////////////// /////////////////////////////////",
      "deployTokenContract()": {
        "notice": "///////////////////////////////// ///// INITIAL SETUP ///////////// /////////////////////////////////deploys the ERC721 contract"
      },
      "depositDai(uint256,uint256)": {
        "notice": "add new dai deposit to an existing rental"
      },
      "exit(uint256)": {
        "notice": "withdraw full deposit"
      },
      "mintNfts(string)": {
        "notice": "mint the NFTs. Must setTokenOwner first or will revert"
      },
      "newRental(uint256,uint256,uint256)": {
        "notice": "to rent a token"
      },
      "rentOwed(uint256)": {
        "notice": "///////////////////////////////// ///// VIEW FUNCTIONS //////////// /////////////////////////////////"
      },
      "step1checkMarketEnded()": {
        "notice": "///////////////////////////////// / MARKET RESOLUTION FUNCTIONS /// /////////////////////////////////the first of two functions which must be called, one after the other, to conclude the competitionwinnings can be paid out (or funds returned) only when these three steps are completedthis function checks whether the competition has ended (1 hour grace), if so closes down all 'ordinary course of business' functions"
      },
      "step2BemergencyExit()": {
        "notice": "emergency function in case the Realitio question never resolves for whatever reason, can be called by anyonereturns all funds to all userscan only be called 1 month after Realitio question should have ended "
      },
      "step2CcircuitBreaker()": {
        "notice": "Same as above, except that only owner can call it, and can be called at any timeto be clear, this only allows owner to return all funds, not to set a winner"
      },
      "step2getWinner()": {
        "notice": "the second of two functions which must be called, one after the other, to conclude the competitionthis function checks whether the Realitio question has resolved, and if yes, gets the winner"
      },
      "withdraw()": {
        "notice": "the final function of the competition resolution process. Pays out winnings, or returns funds, as necessary"
      },
      "withdrawDeposit(uint256,uint256)": {
        "notice": "withdraw deposit"
      },
      "withdrawDepositAfterMarketEnded()": {
        "notice": "withdraw full deposit after markets have resolved"
      }
    }
  }
}