{
  "contractName": "Harber",
  "abi": [
    {
      "constant": true,
      "inputs": [
        {
          "name": "",
          "type": "uint256"
        }
      ],
      "name": "currentCollected",
      "outputs": [
        {
          "name": "",
          "type": "uint256"
        }
      ],
      "payable": false,
      "stateMutability": "view",
      "type": "function"
    },
    {
      "constant": true,
      "inputs": [
        {
          "name": "",
          "type": "uint256"
        },
        {
          "name": "",
          "type": "address"
        }
      ],
      "name": "timeHeld",
      "outputs": [
        {
          "name": "",
          "type": "uint256"
        }
      ],
      "payable": false,
      "stateMutability": "view",
      "type": "function"
    },
    {
      "constant": true,
      "inputs": [
        {
          "name": "",
          "type": "uint256"
        }
      ],
      "name": "price",
      "outputs": [
        {
          "name": "",
          "type": "uint256"
        }
      ],
      "payable": false,
      "stateMutability": "view",
      "type": "function"
    },
    {
      "constant": true,
      "inputs": [
        {
          "name": "",
          "type": "uint256"
        }
      ],
      "name": "state",
      "outputs": [
        {
          "name": "",
          "type": "uint8"
        }
      ],
      "payable": false,
      "stateMutability": "view",
      "type": "function"
    },
    {
      "constant": true,
      "inputs": [
        {
          "name": "",
          "type": "uint256"
        },
        {
          "name": "",
          "type": "address"
        }
      ],
      "name": "deposits",
      "outputs": [
        {
          "name": "",
          "type": "uint256"
        }
      ],
      "payable": false,
      "stateMutability": "view",
      "type": "function"
    },
    {
      "constant": true,
      "inputs": [],
      "name": "version",
      "outputs": [
        {
          "name": "",
          "type": "uint256"
        }
      ],
      "payable": false,
      "stateMutability": "view",
      "type": "function"
    },
    {
      "constant": true,
      "inputs": [
        {
          "name": "",
          "type": "uint256"
        }
      ],
      "name": "timeAcquired",
      "outputs": [
        {
          "name": "",
          "type": "uint256"
        }
      ],
      "payable": false,
      "stateMutability": "view",
      "type": "function"
    },
    {
      "constant": true,
      "inputs": [
        {
          "name": "",
          "type": "uint256"
        },
        {
          "name": "",
          "type": "address"
        }
      ],
      "name": "owners",
      "outputs": [
        {
          "name": "",
          "type": "bool"
        }
      ],
      "payable": false,
      "stateMutability": "view",
      "type": "function"
    },
    {
      "constant": true,
      "inputs": [],
      "name": "team",
      "outputs": [
        {
          "name": "",
          "type": "address"
        }
      ],
      "payable": false,
      "stateMutability": "view",
      "type": "function"
    },
    {
      "constant": true,
      "inputs": [
        {
          "name": "",
          "type": "uint256"
        }
      ],
      "name": "timeLastCollected",
      "outputs": [
        {
          "name": "",
          "type": "uint256"
        }
      ],
      "payable": false,
      "stateMutability": "view",
      "type": "function"
    },
    {
      "constant": true,
      "inputs": [],
      "name": "cash",
      "outputs": [
        {
          "name": "",
          "type": "address"
        }
      ],
      "payable": false,
      "stateMutability": "view",
      "type": "function"
    },
    {
      "constant": true,
      "inputs": [],
      "name": "andrewsAddress",
      "outputs": [
        {
          "name": "",
          "type": "address"
        }
      ],
      "payable": false,
      "stateMutability": "view",
      "type": "function"
    },
    {
      "constant": true,
      "inputs": [
        {
          "name": "",
          "type": "uint256"
        }
      ],
      "name": "recentPurchaseIndex",
      "outputs": [
        {
          "name": "",
          "type": "uint256"
        }
      ],
      "payable": false,
      "stateMutability": "view",
      "type": "function"
    },
    {
      "constant": true,
      "inputs": [],
      "name": "augurFund",
      "outputs": [
        {
          "name": "",
          "type": "uint256"
        }
      ],
      "payable": false,
      "stateMutability": "view",
      "type": "function"
    },
    {
      "constant": true,
      "inputs": [
        {
          "name": "",
          "type": "address"
        }
      ],
      "name": "testDaiBalances",
      "outputs": [
        {
          "name": "",
          "type": "uint256"
        }
      ],
      "payable": false,
      "stateMutability": "view",
      "type": "function"
    },
    {
      "constant": true,
      "inputs": [],
      "name": "totalCollected",
      "outputs": [
        {
          "name": "",
          "type": "uint256"
        }
      ],
      "payable": false,
      "stateMutability": "view",
      "type": "function"
    },
    {
      "constant": true,
      "inputs": [
        {
          "name": "",
          "type": "uint256"
        },
        {
          "name": "",
          "type": "uint256"
        }
      ],
      "name": "ownerTracker",
      "outputs": [
        {
          "name": "owner",
          "type": "address"
        },
        {
          "name": "price",
          "type": "uint256"
        }
      ],
      "payable": false,
      "stateMutability": "view",
      "type": "function"
    },
    {
      "inputs": [
        {
          "name": "_andrewsAddress",
          "type": "address"
        },
        {
          "name": "_addressOfToken",
          "type": "address"
        },
        {
          "name": "_addressOfCashContract",
          "type": "address"
        }
      ],
      "payable": false,
      "stateMutability": "nonpayable",
      "type": "constructor"
    },
    {
      "anonymous": false,
      "inputs": [
        {
          "indexed": true,
          "name": "owner",
          "type": "address"
        },
        {
          "indexed": true,
          "name": "price",
          "type": "uint256"
        }
      ],
      "name": "LogBuy",
      "type": "event"
    },
    {
      "anonymous": false,
      "inputs": [
        {
          "indexed": true,
          "name": "newPrice",
          "type": "uint256"
        }
      ],
      "name": "LogPriceChange",
      "type": "event"
    },
    {
      "anonymous": false,
      "inputs": [
        {
          "indexed": true,
          "name": "prevOwner",
          "type": "address"
        }
      ],
      "name": "LogForeclosure",
      "type": "event"
    },
    {
      "anonymous": false,
      "inputs": [
        {
          "indexed": true,
          "name": "collected",
          "type": "uint256"
        }
      ],
      "name": "LogCollection",
      "type": "event"
    },
    {
      "constant": true,
      "inputs": [],
      "name": "getVersion",
      "outputs": [
        {
          "name": "",
          "type": "uint256"
        }
      ],
      "payable": false,
      "stateMutability": "pure",
      "type": "function"
    },
    {
      "constant": false,
      "inputs": [],
      "name": "getTestDai",
      "outputs": [],
      "payable": false,
      "stateMutability": "nonpayable",
      "type": "function"
    },
    {
      "constant": true,
      "inputs": [],
      "name": "getTestDaiBalance",
      "outputs": [
        {
          "name": "",
          "type": "uint256"
        }
      ],
      "payable": false,
      "stateMutability": "view",
      "type": "function"
    },
    {
      "constant": true,
      "inputs": [
        {
          "name": "_tokenId",
          "type": "uint256"
        }
      ],
      "name": "getPrice",
      "outputs": [
        {
          "name": "",
          "type": "uint256"
        }
      ],
      "payable": false,
      "stateMutability": "view",
      "type": "function"
    },
    {
      "constant": true,
      "inputs": [
        {
          "name": "_tokenId",
          "type": "uint256"
        }
      ],
      "name": "augurFundsOwed",
      "outputs": [
        {
          "name": "augurFundsDue",
          "type": "uint256"
        }
      ],
      "payable": false,
      "stateMutability": "view",
      "type": "function"
    },
    {
      "constant": true,
      "inputs": [
        {
          "name": "_tokenId",
          "type": "uint256"
        }
      ],
      "name": "augurFundsOwedWithTimestamp",
      "outputs": [
        {
          "name": "augurFundsDue",
          "type": "uint256"
        },
        {
          "name": "timestamp",
          "type": "uint256"
        }
      ],
      "payable": false,
      "stateMutability": "view",
      "type": "function"
    },
    {
      "constant": true,
      "inputs": [
        {
          "name": "_tokenId",
          "type": "uint256"
        }
      ],
      "name": "foreclosed",
      "outputs": [
        {
          "name": "",
          "type": "bool"
        }
      ],
      "payable": false,
      "stateMutability": "view",
      "type": "function"
    },
    {
      "constant": true,
      "inputs": [
        {
          "name": "_tokenId",
          "type": "uint256"
        }
      ],
      "name": "depositAbleToWithdraw",
      "outputs": [
        {
          "name": "",
          "type": "uint256"
        }
      ],
      "payable": false,
      "stateMutability": "view",
      "type": "function"
    },
    {
      "constant": true,
      "inputs": [
        {
          "name": "_tokenId",
          "type": "uint256"
        }
      ],
      "name": "userDepositAbleToWithdraw",
      "outputs": [
        {
          "name": "",
          "type": "uint256"
        }
      ],
      "payable": false,
      "stateMutability": "view",
      "type": "function"
    },
    {
      "constant": true,
      "inputs": [
        {
          "name": "_tokenId",
          "type": "uint256"
        }
      ],
      "name": "foreclosureTime",
      "outputs": [
        {
          "name": "",
          "type": "uint256"
        }
      ],
      "payable": false,
      "stateMutability": "view",
      "type": "function"
    },
    {
      "constant": false,
      "inputs": [
        {
          "name": "_tokenId",
          "type": "uint256"
        }
      ],
      "name": "_collectAugurFunds",
      "outputs": [],
      "payable": false,
      "stateMutability": "nonpayable",
      "type": "function"
    },
    {
      "constant": false,
      "inputs": [
        {
          "name": "_tokenId",
          "type": "uint256"
        }
      ],
      "name": "depositWei",
      "outputs": [],
      "payable": true,
      "stateMutability": "payable",
      "type": "function"
    },
    {
      "constant": false,
      "inputs": [
        {
          "name": "_newPrice",
          "type": "uint256"
        },
        {
          "name": "_tokenId",
          "type": "uint256"
        },
        {
          "name": "_deposit",
          "type": "uint256"
        }
      ],
      "name": "buy",
      "outputs": [],
      "payable": false,
      "stateMutability": "nonpayable",
      "type": "function"
    },
    {
      "constant": false,
      "inputs": [
        {
          "name": "_newPrice",
          "type": "uint256"
        },
        {
          "name": "_tokenId",
          "type": "uint256"
        }
      ],
      "name": "changePrice",
      "outputs": [],
      "payable": false,
      "stateMutability": "nonpayable",
      "type": "function"
    },
    {
      "constant": false,
      "inputs": [
        {
          "name": "_wei",
          "type": "uint256"
        },
        {
          "name": "_tokenId",
          "type": "uint256"
        }
      ],
      "name": "withdrawDeposit",
      "outputs": [
        {
          "name": "",
          "type": "uint256"
        }
      ],
      "payable": false,
      "stateMutability": "nonpayable",
      "type": "function"
    },
    {
      "constant": false,
      "inputs": [],
      "name": "withdrawAugurFunds",
      "outputs": [],
      "payable": false,
      "stateMutability": "nonpayable",
      "type": "function"
    },
    {
      "constant": false,
      "inputs": [
        {
          "name": "_tokenId",
          "type": "uint256"
        }
      ],
      "name": "exit",
      "outputs": [],
      "payable": false,
      "stateMutability": "nonpayable",
      "type": "function"
    }
  ],
  "bytecode": "0x60806040523480156200001157600080fd5b5060405160608062002f9e833981018060405260608110156200003357600080fd5b8101908080519060200190929190805190602001909291908051906020019092919050505081600260006101000a81548173ffffffffffffffffffffffffffffffffffffffff021916908373ffffffffffffffffffffffffffffffffffffffff160217905550600260009054906101000a900473ffffffffffffffffffffffffffffffffffffffff1673ffffffffffffffffffffffffffffffffffffffff1663ba0bba406040518163ffffffff1660e01b8152600401600060405180830381600087803b1580156200010457600080fd5b505af115801562000119573d6000803e3d6000fd5b5050505082600b60006101000a81548173ffffffffffffffffffffffffffffffffffffffff021916908373ffffffffffffffffffffffffffffffffffffffff160217905550600060146000600281106200016f57fe5b602091828204019190066101000a81548160ff021916908360018111156200019357fe5b021790555060006014600160028110620001a957fe5b602091828204019190066101000a81548160ff02191690836001811115620001cd57fe5b021790555080600360006101000a81548173ffffffffffffffffffffffffffffffffffffffff021916908373ffffffffffffffffffffffffffffffffffffffff160217905550505050612d7880620002266000396000f3fe6080604052600436106101f95760003560e01c80637f8661a11161010d578063b8dc6d74116100a0578063e29eb8361161006f578063e29eb83614610a8b578063e6a9d42914610ab6578063e757223014610b05578063f3cebadb14610b54578063f88489c214610b6b576101f9565b8063b8dc6d7414610953578063bae04c9a1461097e578063cb294177146109d7578063e1c214c614610a3c576101f9565b8063994ec705116100dc578063994ec7051461083a578063a3f81da014610891578063b17142ec146108bf578063b3de019c1461090e576101f9565b80637f8661a11461070257806385f2aef21461073d5780638cb6889914610794578063961be391146107e3576101f9565b80633317de7a1161019057806353a58de11161015f57806353a58de11461055757806354fd4d50146105c65780635b2ace64146105f15780635e104def1461064057806373a5226f146106b3576101f9565b80633317de7a14610459578063391edb3a146104705780633e4f49e6146104ab57806340993b2614610508576101f9565b8063237b5e4f116101cc578063237b5e4f1461032157806323ebc82b1461039057806326a49e37146103df578063321c77711461042e576101f9565b80630d8e6e2c146101fe5780631b252781146102295780631e8b76ad14610278578063224ce1b9146102cb575b600080fd5b34801561020a57600080fd5b50610213610bf7565b6040518082815260200191505060405180910390f35b34801561023557600080fd5b506102626004803603602081101561024c57600080fd5b8101908080359060200190929190505050610c00565b6040518082815260200191505060405180910390f35b34801561028457600080fd5b506102b16004803603602081101561029b57600080fd5b8101908080359060200190929190505050610c18565b604051808215151515815260200191505060405180910390f35b3480156102d757600080fd5b50610304600480360360208110156102ee57600080fd5b8101908080359060200190929190505050610c92565b604051808381526020018281526020019250505060405180910390f35b34801561032d57600080fd5b5061037a6004803603604081101561034457600080fd5b8101908080359060200190929190803573ffffffffffffffffffffffffffffffffffffffff169060200190929190505050610ca8565b6040518082815260200191505060405180910390f35b34801561039c57600080fd5b506103c9600480360360208110156103b357600080fd5b8101908080359060200190929190505050610ccd565b6040518082815260200191505060405180910390f35b3480156103eb57600080fd5b506104186004803603602081101561040257600080fd5b8101908080359060200190929190505050610da8565b6040518082815260200191505060405180910390f35b34801561043a57600080fd5b50610443610dc0565b6040518082815260200191505060405180910390f35b34801561046557600080fd5b5061046e610e07565b005b34801561047c57600080fd5b506104a96004803603602081101561049357600080fd5b8101908080359060200190929190505050610f3f565b005b3480156104b757600080fd5b506104e4600480360360208110156104ce57600080fd5b81019080803590602001909291905050506113db565b604051808260018111156104f457fe5b60ff16815260200191505060405180910390f35b34801561051457600080fd5b506105556004803603606081101561052b57600080fd5b81019080803590602001909291908035906020019092919080359060200190929190505050611402565b005b34801561056357600080fd5b506105b06004803603604081101561057a57600080fd5b8101908080359060200190929190803573ffffffffffffffffffffffffffffffffffffffff169060200190929190505050611a3c565b6040518082815260200191505060405180910390f35b3480156105d257600080fd5b506105db611a61565b6040518082815260200191505060405180910390f35b3480156105fd57600080fd5b5061062a6004803603602081101561061457600080fd5b8101908080359060200190929190505050611a66565b6040518082815260200191505060405180910390f35b34801561064c57600080fd5b506106996004803603604081101561066357600080fd5b8101908080359060200190929190803573ffffffffffffffffffffffffffffffffffffffff169060200190929190505050611a7e565b604051808215151515815260200191505060405180910390f35b3480156106bf57600080fd5b506106ec600480360360208110156106d657600080fd5b8101908080359060200190929190505050611aad565b6040518082815260200191505060405180910390f35b34801561070e57600080fd5b5061073b6004803603602081101561072557600080fd5b8101908080359060200190929190505050611cca565b005b34801561074957600080fd5b50610752611e82565b604051808273ffffffffffffffffffffffffffffffffffffffff1673ffffffffffffffffffffffffffffffffffffffff16815260200191505060405180910390f35b3480156107a057600080fd5b506107cd600480360360208110156107b757600080fd5b8101908080359060200190929190505050611ea8565b6040518082815260200191505060405180910390f35b3480156107ef57600080fd5b506107f8611ec0565b604051808273ffffffffffffffffffffffffffffffffffffffff1673ffffffffffffffffffffffffffffffffffffffff16815260200191505060405180910390f35b34801561084657600080fd5b5061084f611ee6565b604051808273ffffffffffffffffffffffffffffffffffffffff1673ffffffffffffffffffffffffffffffffffffffff16815260200191505060405180910390f35b6108bd600480360360208110156108a757600080fd5b8101908080359060200190929190505050611f0c565b005b3480156108cb57600080fd5b506108f8600480360360208110156108e257600080fd5b8101908080359060200190929190505050612080565b6040518082815260200191505060405180910390f35b34801561091a57600080fd5b506109516004803603604081101561093157600080fd5b810190808035906020019092919080359060200190929190505050612098565b005b34801561095f57600080fd5b5061096861236b565b6040518082815260200191505060405180910390f35b34801561098a57600080fd5b506109c1600480360360408110156109a157600080fd5b810190808035906020019092919080359060200190929190505050612371565b6040518082815260200191505060405180910390f35b3480156109e357600080fd5b50610a26600480360360208110156109fa57600080fd5b81019080803573ffffffffffffffffffffffffffffffffffffffff1690602001909291905050506124de565b6040518082815260200191505060405180910390f35b348015610a4857600080fd5b50610a7560048036036020811015610a5f57600080fd5b81019080803590602001909291905050506124f6565b6040518082815260200191505060405180910390f35b348015610a9757600080fd5b50610aa0612545565b6040518082815260200191505060405180910390f35b348015610ac257600080fd5b50610aef60048036036020811015610ad957600080fd5b810190808035906020019092919050505061254b565b6040518082815260200191505060405180910390f35b348015610b1157600080fd5b50610b3e60048036036020811015610b2857600080fd5b81019080803590602001909291905050506125ab565b6040518082815260200191505060405180910390f35b348015610b6057600080fd5b50610b696125c2565b005b348015610b7757600080fd5b50610bae60048036036040811015610b8e57600080fd5b81019080803590602001909291908035906020019092919050505061264a565b604051808373ffffffffffffffffffffffffffffffffffffffff1673ffffffffffffffffffffffffffffffffffffffff1681526020018281526020019250505060405180910390f35b60006016905090565b60058160028110610c0d57fe5b016000915090505481565b600080610c248361254b565b90506010600084815260200190815260200160002060003373ffffffffffffffffffffffffffffffffffffffff1673ffffffffffffffffffffffffffffffffffffffff168152602001908152602001600020548110610c87576001915050610c8d565b60009150505b919050565b600080610c9e8361254b565b4291509150915091565b600f602052816000526040600020602052806000526040600020600091509150505481565b600080610cd98361254b565b90506010600084815260200190815260200160002060003373ffffffffffffffffffffffffffffffffffffffff1673ffffffffffffffffffffffffffffffffffffffff168152602001908152602001600020548110610d3c576000915050610da3565b610d9f816010600086815260200190815260200160002060003373ffffffffffffffffffffffffffffffffffffffff1673ffffffffffffffffffffffffffffffffffffffff1681526020019081526020016000205461269b90919063ffffffff16565b9150505b919050565b60008160028110610db557fe5b016000915090505481565b6000601160003373ffffffffffffffffffffffffffffffffffffffff1673ffffffffffffffffffffffffffffffffffffffff16815260200190815260200160002054905090565b600b60009054906101000a900473ffffffffffffffffffffffffffffffffffffffff1673ffffffffffffffffffffffffffffffffffffffff163373ffffffffffffffffffffffffffffffffffffffff1614610eca576040517f08c379a000000000000000000000000000000000000000000000000000000000815260040180806020018281038252600a8152602001807f4e6f7420616e647265770000000000000000000000000000000000000000000081525060200191505060405180910390fd5b600b60009054906101000a900473ffffffffffffffffffffffffffffffffffffffff1673ffffffffffffffffffffffffffffffffffffffff166108fc600c549081150290604051600060405180830381858888f19350505050158015610f34573d6000803e3d6000fd5b506000600c81905550565b600180811115610f4b57fe5b60148260028110610f5857fe5b602091828204019190069054906101000a900460ff166001811115610f7957fe5b14156113d8576000610f8a8261254b565b90506000600260009054906101000a900473ffffffffffffffffffffffffffffffffffffffff1673ffffffffffffffffffffffffffffffffffffffff16636352211e846040518263ffffffff1660e01b81526004018082815260200191505060206040518083038186803b15801561100157600080fd5b505afa158015611015573d6000803e3d6000fd5b505050506040513d602081101561102b57600080fd5b810190808051906020019092919050505090506010600084815260200190815260200160002060008273ffffffffffffffffffffffffffffffffffffffff1673ffffffffffffffffffffffffffffffffffffffff1681526020019081526020016000205482106111bd5761114a61112d8361111f6010600088815260200190815260200160002060008673ffffffffffffffffffffffffffffffffffffffff1673ffffffffffffffffffffffffffffffffffffffff168152602001908152602001600020546111116007896002811061110057fe5b01544261269b90919063ffffffff16565b6126bb90919063ffffffff16565b6126f590919063ffffffff16565b6007856002811061113a57fe5b015461271b90919063ffffffff16565b6007846002811061115757fe5b01819055506010600084815260200190815260200160002060008273ffffffffffffffffffffffffffffffffffffffff1673ffffffffffffffffffffffffffffffffffffffff1681526020019081526020016000205491506111b88361273a565b611204565b42600784600281106111cb57fe5b01819055506111f182600585600281106111e157fe5b015461271b90919063ffffffff16565b600584600281106111fe57fe5b01819055505b611267826010600086815260200190815260200160002060008473ffffffffffffffffffffffffffffffffffffffff1673ffffffffffffffffffffffffffffffffffffffff1681526020019081526020016000205461269b90919063ffffffff16565b6010600085815260200190815260200160002060008373ffffffffffffffffffffffffffffffffffffffff1673ffffffffffffffffffffffffffffffffffffffff1681526020019081526020016000208190555061131e826010600086815260200190815260200160002060008473ffffffffffffffffffffffffffffffffffffffff1673ffffffffffffffffffffffffffffffffffffffff1681526020019081526020016000205461269b90919063ffffffff16565b6010600085815260200190815260200160002060008373ffffffffffffffffffffffffffffffffffffffff1673ffffffffffffffffffffffffffffffffffffffff168152602001908152602001600020819055506113878260045461271b90919063ffffffff16565b6004819055506113a282600c5461271b90919063ffffffff16565b600c81905550817f54acb82a9e70d7c289b149758d23167c915428ae854a7aa4abe5bf2f4ef29f3660405160405180910390a250505b50565b601481600281106113e857fe5b60209182820401919006915054906101000a900460ff1681565b8161140c81610f3f565b6000836002811061141957fe5b01548411611472576040517f08c379a0000000000000000000000000000000000000000000000000000000008152600401808060200182810382526027815260200180612d266027913960400191505060405180910390fd5b600082116114e8576040517f08c379a00000000000000000000000000000000000000000000000000000000081526004018080602001828103825260168152602001807f4d757374206465706f73697420736f6d657468696e670000000000000000000081525060200191505060405180910390fd5b81601160003373ffffffffffffffffffffffffffffffffffffffff1673ffffffffffffffffffffffffffffffffffffffff16815260200190815260200160002054101561159d576040517f08c379a000000000000000000000000000000000000000000000000000000000815260040180806020018281038252600e8152602001807f4e6f7420656e6f7567682044414900000000000000000000000000000000000081525060200191505060405180910390fd5b6115ef82601160003373ffffffffffffffffffffffffffffffffffffffff1673ffffffffffffffffffffffffffffffffffffffff1681526020019081526020016000205461269b90919063ffffffff16565b601160003373ffffffffffffffffffffffffffffffffffffffff1673ffffffffffffffffffffffffffffffffffffffff16815260200190815260200160002081905550611695826010600086815260200190815260200160002060003373ffffffffffffffffffffffffffffffffffffffff1673ffffffffffffffffffffffffffffffffffffffff1681526020019081526020016000205461271b90919063ffffffff16565b6010600085815260200190815260200160002060003373ffffffffffffffffffffffffffffffffffffffff1673ffffffffffffffffffffffffffffffffffffffff168152602001908152602001600020819055506010600084815260200190815260200160002060003373ffffffffffffffffffffffffffffffffffffffff1673ffffffffffffffffffffffffffffffffffffffff168152602001908152602001600020546010600085815260200190815260200160002060003373ffffffffffffffffffffffffffffffffffffffff1673ffffffffffffffffffffffffffffffffffffffff16815260200190815260200160002081905550836000846002811061179c57fe5b01819055506000600260009054906101000a900473ffffffffffffffffffffffffffffffffffffffff1673ffffffffffffffffffffffffffffffffffffffff16636352211e856040518263ffffffff1660e01b81526004018082815260200191505060206040518083038186803b15801561181657600080fd5b505afa15801561182a573d6000803e3d6000fd5b505050506040513d602081101561184057600080fd5b810190808051906020019092919050505090503373ffffffffffffffffffffffffffffffffffffffff168173ffffffffffffffffffffffffffffffffffffffff1614156118c65784600e60008681526020019081526020016000206000600987600281106118aa57fe5b01548152602001908152602001600020600101819055506118d3565b6118d28133878761288b565b5b600060018111156118e057fe5b601485600281106118ed57fe5b602091828204019190069054906101000a900460ff16600181111561190e57fe5b14156119f15760016014856002811061192357fe5b602091828204019190066101000a81548160ff0219169083600181111561194657fe5b0217905550426007856002811061195957fe5b018190555033600e6000868152602001908152602001600020600080815260200190815260200160002060000160006101000a81548173ffffffffffffffffffffffffffffffffffffffff021916908373ffffffffffffffffffffffffffffffffffffffff16021790555084600e60008681526020019081526020016000206000808152602001908152602001600020600101819055505b843373ffffffffffffffffffffffffffffffffffffffff167f4f79409f494e81c38036d80aa8a6507c2cb08d90bfb2fead5519447646b3497e60405160405180910390a35050505050565b6010602052816000526040600020602052806000526040600020600091509150505481565b601681565b60128160028110611a7357fe5b016000915090505481565b600d6020528160005260406000206020528060005260406000206000915091509054906101000a900460ff1681565b600080611ab98361254b565b90506000600260009054906101000a900473ffffffffffffffffffffffffffffffffffffffff1673ffffffffffffffffffffffffffffffffffffffff16636352211e856040518263ffffffff1660e01b81526004018082815260200191505060206040518083038186803b158015611b3057600080fd5b505afa158015611b44573d6000803e3d6000fd5b505050506040513d6020811015611b5a57600080fd5b810190808051906020019092919050505090503373ffffffffffffffffffffffffffffffffffffffff168173ffffffffffffffffffffffffffffffffffffffff161415611c6f576010600085815260200190815260200160002060003373ffffffffffffffffffffffffffffffffffffffff1673ffffffffffffffffffffffffffffffffffffffff168152602001908152602001600020548210611c0357600092505050611cc5565b611c66826010600087815260200190815260200160002060003373ffffffffffffffffffffffffffffffffffffffff1673ffffffffffffffffffffffffffffffffffffffff1681526020019081526020016000205461269b90919063ffffffff16565b92505050611cc5565b6010600085815260200190815260200160002060003373ffffffffffffffffffffffffffffffffffffffff1673ffffffffffffffffffffffffffffffffffffffff16815260200190815260200160002054925050505b919050565b80600260009054906101000a900473ffffffffffffffffffffffffffffffffffffffff1673ffffffffffffffffffffffffffffffffffffffff16636352211e826040518263ffffffff1660e01b81526004018082815260200191505060206040518083038186803b158015611d3e57600080fd5b505afa158015611d52573d6000803e3d6000fd5b505050506040513d6020811015611d6857600080fd5b810190808051906020019092919050505073ffffffffffffffffffffffffffffffffffffffff163373ffffffffffffffffffffffffffffffffffffffff1614611e19576040517f08c379a00000000000000000000000000000000000000000000000000000000081526004018080602001828103825260098152602001807f4e6f74206f776e6572000000000000000000000000000000000000000000000081525060200191505060405180910390fd5b81611e2381610f3f565b611e7d6010600085815260200190815260200160002060003373ffffffffffffffffffffffffffffffffffffffff1673ffffffffffffffffffffffffffffffffffffffff1681526020019081526020016000205484612afa565b505050565b600260009054906101000a900473ffffffffffffffffffffffffffffffffffffffff1681565b60078160028110611eb557fe5b016000915090505481565b600360009054906101000a900473ffffffffffffffffffffffffffffffffffffffff1681565b600b60009054906101000a900473ffffffffffffffffffffffffffffffffffffffff1681565b80611f1681610f3f565b60006001811115611f2357fe5b60148360028110611f3057fe5b602091828204019190069054906101000a900460ff166001811115611f5157fe5b1415611fc5576040517f08c379a000000000000000000000000000000000000000000000000000000000815260040180806020018281038252600a8152602001807f466f7265636c6f7365640000000000000000000000000000000000000000000081525060200191505060405180910390fd5b612028346010600085815260200190815260200160002060003373ffffffffffffffffffffffffffffffffffffffff1673ffffffffffffffffffffffffffffffffffffffff1681526020019081526020016000205461271b90919063ffffffff16565b6010600084815260200190815260200160002060003373ffffffffffffffffffffffffffffffffffffffff1673ffffffffffffffffffffffffffffffffffffffff168152602001908152602001600020819055505050565b6009816002811061208d57fe5b016000915090505481565b80600260009054906101000a900473ffffffffffffffffffffffffffffffffffffffff1673ffffffffffffffffffffffffffffffffffffffff16636352211e826040518263ffffffff1660e01b81526004018082815260200191505060206040518083038186803b15801561210c57600080fd5b505afa158015612120573d6000803e3d6000fd5b505050506040513d602081101561213657600080fd5b810190808051906020019092919050505073ffffffffffffffffffffffffffffffffffffffff163373ffffffffffffffffffffffffffffffffffffffff16146121e7576040517f08c379a00000000000000000000000000000000000000000000000000000000081526004018080602001828103825260098152602001807f4e6f74206f776e6572000000000000000000000000000000000000000000000081525060200191505060405180910390fd5b816121f181610f3f565b600060018111156121fe57fe5b6014846002811061220b57fe5b602091828204019190069054906101000a900460ff16600181111561222c57fe5b14156122a0576040517f08c379a000000000000000000000000000000000000000000000000000000000815260040180806020018281038252600a8152602001807f466f7265636c6f7365640000000000000000000000000000000000000000000081525060200191505060405180910390fd5b6000841415612317576040517f08c379a000000000000000000000000000000000000000000000000000000000815260040180806020018281038252600f8152602001807f496e636f7272656374205072696365000000000000000000000000000000000081525060200191505060405180910390fd5b836000846002811061232557fe5b01819055506000836002811061233757fe5b01547f854d6511a28585103049c7770618450f7c9aeb580c69db2913d63869663f475160405160405180910390a250505050565b600c5481565b600081600260009054906101000a900473ffffffffffffffffffffffffffffffffffffffff1673ffffffffffffffffffffffffffffffffffffffff16636352211e826040518263ffffffff1660e01b81526004018082815260200191505060206040518083038186803b1580156123e757600080fd5b505afa1580156123fb573d6000803e3d6000fd5b505050506040513d602081101561241157600080fd5b810190808051906020019092919050505073ffffffffffffffffffffffffffffffffffffffff163373ffffffffffffffffffffffffffffffffffffffff16146124c2576040517f08c379a00000000000000000000000000000000000000000000000000000000081526004018080602001828103825260098152602001807f4e6f74206f776e6572000000000000000000000000000000000000000000000081525060200191505060405180910390fd5b826124cc81610f3f565b6124d68585612afa565b505092915050565b60116020528060005260406000206000915090505481565b60008061251e6301e133806000856002811061250e57fe5b01546126f590919063ffffffff16565b905061253b8161252d85610ccd565b6126f590919063ffffffff16565b4201915050919050565b60045481565b60006125a46301e133806125966125796007866002811061256857fe5b01544261269b90919063ffffffff16565b6000866002811061258657fe5b01546126bb90919063ffffffff16565b6126f590919063ffffffff16565b9050919050565b60008082600281106125b957fe5b01549050919050565b6064601160003373ffffffffffffffffffffffffffffffffffffffff1673ffffffffffffffffffffffffffffffffffffffff1681526020019081526020016000205401601160003373ffffffffffffffffffffffffffffffffffffffff1673ffffffffffffffffffffffffffffffffffffffff16815260200190815260200160002081905550565b600e602052816000526040600020602052806000526040600020600091509150508060000160009054906101000a900473ffffffffffffffffffffffffffffffffffffffff16908060010154905082565b6000828211156126aa57600080fd5b600082840390508091505092915050565b6000808314156126ce57600090506126ef565b60008284029050828482816126df57fe5b04146126ea57600080fd5b809150505b92915050565b600080821161270357600080fd5b600082848161270e57fe5b0490508091505092915050565b60008082840190508381101561273057600080fd5b8091505092915050565b6000600260009054906101000a900473ffffffffffffffffffffffffffffffffffffffff1673ffffffffffffffffffffffffffffffffffffffff16636352211e836040518263ffffffff1660e01b81526004018082815260200191505060206040518083038186803b1580156127af57600080fd5b505afa1580156127c3573d6000803e3d6000fd5b505050506040513d60208110156127d957600080fd5b810190808051906020019092919050505090506127f9813060008561288b565b60006014836002811061280857fe5b602091828204019190066101000a81548160ff0219169083600181111561282b57fe5b021790555060006005836002811061283f57fe5b01819055508073ffffffffffffffffffffffffffffffffffffffff167f6d6bbefef62d4cb6d0e3a4dd306a71d3632319b1e03659513df86b247dd657fe60405160405180910390a25050565b61291c6128bd6012836002811061289e57fe5b0154600784600281106128ad57fe5b015461269b90919063ffffffff16565b600f600084815260200190815260200160002060008773ffffffffffffffffffffffffffffffffffffffff1673ffffffffffffffffffffffffffffffffffffffff1681526020019081526020016000205461271b90919063ffffffff16565b600f600083815260200190815260200160002060008673ffffffffffffffffffffffffffffffffffffffff1673ffffffffffffffffffffffffffffffffffffffff16815260200190815260200160002081905550600260009054906101000a900473ffffffffffffffffffffffffffffffffffffffff1673ffffffffffffffffffffffffffffffffffffffff166323b872dd8585846040518463ffffffff1660e01b8152600401808473ffffffffffffffffffffffffffffffffffffffff1673ffffffffffffffffffffffffffffffffffffffff1681526020018373ffffffffffffffffffffffffffffffffffffffff1673ffffffffffffffffffffffffffffffffffffffff1681526020018281526020019350505050600060405180830381600087803b158015612a4d57600080fd5b505af1158015612a61573d6000803e3d6000fd5b505050508160008260028110612a7357fe5b01819055504260128260028110612a8657fe5b01819055506001600d600083815260200190815260200160002060008573ffffffffffffffffffffffffffffffffffffffff1673ffffffffffffffffffffffffffffffffffffffff16815260200190815260200160002060006101000a81548160ff02191690831515021790555050505050565b816010600083815260200190815260200160002060003373ffffffffffffffffffffffffffffffffffffffff1673ffffffffffffffffffffffffffffffffffffffff168152602001908152602001600020541015612bc0576040517f08c379a00000000000000000000000000000000000000000000000000000000081526004018080602001828103825260148152602001807f5769746864726177696e6720746f6f206d75636800000000000000000000000081525060200191505060405180910390fd5b612c23826010600084815260200190815260200160002060003373ffffffffffffffffffffffffffffffffffffffff1673ffffffffffffffffffffffffffffffffffffffff1681526020019081526020016000205461269b90919063ffffffff16565b6010600083815260200190815260200160002060003373ffffffffffffffffffffffffffffffffffffffff1673ffffffffffffffffffffffffffffffffffffffff168152602001908152602001600020819055503373ffffffffffffffffffffffffffffffffffffffff166108fc839081150290604051600060405180830381858888f19350505050158015612cbd573d6000803e3d6000fd5b5060006010600083815260200190815260200160002060003373ffffffffffffffffffffffffffffffffffffffff1673ffffffffffffffffffffffffffffffffffffffff168152602001908152602001600020541415612d2157612d208161273a565b5b505056fe5072696365206d75737420626520686967686572207468616e2063757272656e74207072696365a165627a7a723058208a5191175bedd1f242fc24f400c765458c3b3d2f8a711cd4dcd0a07cea81925a0029",
  "source": "pragma solidity ^0.5.0;\nimport \"./interfaces/IERC721Full.sol\";\nimport \"./utils/SafeMath.sol\";\n\ninterface IMarket \n{\n    function getWinningPayoutNumerator(uint256 _outcome) external view returns (uint256);\n}\n\ninterface ShareToken \n\n{\n    function publicBuyCompleteSets(IMarket _market, uint256 _amount) external returns (bool)  ;\n    function publicSellCompleteSets(IMarket _market, uint256 _amount) external returns (uint256 _creatorFee, uint256 _reportingFee) ;\n}\n\ninterface Cash \n{\n    function approve(address _spender, uint256 _amount) external returns (bool);\n    function balanceOf(address _owner) external view returns (uint256);\n    function faucet(uint256 _amount) external;\n    function transfer(address _to, uint256 _amount) external returns (bool);\n    function transferFrom(address _from, address _to, uint256 _amount) external returns (bool);\n}\n\ncontract Harber {\n    \n    using SafeMath for uint256;\n    uint256 public constant version = 22;\n\n    uint256 constant numberOfOutcomes = 2; //TEST with two teams\n    uint256[numberOfOutcomes] public price; //in wei\n    IERC721Full public team; // ERC721 NFT.\n    \n    //Augur contracts\n    Cash public cash;\n    \n    uint256 public totalCollected; // total into my whiskey fund\n    uint256[numberOfOutcomes] public currentCollected; // amount currently collected for owner  \n    uint256[numberOfOutcomes] public timeLastCollected; // \n    uint256[numberOfOutcomes] public recentPurchaseIndex;\n    address payable public andrewsAddress;\n    uint256 public augurFund;\n\n    struct purchase {\n        address owner;\n        uint price;\n    }\n    \n    mapping (uint256 => mapping (address => bool) ) public owners;\n    mapping (uint256 => mapping (uint => purchase) ) public ownerTracker;\n    mapping (uint256 => mapping (address => uint256) ) public timeHeld;\n    mapping (uint256 => mapping (address => uint256) ) public deposits;\n    mapping (address => uint256) public testDaiBalances;\n\n    uint256[numberOfOutcomes] public timeAcquired;\n\n    enum ownedState { Foreclosed, Owned }\n    ownedState[numberOfOutcomes] public state;\n\n    constructor(address payable _andrewsAddress, address _addressOfToken, address _addressOfCashContract) public {\n        team = IERC721Full(_addressOfToken);\n        team.setup();\n        andrewsAddress = _andrewsAddress;\n        state[0] = ownedState.Foreclosed;\n        state[1] = ownedState.Foreclosed;\n\n        //Augur specific:\n        cash = Cash(_addressOfCashContract);\n    } \n\n    event LogBuy(address indexed owner, uint256 indexed price);\n    event LogPriceChange(uint256 indexed newPrice);\n    event LogForeclosure(address indexed prevOwner);\n    event LogCollection(uint256 indexed collected);\n    \n    modifier onlyOwner(uint256 _tokenId) {\n        require(msg.sender == team.ownerOf(_tokenId), \"Not owner\");\n        _;\n    }\n\n    modifier collectAugurFunds(uint256 _tokenId) {\n       _collectAugurFunds(_tokenId); \n       _;\n    }\n\n    /* public view functions */\n    // function getTimeHeld(uint256 _tokenId, address _adress) public view returns (uint256)\n    // {\n    //     return timeHeld[_tokenId][_address];\n    // }\n\n    function getVersion() public pure returns(uint256)\n    {\n        return (version);\n    }\n\n    function getTestDai() public \n    {\n        //// PUBLIC NETWORK VERSION\n        // cash.faucet(100000000000000000000);\n        // testDaiBalances[msg.sender]= testDaiBalances[msg.sender] + 100000000000000000000;\n\n        //// GANACHE VERSION\n        testDaiBalances[msg.sender]= testDaiBalances[msg.sender] + 100;\n    }\n\n    function getTestDaiBalance() public view returns (uint)\n    {\n        return(testDaiBalances[msg.sender]);\n    }\n\n    function getPrice(uint256 _tokenId) public view returns (uint256)\n    {\n        return price[_tokenId];\n    }\n\n    function augurFundsOwed(uint256 _tokenId) public view returns (uint256 augurFundsDue) {\n        return price[_tokenId].mul(now.sub(timeLastCollected[_tokenId])).div(365 days);\n    }\n\n    function augurFundsOwedWithTimestamp(uint256 _tokenId) public view returns (uint256 augurFundsDue, uint256 timestamp) {\n        return (augurFundsOwed(_tokenId), now);\n    }\n\n    function foreclosed(uint256 _tokenId) public view returns (bool) {\n        // returns whether it is in foreclosed state or not\n        // depending on whether deposit covers patronage due\n        // useful helper function when price should be zero, but contract doesn't reflect it yet.\n        uint256 _collection = augurFundsOwed(_tokenId);\n        if(_collection >= deposits[_tokenId][msg.sender]) {\n            return true;\n        } else {\n            return false;\n        }\n    }\n\n    // same function as above, basically\n    function depositAbleToWithdraw(uint256 _tokenId) public view returns (uint256) {\n        uint256 _collection = augurFundsOwed(_tokenId);\n        if(_collection >= deposits[_tokenId][msg.sender]) {\n            return 0;\n        } else {\n            return deposits[_tokenId][msg.sender].sub(_collection);\n        }\n    }\n\n    function userDepositAbleToWithdraw(uint256 _tokenId) public view returns (uint256) {\n        uint256 _collection = augurFundsOwed(_tokenId);\n        address _currentOwner = team.ownerOf(_tokenId);\n\n        if(_currentOwner == msg.sender)\n        {\n            if(_collection >= deposits[_tokenId][msg.sender]) \n        {\n            return 0;\n        } else {\n            return deposits[_tokenId][msg.sender].sub(_collection);\n        }\n        } else {\n            return deposits[_tokenId][msg.sender];\n        }\n    }\n\n    /*\n    now + deposit/patronage per second \n    now + depositAbleToWithdraw/(price*nume/denom/365).\n    */\n    function foreclosureTime(uint256 _tokenId) public view returns (uint256) {\n        // patronage per second\n        uint256 pps = price[_tokenId].div(365 days);\n        return now + depositAbleToWithdraw(_tokenId).div(pps); // zero division if price is zero.\n        // return pps;\n    }\n\n    /* actions */\n    function _collectAugurFunds(uint256 _tokenId) public {\n        // determine patronage to paay\n        if (state[_tokenId] == ownedState.Owned) {\n            uint256 _collection = augurFundsOwed(_tokenId);\n            address _currentOwner = team.ownerOf(_tokenId);\n            \n            // should foreclose and stake stewardship\n            if (_collection >= deposits[_tokenId][_currentOwner]) {\n                // up to when was it actually paid for?\n                timeLastCollected[_tokenId] = timeLastCollected[_tokenId].add(((now.sub(timeLastCollected[_tokenId])).mul(deposits[_tokenId][_currentOwner]).div(_collection)));\n                _collection = deposits[_tokenId][_currentOwner]; // take what's left.\n\n                _foreclose(_tokenId);\n            } else  {\n                // just a normal collection\n                timeLastCollected[_tokenId] = now;\n                currentCollected[_tokenId] = currentCollected[_tokenId].add(_collection);\n            }\n            \n            deposits[_tokenId][_currentOwner] = deposits[_tokenId][_currentOwner].sub(_collection);\n            deposits[_tokenId][_currentOwner] = deposits[_tokenId][_currentOwner].sub(_collection);\n            totalCollected = totalCollected.add(_collection);\n            augurFund = augurFund.add(_collection);\n             \n            emit LogCollection(_collection);\n        }\n    }\n    \n    // note: anyone can deposit\n    function depositWei(uint256 _tokenId) public payable collectAugurFunds(_tokenId) {\n        require(state[_tokenId] != ownedState.Foreclosed, \"Foreclosed\");\n        deposits[_tokenId][msg.sender] = deposits[_tokenId][msg.sender].add(msg.value);\n    }\n    \n    function buy(uint256 _newPrice, uint256 _tokenId, uint256 _deposit) public collectAugurFunds(_tokenId) {\n        require(_newPrice > price[_tokenId], \"Price must be higher than current price\");\n        require(_deposit > 0, \"Must deposit something\");\n        require(testDaiBalances[msg.sender] >= _deposit, \"Not enough DAI\");\n\n        testDaiBalances[msg.sender] = testDaiBalances[msg.sender].sub(_deposit);\n        deposits[_tokenId][msg.sender] = deposits[_tokenId][msg.sender].add(_deposit);\n        // the live deposit will always equal whatever that user has in his balance\n        deposits[_tokenId][msg.sender] = deposits[_tokenId][msg.sender];\n        price[_tokenId] = _newPrice;\n\n        address _currentOwner = team.ownerOf(_tokenId);\n\n        if(_currentOwner == msg.sender)\n        {\n            ownerTracker[_tokenId][recentPurchaseIndex[_tokenId]].price = _newPrice;\n        }\n        else\n        {\n            transferTokenTo(_currentOwner, msg.sender, _newPrice, _tokenId);\n        }\n\n        if(state[_tokenId] == ownedState.Foreclosed) \n        {\n            state[_tokenId] = ownedState.Owned;\n            timeLastCollected[_tokenId] = now;\n            ownerTracker[_tokenId][0].owner = msg.sender;\n            ownerTracker[_tokenId][0].price = _newPrice;\n        }\n\n        emit LogBuy(msg.sender, _newPrice);\n    }\n\n    function changePrice(uint256 _newPrice, uint256 _tokenId) public onlyOwner(_tokenId) collectAugurFunds(_tokenId) {\n        require(state[_tokenId] != ownedState.Foreclosed, \"Foreclosed\");\n        require(_newPrice != 0, \"Incorrect Price\");\n        \n        price[_tokenId] = _newPrice;\n        emit LogPriceChange(price[_tokenId]);\n    }\n    \n    function withdrawDeposit(uint256 _wei, uint256 _tokenId) public onlyOwner(_tokenId) collectAugurFunds(_tokenId) returns (uint256) {\n        _withdrawDeposit(_wei, _tokenId);\n    }\n\n    function withdrawAugurFunds() public {\n        require(msg.sender == andrewsAddress, \"Not andrew\");\n        andrewsAddress.transfer(augurFund);\n        augurFund = 0;\n    }\n\n    function exit(uint256 _tokenId) public onlyOwner(_tokenId) collectAugurFunds(_tokenId) {\n        _withdrawDeposit(deposits[_tokenId][msg.sender],  _tokenId);\n    }\n\n    /* internal */\n\n    function _withdrawDeposit(uint256 _wei, uint256 _tokenId) internal {\n        // note: can withdraw whole deposit, which puts it in immediate to be foreclosed state.\n        require(deposits[_tokenId][msg.sender] >= _wei, 'Withdrawing too much');\n\n        deposits[_tokenId][msg.sender] = deposits[_tokenId][msg.sender].sub(_wei);\n        msg.sender.transfer(_wei); // msg.sender == patron\n\n        if(deposits[_tokenId][msg.sender] == 0) {\n            _foreclose(_tokenId);\n        }\n    }\n\n    function _foreclose(uint256 _tokenId) internal {\n        // become steward of artwork (aka foreclose)\n        address _currentOwner = team.ownerOf(_tokenId);\n        //final field is price, ie price goes to zero\n        transferTokenTo(_currentOwner, address(this), 0, _tokenId);\n        state[_tokenId] = ownedState.Foreclosed;\n        currentCollected[_tokenId] = 0;\n\n        emit LogForeclosure(_currentOwner);\n    }\n\n    function transferTokenTo(address _currentOwner, address _newOwner, uint256 _newPrice, uint256 _tokenId) internal {\n        // note: it would also tabulate time held in stewardship by smart contract\n        \n        timeHeld[_tokenId][_currentOwner] = timeHeld[_tokenId][_currentOwner].add((timeLastCollected[_tokenId].sub(timeAcquired[_tokenId])));\n       \n        team.transferFrom(_currentOwner, _newOwner, _tokenId);\n\n        price[_tokenId] = _newPrice;\n        timeAcquired[_tokenId] = now;\n        owners[_tokenId][_newOwner] = true;\n    }\n}",
  "sourcePath": "/Users/mcplums/Repos/Harber/contracts/Harber.sol",
  "compiler": {
    "name": "solc",
    "version": "0.5.8+commit.23d335f2.Emscripten.clang"
  },
  "schemaVersion": "3.0.17",
  "updatedAt": "2019-12-06T09:22:24.578Z",
  "devdoc": {
    "methods": {}
  },
  "userdoc": {
    "methods": {}
  }
}