{
  "contractName": "Harber",
  "abi": [
    {
      "inputs": [
        {
          "internalType": "address",
          "name": "_andrewsAddress",
          "type": "address"
        },
        {
          "internalType": "address",
          "name": "_addressOfToken",
          "type": "address"
        },
        {
          "internalType": "address",
          "name": "_addressOfCashContract",
          "type": "address"
        },
        {
          "internalType": "address[20]",
          "name": "_addressesOfMarkets",
          "type": "address[20]"
        },
        {
          "internalType": "address",
          "name": "_addressOfCompleteSetsContract",
          "type": "address"
        },
        {
          "internalType": "address",
          "name": "_addressOfMainAugurContract",
          "type": "address"
        },
        {
          "internalType": "uint256",
          "name": "_marketExpectedResolutionTime",
          "type": "uint256"
        }
      ],
      "payable": false,
      "stateMutability": "nonpayable",
      "type": "constructor"
    },
    {
      "anonymous": false,
      "inputs": [
        {
          "indexed": true,
          "internalType": "uint256",
          "name": "daiWithdrawn",
          "type": "uint256"
        },
        {
          "indexed": true,
          "internalType": "uint256",
          "name": "tokenId",
          "type": "uint256"
        }
      ],
      "name": "LogDepositWithdrawal",
      "type": "event"
    },
    {
      "anonymous": false,
      "inputs": [
        {
          "indexed": true,
          "internalType": "address",
          "name": "returnedTo",
          "type": "address"
        },
        {
          "indexed": true,
          "internalType": "uint256",
          "name": "amountReturned",
          "type": "uint256"
        }
      ],
      "name": "LogDepositWithdrawalAfterResolution",
      "type": "event"
    },
    {
      "anonymous": false,
      "inputs": [
        {
          "indexed": true,
          "internalType": "uint256",
          "name": "tokenId",
          "type": "uint256"
        }
      ],
      "name": "LogExit",
      "type": "event"
    },
    {
      "anonymous": false,
      "inputs": [
        {
          "indexed": true,
          "internalType": "address",
          "name": "prevOwner",
          "type": "address"
        }
      ],
      "name": "LogForeclosure",
      "type": "event"
    },
    {
      "anonymous": false,
      "inputs": [
        {
          "indexed": true,
          "internalType": "uint256",
          "name": "daiAvailableToDistribute",
          "type": "uint256"
        }
      ],
      "name": "LogFundsReturned",
      "type": "event"
    },
    {
      "anonymous": false,
      "inputs": [
        {
          "indexed": true,
          "internalType": "address",
          "name": "newOwner",
          "type": "address"
        },
        {
          "indexed": true,
          "internalType": "uint256",
          "name": "newPrice",
          "type": "uint256"
        }
      ],
      "name": "LogNewRental",
      "type": "event"
    },
    {
      "anonymous": false,
      "inputs": [
        {
          "indexed": true,
          "internalType": "uint256",
          "name": "newPrice",
          "type": "uint256"
        }
      ],
      "name": "LogPriceChange",
      "type": "event"
    },
    {
      "anonymous": false,
      "inputs": [
        {
          "indexed": true,
          "internalType": "uint256",
          "name": "rentCollected",
          "type": "uint256"
        }
      ],
      "name": "LogRentCollection",
      "type": "event"
    },
    {
      "anonymous": false,
      "inputs": [
        {
          "indexed": true,
          "internalType": "address",
          "name": "returnedTo",
          "type": "address"
        },
        {
          "indexed": true,
          "internalType": "uint256",
          "name": "amountReturned",
          "type": "uint256"
        }
      ],
      "name": "LogRentReturned",
      "type": "event"
    },
    {
      "anonymous": false,
      "inputs": [
        {
          "indexed": true,
          "internalType": "uint256",
          "name": "tokenId",
          "type": "uint256"
        },
        {
          "indexed": true,
          "internalType": "address",
          "name": "previousOwner",
          "type": "address"
        }
      ],
      "name": "LogReturnToPreviousOwner",
      "type": "event"
    },
    {
      "anonymous": false,
      "inputs": [
        {
          "indexed": true,
          "internalType": "bool",
          "name": "didAugurMarketsResolve",
          "type": "bool"
        },
        {
          "indexed": true,
          "internalType": "uint256",
          "name": "winningOutcome",
          "type": "uint256"
        },
        {
          "indexed": true,
          "internalType": "bool",
          "name": "didAugurMarketsResolveCorrectly",
          "type": "bool"
        }
      ],
      "name": "LogStep1Complete",
      "type": "event"
    },
    {
      "anonymous": false,
      "inputs": [
        {
          "indexed": true,
          "internalType": "uint256",
          "name": "daiAvailableToDistribute",
          "type": "uint256"
        }
      ],
      "name": "LogStep2Complete",
      "type": "event"
    },
    {
      "anonymous": false,
      "inputs": [
        {
          "indexed": true,
          "internalType": "address",
          "name": "paidTo",
          "type": "address"
        },
        {
          "indexed": true,
          "internalType": "uint256",
          "name": "amountPaid",
          "type": "uint256"
        }
      ],
      "name": "LogWinningsPaid",
      "type": "event"
    },
    {
      "constant": true,
      "inputs": [],
      "name": "cash",
      "outputs": [
        {
          "internalType": "contract Cash",
          "name": "",
          "type": "address"
        }
      ],
      "payable": false,
      "stateMutability": "view",
      "type": "function"
    },
    {
      "constant": true,
      "inputs": [
        {
          "internalType": "uint256",
          "name": "",
          "type": "uint256"
        }
      ],
      "name": "collectedPerMarket",
      "outputs": [
        {
          "internalType": "uint256",
          "name": "",
          "type": "uint256"
        }
      ],
      "payable": false,
      "stateMutability": "view",
      "type": "function"
    },
    {
      "constant": true,
      "inputs": [
        {
          "internalType": "address",
          "name": "",
          "type": "address"
        }
      ],
      "name": "collectedPerUser",
      "outputs": [
        {
          "internalType": "uint256",
          "name": "",
          "type": "uint256"
        }
      ],
      "payable": false,
      "stateMutability": "view",
      "type": "function"
    },
    {
      "constant": true,
      "inputs": [],
      "name": "completeSets",
      "outputs": [
        {
          "internalType": "contract ShareToken",
          "name": "",
          "type": "address"
        }
      ],
      "payable": false,
      "stateMutability": "view",
      "type": "function"
    },
    {
      "constant": true,
      "inputs": [
        {
          "internalType": "uint256",
          "name": "",
          "type": "uint256"
        }
      ],
      "name": "currentOwnerIndex",
      "outputs": [
        {
          "internalType": "uint256",
          "name": "",
          "type": "uint256"
        }
      ],
      "payable": false,
      "stateMutability": "view",
      "type": "function"
    },
    {
      "constant": true,
      "inputs": [],
      "name": "daiAvailableToDistribute",
      "outputs": [
        {
          "internalType": "uint256",
          "name": "",
          "type": "uint256"
        }
      ],
      "payable": false,
      "stateMutability": "view",
      "type": "function"
    },
    {
      "constant": true,
      "inputs": [
        {
          "internalType": "uint256",
          "name": "",
          "type": "uint256"
        },
        {
          "internalType": "address",
          "name": "",
          "type": "address"
        }
      ],
      "name": "deposits",
      "outputs": [
        {
          "internalType": "uint256",
          "name": "",
          "type": "uint256"
        }
      ],
      "payable": false,
      "stateMutability": "view",
      "type": "function"
    },
    {
      "constant": true,
      "inputs": [
        {
          "internalType": "uint256",
          "name": "",
          "type": "uint256"
        }
      ],
      "name": "market",
      "outputs": [
        {
          "internalType": "contract IMarket",
          "name": "",
          "type": "address"
        }
      ],
      "payable": false,
      "stateMutability": "view",
      "type": "function"
    },
    {
      "constant": true,
      "inputs": [
        {
          "internalType": "uint256",
          "name": "",
          "type": "uint256"
        }
      ],
      "name": "marketAddresses",
      "outputs": [
        {
          "internalType": "address",
          "name": "",
          "type": "address"
        }
      ],
      "payable": false,
      "stateMutability": "view",
      "type": "function"
    },
    {
      "constant": true,
      "inputs": [],
      "name": "marketExpectedResolutionTime",
      "outputs": [
        {
          "internalType": "uint256",
          "name": "",
          "type": "uint256"
        }
      ],
      "payable": false,
      "stateMutability": "view",
      "type": "function"
    },
    {
      "constant": true,
      "inputs": [],
      "name": "marketsResolved",
      "outputs": [
        {
          "internalType": "bool",
          "name": "",
          "type": "bool"
        }
      ],
      "payable": false,
      "stateMutability": "view",
      "type": "function"
    },
    {
      "constant": true,
      "inputs": [],
      "name": "marketsResolvedWithoutErrors",
      "outputs": [
        {
          "internalType": "bool",
          "name": "",
          "type": "bool"
        }
      ],
      "payable": false,
      "stateMutability": "view",
      "type": "function"
    },
    {
      "constant": true,
      "inputs": [],
      "name": "numberOfTokens",
      "outputs": [
        {
          "internalType": "uint256",
          "name": "",
          "type": "uint256"
        }
      ],
      "payable": false,
      "stateMutability": "view",
      "type": "function"
    },
    {
      "constant": true,
      "inputs": [
        {
          "internalType": "uint256",
          "name": "",
          "type": "uint256"
        },
        {
          "internalType": "uint256",
          "name": "",
          "type": "uint256"
        }
      ],
      "name": "ownerTracker",
      "outputs": [
        {
          "internalType": "address",
          "name": "owner",
          "type": "address"
        },
        {
          "internalType": "uint256",
          "name": "price",
          "type": "uint256"
        }
      ],
      "payable": false,
      "stateMutability": "view",
      "type": "function"
    },
    {
      "constant": true,
      "inputs": [
        {
          "internalType": "uint256",
          "name": "",
          "type": "uint256"
        }
      ],
      "name": "price",
      "outputs": [
        {
          "internalType": "uint256",
          "name": "",
          "type": "uint256"
        }
      ],
      "payable": false,
      "stateMutability": "view",
      "type": "function"
    },
    {
      "constant": true,
      "inputs": [],
      "name": "step2Complete",
      "outputs": [
        {
          "internalType": "bool",
          "name": "",
          "type": "bool"
        }
      ],
      "payable": false,
      "stateMutability": "view",
      "type": "function"
    },
    {
      "constant": true,
      "inputs": [],
      "name": "team",
      "outputs": [
        {
          "internalType": "contract IERC721Full",
          "name": "",
          "type": "address"
        }
      ],
      "payable": false,
      "stateMutability": "view",
      "type": "function"
    },
    {
      "constant": true,
      "inputs": [
        {
          "internalType": "uint256",
          "name": "",
          "type": "uint256"
        }
      ],
      "name": "timeAcquired",
      "outputs": [
        {
          "internalType": "uint256",
          "name": "",
          "type": "uint256"
        }
      ],
      "payable": false,
      "stateMutability": "view",
      "type": "function"
    },
    {
      "constant": true,
      "inputs": [
        {
          "internalType": "uint256",
          "name": "",
          "type": "uint256"
        },
        {
          "internalType": "address",
          "name": "",
          "type": "address"
        }
      ],
      "name": "timeHeld",
      "outputs": [
        {
          "internalType": "uint256",
          "name": "",
          "type": "uint256"
        }
      ],
      "payable": false,
      "stateMutability": "view",
      "type": "function"
    },
    {
      "constant": true,
      "inputs": [
        {
          "internalType": "uint256",
          "name": "",
          "type": "uint256"
        }
      ],
      "name": "timeLastCollected",
      "outputs": [
        {
          "internalType": "uint256",
          "name": "",
          "type": "uint256"
        }
      ],
      "payable": false,
      "stateMutability": "view",
      "type": "function"
    },
    {
      "constant": true,
      "inputs": [],
      "name": "totalCollected",
      "outputs": [
        {
          "internalType": "uint256",
          "name": "",
          "type": "uint256"
        }
      ],
      "payable": false,
      "stateMutability": "view",
      "type": "function"
    },
    {
      "constant": true,
      "inputs": [
        {
          "internalType": "uint256",
          "name": "",
          "type": "uint256"
        }
      ],
      "name": "totalTimeHeld",
      "outputs": [
        {
          "internalType": "uint256",
          "name": "",
          "type": "uint256"
        }
      ],
      "payable": false,
      "stateMutability": "view",
      "type": "function"
    },
    {
      "constant": true,
      "inputs": [],
      "name": "winningOutcome",
      "outputs": [
        {
          "internalType": "uint256",
          "name": "",
          "type": "uint256"
        }
      ],
      "payable": false,
      "stateMutability": "view",
      "type": "function"
    },
    {
      "constant": true,
      "inputs": [
        {
          "internalType": "uint256",
          "name": "_tokenId",
          "type": "uint256"
        },
        {
          "internalType": "uint256",
          "name": "_index",
          "type": "uint256"
        }
      ],
      "name": "getOwnerTrackerPrice",
      "outputs": [
        {
          "internalType": "uint256",
          "name": "",
          "type": "uint256"
        }
      ],
      "payable": false,
      "stateMutability": "view",
      "type": "function"
    },
    {
      "constant": true,
      "inputs": [
        {
          "internalType": "uint256",
          "name": "_tokenId",
          "type": "uint256"
        },
        {
          "internalType": "uint256",
          "name": "_index",
          "type": "uint256"
        }
      ],
      "name": "getOwnerTrackerAddress",
      "outputs": [
        {
          "internalType": "address",
          "name": "",
          "type": "address"
        }
      ],
      "payable": false,
      "stateMutability": "view",
      "type": "function"
    },
    {
      "constant": true,
      "inputs": [
        {
          "internalType": "uint256",
          "name": "_tokenId",
          "type": "uint256"
        }
      ],
      "name": "rentOwed",
      "outputs": [
        {
          "internalType": "uint256",
          "name": "augurFundsDue",
          "type": "uint256"
        }
      ],
      "payable": false,
      "stateMutability": "view",
      "type": "function"
    },
    {
      "constant": true,
      "inputs": [
        {
          "internalType": "uint256",
          "name": "_tokenId",
          "type": "uint256"
        }
      ],
      "name": "liveDepositAbleToWithdraw",
      "outputs": [
        {
          "internalType": "uint256",
          "name": "",
          "type": "uint256"
        }
      ],
      "payable": false,
      "stateMutability": "view",
      "type": "function"
    },
    {
      "constant": true,
      "inputs": [
        {
          "internalType": "uint256",
          "name": "_tokenId",
          "type": "uint256"
        }
      ],
      "name": "userDepositAbleToWithdraw",
      "outputs": [
        {
          "internalType": "uint256",
          "name": "",
          "type": "uint256"
        }
      ],
      "payable": false,
      "stateMutability": "view",
      "type": "function"
    },
    {
      "constant": true,
      "inputs": [
        {
          "internalType": "uint256",
          "name": "_tokenId",
          "type": "uint256"
        }
      ],
      "name": "rentalExpiryTime",
      "outputs": [
        {
          "internalType": "uint256",
          "name": "",
          "type": "uint256"
        }
      ],
      "payable": false,
      "stateMutability": "view",
      "type": "function"
    },
    {
      "constant": false,
      "inputs": [],
      "name": "step1checkMarketsResolved",
      "outputs": [],
      "payable": false,
      "stateMutability": "nonpayable",
      "type": "function"
    },
    {
      "constant": false,
      "inputs": [],
      "name": "step1BemergencyExit",
      "outputs": [],
      "payable": false,
      "stateMutability": "nonpayable",
      "type": "function"
    },
    {
      "constant": false,
      "inputs": [],
      "name": "step1CcircuitBreaker",
      "outputs": [],
      "payable": false,
      "stateMutability": "nonpayable",
      "type": "function"
    },
    {
      "constant": false,
      "inputs": [],
      "name": "step2sellCompleteSetsAndPayAndrew",
      "outputs": [],
      "payable": false,
      "stateMutability": "nonpayable",
      "type": "function"
    },
    {
      "constant": false,
      "inputs": [],
      "name": "complete",
      "outputs": [],
      "payable": false,
      "stateMutability": "nonpayable",
      "type": "function"
    },
    {
      "constant": false,
      "inputs": [],
      "name": "withdrawDepositAfterResolution",
      "outputs": [],
      "payable": false,
      "stateMutability": "nonpayable",
      "type": "function"
    },
    {
      "constant": false,
      "inputs": [],
      "name": "collectRentAllTokens",
      "outputs": [],
      "payable": false,
      "stateMutability": "nonpayable",
      "type": "function"
    },
    {
      "constant": false,
      "inputs": [
        {
          "internalType": "uint256",
          "name": "_tokenId",
          "type": "uint256"
        }
      ],
      "name": "_collectRent",
      "outputs": [],
      "payable": false,
      "stateMutability": "nonpayable",
      "type": "function"
    },
    {
      "constant": false,
      "inputs": [
        {
          "internalType": "uint256",
          "name": "_newPrice",
          "type": "uint256"
        },
        {
          "internalType": "uint256",
          "name": "_tokenId",
          "type": "uint256"
        },
        {
          "internalType": "uint256",
          "name": "_deposit",
          "type": "uint256"
        }
      ],
      "name": "newRental",
      "outputs": [],
      "payable": false,
      "stateMutability": "nonpayable",
      "type": "function"
    },
    {
      "constant": false,
      "inputs": [
        {
          "internalType": "uint256",
          "name": "_dai",
          "type": "uint256"
        },
        {
          "internalType": "uint256",
          "name": "_tokenId",
          "type": "uint256"
        }
      ],
      "name": "depositDai",
      "outputs": [],
      "payable": false,
      "stateMutability": "nonpayable",
      "type": "function"
    },
    {
      "constant": false,
      "inputs": [
        {
          "internalType": "uint256",
          "name": "_newPrice",
          "type": "uint256"
        },
        {
          "internalType": "uint256",
          "name": "_tokenId",
          "type": "uint256"
        }
      ],
      "name": "changePrice",
      "outputs": [],
      "payable": false,
      "stateMutability": "nonpayable",
      "type": "function"
    },
    {
      "constant": false,
      "inputs": [
        {
          "internalType": "uint256",
          "name": "_dai",
          "type": "uint256"
        },
        {
          "internalType": "uint256",
          "name": "_tokenId",
          "type": "uint256"
        }
      ],
      "name": "withdrawDeposit",
      "outputs": [
        {
          "internalType": "uint256",
          "name": "",
          "type": "uint256"
        }
      ],
      "payable": false,
      "stateMutability": "nonpayable",
      "type": "function"
    },
    {
      "constant": false,
      "inputs": [
        {
          "internalType": "uint256",
          "name": "_tokenId",
          "type": "uint256"
        }
      ],
      "name": "exit",
      "outputs": [],
      "payable": false,
      "stateMutability": "nonpayable",
      "type": "function"
    }
  ],
  "bytecode": "0x608060405261a4556091556000609360006101000a81548160ff0219169083151502179055506000609360016101000a81548160ff0219169083151502179055506000609360026101000a81548160ff0219169083151502179055503480156200006857600080fd5b50604051620047593803806200475983398181016040526103408110156200008f57600080fd5b81019080805190602001909291908051906020019092919080519060200190929190919082610280018051906020019092919080519060200190929190805190602001909291905050508060928190555086601760006101000a81548173ffffffffffffffffffffffffffffffffffffffff021916908373ffffffffffffffffffffffffffffffffffffffff160217905550836018906014620001349291906200039f565b50856000806101000a81548173ffffffffffffffffffffffffffffffffffffffff021916908373ffffffffffffffffffffffffffffffffffffffff16021790555084601660006101000a81548173ffffffffffffffffffffffffffffffffffffffff021916908373ffffffffffffffffffffffffffffffffffffffff16021790555082601560006101000a81548173ffffffffffffffffffffffffffffffffffffffff021916908373ffffffffffffffffffffffffffffffffffffffff16021790555060008090505b601481101562000289576000607d82601481106200021757fe5b01819055508481601481106200022957fe5b6020020151600182601481106200023c57fe5b0160006101000a81548173ffffffffffffffffffffffffffffffffffffffff021916908373ffffffffffffffffffffffffffffffffffffffff1602179055508080600101915050620001fd565b50601660009054906101000a900473ffffffffffffffffffffffffffffffffffffffff1673ffffffffffffffffffffffffffffffffffffffff1663095ea7b3837fffffffffffffffffffffffffffffffffffffffffffffffffffffffffffffffff6040518363ffffffff1660e01b8152600401808373ffffffffffffffffffffffffffffffffffffffff1673ffffffffffffffffffffffffffffffffffffffff16815260200182815260200192505050602060405180830381600087803b1580156200035457600080fd5b505af115801562000369573d6000803e3d6000fd5b505050506040513d60208110156200038057600080fd5b8101908080519060200190929190505050505050505050505062000467565b82601481019282156200040e579160200282015b828111156200040d5782518260006101000a81548173ffffffffffffffffffffffffffffffffffffffff021916908373ffffffffffffffffffffffffffffffffffffffff16021790555091602001919060010190620003b3565b5b5090506200041d919062000421565b5090565b6200046491905b808211156200046057600081816101000a81549073ffffffffffffffffffffffffffffffffffffffff02191690555060010162000428565b5090565b90565b6142e280620004776000396000f3fe608060405234801561001057600080fd5b506004361061025e5760003560e01c80638c5e426411610146578063b3de019c116100c3578063f015e54e11610087578063f015e54e14610a35578063f06197b714610a77578063f83c1f7f14610ac3578063f88489c214610acd578063f9f16ef214610b4c578063fce0eb0214610b6a5761025e565b8063b3de019c14610947578063b7e3cd631461097f578063bae04c9a14610989578063deb601d7146109d5578063e29eb83614610a175761025e565b806399436d681161010a57806399436d68146108895780639b34ae03146108d3578063a36252bf146108f1578063a871c02414610933578063adfbe13c1461093d5761025e565b80638c5e42641461075d5780638cb6889914610767578063961be391146107a9578063977f1b28146107f357806397b4550a146108115761025e565b8063522e1177116101df57806370a23f75116101a357806370a23f75146105eb57806373a5226f1461062d5780637c1bfa541461066f5780637f8661a1146106c757806385f2aef2146106f557806388be097b1461073f5761025e565b8063522e1177146104e357806353a58de1146104ed5780635616fde91461054f5780635b2ace64146105715780635dfd7e9b146105b35761025e565b8063350293a111610226578063350293a1146103e55780633f17e86f14610453578063427079581461049557806343a7f4aa1461049f57806348bdf8fe146104c15761025e565b8063237b5e4f1461026357806325947a52146102c557806326a49e37146102f357806328861d221461033557806332f2b04d146103a3575b600080fd5b6102af6004803603604081101561027957600080fd5b8101908080359060200190929190803573ffffffffffffffffffffffffffffffffffffffff169060200190929190505050610bac565b6040518082815260200191505060405180910390f35b6102f1600480360360208110156102db57600080fd5b8101908080359060200190929190505050610bd1565b005b61031f6004803603602081101561030957600080fd5b810190808035906020019092919050505061127e565b6040518082815260200191505060405180910390f35b6103616004803603602081101561034b57600080fd5b8101908080359060200190929190505050611296565b604051808273ffffffffffffffffffffffffffffffffffffffff1673ffffffffffffffffffffffffffffffffffffffff16815260200191505060405180910390f35b6103cf600480360360208110156103b957600080fd5b81019080803590602001909291905050506112c9565b6040518082815260200191505060405180910390f35b610411600480360360208110156103fb57600080fd5b8101908080359060200190929190505050611457565b604051808273ffffffffffffffffffffffffffffffffffffffff1673ffffffffffffffffffffffffffffffffffffffff16815260200191505060405180910390f35b6104936004803603606081101561046957600080fd5b8101908080359060200190929190803590602001909291908035906020019092919050505061148a565b005b61049d611892565b005b6104a7611aa3565b604051808215151515815260200191505060405180910390f35b6104c9611ab6565b604051808215151515815260200191505060405180910390f35b6104eb611ac9565b005b6105396004803603604081101561050357600080fd5b8101908080359060200190929190803573ffffffffffffffffffffffffffffffffffffffff169060200190929190505050611b7f565b6040518082815260200191505060405180910390f35b610557611ba4565b604051808215151515815260200191505060405180910390f35b61059d6004803603602081101561058757600080fd5b8101908080359060200190929190505050611bb7565b6040518082815260200191505060405180910390f35b6105e9600480360360408110156105c957600080fd5b810190808035906020019092919080359060200190929190505050611bcf565b005b6106176004803603602081101561060157600080fd5b8101908080359060200190929190505050611cbf565b6040518082815260200191505060405180910390f35b6106596004803603602081101561064357600080fd5b8101908080359060200190929190505050611d1e565b6040518082815260200191505060405180910390f35b6106b16004803603602081101561068557600080fd5b81019080803573ffffffffffffffffffffffffffffffffffffffff169060200190929190505050611f3a565b6040518082815260200191505060405180910390f35b6106f3600480360360208110156106dd57600080fd5b8101908080359060200190929190505050611f52565b005b6106fd612061565b604051808273ffffffffffffffffffffffffffffffffffffffff1673ffffffffffffffffffffffffffffffffffffffff16815260200191505060405180910390f35b610747612086565b6040518082815260200191505060405180910390f35b61076561208c565b005b6107936004803603602081101561077d57600080fd5b8101908080359060200190929190505050612234565b6040518082815260200191505060405180910390f35b6107b161224c565b604051808273ffffffffffffffffffffffffffffffffffffffff1673ffffffffffffffffffffffffffffffffffffffff16815260200191505060405180910390f35b6107fb612272565b6040518082815260200191505060405180910390f35b6108476004803603604081101561082757600080fd5b810190808035906020019092919080359060200190929190505050612278565b604051808273ffffffffffffffffffffffffffffffffffffffff1673ffffffffffffffffffffffffffffffffffffffff16815260200191505060405180910390f35b6108916122ca565b604051808273ffffffffffffffffffffffffffffffffffffffff1673ffffffffffffffffffffffffffffffffffffffff16815260200191505060405180910390f35b6108db6122f0565b6040518082815260200191505060405180910390f35b61091d6004803603602081101561090757600080fd5b81019080803590602001909291905050506122f6565b6040518082815260200191505060405180910390f35b61093b61230e565b005b6109456124ba565b005b61097d6004803603604081101561095d57600080fd5b810190808035906020019092919080359060200190929190505050612502565b005b61098761276c565b005b6109bf6004803603604081101561099f57600080fd5b8101908080359060200190929190803590602001909291905050506128b0565b6040518082815260200191505060405180910390f35b610a01600480360360208110156109eb57600080fd5b8101908080359060200190929190505050612975565b6040518082815260200191505060405180910390f35b610a1f61298d565b6040518082815260200191505060405180910390f35b610a6160048036036020811015610a4b57600080fd5b8101908080359060200190929190505050612993565b6040518082815260200191505060405180910390f35b610aad60048036036040811015610a8d57600080fd5b8101908080359060200190929190803590602001909291905050506129ab565b6040518082815260200191505060405180910390f35b610acb6129dd565b005b610b0360048036036040811015610ae357600080fd5b810190808035906020019092919080359060200190929190505050612ac2565b604051808373ffffffffffffffffffffffffffffffffffffffff1673ffffffffffffffffffffffffffffffffffffffff1681526020018281526020019250505060405180910390f35b610b54612b13565b6040518082815260200191505060405180910390f35b610b9660048036036020811015610b8057600080fd5b8101908080359060200190929190505050612b18565b6040518082815260200191505060405180910390f35b6096602052816000526040600020602052806000526040600020600091509150505481565b60001515609360009054906101000a900460ff16151514610bf157600080fd5b60148110610c67576040517f08c379a00000000000000000000000000000000000000000000000000000000081526004018080602001828103825260188152602001807f54686973207465616d20646f6573206e6f74206578697374000000000000000081525060200191505060405180910390fd5b3073ffffffffffffffffffffffffffffffffffffffff166000809054906101000a900473ffffffffffffffffffffffffffffffffffffffff1673ffffffffffffffffffffffffffffffffffffffff16636352211e836040518263ffffffff1660e01b81526004018082815260200191505060206040518083038186803b158015610cf057600080fd5b505afa158015610d04573d6000803e3d6000fd5b505050506040513d6020811015610d1a57600080fd5b810190808051906020019092919050505073ffffffffffffffffffffffffffffffffffffffff1614611268576000610d5182611cbf565b905060008060009054906101000a900473ffffffffffffffffffffffffffffffffffffffff1673ffffffffffffffffffffffffffffffffffffffff16636352211e846040518263ffffffff1660e01b81526004018082815260200191505060206040518083038186803b158015610dc757600080fd5b505afa158015610ddb573d6000803e3d6000fd5b505050506040513d6020811015610df157600080fd5b8101908080519060200190929190505050905060006098600085815260200190815260200160002060008373ffffffffffffffffffffffffffffffffffffffff1673ffffffffffffffffffffffffffffffffffffffff168152602001908152602001600020548310610f7557610f12610ef584610ee76098600089815260200190815260200160002060008773ffffffffffffffffffffffffffffffffffffffff1673ffffffffffffffffffffffffffffffffffffffff16815260200190815260200160002054610ed960558a60148110610ec857fe5b015442612b7990919063ffffffff16565b612bc390919063ffffffff16565b612c4990919063ffffffff16565b60558660148110610f0257fe5b0154612c9390919063ffffffff16565b90506098600085815260200190815260200160002060008373ffffffffffffffffffffffffffffffffffffffff1673ffffffffffffffffffffffffffffffffffffffff168152602001908152602001600020549250610f7084612d1b565b610f79565b4290505b610fdc836098600087815260200190815260200160002060008573ffffffffffffffffffffffffffffffffffffffff1673ffffffffffffffffffffffffffffffffffffffff16815260200190815260200160002054612b7990919063ffffffff16565b6098600086815260200190815260200160002060008473ffffffffffffffffffffffffffffffffffffffff1673ffffffffffffffffffffffffffffffffffffffff1681526020019081526020016000208190555061103a8484612f8e565b600061105d6055866014811061104c57fe5b015483612b7990919063ffffffff16565b90506110c2816096600088815260200190815260200160002060008673ffffffffffffffffffffffffffffffffffffffff1673ffffffffffffffffffffffffffffffffffffffff16815260200190815260200160002054612c9390919063ffffffff16565b6096600087815260200190815260200160002060008573ffffffffffffffffffffffffffffffffffffffff1673ffffffffffffffffffffffffffffffffffffffff1681526020019081526020016000208190555061113c816097600088815260200190815260200160002054612c9390919063ffffffff16565b6097600087815260200190815260200160002081905550611174846040876014811061116457fe5b0154612c9390919063ffffffff16565b6040866014811061118157fe5b01819055506111d884609960008673ffffffffffffffffffffffffffffffffffffffff1673ffffffffffffffffffffffffffffffffffffffff16815260200190815260200160002054612c9390919063ffffffff16565b609960008573ffffffffffffffffffffffffffffffffffffffff1673ffffffffffffffffffffffffffffffffffffffff1681526020019081526020016000208190555061123084605454612c9390919063ffffffff16565b605481905550837f6ab0172416aeaedce744fba85809be02ae7a61ff89203ff71a33291dc9f310f460405160405180910390a2505050505b426055826014811061127657fe5b018190555050565b602c816014811061128b57fe5b016000915090505481565b600181601481106112a357fe5b016000915054906101000a900473ffffffffffffffffffffffffffffffffffffffff1681565b6000806112d583611cbf565b905060008060009054906101000a900473ffffffffffffffffffffffffffffffffffffffff1673ffffffffffffffffffffffffffffffffffffffff16636352211e856040518263ffffffff1660e01b81526004018082815260200191505060206040518083038186803b15801561134b57600080fd5b505afa15801561135f573d6000803e3d6000fd5b505050506040513d602081101561137557600080fd5b810190808051906020019092919050505090506098600085815260200190815260200160002060008273ffffffffffffffffffffffffffffffffffffffff1673ffffffffffffffffffffffffffffffffffffffff1681526020019081526020016000205482106113ea57600092505050611452565b61144d826098600087815260200190815260200160002060008473ffffffffffffffffffffffffffffffffffffffff1673ffffffffffffffffffffffffffffffffffffffff16815260200190815260200160002054612b7990919063ffffffff16565b925050505b919050565b6018816014811061146457fe5b016000915054906101000a900473ffffffffffffffffffffffffffffffffffffffff1681565b8161149481610bd1565b60001515609360009054906101000a900460ff161515146114b457600080fd5b602c83601481106114c157fe5b0154841161151a576040517f08c379a00000000000000000000000000000000000000000000000000000000081526004018080602001828103825260278152602001806142666027913960400191505060405180910390fd5b60008211611590576040517f08c379a00000000000000000000000000000000000000000000000000000000081526004018080602001828103825260168152602001807f4d757374206465706f73697420736f6d657468696e670000000000000000000081525060200191505060405180910390fd5b61159a33836130be565b6115fd826098600086815260200190815260200160002060003373ffffffffffffffffffffffffffffffffffffffff1673ffffffffffffffffffffffffffffffffffffffff16815260200190815260200160002054612c9390919063ffffffff16565b6098600085815260200190815260200160002060003373ffffffffffffffffffffffffffffffffffffffff1673ffffffffffffffffffffffffffffffffffffffff1681526020019081526020016000208190555060008060009054906101000a900473ffffffffffffffffffffffffffffffffffffffff1673ffffffffffffffffffffffffffffffffffffffff16636352211e856040518263ffffffff1660e01b81526004018082815260200191505060206040518083038186803b1580156116c557600080fd5b505afa1580156116d9573d6000803e3d6000fd5b505050506040513d60208110156116ef57600080fd5b810190808051906020019092919050505090503373ffffffffffffffffffffffffffffffffffffffff168173ffffffffffffffffffffffffffffffffffffffff161415611745576117408585612502565b61188b565b6117676001607d866014811061175757fe5b0154612c9390919063ffffffff16565b607d856014811061177457fe5b018190555084609560008681526020019081526020016000206000607d876014811061179c57fe5b015481526020019081526020016000206001018190555033609560008681526020019081526020016000206000607d87601481106117d657fe5b0154815260200190815260200160002060000160006101000a81548173ffffffffffffffffffffffffffffffffffffffff021916908373ffffffffffffffffffffffffffffffffffffffff160217905550426069856014811061183557fe5b0181905550611846813387876131db565b843373ffffffffffffffffffffffffffffffffffffffff167f5d9a8e89c07cfaa4f66851278f68ad151a3137e11dfd2d625c1832965ee5bcbc60405160405180910390a35b5050505050565b60011515609360009054906101000a900460ff1615151461191b576040517f08c379a000000000000000000000000000000000000000000000000000000000815260040180806020018281038252601f8152602001807f4d757374207761697420666f72206d61726b6574207265736f6c7574696f6e0081525060200191505060405180910390fd5b60001515609360029054906101000a900460ff161515146119a4576040517f08c379a000000000000000000000000000000000000000000000000000000000815260040180806020018281038252601d8152602001807f53746570322073686f756c64206f6e6c792062652072756e206f6e636500000081525060200191505060405180910390fd5b60006119ae6132e8565b90506119b86133c9565b60006119c26132e8565b90506119d78282612b7990919063ffffffff16565b609481905550609360019054906101000a900460ff1615611a55576000611a0a6064609454612c4990919063ffffffff16565b9050611a38601760009054906101000a900473ffffffffffffffffffffffffffffffffffffffff168261352c565b611a4d81609454612b7990919063ffffffff16565b609481905550505b6001609360026101000a81548160ff0219169083151502179055506094547fcf0c6693686c601db90315849a77e9a46c6fc429ddd05b07db6182acd473900a60405160405180910390a25050565b609360029054906101000a900460ff1681565b609360009054906101000a900460ff1681565b60011515609360029054906101000a900460ff16151514611b52576040517f08c379a000000000000000000000000000000000000000000000000000000000815260040180806020018281038252601d8152602001807f5374657032206d75737420626520636f6d706c6574656420666972737400000081525060200191505060405180910390fd5b609360019054906101000a900460ff1615611b7457611b6f613615565b611b7d565b611b7c613766565b5b565b6098602052816000526040600020602052806000526040600020600091509150505481565b609360019054906101000a900460ff1681565b60698160148110611bc457fe5b016000915090505481565b80611bd981610bd1565b60001515609360009054906101000a900460ff16151514611bf957600080fd5b611c0333846130be565b611c66836098600085815260200190815260200160002060003373ffffffffffffffffffffffffffffffffffffffff1673ffffffffffffffffffffffffffffffffffffffff16815260200190815260200160002054612c9390919063ffffffff16565b6098600084815260200190815260200160002060003373ffffffffffffffffffffffffffffffffffffffff1673ffffffffffffffffffffffffffffffffffffffff16815260200190815260200160002081905550505050565b6000611d1762015180611d09611cec60558660148110611cdb57fe5b015442612b7990919063ffffffff16565b602c8660148110611cf957fe5b0154612bc390919063ffffffff16565b612c4990919063ffffffff16565b9050919050565b600080611d2a83611cbf565b905060008060009054906101000a900473ffffffffffffffffffffffffffffffffffffffff1673ffffffffffffffffffffffffffffffffffffffff16636352211e856040518263ffffffff1660e01b81526004018082815260200191505060206040518083038186803b158015611da057600080fd5b505afa158015611db4573d6000803e3d6000fd5b505050506040513d6020811015611dca57600080fd5b810190808051906020019092919050505090503373ffffffffffffffffffffffffffffffffffffffff168173ffffffffffffffffffffffffffffffffffffffff161415611edf576098600085815260200190815260200160002060003373ffffffffffffffffffffffffffffffffffffffff1673ffffffffffffffffffffffffffffffffffffffff168152602001908152602001600020548210611e7357600092505050611f35565b611ed6826098600087815260200190815260200160002060003373ffffffffffffffffffffffffffffffffffffffff1673ffffffffffffffffffffffffffffffffffffffff16815260200190815260200160002054612b7990919063ffffffff16565b92505050611f35565b6098600085815260200190815260200160002060003373ffffffffffffffffffffffffffffffffffffffff1673ffffffffffffffffffffffffffffffffffffffff16815260200190815260200160002054925050505b919050565b60996020528060005260406000206000915090505481565b80611f5c81610bd1565b60001515609360009054906101000a900460ff16151514611f7c57600080fd5b60006098600084815260200190815260200160002060003373ffffffffffffffffffffffffffffffffffffffff1673ffffffffffffffffffffffffffffffffffffffff16815260200190815260200160002054111561205d5761202f6098600084815260200190815260200160002060003373ffffffffffffffffffffffffffffffffffffffff1673ffffffffffffffffffffffffffffffffffffffff168152602001908152602001600020548361387e565b817f49808a584bb421df5b5b1482fabe4038c32b38c798fc068b8e426274afd93d5260405160405180910390a25b5050565b6000809054906101000a900473ffffffffffffffffffffffffffffffffffffffff1681565b60945481565b60001515609360009054906101000a900460ff16151514612115576040517f08c379a00000000000000000000000000000000000000000000000000000000081526004018080602001828103825260208152602001807f53746570312063616e206f6e6c7920626520636f6d706c65746564206f6e636581525060200191505060405180910390fd5b601760009054906101000a900473ffffffffffffffffffffffffffffffffffffffff1673ffffffffffffffffffffffffffffffffffffffff163373ffffffffffffffffffffffffffffffffffffffff16146121d8576040517f08c379a00000000000000000000000000000000000000000000000000000000081526004018080602001828103825260188152602001807f4f6e6c79206f776e65722063616e2063616c6c2074686973000000000000000081525060200191505060405180910390fd5b6121e06124ba565b6001609360006101000a81548160ff02191690831515021790555060001515609154600015157f1c1ce68cd407797fe4c0aa5b5303690fd844cd21a365ebde52f1948080061f0b60405160405180910390a4565b6055816014811061224157fe5b016000915090505481565b601660009054906101000a900473ffffffffffffffffffffffffffffffffffffffff1681565b60925481565b600060956000848152602001908152602001600020600083815260200190815260200160002060000160009054906101000a900473ffffffffffffffffffffffffffffffffffffffff16905092915050565b601560009054906101000a900473ffffffffffffffffffffffffffffffffffffffff1681565b60915481565b60976020528060005260406000206000915090505481565b60011515609360009054906101000a900460ff16151514612397576040517f08c379a000000000000000000000000000000000000000000000000000000000815260040180806020018281038252601d8152602001807f7374657031206d75737420626520636f6d706c6574656420666972737400000081525060200191505060405180910390fd5b60008090505b60148110156124b75760006098600083815260200190815260200160002060003373ffffffffffffffffffffffffffffffffffffffff1673ffffffffffffffffffffffffffffffffffffffff16815260200190815260200160002054905060008111156124a95760006098600084815260200190815260200160002060003373ffffffffffffffffffffffffffffffffffffffff1673ffffffffffffffffffffffffffffffffffffffff16815260200190815260200160002081905550612464338261352c565b803373ffffffffffffffffffffffffffffffffffffffff167f775fbf774e6f5b87d1e95f74e17522f5a63e35d45a417defdc8bb97a9e0cfa2460405160405180910390a35b50808060010191505061239d565b50565b60001515609360009054906101000a900460ff161515146124da57600080fd5b60008090505b60148110156124ff576124f281610bd1565b80806001019150506124e0565b50565b8061250c81610bd1565b60001515609360009054906101000a900460ff1615151461252c57600080fd5b602c826014811061253957fe5b01548311612592576040517f08c379a000000000000000000000000000000000000000000000000000000000815260040180806020018281038252602b815260200180614218602b913960400191505060405180910390fd5b6000809054906101000a900473ffffffffffffffffffffffffffffffffffffffff1673ffffffffffffffffffffffffffffffffffffffff16636352211e836040518263ffffffff1660e01b81526004018082815260200191505060206040518083038186803b15801561260457600080fd5b505afa158015612618573d6000803e3d6000fd5b505050506040513d602081101561262e57600080fd5b810190808051906020019092919050505073ffffffffffffffffffffffffffffffffffffffff163373ffffffffffffffffffffffffffffffffffffffff16146126df576040517f08c379a00000000000000000000000000000000000000000000000000000000081526004018080602001828103825260098152602001807f4e6f74206f776e6572000000000000000000000000000000000000000000000081525060200191505060405180910390fd5b82602c83601481106126ed57fe5b018190555082609560008481526020019081526020016000206000607d856014811061271557fe5b0154815260200190815260200160002060010181905550602c826014811061273957fe5b01547f854d6511a28585103049c7770618450f7c9aeb580c69db2913d63869663f475160405160405180910390a2505050565b60001515609360009054906101000a900460ff161515146127f5576040517f08c379a00000000000000000000000000000000000000000000000000000000081526004018080602001828103825260208152602001807f53746570312063616e206f6e6c7920626520636f6d706c65746564206f6e636581525060200191505060405180910390fd5b62f0c3f0609254014211612854576040517f08c379a00000000000000000000000000000000000000000000000000000000081526004018080602001828103825260238152602001806142436023913960400191505060405180910390fd5b61285c6124ba565b6001609360006101000a81548160ff02191690831515021790555060001515609154600015157f1c1ce68cd407797fe4c0aa5b5303690fd844cd21a365ebde52f1948080061f0b60405160405180910390a4565b6000816128bc81610bd1565b60001515609360009054906101000a900460ff161515146128dc57600080fd5b60006098600085815260200190815260200160002060003373ffffffffffffffffffffffffffffffffffffffff1673ffffffffffffffffffffffffffffffffffffffff16815260200190815260200160002054111561296e5761293f848461387e565b82847f7b969d266e09b0b154e3b31ce505a5791060c44567295877c206f77726e95d3460405160405180910390a35b5092915050565b6040816014811061298257fe5b016000915090505481565b60545481565b607d81601481106129a057fe5b016000915090505481565b600060956000848152602001908152602001600020600083815260200190815260200160002060010154905092915050565b60001515609360009054906101000a900460ff16151514612a66576040517f08c379a00000000000000000000000000000000000000000000000000000000081526004018080602001828103825260208152602001807f53746570312063616e206f6e6c7920626520636f6d706c65746564206f6e636581525060200191505060405180910390fd5b612a6e613a6c565b15612ac057612a7b6124ba565b6001609360006101000a81548160ff021916908315150217905550612a9e613d10565b15612abf576001609360016101000a81548160ff0219169083151502179055505b5b565b6095602052816000526040600020602052806000526040600020600091509150508060000160009054906101000a900473ffffffffffffffffffffffffffffffffffffffff16908060010154905082565b601481565b600080612b3f62015180602c8560148110612b2f57fe5b0154612c4990919063ffffffff16565b90506000811415612b535742915050612b74565b612b6e81612b60856112c9565b612c4990919063ffffffff16565b42019150505b919050565b6000612bbb83836040518060400160405280601e81526020017f536166654d6174683a207375627472616374696f6e206f766572666c6f770000815250613f8c565b905092915050565b600080831415612bd65760009050612c43565b6000828402905082848281612be757fe5b0414612c3e576040517f08c379a000000000000000000000000000000000000000000000000000000000815260040180806020018281038252602181526020018061428d6021913960400191505060405180910390fd5b809150505b92915050565b6000612c8b83836040518060400160405280601a81526020017f536166654d6174683a206469766973696f6e206279207a65726f00000000000081525061404c565b905092915050565b600080828401905083811015612d11576040517f08c379a000000000000000000000000000000000000000000000000000000000815260040180806020018281038252601b8152602001807f536166654d6174683a206164646974696f6e206f766572666c6f77000000000081525060200191505060405180910390fd5b8091505092915050565b60008090505b600015158115151415612f8a576000607d8360148110612d3d57fe5b01541015612d4757fe5b612d696001607d8460148110612d5957fe5b0154612b7990919063ffffffff16565b607d8360148110612d7657fe5b01819055506000607d8360148110612d8a57fe5b01549050600060956000858152602001908152602001600020600083815260200190815260200160002060000160009054906101000a900473ffffffffffffffffffffffffffffffffffffffff1690506000821415612df557612dec84614112565b60019250612f83565b60006098600086815260200190815260200160002060008373ffffffffffffffffffffffffffffffffffffffff1673ffffffffffffffffffffffffffffffffffffffff168152602001908152602001600020541115612f825760008060009054906101000a900473ffffffffffffffffffffffffffffffffffffffff1673ffffffffffffffffffffffffffffffffffffffff16636352211e866040518263ffffffff1660e01b81526004018082815260200191505060206040518083038186803b158015612ec257600080fd5b505afa158015612ed6573d6000803e3d6000fd5b505050506040513d6020811015612eec57600080fd5b810190808051906020019092919050505090506000609560008781526020019081526020016000206000858152602001908152602001600020600101549050612f37828483896131db565b600194508273ffffffffffffffffffffffffffffffffffffffff16867fdcd7d049706cf89eb40b5726d483d3aa2001e43b729f0f411cdda43c2fe59f5260405160405180910390a350505b5b5050612d21565b5050565b6000612fa4606483612c4990919063ffffffff16565b9050601560009054906101000a900473ffffffffffffffffffffffffffffffffffffffff1673ffffffffffffffffffffffffffffffffffffffff1663abb60c8060018560148110612ff157fe5b0160009054906101000a900473ffffffffffffffffffffffffffffffffffffffff16836040518363ffffffff1660e01b8152600401808373ffffffffffffffffffffffffffffffffffffffff1673ffffffffffffffffffffffffffffffffffffffff16815260200182815260200192505050602060405180830381600087803b15801561307d57600080fd5b505af1158015613091573d6000803e3d6000fd5b505050506040513d60208110156130a757600080fd5b810190808051906020019092919050505050505050565b601660009054906101000a900473ffffffffffffffffffffffffffffffffffffffff1673ffffffffffffffffffffffffffffffffffffffff166323b872dd8330846040518463ffffffff1660e01b8152600401808473ffffffffffffffffffffffffffffffffffffffff1673ffffffffffffffffffffffffffffffffffffffff1681526020018373ffffffffffffffffffffffffffffffffffffffff1673ffffffffffffffffffffffffffffffffffffffff1681526020018281526020019350505050602060405180830381600087803b15801561319b57600080fd5b505af11580156131af573d6000803e3d6000fd5b505050506040513d60208110156131c557600080fd5b8101908080519060200190929190505050505050565b6000809054906101000a900473ffffffffffffffffffffffffffffffffffffffff1673ffffffffffffffffffffffffffffffffffffffff166323b872dd8585846040518463ffffffff1660e01b8152600401808473ffffffffffffffffffffffffffffffffffffffff1673ffffffffffffffffffffffffffffffffffffffff1681526020018373ffffffffffffffffffffffffffffffffffffffff1673ffffffffffffffffffffffffffffffffffffffff1681526020018281526020019350505050600060405180830381600087803b1580156132b757600080fd5b505af11580156132cb573d6000803e3d6000fd5b5050505081602c82601481106132dd57fe5b018190555050505050565b6000601660009054906101000a900473ffffffffffffffffffffffffffffffffffffffff1673ffffffffffffffffffffffffffffffffffffffff166370a08231306040518263ffffffff1660e01b8152600401808273ffffffffffffffffffffffffffffffffffffffff1673ffffffffffffffffffffffffffffffffffffffff16815260200191505060206040518083038186803b15801561338957600080fd5b505afa15801561339d573d6000803e3d6000fd5b505050506040513d60208110156133b357600080fd5b8101908080519060200190929190505050905090565b60008090505b60148110156135295760006133fc6064604084601481106133ec57fe5b0154612c4990919063ffffffff16565b9050601560009054906101000a900473ffffffffffffffffffffffffffffffffffffffff1673ffffffffffffffffffffffffffffffffffffffff1663ad16158e6001846014811061344957fe5b0160009054906101000a900473ffffffffffffffffffffffffffffffffffffffff16836040518363ffffffff1660e01b8152600401808373ffffffffffffffffffffffffffffffffffffffff1673ffffffffffffffffffffffffffffffffffffffff168152602001828152602001925050506040805180830381600087803b1580156134d457600080fd5b505af11580156134e8573d6000803e3d6000fd5b505050506040513d60408110156134fe57600080fd5b81019080805190602001909291908051906020019092919050505050505080806001019150506133cf565b50565b601660009054906101000a900473ffffffffffffffffffffffffffffffffffffffff1673ffffffffffffffffffffffffffffffffffffffff1663a9059cbb83836040518363ffffffff1660e01b8152600401808373ffffffffffffffffffffffffffffffffffffffff1673ffffffffffffffffffffffffffffffffffffffff16815260200182815260200192505050602060405180830381600087803b1580156135d557600080fd5b505af11580156135e9573d6000803e3d6000fd5b505050506040513d60208110156135ff57600080fd5b8101908080519060200190929190505050505050565b600060966000609154815260200190815260200160002060003373ffffffffffffffffffffffffffffffffffffffff1673ffffffffffffffffffffffffffffffffffffffff168152602001908152602001600020549050600081111561376357600060966000609154815260200190815260200160002060003373ffffffffffffffffffffffffffffffffffffffff1673ffffffffffffffffffffffffffffffffffffffff1681526020019081526020016000208190555060006136e482609454612bc390919063ffffffff16565b905060006137106097600060915481526020019081526020016000205483612c4990919063ffffffff16565b905061371c338261352c565b803373ffffffffffffffffffffffffffffffffffffffff167f0e72eb54add8566fa8248d61d8dc2b9953fbec55cfec138cdc887c8e34df495160405160405180910390a350505b50565b6000609960003373ffffffffffffffffffffffffffffffffffffffff1673ffffffffffffffffffffffffffffffffffffffff168152602001908152602001600020549050600081111561387b576000609960003373ffffffffffffffffffffffffffffffffffffffff1673ffffffffffffffffffffffffffffffffffffffff16815260200190815260200160002081905550600061380f82609454612bc390919063ffffffff16565b9050600061382860545483612c4990919063ffffffff16565b9050613834338261352c565b803373ffffffffffffffffffffffffffffffffffffffff167f40db9a7a1327f1f949933daff746d2d9be9f2ff608d832e39b6764f5f15a957360405160405180910390a350505b50565b816098600083815260200190815260200160002060003373ffffffffffffffffffffffffffffffffffffffff1673ffffffffffffffffffffffffffffffffffffffff168152602001908152602001600020541015613944576040517f08c379a00000000000000000000000000000000000000000000000000000000081526004018080602001828103825260148152602001807f5769746864726177696e6720746f6f206d75636800000000000000000000000081525060200191505060405180910390fd5b6139a7826098600084815260200190815260200160002060003373ffffffffffffffffffffffffffffffffffffffff1673ffffffffffffffffffffffffffffffffffffffff16815260200190815260200160002054612b7990919063ffffffff16565b6098600083815260200190815260200160002060003373ffffffffffffffffffffffffffffffffffffffff1673ffffffffffffffffffffffffffffffffffffffff16815260200190815260200160002081905550613a05338361352c565b60006098600083815260200190815260200160002060003373ffffffffffffffffffffffffffffffffffffffff1673ffffffffffffffffffffffffffffffffffffffff168152602001908152602001600020541415613a6857613a6781612d1b565b5b5050565b6000806000905060008090505b6014811015613cf357600060018260148110613a9157fe5b0160009054906101000a900473ffffffffffffffffffffffffffffffffffffffff1673ffffffffffffffffffffffffffffffffffffffff16633c26482060006040518263ffffffff1660e01b81526004018082815260200191505060206040518083038186803b158015613b0457600080fd5b505afa158015613b18573d6000803e3d6000fd5b505050506040513d6020811015613b2e57600080fd5b81019080805190602001909291905050501180613c055750600060018260148110613b5557fe5b0160009054906101000a900473ffffffffffffffffffffffffffffffffffffffff1673ffffffffffffffffffffffffffffffffffffffff16633c26482060016040518263ffffffff1660e01b81526004018082815260200191505060206040518083038186803b158015613bc857600080fd5b505afa158015613bdc573d6000803e3d6000fd5b505050506040513d6020811015613bf257600080fd5b8101908080519060200190929190505050115b80613cca5750600060018260148110613c1a57fe5b0160009054906101000a900473ffffffffffffffffffffffffffffffffffffffff1673ffffffffffffffffffffffffffffffffffffffff16633c26482060026040518263ffffffff1660e01b81526004018082815260200191505060206040518083038186803b158015613c8d57600080fd5b505afa158015613ca1573d6000803e3d6000fd5b505050506040513d6020811015613cb757600080fd5b8101908080519060200190929190505050115b15613ce657613ce3600183612c9390919063ffffffff16565b91505b8080600101915050613a79565b506014811415613d07576001915050613d0d565b60009150505b90565b60008060009050600080905060008090505b6014811015613ef357600060018260148110613d3a57fe5b0160009054906101000a900473ffffffffffffffffffffffffffffffffffffffff1673ffffffffffffffffffffffffffffffffffffffff16633c26482060006040518263ffffffff1660e01b81526004018082815260200191505060206040518083038186803b158015613dad57600080fd5b505afa158015613dc1573d6000803e3d6000fd5b505050506040513d6020811015613dd757600080fd5b81019080805190602001909291905050501115613e0557613e02600183612c9390919063ffffffff16565b91505b600060018260148110613e1457fe5b0160009054906101000a900473ffffffffffffffffffffffffffffffffffffffff1673ffffffffffffffffffffffffffffffffffffffff16633c26482060016040518263ffffffff1660e01b81526004018082815260200191505060206040518083038186803b158015613e8757600080fd5b505afa158015613e9b573d6000803e3d6000fd5b505050506040513d6020811015613eb157600080fd5b81019080805190602001909291905050501115613ee65780609181905550613ee3600184612c9390919063ffffffff16565b92505b8080600101915050613d22565b50600182148015613f045750600081145b15613f4b5760011515609154600115157f1c1ce68cd407797fe4c0aa5b5303690fd844cd21a365ebde52f1948080061f0b60405160405180910390a4600192505050613f89565b60001515609154600115157f1c1ce68cd407797fe4c0aa5b5303690fd844cd21a365ebde52f1948080061f0b60405160405180910390a46000925050505b90565b6000838311158290614039576040517f08c379a00000000000000000000000000000000000000000000000000000000081526004018080602001828103825283818151815260200191508051906020019080838360005b83811015613ffe578082015181840152602081019050613fe3565b50505050905090810190601f16801561402b5780820380516001836020036101000a031916815260200191505b509250505060405180910390fd5b5060008385039050809150509392505050565b600080831182906140f8576040517f08c379a00000000000000000000000000000000000000000000000000000000081526004018080602001828103825283818151815260200191508051906020019080838360005b838110156140bd5780820151818401526020810190506140a2565b50505050905090810190601f1680156140ea5780820380516001836020036101000a031916815260200191505b509250505060405180910390fd5b50600083858161410457fe5b049050809150509392505050565b60008060009054906101000a900473ffffffffffffffffffffffffffffffffffffffff1673ffffffffffffffffffffffffffffffffffffffff16636352211e836040518263ffffffff1660e01b81526004018082815260200191505060206040518083038186803b15801561418657600080fd5b505afa15801561419a573d6000803e3d6000fd5b505050506040513d60208110156141b057600080fd5b810190808051906020019092919050505090506141d081306000856131db565b8073ffffffffffffffffffffffffffffffffffffffff167f6d6bbefef62d4cb6d0e3a4dd306a71d3632319b1e03659513df86b247dd657fe60405160405180910390a2505056fe4e6577207072696365206d75737420626520686967686572207468616e2063757272656e742070726963654d75737420776169742036206d6f6e74687320666f72204175677572204f7261636c655072696365206d75737420626520686967686572207468616e2063757272656e74207072696365536166654d6174683a206d756c7469706c69636174696f6e206f766572666c6f77a265627a7a7231582075083a3e9c46d0d2bec2c04e7dec3bc24edd5b098e72984d7be146c0b71472e564736f6c634300050d0032",
  "source": "pragma solidity 0.5.13;\nimport \"./interfaces/IERC721Full.sol\";\nimport \"./utils/SafeMath.sol\";\n\n/// @title Augur Markets interface\n/// @notice Gets the winner of each market from Augur\ninterface IMarket \n{\n    function getWinningPayoutNumerator(uint256 _outcome) external view returns (uint256);\n}\n\n/// @title Augur ShareToken interface\n/// @notice used for buying and selling complete sets\ninterface ShareToken \n{\n    function publicBuyCompleteSets(IMarket _market, uint256 _amount) external returns (bool)  ;\n    function publicSellCompleteSets(IMarket _market, uint256 _amount) external returns (uint256 _creatorFee, uint256 _reportingFee) ;\n}\n\n/// @title Dai contract interface\n/// @notice Various cash functions\ninterface Cash \n{\n    function approve(address _spender, uint256 _amount) external returns (bool);\n    function balanceOf(address _ownesr) external view returns (uint256);\n    function faucet(uint256 _amount) external;\n    function transfer(address _to, uint256 _amount) external returns (bool);\n    function transferFrom(address _from, address _to, uint256 _amount) external returns (bool);\n}\n\n//TODO: replace completesets with OICash\n//TODO: change front end to only approve the same amount that is being sent\n//TODO: look into calculating the number of loops and DoS attacks\n//TODO: finish testing given the new market resolution, and update design_patterns to take it\n//TODO: I dont think dai deposited via the deposit dai function is returned in return\n// all deposits?\n// ^ will also need to figure out how to pass this number in the correct format because decimal\n// ^ does not seem to work for more than 100 dai, it needs big number\n\n/// @title Harber\n/// @author Andrew Stanger\n/// @dev ensure usingAugur is set to false upon local testing and true on kovan or mainnet\ncontract Harber {\n\n    using SafeMath for uint256;\n\n    /// NUMBER OF TOKENS\n    /// @dev also equals number of markets on augur\n    uint256 constant public numberOfTokens = 20;\n\n    /// CONTRACT VARIABLES\n    /// ERC721:\n    IERC721Full public team;\n    /// Augur contracts:\n    IMarket[numberOfTokens] public market;\n    ShareToken public completeSets;\n    Cash public cash; \n\n    /// UINTS, ADDRESSES, BOOLS\n    /// @dev my whiskey fund, for my 1% cut\n    address private andrewsAddress; \n    /// @dev the addresses of the various Augur binary markets. One market for each token. Initiated in the constructor and does not change.\n    address[numberOfTokens] public marketAddresses; \n    /// @dev in attodai (so $100 = 100000000000000000000)\n    uint256[numberOfTokens] public price; \n    /// @dev amount collected for each token, ie the sum of all owners' rent per token. Used to know how many complete\n    /// @dev ...sets to sell for each market (since there is one market per token)\n    uint256[numberOfTokens] public collectedPerMarket; \n    /// @dev an easy way to track the above across all tokens. It should always increment at the same time as the above increments. \n    uint256 public totalCollected; \n    /// @dev used to determine the rent due. Rent is due for the period (now - timeLastCollected), at which point timeLastCollected is set to now.\n    uint256[numberOfTokens] public timeLastCollected; \n    /// @dev when a token was bought. used only for front end 'owned since' section. Rent collection only needs timeLastCollected.\n    uint256[numberOfTokens] public timeAcquired; \n    /// @dev tracks the position of the current owner in the ownerTracker mapping\n    uint256[numberOfTokens] public currentOwnerIndex; \n  \n    /// WINNING OUTCOME VARIABLES\n    /// @dev start with invalid winning outcome\n    uint256 public winningOutcome = 42069; \n    //// @dev so the function to manually set the winner can only be called long after \n    /// @dev ...it should have resolved via Augur. Must be public so others can verify it is accurate. \n    uint256 public marketExpectedResolutionTime; \n\n    /// MARKET RESOLUTION VARIABLES\n    /// @dev step1:\n    bool public marketsResolved = false; // must be false for step1, true for step2\n    bool public marketsResolvedWithoutErrors = false; // set in step 1. If true, normal payout. If false, return all funds\n    /// @dev step 2:\n    bool public step2Complete = false; // must be false for step2, true for complete\n    /// @dev complete:\n    uint256 public daiAvailableToDistribute;\n    \n    ///  STRUCTS\n    struct purchase {\n        address owner;\n        uint256 price;\n    }\n    \n    /// MAPPINGS\n    /// @dev keeps track of all previous owners of a token, including the price, so that if the current owner's deposit runs out,\n    /// @dev ...ownership can be reverted to a previous owner with the previous price. Index 0 is NOT used, this tells the contract to foreclose.\n    /// @dev this does NOT keep a reliable list of all owners, if it reverts to a previous owner then the next owner will overwrite the owner that was in that slot.\n    /// @dev the variable currentOwnerIndex is used to track the location of the current owner. \n    mapping (uint256 => mapping (uint256 => purchase) ) public ownerTracker;  \n    /// @dev used to keep hold of all the owners, for payout, similar to ownerTracker except that the pointer to the current position never decrements   \n    mapping (uint256 => mapping (address => uint256) ) public timeHeld;\n    /// @dev sums all the timeHelds for each token. Not required, but saves on gas when paying out. Should always increment at the same time as timeHeld\n    mapping (uint256 => uint256) public totalTimeHeld; \n    /// @dev keeps track of all the deposits for each token, for each owner. Unused deposits are not returned automatically when there is a new buyer. \n    /// @dev they can be withdrawn manually however. Unused deposits are returned automatically upon resolution of the market\n    mapping (uint256 => mapping (address => uint256) ) public deposits; \n    /// @dev keeps track of all the rent paid by each user. So that it can be returned in case of an invalid market outcome. Only required in this instance. \n    mapping (address => uint256) public collectedPerUser;\n\n    ////////////// CONSTRUCTOR //////////////\n    constructor(address _andrewsAddress, address _addressOfToken, address _addressOfCashContract, address[numberOfTokens] memory _addressesOfMarkets, address _addressOfCompleteSetsContract, address _addressOfMainAugurContract, uint _marketExpectedResolutionTime) public \n    {\n        marketExpectedResolutionTime = _marketExpectedResolutionTime;\n        andrewsAddress = _andrewsAddress;\n        marketAddresses = _addressesOfMarkets; // this is to make the market addresses public so users can check the actual augur markets for themselves\n        \n        // external contract variables:\n        team = IERC721Full(_addressOfToken);\n        cash = Cash(_addressOfCashContract);\n        completeSets = ShareToken(_addressOfCompleteSetsContract);\n\n        // initialise arrays\n        for (uint i = 0; i < numberOfTokens; i++) {\n            currentOwnerIndex[i]=0;\n            market[i] = IMarket(_addressesOfMarkets[i]);\n        }\n     \n        // approve Augur contract to transfer this contract's dai\n        cash.approve(_addressOfMainAugurContract,(2**256)-1);\n    } \n\n    event LogNewRental(address indexed newOwner, uint256 indexed newPrice);\n    event LogPriceChange(uint256 indexed newPrice);\n    event LogForeclosure(address indexed prevOwner);\n    event LogRentCollection(uint256 indexed rentCollected);\n    event LogFundsReturned(uint256 indexed daiAvailableToDistribute);\n    event LogReturnToPreviousOwner(uint256 indexed tokenId, address indexed previousOwner);\n    event LogDepositWithdrawal(uint256 indexed daiWithdrawn, uint256 indexed tokenId);\n    event LogExit(uint256 indexed tokenId);\n    event LogStep1Complete(bool indexed didAugurMarketsResolve, uint256 indexed winningOutcome, bool indexed didAugurMarketsResolveCorrectly);\n    event LogStep2Complete(uint256 indexed daiAvailableToDistribute);\n    event LogWinningsPaid(address indexed paidTo, uint256 indexed amountPaid);\n    event LogRentReturned(address indexed returnedTo, uint256 indexed amountReturned);\n    event LogDepositWithdrawalAfterResolution(address indexed returnedTo, uint256 indexed amountReturned);\n\n    ////////////// MODIFIERS //////////////\n    /// @notice prevents functions from being interacted with after the end of the competition \n    /// @dev should be on all public 'ordinary course of business' functions\n    modifier notResolved() {\n        require(marketsResolved == false);\n        _;\n    }\n\n    /// @notice collect Rent\n    /// @dev should be on all public 'ordinary course of business' functions except the collect rent ones obviously.\n    modifier collectRent(uint256 _tokenId) {\n       _collectRent(_tokenId); \n       _;\n    }\n\n    ////////////// VIEW FUNCTIONS //////////////\n    /// @dev used in testing only\n    function getOwnerTrackerPrice(uint256 _tokenId, uint256 _index) public view returns (uint256) {\n        return (ownerTracker[_tokenId][_index].price);\n    }\n\n    /// @dev used in testing only\n    function getOwnerTrackerAddress(uint256 _tokenId, uint256 _index) public view returns (address) {\n        return (ownerTracker[_tokenId][_index].owner);\n    }\n\n    /// @dev called in collectRent function, and various other view functions \n    function rentOwed(uint256 _tokenId) public view returns (uint256 augurFundsDue) {\n        return price[_tokenId].mul(now.sub(timeLastCollected[_tokenId])).div(1 days);\n    }\n\n    /// @dev for front end only\n    /// @return how much the current owner has deposited\n    function liveDepositAbleToWithdraw(uint256 _tokenId) public view returns (uint256) {\n        uint256 _rentOwed = rentOwed(_tokenId);\n        address _currentOwner = team.ownerOf(_tokenId);\n        if(_rentOwed >= deposits[_tokenId][_currentOwner]) {\n            return 0;\n        } else {\n            return deposits[_tokenId][_currentOwner].sub(_rentOwed);\n        }\n    }\n\n    /// @dev for front end only\n    /// @return how much the current user has deposited (note: user not owner)\n    function userDepositAbleToWithdraw(uint256 _tokenId) public view returns (uint256) {\n        uint256 _rentOwed = rentOwed(_tokenId);\n        address _currentOwner = team.ownerOf(_tokenId);\n\n        if(_currentOwner == msg.sender) {\n            if(_rentOwed >= deposits[_tokenId][msg.sender]) {\n                return 0;\n            } else {\n                return deposits[_tokenId][msg.sender].sub(_rentOwed);\n            }\n        } else {\n            return deposits[_tokenId][msg.sender];\n        }\n    }\n\n    /// @dev for front end only\n    /// @return estimated rental expiry time\n    function rentalExpiryTime(uint256 _tokenId) public view returns (uint256) {\n        uint256 pps;\n        pps = price[_tokenId].div(1 days);\n        if (pps == 0) {\n            return now; //if price is so low that pps = 0 just return current time as a fallback\n        }\n        else {\n            return now + liveDepositAbleToWithdraw(_tokenId).div(pps);\n        }\n    }\n\n    ////////////// AUGUR FUNCTIONS //////////////\n    // * internal * \n    /// @notice buy complete sets from Augur\n    function _buyCompleteSets(uint256 _tokenId, uint256 _rentOwed) internal {\n        uint256 _setsToBuy =_rentOwed.div(100);\n        completeSets.publicBuyCompleteSets(market[_tokenId], _setsToBuy);\n    }\n\n    // * internal *\n    /// @notice sell complete sets from Augur\n    function _sellCompleteSets() internal {\n            for (uint i = 0; i < numberOfTokens; i++) {\n                uint256 _setsToSell =collectedPerMarket[i].div(100);\n                completeSets.publicSellCompleteSets(market[i], _setsToSell);\n            } \n    }\n\n    // * internal * \n    /// @notice THIS FUNCTION HAS NOT BEEN TESTED ON AUGUR YET\n    /// @notice checks if all X (x = number of tokens = number of teams) markets have resolved to either yes, no, or invalid\n    /// @return true if yes, false if no\n    function _haveAllAugurMarketsResolved() internal returns(bool) {   \n        uint256 _resolvedOutcomesCount = 0;\n\n        for (uint i = 0; i < numberOfTokens; i++) {\n            // binary market has three outcomes: 0 (invalid), 1 (yes), 2 (no)\n            if (market[i].getWinningPayoutNumerator(0) > 0 || market[i].getWinningPayoutNumerator(1) > 0 || market[i].getWinningPayoutNumerator(2) > 0  ) {\n                _resolvedOutcomesCount = _resolvedOutcomesCount.add(1);\n            }\n        }\n\n        if (_resolvedOutcomesCount == numberOfTokens) {\n            return true;\n        } else {\n            return false;\n        }\n    }\n\n    // * internal * \n    /// @notice THIS FUNCTION HAS NOT BEEN TESTED ON AUGUR YET\n    /// @notice checks if all markets have resolved without conflicts or errors\n    /// @return true if yes, false if no\n    /// @dev this function will also set the winningOutcome variable\n    function _haveAllAugurMarketsResolvedWithoutErrors() internal returns(bool) {   \n        uint256 _winningOutcomesCount = 0;\n        uint256 _invalidOutcomesCount = 0;\n\n        for (uint i = 0; i < numberOfTokens; i++) {\n            if (market[i].getWinningPayoutNumerator(0) > 0) {\n                _invalidOutcomesCount = _invalidOutcomesCount.add(1);\n            }\n            if (market[i].getWinningPayoutNumerator(1) > 0) {\n                winningOutcome = i; // <- the winning outcome (a global variable) is set here\n                _winningOutcomesCount = _winningOutcomesCount.add(1);\n            }\n        }\n\n        if (_winningOutcomesCount == 1 && _invalidOutcomesCount == 0) {\n            emit LogStep1Complete(true, winningOutcome, true);\n            return true;\n        } else {\n            emit LogStep1Complete(true, winningOutcome, false);\n            return false;\n        }\n    }\n\n    ////////////// DAI CONTRACT FUNCTIONS ////////////// \n\n    // * internal * \n    /// @notice common function for all outgoing DAI transfers\n    function _sendCash(address _to, uint256 _amount) internal { \n        cash.transfer(_to,_amount); \n    }\n\n    // * internal * \n    /// @notice common function for all incoming DAI transfers\n    function _receiveCash(address _from, uint256 _amount) internal {  \n        cash.transferFrom(_from, address(this), _amount);\n    }\n\n    // * internal * \n    /// @return DAI balance of the contract\n    /// @dev this is used to know how much exists to payout to winners\n    function _getContractsCashBalance() internal view returns (uint256) {\n        return cash.balanceOf(address(this));\n    }\n\n    ////////////// MARKET RESOLUTION FUNCTIONS ////////////// \n\n    /// @notice the first of two functions which must be called, one after the other, to conclude the competition\n    /// @notice winnings can be paid out (or funds returned) only when these two steps are completed\n    /// @notice this function checks whether the Augur markets have resolved, and if yes, whether they resolved correct or not\n    /// @dev they are split into two sections due to the presence of step1BemergencyExit and step1CcircuitBreaker\n    /// @dev can be called by anyone \n    /// @dev can be called multiple times, but only once after markets have indeed resolved\n    /// @dev the two arguments passed are for testing only\n    function step1checkMarketsResolved() public {\n        require(marketsResolved == false, \"Step1 can only be completed once\");\n        // first check if all X markets have all resolved one way or the other\n        if (_haveAllAugurMarketsResolved()) {\n            // do a final rent collection before the contract is locked down\n            collectRentAllTokens();\n            // lock everything down\n            marketsResolved = true;\n             // now check if they all resolved without errors. It is set to false upon contract initialisation \n             // this function also sets winningOutcome if there is one\n            if (_haveAllAugurMarketsResolvedWithoutErrors()) {\n                marketsResolvedWithoutErrors = true;\n            }\n        }\n    }\n\n    /// @notice emergency function in case the augur markets never resolve for whatever reason\n    /// @notice returns all funds to all users\n    /// @notice can only be called 6 months after augur markets should have ended \n    function step1BemergencyExit() public  {\n        require(marketsResolved == false, \"Step1 can only be completed once\");\n        require(now > (marketExpectedResolutionTime + 15778800), \"Must wait 6 months for Augur Oracle\");\n        collectRentAllTokens();\n        marketsResolved = true;\n        emit LogStep1Complete(false, winningOutcome, false);\n    }\n\n    /// @notice Same as above, except that only I can call it, and I can call it whenever\n    /// @notice to be clear, this only allows me to return all funds. I can not set a winner. \n    function step1CcircuitBreaker() public {\n        require(marketsResolved == false, \"Step1 can only be completed once\");\n        require(msg.sender == andrewsAddress, \"Only owner can call this\");\n        collectRentAllTokens();\n        marketsResolved = true;\n        emit LogStep1Complete(false, winningOutcome, false);\n    }\n\n    /// @notice the second of the two functions which must be called, one after the other, to conclude the competition\n    /// @dev gets funds back from Augur, gets the available funds for distribution and pays me my 1%\n    /// @dev can be called by anyone, but only once \n    function step2sellCompleteSetsAndPayAndrew() public {\n        require(marketsResolved == true, \"Must wait for market resolution\");\n        require(step2Complete == false, \"Step2 should only be run once\");\n\n        uint256 _balanceBefore = _getContractsCashBalance();\n        _sellCompleteSets();\n        uint256 _balanceAfter = _getContractsCashBalance();\n        // daiAvailableToDistribute therefore does not include unused deposits\n        daiAvailableToDistribute = _balanceAfter.sub(_balanceBefore);\n\n        // only pay me if markets resolved correctly. If not I don't deserve shit\n        if (marketsResolvedWithoutErrors) {\n            uint256 _andrewsWellEarntMonies = daiAvailableToDistribute.div(100);\n            _sendCash(andrewsAddress,_andrewsWellEarntMonies);\n            daiAvailableToDistribute = daiAvailableToDistribute.sub(_andrewsWellEarntMonies);\n        }\n\n        step2Complete = true;\n        emit LogStep2Complete(daiAvailableToDistribute);\n    }\n\n    /// @notice the final function of the competition resolution process. Pays out winnings, or returns funds, as necessary\n    /// @dev users pull dai into their account. Replaces previous push vesion which required looping over unbounded mapping.\n    function complete() public {\n        require(step2Complete == true, \"Step2 must be completed first\");\n\n        if (marketsResolvedWithoutErrors) {\n                _payoutWinnings();\n            }\n            else {\n                _returnRent();\n            }\n    }\n\n     // * internal * \n    /// @notice pays winnings to the winners\n    /// @dev must be internal and only called by complete\n    function _payoutWinnings() internal {\n        uint256 _winnersTimeHeld = timeHeld[winningOutcome][msg.sender];\n\n        if (_winnersTimeHeld > 0) {\n            timeHeld[winningOutcome][msg.sender] = 0; // otherwise they can keep paying themselves over and over\n            uint256 _numerator = daiAvailableToDistribute.mul(_winnersTimeHeld);\n            uint256 _winningsToTransfer = _numerator.div(totalTimeHeld[winningOutcome]);\n            _sendCash(msg.sender, _winningsToTransfer);\n            emit LogWinningsPaid(msg.sender, _winningsToTransfer);\n        }\n    }\n\n    // * internal * \n    /// @notice returns all funds to users in case of invalid outcome\n    /// @dev must be internal and only called by complete\n    function _returnRent() internal {\n        uint256 _rentCollected = collectedPerUser[msg.sender];\n\n        if (_rentCollected > 0) {\n            collectedPerUser[msg.sender] = 0; // otherwise they can keep paying themselves over and over\n            uint256 _numerator = daiAvailableToDistribute.mul(_rentCollected);\n            uint256 _rentToToReturn = _numerator.div(totalCollected);\n            _sendCash(msg.sender, _rentToToReturn);\n            emit LogRentReturned(msg.sender, _rentToToReturn);\n        }\n    }\n\n    /// @notice withdraw full deposit after markets have resolved\n    /// @dev the other withdraw deposit functions are locked when markets have resolved so must use this one\n    /// @dev ... which can only be called if markets have resolved. This function is also different in that it does \n    /// @dev ... not attempt to collect rent or transfer ownership to a previous owner\n    function withdrawDepositAfterResolution() public {\n        require(marketsResolved == true, \"step1 must be completed first\");\n         \n        for (uint i = 0; i < numberOfTokens; i++) {\n\n            uint256 _depositToReturn = deposits[i][msg.sender];\n\n            if (_depositToReturn > 0) {\n                deposits[i][msg.sender] = 0;\n                _sendCash(msg.sender, _depositToReturn);\n                emit LogDepositWithdrawalAfterResolution(msg.sender, _depositToReturn);\n            }\n        }\n    }\n\n    ////////////// ORDINARY COURSE OF BUSINESS FUNCTIONS //////////////\n\n    /// @notice collects rent for all tokens\n    /// @dev makes it easy for me to call whenever I want to keep people paying their rent\n    function collectRentAllTokens() public notResolved() {\n       for (uint i = 0; i < numberOfTokens; i++) {\n            _collectRent(i);\n        }\n    }\n\n    /// @notice collects rent for a specific token\n    /// @dev also calculates and updates how long the current user has held the token for\n    function _collectRent(uint256 _tokenId) public notResolved() {\n        require(_tokenId < numberOfTokens, \"This team does not exist\");\n        //only collect rent if the token is owned (ie, if owned by the contract this implies unowned)\n        if (team.ownerOf(_tokenId) != address(this)) {\n            \n            uint256 _rentOwed = rentOwed(_tokenId);\n            address _currentOwner = team.ownerOf(_tokenId);\n            uint256 _timeOfThisCollection;\n            \n            if (_rentOwed >= deposits[_tokenId][_currentOwner]) {\n                // run out of deposit. Calculate time it was actually paid for, then revert to previous owner \n                _timeOfThisCollection = timeLastCollected[_tokenId].add(((now.sub(timeLastCollected[_tokenId])).mul(deposits[_tokenId][_currentOwner]).div(_rentOwed)));\n                _rentOwed = deposits[_tokenId][_currentOwner]; // take what's left     \n                _revertToPreviousOwner(_tokenId);\n                \n            } else  {\n                //normal collection\n                _timeOfThisCollection = now;\n            }\n\n            //decrease deposit by rent owed and buy complete sets\n            deposits[_tokenId][_currentOwner] = deposits[_tokenId][_currentOwner].sub(_rentOwed);\n            _buyCompleteSets(_tokenId,_rentOwed);\n\n            //the 'important bit', where the duration the token has been held by each user is updated\n            //it is essential that timeHeld and totalTimeHeld are incremented together such that the sum of\n            //the first is equal to the second\n            uint256 _timeHeldToIncrement = (_timeOfThisCollection.sub(timeLastCollected[_tokenId])); //just for readability\n            timeHeld[_tokenId][_currentOwner] = timeHeld[_tokenId][_currentOwner].add(_timeHeldToIncrement);\n            totalTimeHeld[_tokenId] = totalTimeHeld[_tokenId].add(_timeHeldToIncrement);\n\n            //it is also essential that collectedPerMarket, collectedPerUser and totalCollected are all incremented together\n            //such that the sum of the first two (individually) is equal to the third\n            collectedPerMarket[_tokenId] = collectedPerMarket[_tokenId].add(_rentOwed);\n            collectedPerUser[_currentOwner] = collectedPerUser[_currentOwner].add(_rentOwed);\n            totalCollected = totalCollected.add(_rentOwed);\n            emit LogRentCollection(_rentOwed);\n        }\n         \n        timeLastCollected[_tokenId] = now;\n    }\n    \n    /// @notice to rent a token\n    function newRental(uint256 _newPrice, uint256 _tokenId, uint256 _deposit) public collectRent(_tokenId) notResolved() {\n        require(_newPrice > price[_tokenId], \"Price must be higher than current price\");\n        require(_deposit > 0, \"Must deposit something\");\n\n        // get the Dai from the user and add to their deposits balance\n        _receiveCash(msg.sender, _deposit);\n        deposits[_tokenId][msg.sender] = deposits[_tokenId][msg.sender].add(_deposit);\n     \n        address _currentOwner = team.ownerOf(_tokenId);\n\n        if (_currentOwner == msg.sender) {\n            // bought by current owner (ie, it just increases the price, token ownership does not change)\n            changePrice(_newPrice, _tokenId);\n        } else {   \n            // bought by different user (the normal situation)\n            // update currentOwnerIndex and ownerTracker\n            currentOwnerIndex[_tokenId] = currentOwnerIndex[_tokenId].add(1); \n            ownerTracker[_tokenId][currentOwnerIndex[_tokenId]].price = _newPrice;\n            ownerTracker[_tokenId][currentOwnerIndex[_tokenId]].owner = msg.sender; \n\n            // update timeAcquired for the front end\n            timeAcquired[_tokenId] = now;\n\n            // transfer token to new owner\n            _transferTokenTo(_currentOwner, msg.sender, _newPrice, _tokenId);\n            emit LogNewRental(msg.sender, _newPrice); \n        }\n    }\n\n    /// @notice add new dai deposit to an existing rental\n    function depositDai(uint256 _dai, uint256 _tokenId) public collectRent(_tokenId) notResolved() {\n        _receiveCash(msg.sender, _dai);\n        deposits[_tokenId][msg.sender] = deposits[_tokenId][msg.sender].add(_dai);\n    }\n\n    /// @notice increase the price of an existing rental\n    function changePrice(uint256 _newPrice, uint256 _tokenId) public collectRent(_tokenId) notResolved() {\n        require(_newPrice > price[_tokenId], \"New price must be higher than current price\"); \n        require(msg.sender == team.ownerOf(_tokenId), \"Not owner\");\n        \n        // below is the only instance when price is modifed outside of the _transferTokenTo function\n        price[_tokenId] = _newPrice;\n        ownerTracker[_tokenId][currentOwnerIndex[_tokenId]].price = _newPrice;\n        emit LogPriceChange(price[_tokenId]);\n    }\n    \n    /// @notice withdraw deposit\n    /// @dev do not need to be the current owner\n    function withdrawDeposit(uint256 _dai, uint256 _tokenId) public collectRent(_tokenId) notResolved() returns (uint256) {\n        // if statement needed because deposit may have just reduced to zero following _collectRent modifier\n        if (deposits[_tokenId][msg.sender] > 0) {\n            _withdrawDeposit(_dai, _tokenId);\n            emit LogDepositWithdrawal(_dai, _tokenId);\n        }\n    }\n\n    /// @notice withdraw full deposit\n    /// @dev do not need to be the current owner\n    function exit(uint256 _tokenId) public collectRent(_tokenId) notResolved() {\n        // if statement needed because deposit may have just reduced to zero following _collectRent modifier\n        if (deposits[_tokenId][msg.sender] > 0) {\n            _withdrawDeposit(deposits[_tokenId][msg.sender],  _tokenId);\n            emit LogExit(_tokenId);\n        }\n    }\n\n    /* internal */\n    /// @notice actually withdraw the deposit\n    function _withdrawDeposit(uint256 _dai, uint256 _tokenId) internal {\n        require(deposits[_tokenId][msg.sender] >= _dai, 'Withdrawing too much');\n        deposits[_tokenId][msg.sender] = deposits[_tokenId][msg.sender].sub(_dai);\n        _sendCash(msg.sender, _dai);\n         \n        if(deposits[_tokenId][msg.sender] == 0) {\n            _revertToPreviousOwner(_tokenId);\n        }\n    }\n\n    /* internal */\n    /// @notice if a users deposit runs out, either return to previous owner or foreclose\n    function _revertToPreviousOwner(uint256 _tokenId) internal {\n        bool _reverted = false;\n        \n        while (_reverted == false) {\n            assert(currentOwnerIndex[_tokenId] >=0);\n            currentOwnerIndex[_tokenId] = currentOwnerIndex[_tokenId].sub(1); // currentOwnerIndex will now point to  previous owner\n            uint256 _index = currentOwnerIndex[_tokenId]; // just for readability\n            address _previousOwner = ownerTracker[_tokenId][_index].owner;\n\n            //no previous owners. price -> zero, foreclose\n            if (_index == 0) {\n                _foreclose(_tokenId);\n                _reverted = true;\n            } else if (deposits[_tokenId][_previousOwner] > 0) {\n                // previous owner still has a deposit, transfer to them, update the price to what it used to be\n                address _currentOwner = team.ownerOf(_tokenId);\n                uint256 _oldPrice = ownerTracker[_tokenId][_index].price;\n                _transferTokenTo(_currentOwner, _previousOwner, _oldPrice, _tokenId);\n                _reverted = true;\n                emit LogReturnToPreviousOwner(_tokenId,_previousOwner);\n            }\n        }   \n    }\n\n    /* internal */\n    /// @notice return token to the contract and return price to zero\n    function _foreclose(uint256 _tokenId) internal {\n        address _currentOwner = team.ownerOf(_tokenId);\n        // third field is price, ie price goes to zero\n        _transferTokenTo(_currentOwner, address(this), 0, _tokenId);\n        emit LogForeclosure(_currentOwner);\n    }\n\n    /* internal */\n    /// @notice transfer ERC 721 between users\n    /// @dev there is no event emitted as this is handled in ERC721.sol\n    function _transferTokenTo(address _currentOwner, address _newOwner, uint256 _newPrice, uint256 _tokenId) internal {\n        team.transferFrom(_currentOwner, _newOwner, _tokenId);\n        price[_tokenId] = _newPrice;\n    }\n}\n\n",
  "sourcePath": "/Users/mcplums/Repos/Harber/contracts/Harber.sol",
  "compiler": {
    "name": "solc",
    "version": "0.5.13+commit.5b0b510c.Emscripten.clang"
  },
  "schemaVersion": "3.0.19",
  "updatedAt": "2020-02-07T07:02:02.272Z",
  "networkType": "ethereum",
  "devdoc": {
    "author": "Andrew Stanger",
    "details": "ensure usingAugur is set to false upon local testing and true on kovan or mainnet",
    "methods": {
      "_collectRent(uint256)": {
        "details": "also calculates and updates how long the current user has held the token for"
      },
      "collectRentAllTokens()": {
        "details": "makes it easy for me to call whenever I want to keep people paying their rent"
      },
      "complete()": {
        "details": "users pull dai into their account. Replaces previous push vesion which required looping over unbounded mapping."
      },
      "exit(uint256)": {
        "details": "do not need to be the current owner"
      },
      "getOwnerTrackerAddress(uint256,uint256)": {
        "details": "used in testing only"
      },
      "getOwnerTrackerPrice(uint256,uint256)": {
        "details": "used in testing only"
      },
      "liveDepositAbleToWithdraw(uint256)": {
        "details": "for front end only",
        "return": "how much the current owner has deposited"
      },
      "rentOwed(uint256)": {
        "details": "called in collectRent function, and various other view functions "
      },
      "rentalExpiryTime(uint256)": {
        "details": "for front end only",
        "return": "estimated rental expiry time"
      },
      "step1checkMarketsResolved()": {
        "details": "they are split into two sections due to the presence of step1BemergencyExit and step1CcircuitBreakercan be called by anyone can be called multiple times, but only once after markets have indeed resolvedthe two arguments passed are for testing only"
      },
      "step2sellCompleteSetsAndPayAndrew()": {
        "details": "gets funds back from Augur, gets the available funds for distribution and pays me my 1%can be called by anyone, but only once "
      },
      "userDepositAbleToWithdraw(uint256)": {
        "details": "for front end only",
        "return": "how much the current user has deposited (note: user not owner)"
      },
      "withdrawDeposit(uint256,uint256)": {
        "details": "do not need to be the current owner"
      },
      "withdrawDepositAfterResolution()": {
        "details": "the other withdraw deposit functions are locked when markets have resolved so must use this one... which can only be called if markets have resolved. This function is also different in that it does ... not attempt to collect rent or transfer ownership to a previous owner"
      }
    },
    "title": "Harber"
  },
  "userdoc": {
    "methods": {
      "_collectRent(uint256)": {
        "notice": "collects rent for a specific token"
      },
      "changePrice(uint256,uint256)": {
        "notice": "increase the price of an existing rental"
      },
      "collectRentAllTokens()": {
        "notice": "/////////// ORDINARY COURSE OF BUSINESS FUNCTIONS //////////////collects rent for all tokens"
      },
      "complete()": {
        "notice": "the final function of the competition resolution process. Pays out winnings, or returns funds, as necessary"
      },
      "constructor": "/////////// CONSTRUCTOR //////////////",
      "depositDai(uint256,uint256)": {
        "notice": "add new dai deposit to an existing rental"
      },
      "exit(uint256)": {
        "notice": "withdraw full deposit"
      },
      "getOwnerTrackerPrice(uint256,uint256)": {
        "notice": "/////////// VIEW FUNCTIONS //////////////"
      },
      "newRental(uint256,uint256,uint256)": {
        "notice": "to rent a token"
      },
      "step1BemergencyExit()": {
        "notice": "emergency function in case the augur markets never resolve for whatever reasonreturns all funds to all userscan only be called 6 months after augur markets should have ended "
      },
      "step1CcircuitBreaker()": {
        "notice": "Same as above, except that only I can call it, and I can call it wheneverto be clear, this only allows me to return all funds. I can not set a winner. "
      },
      "step1checkMarketsResolved()": {
        "notice": "/////////// MARKET RESOLUTION FUNCTIONS ////////////// the first of two functions which must be called, one after the other, to conclude the competitionwinnings can be paid out (or funds returned) only when these two steps are completedthis function checks whether the Augur markets have resolved, and if yes, whether they resolved correct or not"
      },
      "step2sellCompleteSetsAndPayAndrew()": {
        "notice": "the second of the two functions which must be called, one after the other, to conclude the competition"
      },
      "withdrawDeposit(uint256,uint256)": {
        "notice": "withdraw deposit"
      },
      "withdrawDepositAfterResolution()": {
        "notice": "withdraw full deposit after markets have resolved"
      }
    }
  }
}