{
  "contractName": "Harber",
  "abi": [
    {
      "constant": true,
      "inputs": [
        {
          "name": "",
          "type": "uint256"
        }
      ],
      "name": "currentCollected",
      "outputs": [
        {
          "name": "",
          "type": "uint256"
        }
      ],
      "payable": false,
      "stateMutability": "view",
      "type": "function"
    },
    {
      "constant": true,
      "inputs": [
        {
          "name": "",
          "type": "uint256"
        },
        {
          "name": "",
          "type": "address"
        }
      ],
      "name": "timeHeld",
      "outputs": [
        {
          "name": "",
          "type": "uint256"
        }
      ],
      "payable": false,
      "stateMutability": "view",
      "type": "function"
    },
    {
      "constant": true,
      "inputs": [
        {
          "name": "",
          "type": "uint256"
        }
      ],
      "name": "price",
      "outputs": [
        {
          "name": "",
          "type": "uint256"
        }
      ],
      "payable": false,
      "stateMutability": "view",
      "type": "function"
    },
    {
      "constant": true,
      "inputs": [
        {
          "name": "",
          "type": "uint256"
        }
      ],
      "name": "state",
      "outputs": [
        {
          "name": "",
          "type": "uint8"
        }
      ],
      "payable": false,
      "stateMutability": "view",
      "type": "function"
    },
    {
      "constant": true,
      "inputs": [
        {
          "name": "",
          "type": "uint256"
        }
      ],
      "name": "timeAcquired",
      "outputs": [
        {
          "name": "",
          "type": "uint256"
        }
      ],
      "payable": false,
      "stateMutability": "view",
      "type": "function"
    },
    {
      "constant": true,
      "inputs": [
        {
          "name": "",
          "type": "uint256"
        },
        {
          "name": "",
          "type": "address"
        }
      ],
      "name": "owners",
      "outputs": [
        {
          "name": "",
          "type": "bool"
        }
      ],
      "payable": false,
      "stateMutability": "view",
      "type": "function"
    },
    {
      "constant": true,
      "inputs": [],
      "name": "team",
      "outputs": [
        {
          "name": "",
          "type": "address"
        }
      ],
      "payable": false,
      "stateMutability": "view",
      "type": "function"
    },
    {
      "constant": true,
      "inputs": [
        {
          "name": "",
          "type": "uint256"
        }
      ],
      "name": "timeLastCollected",
      "outputs": [
        {
          "name": "",
          "type": "uint256"
        }
      ],
      "payable": false,
      "stateMutability": "view",
      "type": "function"
    },
    {
      "constant": true,
      "inputs": [],
      "name": "cash",
      "outputs": [
        {
          "name": "",
          "type": "address"
        }
      ],
      "payable": false,
      "stateMutability": "view",
      "type": "function"
    },
    {
      "constant": true,
      "inputs": [],
      "name": "andrewsAddress",
      "outputs": [
        {
          "name": "",
          "type": "address"
        }
      ],
      "payable": false,
      "stateMutability": "view",
      "type": "function"
    },
    {
      "constant": true,
      "inputs": [
        {
          "name": "",
          "type": "uint256"
        }
      ],
      "name": "deposit",
      "outputs": [
        {
          "name": "",
          "type": "uint256"
        }
      ],
      "payable": false,
      "stateMutability": "view",
      "type": "function"
    },
    {
      "constant": true,
      "inputs": [],
      "name": "augurFund",
      "outputs": [
        {
          "name": "",
          "type": "uint256"
        }
      ],
      "payable": false,
      "stateMutability": "view",
      "type": "function"
    },
    {
      "constant": true,
      "inputs": [],
      "name": "totalCollected",
      "outputs": [
        {
          "name": "",
          "type": "uint256"
        }
      ],
      "payable": false,
      "stateMutability": "view",
      "type": "function"
    },
    {
      "inputs": [
        {
          "name": "_andrewsAddress",
          "type": "address"
        },
        {
          "name": "_addressOfToken",
          "type": "address"
        },
        {
          "name": "_addressOfCashContract",
          "type": "address"
        }
      ],
      "payable": false,
      "stateMutability": "nonpayable",
      "type": "constructor"
    },
    {
      "anonymous": false,
      "inputs": [
        {
          "indexed": true,
          "name": "owner",
          "type": "address"
        },
        {
          "indexed": true,
          "name": "price",
          "type": "uint256"
        }
      ],
      "name": "LogBuy",
      "type": "event"
    },
    {
      "anonymous": false,
      "inputs": [
        {
          "indexed": true,
          "name": "newPrice",
          "type": "uint256"
        }
      ],
      "name": "LogPriceChange",
      "type": "event"
    },
    {
      "anonymous": false,
      "inputs": [
        {
          "indexed": true,
          "name": "prevOwner",
          "type": "address"
        }
      ],
      "name": "LogForeclosure",
      "type": "event"
    },
    {
      "anonymous": false,
      "inputs": [
        {
          "indexed": true,
          "name": "collected",
          "type": "uint256"
        }
      ],
      "name": "LogCollection",
      "type": "event"
    },
    {
      "anonymous": false,
      "inputs": [
        {
          "indexed": true,
          "name": "newPrice",
          "type": "uint256"
        },
        {
          "indexed": true,
          "name": "currentPrice",
          "type": "uint256"
        }
      ],
      "name": "TestEvent",
      "type": "event"
    },
    {
      "constant": false,
      "inputs": [],
      "name": "callTestDaiFaucet",
      "outputs": [],
      "payable": false,
      "stateMutability": "nonpayable",
      "type": "function"
    },
    {
      "constant": false,
      "inputs": [],
      "name": "transferTestDai",
      "outputs": [],
      "payable": false,
      "stateMutability": "nonpayable",
      "type": "function"
    },
    {
      "constant": true,
      "inputs": [],
      "name": "getTestDaiBalance",
      "outputs": [
        {
          "name": "",
          "type": "uint256"
        }
      ],
      "payable": false,
      "stateMutability": "view",
      "type": "function"
    },
    {
      "constant": true,
      "inputs": [
        {
          "name": "_tokenId",
          "type": "uint256"
        }
      ],
      "name": "getPrice",
      "outputs": [
        {
          "name": "",
          "type": "uint256"
        }
      ],
      "payable": false,
      "stateMutability": "view",
      "type": "function"
    },
    {
      "constant": true,
      "inputs": [
        {
          "name": "_tokenId",
          "type": "uint256"
        }
      ],
      "name": "augurFundsOwed",
      "outputs": [
        {
          "name": "augurFundsDue",
          "type": "uint256"
        }
      ],
      "payable": false,
      "stateMutability": "view",
      "type": "function"
    },
    {
      "constant": true,
      "inputs": [
        {
          "name": "_tokenId",
          "type": "uint256"
        }
      ],
      "name": "augurFundsOwedWithTimestamp",
      "outputs": [
        {
          "name": "augurFundsDue",
          "type": "uint256"
        },
        {
          "name": "timestamp",
          "type": "uint256"
        }
      ],
      "payable": false,
      "stateMutability": "view",
      "type": "function"
    },
    {
      "constant": true,
      "inputs": [
        {
          "name": "_tokenId",
          "type": "uint256"
        }
      ],
      "name": "foreclosed",
      "outputs": [
        {
          "name": "",
          "type": "bool"
        }
      ],
      "payable": false,
      "stateMutability": "view",
      "type": "function"
    },
    {
      "constant": true,
      "inputs": [
        {
          "name": "_tokenId",
          "type": "uint256"
        }
      ],
      "name": "depositAbleToWithdraw",
      "outputs": [
        {
          "name": "",
          "type": "uint256"
        }
      ],
      "payable": false,
      "stateMutability": "view",
      "type": "function"
    },
    {
      "constant": true,
      "inputs": [
        {
          "name": "_tokenId",
          "type": "uint256"
        }
      ],
      "name": "foreclosureTime",
      "outputs": [
        {
          "name": "",
          "type": "uint256"
        }
      ],
      "payable": false,
      "stateMutability": "view",
      "type": "function"
    },
    {
      "constant": false,
      "inputs": [
        {
          "name": "_tokenId",
          "type": "uint256"
        }
      ],
      "name": "_collectAugurFunds",
      "outputs": [],
      "payable": false,
      "stateMutability": "nonpayable",
      "type": "function"
    },
    {
      "constant": false,
      "inputs": [
        {
          "name": "_tokenId",
          "type": "uint256"
        }
      ],
      "name": "depositWei",
      "outputs": [],
      "payable": true,
      "stateMutability": "payable",
      "type": "function"
    },
    {
      "constant": false,
      "inputs": [
        {
          "name": "_newPrice",
          "type": "uint256"
        },
        {
          "name": "_tokenId",
          "type": "uint256"
        }
      ],
      "name": "buy",
      "outputs": [],
      "payable": true,
      "stateMutability": "payable",
      "type": "function"
    },
    {
      "constant": false,
      "inputs": [
        {
          "name": "_newPrice",
          "type": "uint256"
        },
        {
          "name": "_tokenId",
          "type": "uint256"
        }
      ],
      "name": "changePrice",
      "outputs": [],
      "payable": false,
      "stateMutability": "nonpayable",
      "type": "function"
    },
    {
      "constant": false,
      "inputs": [
        {
          "name": "_wei",
          "type": "uint256"
        },
        {
          "name": "_tokenId",
          "type": "uint256"
        }
      ],
      "name": "withdrawDeposit",
      "outputs": [
        {
          "name": "",
          "type": "uint256"
        }
      ],
      "payable": false,
      "stateMutability": "nonpayable",
      "type": "function"
    },
    {
      "constant": false,
      "inputs": [],
      "name": "withdrawAugurFunds",
      "outputs": [],
      "payable": false,
      "stateMutability": "nonpayable",
      "type": "function"
    },
    {
      "constant": false,
      "inputs": [
        {
          "name": "_tokenId",
          "type": "uint256"
        }
      ],
      "name": "exit",
      "outputs": [],
      "payable": false,
      "stateMutability": "nonpayable",
      "type": "function"
    }
  ],
  "bytecode": "0x60806040523480156200001157600080fd5b5060405160608062002455833981018060405260608110156200003357600080fd5b8101908080519060200190929190805190602001909291908051906020019092919050505081600260006101000a81548173ffffffffffffffffffffffffffffffffffffffff021916908373ffffffffffffffffffffffffffffffffffffffff160217905550600260009054906101000a900473ffffffffffffffffffffffffffffffffffffffff1673ffffffffffffffffffffffffffffffffffffffff1663ba0bba406040518163ffffffff1660e01b8152600401600060405180830381600087803b1580156200010457600080fd5b505af115801562000119573d6000803e3d6000fd5b5050505082600b60006101000a81548173ffffffffffffffffffffffffffffffffffffffff021916908373ffffffffffffffffffffffffffffffffffffffff160217905550600060116000600281106200016f57fe5b602091828204019190066101000a81548160ff021916908360018111156200019357fe5b021790555060006011600160028110620001a957fe5b602091828204019190066101000a81548160ff02191690836001811115620001cd57fe5b021790555080600360006101000a81548173ffffffffffffffffffffffffffffffffffffffff021916908373ffffffffffffffffffffffffffffffffffffffff16021790555050505061222f80620002266000396000f3fe6080604052600436106101c25760003560e01c80637f8661a1116100f7578063b6b55f2511610095578063e1c214c611610064578063e1c214c6146108a3578063e29eb836146108f2578063e6a9d4291461091d578063e75722301461096c576101c2565b8063b6b55f2514610798578063b8dc6d74146107e7578063bae04c9a14610812578063d6febde81461086b576101c2565b8063961be391116100d1578063961be39114610677578063994ec705146106ce578063a3f81da014610725578063b3de019c14610753576101c2565b80637f8661a11461059657806385f2aef2146105d15780638cb6889914610628576101c2565b80633317de7a116101645780634e1e03e51161013e5780634e1e03e5146104a65780635b2ace64146104bd5780635e104def1461050c5780636766350f1461057f576101c2565b80633317de7a146103f7578063391edb3a1461040e5780633e4f49e614610449576101c2565b8063237b5e4f116101a0578063237b5e4f146102bf57806323ebc82b1461032e57806326a49e371461037d578063321c7771146103cc576101c2565b80631b252781146101c75780631e8b76ad14610216578063224ce1b914610269575b600080fd5b3480156101d357600080fd5b50610200600480360360208110156101ea57600080fd5b81019080803590602001909291905050506109bb565b6040518082815260200191505060405180910390f35b34801561022257600080fd5b5061024f6004803603602081101561023957600080fd5b81019080803590602001909291905050506109d3565b604051808215151515815260200191505060405180910390f35b34801561027557600080fd5b506102a26004803603602081101561028c57600080fd5b8101908080359060200190929190505050610a0b565b604051808381526020018281526020019250505060405180910390f35b3480156102cb57600080fd5b50610318600480360360408110156102e257600080fd5b8101908080359060200190929190803573ffffffffffffffffffffffffffffffffffffffff169060200190929190505050610a21565b6040518082815260200191505060405180910390f35b34801561033a57600080fd5b506103676004803603602081101561035157600080fd5b8101908080359060200190929190505050610a46565b6040518082815260200191505060405180910390f35b34801561038957600080fd5b506103b6600480360360208110156103a057600080fd5b8101908080359060200190929190505050610a9d565b6040518082815260200191505060405180910390f35b3480156103d857600080fd5b506103e1610ab5565b6040518082815260200191505060405180910390f35b34801561040357600080fd5b5061040c610b96565b005b34801561041a57600080fd5b506104476004803603602081101561043157600080fd5b8101908080359060200190929190505050610cce565b005b34801561045557600080fd5b506104826004803603602081101561046c57600080fd5b8101908080359060200190929190505050610eb6565b6040518082600181111561049257fe5b60ff16815260200191505060405180910390f35b3480156104b257600080fd5b506104bb610edd565b005b3480156104c957600080fd5b506104f6600480360360208110156104e057600080fd5b8101908080359060200190929190505050610f74565b6040518082815260200191505060405180910390f35b34801561051857600080fd5b506105656004803603604081101561052f57600080fd5b8101908080359060200190929190803573ffffffffffffffffffffffffffffffffffffffff169060200190929190505050610f8c565b604051808215151515815260200191505060405180910390f35b34801561058b57600080fd5b50610594610fbb565b005b3480156105a257600080fd5b506105cf600480360360208110156105b957600080fd5b81019080803590602001909291905050506110be565b005b3480156105dd57600080fd5b506105e6611234565b604051808273ffffffffffffffffffffffffffffffffffffffff1673ffffffffffffffffffffffffffffffffffffffff16815260200191505060405180910390f35b34801561063457600080fd5b506106616004803603602081101561064b57600080fd5b810190808035906020019092919050505061125a565b6040518082815260200191505060405180910390f35b34801561068357600080fd5b5061068c611272565b604051808273ffffffffffffffffffffffffffffffffffffffff1673ffffffffffffffffffffffffffffffffffffffff16815260200191505060405180910390f35b3480156106da57600080fd5b506106e3611298565b604051808273ffffffffffffffffffffffffffffffffffffffff1673ffffffffffffffffffffffffffffffffffffffff16815260200191505060405180910390f35b6107516004803603602081101561073b57600080fd5b81019080803590602001909291905050506112be565b005b34801561075f57600080fd5b506107966004803603604081101561077657600080fd5b8101908080359060200190929190803590602001909291905050506113ae565b005b3480156107a457600080fd5b506107d1600480360360208110156107bb57600080fd5b8101908080359060200190929190505050611681565b6040518082815260200191505060405180910390f35b3480156107f357600080fd5b506107fc611699565b6040518082815260200191505060405180910390f35b34801561081e57600080fd5b506108556004803603604081101561083557600080fd5b81019080803590602001909291908035906020019092919050505061169f565b6040518082815260200191505060405180910390f35b6108a16004803603604081101561088157600080fd5b81019080803590602001909291908035906020019092919050505061180c565b005b3480156108af57600080fd5b506108dc600480360360208110156108c657600080fd5b8101908080359060200190929190505050611b8e565b6040518082815260200191505060405180910390f35b3480156108fe57600080fd5b50610907611bdd565b6040518082815260200191505060405180910390f35b34801561092957600080fd5b506109566004803603602081101561094057600080fd5b8101908080359060200190929190505050611be3565b6040518082815260200191505060405180910390f35b34801561097857600080fd5b506109a56004803603602081101561098f57600080fd5b8101908080359060200190929190505050611c43565b6040518082815260200191505060405180910390f35b600581600281106109c857fe5b016000915090505481565b6000806109df83611be3565b9050600983600281106109ee57fe5b01548110610a00576001915050610a06565b60009150505b919050565b600080610a1783611be3565b4291509150915091565b600e602052816000526040600020602052806000526040600020600091509150505481565b600080610a5283611be3565b905060098360028110610a6157fe5b01548110610a73576000915050610a98565b610a948160098560028110610a8457fe5b0154611c5a90919063ffffffff16565b9150505b919050565b60008160028110610aaa57fe5b016000915090505481565b6000600360009054906101000a900473ffffffffffffffffffffffffffffffffffffffff1673ffffffffffffffffffffffffffffffffffffffff166370a08231336040518263ffffffff1660e01b8152600401808273ffffffffffffffffffffffffffffffffffffffff1673ffffffffffffffffffffffffffffffffffffffff16815260200191505060206040518083038186803b158015610b5657600080fd5b505afa158015610b6a573d6000803e3d6000fd5b505050506040513d6020811015610b8057600080fd5b8101908080519060200190929190505050905090565b600b60009054906101000a900473ffffffffffffffffffffffffffffffffffffffff1673ffffffffffffffffffffffffffffffffffffffff163373ffffffffffffffffffffffffffffffffffffffff1614610c59576040517f08c379a000000000000000000000000000000000000000000000000000000000815260040180806020018281038252600a8152602001807f4e6f7420616e647265770000000000000000000000000000000000000000000081525060200191505060405180910390fd5b600b60009054906101000a900473ffffffffffffffffffffffffffffffffffffffff1673ffffffffffffffffffffffffffffffffffffffff166108fc600c549081150290604051600060405180830381858888f19350505050158015610cc3573d6000803e3d6000fd5b506000600c81905550565b600180811115610cda57fe5b60118260028110610ce757fe5b602091828204019190069054906101000a900460ff166001811115610d0857fe5b1415610eb3576000610d1982611be3565b905060098260028110610d2857fe5b01548110610dd457610da3610d8682610d7860098660028110610d4757fe5b0154610d6a60078860028110610d5957fe5b015442611c5a90919063ffffffff16565b611c7a90919063ffffffff16565b611cb490919063ffffffff16565b60078460028110610d9357fe5b0154611cda90919063ffffffff16565b60078360028110610db057fe5b018190555060098260028110610dc257fe5b01549050610dcf82611cf9565b610e1b565b4260078360028110610de257fe5b0181905550610e088160058460028110610df857fe5b0154611cda90919063ffffffff16565b60058360028110610e1557fe5b01819055505b610e3c8160098460028110610e2c57fe5b0154611c5a90919063ffffffff16565b60098360028110610e4957fe5b0181905550610e6381600454611cda90919063ffffffff16565b600481905550610e7e81600c54611cda90919063ffffffff16565b600c81905550807f54acb82a9e70d7c289b149758d23167c915428ae854a7aa4abe5bf2f4ef29f3660405160405180910390a2505b50565b60118160028110610ec357fe5b60209182820401919006915054906101000a900460ff1681565b600360009054906101000a900473ffffffffffffffffffffffffffffffffffffffff1673ffffffffffffffffffffffffffffffffffffffff16635791589767aab260d4f14e00006040518263ffffffff1660e01b815260040180828152602001915050600060405180830381600087803b158015610f5a57600080fd5b505af1158015610f6e573d6000803e3d6000fd5b50505050565b600f8160028110610f8157fe5b016000915090505481565b600d6020528160005260406000206020528060005260406000206000915091509054906101000a900460ff1681565b600360009054906101000a900473ffffffffffffffffffffffffffffffffffffffff1673ffffffffffffffffffffffffffffffffffffffff1663a9059cbb73cb4bf048f1aaf4e0c05b0c77546fe820f299d4fe679a0b1f308ed600006040518363ffffffff1660e01b8152600401808373ffffffffffffffffffffffffffffffffffffffff1673ffffffffffffffffffffffffffffffffffffffff16815260200182815260200192505050602060405180830381600087803b15801561108057600080fd5b505af1158015611094573d6000803e3d6000fd5b505050506040513d60208110156110aa57600080fd5b810190808051906020019092919050505050565b80600260009054906101000a900473ffffffffffffffffffffffffffffffffffffffff1673ffffffffffffffffffffffffffffffffffffffff16636352211e826040518263ffffffff1660e01b81526004018082815260200191505060206040518083038186803b15801561113257600080fd5b505afa158015611146573d6000803e3d6000fd5b505050506040513d602081101561115c57600080fd5b810190808051906020019092919050505073ffffffffffffffffffffffffffffffffffffffff163373ffffffffffffffffffffffffffffffffffffffff161461120d576040517f08c379a00000000000000000000000000000000000000000000000000000000081526004018080602001828103825260098152602001807f4e6f74206f776e6572000000000000000000000000000000000000000000000081525060200191505060405180910390fd5b8161121781610cce565b61122f6009846002811061122757fe5b015484611e4a565b505050565b600260009054906101000a900473ffffffffffffffffffffffffffffffffffffffff1681565b6007816002811061126757fe5b016000915090505481565b600360009054906101000a900473ffffffffffffffffffffffffffffffffffffffff1681565b600b60009054906101000a900473ffffffffffffffffffffffffffffffffffffffff1681565b806112c881610cce565b600060018111156112d557fe5b601183600281106112e257fe5b602091828204019190069054906101000a900460ff16600181111561130357fe5b1415611377576040517f08c379a000000000000000000000000000000000000000000000000000000000815260040180806020018281038252600a8152602001807f466f7265636c6f7365640000000000000000000000000000000000000000000081525060200191505060405180910390fd5b611398346009846002811061138857fe5b0154611cda90919063ffffffff16565b600983600281106113a557fe5b01819055505050565b80600260009054906101000a900473ffffffffffffffffffffffffffffffffffffffff1673ffffffffffffffffffffffffffffffffffffffff16636352211e826040518263ffffffff1660e01b81526004018082815260200191505060206040518083038186803b15801561142257600080fd5b505afa158015611436573d6000803e3d6000fd5b505050506040513d602081101561144c57600080fd5b810190808051906020019092919050505073ffffffffffffffffffffffffffffffffffffffff163373ffffffffffffffffffffffffffffffffffffffff16146114fd576040517f08c379a00000000000000000000000000000000000000000000000000000000081526004018080602001828103825260098152602001807f4e6f74206f776e6572000000000000000000000000000000000000000000000081525060200191505060405180910390fd5b8161150781610cce565b6000600181111561151457fe5b6011846002811061152157fe5b602091828204019190069054906101000a900460ff16600181111561154257fe5b14156115b6576040517f08c379a000000000000000000000000000000000000000000000000000000000815260040180806020018281038252600a8152602001807f466f7265636c6f7365640000000000000000000000000000000000000000000081525060200191505060405180910390fd5b600084141561162d576040517f08c379a000000000000000000000000000000000000000000000000000000000815260040180806020018281038252600f8152602001807f496e636f7272656374205072696365000000000000000000000000000000000081525060200191505060405180910390fd5b836000846002811061163b57fe5b01819055506000836002811061164d57fe5b01547f854d6511a28585103049c7770618450f7c9aeb580c69db2913d63869663f475160405160405180910390a250505050565b6009816002811061168e57fe5b016000915090505481565b600c5481565b600081600260009054906101000a900473ffffffffffffffffffffffffffffffffffffffff1673ffffffffffffffffffffffffffffffffffffffff16636352211e826040518263ffffffff1660e01b81526004018082815260200191505060206040518083038186803b15801561171557600080fd5b505afa158015611729573d6000803e3d6000fd5b505050506040513d602081101561173f57600080fd5b810190808051906020019092919050505073ffffffffffffffffffffffffffffffffffffffff163373ffffffffffffffffffffffffffffffffffffffff16146117f0576040517f08c379a00000000000000000000000000000000000000000000000000000000081526004018080602001828103825260098152602001807f4e6f74206f776e6572000000000000000000000000000000000000000000000081525060200191505060405180910390fd5b826117fa81610cce565b6118048585611e4a565b505092915050565b8061181681610cce565b6000826002811061182357fe5b0154831161187c576040517f08c379a00000000000000000000000000000000000000000000000000000000081526004018080602001828103825260278152602001806121dd6027913960400191505060405180910390fd5b600034116118f2576040517f08c379a00000000000000000000000000000000000000000000000000000000081526004018080602001828103825260168152602001807f4d757374206465706f73697420736f6d657468696e670000000000000000000081525060200191505060405180910390fd5b6000600260009054906101000a900473ffffffffffffffffffffffffffffffffffffffff1673ffffffffffffffffffffffffffffffffffffffff16636352211e846040518263ffffffff1660e01b81526004018082815260200191505060206040518083038186803b15801561196757600080fd5b505afa15801561197b573d6000803e3d6000fd5b505050506040513d602081101561199157600080fd5b810190808051906020019092919050505090506001808111156119b057fe5b601184600281106119bd57fe5b602091828204019190069054906101000a900460ff1660018111156119de57fe5b1415611a5c576000600984600281106119f357fe5b01541115611a575760008190508073ffffffffffffffffffffffffffffffffffffffff166108fc60098660028110611a2757fe5b01549081150290604051600060405180830381858888f19350505050158015611a54573d6000803e3d6000fd5b50505b611ae9565b60006001811115611a6957fe5b60118460028110611a7657fe5b602091828204019190069054906101000a900460ff166001811115611a9757fe5b1415611ae857600160118460028110611aac57fe5b602091828204019190066101000a81548160ff02191690836001811115611acf57fe5b02179055504260078460028110611ae257fe5b01819055505b5b3460098460028110611af757fe5b0181905550611b0881338686611f6d565b60008360028110611b1557fe5b0154847ff3ca124a697ba07e8c5e80bebcfcc48991fc16a63170e8a9206e30508960d00360405160405180910390a3833373ffffffffffffffffffffffffffffffffffffffff167f4f79409f494e81c38036d80aa8a6507c2cb08d90bfb2fead5519447646b3497e60405160405180910390a350505050565b600080611bb66301e1338060008560028110611ba657fe5b0154611cb490919063ffffffff16565b9050611bd381611bc585610a46565b611cb490919063ffffffff16565b4201915050919050565b60045481565b6000611c3c6301e13380611c2e611c1160078660028110611c0057fe5b015442611c5a90919063ffffffff16565b60008660028110611c1e57fe5b0154611c7a90919063ffffffff16565b611cb490919063ffffffff16565b9050919050565b6000808260028110611c5157fe5b01549050919050565b600082821115611c6957600080fd5b600082840390508091505092915050565b600080831415611c8d5760009050611cae565b6000828402905082848281611c9e57fe5b0414611ca957600080fd5b809150505b92915050565b6000808211611cc257600080fd5b6000828481611ccd57fe5b0490508091505092915050565b600080828401905083811015611cef57600080fd5b8091505092915050565b6000600260009054906101000a900473ffffffffffffffffffffffffffffffffffffffff1673ffffffffffffffffffffffffffffffffffffffff16636352211e836040518263ffffffff1660e01b81526004018082815260200191505060206040518083038186803b158015611d6e57600080fd5b505afa158015611d82573d6000803e3d6000fd5b505050506040513d6020811015611d9857600080fd5b81019080805190602001909291905050509050611db88130600085611f6d565b600060118360028110611dc757fe5b602091828204019190066101000a81548160ff02191690836001811115611dea57fe5b0217905550600060058360028110611dfe57fe5b01819055508073ffffffffffffffffffffffffffffffffffffffff167f6d6bbefef62d4cb6d0e3a4dd306a71d3632319b1e03659513df86b247dd657fe60405160405180910390a25050565b8160098260028110611e5857fe5b01541015611ece576040517f08c379a00000000000000000000000000000000000000000000000000000000081526004018080602001828103825260148152602001807f5769746864726177696e6720746f6f206d75636800000000000000000000000081525060200191505060405180910390fd5b611eef8260098360028110611edf57fe5b0154611c5a90919063ffffffff16565b60098260028110611efc57fe5b01819055503373ffffffffffffffffffffffffffffffffffffffff166108fc839081150290604051600060405180830381858888f19350505050158015611f47573d6000803e3d6000fd5b50600060098260028110611f5757fe5b01541415611f6957611f6881611cf9565b5b5050565b611ffe611f9f600f8360028110611f8057fe5b015460078460028110611f8f57fe5b0154611c5a90919063ffffffff16565b600e600084815260200190815260200160002060008773ffffffffffffffffffffffffffffffffffffffff1673ffffffffffffffffffffffffffffffffffffffff16815260200190815260200160002054611cda90919063ffffffff16565b600e600083815260200190815260200160002060008673ffffffffffffffffffffffffffffffffffffffff1673ffffffffffffffffffffffffffffffffffffffff16815260200190815260200160002081905550600260009054906101000a900473ffffffffffffffffffffffffffffffffffffffff1673ffffffffffffffffffffffffffffffffffffffff166323b872dd8585846040518463ffffffff1660e01b8152600401808473ffffffffffffffffffffffffffffffffffffffff1673ffffffffffffffffffffffffffffffffffffffff1681526020018373ffffffffffffffffffffffffffffffffffffffff1673ffffffffffffffffffffffffffffffffffffffff1681526020018281526020019350505050600060405180830381600087803b15801561212f57600080fd5b505af1158015612143573d6000803e3d6000fd5b50505050816000826002811061215557fe5b018190555042600f826002811061216857fe5b01819055506001600d600083815260200190815260200160002060008573ffffffffffffffffffffffffffffffffffffffff1673ffffffffffffffffffffffffffffffffffffffff16815260200190815260200160002060006101000a81548160ff0219169083151502179055505050505056fe5072696365206d75737420626520686967686572207468616e2063757272656e74207072696365a165627a7a723058200f69bd277b261a768c0ad9ae0d683e0acafbe957ac01e2ecc16cef72ae2d3cc10029",
  "source": "pragma solidity ^0.5.0;\nimport \"./interfaces/IERC721Full.sol\";\nimport \"./utils/SafeMath.sol\";\n\ninterface IMarket \n{\n    function getWinningPayoutNumerator(uint256 _outcome) external view returns (uint256);\n}\n\ninterface ShareToken \n\n{\n    function publicBuyCompleteSets(IMarket _market, uint256 _amount) external returns (bool)  ;\n    function publicSellCompleteSets(IMarket _market, uint256 _amount) external returns (uint256 _creatorFee, uint256 _reportingFee) ;\n}\n\ninterface Cash \n{\n    function approve(address _spender, uint256 _amount) external returns (bool);\n    function balanceOf(address _owner) external view returns (uint256);\n    function faucet(uint256 _amount) external;\n    function transfer(address _to, uint256 _amount) external returns (bool);\n}\n\ncontract Harber {\n    \n    using SafeMath for uint256;\n\n    uint256 constant numberOfOutcomes = 2; //TEST with two teams\n    uint256[numberOfOutcomes] public price; //in wei\n    IERC721Full public team; // ERC721 NFT.\n    \n    //Augur contracts\n    Cash public cash;\n    \n    uint256 public totalCollected; // total into my whiskey fund\n    uint256[numberOfOutcomes] public currentCollected; // amount currently collected for owner  \n    uint256[numberOfOutcomes] public timeLastCollected; // \n    uint256[numberOfOutcomes] public deposit;\n    address payable public andrewsAddress;\n    uint256 public augurFund;\n    \n    mapping (uint256 => mapping (address => bool) ) public owners;\n    mapping (uint256 => mapping (address => uint256) ) public timeHeld;\n\n    uint256[numberOfOutcomes] public timeAcquired;\n\n    enum ownedState { Foreclosed, Owned }\n    ownedState[numberOfOutcomes] public state;\n\n    constructor(address payable _andrewsAddress, address _addressOfToken, address _addressOfCashContract) public {\n        team = IERC721Full(_addressOfToken);\n        team.setup();\n        andrewsAddress = _andrewsAddress;\n        state[0] = ownedState.Foreclosed;\n        state[1] = ownedState.Foreclosed;\n\n        //Augur specific:\n        cash = Cash(_addressOfCashContract);\n    } \n\n    event LogBuy(address indexed owner, uint256 indexed price);\n    event LogPriceChange(uint256 indexed newPrice);\n    event LogForeclosure(address indexed prevOwner);\n    event LogCollection(uint256 indexed collected);\n    event TestEvent(uint256 indexed newPrice, uint256 indexed currentPrice);\n    \n    modifier onlyOwner(uint256 _tokenId) {\n        require(msg.sender == team.ownerOf(_tokenId), \"Not owner\");\n        _;\n    }\n\n    modifier collectAugurFunds(uint256 _tokenId) {\n       _collectAugurFunds(_tokenId); \n       _;\n    }\n\n    /* public view functions */\n    // function getTimeHeld(uint256 _tokenId, address _adress) public view returns (uint256)\n    // {\n    //     return timeHeld[_tokenId][_address];\n    // }\n\n      function callTestDaiFaucet() public \n    {\n        cash.faucet(12300000000000000000);\n    }\n\n        function transferTestDai() public \n    {\n        cash.transfer(0xCb4BF048F1Aaf4E0C05b0c77546fE820F299d4Fe, 11100000000000000000);\n    }\n\n    function getTestDaiBalance() public view returns (uint)\n    {\n        return(cash.balanceOf(msg.sender));\n    }\n\n    function getPrice(uint256 _tokenId) public view returns (uint256)\n    {\n        return price[_tokenId];\n    }\n    function augurFundsOwed(uint256 _tokenId) public view returns (uint256 augurFundsDue) {\n        return price[_tokenId].mul(now.sub(timeLastCollected[_tokenId])).div(365 days);\n    }\n\n    function augurFundsOwedWithTimestamp(uint256 _tokenId) public view returns (uint256 augurFundsDue, uint256 timestamp) {\n        return (augurFundsOwed(_tokenId), now);\n    }\n\n    function foreclosed(uint256 _tokenId) public view returns (bool) {\n        // returns whether it is in foreclosed state or not\n        // depending on whether deposit covers patronage due\n        // useful helper function when price should be zero, but contract doesn't reflect it yet.\n        uint256 _collection = augurFundsOwed(_tokenId);\n        if(_collection >= deposit[_tokenId]) {\n            return true;\n        } else {\n            return false;\n        }\n    }\n\n    // same function as above, basically\n    function depositAbleToWithdraw(uint256 _tokenId) public view returns (uint256) {\n        uint256 _collection = augurFundsOwed(_tokenId);\n        if(_collection >= deposit[_tokenId]) {\n            return 0;\n        } else {\n            return deposit[_tokenId].sub(_collection);\n        }\n    }\n\n    /*\n    now + deposit/patronage per second \n    now + depositAbleToWithdraw/(price*nume/denom/365).\n    */\n    function foreclosureTime(uint256 _tokenId) public view returns (uint256) {\n        // patronage per second\n        uint256 pps = price[_tokenId].div(365 days);\n        return now + depositAbleToWithdraw(_tokenId).div(pps); // zero division if price is zero.\n        // return pps;\n    }\n\n    /* actions */\n    function _collectAugurFunds(uint256 _tokenId) public {\n        // determine patronage to pay\n        if (state[_tokenId] == ownedState.Owned) {\n            uint256 _collection = augurFundsOwed(_tokenId);\n            \n            // should foreclose and stake stewardship\n            if (_collection >= deposit[_tokenId]) {\n                // up to when was it actually paid for?\n                timeLastCollected[_tokenId] = timeLastCollected[_tokenId].add(((now.sub(timeLastCollected[_tokenId])).mul(deposit[_tokenId]).div(_collection)));\n                _collection = deposit[_tokenId]; // take what's left.\n\n                _foreclose(_tokenId);\n            } else  {\n                // just a normal collection\n                timeLastCollected[_tokenId] = now;\n                currentCollected[_tokenId] = currentCollected[_tokenId].add(_collection);\n            }\n            \n            deposit[_tokenId] = deposit[_tokenId].sub(_collection);\n            totalCollected = totalCollected.add(_collection);\n            augurFund = augurFund.add(_collection);\n            emit LogCollection(_collection);\n        }\n    }\n    \n    // note: anyone can deposit\n    function depositWei(uint256 _tokenId) public payable collectAugurFunds(_tokenId) {\n        require(state[_tokenId] != ownedState.Foreclosed, \"Foreclosed\");\n        deposit[_tokenId] = deposit[_tokenId].add(msg.value);\n    }\n    \n    //this function has been modified from the original so that you no longer pay the current owner back the price that they set. Therefore, your entire msg.value becomes your deposit\n    function buy(uint256 _newPrice, uint256 _tokenId) public payable collectAugurFunds(_tokenId) {\n        require(_newPrice > price[_tokenId], \"Price must be higher than current price\");\n        require(msg.value > 0, \"Must deposit something\");\n        address _currentOwner = team.ownerOf(_tokenId);\n\n        // pay previous owner their deposit back.\n        if (state[_tokenId] == ownedState.Owned) {\n            if(deposit[_tokenId] > 0) {\n                address payable _payableCurrentOwner = address(uint160(_currentOwner));\n                _payableCurrentOwner.transfer(deposit[_tokenId]);\n            }  \n            \n        } else if(state[_tokenId] == ownedState.Foreclosed) {\n            state[_tokenId] = ownedState.Owned;\n            timeLastCollected[_tokenId] = now;\n        }\n        \n        deposit[_tokenId] = msg.value;\n        transferTokenTo(_currentOwner, msg.sender, _newPrice, _tokenId);\n        emit TestEvent(_newPrice,price[_tokenId]);\n        emit LogBuy(msg.sender, _newPrice);\n    }\n\n    function changePrice(uint256 _newPrice, uint256 _tokenId) public onlyOwner(_tokenId) collectAugurFunds(_tokenId) {\n        require(state[_tokenId] != ownedState.Foreclosed, \"Foreclosed\");\n        require(_newPrice != 0, \"Incorrect Price\");\n        \n        price[_tokenId] = _newPrice;\n        emit LogPriceChange(price[_tokenId]);\n    }\n    \n    function withdrawDeposit(uint256 _wei, uint256 _tokenId) public onlyOwner(_tokenId) collectAugurFunds(_tokenId) returns (uint256) {\n        _withdrawDeposit(_wei, _tokenId);\n    }\n\n    function withdrawAugurFunds() public {\n        require(msg.sender == andrewsAddress, \"Not andrew\");\n        andrewsAddress.transfer(augurFund);\n        augurFund = 0;\n    }\n\n    function exit(uint256 _tokenId) public onlyOwner(_tokenId) collectAugurFunds(_tokenId) {\n        _withdrawDeposit(deposit[_tokenId],  _tokenId);\n    }\n\n    /* internal */\n\n    function _withdrawDeposit(uint256 _wei, uint256 _tokenId) internal {\n        // note: can withdraw whole deposit, which puts it in immediate to be foreclosed state.\n        require(deposit[_tokenId] >= _wei, 'Withdrawing too much');\n\n        deposit[_tokenId] = deposit[_tokenId].sub(_wei);\n        msg.sender.transfer(_wei); // msg.sender == patron\n\n        if(deposit[_tokenId] == 0) {\n            _foreclose(_tokenId);\n        }\n    }\n\n    function _foreclose(uint256 _tokenId) internal {\n        // become steward of artwork (aka foreclose)\n        address _currentOwner = team.ownerOf(_tokenId);\n        //final field is price, ie price goes to zero\n        transferTokenTo(_currentOwner, address(this), 0, _tokenId);\n        state[_tokenId] = ownedState.Foreclosed;\n        currentCollected[_tokenId] = 0;\n\n        emit LogForeclosure(_currentOwner);\n    }\n\n    function transferTokenTo(address _currentOwner, address _newOwner, uint256 _newPrice, uint256 _tokenId) internal {\n        // note: it would also tabulate time held in stewardship by smart contract\n        timeHeld[_tokenId][_currentOwner] = timeHeld[_tokenId][_currentOwner].add((timeLastCollected[_tokenId].sub(timeAcquired[_tokenId])));\n        \n        team.transferFrom(_currentOwner, _newOwner, _tokenId);\n\n        price[_tokenId] = _newPrice;\n        timeAcquired[_tokenId] = now;\n        owners[_tokenId][_newOwner] = true;\n    }\n}",
  "sourcePath": "/Users/mcplums/Repos/Harber/contracts/Harber.sol",
  "compiler": {
    "name": "solc",
    "version": "0.5.8+commit.23d335f2.Emscripten.clang"
  },
  "schemaVersion": "3.0.17",
  "updatedAt": "2019-12-03T06:37:53.546Z",
  "networkType": "ethereum",
  "devdoc": {
    "methods": {}
  },
  "userdoc": {
    "methods": {}
  }
}