{
  "contractName": "Harber",
  "abi": [
    {
      "inputs": [
        {
          "internalType": "address",
          "name": "_owner",
          "type": "address"
        },
        {
          "internalType": "contract Cash",
          "name": "_addressOfCashContract",
          "type": "address"
        },
        {
          "internalType": "contract Realitio",
          "name": "_addressOfRealitioContract",
          "type": "address"
        },
        {
          "internalType": "uint32",
          "name": "_marketExpectedResolutionTime",
          "type": "uint32"
        }
      ],
      "payable": false,
      "stateMutability": "nonpayable",
      "type": "constructor"
    },
    {
      "anonymous": false,
      "inputs": [
        {
          "indexed": true,
          "internalType": "address",
          "name": "owner",
          "type": "address"
        },
        {
          "indexed": true,
          "internalType": "address",
          "name": "approved",
          "type": "address"
        },
        {
          "indexed": true,
          "internalType": "uint256",
          "name": "tokenId",
          "type": "uint256"
        }
      ],
      "name": "Approval",
      "type": "event"
    },
    {
      "anonymous": false,
      "inputs": [
        {
          "indexed": true,
          "internalType": "address",
          "name": "owner",
          "type": "address"
        },
        {
          "indexed": true,
          "internalType": "address",
          "name": "operator",
          "type": "address"
        },
        {
          "indexed": false,
          "internalType": "bool",
          "name": "approved",
          "type": "bool"
        }
      ],
      "name": "ApprovalForAll",
      "type": "event"
    },
    {
      "anonymous": false,
      "inputs": [
        {
          "indexed": true,
          "internalType": "uint256",
          "name": "daiDeposited",
          "type": "uint256"
        },
        {
          "indexed": true,
          "internalType": "uint256",
          "name": "tokenId",
          "type": "uint256"
        },
        {
          "indexed": true,
          "internalType": "address",
          "name": "sentBy",
          "type": "address"
        }
      ],
      "name": "LogDepositIncreased",
      "type": "event"
    },
    {
      "anonymous": false,
      "inputs": [
        {
          "indexed": true,
          "internalType": "uint256",
          "name": "daiWithdrawn",
          "type": "uint256"
        },
        {
          "indexed": true,
          "internalType": "uint256",
          "name": "tokenId",
          "type": "uint256"
        },
        {
          "indexed": true,
          "internalType": "address",
          "name": "returnedTo",
          "type": "address"
        }
      ],
      "name": "LogDepositWithdrawal",
      "type": "event"
    },
    {
      "anonymous": false,
      "inputs": [
        {
          "indexed": true,
          "internalType": "uint256",
          "name": "tokenId",
          "type": "uint256"
        }
      ],
      "name": "LogExit",
      "type": "event"
    },
    {
      "anonymous": false,
      "inputs": [
        {
          "indexed": true,
          "internalType": "address",
          "name": "prevOwner",
          "type": "address"
        },
        {
          "indexed": true,
          "internalType": "uint256",
          "name": "tokenId",
          "type": "uint256"
        }
      ],
      "name": "LogForeclosure",
      "type": "event"
    },
    {
      "anonymous": false,
      "inputs": [
        {
          "indexed": true,
          "internalType": "address",
          "name": "newOwner",
          "type": "address"
        },
        {
          "indexed": true,
          "internalType": "uint256",
          "name": "newPrice",
          "type": "uint256"
        },
        {
          "indexed": true,
          "internalType": "uint256",
          "name": "tokenId",
          "type": "uint256"
        }
      ],
      "name": "LogNewRental",
      "type": "event"
    },
    {
      "anonymous": false,
      "inputs": [
        {
          "indexed": true,
          "internalType": "uint256",
          "name": "newPrice",
          "type": "uint256"
        },
        {
          "indexed": true,
          "internalType": "uint256",
          "name": "tokenId",
          "type": "uint256"
        }
      ],
      "name": "LogPriceChange",
      "type": "event"
    },
    {
      "anonymous": false,
      "inputs": [
        {
          "indexed": true,
          "internalType": "uint256",
          "name": "rentCollected",
          "type": "uint256"
        },
        {
          "indexed": true,
          "internalType": "uint256",
          "name": "tokenId",
          "type": "uint256"
        }
      ],
      "name": "LogRentCollection",
      "type": "event"
    },
    {
      "anonymous": false,
      "inputs": [
        {
          "indexed": true,
          "internalType": "address",
          "name": "returnedTo",
          "type": "address"
        },
        {
          "indexed": true,
          "internalType": "uint256",
          "name": "amountReturned",
          "type": "uint256"
        }
      ],
      "name": "LogRentReturned",
      "type": "event"
    },
    {
      "anonymous": false,
      "inputs": [
        {
          "indexed": true,
          "internalType": "uint256",
          "name": "tokenId",
          "type": "uint256"
        },
        {
          "indexed": true,
          "internalType": "address",
          "name": "previousOwner",
          "type": "address"
        }
      ],
      "name": "LogReturnToPreviousOwner",
      "type": "event"
    },
    {
      "anonymous": false,
      "inputs": [
        {
          "indexed": true,
          "internalType": "bool",
          "name": "didTheEventFinish",
          "type": "bool"
        }
      ],
      "name": "LogStep1Complete",
      "type": "event"
    },
    {
      "anonymous": false,
      "inputs": [
        {
          "indexed": true,
          "internalType": "bool",
          "name": "didRealitioResolve",
          "type": "bool"
        },
        {
          "indexed": true,
          "internalType": "uint256",
          "name": "winningOutcome",
          "type": "uint256"
        },
        {
          "indexed": true,
          "internalType": "bool",
          "name": "didRealitioResolveInvalid",
          "type": "bool"
        }
      ],
      "name": "LogStep2Complete",
      "type": "event"
    },
    {
      "anonymous": false,
      "inputs": [
        {
          "indexed": true,
          "internalType": "address",
          "name": "paidTo",
          "type": "address"
        },
        {
          "indexed": true,
          "internalType": "uint256",
          "name": "amountPaid",
          "type": "uint256"
        }
      ],
      "name": "LogWinningsPaid",
      "type": "event"
    },
    {
      "anonymous": false,
      "inputs": [
        {
          "indexed": true,
          "internalType": "uint256",
          "name": "testingVariable",
          "type": "uint256"
        }
      ],
      "name": "TestingVariable",
      "type": "event"
    },
    {
      "anonymous": false,
      "inputs": [
        {
          "indexed": true,
          "internalType": "address",
          "name": "from",
          "type": "address"
        },
        {
          "indexed": true,
          "internalType": "address",
          "name": "to",
          "type": "address"
        },
        {
          "indexed": true,
          "internalType": "uint256",
          "name": "tokenId",
          "type": "uint256"
        }
      ],
      "name": "Transfer",
      "type": "event"
    },
    {
      "constant": false,
      "inputs": [
        {
          "internalType": "address",
          "name": "to",
          "type": "address"
        },
        {
          "internalType": "uint256",
          "name": "tokenId",
          "type": "uint256"
        }
      ],
      "name": "approve",
      "outputs": [],
      "payable": false,
      "stateMutability": "nonpayable",
      "type": "function"
    },
    {
      "constant": true,
      "inputs": [
        {
          "internalType": "address",
          "name": "owner",
          "type": "address"
        }
      ],
      "name": "balanceOf",
      "outputs": [
        {
          "internalType": "uint256",
          "name": "",
          "type": "uint256"
        }
      ],
      "payable": false,
      "stateMutability": "view",
      "type": "function"
    },
    {
      "constant": true,
      "inputs": [],
      "name": "baseURI",
      "outputs": [
        {
          "internalType": "string",
          "name": "",
          "type": "string"
        }
      ],
      "payable": false,
      "stateMutability": "view",
      "type": "function"
    },
    {
      "constant": true,
      "inputs": [],
      "name": "cash",
      "outputs": [
        {
          "internalType": "contract Cash",
          "name": "",
          "type": "address"
        }
      ],
      "payable": false,
      "stateMutability": "view",
      "type": "function"
    },
    {
      "constant": true,
      "inputs": [
        {
          "internalType": "uint256",
          "name": "",
          "type": "uint256"
        }
      ],
      "name": "collectedPerToken",
      "outputs": [
        {
          "internalType": "uint256",
          "name": "",
          "type": "uint256"
        }
      ],
      "payable": false,
      "stateMutability": "view",
      "type": "function"
    },
    {
      "constant": true,
      "inputs": [
        {
          "internalType": "address",
          "name": "",
          "type": "address"
        }
      ],
      "name": "collectedPerUser",
      "outputs": [
        {
          "internalType": "uint256",
          "name": "",
          "type": "uint256"
        }
      ],
      "payable": false,
      "stateMutability": "view",
      "type": "function"
    },
    {
      "constant": true,
      "inputs": [
        {
          "internalType": "uint256",
          "name": "",
          "type": "uint256"
        }
      ],
      "name": "currentOwnerIndex",
      "outputs": [
        {
          "internalType": "uint256",
          "name": "",
          "type": "uint256"
        }
      ],
      "payable": false,
      "stateMutability": "view",
      "type": "function"
    },
    {
      "constant": true,
      "inputs": [
        {
          "internalType": "uint256",
          "name": "",
          "type": "uint256"
        },
        {
          "internalType": "address",
          "name": "",
          "type": "address"
        }
      ],
      "name": "deposits",
      "outputs": [
        {
          "internalType": "uint256",
          "name": "",
          "type": "uint256"
        }
      ],
      "payable": false,
      "stateMutability": "view",
      "type": "function"
    },
    {
      "constant": true,
      "inputs": [
        {
          "internalType": "uint256",
          "name": "tokenId",
          "type": "uint256"
        }
      ],
      "name": "getApproved",
      "outputs": [
        {
          "internalType": "address",
          "name": "",
          "type": "address"
        }
      ],
      "payable": false,
      "stateMutability": "view",
      "type": "function"
    },
    {
      "constant": true,
      "inputs": [
        {
          "internalType": "address",
          "name": "owner",
          "type": "address"
        },
        {
          "internalType": "address",
          "name": "operator",
          "type": "address"
        }
      ],
      "name": "isApprovedForAll",
      "outputs": [
        {
          "internalType": "bool",
          "name": "",
          "type": "bool"
        }
      ],
      "payable": false,
      "stateMutability": "view",
      "type": "function"
    },
    {
      "constant": true,
      "inputs": [],
      "name": "marketEnded",
      "outputs": [
        {
          "internalType": "bool",
          "name": "",
          "type": "bool"
        }
      ],
      "payable": false,
      "stateMutability": "view",
      "type": "function"
    },
    {
      "constant": true,
      "inputs": [],
      "name": "marketExpectedResolutionTime",
      "outputs": [
        {
          "internalType": "uint32",
          "name": "",
          "type": "uint32"
        }
      ],
      "payable": false,
      "stateMutability": "view",
      "type": "function"
    },
    {
      "constant": true,
      "inputs": [],
      "name": "name",
      "outputs": [
        {
          "internalType": "string",
          "name": "",
          "type": "string"
        }
      ],
      "payable": false,
      "stateMutability": "view",
      "type": "function"
    },
    {
      "constant": true,
      "inputs": [],
      "name": "numberOfTokens",
      "outputs": [
        {
          "internalType": "uint256",
          "name": "",
          "type": "uint256"
        }
      ],
      "payable": false,
      "stateMutability": "view",
      "type": "function"
    },
    {
      "constant": true,
      "inputs": [
        {
          "internalType": "uint256",
          "name": "tokenId",
          "type": "uint256"
        }
      ],
      "name": "ownerOf",
      "outputs": [
        {
          "internalType": "address",
          "name": "",
          "type": "address"
        }
      ],
      "payable": false,
      "stateMutability": "view",
      "type": "function"
    },
    {
      "constant": true,
      "inputs": [
        {
          "internalType": "uint256",
          "name": "",
          "type": "uint256"
        },
        {
          "internalType": "uint256",
          "name": "",
          "type": "uint256"
        }
      ],
      "name": "ownerTracker",
      "outputs": [
        {
          "internalType": "address",
          "name": "owner",
          "type": "address"
        },
        {
          "internalType": "uint256",
          "name": "price",
          "type": "uint256"
        }
      ],
      "payable": false,
      "stateMutability": "view",
      "type": "function"
    },
    {
      "constant": true,
      "inputs": [
        {
          "internalType": "uint256",
          "name": "",
          "type": "uint256"
        }
      ],
      "name": "price",
      "outputs": [
        {
          "internalType": "uint256",
          "name": "",
          "type": "uint256"
        }
      ],
      "payable": false,
      "stateMutability": "view",
      "type": "function"
    },
    {
      "constant": true,
      "inputs": [],
      "name": "questionId",
      "outputs": [
        {
          "internalType": "bytes32",
          "name": "",
          "type": "bytes32"
        }
      ],
      "payable": false,
      "stateMutability": "view",
      "type": "function"
    },
    {
      "constant": true,
      "inputs": [],
      "name": "questionResolvedInvalid",
      "outputs": [
        {
          "internalType": "bool",
          "name": "",
          "type": "bool"
        }
      ],
      "payable": false,
      "stateMutability": "view",
      "type": "function"
    },
    {
      "constant": true,
      "inputs": [],
      "name": "realitio",
      "outputs": [
        {
          "internalType": "contract Realitio",
          "name": "",
          "type": "address"
        }
      ],
      "payable": false,
      "stateMutability": "view",
      "type": "function"
    },
    {
      "constant": false,
      "inputs": [
        {
          "internalType": "address",
          "name": "from",
          "type": "address"
        },
        {
          "internalType": "address",
          "name": "to",
          "type": "address"
        },
        {
          "internalType": "uint256",
          "name": "tokenId",
          "type": "uint256"
        }
      ],
      "name": "safeTransferFrom",
      "outputs": [],
      "payable": false,
      "stateMutability": "nonpayable",
      "type": "function"
    },
    {
      "constant": false,
      "inputs": [
        {
          "internalType": "address",
          "name": "from",
          "type": "address"
        },
        {
          "internalType": "address",
          "name": "to",
          "type": "address"
        },
        {
          "internalType": "uint256",
          "name": "tokenId",
          "type": "uint256"
        },
        {
          "internalType": "bytes",
          "name": "_data",
          "type": "bytes"
        }
      ],
      "name": "safeTransferFrom",
      "outputs": [],
      "payable": false,
      "stateMutability": "nonpayable",
      "type": "function"
    },
    {
      "constant": false,
      "inputs": [
        {
          "internalType": "address",
          "name": "to",
          "type": "address"
        },
        {
          "internalType": "bool",
          "name": "approved",
          "type": "bool"
        }
      ],
      "name": "setApprovalForAll",
      "outputs": [],
      "payable": false,
      "stateMutability": "nonpayable",
      "type": "function"
    },
    {
      "constant": true,
      "inputs": [],
      "name": "step2Complete",
      "outputs": [
        {
          "internalType": "bool",
          "name": "",
          "type": "bool"
        }
      ],
      "payable": false,
      "stateMutability": "view",
      "type": "function"
    },
    {
      "constant": true,
      "inputs": [
        {
          "internalType": "bytes4",
          "name": "interfaceId",
          "type": "bytes4"
        }
      ],
      "name": "supportsInterface",
      "outputs": [
        {
          "internalType": "bool",
          "name": "",
          "type": "bool"
        }
      ],
      "payable": false,
      "stateMutability": "view",
      "type": "function"
    },
    {
      "constant": true,
      "inputs": [],
      "name": "symbol",
      "outputs": [
        {
          "internalType": "string",
          "name": "",
          "type": "string"
        }
      ],
      "payable": false,
      "stateMutability": "view",
      "type": "function"
    },
    {
      "constant": true,
      "inputs": [
        {
          "internalType": "uint256",
          "name": "",
          "type": "uint256"
        }
      ],
      "name": "timeAcquired",
      "outputs": [
        {
          "internalType": "uint256",
          "name": "",
          "type": "uint256"
        }
      ],
      "payable": false,
      "stateMutability": "view",
      "type": "function"
    },
    {
      "constant": true,
      "inputs": [
        {
          "internalType": "uint256",
          "name": "",
          "type": "uint256"
        },
        {
          "internalType": "address",
          "name": "",
          "type": "address"
        }
      ],
      "name": "timeHeld",
      "outputs": [
        {
          "internalType": "uint256",
          "name": "",
          "type": "uint256"
        }
      ],
      "payable": false,
      "stateMutability": "view",
      "type": "function"
    },
    {
      "constant": true,
      "inputs": [
        {
          "internalType": "uint256",
          "name": "",
          "type": "uint256"
        }
      ],
      "name": "timeLastCollected",
      "outputs": [
        {
          "internalType": "uint256",
          "name": "",
          "type": "uint256"
        }
      ],
      "payable": false,
      "stateMutability": "view",
      "type": "function"
    },
    {
      "constant": true,
      "inputs": [
        {
          "internalType": "uint256",
          "name": "index",
          "type": "uint256"
        }
      ],
      "name": "tokenByIndex",
      "outputs": [
        {
          "internalType": "uint256",
          "name": "",
          "type": "uint256"
        }
      ],
      "payable": false,
      "stateMutability": "view",
      "type": "function"
    },
    {
      "constant": true,
      "inputs": [
        {
          "internalType": "address",
          "name": "owner",
          "type": "address"
        },
        {
          "internalType": "uint256",
          "name": "index",
          "type": "uint256"
        }
      ],
      "name": "tokenOfOwnerByIndex",
      "outputs": [
        {
          "internalType": "uint256",
          "name": "",
          "type": "uint256"
        }
      ],
      "payable": false,
      "stateMutability": "view",
      "type": "function"
    },
    {
      "constant": true,
      "inputs": [
        {
          "internalType": "uint256",
          "name": "tokenId",
          "type": "uint256"
        }
      ],
      "name": "tokenURI",
      "outputs": [
        {
          "internalType": "string",
          "name": "",
          "type": "string"
        }
      ],
      "payable": false,
      "stateMutability": "view",
      "type": "function"
    },
    {
      "constant": true,
      "inputs": [],
      "name": "totalCollected",
      "outputs": [
        {
          "internalType": "uint256",
          "name": "",
          "type": "uint256"
        }
      ],
      "payable": false,
      "stateMutability": "view",
      "type": "function"
    },
    {
      "constant": true,
      "inputs": [],
      "name": "totalSupply",
      "outputs": [
        {
          "internalType": "uint256",
          "name": "",
          "type": "uint256"
        }
      ],
      "payable": false,
      "stateMutability": "view",
      "type": "function"
    },
    {
      "constant": true,
      "inputs": [
        {
          "internalType": "uint256",
          "name": "",
          "type": "uint256"
        }
      ],
      "name": "totalTimeHeld",
      "outputs": [
        {
          "internalType": "uint256",
          "name": "",
          "type": "uint256"
        }
      ],
      "payable": false,
      "stateMutability": "view",
      "type": "function"
    },
    {
      "constant": false,
      "inputs": [
        {
          "internalType": "address",
          "name": "from",
          "type": "address"
        },
        {
          "internalType": "address",
          "name": "to",
          "type": "address"
        },
        {
          "internalType": "uint256",
          "name": "tokenId",
          "type": "uint256"
        }
      ],
      "name": "transferFrom",
      "outputs": [],
      "payable": false,
      "stateMutability": "nonpayable",
      "type": "function"
    },
    {
      "constant": true,
      "inputs": [],
      "name": "winningOutcome",
      "outputs": [
        {
          "internalType": "uint256",
          "name": "",
          "type": "uint256"
        }
      ],
      "payable": false,
      "stateMutability": "view",
      "type": "function"
    },
    {
      "constant": false,
      "inputs": [],
      "name": "mintNfts",
      "outputs": [],
      "payable": false,
      "stateMutability": "nonpayable",
      "type": "function"
    },
    {
      "constant": true,
      "inputs": [
        {
          "internalType": "uint256",
          "name": "_tokenId",
          "type": "uint256"
        }
      ],
      "name": "rentOwed",
      "outputs": [
        {
          "internalType": "uint256",
          "name": "",
          "type": "uint256"
        }
      ],
      "payable": false,
      "stateMutability": "view",
      "type": "function"
    },
    {
      "constant": true,
      "inputs": [
        {
          "internalType": "uint256",
          "name": "_tokenId",
          "type": "uint256"
        },
        {
          "internalType": "uint256",
          "name": "_index",
          "type": "uint256"
        }
      ],
      "name": "getOwnerTrackerPrice",
      "outputs": [
        {
          "internalType": "uint256",
          "name": "",
          "type": "uint256"
        }
      ],
      "payable": false,
      "stateMutability": "view",
      "type": "function"
    },
    {
      "constant": true,
      "inputs": [
        {
          "internalType": "uint256",
          "name": "_tokenId",
          "type": "uint256"
        },
        {
          "internalType": "uint256",
          "name": "_index",
          "type": "uint256"
        }
      ],
      "name": "getOwnerTrackerAddress",
      "outputs": [
        {
          "internalType": "address",
          "name": "",
          "type": "address"
        }
      ],
      "payable": false,
      "stateMutability": "view",
      "type": "function"
    },
    {
      "constant": true,
      "inputs": [
        {
          "internalType": "uint256",
          "name": "_tokenId",
          "type": "uint256"
        }
      ],
      "name": "liveDepositAbleToWithdraw",
      "outputs": [
        {
          "internalType": "uint256",
          "name": "",
          "type": "uint256"
        }
      ],
      "payable": false,
      "stateMutability": "view",
      "type": "function"
    },
    {
      "constant": true,
      "inputs": [
        {
          "internalType": "uint256",
          "name": "_tokenId",
          "type": "uint256"
        }
      ],
      "name": "userDepositAbleToWithdraw",
      "outputs": [
        {
          "internalType": "uint256",
          "name": "",
          "type": "uint256"
        }
      ],
      "payable": false,
      "stateMutability": "view",
      "type": "function"
    },
    {
      "constant": true,
      "inputs": [
        {
          "internalType": "uint256",
          "name": "_tokenId",
          "type": "uint256"
        }
      ],
      "name": "rentalExpiryTime",
      "outputs": [
        {
          "internalType": "uint256",
          "name": "",
          "type": "uint256"
        }
      ],
      "payable": false,
      "stateMutability": "view",
      "type": "function"
    },
    {
      "constant": false,
      "inputs": [],
      "name": "step1checkMarketEnded",
      "outputs": [],
      "payable": false,
      "stateMutability": "nonpayable",
      "type": "function"
    },
    {
      "constant": false,
      "inputs": [],
      "name": "step2getWinner",
      "outputs": [],
      "payable": false,
      "stateMutability": "nonpayable",
      "type": "function"
    },
    {
      "constant": false,
      "inputs": [],
      "name": "step2BemergencyExit",
      "outputs": [],
      "payable": false,
      "stateMutability": "nonpayable",
      "type": "function"
    },
    {
      "constant": false,
      "inputs": [],
      "name": "step2CcircuitBreaker",
      "outputs": [],
      "payable": false,
      "stateMutability": "nonpayable",
      "type": "function"
    },
    {
      "constant": false,
      "inputs": [],
      "name": "complete",
      "outputs": [],
      "payable": false,
      "stateMutability": "nonpayable",
      "type": "function"
    },
    {
      "constant": false,
      "inputs": [],
      "name": "withdrawDepositAfterMarketEnded",
      "outputs": [],
      "payable": false,
      "stateMutability": "nonpayable",
      "type": "function"
    },
    {
      "constant": false,
      "inputs": [],
      "name": "collectRentAllTokens",
      "outputs": [],
      "payable": false,
      "stateMutability": "nonpayable",
      "type": "function"
    },
    {
      "constant": false,
      "inputs": [
        {
          "internalType": "uint256",
          "name": "_newPrice",
          "type": "uint256"
        },
        {
          "internalType": "uint256",
          "name": "_tokenId",
          "type": "uint256"
        },
        {
          "internalType": "uint256",
          "name": "_deposit",
          "type": "uint256"
        }
      ],
      "name": "newRental",
      "outputs": [],
      "payable": false,
      "stateMutability": "nonpayable",
      "type": "function"
    },
    {
      "constant": false,
      "inputs": [
        {
          "internalType": "uint256",
          "name": "_dai",
          "type": "uint256"
        },
        {
          "internalType": "uint256",
          "name": "_tokenId",
          "type": "uint256"
        }
      ],
      "name": "depositDai",
      "outputs": [],
      "payable": false,
      "stateMutability": "nonpayable",
      "type": "function"
    },
    {
      "constant": false,
      "inputs": [
        {
          "internalType": "uint256",
          "name": "_newPrice",
          "type": "uint256"
        },
        {
          "internalType": "uint256",
          "name": "_tokenId",
          "type": "uint256"
        }
      ],
      "name": "changePrice",
      "outputs": [],
      "payable": false,
      "stateMutability": "nonpayable",
      "type": "function"
    },
    {
      "constant": false,
      "inputs": [
        {
          "internalType": "uint256",
          "name": "_dai",
          "type": "uint256"
        },
        {
          "internalType": "uint256",
          "name": "_tokenId",
          "type": "uint256"
        }
      ],
      "name": "withdrawDeposit",
      "outputs": [],
      "payable": false,
      "stateMutability": "nonpayable",
      "type": "function"
    },
    {
      "constant": false,
      "inputs": [
        {
          "internalType": "uint256",
          "name": "_tokenId",
          "type": "uint256"
        }
      ],
      "name": "exit",
      "outputs": [],
      "payable": false,
      "stateMutability": "nonpayable",
      "type": "function"
    }
  ],
  "bytecode": "0x60806040526062805460ff1916905561a4556063556064805462ffffff60201b191666010000000000001790553480156200003957600080fd5b5060405162004e0e38038062004e0e833981810160405260808110156200005f57600080fd5b50805160208083015160408085015160609095015181518083018352600b81527f486f646c466163746f7279000000000000000000000000000000000000000000818601528251808401909352600483527f484f444c0000000000000000000000000000000000000000000000000000000094830194909452939491939192908181620001157f01ffc9a7000000000000000000000000000000000000000000000000000000006001600160e01b036200029e16565b620001497f80ac58cd000000000000000000000000000000000000000000000000000000006001600160e01b036200029e16565b6200017d7f780e9d63000000000000000000000000000000000000000000000000000000006001600160e01b036200029e16565b815162000192906009906020850190620004bb565b508051620001a890600a906020840190620004bb565b50620001dd7f5b5e139f000000000000000000000000000000000000000000000000000000006001600160e01b036200029e16565b50506064805463ffffffff191663ffffffff85161790555050600f80546001600160a01b03199081166001600160a01b0387811691909117909255600d80548216858416179055600e8054909116918516919091179055604080516060808201909252602c808252600292919062004de26020830139905073a6ead513d05347138184324392d8ceb24c116118620151808460006200028a8686868686866001600160e01b036200036d16565b606155506200056098505050505050505050565b7fffffffff0000000000000000000000000000000000000000000000000000000080821614156200033057604080517f08c379a000000000000000000000000000000000000000000000000000000000815260206004820152601c60248201527f4552433136353a20696e76616c696420696e7465726661636520696400000000604482015290519081900360640190fd5b7fffffffff00000000000000000000000000000000000000000000000000000000166000908152602081905260409020805460ff19166001179055565b6000600d60009054906101000a90046001600160a01b03166001600160a01b031663762c38fd8888888888886040518763ffffffff1660e01b81526004018087815260200180602001866001600160a01b03166001600160a01b031681526020018563ffffffff1663ffffffff1681526020018463ffffffff1663ffffffff168152602001838152602001828103825287818151815260200191508051906020019080838360005b838110156200042f57818101518382015260200162000415565b50505050905090810190601f1680156200045d5780820380516001836020036101000a031916815260200191505b50975050505050505050602060405180830381600087803b1580156200048257600080fd5b505af115801562000497573d6000803e3d6000fd5b505050506040513d6020811015620004ae57600080fd5b5051979650505050505050565b828054600181600116156101000203166002900490600052602060002090601f016020900481019282601f10620004fe57805160ff19168380011785556200052e565b828001600101855582156200052e579182015b828111156200052e57825182559160200191906001019062000511565b506200053c92915062000540565b5090565b6200055d91905b808211156200053c576000815560010162000547565b90565b61487280620005706000396000f3fe608060405234801561001057600080fd5b50600436106103785760003560e01c80637dab5819116101d3578063b3de019c11610104578063f015e54e116100a2578063f88489c21161007c578063f88489c214610a0c578063f9f16ef214610a52578063fc1ba51114610a5a578063fce0eb0214610a6257610378565b8063f015e54e146109c4578063f06197b7146109e1578063f69a131414610a0457610378565b8063bc8802a2116100de578063bc8802a214610969578063c87b56dd14610971578063e29eb8361461098e578063e985e9c51461099657610378565b8063b3de019c1461085f578063b88d4fde14610882578063bae04c9a1461094657610378565b806397b4550a11610171578063a36252bf1161014b578063a36252bf1461082a578063adfbe13c14610847578063af81ebf81461084f578063b06a5c521461085757610378565b806397b4550a146107d15780639b34ae03146107f4578063a22cb465146107fc57610378565b80638cb68899116101ad5780638cb688991461078357806395d89b41146107a0578063961be391146107a8578063977f1b28146107b057610378565b80637dab5819146107565780637f8661a11461075e57806383b163a01461077b57610378565b806343ac0ecb116102ad5780635dfd7e9b1161024b57806370a082311161022557806370a08231146106d057806370a23f75146106f657806373a5226f146107135780637c1bfa541461073057610378565b80635dfd7e9b146106885780636352211e146106ab5780636c0360eb146106c857610378565b80634f6ccce7116102875780634f6ccce71461061a578063522e11771461063757806353a58de11461063f5780635b2ace641461066b57610378565b806343ac0ecb146105ed57806347254f4f1461060a57806349d4d6b71461061257610378565b806326a49e371161031a578063340547a6116102f4578063340547a61461057e5780633f17e86f1461058657806342842e0e146105af57806343a7f4aa146105e557610378565b806326a49e37146105185780632f745c591461053557806332f2b04d1461056157610378565b8063095ea7b311610356578063095ea7b31461046e57806318160ddd1461049c578063237b5e4f146104b657806323b872dd146104e257610378565b806301ffc9a71461037d57806306fdde03146103b8578063081812fc14610435575b600080fd5b6103a46004803603602081101561039357600080fd5b50356001600160e01b031916610a7f565b604080519115158252519081900360200190f35b6103c0610aa2565b6040805160208082528351818301528351919283929083019185019080838360005b838110156103fa5781810151838201526020016103e2565b50505050905090810190601f1680156104275780820380516001836020036101000a031916815260200191505b509250505060405180910390f35b6104526004803603602081101561044b57600080fd5b5035610b39565b604080516001600160a01b039092168252519081900360200190f35b61049a6004803603604081101561048457600080fd5b506001600160a01b038135169060200135610b9b565b005b6104a4610cc3565b60408051918252519081900360200190f35b6104a4600480360360408110156104cc57600080fd5b50803590602001356001600160a01b0316610cc9565b61049a600480360360608110156104f857600080fd5b506001600160a01b03813581169160208101359091169060400135610ce6565b6104a46004803603602081101561052e57600080fd5b5035610d42565b6104a46004803603604081101561054b57600080fd5b506001600160a01b038135169060200135610d56565b6104a46004803603602081101561057757600080fd5b5035610dd6565b6103a4610e62565b61049a6004803603606081101561059c57600080fd5b5080359060208101359060400135610e72565b61049a600480360360608110156105c557600080fd5b506001600160a01b0381358116916020810135909116906040013561120f565b6103a461122a565b6104a46004803603602081101561060357600080fd5b503561123a565b6103a461124c565b61049a61125c565b6104a46004803603602081101561063057600080fd5b50356113c5565b61049a61142b565b6104a46004803603604081101561065557600080fd5b50803590602001356001600160a01b03166114b6565b6104a46004803603602081101561068157600080fd5b50356114d3565b61049a6004803603604081101561069e57600080fd5b50803590602001356114e0565b610452600480360360208110156106c157600080fd5b50356115dc565b6103c0611630565b6104a4600480360360208110156106e657600080fd5b50356001600160a01b0316611691565b6104a46004803603602081101561070c57600080fd5b50356116f9565b6104a46004803603602081101561072957600080fd5b5035611731565b6104a46004803603602081101561074657600080fd5b50356001600160a01b03166117d4565b61049a6117e6565b61049a6004803603602081101561077457600080fd5b50356118f6565b61049a6119d6565b6104a46004803603602081101561079957600080fd5b5035611dc9565b6103c0611dd6565b610452611e37565b6107b8611e46565b6040805163ffffffff9092168252519081900360200190f35b610452600480360360408110156107e757600080fd5b5080359060200135611e52565b6104a4611e78565b61049a6004803603604081101561081257600080fd5b506001600160a01b0381351690602001351515611e7e565b6104a46004803603602081101561084057600080fd5b5035611f83565b61049a611f95565b61049a612002565b6104a461210e565b61049a6004803603604081101561087557600080fd5b5080359060200135612114565b61049a6004803603608081101561089857600080fd5b6001600160a01b03823581169260208101359091169160408201359190810190608081016060820135600160201b8111156108d257600080fd5b8201836020820111156108e457600080fd5b803590602001918460018302840111600160201b8311171561090557600080fd5b91908080601f01602080910402602001604051908101604052809392919081815260200183838082843760009201919091525092955061225e945050505050565b61049a6004803603604081101561095c57600080fd5b50803590602001356122b6565b610452612400565b6103c06004803603602081101561098757600080fd5b503561240f565b6104a46125db565b6103a4600480360360408110156109ac57600080fd5b506001600160a01b03813581169160200135166125e1565b6104a4600480360360208110156109da57600080fd5b503561260f565b6104a4600480360360408110156109f757600080fd5b508035906020013561261c565b61049a61263c565b610a2f60048036036040811015610a2257600080fd5b50803590602001356127c3565b604080516001600160a01b03909316835260208301919091528051918290030190f35b6104a46127f3565b61049a6127f8565b6104a460048036036020811015610a7857600080fd5b50356128e7565b6001600160e01b0319811660009081526020819052604090205460ff165b919050565b60098054604080516020601f6002600019610100600188161502019095169490940493840181900481028201810190925282815260609390929091830182828015610b2e5780601f10610b0357610100808354040283529160200191610b2e565b820191906000526020600020905b815481529060010190602001808311610b1157829003601f168201915b505050505090505b90565b6000610b4482612933565b610b7f5760405162461bcd60e51b815260040180806020018281038252602c8152602001806144eb602c913960400191505060405180910390fd5b506000908152600260205260409020546001600160a01b031690565b6000610ba6826115dc565b9050806001600160a01b0316836001600160a01b03161415610bf95760405162461bcd60e51b81526004018080602001828103825260218152602001806146ac6021913960400191505060405180910390fd5b806001600160a01b0316610c0b612950565b6001600160a01b03161480610c2c5750610c2c81610c27612950565b6125e1565b610c675760405162461bcd60e51b815260040180806020018281038252603881526020018061432f6038913960400191505060405180910390fd5b60008281526002602052604080822080546001600160a01b0319166001600160a01b0387811691821790925591518593918516917f8c5be1e5ebec7d5bd14f71427d1e84f3dd0314c0f7b2291e5b200ac8c7c3b92591a4505050565b60075490565b606660209081526000928352604080842090915290825290205481565b610cf7610cf1612950565b82612954565b610d325760405162461bcd60e51b81526004018080602001828103825260318152602001806147816031913960400191505060405180910390fd5b610d3d8383836129f8565b505050565b60108160148110610d4f57fe5b0154905081565b6000610d6183611691565b8210610d9e5760405162461bcd60e51b815260040180806020018281038252602b8152602001806140e2602b913960400191505060405180910390fd5b6001600160a01b0383166000908152600560205260409020805483908110610dc257fe5b906000526020600020015490505b92915050565b600080610de2836116f9565b90506000610def846115dc565b60008581526068602090815260408083206001600160a01b03851684529091529020549091508210610e2657600092505050610a9d565b60008481526068602090815260408083206001600160a01b0385168452909152902054610e59908363ffffffff612a1716565b92505050610a9d565b606454600160201b900460ff1681565b8160148110610eb6576040805162461bcd60e51b8152602060048201526019602482015260008051602061440e833981519152604482015290519081900360640190fd5b8160008111610f08576040805162461bcd60e51b8152602060048201526019602482015278416d6f756e74206d7573742062652061626f7665207a65726f60381b604482015290519081900360640190fd5b606454600160201b900460ff1615610f55576040805162461bcd60e51b815260206004820152601a602482015260008051602061461f833981519152604482015290519081900360640190fd5b60625460ff16610f9f576040805162461bcd60e51b815260206004820152601060248201526f1391951cc8191bdb89dd08195e1a5cdd60821b604482015290519081900360640190fd5b6000610fd2600a610fc6600b60108960148110610fb857fe5b01549063ffffffff612a6016565b9063ffffffff612ab916565b90506000610fe787601863ffffffff612ab916565b9050818710156110285760405162461bcd60e51b81526004018080602001828103825260348152602001806142776034913960400191505060405180910390fd5b808510156110675760405162461bcd60e51b81526004018080602001828103825260308152602001806144696030913960400191505060405180910390fd5b662386f26fc100008710156110c3576040805162461bcd60e51b815260206004820152601760248201527f4d696e696d756d2072656e74616c20302e303120446169000000000000000000604482015290519081900360640190fd5b6110cc86612afb565b6110d68587612dfd565b60006110e1876115dc565b90506001600160a01b038116331415611103576110fe8888612e82565b611205565b6111236001604d896014811061111557fe5b01549063ffffffff612f0216565b604d886014811061113057fe5b015560008781526065602052604081208991604d8a6014811061114f57fe5b015481526020019081526020016000206001018190555033606560008981526020019081526020016000206000604d8a6014811061118957fe5b01548152602081019190915260400160002080546001600160a01b0319166001600160a01b039290921691909117905542603988601481106111c757fe5b01556111d581338a8a612f5c565b6040518790899033907ff31de299869a9c4bcad2bafc2e290031d2a7102799d817cb41b090e6a1dd6d4790600090a45b5050505050505050565b610d3d8383836040518060200160405280600081525061225e565b606454600160281b900460ff1681565b606a6020526000908152604090205481565b606454600160301b900460ff1681565b606454600160201b900460ff1615156001146112bf576040805162461bcd60e51b815260206004820152601b60248201527f4d757374207761697420666f72206d61726b657420746f20656e640000000000604482015290519081900360640190fd5b606454600160281b900460ff161561131e576040805162461bcd60e51b815260206004820181905260248201527f53746570322063616e206f6e6c7920626520636f6d706c65746564206f6e6365604482015290519081900360640190fd5b600f546001600160a01b0316331461137d576040805162461bcd60e51b815260206004820152601860248201527f4f6e6c79206f776e65722063616e2063616c6c20746869730000000000000000604482015290519081900360640190fd5b6064805465ff00000000001916600160281b1790556063546040516000919082907f311895ae40783b00783a8fd9ec16fd07ec9750f9a59dbd5557d209699d9a6546908290a4565b60006113cf610cc3565b821061140c5760405162461bcd60e51b815260040180806020018281038252602c8152602001806147e0602c913960400191505060405180910390fd5b6007828154811061141957fe5b90600052602060002001549050919050565b606454600160281b900460ff16151560011461148e576040805162461bcd60e51b815260206004820152601d60248201527f5374657032206d75737420626520636f6d706c65746564206669727374000000604482015290519081900360640190fd5b606454600160301b900460ff166114ac576114a7612fe8565b6114b4565b6114b46130d8565b565b606860209081526000928352604080842090915290825290205481565b60398160148110610d4f57fe5b8160008111611532576040805162461bcd60e51b8152602060048201526019602482015278416d6f756e74206d7573742062652061626f7665207a65726f60381b604482015290519081900360640190fd5b8160148110611576576040805162461bcd60e51b8152602060048201526019602482015260008051602061440e833981519152604482015290519081900360640190fd5b606454600160201b900460ff16156115c3576040805162461bcd60e51b815260206004820152601a602482015260008051602061461f833981519152604482015290519081900360640190fd5b6115cc83612afb565b6115d68484612dfd565b50505050565b6000818152600160205260408120546001600160a01b031680610dd05760405162461bcd60e51b81526004018080602001828103825260298152602001806143916029913960400191505060405180910390fd5b600b8054604080516020601f6002600019610100600188161502019095169490940493840181900481028201810190925282815260609390929091830182828015610b2e5780601f10610b0357610100808354040283529160200191610b2e565b60006001600160a01b0382166116d85760405162461bcd60e51b815260040180806020018281038252602a815260200180614367602a913960400191505060405180910390fd5b6001600160a01b0382166000908152600360205260409020610dd09061316e565b6000610dd062015180610fc66117246025866014811061171557fe5b0154429063ffffffff612a1716565b60108660148110610fb857fe5b60008061173d836116f9565b9050600061174a846115dc565b90506001600160a01b0381163314156117b2576000848152606860209081526040808320338452909152902054821061178857600092505050610a9d565b6000848152606860209081526040808320338452909152902054610e59908363ffffffff612a1716565b5050506000818152606860209081526040808320338452909152902054610a9d565b60696020526000908152604090205481565b606454600160201b900460ff161515600114611849576040805162461bcd60e51b815260206004820152601b60248201527f4d757374207761697420666f72206d61726b657420746f20656e640000000000604482015290519081900360640190fd5b606454600160281b900460ff16156118a8576040805162461bcd60e51b815260206004820181905260248201527f53746570322063616e206f6e6c7920626520636f6d706c65746564206f6e6365604482015290519081900360640190fd5b6064546224ea0063ffffffff9182160116421161137d5760405162461bcd60e51b81526004018080602001828103825260278152602001806141cc6027913960400191505060405180910390fd5b806014811061193a576040805162461bcd60e51b8152602060048201526019602482015260008051602061440e833981519152604482015290519081900360640190fd5b606454600160201b900460ff1615611987576040805162461bcd60e51b815260206004820152601a602482015260008051602061461f833981519152604482015290519081900360640190fd5b6000828152606860209081526040808320338452909152902054156119d25760405182907f49808a584bb421df5b5b1482fabe4038c32b38c798fc068b8e426274afd93d5290600090a25b5050565b60625460ff1615611a24576040805162461bcd60e51b8152602060048201526013602482015272105b1c9958591e481a5b9a5d1a585b1a5e9959606a1b604482015290519081900360640190fd5b6062805460ff19166001179055611a3c306000613172565b611a5f600060405180606001604052806034815260200161407b6034913961318f565b611a6a306001613172565b611a8d60016040518060600160405280602c81526020016145c5602c913961318f565b611a98306002613172565b611abb60026040518060600160405280603181526020016141f36031913961318f565b611ac6306003613172565b611ae9600360405180606001604052806032815260200161480c6032913961318f565b611af4306004613172565b611b1760046040518060600160405280602a815260200161459b602a913961318f565b611b22306005613172565b611b4560056040518060600160405280603481526020016141986034913961318f565b611b50306006613172565b611b7360066040518060600160405280603a8152602001614672603a913961318f565b611b7e306007613172565b611ba1600760405180606001604052806033815260200161463f6033913961318f565b611bac306008613172565b611bcf60086040518060600160405280603181526020016144996031913961318f565b611bda306009613172565b611bfd60096040518060600160405280602a8152602001614305602a913961318f565b611c0830600a613172565b611c2b600a6040518060600160405280602a81526020016143ba602a913961318f565b611c3630600b613172565b611c59600b6040518060600160405280602e81526020016142d7602e913961318f565b611c6430600c613172565b611c87600c6040518060600160405280603381526020016140af6033913961318f565b611c9230600d613172565b611cb5600d6040518060600160405280603b815260200161442e603b913961318f565b611cc030600e613172565b611ce3600e6040518060600160405280602a81526020016146cd602a913961318f565b611cee30600f613172565b611d11600f6040518060600160405280603281526020016146f76032913961318f565b611d1c306010613172565b611d3f60106040518060600160405280602e8152602001614753602e913961318f565b611d4a306011613172565b611d6d60116040518060600160405280602e815260200161413f602e913961318f565b611d78306012613172565b611d9b60126040518060600160405280602a81526020016143e4602a913961318f565b611da6306013613172565b6114b460136040518060600160405280602f8152602001614248602f913961318f565b60258160148110610d4f57fe5b600a8054604080516020601f6002600019610100600188161502019095169490940493840181900481028201810190925282815260609390929091830182828015610b2e5780601f10610b0357610100808354040283529160200191610b2e565b600e546001600160a01b031681565b60645463ffffffff1681565b60009182526065602090815260408084209284529190529020546001600160a01b031690565b60635481565b611e86612950565b6001600160a01b0316826001600160a01b03161415611eec576040805162461bcd60e51b815260206004820152601960248201527f4552433732313a20617070726f766520746f2063616c6c657200000000000000604482015290519081900360640190fd5b8060046000611ef9612950565b6001600160a01b03908116825260208083019390935260409182016000908120918716808252919093529120805460ff191692151592909217909155611f3d612950565b60408051841515815290516001600160a01b0392909216917f17307eab39ab6107e8899845ad3d59bd9653f200f220920489ca2b5937696c319181900360200190a35050565b60676020526000908152604090205481565b606454600160201b900460ff1615611fe2576040805162461bcd60e51b815260206004820152601a602482015260008051602061461f833981519152604482015290519081900360640190fd5b60005b6014811015611fff57611ff781612afb565b600101611fe5565b50565b606454600160201b900460ff1615612061576040805162461bcd60e51b815260206004820181905260248201527f53746570312063616e206f6e6c7920626520636f6d706c65746564206f6e6365604482015290519081900360640190fd5b606454610e0f19420163ffffffff909116106120c4576040805162461bcd60e51b815260206004820152601b60248201527f4d61726b657420686173206e6f742066696e6973686564207965740000000000604482015290519081900360640190fd5b6120cc611f95565b6064805464ff000000001916600160201b1790556040516001907f78f999e75feb0a891f8d2eab8e6babef9caef4444d0b1bfae9c50a610436902d90600090a2565b60615481565b8060148110612158576040805162461bcd60e51b8152602060048201526019602482015260008051602061440e833981519152604482015290519081900360640190fd5b606454600160201b900460ff16156121a5576040805162461bcd60e51b815260206004820152601a602482015260008051602061461f833981519152604482015290519081900360640190fd5b601082601481106121b257fe5b015483116121f15760405162461bcd60e51b815260040180806020018281038252602b81526020018061416d602b913960400191505060405180910390fd5b6121fa826115dc565b6001600160a01b0316336001600160a01b03161461224b576040805162461bcd60e51b81526020600482015260096024820152682737ba1037bbb732b960b91b604482015290519081900360640190fd5b61225482612afb565b610d3d8383612e82565b61226f612269612950565b83612954565b6122aa5760405162461bcd60e51b81526004018080602001828103825260318152602001806147816031913960400191505060405180910390fd5b6115d6848484846131f2565b8160008111612308576040805162461bcd60e51b8152602060048201526019602482015278416d6f756e74206d7573742062652061626f7665207a65726f60381b604482015290519081900360640190fd5b816014811061234c576040805162461bcd60e51b8152602060048201526019602482015260008051602061440e833981519152604482015290519081900360640190fd5b606454600160201b900460ff1615612399576040805162461bcd60e51b815260206004820152601a602482015260008051602061461f833981519152604482015290519081900360640190fd5b6123a283612afb565b6000838152606860209081526040808320338452909152902054156115d6576123cb8484613244565b6040513390849086907ff02d3ef90a5110daf1fc2ab511a90b5c3fc58591405de80c06dfff0fd6b42ea890600090a450505050565b600d546001600160a01b031681565b606061241a82612933565b6124555760405162461bcd60e51b815260040180806020018281038252602f81526020018061456c602f913960400191505060405180910390fd5b6000828152600c602090815260409182902080548351601f60026000196101006001861615020190931692909204918201849004840281018401909452808452606093928301828280156124ea5780601f106124bf576101008083540402835291602001916124ea565b820191906000526020600020905b8154815290600101906020018083116124cd57829003601f168201915b50505050509050805160001415612511575050604080516020810190915260008152610a9d565b600b8160405160200180838054600181600116156101000203166002900480156125725780601f10612550576101008083540402835291820191612572565b820191906000526020600020905b81548152906001019060200180831161255e575b5050825160208401908083835b6020831061259e5780518252601f19909201916020918201910161257f565b6001836020036101000a03801982511681845116808217855250505050505090500192505050604051602081830303815290604052915050610a9d565b60245481565b6001600160a01b03918216600090815260046020908152604080832093909416825291909152205460ff1690565b604d8160148110610d4f57fe5b600091825260656020908152604080842092845291905290206001015490565b606454600160201b900460ff16151560011461269f576040805162461bcd60e51b815260206004820152601b60248201527f4d757374207761697420666f72206d61726b657420746f20656e640000000000604482015290519081900360640190fd5b606454600160281b900460ff16156126fe576040805162461bcd60e51b815260206004820181905260248201527f53746570322063616e206f6e6c7920626520636f6d706c65746564206f6e6365604482015290519081900360640190fd5b612706613442565b15156001146127465760405162461bcd60e51b815260040180806020018281038252602e8152602001806145f1602e913960400191505060405180910390fd5b61274e6134c2565b60638190556064805465ff00000000001916600160281b17905560001914612781576064805466ff000000000000191690555b606454606354604051600160301b90920460ff161515916001907f311895ae40783b00783a8fd9ec16fd07ec9750f9a59dbd5557d209699d9a654690600090a4565b6065602090815260009283526040808420909152908252902080546001909101546001600160a01b039091169082565b601481565b606454600160201b900460ff16151560011461285b576040805162461bcd60e51b815260206004820152601c60248201527f7374657031206d75737420626520636f6d706c65746520666972737400000000604482015290519081900360640190fd5b60005b6014811015611fff57600081815260686020908152604080832033845290915290205480156128de5760008281526068602090815260408083203380855292528220919091556128ae9082613548565b6040513390839083907ff02d3ef90a5110daf1fc2ab511a90b5c3fc58591405de80c06dfff0fd6b42ea890600090a45b5060010161285e565b60008061290c62015180601085601481106128fe57fe5b01549063ffffffff612ab916565b90508061291c5742915050610a9d565b61292981610fc685610dd6565b4201915050610a9d565b6000908152600160205260409020546001600160a01b0316151590565b3390565b600061295f82612933565b61299a5760405162461bcd60e51b815260040180806020018281038252602c8152602001806142ab602c913960400191505060405180910390fd5b60006129a5836115dc565b9050806001600160a01b0316846001600160a01b031614806129e05750836001600160a01b03166129d584610b39565b6001600160a01b0316145b806129f057506129f081856125e1565b949350505050565b612a03838383613612565b612a0d8382613756565b610d3d828261384b565b6000612a5983836040518060400160405280601e81526020017f536166654d6174683a207375627472616374696f6e206f766572666c6f770000815250613889565b9392505050565b600082612a6f57506000610dd0565b82820282848281612a7c57fe5b0414612a595760405162461bcd60e51b81526004018080602001828103825260218152602001806144ca6021913960400191505060405180910390fd5b6000612a5983836040518060400160405280601a81526020017f536166654d6174683a206469766973696f6e206279207a65726f000000000000815250613920565b606454600160201b900460ff1615612b48576040805162461bcd60e51b815260206004820152601a602482015260008051602061461f833981519152604482015290519081900360640190fd5b30612b52826115dc565b6001600160a01b031614612dea576000612b6b826116f9565b90506000612b78836115dc565b60008481526068602090815260408083206001600160a01b0385168452909152812054919250908310612c345760008481526068602090815260408083206001600160a01b0386168452909152902054612bff90612bf2908590610fc690612be660258a6014811061171557fe5b9063ffffffff612a6016565b6025866014811061111557fe5b60008581526068602090815260408083206001600160a01b038716845290915290205493509050612c2f84613985565b612c37565b50425b60008481526068602090815260408083206001600160a01b0386168452909152902054612c6a908463ffffffff612a1716565b60008581526068602090815260408083206001600160a01b0387168452909152812091909155612caf60258660148110612ca057fe5b0154839063ffffffff612a1716565b60008681526066602090815260408083206001600160a01b0388168452909152902054909150612ce5908263ffffffff612f0216565b60008681526066602090815260408083206001600160a01b0388168452825280832093909355878252606790522054612d24908263ffffffff612f0216565b6000868152606760209081526040808320939093556001600160a01b0386168252606990522054612d5b908563ffffffff612f0216565b6001600160a01b038416600090815260696020908152604080832093909355878252606a90522054612d93908563ffffffff612f0216565b6000868152606a6020526040902055602454612db5908563ffffffff612f0216565b602455604051859085907fbd6a0009de32b24a5a6a1a6d50ef5ad8a8a09b7329cfc44c65b36c3e91bea91d90600090a3505050505b4260258260148110612df857fe5b015550565b6000818152606860209081526040808320338452909152902054612e27908363ffffffff612f0216565b600082815260686020908152604080832033808552925290912091909155612e4f9083613ace565b6040513390829084907fe1f2f21fb1114ab2d2decad00b03b417c36f962c5bb4d917ab391fb546df0e4590600090a45050565b8160108260148110612e9057fe5b015560008181526065602052604081208391604d8460148110612eaf57fe5b015481526020810191909152604001600020600101558060108160148110612ed357fe5b01546040517f4a02295c87a60873dbea741004d8f588cc9f62f944eefe5e5d8ae8e629cc9ddb90600090a35050565b600082820183811015612a59576040805162461bcd60e51b815260206004820152601b60248201527f536166654d6174683a206164646974696f6e206f766572666c6f770000000000604482015290519081900360640190fd5b6001600160a01b03841615801590612f7c57506001600160a01b03831615155b612fcd576040805162461bcd60e51b815260206004820181905260248201527f43616e6e6f742073656e6420746f2f66726f6d207a65726f2061646472657373604482015290519081900360640190fd5b8160108260148110612fdb57fe5b01556115d6848483610ce6565b6063546000908152606660209081526040808320338452909152902054806130415760405162461bcd60e51b815260040180806020018281038252602e8152602001806147b2602e913960400191505060405180910390fd5b60635460009081526066602090815260408083203384529091528120819055602454613073908363ffffffff612a6016565b6063546000908152606760205260408120549192509061309a90839063ffffffff612ab916565b90506130a63382613548565b604051819033907f0e72eb54add8566fa8248d61d8dc2b9953fbec55cfec138cdc887c8e34df495190600090a3505050565b33600090815260696020526040902054806131245760405162461bcd60e51b815260040180806020018281038252602a815260200180614729602a913960400191505060405180910390fd5b3360008181526069602052604081205561313e9082613548565b604051819033907f40db9a7a1327f1f949933daff746d2d9be9f2ff608d832e39b6764f5f15a957390600090a350565b5490565b61317c8282613b2a565b613186828261384b565b6119d281613c5b565b61319882612933565b6131d35760405162461bcd60e51b815260040180806020018281038252602c815260200180614517602c913960400191505060405180910390fd5b6000828152600c602090815260409091208251610d3d92840190613fc2565b6131fd8484846129f8565b61320984848484613c9f565b6115d65760405162461bcd60e51b815260040180806020018281038252603281526020018061410d6032913960400191505060405180910390fd5b60008181526068602090815260408083203384529091529020548211156132a9576040805162461bcd60e51b81526020600482015260146024820152730aed2e8d0c8e4c2eed2dcce40e8dede40daeac6d60631b604482015290519081900360640190fd5b60006132b4826115dc565b90506001600160a01b0381163314156133b457610e1060006132dc6039856014811061171557fe5b9050818110156133b15760006132fa6018601087601481106128fe57fe5b9050600061330e848463ffffffff612a1716565b90506000613328610e10610fc6858563ffffffff612a6016565b60008881526068602090815260408083203384529091529020549091508190613357908a63ffffffff612a1716565b10156133ad576000878152606860209081526040808320338452909152812054613387908a63ffffffff612a1716565b90506133a961339c838363ffffffff612a1716565b8a9063ffffffff612a1716565b9850505b5050505b50505b60008281526068602090815260408083203384529091529020546133de908463ffffffff612a1716565b6000838152606860209081526040808320338085529252909120919091556001600160a01b03821614801561342a57506000828152606860209081526040808320338452909152902054155b156134385761343882613985565b610d3d3384613548565b600d5460615460408051633fc6a14f60e11b81526004810192909252516000926001600160a01b031691637f8d429e916024808301926020929190829003018186803b15801561349157600080fd5b505afa1580156134a5573d6000803e3d6000fd5b505050506040513d60208110156134bb57600080fd5b5051905090565b600d546061546040805163684e62bf60e11b815260048101929092525160009283926001600160a01b039091169163d09cc57e91602480820192602092909190829003018186803b15801561351657600080fd5b505afa15801561352a573d6000803e3d6000fd5b505050506040513d602081101561354057600080fd5b505191505090565b600e546040805163a9059cbb60e01b81526001600160a01b038581166004830152602482018590529151919092169163a9059cbb9160448083019260209291908290030181600087803b15801561359e57600080fd5b505af11580156135b2573d6000803e3d6000fd5b505050506040513d60208110156135c857600080fd5b50516119d2576040805162461bcd60e51b815260206004820152601460248201527310d85cda081d1c985b9cd9995c8819985a5b195960621b604482015290519081900360640190fd5b826001600160a01b0316613625826115dc565b6001600160a01b03161461366a5760405162461bcd60e51b81526004018080602001828103825260298152602001806145436029913960400191505060405180910390fd5b6001600160a01b0382166136af5760405162461bcd60e51b81526004018080602001828103825260248152602001806142246024913960400191505060405180910390fd5b6136b881613eda565b6001600160a01b03831660009081526003602052604090206136d990613f15565b6001600160a01b03821660009081526003602052604090206136fa90613f2c565b60008181526001602052604080822080546001600160a01b0319166001600160a01b0386811691821790925591518493918716917fddf252ad1be2c89b69c2b068fc378daa952ba7f163c4a11628f55a4df523b3ef91a4505050565b6001600160a01b03821660009081526005602052604081205461378090600163ffffffff612a1716565b60008381526006602052604090205490915080821461381b576001600160a01b03841660009081526005602052604081208054849081106137bd57fe5b906000526020600020015490508060056000876001600160a01b03166001600160a01b0316815260200190815260200160002083815481106137fb57fe5b600091825260208083209091019290925591825260069052604090208190555b6001600160a01b0384166000908152600560205260409020805490613844906000198301614040565b5050505050565b6001600160a01b0390911660009081526005602081815260408084208054868652600684529185208290559282526001810183559183529091200155565b600081848411156139185760405162461bcd60e51b81526004018080602001828103825283818151815260200191508051906020019080838360005b838110156138dd5781810151838201526020016138c5565b50505050905090810190601f16801561390a5780820380516001836020036101000a031916815260200191505b509250505060405180910390fd5b505050900390565b6000818361396f5760405162461bcd60e51b81526020600482018181528351602484015283519092839260449091019190850190808383600083156138dd5781810151838201526020016138c5565b50600083858161397b57fe5b0495945050505050565b600080805b600a811015613a41576139b36001604d86601481106139a557fe5b01549063ffffffff612a1716565b604d85601481106139c057fe5b0155604d84601481106139cf57fe5b015460008581526065602090815260408083208484529091529020549093506001600160a01b0316915082613a0c57613a0784613f35565b613a41565b60008481526068602090815260408083206001600160a01b038616845290915290205415613a3957613a41565b60010161398a565b5030613a4c846115dc565b6001600160a01b031614610d3d576000613a65846115dc565b6000858152606560209081526040808320878452909152902060010154909150613a9182848388612f5c565b6040516001600160a01b0384169086907fdcd7d049706cf89eb40b5726d483d3aa2001e43b729f0f411cdda43c2fe59f5290600090a35050505050565b600e54604080516323b872dd60e01b81526001600160a01b03858116600483015230602483015260448201859052915191909216916323b872dd9160648083019260209291908290030181600087803b15801561359e57600080fd5b6001600160a01b038216613b85576040805162461bcd60e51b815260206004820181905260248201527f4552433732313a206d696e7420746f20746865207a65726f2061646472657373604482015290519081900360640190fd5b613b8e81612933565b15613be0576040805162461bcd60e51b815260206004820152601c60248201527f4552433732313a20746f6b656e20616c7265616479206d696e74656400000000604482015290519081900360640190fd5b600081815260016020908152604080832080546001600160a01b0319166001600160a01b038716908117909155835260039091529020613c1f90613f2c565b60405181906001600160a01b038416906000907fddf252ad1be2c89b69c2b068fc378daa952ba7f163c4a11628f55a4df523b3ef908290a45050565b600780546000838152600860205260408120829055600182018355919091527fa66cc928b5edb82af9bd49922954155ab7b0942694bea4ce44661d9a8736c6880155565b6000613cb3846001600160a01b0316613f89565b613cbf575060016129f0565b600060606001600160a01b038616630a85bd0160e11b613cdd612950565b89888860405160240180856001600160a01b03166001600160a01b03168152602001846001600160a01b03166001600160a01b0316815260200183815260200180602001828103825283818151815260200191508051906020019080838360005b83811015613d56578181015183820152602001613d3e565b50505050905090810190601f168015613d835780820380516001836020036101000a031916815260200191505b5060408051601f198184030181529181526020820180516001600160e01b03166001600160e01b0319909a16999099178952518151919890975087965094509250829150849050835b60208310613deb5780518252601f199092019160209182019101613dcc565b6001836020036101000a0380198251168184511680821785525050505050509050019150506000604051808303816000865af19150503d8060008114613e4d576040519150601f19603f3d011682016040523d82523d6000602084013e613e52565b606091505b509150915081613ea357805115613e6c5780518082602001fd5b60405162461bcd60e51b815260040180806020018281038252603281526020018061410d6032913960400191505060405180910390fd5b6000818060200190516020811015613eba57600080fd5b50516001600160e01b031916630a85bd0160e11b1493506129f092505050565b6000818152600260205260409020546001600160a01b031615611fff57600090815260026020526040902080546001600160a01b0319169055565b8054613f2890600163ffffffff612a1716565b9055565b80546001019055565b6000613f40826115dc565b9050613f4f8130600085612f5c565b60405182906001600160a01b038316907fafcc8a4b82e5204af0a7a41fc84d1d60492410d031ee4ea1769a4f90fd1fb59d90600090a35050565b6000813f7fc5d2460186f7233c927e7db2dcc703c0e500b653ca82273b7bfad8045d85a4708181148015906129f0575050151592915050565b828054600181600116156101000203166002900490600052602060002090601f016020900481019282601f1061400357805160ff1916838001178555614030565b82800160010185558215614030579182015b82811115614030578251825591602001919060010190614015565b5061403c929150614060565b5090565b815481835581811115610d3d57600083815260209020610d3d9181019083015b610b3691905b8082111561403c576000815560010161406656fe68747470733a2f2f656e2e77696b6970656469612e6f72672f77696b692f4d616e636865737465725f556e697465645f462e432e68747470733a2f2f656e2e77696b6970656469612e6f72672f77696b692f4e6577636173746c655f556e697465645f462e432e455243373231456e756d657261626c653a206f776e657220696e646578206f7574206f6620626f756e64734552433732313a207472616e7366657220746f206e6f6e20455243373231526563656976657220696d706c656d656e74657268747470733a2f2f656e2e77696b6970656469612e6f72672f77696b692f426f75726e656d6f7574685f462e432e4e6577207072696365206d75737420626520686967686572207468616e2063757272656e7420707269636568747470733a2f2f656e2e77696b6970656469612e6f72672f77696b692f546f7474656e68616d5f486f74737075725f462e432e4d75737420776169742031206d6f6e746820666f72204f7261636c6520746f207265736f6c766568747470733a2f2f656e2e77696b6970656469612e6f72672f77696b692f4c65696365737465725f436974795f462e432e4552433732313a207472616e7366657220746f20746865207a65726f206164647265737368747470733a2f2f656e2e77696b6970656469612e6f72672f77696b692f4e6f72776963685f436974795f462e432e5072696365206d757374206265206174206c656173742031302520686967686572207468616e2063757272656e742070726963654552433732313a206f70657261746f7220717565727920666f72206e6f6e6578697374656e7420746f6b656e68747470733a2f2f656e2e77696b6970656469612e6f72672f77696b692f536f757468616d70746f6e5f462e432e68747470733a2f2f656e2e77696b6970656469612e6f72672f77696b692f417273656e616c5f462e432e4552433732313a20617070726f76652063616c6c6572206973206e6f74206f776e6572206e6f7220617070726f76656420666f7220616c6c4552433732313a2062616c616e636520717565727920666f7220746865207a65726f20616464726573734552433732313a206f776e657220717565727920666f72206e6f6e6578697374656e7420746f6b656e68747470733a2f2f656e2e77696b6970656469612e6f72672f77696b692f45766572746f6e5f462e432e68747470733a2f2f656e2e77696b6970656469612e6f72672f77696b692f576174666f72645f462e432e5468697320746f6b656e20646f6573206e6f742065786973740000000000000068747470733a2f2f656e2e77696b6970656469612e6f72672f77696b692f4272696768746f6e5f2532365f486f76655f416c62696f6e5f462e432e596f75206d757374206465706f73697420656e6f75676820746f20636f766572206f6e6520686f757227732072656e7468747470733a2f2f656e2e77696b6970656469612e6f72672f77696b692f4372797374616c5f50616c6163655f462e432e536166654d6174683a206d756c7469706c69636174696f6e206f766572666c6f774552433732313a20617070726f76656420717565727920666f72206e6f6e6578697374656e7420746f6b656e4552433732314d657461646174613a2055524920736574206f66206e6f6e6578697374656e7420746f6b656e4552433732313a207472616e73666572206f6620746f6b656e2074686174206973206e6f74206f776e4552433732314d657461646174613a2055524920717565727920666f72206e6f6e6578697374656e7420746f6b656e68747470733a2f2f656e2e77696b6970656469612e6f72672f77696b692f4368656c7365615f462e432e68747470733a2f2f656e2e77696b6970656469612e6f72672f77696b692f4c69766572706f6f6c5f462e432e4d757374207761697420666f72207175657374696f6e20746f2066696e616c697a65206f6e205265616c6974696f4d61726b657473206861766520656e64656420616c726561647900000000000068747470733a2f2f656e2e77696b6970656469612e6f72672f77696b692f536865666669656c645f556e697465645f462e432e68747470733a2f2f656e2e77696b6970656469612e6f72672f77696b692f576f6c76657268616d70746f6e5f57616e6465726572735f462e432e4552433732313a20617070726f76616c20746f2063757272656e74206f776e657268747470733a2f2f656e2e77696b6970656469612e6f72672f77696b692f4275726e6c65795f462e432e68747470733a2f2f656e2e77696b6970656469612e6f72672f77696b692f576573745f48616d5f556e697465645f462e432e596f752070616964206e6f2072656e742c206f722072656e7420616c72656164792072657475726e656468747470733a2f2f656e2e77696b6970656469612e6f72672f77696b692f4173746f6e5f56696c6c615f462e432e4552433732313a207472616e736665722063616c6c6572206973206e6f74206f776e6572206e6f7220617070726f766564596f7520617265206e6f7420612077696e6e65722c206f722077696e6e696e677320616c72656164792070616964455243373231456e756d657261626c653a20676c6f62616c20696e646578206f7574206f6620626f756e647368747470733a2f2f656e2e77696b6970656469612e6f72672f77696b692f4d616e636865737465725f436974795f462e432ea265627a7a72315820716ed8bf761bdb065c95e9a49a6bdb93d66abbc99023890ecf35293e545c368b64736f6c634300050d0032546573742036e2909f2258222c2259222c225a22e2909f6e6577732d706f6c6974696373e2909f656e5f5553",
  "source": "pragma solidity 0.5.13;\n// import \"./interfaces/IERC721Full.sol\";\n// import \"./utils/SafeMath.sol\";\nimport \"@openzeppelin/contracts/token/ERC721/ERC721Full.sol\";\nimport \"@openzeppelin/contracts/math/SafeMath.sol\";\n\n/// @title Realit.io contract interface\ninterface Realitio {\n    function askQuestion(uint256 template_id, string calldata question, address arbitrator, uint32 timeout, uint32 opening_ts, uint256 nonce) external payable returns (bytes32);\n    function resultFor(bytes32 question_id) external view returns (bytes32);\n    function isFinalized(bytes32 question_id) external view returns (bool);\n}\n\n/// @title Dai contract interface\ninterface Cash \n{\n    function approve(address _spender, uint256 _amount) external returns (bool);\n    function balanceOf(address _ownesr) external view returns (uint256);\n    function faucet(uint256 _amount) external;\n    function transfer(address _to, uint256 _amount) external returns (bool);\n    function transferFrom(address _from, address _to, uint256 _amount) external returns (bool);\n}\n\n/// @title Harber\n/// @author Andrew Stanger\n// contract Harber  {\ncontract Harber is ERC721Full {\n\n    using SafeMath for uint256;\n\n    /// NUMBER OF TOKENS\n    /// @dev not set in the constructor because so many other variables need it for initating.  \n    uint256 constant public numberOfTokens = 20;\n\n    /// CONTRACT VARIABLES\n    Realitio public realitio;\n    Cash public cash; \n\n    /// UINTS, ADDRESSES, BOOLS\n    /// @dev my whiskey fund, for my 1% cut\n    address private owner; \n    /// @dev in attodai (so $100 = 100000000000000000000)\n    uint256[numberOfTokens] public price; \n    /// @dev an easy way to track the above across all tokens. It should always increment at the same time as the above increments. \n    uint256 public totalCollected; \n    /// @dev used to determine the rent due. Rent is due for the period (now - timeLastCollected), at which point timeLastCollected is set to now.\n    uint256[numberOfTokens] public timeLastCollected; \n    /// @dev when a token was bought. Used to enforce minimum of one hour rental, also used in front end. Rent collection does not need this, only needs timeLastCollected.\n    uint256[numberOfTokens] public timeAcquired; \n    /// @dev tracks the position of the current owner in the ownerTracker mapping\n    uint256[numberOfTokens] public currentOwnerIndex; \n    /// @dev the question ID of the question on realitio\n    bytes32 public questionId;\n    bool nftsMinted = false;\n  \n    /// WINNING OUTCOME VARIABLES\n    /// @dev start with invalid winning outcome\n    uint256 public winningOutcome = 42069; \n    //// @dev when the question can be answered on Realitio. \n    uint32 public marketExpectedResolutionTime; \n\n    /// MARKET RESOLUTION VARIABLES\n    /// @dev step1:\n    bool public marketEnded = false;\n    /// @dev step2:\n    bool public step2Complete = false; // must be false for step2, true for step3\n    bool public questionResolvedInvalid = true; // set in step 2. If false, normal payout. If true, return all funds\n    \n    ///  STRUCTS\n    struct purchase {\n        address owner;\n        uint256 price;\n    }\n    \n    /// MAPPINGS\n    /// @dev keeps track of all previous owners of a token, including the price, so that if the current owner's deposit runs out,\n    /// @dev ...ownership can be reverted to a previous owner with the previous price. Index 0 is NOT used, this tells the contract to foreclose.\n    /// @dev this does NOT keep a reliable list of all owners, if it reverts to a previous owner then the next owner will overwrite the owner that was in that slot.\n    /// @dev the variable currentOwnerIndex is used to track the location of the current owner. \n    mapping (uint256 => mapping (uint256 => purchase) ) public ownerTracker;  \n    /// @dev how many seconds each user has held each token for, for determining winnings  \n    mapping (uint256 => mapping (address => uint256) ) public timeHeld;\n    /// @dev sums all the timeHelds for each  Not required, but saves on gas when paying out. Should always increment at the same time as timeHeld\n    mapping (uint256 => uint256) public totalTimeHeld; \n    /// @dev keeps track of all the deposits for each token, for each owner. Unused deposits are not returned automatically when there is a new buyer. \n    /// @dev they can be withdrawn manually however. Unused deposits are returned automatically upon resolution of the market\n    mapping (uint256 => mapping (address => uint256) ) public deposits; \n    /// @dev keeps track of all the rent paid by each user. So that it can be returned in case of an invalid market outcome. Only required in this instance. \n    mapping (address => uint256) public collectedPerUser;\n    /// @dev keeps track of all the rent paid for each  Front end only\n    mapping (uint256 => uint256) public collectedPerToken;\n\n    ////////////// CONSTRUCTOR //////////////\n    constructor(address _owner, Cash _addressOfCashContract, Realitio _addressOfRealitioContract, uint32 _marketExpectedResolutionTime) ERC721Full(\"HodlFactory\", \"HODL\") public\n    {\n        //assign arguments to relevant variables\n        marketExpectedResolutionTime = _marketExpectedResolutionTime;\n        owner = _owner;\n        \n        // external contract variables:\n        realitio = _addressOfRealitioContract;\n        cash = _addressOfCashContract;\n\n        // Create the question on Realitio\n        uint256 template_id = 2;\n        string memory question = 'Test 6\"X\",\"Y\",\"Z\"news-politicsen_US';\n        address arbitrator = 0xA6EAd513D05347138184324392d8ceb24C116118; // to change\n        uint32 timeout = 86400; // 24 hours\n        uint32 opening_ts = _marketExpectedResolutionTime;\n        uint256 nonce = 0;\n        questionId = _postQuestion(template_id, question, arbitrator, timeout, opening_ts, nonce);\n    } \n\n    event LogNewRental(address indexed newOwner, uint256 indexed newPrice, uint256 indexed tokenId);\n    event LogPriceChange(uint256 indexed newPrice, uint256 indexed tokenId);\n    event LogForeclosure(address indexed prevOwner, uint256 indexed tokenId);\n    event LogRentCollection(uint256 indexed rentCollected, uint256 indexed tokenId);\n    event LogReturnToPreviousOwner(uint256 indexed tokenId, address indexed previousOwner);\n    event LogDepositWithdrawal(uint256 indexed daiWithdrawn, uint256 indexed tokenId, address indexed returnedTo);\n    event LogDepositIncreased(uint256 indexed daiDeposited, uint256 indexed tokenId, address indexed sentBy);\n    event LogExit(uint256 indexed tokenId);\n    event LogStep1Complete(bool indexed didTheEventFinish);\n    event LogStep2Complete(bool indexed didRealitioResolve, uint256 indexed winningOutcome, bool indexed didRealitioResolveInvalid);\n    event LogWinningsPaid(address indexed paidTo, uint256 indexed amountPaid);\n    event LogRentReturned(address indexed returnedTo, uint256 indexed amountReturned);\n    event TestingVariable(uint indexed testingVariable);\n\n    ////////////// INITIAL SETUP //////////////\n    function mintNfts() external {\n        require(!nftsMinted, \"Already initialized\");\n        nftsMinted = true;\n\n        // these URIs are NOT the production URIs and will need to be changed\n        _mint(address(this), 0); \n        _setTokenURI(0, \"https://en.wikipedia.org/wiki/Manchester_United_F.C.\");\n        _mint(address(this), 1); \n        _setTokenURI(1, \"https://en.wikipedia.org/wiki/Liverpool_F.C.\");\n        _mint(address(this), 2);\n        _setTokenURI(2, \"https://en.wikipedia.org/wiki/Leicester_City_F.C.\");\n        _mint(address(this), 3); \n        _setTokenURI(3, \"https://en.wikipedia.org/wiki/Manchester_City_F.C.\");\n        _mint(address(this), 4); \n        _setTokenURI(4, \"https://en.wikipedia.org/wiki/Chelsea_F.C.\");\n        _mint(address(this), 5); \n        _setTokenURI(5, \"https://en.wikipedia.org/wiki/Tottenham_Hotspur_F.C.\");\n        _mint(address(this), 6); \n        _setTokenURI(6, \"https://en.wikipedia.org/wiki/Wolverhampton_Wanderers_F.C.\");\n        _mint(address(this), 7); \n        _setTokenURI(7, \"https://en.wikipedia.org/wiki/Sheffield_United_F.C.\");\n        _mint(address(this), 8); \n        _setTokenURI(8, \"https://en.wikipedia.org/wiki/Crystal_Palace_F.C.\");\n        _mint(address(this), 9); \n        _setTokenURI(9, \"https://en.wikipedia.org/wiki/Arsenal_F.C.\");\n        _mint(address(this), 10); \n        _setTokenURI(10, \"https://en.wikipedia.org/wiki/Everton_F.C.\");\n        _mint(address(this), 11); \n        _setTokenURI(11, \"https://en.wikipedia.org/wiki/Southampton_F.C.\");\n        _mint(address(this), 12); \n        _setTokenURI(12, \"https://en.wikipedia.org/wiki/Newcastle_United_F.C.\");\n        _mint(address(this), 13); \n        _setTokenURI(13, \"https://en.wikipedia.org/wiki/Brighton_%26_Hove_Albion_F.C.\");\n        _mint(address(this), 14); \n        _setTokenURI(14, \"https://en.wikipedia.org/wiki/Burnley_F.C.\");\n        _mint(address(this), 15); \n        _setTokenURI(15, \"https://en.wikipedia.org/wiki/West_Ham_United_F.C.\");\n        _mint(address(this), 16); \n        _setTokenURI(16, \"https://en.wikipedia.org/wiki/Aston_Villa_F.C.\");\n        _mint(address(this), 17); \n        _setTokenURI(17, \"https://en.wikipedia.org/wiki/Bournemouth_F.C.\");\n        _mint(address(this), 18); \n        _setTokenURI(18, \"https://en.wikipedia.org/wiki/Watford_F.C.\");\n        _mint(address(this), 19); \n        _setTokenURI(19, \"https://en.wikipedia.org/wiki/Norwich_City_F.C.\");\n    }\n\n    ////////////// MODIFIERS //////////////\n    /// @notice checks the token exists\n    modifier nftsExist() {\n        require(nftsMinted, \"NFTs don't exist\");\n       _;\n    }\n\n    /// @notice prevents functions from being interacted with after the end of the competition \n    /// @dev should be on all public/external 'ordinary course of business' functions\n    modifier notEnded() {\n        require(marketEnded == false, \"Markets have ended already\");\n        _;\n    }\n\n    /// @notice checks the token exists\n    modifier tokenExists(uint256 _tokenId) {\n        require(_tokenId  >= 0 && _tokenId < numberOfTokens, \"This token does not exist\");\n       _;\n    }\n\n    /// @notice what it says on the tin\n    modifier amountNotZero(uint256 _dai) {\n        require(_dai  > 0, \"Amount must be above zero\");\n       _;\n    }\n\n    ////////////// VIEW FUNCTIONS //////////////\n    /// @dev called in collectRent function, and various other view functions \n    function rentOwed(uint256 _tokenId) public view returns (uint256) {\n        return price[_tokenId].mul(now.sub(timeLastCollected[_tokenId])).div(1 days);\n    }\n\n    /// @dev used in testing only\n    function getOwnerTrackerPrice(uint256 _tokenId, uint256 _index) external view returns (uint256) {\n        return (ownerTracker[_tokenId][_index].price);\n    }\n\n    /// @dev used in testing only\n    function getOwnerTrackerAddress(uint256 _tokenId, uint256 _index) external view returns (address) {\n        return (ownerTracker[_tokenId][_index].owner);\n    }\n\n    /// @dev for front end only\n    /// @return how much the current owner has deposited\n    function liveDepositAbleToWithdraw(uint256 _tokenId) public view returns (uint256) {\n        uint256 _rentOwed = rentOwed(_tokenId);\n        address _currentOwner = ownerOf(_tokenId);\n        if(_rentOwed >= deposits[_tokenId][_currentOwner]) {\n            return 0;\n        } else {\n            return deposits[_tokenId][_currentOwner].sub(_rentOwed);\n        }\n    }\n\n    /// @dev for front end only\n    /// @return how much the current user has deposited (note: user not owner)\n    function userDepositAbleToWithdraw(uint256 _tokenId) external view returns (uint256) {\n        uint256 _rentOwed = rentOwed(_tokenId);\n        address _currentOwner = ownerOf(_tokenId);\n\n        if(_currentOwner == msg.sender) {\n            if(_rentOwed >= deposits[_tokenId][msg.sender]) {\n                return 0;\n            } else {\n                return deposits[_tokenId][msg.sender].sub(_rentOwed);\n            }\n        } else {\n            return deposits[_tokenId][msg.sender];\n        }\n    }\n\n    /// @dev for front end only\n    /// @return estimated rental expiry time\n    function rentalExpiryTime(uint256 _tokenId) external view returns (uint256) {\n        uint256 pps;\n        pps = price[_tokenId].div(1 days);\n        if (pps == 0) {\n            return now; //if price is so low that pps = 0 just return current time as a fallback\n        }\n        else {\n            return now + liveDepositAbleToWithdraw(_tokenId).div(pps);\n        }\n    }\n    \n    ////////////// DAI CONTRACT FUNCTIONS ////////////// \n\n    // * internal * \n    /// @notice common function for all outgoing DAI transfers\n    function _sendCash(address _to, uint256 _amount) internal { \n        require(cash.transfer(_to,_amount), \"Cash transfer failed\"); \n    }\n\n    // * internal * \n    /// @notice common function for all incoming DAI transfers\n    function _receiveCash(address _from, uint256 _amount) internal {  \n        require(cash.transferFrom(_from, address(this), _amount), \"Cash transfer failed\");\n    }\n\n    ////////////// REALITIO FUNCTIONS //////////////\n    /// @dev all external calls to the Realitio contract go here\n\n    /// @notice posts the question to realit.io\n    function _postQuestion(uint256 template_id, string memory question, address arbitrator, uint32 timeout, uint32 opening_ts, uint256 nonce) internal returns (bytes32) {\n        return realitio.askQuestion(template_id, question, arbitrator, timeout, opening_ts, nonce);\n    }\n\n    /// @notice gets the winning outcome from realitio\n    /// @dev the returned value is equivilent to tokenId\n    /// @dev this function call will revert if it has not yet resolved\n    function _getWinner() internal view returns(uint256) {\n        bytes32 _winningOutcome = realitio.resultFor(questionId);\n        return uint256(_winningOutcome);\n    }\n\n    /// @notice has the question been finalized on realitio?\n    function _isQuestionFinalized() internal view returns (bool) {\n        return realitio.isFinalized(questionId);\n    }\n\n    ////////////// MARKET RESOLUTION FUNCTIONS ////////////// \n\n    /// @notice the first of two functions which must be called, one after the other, to conclude the competition\n    /// @notice winnings can be paid out (or funds returned) only when these three steps are completed\n    /// @notice this function checks whether the competition has ended (1 hour grace), if so closes down all 'ordinary course of business' functions\n    /// @dev can be called by anyone \n    function step1checkMarketEnded() external {\n        require(marketEnded == false, \"Step1 can only be completed once\");\n        require(marketExpectedResolutionTime < (now - 1 hours), \"Market has not finished yet\");\n        // do a final rent collection before the contract is locked down\n        collectRentAllTokens();\n        // lock everything down\n        marketEnded = true;\n        emit LogStep1Complete(true);\n    }\n\n    /// @notice the second of two functions which must be called, one after the other, to conclude the competition\n    /// @notice this function checks whether the Realitio question has resolved, and if yes, gets the winner\n    /// @dev can be called by anyone \n    function step2getWinner() external {\n        require(marketEnded == true, \"Must wait for market to end\");\n        require(step2Complete == false, \"Step2 can only be completed once\");\n        require(_isQuestionFinalized() == true, \"Must wait for question to finalize on Realitio\");\n        // get the winner. This will revert if answer is not resolved.\n        winningOutcome = _getWinner();\n        step2Complete = true;\n        // check if question resolved invalid\n        if (winningOutcome !=  ((2**256)-1)) {\n            questionResolvedInvalid = false;\n        }\n        emit LogStep2Complete(true, winningOutcome, questionResolvedInvalid);\n    }\n\n    /// @notice emergency function in case the Realitio question never resolves for whatever reason, can be called by anyone\n    /// @notice returns all funds to all users\n    /// @notice can only be called 1 month after Realitio question should have ended \n    function step2BemergencyExit() external  {\n        require(marketEnded == true, \"Must wait for market to end\");\n        require(step2Complete == false, \"Step2 can only be completed once\");\n        require(now > (marketExpectedResolutionTime + 4 weeks), \"Must wait 1 month for Oracle to resolve\");\n        step2Complete = true;\n        emit LogStep2Complete(false, winningOutcome, false);\n    }\n\n    /// @notice Same as above, except that only owner can call it, and can be called whenever\n    /// @notice to be clear, this only allows owner to return all funds, not to set a winner\n    function step2CcircuitBreaker() external {\n        require(marketEnded == true, \"Must wait for market to end\");\n        require(step2Complete == false, \"Step2 can only be completed once\");\n        require(msg.sender == owner, \"Only owner can call this\");\n        step2Complete = true;\n        emit LogStep2Complete(false, winningOutcome, false);\n    }\n\n    /// @notice the final function of the competition resolution process. Pays out winnings, or returns funds, as necessary\n    /// @dev users pull dai into their ac   count. \n    function complete() external {\n        require(step2Complete == true, \"Step2 must be completed first\");\n        if (!questionResolvedInvalid) {\n            _payoutWinnings();\n        } else {\n             _returnRent();\n        }\n    }\n\n     // * internal * \n    /// @notice pays winnings to the winners\n    /// @dev must be internal and only called by complete\n    function _payoutWinnings() internal {\n        uint256 _winnersTimeHeld = timeHeld[winningOutcome][msg.sender];\n        require(_winnersTimeHeld > 0, \"You are not a winner, or winnings already paid\");\n        timeHeld[winningOutcome][msg.sender] = 0; // otherwise they can keep paying themselves over and over\n        uint256 _numerator = totalCollected.mul(_winnersTimeHeld);\n        uint256 _winningsToTransfer = _numerator.div(totalTimeHeld[winningOutcome]);\n        _sendCash(msg.sender, _winningsToTransfer);\n        emit LogWinningsPaid(msg.sender, _winningsToTransfer);\n    }\n\n    // * internal * \n    /// @notice returns all funds to users in case of invalid outcome\n    /// @dev must be internal and only called by complete\n    function _returnRent() internal {\n        uint256 _rentCollected = collectedPerUser[msg.sender];\n        require(_rentCollected > 0, \"You paid no rent, or rent already returned\");\n        collectedPerUser[msg.sender] = 0; // otherwise they can keep paying themselves over and over\n        _sendCash(msg.sender, _rentCollected);\n        emit LogRentReturned(msg.sender, _rentCollected);\n    }\n\n    /// @notice withdraw full deposit after markets have resolved\n    /// @dev the other withdraw deposit functions are locked when markets have resolved so must use this one\n    /// @dev ... which can only be called if markets have resolved. This function is also different in that it does \n    /// @dev ... not attempt to collect rent or transfer ownership to a previous owner\n    function withdrawDepositAfterMarketEnded() external {\n        require(marketEnded == true, \"step1 must be complete first\");\n         \n        for (uint i = 0; i < numberOfTokens; i++) {\n\n            uint256 _depositToReturn = deposits[i][msg.sender];\n\n            if (_depositToReturn > 0) {\n                deposits[i][msg.sender] = 0;\n                _sendCash(msg.sender, _depositToReturn);\n                emit LogDepositWithdrawal(_depositToReturn, i, msg.sender);\n            }\n        }\n    }\n\n    ////////////// ORDINARY COURSE OF BUSINESS FUNCTIONS- EXTERNAL //////////////\n\n    // /// @notice collects rent for all tokens\n    // /// @dev makes it easy for me to call whenever I want to keep people paying their rent, thus cannot be internal\n    // /// @dev cannot be external because it is called within the step1 functions, therefore public\n    function collectRentAllTokens() public notEnded() {\n       for (uint i = 0; i < numberOfTokens; i++) {\n            _collectRent(i);\n        }\n    }\n    \n    /// @notice to rent a token\n    function newRental(uint256 _newPrice, uint256 _tokenId, uint256 _deposit) external tokenExists(_tokenId) amountNotZero(_deposit) notEnded() nftsExist() {\n        uint256 _currentPricePlusTenPercent = price[_tokenId].mul(11).div(10);\n        uint256 _oneHoursDeposit = _newPrice.div(24);\n        require(_newPrice >= _currentPricePlusTenPercent, \"Price must be at least 10% higher than current price\");\n        require(_deposit >= _oneHoursDeposit, \"You must deposit enough to cover one hour's rent\");\n        require(_newPrice >= 0.01 ether, \"Minimum rental 0.01 Dai\");\n        \n        _collectRent(_tokenId);\n        _depositDai(_deposit, _tokenId);\n\n        address _currentOwner = ownerOf(_tokenId);\n\n        if (_currentOwner == msg.sender) { // bought by current owner- just change price\n            _changePrice(_newPrice, _tokenId);\n        } else {   // bought by new user- the normal flow\n            // update internals\n            currentOwnerIndex[_tokenId] = currentOwnerIndex[_tokenId].add(1); \n            ownerTracker[_tokenId][currentOwnerIndex[_tokenId]].price = _newPrice;\n            ownerTracker[_tokenId][currentOwnerIndex[_tokenId]].owner = msg.sender; \n            timeAcquired[_tokenId] = now;\n            _transferTokenTo(_currentOwner, msg.sender, _newPrice, _tokenId);\n            emit LogNewRental(msg.sender, _newPrice, _tokenId); \n        }\n    }\n\n    /// @notice add new dai deposit to an existing rental\n    /// @dev it is possible a user's deposit could be reduced to zero following _collectRent\n    /// @dev they would then increase their deposit despite no longer owning it\n    /// @dev this is ok, they can still withdraw via withdrawDeposit. \n    function depositDai(uint256 _dai, uint256 _tokenId) external amountNotZero(_dai) tokenExists(_tokenId) notEnded() {\n        _collectRent(_tokenId);\n        _depositDai(_dai, _tokenId);\n    }\n\n    /// @notice increase the price of an existing rental\n    /// @dev can't be external because also called within newRental\n    function changePrice(uint256 _newPrice, uint256 _tokenId) external tokenExists(_tokenId) notEnded() {\n        require(_newPrice > price[_tokenId], \"New price must be higher than current price\"); \n        require(msg.sender == ownerOf(_tokenId), \"Not owner\");\n        _collectRent(_tokenId);\n        _changePrice(_newPrice, _tokenId);\n    }\n    \n    /// @notice withdraw deposit\n    /// @dev do not need to be the current owner\n    function withdrawDeposit(uint256 _dai, uint256 _tokenId) external amountNotZero(_dai) tokenExists(_tokenId) notEnded() {\n        _collectRent(_tokenId);\n        // if statement needed because deposit may have just reduced to zero following _collectRent \n        if (deposits[_tokenId][msg.sender] > 0) {\n            _withdrawDeposit(_dai, _tokenId);\n            emit LogDepositWithdrawal(_dai, _tokenId, msg.sender);\n        }\n    }\n\n    /// @notice withdraw full deposit\n    /// @dev do not need to be the current owner\n    function exit(uint256 _tokenId) external tokenExists(_tokenId) notEnded() {\n        // _collectRent(_tokenId);\n        // if statement needed because deposit may have just reduced to zero following _collectRent modifier\n        if (deposits[_tokenId][msg.sender] > 0) {\n            // _withdrawDeposit(deposits[_tokenId][msg.sender],  _tokenId);\n            emit LogExit(_tokenId);\n        }\n    }\n\n    ////////////// ORDINARY COURSE OF BUSINESS FUNCTIONS- INTERNALS //////////////\n\n    /// @notice collects rent for a specific token\n    /// @dev also calculates and updates how long the current user has held the token for\n    /// @dev called frequently internally, so cant be external. \n    /// @dev is not a problem if called externally, but making internal over public to save gas\n    function _collectRent(uint256 _tokenId) internal notEnded() {\n        //only collect rent if the token is owned (ie, if owned by the contract this implies unowned)\n        if (ownerOf(_tokenId) != address(this)) {\n            \n            uint256 _rentOwed = rentOwed(_tokenId);\n            address _currentOwner = ownerOf(_tokenId);\n            uint256 _timeOfThisCollection;\n            \n            if (_rentOwed >= deposits[_tokenId][_currentOwner]) {\n                // run out of deposit. Calculate time it was actually paid for, then revert to previous owner \n                _timeOfThisCollection = timeLastCollected[_tokenId].add(((now.sub(timeLastCollected[_tokenId])).mul(deposits[_tokenId][_currentOwner]).div(_rentOwed)));\n                _rentOwed = deposits[_tokenId][_currentOwner]; // take what's left     \n                _revertToPreviousOwner(_tokenId);\n                \n            } else  {\n                // normal collection\n                _timeOfThisCollection = now;\n            }\n\n            // decrease deposit by rent owed\n            deposits[_tokenId][_currentOwner] = deposits[_tokenId][_currentOwner].sub(_rentOwed);\n\n            // the 'important bit', where the duration the token has been held by each user is updated\n            // it is essential that timeHeld and totalTimeHeld are incremented together such that the sum of\n            // the first is equal to the second\n            uint256 _timeHeldToIncrement = (_timeOfThisCollection.sub(timeLastCollected[_tokenId])); //just for readability\n            timeHeld[_tokenId][_currentOwner] = timeHeld[_tokenId][_currentOwner].add(_timeHeldToIncrement);\n            totalTimeHeld[_tokenId] = totalTimeHeld[_tokenId].add(_timeHeldToIncrement);\n\n            // it is also essential that collectedPerUser and totalCollected are all incremented together\n            // such that the sum of the first two (individually) is equal to the third\n            collectedPerUser[_currentOwner] = collectedPerUser[_currentOwner].add(_rentOwed);\n            collectedPerToken[_tokenId] = collectedPerToken[_tokenId].add(_rentOwed);\n            totalCollected = totalCollected.add(_rentOwed);\n\n            emit LogRentCollection(_rentOwed, _tokenId);\n        }\n\n        // timeLastCollected is updated regardless of whether the token is owned, so that the clock starts ticking\n        // ... when the first owner buys it, because this function is run before ownership changes upon calling\n        // ... newRental\n        timeLastCollected[_tokenId] = now;\n    }\n\n    /// @dev depositDai is split into two, because it needs to be called direct from newRental\n    /// @dev ... without collecing rent first (otherwise it would be collected twice, possibly causing logic errors)\n    function _depositDai(uint256 _dai, uint256 _tokenId) internal {\n        deposits[_tokenId][msg.sender] = deposits[_tokenId][msg.sender].add(_dai);\n        _receiveCash(msg.sender, _dai);\n        emit LogDepositIncreased(_dai, _tokenId, msg.sender);\n    }\n\n    /// @dev changePrice is split into two, because it needs to be called direct from newRental\n    /// @dev ... without collecing rent first (otherwise it would be collected twice, possibly causing logic errors)\n    function _changePrice(uint256 _newPrice, uint256 _tokenId) internal {\n        // below is the only instance when price is modifed outside of the _transferTokenTo function\n        price[_tokenId] = _newPrice;\n        ownerTracker[_tokenId][currentOwnerIndex[_tokenId]].price = _newPrice;\n        emit LogPriceChange(price[_tokenId], _tokenId);\n    }\n\n    /// @notice actually withdraw the deposit and call _revertToPreviousOwner if necessary\n    function _withdrawDeposit(uint256 _daiToWithdraw, uint256 _tokenId) internal {\n        require(deposits[_tokenId][msg.sender] >= _daiToWithdraw, 'Withdrawing too much');\n        address _currentOwner = ownerOf(_tokenId);\n\n        // must rent for minimum of 1 hour for current owner\n        if(_currentOwner == msg.sender) {\n            uint256 _oneHour = 3600;\n            uint256 _secondsOwned = now.sub(timeAcquired[_tokenId]);\n            if (_secondsOwned < _oneHour) { \n                uint256 _oneHoursDeposit = price[_tokenId].div(24);\n                uint256 _secondsStillToPay = _oneHour.sub(_secondsOwned);\n                uint256 _minDepositToLeave = _oneHoursDeposit.mul(_secondsStillToPay).div(1 hours);\n                if (deposits[_tokenId][msg.sender].sub(_daiToWithdraw) < _minDepositToLeave) {\n                    uint256 _depositRemainingBeforeAdjustment = deposits[_tokenId][msg.sender].sub(_daiToWithdraw);\n                    _daiToWithdraw = _daiToWithdraw.sub(_minDepositToLeave.sub(_depositRemainingBeforeAdjustment));\n                }\n            }\n        }\n\n        deposits[_tokenId][msg.sender] = deposits[_tokenId][msg.sender].sub(_daiToWithdraw);\n        \n        if(_currentOwner == msg.sender && deposits[_tokenId][msg.sender] == 0) {\n            _revertToPreviousOwner(_tokenId);\n        }\n        _sendCash(msg.sender, _daiToWithdraw);\n    }\n\n    /// @notice if a users deposit runs out, either return to previous owner or foreclose\n    function _revertToPreviousOwner(uint256 _tokenId) internal {\n        uint256 _index;\n        address _previousOwner;\n\n        // loop max ten times before just assigning it to that owner, to prevent block limit\n        for (uint i=0; i < 10; i++)  {\n            currentOwnerIndex[_tokenId] = currentOwnerIndex[_tokenId].sub(1); // currentOwnerIndex will now point to  previous owner\n            _index = currentOwnerIndex[_tokenId]; // just for readability\n            _previousOwner = ownerTracker[_tokenId][_index].owner;\n\n            // if no previous owners. price -> zero, foreclose\n            // if previous owner still has a deposit, transfer to them, update the price to what it used to be\n            if (_index == 0) {\n                _foreclose(_tokenId);\n                break;\n            } else if (deposits[_tokenId][_previousOwner] > 0) {\n                break;\n            }  \n        }   \n\n        // if the above loop did not foreclose, then transfer to previous owner\n        if (ownerOf(_tokenId) != address(this)) {\n            address _currentOwner = ownerOf(_tokenId);\n            uint256 _oldPrice = ownerTracker[_tokenId][_index].price;\n            _transferTokenTo(_currentOwner, _previousOwner, _oldPrice, _tokenId);\n            emit LogReturnToPreviousOwner(_tokenId, _previousOwner);\n        }\n    }\n\n    /// @notice return token to the contract and return price to zero\n    function _foreclose(uint256 _tokenId) internal {\n        address _currentOwner = ownerOf(_tokenId);\n        // third field is price, ie price goes to zero\n        _transferTokenTo(_currentOwner, address(this), 0, _tokenId);\n        emit LogForeclosure(_currentOwner, _tokenId);\n    }\n\n    /// @notice transfer ERC 721 between users\n    /// @dev there is no event emitted as this is handled in ERC721.sol\n    function _transferTokenTo(address _currentOwner, address _newOwner, uint256 _newPrice, uint256 _tokenId) internal {\n        require(_currentOwner != address(0) && _newOwner != address(0) , \"Cannot send to/from zero address\");\n        price[_tokenId] = _newPrice;\n        transferFrom(_currentOwner, _newOwner, _tokenId);\n    }\n}\n\n",
  "sourcePath": "/Users/mcplums/Repos/Harber/contracts/Harber.sol",
  "compiler": {
    "name": "solc",
    "version": "0.5.13+commit.5b0b510c.Emscripten.clang"
  },
  "schemaVersion": "3.0.19",
  "updatedAt": "2020-04-10T14:01:23.286Z",
  "networkType": "ethereum",
  "devdoc": {
    "author": "Andrew Stanger",
    "methods": {
      "approve(address,uint256)": {
        "details": "Approves another address to transfer the given token ID The zero address indicates there is no approved address. There can only be one approved address per token at a given time. Can only be called by the token owner or an approved operator.",
        "params": {
          "to": "address to be approved for the given token ID",
          "tokenId": "uint256 ID of the token to be approved"
        }
      },
      "balanceOf(address)": {
        "details": "Gets the balance of the specified address.",
        "params": {
          "owner": "address to query the balance of"
        },
        "return": "uint256 representing the amount owned by the passed address"
      },
      "baseURI()": {
        "details": "Returns the base URI set via {_setBaseURI}. This will be automatically added as a preffix in {tokenURI} to each token's URI, when they are non-empty.    * _Available since v2.5.0._"
      },
      "changePrice(uint256,uint256)": {
        "details": "can't be external because also called within newRental"
      },
      "complete()": {
        "details": "users pull dai into their ac   count. "
      },
      "depositDai(uint256,uint256)": {
        "details": "it is possible a user's deposit could be reduced to zero following _collectRentthey would then increase their deposit despite no longer owning itthis is ok, they can still withdraw via withdrawDeposit. "
      },
      "exit(uint256)": {
        "details": "do not need to be the current owner"
      },
      "getApproved(uint256)": {
        "details": "Gets the approved address for a token ID, or zero if no address set Reverts if the token ID does not exist.",
        "params": {
          "tokenId": "uint256 ID of the token to query the approval of"
        },
        "return": "address currently approved for the given token ID"
      },
      "getOwnerTrackerAddress(uint256,uint256)": {
        "details": "used in testing only"
      },
      "getOwnerTrackerPrice(uint256,uint256)": {
        "details": "used in testing only"
      },
      "isApprovedForAll(address,address)": {
        "details": "Tells whether an operator is approved by a given owner.",
        "params": {
          "operator": "operator address which you want to query the approval of",
          "owner": "owner address which you want to query the approval of"
        },
        "return": "bool whether the given operator is approved by the given owner"
      },
      "liveDepositAbleToWithdraw(uint256)": {
        "details": "for front end only",
        "return": "how much the current owner has deposited"
      },
      "name()": {
        "details": "Gets the token name.",
        "return": "string representing the token name"
      },
      "ownerOf(uint256)": {
        "details": "Gets the owner of the specified token ID.",
        "params": {
          "tokenId": "uint256 ID of the token to query the owner of"
        },
        "return": "address currently marked as the owner of the given token ID"
      },
      "rentOwed(uint256)": {
        "details": "called in collectRent function, and various other view functions "
      },
      "rentalExpiryTime(uint256)": {
        "details": "for front end only",
        "return": "estimated rental expiry time"
      },
      "safeTransferFrom(address,address,uint256)": {
        "details": "Safely transfers the ownership of a given token ID to another address If the target address is a contract, it must implement {IERC721Receiver-onERC721Received}, which is called upon a safe transfer, and return the magic value `bytes4(keccak256(\"onERC721Received(address,address,uint256,bytes)\"))`; otherwise, the transfer is reverted. Requires the msg.sender to be the owner, approved, or operator",
        "params": {
          "from": "current owner of the token",
          "to": "address to receive the ownership of the given token ID",
          "tokenId": "uint256 ID of the token to be transferred"
        }
      },
      "safeTransferFrom(address,address,uint256,bytes)": {
        "details": "Safely transfers the ownership of a given token ID to another address If the target address is a contract, it must implement {IERC721Receiver-onERC721Received}, which is called upon a safe transfer, and return the magic value `bytes4(keccak256(\"onERC721Received(address,address,uint256,bytes)\"))`; otherwise, the transfer is reverted. Requires the _msgSender() to be the owner, approved, or operator",
        "params": {
          "_data": "bytes data to send along with a safe transfer check",
          "from": "current owner of the token",
          "to": "address to receive the ownership of the given token ID",
          "tokenId": "uint256 ID of the token to be transferred"
        }
      },
      "setApprovalForAll(address,bool)": {
        "details": "Sets or unsets the approval of a given operator An operator is allowed to transfer all tokens of the sender on their behalf.",
        "params": {
          "approved": "representing the status of the approval to be set",
          "to": "operator address to set the approval"
        }
      },
      "step1checkMarketEnded()": {
        "details": "can be called by anyone "
      },
      "step2getWinner()": {
        "details": "can be called by anyone "
      },
      "supportsInterface(bytes4)": {
        "details": "See {IERC165-supportsInterface}.     * Time complexity O(1), guaranteed to always use less than 30 000 gas."
      },
      "symbol()": {
        "details": "Gets the token symbol.",
        "return": "string representing the token symbol"
      },
      "tokenByIndex(uint256)": {
        "details": "Gets the token ID at a given index of all the tokens in this contract Reverts if the index is greater or equal to the total number of tokens.",
        "params": {
          "index": "uint256 representing the index to be accessed of the tokens list"
        },
        "return": "uint256 token ID at the given index of the tokens list"
      },
      "tokenOfOwnerByIndex(address,uint256)": {
        "details": "Gets the token ID at a given index of the tokens list of the requested owner.",
        "params": {
          "index": "uint256 representing the index to be accessed of the requested tokens list",
          "owner": "address owning the tokens list to be accessed"
        },
        "return": "uint256 token ID at the given index of the tokens list owned by the requested address"
      },
      "tokenURI(uint256)": {
        "details": "Returns the URI for a given token ID. May return an empty string.     * If the token's URI is non-empty and a base URI was set (via {_setBaseURI}), it will be added to the token ID's URI as a prefix.     * Reverts if the token ID does not exist."
      },
      "totalSupply()": {
        "details": "Gets the total amount of tokens stored by the contract.",
        "return": "uint256 representing the total amount of tokens"
      },
      "transferFrom(address,address,uint256)": {
        "details": "Transfers the ownership of a given token ID to another address. Usage of this method is discouraged, use {safeTransferFrom} whenever possible. Requires the msg.sender to be the owner, approved, or operator.",
        "params": {
          "from": "current owner of the token",
          "to": "address to receive the ownership of the given token ID",
          "tokenId": "uint256 ID of the token to be transferred"
        }
      },
      "userDepositAbleToWithdraw(uint256)": {
        "details": "for front end only",
        "return": "how much the current user has deposited (note: user not owner)"
      },
      "withdrawDeposit(uint256,uint256)": {
        "details": "do not need to be the current owner"
      },
      "withdrawDepositAfterMarketEnded()": {
        "details": "the other withdraw deposit functions are locked when markets have resolved so must use this one... which can only be called if markets have resolved. This function is also different in that it does ... not attempt to collect rent or transfer ownership to a previous owner"
      }
    },
    "title": "Harber"
  },
  "userdoc": {
    "methods": {
      "changePrice(uint256,uint256)": {
        "notice": "increase the price of an existing rental"
      },
      "collectRentAllTokens()": {
        "notice": "/////////// ORDINARY COURSE OF BUSINESS FUNCTIONS- EXTERNAL //////////////"
      },
      "complete()": {
        "notice": "the final function of the competition resolution process. Pays out winnings, or returns funds, as necessary"
      },
      "constructor": "/////////// CONSTRUCTOR //////////////",
      "depositDai(uint256,uint256)": {
        "notice": "add new dai deposit to an existing rental"
      },
      "exit(uint256)": {
        "notice": "withdraw full deposit"
      },
      "mintNfts()": {
        "notice": "/////////// INITIAL SETUP //////////////"
      },
      "newRental(uint256,uint256,uint256)": {
        "notice": "to rent a token"
      },
      "rentOwed(uint256)": {
        "notice": "/////////// VIEW FUNCTIONS //////////////"
      },
      "step1checkMarketEnded()": {
        "notice": "/////////// MARKET RESOLUTION FUNCTIONS ////////////// the first of two functions which must be called, one after the other, to conclude the competitionwinnings can be paid out (or funds returned) only when these three steps are completedthis function checks whether the competition has ended (1 hour grace), if so closes down all 'ordinary course of business' functions"
      },
      "step2BemergencyExit()": {
        "notice": "emergency function in case the Realitio question never resolves for whatever reason, can be called by anyonereturns all funds to all userscan only be called 1 month after Realitio question should have ended "
      },
      "step2CcircuitBreaker()": {
        "notice": "Same as above, except that only owner can call it, and can be called wheneverto be clear, this only allows owner to return all funds, not to set a winner"
      },
      "step2getWinner()": {
        "notice": "the second of two functions which must be called, one after the other, to conclude the competitionthis function checks whether the Realitio question has resolved, and if yes, gets the winner"
      },
      "withdrawDeposit(uint256,uint256)": {
        "notice": "withdraw deposit"
      },
      "withdrawDepositAfterMarketEnded()": {
        "notice": "withdraw full deposit after markets have resolved"
      }
    }
  }
}