{
  "contractName": "Harber",
  "abi": [
    {
      "inputs": [
        {
          "internalType": "address",
          "name": "_andrewsAddress",
          "type": "address"
        },
        {
          "internalType": "address",
          "name": "_addressOfToken",
          "type": "address"
        },
        {
          "internalType": "address",
          "name": "_addressOfCashContract",
          "type": "address"
        },
        {
          "internalType": "address",
          "name": "_addressOfMarket",
          "type": "address"
        },
        {
          "internalType": "address",
          "name": "_addressOfCompleteSetsContract",
          "type": "address"
        },
        {
          "internalType": "address",
          "name": "_addressOfMainAugurContract",
          "type": "address"
        },
        {
          "internalType": "uint256",
          "name": "_marketExpectedResolutionTime",
          "type": "uint256"
        }
      ],
      "payable": false,
      "stateMutability": "nonpayable",
      "type": "constructor"
    },
    {
      "anonymous": false,
      "inputs": [
        {
          "indexed": true,
          "internalType": "address",
          "name": "owner",
          "type": "address"
        },
        {
          "indexed": true,
          "internalType": "uint256",
          "name": "price",
          "type": "uint256"
        }
      ],
      "name": "LogBuy",
      "type": "event"
    },
    {
      "anonymous": false,
      "inputs": [
        {
          "indexed": true,
          "internalType": "uint256",
          "name": "collected",
          "type": "uint256"
        }
      ],
      "name": "LogCollection",
      "type": "event"
    },
    {
      "anonymous": false,
      "inputs": [
        {
          "indexed": true,
          "internalType": "address",
          "name": "prevOwner",
          "type": "address"
        }
      ],
      "name": "LogForeclosure",
      "type": "event"
    },
    {
      "anonymous": false,
      "inputs": [
        {
          "indexed": true,
          "internalType": "uint256",
          "name": "newPrice",
          "type": "uint256"
        }
      ],
      "name": "LogPriceChange",
      "type": "event"
    },
    {
      "constant": true,
      "inputs": [],
      "name": "a",
      "outputs": [
        {
          "internalType": "uint256",
          "name": "",
          "type": "uint256"
        }
      ],
      "payable": false,
      "stateMutability": "view",
      "type": "function"
    },
    {
      "constant": true,
      "inputs": [],
      "name": "b",
      "outputs": [
        {
          "internalType": "uint256",
          "name": "",
          "type": "uint256"
        }
      ],
      "payable": false,
      "stateMutability": "view",
      "type": "function"
    },
    {
      "constant": true,
      "inputs": [],
      "name": "c",
      "outputs": [
        {
          "internalType": "uint256",
          "name": "",
          "type": "uint256"
        }
      ],
      "payable": false,
      "stateMutability": "view",
      "type": "function"
    },
    {
      "constant": true,
      "inputs": [
        {
          "internalType": "uint256",
          "name": "",
          "type": "uint256"
        }
      ],
      "name": "collectedAndSentToAugur",
      "outputs": [
        {
          "internalType": "uint256",
          "name": "",
          "type": "uint256"
        }
      ],
      "payable": false,
      "stateMutability": "view",
      "type": "function"
    },
    {
      "constant": true,
      "inputs": [
        {
          "internalType": "uint256",
          "name": "",
          "type": "uint256"
        }
      ],
      "name": "currentOwnerIndex",
      "outputs": [
        {
          "internalType": "uint256",
          "name": "",
          "type": "uint256"
        }
      ],
      "payable": false,
      "stateMutability": "view",
      "type": "function"
    },
    {
      "constant": true,
      "inputs": [
        {
          "internalType": "uint256",
          "name": "",
          "type": "uint256"
        },
        {
          "internalType": "address",
          "name": "",
          "type": "address"
        }
      ],
      "name": "deposits",
      "outputs": [
        {
          "internalType": "uint256",
          "name": "",
          "type": "uint256"
        }
      ],
      "payable": false,
      "stateMutability": "view",
      "type": "function"
    },
    {
      "constant": true,
      "inputs": [],
      "name": "marketExpectedResolutionTime",
      "outputs": [
        {
          "internalType": "uint256",
          "name": "",
          "type": "uint256"
        }
      ],
      "payable": false,
      "stateMutability": "view",
      "type": "function"
    },
    {
      "constant": true,
      "inputs": [
        {
          "internalType": "uint256",
          "name": "",
          "type": "uint256"
        },
        {
          "internalType": "uint256",
          "name": "",
          "type": "uint256"
        }
      ],
      "name": "ownerTracker",
      "outputs": [
        {
          "internalType": "address",
          "name": "owner",
          "type": "address"
        },
        {
          "internalType": "uint256",
          "name": "price",
          "type": "uint256"
        }
      ],
      "payable": false,
      "stateMutability": "view",
      "type": "function"
    },
    {
      "constant": true,
      "inputs": [
        {
          "internalType": "uint256",
          "name": "",
          "type": "uint256"
        }
      ],
      "name": "price",
      "outputs": [
        {
          "internalType": "uint256",
          "name": "",
          "type": "uint256"
        }
      ],
      "payable": false,
      "stateMutability": "view",
      "type": "function"
    },
    {
      "constant": true,
      "inputs": [
        {
          "internalType": "uint256",
          "name": "",
          "type": "uint256"
        }
      ],
      "name": "state",
      "outputs": [
        {
          "internalType": "enum Harber.ownedState",
          "name": "",
          "type": "uint8"
        }
      ],
      "payable": false,
      "stateMutability": "view",
      "type": "function"
    },
    {
      "constant": true,
      "inputs": [],
      "name": "team",
      "outputs": [
        {
          "internalType": "contract IERC721Full",
          "name": "",
          "type": "address"
        }
      ],
      "payable": false,
      "stateMutability": "view",
      "type": "function"
    },
    {
      "constant": true,
      "inputs": [
        {
          "internalType": "address",
          "name": "",
          "type": "address"
        }
      ],
      "name": "testDaiBalances",
      "outputs": [
        {
          "internalType": "uint256",
          "name": "",
          "type": "uint256"
        }
      ],
      "payable": false,
      "stateMutability": "view",
      "type": "function"
    },
    {
      "constant": true,
      "inputs": [],
      "name": "testingVariable",
      "outputs": [
        {
          "internalType": "uint256",
          "name": "",
          "type": "uint256"
        }
      ],
      "payable": false,
      "stateMutability": "view",
      "type": "function"
    },
    {
      "constant": true,
      "inputs": [
        {
          "internalType": "uint256",
          "name": "",
          "type": "uint256"
        }
      ],
      "name": "timeAcquired",
      "outputs": [
        {
          "internalType": "uint256",
          "name": "",
          "type": "uint256"
        }
      ],
      "payable": false,
      "stateMutability": "view",
      "type": "function"
    },
    {
      "constant": true,
      "inputs": [
        {
          "internalType": "uint256",
          "name": "",
          "type": "uint256"
        },
        {
          "internalType": "address",
          "name": "",
          "type": "address"
        }
      ],
      "name": "timeHeld",
      "outputs": [
        {
          "internalType": "uint256",
          "name": "",
          "type": "uint256"
        }
      ],
      "payable": false,
      "stateMutability": "view",
      "type": "function"
    },
    {
      "constant": true,
      "inputs": [
        {
          "internalType": "uint256",
          "name": "",
          "type": "uint256"
        }
      ],
      "name": "timeLastCollected",
      "outputs": [
        {
          "internalType": "uint256",
          "name": "",
          "type": "uint256"
        }
      ],
      "payable": false,
      "stateMutability": "view",
      "type": "function"
    },
    {
      "constant": true,
      "inputs": [],
      "name": "totalCollectedAndSentToAugur",
      "outputs": [
        {
          "internalType": "uint256",
          "name": "",
          "type": "uint256"
        }
      ],
      "payable": false,
      "stateMutability": "view",
      "type": "function"
    },
    {
      "constant": true,
      "inputs": [
        {
          "internalType": "uint256",
          "name": "",
          "type": "uint256"
        }
      ],
      "name": "totalTimeHeld",
      "outputs": [
        {
          "internalType": "uint256",
          "name": "",
          "type": "uint256"
        }
      ],
      "payable": false,
      "stateMutability": "view",
      "type": "function"
    },
    {
      "constant": false,
      "inputs": [],
      "name": "getTestDai",
      "outputs": [],
      "payable": false,
      "stateMutability": "nonpayable",
      "type": "function"
    },
    {
      "constant": false,
      "inputs": [],
      "name": "getWinner",
      "outputs": [],
      "payable": false,
      "stateMutability": "nonpayable",
      "type": "function"
    },
    {
      "constant": false,
      "inputs": [
        {
          "internalType": "uint256",
          "name": "_winner",
          "type": "uint256"
        }
      ],
      "name": "setWinner",
      "outputs": [],
      "payable": false,
      "stateMutability": "nonpayable",
      "type": "function"
    },
    {
      "constant": true,
      "inputs": [],
      "name": "getTestDaiBalance",
      "outputs": [
        {
          "internalType": "uint256",
          "name": "",
          "type": "uint256"
        }
      ],
      "payable": false,
      "stateMutability": "view",
      "type": "function"
    },
    {
      "constant": true,
      "inputs": [
        {
          "internalType": "uint256",
          "name": "_tokenId",
          "type": "uint256"
        },
        {
          "internalType": "uint256",
          "name": "_index",
          "type": "uint256"
        }
      ],
      "name": "getOwnerTrackerPrice",
      "outputs": [
        {
          "internalType": "uint256",
          "name": "",
          "type": "uint256"
        }
      ],
      "payable": false,
      "stateMutability": "view",
      "type": "function"
    },
    {
      "constant": true,
      "inputs": [
        {
          "internalType": "uint256",
          "name": "_tokenId",
          "type": "uint256"
        },
        {
          "internalType": "uint256",
          "name": "_index",
          "type": "uint256"
        }
      ],
      "name": "getOwnerTrackerAddress",
      "outputs": [
        {
          "internalType": "address",
          "name": "",
          "type": "address"
        }
      ],
      "payable": false,
      "stateMutability": "view",
      "type": "function"
    },
    {
      "constant": true,
      "inputs": [
        {
          "internalType": "uint256",
          "name": "_tokenId",
          "type": "uint256"
        }
      ],
      "name": "calculateRentOwed",
      "outputs": [
        {
          "internalType": "uint256",
          "name": "augurFundsDue",
          "type": "uint256"
        }
      ],
      "payable": false,
      "stateMutability": "view",
      "type": "function"
    },
    {
      "constant": true,
      "inputs": [
        {
          "internalType": "uint256",
          "name": "_tokenId",
          "type": "uint256"
        }
      ],
      "name": "calculateRentOwedWithTimestamp",
      "outputs": [
        {
          "internalType": "uint256",
          "name": "augurFundsDue",
          "type": "uint256"
        },
        {
          "internalType": "uint256",
          "name": "timestamp",
          "type": "uint256"
        }
      ],
      "payable": false,
      "stateMutability": "view",
      "type": "function"
    },
    {
      "constant": true,
      "inputs": [
        {
          "internalType": "uint256",
          "name": "_tokenId",
          "type": "uint256"
        }
      ],
      "name": "foreclosed",
      "outputs": [
        {
          "internalType": "bool",
          "name": "",
          "type": "bool"
        }
      ],
      "payable": false,
      "stateMutability": "view",
      "type": "function"
    },
    {
      "constant": true,
      "inputs": [
        {
          "internalType": "uint256",
          "name": "_tokenId",
          "type": "uint256"
        }
      ],
      "name": "liveDepositAbleToWithdraw",
      "outputs": [
        {
          "internalType": "uint256",
          "name": "",
          "type": "uint256"
        }
      ],
      "payable": false,
      "stateMutability": "view",
      "type": "function"
    },
    {
      "constant": true,
      "inputs": [
        {
          "internalType": "uint256",
          "name": "_tokenId",
          "type": "uint256"
        }
      ],
      "name": "userDepositAbleToWithdraw",
      "outputs": [
        {
          "internalType": "uint256",
          "name": "",
          "type": "uint256"
        }
      ],
      "payable": false,
      "stateMutability": "view",
      "type": "function"
    },
    {
      "constant": true,
      "inputs": [
        {
          "internalType": "uint256",
          "name": "_tokenId",
          "type": "uint256"
        }
      ],
      "name": "rentalExpiryTime",
      "outputs": [
        {
          "internalType": "uint256",
          "name": "",
          "type": "uint256"
        }
      ],
      "payable": false,
      "stateMutability": "view",
      "type": "function"
    },
    {
      "constant": false,
      "inputs": [
        {
          "internalType": "uint256",
          "name": "_tokenId",
          "type": "uint256"
        }
      ],
      "name": "_collectRent",
      "outputs": [],
      "payable": false,
      "stateMutability": "nonpayable",
      "type": "function"
    },
    {
      "constant": false,
      "inputs": [
        {
          "internalType": "uint256",
          "name": "_dai",
          "type": "uint256"
        },
        {
          "internalType": "uint256",
          "name": "_tokenId",
          "type": "uint256"
        }
      ],
      "name": "depositDai",
      "outputs": [],
      "payable": false,
      "stateMutability": "nonpayable",
      "type": "function"
    },
    {
      "constant": false,
      "inputs": [
        {
          "internalType": "uint256",
          "name": "_newPrice",
          "type": "uint256"
        },
        {
          "internalType": "uint256",
          "name": "_tokenId",
          "type": "uint256"
        },
        {
          "internalType": "uint256",
          "name": "_deposit",
          "type": "uint256"
        }
      ],
      "name": "buy",
      "outputs": [],
      "payable": false,
      "stateMutability": "nonpayable",
      "type": "function"
    },
    {
      "constant": false,
      "inputs": [
        {
          "internalType": "uint256",
          "name": "_newPrice",
          "type": "uint256"
        },
        {
          "internalType": "uint256",
          "name": "_tokenId",
          "type": "uint256"
        }
      ],
      "name": "changePrice",
      "outputs": [],
      "payable": false,
      "stateMutability": "nonpayable",
      "type": "function"
    },
    {
      "constant": false,
      "inputs": [
        {
          "internalType": "uint256",
          "name": "_dai",
          "type": "uint256"
        },
        {
          "internalType": "uint256",
          "name": "_tokenId",
          "type": "uint256"
        }
      ],
      "name": "withdrawDeposit",
      "outputs": [
        {
          "internalType": "uint256",
          "name": "",
          "type": "uint256"
        }
      ],
      "payable": false,
      "stateMutability": "nonpayable",
      "type": "function"
    },
    {
      "constant": false,
      "inputs": [
        {
          "internalType": "uint256",
          "name": "_tokenId",
          "type": "uint256"
        }
      ],
      "name": "exit",
      "outputs": [],
      "payable": false,
      "stateMutability": "nonpayable",
      "type": "function"
    }
  ],
  "bytecode": "0x608060405260008060006101000a81548160ff02191690831515021790555060006001556000600255600060035560006004556000602560006101000a81548160ff02191690831515021790555060636026553480156200005f57600080fd5b5060405162003fc938038062003fc9833981810160405260e08110156200008557600080fd5b810190808051906020019092919080519060200190929190805190602001909291908051906020019092919080519060200190929190805190602001909291908051906020019092919050505085600560006101000a81548173ffffffffffffffffffffffffffffffffffffffff021916908373ffffffffffffffffffffffffffffffffffffffff160217905550600560009054906101000a900473ffffffffffffffffffffffffffffffffffffffff1673ffffffffffffffffffffffffffffffffffffffff1663ba0bba406040518163ffffffff1660e01b8152600401600060405180830381600087803b1580156200017e57600080fd5b505af115801562000193573d6000803e3d6000fd5b5050505086600960006101000a81548173ffffffffffffffffffffffffffffffffffffffff021916908373ffffffffffffffffffffffffffffffffffffffff1602179055506000602d600060058110620001e957fe5b602091828204019190066101000a81548160ff021916908360018111156200020d57fe5b02179055506000602d6001600581106200022357fe5b602091828204019190066101000a81548160ff021916908360018111156200024757fe5b02179055506000602d6002600581106200025d57fe5b602091828204019190066101000a81548160ff021916908360018111156200028157fe5b02179055506000602d6003600581106200029757fe5b602091828204019190066101000a81548160ff02191690836001811115620002bb57fe5b02179055506000602d600460058110620002d157fe5b602091828204019190066101000a81548160ff02191690836001811115620002f557fe5b0217905550600060206000600581106200030b57fe5b0181905550600060206001600581106200032157fe5b0181905550600060206002600581106200033757fe5b0181905550600060206003600581106200034d57fe5b0181905550600060206004600581106200036357fe5b018190555084600860006101000a81548173ffffffffffffffffffffffffffffffffffffffff021916908373ffffffffffffffffffffffffffffffffffffffff16021790555083600660006101000a81548173ffffffffffffffffffffffffffffffffffffffff021916908373ffffffffffffffffffffffffffffffffffffffff16021790555082600760006101000a81548173ffffffffffffffffffffffffffffffffffffffff021916908373ffffffffffffffffffffffffffffffffffffffff16021790555080602781905550600015156000809054906101000a900460ff16151514156200055757600860009054906101000a900473ffffffffffffffffffffffffffffffffffffffff1673ffffffffffffffffffffffffffffffffffffffff1663095ea7b3837fffffffffffffffffffffffffffffffffffffffffffffffffffffffffffffffff6040518363ffffffff1660e01b8152600401808373ffffffffffffffffffffffffffffffffffffffff1673ffffffffffffffffffffffffffffffffffffffff16815260200182815260200192505050602060405180830381600087803b1580156200051857600080fd5b505af11580156200052d573d6000803e3d6000fd5b505050506040513d60208110156200054457600080fd5b8101908080519060200190929190505050505b50505050505050613a5b806200056e6000396000f3fe608060405234801561001057600080fd5b506004361061021c5760003560e01c806385f2aef211610125578063c3da42b8116100ad578063f33376931161007c578063f333769314610979578063f3cebadb146109c2578063f88489c2146109cc578063fce0eb0214610a4b578063fde23d7c14610a8d5761021c565b8063c3da42b814610875578063cb29417714610893578063f015e54e146108eb578063f06197b71461092d5761021c565b806397b4550a116100f457806397b4550a146106f5578063a36252bf1461076d578063b3de019c146107af578063bae04c9a146107e7578063c354a0a6146108335761021c565b806385f2aef2146106415780638cb688991461068b5780638e7ea5b2146106cd578063977f1b28146106d75761021c565b806340993b26116101a85780635dfd7e9b116101775780635dfd7e9b1461053957806362ce37721461057157806373a5226f146105b35780637902bd97146105f55780637f8661a1146106135761021c565b806340993b26146104355780634df7e3d01461047757806353a58de1146104955780635b2ace64146104f75761021c565b806325947a52116101ef57806325947a521461031557806326a49e3714610343578063321c77711461038557806332f2b04d146103a35780633e4f49e6146103e55761021c565b80630dbe671f146102215780630df716021461023f5780631e8b76ad1461026d578063237b5e4f146102b3575b600080fd5b610229610aab565b6040518082815260200191505060405180910390f35b61026b6004803603602081101561025557600080fd5b8101908080359060200190929190505050610ab1565b005b6102996004803603602081101561028357600080fd5b8101908080359060200190929190505050610c2b565b604051808215151515815260200191505060405180910390f35b6102ff600480360360408110156102c957600080fd5b8101908080359060200190929190803573ffffffffffffffffffffffffffffffffffffffff169060200190929190505050610ca5565b6040518082815260200191505060405180910390f35b6103416004803603602081101561032b57600080fd5b8101908080359060200190929190505050610cca565b005b61036f6004803603602081101561035957600080fd5b81019080803590602001909291905050506111e4565b6040518082815260200191505060405180910390f35b61038d6111fc565b6040518082815260200191505060405180910390f35b6103cf600480360360208110156103b957600080fd5b8101908080359060200190929190505050611243565b6040518082815260200191505060405180910390f35b610411600480360360208110156103fb57600080fd5b81019080803590602001909291905050506113d2565b6040518082600181111561042157fe5b60ff16815260200191505060405180910390f35b6104756004803603606081101561044b57600080fd5b810190808035906020019092919080359060200190929190803590602001909291905050506113f9565b005b61047f6119c8565b6040518082815260200191505060405180910390f35b6104e1600480360360408110156104ab57600080fd5b8101908080359060200190929190803573ffffffffffffffffffffffffffffffffffffffff1690602001909291905050506119ce565b6040518082815260200191505060405180910390f35b6105236004803603602081101561050d57600080fd5b81019080803590602001909291905050506119f3565b6040518082815260200191505060405180910390f35b61056f6004803603604081101561054f57600080fd5b810190808035906020019092919080359060200190929190505050611a0b565b005b61059d6004803603602081101561058757600080fd5b8101908080359060200190929190505050611c35565b6040518082815260200191505060405180910390f35b6105df600480360360208110156105c957600080fd5b8101908080359060200190929190505050611c95565b6040518082815260200191505060405180910390f35b6105fd611eb2565b6040518082815260200191505060405180910390f35b61063f6004803603602081101561062957600080fd5b8101908080359060200190929190505050611eb8565b005b610649612070565b604051808273ffffffffffffffffffffffffffffffffffffffff1673ffffffffffffffffffffffffffffffffffffffff16815260200191505060405180910390f35b6106b7600480360360208110156106a157600080fd5b8101908080359060200190929190505050612096565b6040518082815260200191505060405180910390f35b6106d56120ae565b005b6106df6121de565b6040518082815260200191505060405180910390f35b61072b6004803603604081101561070b57600080fd5b8101908080359060200190929190803590602001909291905050506121e4565b604051808273ffffffffffffffffffffffffffffffffffffffff1673ffffffffffffffffffffffffffffffffffffffff16815260200191505060405180910390f35b6107996004803603602081101561078357600080fd5b8101908080359060200190929190505050612236565b6040518082815260200191505060405180910390f35b6107e5600480360360408110156107c557600080fd5b81019080803590602001909291908035906020019092919050505061224e565b005b61081d600480360360408110156107fd57600080fd5b81019080803590602001909291908035906020019092919050505061256a565b6040518082815260200191505060405180910390f35b61085f6004803603602081101561084957600080fd5b81019080803590602001909291905050506126f7565b6040518082815260200191505060405180910390f35b61087d61270f565b6040518082815260200191505060405180910390f35b6108d5600480360360208110156108a957600080fd5b81019080803573ffffffffffffffffffffffffffffffffffffffff169060200190929190505050612715565b6040518082815260200191505060405180910390f35b6109176004803603602081101561090157600080fd5b810190808035906020019092919050505061272d565b6040518082815260200191505060405180910390f35b6109636004803603604081101561094357600080fd5b810190808035906020019092919080359060200190929190505050612745565b6040518082815260200191505060405180910390f35b6109a56004803603602081101561098f57600080fd5b8101908080359060200190929190505050612777565b604051808381526020018281526020019250505060405180910390f35b6109ca61278d565b005b610a02600480360360408110156109e257600080fd5b81019080803590602001909291908035906020019092919050505061295a565b604051808373ffffffffffffffffffffffffffffffffffffffff1673ffffffffffffffffffffffffffffffffffffffff1681526020018281526020019250505060405180910390f35b610a7760048036036020811015610a6157600080fd5b81019080803590602001909291905050506129ab565b6040518082815260200191505060405180910390f35b610a95612a0d565b6040518082815260200191505060405180910390f35b60025481565b60001515602560009054906101000a900460ff16151514610ad157600080fd5b600960009054906101000a900473ffffffffffffffffffffffffffffffffffffffff1673ffffffffffffffffffffffffffffffffffffffff163373ffffffffffffffffffffffffffffffffffffffff1614610b94576040517f08c379a00000000000000000000000000000000000000000000000000000000081526004018080602001828103825260118152602001807f496d706f7374657220646574656374656400000000000000000000000000000081525060200191505060405180910390fd5b62278d00602754014211610bf3576040517f08c379a0000000000000000000000000000000000000000000000000000000008152600401808060200182810382526027815260200180613a006027913960400191505060405180910390fd5b80602681905550610c05602654610cca565b6001602560006101000a81548160ff021916908315150217905550610c28612a13565b50565b600080610c3783611c35565b9050602b600084815260200190815260200160002060003373ffffffffffffffffffffffffffffffffffffffff1673ffffffffffffffffffffffffffffffffffffffff168152602001908152602001600020548110610c9a576001915050610ca0565b60009150505b919050565b6029602052816000526040600020602052806000526040600020600091509150505481565b60001515602560009054906101000a900460ff16151514610cea57600080fd5b600180811115610cf657fe5b602d8260058110610d0357fe5b602091828204019190069054906101000a900460ff166001811115610d2457fe5b14156111e1576000610d3582611c35565b90506000600560009054906101000a900473ffffffffffffffffffffffffffffffffffffffff1673ffffffffffffffffffffffffffffffffffffffff16636352211e846040518263ffffffff1660e01b81526004018082815260200191505060206040518083038186803b158015610dac57600080fd5b505afa158015610dc0573d6000803e3d6000fd5b505050506040513d6020811015610dd657600080fd5b810190808051906020019092919050505090506000602b600085815260200190815260200160002060008373ffffffffffffffffffffffffffffffffffffffff1673ffffffffffffffffffffffffffffffffffffffff168152602001908152602001600020548310610f5a57610ef7610eda84610ecc602b600089815260200190815260200160002060008773ffffffffffffffffffffffffffffffffffffffff1673ffffffffffffffffffffffffffffffffffffffff16815260200190815260200160002054610ebe60168a60058110610ead57fe5b015442612cfc90919063ffffffff16565b612d4690919063ffffffff16565b612dcc90919063ffffffff16565b60168660058110610ee757fe5b0154612e1690919063ffffffff16565b9050602b600085815260200190815260200160002060008373ffffffffffffffffffffffffffffffffffffffff1673ffffffffffffffffffffffffffffffffffffffff168152602001908152602001600020549250610f5584612e9e565b610f5e565b4290505b6000610f8160168660058110610f7057fe5b015483612cfc90919063ffffffff16565b9050610fe6816029600088815260200190815260200160002060008673ffffffffffffffffffffffffffffffffffffffff1673ffffffffffffffffffffffffffffffffffffffff16815260200190815260200160002054612e1690919063ffffffff16565b6029600087815260200190815260200160002060008573ffffffffffffffffffffffffffffffffffffffff1673ffffffffffffffffffffffffffffffffffffffff1681526020019081526020016000208190555060006020866005811061104957fe5b01541461108e5761107681602a600088815260200190815260200160002054612e1690919063ffffffff16565b602a6000878152602001908152602001600020819055505b426016866005811061109c57fe5b018190555061110484602b600088815260200190815260200160002060008673ffffffffffffffffffffffffffffffffffffffff1673ffffffffffffffffffffffffffffffffffffffff16815260200190815260200160002054612cfc90919063ffffffff16565b602b600087815260200190815260200160002060008573ffffffffffffffffffffffffffffffffffffffff1673ffffffffffffffffffffffffffffffffffffffff16815260200190815260200160002081905550611179846010876005811061116957fe5b0154612e1690919063ffffffff16565b6010866005811061118657fe5b01819055506111a084601554612e1690919063ffffffff16565b6015819055506111af846130be565b837f54acb82a9e70d7c289b149758d23167c915428ae854a7aa4abe5bf2f4ef29f3660405160405180910390a2505050505b50565b600b81600581106111f157fe5b016000915090505481565b6000602c60003373ffffffffffffffffffffffffffffffffffffffff1673ffffffffffffffffffffffffffffffffffffffff16815260200190815260200160002054905090565b60008061124f83611c35565b90506000600560009054906101000a900473ffffffffffffffffffffffffffffffffffffffff1673ffffffffffffffffffffffffffffffffffffffff16636352211e856040518263ffffffff1660e01b81526004018082815260200191505060206040518083038186803b1580156112c657600080fd5b505afa1580156112da573d6000803e3d6000fd5b505050506040513d60208110156112f057600080fd5b81019080805190602001909291905050509050602b600085815260200190815260200160002060008273ffffffffffffffffffffffffffffffffffffffff1673ffffffffffffffffffffffffffffffffffffffff168152602001908152602001600020548210611365576000925050506113cd565b6113c882602b600087815260200190815260200160002060008473ffffffffffffffffffffffffffffffffffffffff1673ffffffffffffffffffffffffffffffffffffffff16815260200190815260200160002054612cfc90919063ffffffff16565b925050505b919050565b602d81600581106113df57fe5b60209182820401919006915054906101000a900460ff1681565b8161140381610cca565b60001515602560009054906101000a900460ff1615151461142357600080fd5b600b836005811061143057fe5b01548411611489576040517f08c379a00000000000000000000000000000000000000000000000000000000081526004018080602001828103825260278152602001806139b86027913960400191505060405180910390fd5b600082116114ff576040517f08c379a00000000000000000000000000000000000000000000000000000000081526004018080602001828103825260168152602001807f4d757374206465706f73697420736f6d657468696e670000000000000000000081525060200191505060405180910390fd5b81602c60003373ffffffffffffffffffffffffffffffffffffffff1673ffffffffffffffffffffffffffffffffffffffff1681526020019081526020016000205410156115b4576040517f08c379a000000000000000000000000000000000000000000000000000000000815260040180806020018281038252600e8152602001807f4e6f7420656e6f7567682044414900000000000000000000000000000000000081525060200191505060405180910390fd5b61160682602c60003373ffffffffffffffffffffffffffffffffffffffff1673ffffffffffffffffffffffffffffffffffffffff16815260200190815260200160002054612cfc90919063ffffffff16565b602c60003373ffffffffffffffffffffffffffffffffffffffff1673ffffffffffffffffffffffffffffffffffffffff168152602001908152602001600020819055506116ac82602b600086815260200190815260200160002060003373ffffffffffffffffffffffffffffffffffffffff1673ffffffffffffffffffffffffffffffffffffffff16815260200190815260200160002054612e1690919063ffffffff16565b602b600085815260200190815260200160002060003373ffffffffffffffffffffffffffffffffffffffff1673ffffffffffffffffffffffffffffffffffffffff168152602001908152602001600020819055506000600560009054906101000a900473ffffffffffffffffffffffffffffffffffffffff1673ffffffffffffffffffffffffffffffffffffffff16636352211e856040518263ffffffff1660e01b81526004018082815260200191505060206040518083038186803b15801561177557600080fd5b505afa158015611789573d6000803e3d6000fd5b505050506040513d602081101561179f57600080fd5b810190808051906020019092919050505090503373ffffffffffffffffffffffffffffffffffffffff168173ffffffffffffffffffffffffffffffffffffffff16141561182557846028600086815260200190815260200160002060006020876005811061180957fe5b01548152602001908152602001600020600101819055506118f8565b60016020856005811061183457fe5b0154016020856005811061184457fe5b0181905550846028600086815260200190815260200160002060006020876005811061186c57fe5b015481526020019081526020016000206001018190555033602860008681526020019081526020016000206000602087600581106118a657fe5b0154815260200190815260200160002060000160006101000a81548173ffffffffffffffffffffffffffffffffffffffff021916908373ffffffffffffffffffffffffffffffffffffffff1602179055505b6000600181111561190557fe5b602d856005811061191257fe5b602091828204019190069054906101000a900460ff16600181111561193357fe5b1415611971576001602d856005811061194857fe5b602091828204019190066101000a81548160ff0219169083600181111561196b57fe5b02179055505b61197d813387876131e4565b843373ffffffffffffffffffffffffffffffffffffffff167f4f79409f494e81c38036d80aa8a6507c2cb08d90bfb2fead5519447646b3497e60405160405180910390a35050505050565b60035481565b602b602052816000526040600020602052806000526040600020600091509150505481565b601b8160058110611a0057fe5b016000915090505481565b80611a1581610cca565b60001515602560009054906101000a900460ff16151514611a3557600080fd5b60006001811115611a4257fe5b602d8360058110611a4f57fe5b602091828204019190069054906101000a900460ff166001811115611a7057fe5b1415611ae4576040517f08c379a000000000000000000000000000000000000000000000000000000000815260040180806020018281038252600a8152602001807f466f7265636c6f7365640000000000000000000000000000000000000000000081525060200191505060405180910390fd5b611b3683602c60003373ffffffffffffffffffffffffffffffffffffffff1673ffffffffffffffffffffffffffffffffffffffff16815260200190815260200160002054612cfc90919063ffffffff16565b602c60003373ffffffffffffffffffffffffffffffffffffffff1673ffffffffffffffffffffffffffffffffffffffff16815260200190815260200160002081905550611bdc83602b600085815260200190815260200160002060003373ffffffffffffffffffffffffffffffffffffffff1673ffffffffffffffffffffffffffffffffffffffff16815260200190815260200160002054612e1690919063ffffffff16565b602b600084815260200190815260200160002060003373ffffffffffffffffffffffffffffffffffffffff1673ffffffffffffffffffffffffffffffffffffffff16815260200190815260200160002081905550505050565b6000611c8e6301e13380611c80611c6360168660058110611c5257fe5b015442612cfc90919063ffffffff16565b600b8660058110611c7057fe5b0154612d4690919063ffffffff16565b612dcc90919063ffffffff16565b9050919050565b600080611ca183611c35565b90506000600560009054906101000a900473ffffffffffffffffffffffffffffffffffffffff1673ffffffffffffffffffffffffffffffffffffffff16636352211e856040518263ffffffff1660e01b81526004018082815260200191505060206040518083038186803b158015611d1857600080fd5b505afa158015611d2c573d6000803e3d6000fd5b505050506040513d6020811015611d4257600080fd5b810190808051906020019092919050505090503373ffffffffffffffffffffffffffffffffffffffff168173ffffffffffffffffffffffffffffffffffffffff161415611e5757602b600085815260200190815260200160002060003373ffffffffffffffffffffffffffffffffffffffff1673ffffffffffffffffffffffffffffffffffffffff168152602001908152602001600020548210611deb57600092505050611ead565b611e4e82602b600087815260200190815260200160002060003373ffffffffffffffffffffffffffffffffffffffff1673ffffffffffffffffffffffffffffffffffffffff16815260200190815260200160002054612cfc90919063ffffffff16565b92505050611ead565b602b600085815260200190815260200160002060003373ffffffffffffffffffffffffffffffffffffffff1673ffffffffffffffffffffffffffffffffffffffff16815260200190815260200160002054925050505b919050565b60015481565b80600560009054906101000a900473ffffffffffffffffffffffffffffffffffffffff1673ffffffffffffffffffffffffffffffffffffffff16636352211e826040518263ffffffff1660e01b81526004018082815260200191505060206040518083038186803b158015611f2c57600080fd5b505afa158015611f40573d6000803e3d6000fd5b505050506040513d6020811015611f5657600080fd5b810190808051906020019092919050505073ffffffffffffffffffffffffffffffffffffffff163373ffffffffffffffffffffffffffffffffffffffff1614612007576040517f08c379a00000000000000000000000000000000000000000000000000000000081526004018080602001828103825260098152602001807f4e6f74206f776e6572000000000000000000000000000000000000000000000081525060200191505060405180910390fd5b8161201181610cca565b61206b602b600085815260200190815260200160002060003373ffffffffffffffffffffffffffffffffffffffff1673ffffffffffffffffffffffffffffffffffffffff16815260200190815260200160002054846132f2565b505050565b600560009054906101000a900473ffffffffffffffffffffffffffffffffffffffff1681565b601681600581106120a357fe5b016000915090505481565b60001515602560009054906101000a900460ff161515146120ce57600080fd5b60008090505b60058110156121db576000600660009054906101000a900473ffffffffffffffffffffffffffffffffffffffff1673ffffffffffffffffffffffffffffffffffffffff16633c264820836040518263ffffffff1660e01b81526004018082815260200191505060206040518083038186803b15801561215257600080fd5b505afa158015612166573d6000803e3d6000fd5b505050506040513d602081101561217c57600080fd5b81019080805190602001909291905050509050600081146121cd57816026819055506121a9602654610cca565b6001602560006101000a81548160ff0219169083151502179055506121cc612a13565b5b5080806001019150506120d4565b50565b60275481565b600060286000848152602001908152602001600020600083815260200190815260200160002060000160009054906101000a900473ffffffffffffffffffffffffffffffffffffffff16905092915050565b602a6020528060005260406000206000915090505481565b80600560009054906101000a900473ffffffffffffffffffffffffffffffffffffffff1673ffffffffffffffffffffffffffffffffffffffff16636352211e826040518263ffffffff1660e01b81526004018082815260200191505060206040518083038186803b1580156122c257600080fd5b505afa1580156122d6573d6000803e3d6000fd5b505050506040513d60208110156122ec57600080fd5b810190808051906020019092919050505073ffffffffffffffffffffffffffffffffffffffff163373ffffffffffffffffffffffffffffffffffffffff161461239d576040517f08c379a00000000000000000000000000000000000000000000000000000000081526004018080602001828103825260098152602001807f4e6f74206f776e6572000000000000000000000000000000000000000000000081525060200191505060405180910390fd5b816123a781610cca565b60001515602560009054906101000a900460ff161515146123c757600080fd5b600060018111156123d457fe5b602d84600581106123e157fe5b602091828204019190069054906101000a900460ff16600181111561240257fe5b1415612476576040517f08c379a000000000000000000000000000000000000000000000000000000000815260040180806020018281038252600a8152602001807f466f7265636c6f7365640000000000000000000000000000000000000000000081525060200191505060405180910390fd5b600b836005811061248357fe5b015484116124dc576040517f08c379a000000000000000000000000000000000000000000000000000000000815260040180806020018281038252602b81526020018061398d602b913960400191505060405180910390fd5b83600b84600581106124ea57fe5b0181905550836028600085815260200190815260200160002060006020866005811061251257fe5b0154815260200190815260200160002060010181905550600b836005811061253657fe5b01547f854d6511a28585103049c7770618450f7c9aeb580c69db2913d63869663f475160405160405180910390a250505050565b600081600560009054906101000a900473ffffffffffffffffffffffffffffffffffffffff1673ffffffffffffffffffffffffffffffffffffffff16636352211e826040518263ffffffff1660e01b81526004018082815260200191505060206040518083038186803b1580156125e057600080fd5b505afa1580156125f4573d6000803e3d6000fd5b505050506040513d602081101561260a57600080fd5b810190808051906020019092919050505073ffffffffffffffffffffffffffffffffffffffff163373ffffffffffffffffffffffffffffffffffffffff16146126bb576040517f08c379a00000000000000000000000000000000000000000000000000000000081526004018080602001828103825260098152602001807f4e6f74206f776e6572000000000000000000000000000000000000000000000081525060200191505060405180910390fd5b826126c581610cca565b60001515602560009054906101000a900460ff161515146126e557600080fd5b6126ef85856132f2565b505092915050565b6010816005811061270457fe5b016000915090505481565b60045481565b602c6020528060005260406000206000915090505481565b6020816005811061273a57fe5b016000915090505481565b600060286000848152602001908152602001600020600083815260200190815260200160002060010154905092915050565b60008061278383611c35565b4291509150915091565b600015156000809054906101000a900460ff16151514156128d157600860009054906101000a900473ffffffffffffffffffffffffffffffffffffffff1673ffffffffffffffffffffffffffffffffffffffff16635791589768056bc75e2d631000006040518263ffffffff1660e01b815260040180828152602001915050600060405180830381600087803b15801561282657600080fd5b505af115801561283a573d6000803e3d6000fd5b5050505068056bc75e2d63100000602c60003373ffffffffffffffffffffffffffffffffffffffff1673ffffffffffffffffffffffffffffffffffffffff1681526020019081526020016000205401602c60003373ffffffffffffffffffffffffffffffffffffffff1673ffffffffffffffffffffffffffffffffffffffff16815260200190815260200160002081905550612958565b6064602c60003373ffffffffffffffffffffffffffffffffffffffff1673ffffffffffffffffffffffffffffffffffffffff1681526020019081526020016000205401602c60003373ffffffffffffffffffffffffffffffffffffffff1673ffffffffffffffffffffffffffffffffffffffff168152602001908152602001600020819055505b565b6028602052816000526040600020602052806000526040600020600091509150508060000160009054906101000a900473ffffffffffffffffffffffffffffffffffffffff16908060010154905082565b6000806129d36301e13380600b85600581106129c357fe5b0154612dcc90919063ffffffff16565b905060008114156129e75742915050612a08565b612a02816129f485611243565b612dcc90919063ffffffff16565b42019150505b919050565b60155481565b612a1e60155461356b565b6000600860009054906101000a900473ffffffffffffffffffffffffffffffffffffffff1673ffffffffffffffffffffffffffffffffffffffff166370a08231336040518263ffffffff1660e01b8152600401808273ffffffffffffffffffffffffffffffffffffffff1673ffffffffffffffffffffffffffffffffffffffff16815260200191505060206040518083038186803b158015612abf57600080fd5b505afa158015612ad3573d6000803e3d6000fd5b505050506040513d6020811015612ae957600080fd5b810190808051906020019092919050505090506000600190505b602060265460058110612b1257fe5b01548111612cf8576000602860006026548152602001908152602001600020600083815260200190815260200160002060000160009054906101000a900473ffffffffffffffffffffffffffffffffffffffff169050600060296000602654815260200190815260200160002060008373ffffffffffffffffffffffffffffffffffffffff1673ffffffffffffffffffffffffffffffffffffffff1681526020019081526020016000205490506000612be9602a600060265481526020019081526020016000205483612dcc90919063ffffffff16565b90506000612c008287612d4690919063ffffffff16565b9050600860009054906101000a900473ffffffffffffffffffffffffffffffffffffffff1673ffffffffffffffffffffffffffffffffffffffff1663a9059cbb85836040518363ffffffff1660e01b8152600401808373ffffffffffffffffffffffffffffffffffffffff1673ffffffffffffffffffffffffffffffffffffffff16815260200182815260200192505050602060405180830381600087803b158015612cab57600080fd5b505af1158015612cbf573d6000803e3d6000fd5b505050506040513d6020811015612cd557600080fd5b810190808051906020019092919050505050505050508080600101915050612b03565b5050565b6000612d3e83836040518060400160405280601e81526020017f536166654d6174683a207375627472616374696f6e206f766572666c6f7700008152506136a7565b905092915050565b600080831415612d595760009050612dc6565b6000828402905082848281612d6a57fe5b0414612dc1576040517f08c379a00000000000000000000000000000000000000000000000000000000081526004018080602001828103825260218152602001806139df6021913960400191505060405180910390fd5b809150505b92915050565b6000612e0e83836040518060400160405280601a81526020017f536166654d6174683a206469766973696f6e206279207a65726f000000000000815250613767565b905092915050565b600080828401905083811015612e94576040517f08c379a000000000000000000000000000000000000000000000000000000000815260040180806020018281038252601b8152602001807f536166654d6174683a206164646974696f6e206f766572666c6f77000000000081525060200191505060405180910390fd5b8091505092915050565b60008090505b6000151581151514156130ba57600060208360058110612ec057fe5b01541015612eca57fe5b600160208360058110612ed957fe5b01540360208360058110612ee957fe5b0181905550600060208360058110612efd57fe5b01549050600060286000858152602001908152602001600020600083815260200190815260200160002060000160009054906101000a900473ffffffffffffffffffffffffffffffffffffffff1690506000821415612f6857612f5f8461382d565b600192506130b3565b6000602b600086815260200190815260200160002060008373ffffffffffffffffffffffffffffffffffffffff1673ffffffffffffffffffffffffffffffffffffffff1681526020019081526020016000205411156130b2576000600560009054906101000a900473ffffffffffffffffffffffffffffffffffffffff1673ffffffffffffffffffffffffffffffffffffffff16636352211e866040518263ffffffff1660e01b81526004018082815260200191505060206040518083038186803b15801561303657600080fd5b505afa15801561304a573d6000803e3d6000fd5b505050506040513d602081101561306057600080fd5b8101908080519060200190929190505050905060006028600087815260200190815260200160002060008581526020019081526020016000206001015490506130ab828483896131e4565b6001945050505b5b5050612ea4565b5050565b600015156000809054906101000a900460ff16151514156131e157600760009054906101000a900473ffffffffffffffffffffffffffffffffffffffff1673ffffffffffffffffffffffffffffffffffffffff1663abb60c80600660009054906101000a900473ffffffffffffffffffffffffffffffffffffffff16836040518363ffffffff1660e01b8152600401808373ffffffffffffffffffffffffffffffffffffffff1673ffffffffffffffffffffffffffffffffffffffff16815260200182815260200192505050602060405180830381600087803b1580156131a457600080fd5b505af11580156131b8573d6000803e3d6000fd5b505050506040513d60208110156131ce57600080fd5b8101908080519060200190929190505050505b50565b600560009054906101000a900473ffffffffffffffffffffffffffffffffffffffff1673ffffffffffffffffffffffffffffffffffffffff166323b872dd8585846040518463ffffffff1660e01b8152600401808473ffffffffffffffffffffffffffffffffffffffff1673ffffffffffffffffffffffffffffffffffffffff1681526020018373ffffffffffffffffffffffffffffffffffffffff1673ffffffffffffffffffffffffffffffffffffffff1681526020018281526020019350505050600060405180830381600087803b1580156132c157600080fd5b505af11580156132d5573d6000803e3d6000fd5b5050505081600b82600581106132e757fe5b018190555050505050565b81602b600083815260200190815260200160002060003373ffffffffffffffffffffffffffffffffffffffff1673ffffffffffffffffffffffffffffffffffffffff1681526020019081526020016000205410156133b8576040517f08c379a00000000000000000000000000000000000000000000000000000000081526004018080602001828103825260148152602001807f5769746864726177696e6720746f6f206d75636800000000000000000000000081525060200191505060405180910390fd5b61341b82602b600084815260200190815260200160002060003373ffffffffffffffffffffffffffffffffffffffff1673ffffffffffffffffffffffffffffffffffffffff16815260200190815260200160002054612cfc90919063ffffffff16565b602b600083815260200190815260200160002060003373ffffffffffffffffffffffffffffffffffffffff1673ffffffffffffffffffffffffffffffffffffffff168152602001908152602001600020819055506134c182602c60003373ffffffffffffffffffffffffffffffffffffffff1673ffffffffffffffffffffffffffffffffffffffff16815260200190815260200160002054612e1690919063ffffffff16565b602c60003373ffffffffffffffffffffffffffffffffffffffff1673ffffffffffffffffffffffffffffffffffffffff168152602001908152602001600020819055506000602b600083815260200190815260200160002060003373ffffffffffffffffffffffffffffffffffffffff1673ffffffffffffffffffffffffffffffffffffffff1681526020019081526020016000205414156135675761356681612e9e565b5b5050565b60155481111561357757fe5b600015156000809054906101000a900460ff16151514156136a457600760009054906101000a900473ffffffffffffffffffffffffffffffffffffffff1673ffffffffffffffffffffffffffffffffffffffff1663ad16158e600660009054906101000a900473ffffffffffffffffffffffffffffffffffffffff16836040518363ffffffff1660e01b8152600401808373ffffffffffffffffffffffffffffffffffffffff1673ffffffffffffffffffffffffffffffffffffffff168152602001828152602001925050506040805180830381600087803b15801561365c57600080fd5b505af1158015613670573d6000803e3d6000fd5b505050506040513d604081101561368657600080fd5b81019080805190602001909291908051906020019092919050505050505b50565b6000838311158290613754576040517f08c379a00000000000000000000000000000000000000000000000000000000081526004018080602001828103825283818151815260200191508051906020019080838360005b838110156137195780820151818401526020810190506136fe565b50505050905090810190601f1680156137465780820380516001836020036101000a031916815260200191505b509250505060405180910390fd5b5060008385039050809150509392505050565b60008083118290613813576040517f08c379a00000000000000000000000000000000000000000000000000000000081526004018080602001828103825283818151815260200191508051906020019080838360005b838110156137d85780820151818401526020810190506137bd565b50505050905090810190601f1680156138055780820380516001836020036101000a031916815260200191505b509250505060405180910390fd5b50600083858161381f57fe5b049050809150509392505050565b6000600560009054906101000a900473ffffffffffffffffffffffffffffffffffffffff1673ffffffffffffffffffffffffffffffffffffffff16636352211e836040518263ffffffff1660e01b81526004018082815260200191505060206040518083038186803b1580156138a257600080fd5b505afa1580156138b6573d6000803e3d6000fd5b505050506040513d60208110156138cc57600080fd5b8101908080519060200190929190505050905061390e81600960009054906101000a900473ffffffffffffffffffffffffffffffffffffffff166000856131e4565b6000602d836005811061391d57fe5b602091828204019190066101000a81548160ff0219169083600181111561394057fe5b02179055508073ffffffffffffffffffffffffffffffffffffffff167f6d6bbefef62d4cb6d0e3a4dd306a71d3632319b1e03659513df86b247dd657fe60405160405180910390a2505056fe4e6577207072696365206d75737420626520686967686572207468616e2063757272656e742070726963655072696365206d75737420626520686967686572207468616e2063757272656e74207072696365536166654d6174683a206d756c7469706c69636174696f6e206f766572666c6f775761697420666f7220646563656e7472616c69736564207265736f6c7574696f6e206669727374a265627a7a723158209554e48b1751336e5c530f1107b394b3fcad52e5d0ec731f7d9a4ac537a0e53564736f6c634300050c0032",
  "source": "pragma solidity ^0.5.0;\nimport \"./interfaces/IERC721Full.sol\";\nimport \"./utils/SafeMath.sol\";\n\ninterface IMarket \n{\n    function getWinningPayoutNumerator(uint256 _outcome) external view returns (uint256);\n}\n\ninterface ShareToken \n\n{\n    function publicBuyCompleteSets(IMarket _market, uint256 _amount) external returns (bool)  ;\n    function publicSellCompleteSets(IMarket _market, uint256 _amount) external returns (uint256 _creatorFee, uint256 _reportingFee) ;\n}\n\ninterface Cash \n{\n    function approve(address _spender, uint256 _amount) external returns (bool);\n    function balanceOf(address _owner) external view returns (uint256);\n    function faucet(uint256 _amount) external;\n    function transfer(address _to, uint256 _amount) external returns (bool);\n    function transferFrom(address _from, address _to, uint256 _amount) external returns (bool);\n}\n\n//TODO: make sure timeHeld is updated for the final owner because it is not automatically updated unless there is a transfer of the token. \n//TODO: augur will not accept to buy complete sets when itis resolved, so add smth to check if it is resolved with very collectRent\n//TODO : add something that will pay back all unused deposits at end of market\n\ncontract Harber {\n    \n    using SafeMath for uint256;\n\n    //TESTING VARIABLES\n    bool usingGanache = false;\n    uint256 public testingVariable = 0;\n    uint256 public a = 0;\n    uint256 public b = 0;\n    uint256 public c = 0;\n    \n    // CONTRACT VARIABLES\n    IERC721Full public team; // ERC721 NFT.\n    //Augur contracts:\n    IMarket market;\n    ShareToken completeSets;\n    Cash cash; \n\n    // UINTS ADDRESSES, BOOLS\n    address andrewsAddress; // I am the original owner of tokens, and ownership reverts to me should the sale foreclose\n    address marketAddress;\n    uint256 constant numberOfTokens = 5; \n    uint256[numberOfTokens] public price; //in wei\n    uint256[numberOfTokens] public collectedAndSentToAugur; // amount collected for each token, ie the sum of all owners' rent  \n    uint256  public totalCollectedAndSentToAugur; // an easy way to track the above\n    uint256[numberOfTokens] public timeLastCollected; \n    uint256[numberOfTokens] public timeAcquired;\n    uint256[numberOfTokens] public currentOwnerIndex; // tracks the position of the current owner in the ownerTracker mapping\n    // winning outcome variables\n    bool marketResolved = false;\n    uint256 winningOutcome = 99; //start with invalid winning outcome\n    uint256 public marketExpectedResolutionTime; //so the function to manually set the winner can only be called long after it should have resolved via Augur. Must be public so others can verify it is accurate. \n\n    //  STRUCTS\n    struct purchase {\n        address owner;\n        uint price;\n    }\n    \n    // MAPPINGS\n    mapping (uint256 => mapping (uint256 => purchase) ) public ownerTracker; //keeps track of all owners of a token, including the price, so that if the current owner's deposit runs out, ownership can be reverted to a previous owner with the previous price. Index 0 is NOT used, this tells the contract to foreclose\n    mapping (uint256 => mapping (address => uint256) ) public timeHeld; //this is the key variable that tracks the total amount of time each user has held it for. It is ONLY updated upon a new owner buying the token. If _collect is run and there is no new owner, this is not updated.\n    mapping (uint256 => uint256) public totalTimeHeld; //for the payout, what is the total time each token is owned for\n    mapping (uint256 => mapping (address => uint256) ) public deposits; //keeps track of all the deposits for each token, for each owner.\n    mapping (address => uint256) public testDaiBalances;\n\n    // ENUMS\n    enum ownedState { Foreclosed, Owned }\n    ownedState[numberOfTokens] public state;\n\n    constructor(address _andrewsAddress, address _addressOfToken, address _addressOfCashContract, address _addressOfMarket, address _addressOfCompleteSetsContract, address _addressOfMainAugurContract, uint _marketExpectedResolutionTime) public {\n        //initialise ERC721s\n        team = IERC721Full(_addressOfToken);\n        team.setup();\n        andrewsAddress = _andrewsAddress;\n        state[0] = ownedState.Foreclosed;\n        state[1] = ownedState.Foreclosed;\n        state[2] = ownedState.Foreclosed;\n        state[3] = ownedState.Foreclosed;\n        state[4] = ownedState.Foreclosed;\n\n        //this variable is incremented before being used first so the 0 index will never contain a price/address. A zero index is used in the _revertToPreviousOwner  function to commence foreclosure\n        currentOwnerIndex[0]=0;\n        currentOwnerIndex[1]=0;\n        currentOwnerIndex[2]=0;\n        currentOwnerIndex[3]=0;\n        currentOwnerIndex[4]=0;\n\n        //initialise Augur contract variables\n        cash = Cash(_addressOfCashContract);\n        market = IMarket(_addressOfMarket);\n        completeSets = ShareToken(_addressOfCompleteSetsContract);\n        marketExpectedResolutionTime = _marketExpectedResolutionTime;\n        \n        //approve augur contract to transfer this contract's dai\n        if (usingGanache == false)\n        {\n            cash.approve(_addressOfMainAugurContract,(2**256)-1);\n        }       \n    } \n\n    event LogBuy(address indexed owner, uint256 indexed price);\n    event LogPriceChange(uint256 indexed newPrice);\n    event LogForeclosure(address indexed prevOwner);\n    event LogCollection(uint256 indexed collected);\n    \n    modifier onlyOwner(uint256 _tokenId) {\n        require(msg.sender == team.ownerOf(_tokenId), \"Not owner\");\n        _;\n    }\n\n    modifier notResolved() {\n        require(marketResolved == false);\n        _;\n    }\n\n    modifier collectRent(uint256 _tokenId) {\n       _collectRent(_tokenId); \n       _;\n    }\n\n    function getTestDai() public \n    {\n        if (usingGanache == false)\n        {\n            cash.faucet(100000000000000000000);\n            testDaiBalances[msg.sender]= testDaiBalances[msg.sender] + 100000000000000000000;\n        }\n        else\n        {\n            testDaiBalances[msg.sender]= testDaiBalances[msg.sender] + 100;\n        }\n    }\n\n    function buyCompleteSets(uint256 _rentOwed) internal \n    {\n        if (usingGanache == false)\n        {\n            completeSets.publicBuyCompleteSets(market, _rentOwed);\n        } \n    }\n\n     function sellCompleteSets(uint256 _sets) internal \n    {\n        assert(_sets<=totalCollectedAndSentToAugur);\n\n        if (usingGanache == false)\n        {\n            completeSets.publicSellCompleteSets(market, _sets);\n        } \n    }\n\n    //this can be called by anyone, at any time. getWinningPayoutNumerator will always return with 0 unless the market is resolved. \n    function getWinner() notResolved() public \n    {\n        for (uint i=0; i < numberOfTokens; i++)\n        {\n            uint256 _response = market.getWinningPayoutNumerator(i);\n            if (_response != 0)\n            {\n                winningOutcome = i;\n                //final rent collection before it is locked down\n                _collectRent(winningOutcome);\n                marketResolved = true;\n                finaliseAndPayout();\n            }\n        }\n    }\n\n    //this function is used for testing, and in production is kept unless the above function fails. It can ONLY be called well after the market should have resolved on Augur, otherwise I could influence the outcome\n    function setWinner(uint256 _winner) notResolved() public \n    {\n        //only I can call this\n        require (msg.sender == andrewsAddress, \"Imposter detected\"); \n        // can only be called if a month has passed and the Augur market still not resolved\n        require (now > (marketExpectedResolutionTime + 2592000), \"Wait for decentralised resolution first\");\n        //final rent collection before it is locked down\n        winningOutcome = _winner;\n        _collectRent(winningOutcome);\n        marketResolved = true;\n        finaliseAndPayout();\n    }\n\n    function finaliseAndPayout() internal\n    {\n        //get the dai back from Augur\n        sellCompleteSets(totalCollectedAndSentToAugur);\n        //Im not relying on totalCollectedAndSentToAugur to distribute in case get less back from Augur due to fees. Will get the actual DAI balance of the contract. \n        uint256 _daiAvailableToDistribute = cash.balanceOf(msg.sender);\n\n        //do the payout. start from 1 not 0 because 0 is the foreclosed state\n        for (uint i=1; i <= currentOwnerIndex[winningOutcome]; i++)\n        {   \n            address _winnersAddress = ownerTracker[winningOutcome][i].owner;\n            uint _winnersTimeHeld = timeHeld[winningOutcome][_winnersAddress];\n            uint256 _timeHeldFraction = _winnersTimeHeld.div(totalTimeHeld[winningOutcome]);\n            uint256 _winningsToTransfer = _daiAvailableToDistribute.mul(_timeHeldFraction);\n            cash.transfer(_winnersAddress,_winningsToTransfer);\n        }\n    }\n\n    function getTestDaiBalance() public view returns (uint256)\n    {\n        return(testDaiBalances[msg.sender]);\n    }\n\n    function getOwnerTrackerPrice(uint256 _tokenId, uint256 _index) public view returns (uint256)\n    {\n        return (ownerTracker[_tokenId][_index].price);\n    }\n\n    function getOwnerTrackerAddress(uint256 _tokenId, uint256 _index) public view returns (address)\n    {\n        return (ownerTracker[_tokenId][_index].owner);\n    }\n\n    function calculateRentOwed(uint256 _tokenId) public view returns (uint256 augurFundsDue) {\n        return price[_tokenId].mul(now.sub(timeLastCollected[_tokenId])).div(365 days);\n    }\n\n    function calculateRentOwedWithTimestamp(uint256 _tokenId) public view returns (uint256 augurFundsDue, uint256 timestamp) {\n        return (calculateRentOwed(_tokenId), now);\n    }\n    function foreclosed(uint256 _tokenId) public view returns (bool) {\n        // returns whether it is in foreclosed state or not\n        // depending on whether deposit covers patronage due\n        // useful helper function when price should be zero, but contract doesn't reflect it yet.\n        uint256 _rentOwed = calculateRentOwed(_tokenId);\n        if(_rentOwed >= deposits[_tokenId][msg.sender]) {\n            return true;\n        } else {\n            return false;\n        }\n    }\n\n    // this is only used to calculate foreclosure time\n    function liveDepositAbleToWithdraw(uint256 _tokenId) public view returns (uint256) {\n        uint256 _rentOwed = calculateRentOwed(_tokenId);\n        address _currentOwner = team.ownerOf(_tokenId);\n        if(_rentOwed >= deposits[_tokenId][_currentOwner]) {\n            return 0;\n        } else {\n            return deposits[_tokenId][_currentOwner].sub(_rentOwed);\n        }\n    }\n\n    //this is my version of the above function. It shows how much each user can withdraw- whether or not they are the current owner. \n    function userDepositAbleToWithdraw(uint256 _tokenId) public view returns (uint256) {\n        uint256 _rentOwed = calculateRentOwed(_tokenId);\n        address _currentOwner = team.ownerOf(_tokenId);\n\n        if(_currentOwner == msg.sender)\n        {\n            if(_rentOwed >= deposits[_tokenId][msg.sender]) \n        {\n            return 0;\n        } else {\n            return deposits[_tokenId][msg.sender].sub(_rentOwed);\n        }\n        } else {\n            return deposits[_tokenId][msg.sender];\n        }\n    }\n\n    function rentalExpiryTime(uint256 _tokenId) public view returns (uint256) {\n        uint256 pps = price[_tokenId].div(365 days);\n        if (pps == 0)\n        {\n            return now; //if price is so low that pps = 0 just return current time as a fallback\n        }\n        else\n        {\n            return now + liveDepositAbleToWithdraw(_tokenId).div(pps);\n        }\n    }\n\n    function _collectRent(uint256 _tokenId) notResolved() public {\n        // determine patronage to pay\n        if (state[_tokenId] == ownedState.Owned) {\n            \n            uint256 _rentOwed = calculateRentOwed(_tokenId);\n            address _currentOwner = team.ownerOf(_tokenId);\n            uint256 _timeOfThisCollection;\n            \n            if (_rentOwed >= deposits[_tokenId][_currentOwner]) {\n                // run out of deposit. Calculate time it was actually paid for, then revert to previous owner \n                _timeOfThisCollection = timeLastCollected[_tokenId].add(((now.sub(timeLastCollected[_tokenId])).mul(deposits[_tokenId][_currentOwner]).div(_rentOwed)));\n                _rentOwed = deposits[_tokenId][_currentOwner]; // take what's left     \n                _revertToPreviousOwner(_tokenId);\n                \n            } else  {\n                //normal collection\n                _timeOfThisCollection = now;\n            }\n\n            uint256 _timeHeldToIncrement = (_timeOfThisCollection.sub(timeLastCollected[_tokenId])); //just for readability\n            timeHeld[_tokenId][_currentOwner] = timeHeld[_tokenId][_currentOwner].add(_timeHeldToIncrement);\n\n            //do NOT count when the token is foreclosed\n            if (currentOwnerIndex[_tokenId] != 0)\n            {\n                totalTimeHeld[_tokenId] = totalTimeHeld[_tokenId].add(_timeHeldToIncrement);\n            }\n\n            timeLastCollected[_tokenId] = now;\n            deposits[_tokenId][_currentOwner] = deposits[_tokenId][_currentOwner].sub(_rentOwed);\n            collectedAndSentToAugur[_tokenId] = collectedAndSentToAugur[_tokenId].add(_rentOwed);\n            totalCollectedAndSentToAugur = totalCollectedAndSentToAugur.add(_rentOwed);\n            buyCompleteSets(_rentOwed);\n\n            emit LogCollection(_rentOwed);\n        }\n    }\n\n    // note: anyone can deposit\n    function depositDai(uint256 _dai, uint256 _tokenId) public collectRent(_tokenId) notResolved() {\n        require(state[_tokenId] != ownedState.Foreclosed, \"Foreclosed\");\n        testDaiBalances[msg.sender] = testDaiBalances[msg.sender].sub(_dai);\n        deposits[_tokenId][msg.sender] = deposits[_tokenId][msg.sender].add(_dai);\n    }\n    \n    function buy(uint256 _newPrice, uint256 _tokenId, uint256 _deposit) public collectRent(_tokenId) notResolved() {\n        require(_newPrice > price[_tokenId], \"Price must be higher than current price\");\n        require(_deposit > 0, \"Must deposit something\");\n        require(testDaiBalances[msg.sender] >= _deposit, \"Not enough DAI\");\n        \n        testDaiBalances[msg.sender] = testDaiBalances[msg.sender].sub(_deposit);\n        deposits[_tokenId][msg.sender] = deposits[_tokenId][msg.sender].add(_deposit);\n        \n        address _currentOwner = team.ownerOf(_tokenId);\n\n        if(_currentOwner == msg.sender)\n        {\n            ownerTracker[_tokenId][currentOwnerIndex[_tokenId]].price = _newPrice;\n        }\n        else\n        {\n            currentOwnerIndex[_tokenId] = currentOwnerIndex[_tokenId] + 1; \n            // currentOwnerIndex[_tokenId] = currentOwnerIndex[_tokenId].add(1);\n            //^^ the above line causes VM errors, I need to figure out why\n            ownerTracker[_tokenId][currentOwnerIndex[_tokenId]].price = _newPrice;\n            ownerTracker[_tokenId][currentOwnerIndex[_tokenId]].owner = msg.sender; \n        }\n\n        if(state[_tokenId] == ownedState.Foreclosed) \n        {\n            state[_tokenId] = ownedState.Owned;\n        }\n        \n        _transferTokenTo(_currentOwner, msg.sender, _newPrice, _tokenId); //does this even if owner hasn't changed. this is ok. \n        emit LogBuy(msg.sender, _newPrice);\n    }\n\n    function changePrice(uint256 _newPrice, uint256 _tokenId) public onlyOwner(_tokenId) collectRent(_tokenId) notResolved() {\n        require(state[_tokenId] != ownedState.Foreclosed, \"Foreclosed\");\n        require(_newPrice > price[_tokenId], \"New price must be higher than current price\"); //This is to prevent griefing- buying it then immediately dropping the price really low. The original project did not suffer from this problem because when you bought it, you had to pay the purchase price to the previous user, not so in mine. \n        \n        price[_tokenId] = _newPrice;\n        ownerTracker[_tokenId][currentOwnerIndex[_tokenId]].price = _newPrice;\n        emit LogPriceChange(price[_tokenId]);\n    }\n    \n    function withdrawDeposit(uint256 _dai, uint256 _tokenId) public onlyOwner(_tokenId) collectRent(_tokenId) notResolved() returns (uint256) {\n        _withdrawDeposit(_dai, _tokenId);\n    }\n\n    function exit(uint256 _tokenId) public onlyOwner(_tokenId) collectRent(_tokenId) {\n        _withdrawDeposit(deposits[_tokenId][msg.sender],  _tokenId);\n    }\n\n    /* internal */\n    function _withdrawDeposit(uint256 _dai, uint256 _tokenId) internal {\n        // note: can withdraw whole deposit, which puts it in immediate to be foreclosed state.\n        require(deposits[_tokenId][msg.sender] >= _dai, 'Withdrawing too much');\n\n        deposits[_tokenId][msg.sender] = deposits[_tokenId][msg.sender].sub(_dai);\n        testDaiBalances[msg.sender] = testDaiBalances[msg.sender].add(_dai);\n        //TO DO THE SEND DAI FUNCTION, CANNOT DO ON TESTNET\n\n        if(deposits[_tokenId][msg.sender] == 0) {\n            _revertToPreviousOwner(_tokenId);\n        }\n    }\n\n    function _revertToPreviousOwner(uint256 _tokenId) internal {\n        bool _reverted = false;\n        while (_reverted == false)\n        {\n            assert(currentOwnerIndex[_tokenId] >=0);\n            currentOwnerIndex[_tokenId] = currentOwnerIndex[_tokenId] - 1; // ownerTraker will now point to  previous owner\n            uint256 _index = currentOwnerIndex[_tokenId]; //just for readability\n            address _previousOwner = ownerTracker[_tokenId][_index].owner;\n\n            if (_index == 0) \n            //no previous owners. price -> zero, foreclose\n            {\n                _foreclose(_tokenId);\n                _reverted = true;\n            }\n            else if (deposits[_tokenId][_previousOwner] > 0)\n            // previous owner still has a deposit, transfer to them, update the price to what it used to be\n            {\n                address _currentOwner = team.ownerOf(_tokenId);\n                uint256 _oldPrice = ownerTracker[_tokenId][_index].price;\n                _transferTokenTo(_currentOwner, _previousOwner, _oldPrice, _tokenId);\n                _reverted = true;\n            }\n        }       \n    }\n\n    function _foreclose(uint256 _tokenId) internal {\n        // I become steward of artwork (aka foreclose)\n        address _currentOwner = team.ownerOf(_tokenId);\n        //third field is price, ie price goes to zero\n        _transferTokenTo(_currentOwner, andrewsAddress, 0, _tokenId);\n        state[_tokenId] = ownedState.Foreclosed;\n        emit LogForeclosure(_currentOwner);\n    }\n\n    function _transferTokenTo(address _currentOwner, address _newOwner, uint256 _newPrice, uint256 _tokenId) internal {\n        team.transferFrom(_currentOwner, _newOwner, _tokenId);\n        price[_tokenId] = _newPrice;\n    }\n}\n\n                // require(1 > 2, \"STFU\");\n",
  "sourcePath": "/Users/mcplums/Repos/Harber/contracts/Harber.sol",
  "compiler": {
    "name": "solc",
    "version": "0.5.12+commit.7709ece9.Emscripten.clang"
  },
  "schemaVersion": "3.0.19",
  "updatedAt": "2019-12-13T08:38:21.633Z",
  "devdoc": {
    "methods": {}
  },
  "userdoc": {
    "methods": {}
  }
}