{
  "contractName": "Harber",
  "abi": [
    {
      "inputs": [
        {
          "internalType": "address",
          "name": "_andrewsAddress",
          "type": "address"
        },
        {
          "internalType": "address",
          "name": "_addressOfToken",
          "type": "address"
        },
        {
          "internalType": "address",
          "name": "_addressOfCashContract",
          "type": "address"
        },
        {
          "internalType": "address",
          "name": "_addressOfMarket",
          "type": "address"
        },
        {
          "internalType": "address",
          "name": "_addressOfCompleteSetsContract",
          "type": "address"
        },
        {
          "internalType": "address",
          "name": "_addressOfMainAugurContract",
          "type": "address"
        },
        {
          "internalType": "uint256",
          "name": "_marketExpectedResolutionTime",
          "type": "uint256"
        }
      ],
      "payable": false,
      "stateMutability": "nonpayable",
      "type": "constructor"
    },
    {
      "anonymous": false,
      "inputs": [
        {
          "indexed": true,
          "internalType": "address",
          "name": "owner",
          "type": "address"
        },
        {
          "indexed": true,
          "internalType": "uint256",
          "name": "price",
          "type": "uint256"
        }
      ],
      "name": "LogBuy",
      "type": "event"
    },
    {
      "anonymous": false,
      "inputs": [
        {
          "indexed": true,
          "internalType": "uint256",
          "name": "collected",
          "type": "uint256"
        }
      ],
      "name": "LogCollection",
      "type": "event"
    },
    {
      "anonymous": false,
      "inputs": [
        {
          "indexed": true,
          "internalType": "address",
          "name": "prevOwner",
          "type": "address"
        }
      ],
      "name": "LogForeclosure",
      "type": "event"
    },
    {
      "anonymous": false,
      "inputs": [
        {
          "indexed": true,
          "internalType": "uint256",
          "name": "newPrice",
          "type": "uint256"
        }
      ],
      "name": "LogPriceChange",
      "type": "event"
    },
    {
      "constant": true,
      "inputs": [
        {
          "internalType": "uint256",
          "name": "",
          "type": "uint256"
        }
      ],
      "name": "collectedAndSentToAugur",
      "outputs": [
        {
          "internalType": "uint256",
          "name": "",
          "type": "uint256"
        }
      ],
      "payable": false,
      "stateMutability": "view",
      "type": "function"
    },
    {
      "constant": true,
      "inputs": [
        {
          "internalType": "uint256",
          "name": "",
          "type": "uint256"
        }
      ],
      "name": "currentOwnerIndex",
      "outputs": [
        {
          "internalType": "uint256",
          "name": "",
          "type": "uint256"
        }
      ],
      "payable": false,
      "stateMutability": "view",
      "type": "function"
    },
    {
      "constant": true,
      "inputs": [
        {
          "internalType": "uint256",
          "name": "",
          "type": "uint256"
        },
        {
          "internalType": "address",
          "name": "",
          "type": "address"
        }
      ],
      "name": "deposits",
      "outputs": [
        {
          "internalType": "uint256",
          "name": "",
          "type": "uint256"
        }
      ],
      "payable": false,
      "stateMutability": "view",
      "type": "function"
    },
    {
      "constant": true,
      "inputs": [],
      "name": "doneAndDusted",
      "outputs": [
        {
          "internalType": "bool",
          "name": "",
          "type": "bool"
        }
      ],
      "payable": false,
      "stateMutability": "view",
      "type": "function"
    },
    {
      "constant": true,
      "inputs": [
        {
          "internalType": "address",
          "name": "",
          "type": "address"
        }
      ],
      "name": "fundsSentToUser",
      "outputs": [
        {
          "internalType": "uint256",
          "name": "",
          "type": "uint256"
        }
      ],
      "payable": false,
      "stateMutability": "view",
      "type": "function"
    },
    {
      "constant": true,
      "inputs": [],
      "name": "marketExpectedResolutionTime",
      "outputs": [
        {
          "internalType": "uint256",
          "name": "",
          "type": "uint256"
        }
      ],
      "payable": false,
      "stateMutability": "view",
      "type": "function"
    },
    {
      "constant": true,
      "inputs": [],
      "name": "marketResolved",
      "outputs": [
        {
          "internalType": "bool",
          "name": "",
          "type": "bool"
        }
      ],
      "payable": false,
      "stateMutability": "view",
      "type": "function"
    },
    {
      "constant": true,
      "inputs": [
        {
          "internalType": "uint256",
          "name": "",
          "type": "uint256"
        }
      ],
      "name": "numberOfOwners",
      "outputs": [
        {
          "internalType": "uint256",
          "name": "",
          "type": "uint256"
        }
      ],
      "payable": false,
      "stateMutability": "view",
      "type": "function"
    },
    {
      "constant": true,
      "inputs": [
        {
          "internalType": "uint256",
          "name": "",
          "type": "uint256"
        },
        {
          "internalType": "uint256",
          "name": "",
          "type": "uint256"
        }
      ],
      "name": "ownerTracker",
      "outputs": [
        {
          "internalType": "address",
          "name": "",
          "type": "address"
        }
      ],
      "payable": false,
      "stateMutability": "view",
      "type": "function"
    },
    {
      "constant": true,
      "inputs": [
        {
          "internalType": "uint256",
          "name": "",
          "type": "uint256"
        },
        {
          "internalType": "uint256",
          "name": "",
          "type": "uint256"
        }
      ],
      "name": "previousOwnerTracker",
      "outputs": [
        {
          "internalType": "address",
          "name": "owner",
          "type": "address"
        },
        {
          "internalType": "uint256",
          "name": "price",
          "type": "uint256"
        }
      ],
      "payable": false,
      "stateMutability": "view",
      "type": "function"
    },
    {
      "constant": true,
      "inputs": [
        {
          "internalType": "uint256",
          "name": "",
          "type": "uint256"
        }
      ],
      "name": "price",
      "outputs": [
        {
          "internalType": "uint256",
          "name": "",
          "type": "uint256"
        }
      ],
      "payable": false,
      "stateMutability": "view",
      "type": "function"
    },
    {
      "constant": true,
      "inputs": [
        {
          "internalType": "uint256",
          "name": "",
          "type": "uint256"
        }
      ],
      "name": "state",
      "outputs": [
        {
          "internalType": "enum Harber.ownedState",
          "name": "",
          "type": "uint8"
        }
      ],
      "payable": false,
      "stateMutability": "view",
      "type": "function"
    },
    {
      "constant": true,
      "inputs": [],
      "name": "team",
      "outputs": [
        {
          "internalType": "contract IERC721Full",
          "name": "",
          "type": "address"
        }
      ],
      "payable": false,
      "stateMutability": "view",
      "type": "function"
    },
    {
      "constant": true,
      "inputs": [
        {
          "internalType": "address",
          "name": "",
          "type": "address"
        }
      ],
      "name": "testDaiBalances",
      "outputs": [
        {
          "internalType": "uint256",
          "name": "",
          "type": "uint256"
        }
      ],
      "payable": false,
      "stateMutability": "view",
      "type": "function"
    },
    {
      "constant": true,
      "inputs": [
        {
          "internalType": "uint256",
          "name": "",
          "type": "uint256"
        }
      ],
      "name": "timeAcquired",
      "outputs": [
        {
          "internalType": "uint256",
          "name": "",
          "type": "uint256"
        }
      ],
      "payable": false,
      "stateMutability": "view",
      "type": "function"
    },
    {
      "constant": true,
      "inputs": [
        {
          "internalType": "uint256",
          "name": "",
          "type": "uint256"
        },
        {
          "internalType": "address",
          "name": "",
          "type": "address"
        }
      ],
      "name": "timeHeld",
      "outputs": [
        {
          "internalType": "uint256",
          "name": "",
          "type": "uint256"
        }
      ],
      "payable": false,
      "stateMutability": "view",
      "type": "function"
    },
    {
      "constant": true,
      "inputs": [
        {
          "internalType": "uint256",
          "name": "",
          "type": "uint256"
        }
      ],
      "name": "timeLastCollected",
      "outputs": [
        {
          "internalType": "uint256",
          "name": "",
          "type": "uint256"
        }
      ],
      "payable": false,
      "stateMutability": "view",
      "type": "function"
    },
    {
      "constant": true,
      "inputs": [],
      "name": "totalCollected",
      "outputs": [
        {
          "internalType": "uint256",
          "name": "",
          "type": "uint256"
        }
      ],
      "payable": false,
      "stateMutability": "view",
      "type": "function"
    },
    {
      "constant": true,
      "inputs": [
        {
          "internalType": "uint256",
          "name": "",
          "type": "uint256"
        }
      ],
      "name": "totalTimeHeld",
      "outputs": [
        {
          "internalType": "uint256",
          "name": "",
          "type": "uint256"
        }
      ],
      "payable": false,
      "stateMutability": "view",
      "type": "function"
    },
    {
      "constant": true,
      "inputs": [],
      "name": "winningOutcome",
      "outputs": [
        {
          "internalType": "uint256",
          "name": "",
          "type": "uint256"
        }
      ],
      "payable": false,
      "stateMutability": "view",
      "type": "function"
    },
    {
      "constant": false,
      "inputs": [],
      "name": "getTestDai",
      "outputs": [],
      "payable": false,
      "stateMutability": "nonpayable",
      "type": "function"
    },
    {
      "constant": false,
      "inputs": [
        {
          "internalType": "uint256",
          "name": "_sets",
          "type": "uint256"
        }
      ],
      "name": "sellCompleteSets",
      "outputs": [],
      "payable": false,
      "stateMutability": "nonpayable",
      "type": "function"
    },
    {
      "constant": false,
      "inputs": [],
      "name": "getWinner",
      "outputs": [],
      "payable": false,
      "stateMutability": "nonpayable",
      "type": "function"
    },
    {
      "constant": false,
      "inputs": [
        {
          "internalType": "uint256",
          "name": "_winner",
          "type": "uint256"
        }
      ],
      "name": "setWinner",
      "outputs": [],
      "payable": false,
      "stateMutability": "nonpayable",
      "type": "function"
    },
    {
      "constant": false,
      "inputs": [],
      "name": "finaliseAndPayout",
      "outputs": [],
      "payable": false,
      "stateMutability": "nonpayable",
      "type": "function"
    },
    {
      "constant": true,
      "inputs": [],
      "name": "getTestDaiBalance",
      "outputs": [
        {
          "internalType": "uint256",
          "name": "",
          "type": "uint256"
        }
      ],
      "payable": false,
      "stateMutability": "view",
      "type": "function"
    },
    {
      "constant": true,
      "inputs": [
        {
          "internalType": "uint256",
          "name": "_tokenId",
          "type": "uint256"
        },
        {
          "internalType": "uint256",
          "name": "_index",
          "type": "uint256"
        }
      ],
      "name": "getOwnerTrackerPrice",
      "outputs": [
        {
          "internalType": "uint256",
          "name": "",
          "type": "uint256"
        }
      ],
      "payable": false,
      "stateMutability": "view",
      "type": "function"
    },
    {
      "constant": true,
      "inputs": [
        {
          "internalType": "uint256",
          "name": "_tokenId",
          "type": "uint256"
        },
        {
          "internalType": "uint256",
          "name": "_index",
          "type": "uint256"
        }
      ],
      "name": "getOwnerTrackerAddress",
      "outputs": [
        {
          "internalType": "address",
          "name": "",
          "type": "address"
        }
      ],
      "payable": false,
      "stateMutability": "view",
      "type": "function"
    },
    {
      "constant": true,
      "inputs": [
        {
          "internalType": "uint256",
          "name": "_tokenId",
          "type": "uint256"
        }
      ],
      "name": "rentOwed",
      "outputs": [
        {
          "internalType": "uint256",
          "name": "augurFundsDue",
          "type": "uint256"
        }
      ],
      "payable": false,
      "stateMutability": "view",
      "type": "function"
    },
    {
      "constant": true,
      "inputs": [
        {
          "internalType": "uint256",
          "name": "_tokenId",
          "type": "uint256"
        }
      ],
      "name": "rentOwedWithTimestamp",
      "outputs": [
        {
          "internalType": "uint256",
          "name": "augurFundsDue",
          "type": "uint256"
        },
        {
          "internalType": "uint256",
          "name": "timestamp",
          "type": "uint256"
        }
      ],
      "payable": false,
      "stateMutability": "view",
      "type": "function"
    },
    {
      "constant": true,
      "inputs": [
        {
          "internalType": "uint256",
          "name": "_tokenId",
          "type": "uint256"
        }
      ],
      "name": "foreclosed",
      "outputs": [
        {
          "internalType": "bool",
          "name": "",
          "type": "bool"
        }
      ],
      "payable": false,
      "stateMutability": "view",
      "type": "function"
    },
    {
      "constant": true,
      "inputs": [
        {
          "internalType": "uint256",
          "name": "_tokenId",
          "type": "uint256"
        }
      ],
      "name": "liveDepositAbleToWithdraw",
      "outputs": [
        {
          "internalType": "uint256",
          "name": "",
          "type": "uint256"
        }
      ],
      "payable": false,
      "stateMutability": "view",
      "type": "function"
    },
    {
      "constant": true,
      "inputs": [
        {
          "internalType": "uint256",
          "name": "_tokenId",
          "type": "uint256"
        }
      ],
      "name": "userDepositAbleToWithdraw",
      "outputs": [
        {
          "internalType": "uint256",
          "name": "",
          "type": "uint256"
        }
      ],
      "payable": false,
      "stateMutability": "view",
      "type": "function"
    },
    {
      "constant": true,
      "inputs": [
        {
          "internalType": "uint256",
          "name": "_tokenId",
          "type": "uint256"
        }
      ],
      "name": "rentalExpiryTime",
      "outputs": [
        {
          "internalType": "uint256",
          "name": "",
          "type": "uint256"
        }
      ],
      "payable": false,
      "stateMutability": "view",
      "type": "function"
    },
    {
      "constant": false,
      "inputs": [
        {
          "internalType": "uint256",
          "name": "_tokenId",
          "type": "uint256"
        }
      ],
      "name": "_collectRent",
      "outputs": [],
      "payable": false,
      "stateMutability": "nonpayable",
      "type": "function"
    },
    {
      "constant": false,
      "inputs": [
        {
          "internalType": "uint256",
          "name": "_dai",
          "type": "uint256"
        },
        {
          "internalType": "uint256",
          "name": "_tokenId",
          "type": "uint256"
        }
      ],
      "name": "depositDai",
      "outputs": [],
      "payable": false,
      "stateMutability": "nonpayable",
      "type": "function"
    },
    {
      "constant": false,
      "inputs": [
        {
          "internalType": "uint256",
          "name": "_newPrice",
          "type": "uint256"
        },
        {
          "internalType": "uint256",
          "name": "_tokenId",
          "type": "uint256"
        },
        {
          "internalType": "uint256",
          "name": "_deposit",
          "type": "uint256"
        }
      ],
      "name": "buy",
      "outputs": [],
      "payable": false,
      "stateMutability": "nonpayable",
      "type": "function"
    },
    {
      "constant": false,
      "inputs": [
        {
          "internalType": "uint256",
          "name": "_newPrice",
          "type": "uint256"
        },
        {
          "internalType": "uint256",
          "name": "_tokenId",
          "type": "uint256"
        }
      ],
      "name": "changePrice",
      "outputs": [],
      "payable": false,
      "stateMutability": "nonpayable",
      "type": "function"
    },
    {
      "constant": false,
      "inputs": [
        {
          "internalType": "uint256",
          "name": "_dai",
          "type": "uint256"
        },
        {
          "internalType": "uint256",
          "name": "_tokenId",
          "type": "uint256"
        }
      ],
      "name": "withdrawDeposit",
      "outputs": [
        {
          "internalType": "uint256",
          "name": "",
          "type": "uint256"
        }
      ],
      "payable": false,
      "stateMutability": "nonpayable",
      "type": "function"
    },
    {
      "constant": false,
      "inputs": [
        {
          "internalType": "uint256",
          "name": "_tokenId",
          "type": "uint256"
        }
      ],
      "name": "exit",
      "outputs": [],
      "payable": false,
      "stateMutability": "nonpayable",
      "type": "function"
    }
  ],
  "bytecode": "0x608060405260008060006101000a81548160ff02191690831515021790555060006001556000600255600060035560006004556000602b60006101000a81548160ff0219169083151502179055506000602b60016101000a81548160ff0219169083151502179055506063602c553480156200007a57600080fd5b506040516200435a3803806200435a833981810160405260e0811015620000a057600080fd5b810190808051906020019092919080519060200190929190805190602001909291908051906020019092919080519060200190929190805190602001909291908051906020019092919050505085600660006101000a81548173ffffffffffffffffffffffffffffffffffffffff021916908373ffffffffffffffffffffffffffffffffffffffff160217905550600660009054906101000a900473ffffffffffffffffffffffffffffffffffffffff1673ffffffffffffffffffffffffffffffffffffffff1663ba0bba406040518163ffffffff1660e01b8152600401600060405180830381600087803b1580156200019957600080fd5b505af1158015620001ae573d6000803e3d6000fd5b5050505086600a60006101000a81548173ffffffffffffffffffffffffffffffffffffffff021916908373ffffffffffffffffffffffffffffffffffffffff16021790555060008090505b600581101562000274576000602182600581106200021357fe5b01819055506000602682600581106200022857fe5b01819055506000603482600581106200023d57fe5b602091828204019190066101000a81548160ff021916908360018111156200026157fe5b02179055508080600101915050620001f9565b5084600960006101000a81548173ffffffffffffffffffffffffffffffffffffffff021916908373ffffffffffffffffffffffffffffffffffffffff16021790555083600760006101000a81548173ffffffffffffffffffffffffffffffffffffffff021916908373ffffffffffffffffffffffffffffffffffffffff16021790555082600860006101000a81548173ffffffffffffffffffffffffffffffffffffffff021916908373ffffffffffffffffffffffffffffffffffffffff16021790555080602d81905550600115156000809054906101000a900460ff16151514156200046457600960009054906101000a900473ffffffffffffffffffffffffffffffffffffffff1673ffffffffffffffffffffffffffffffffffffffff1663095ea7b3837fffffffffffffffffffffffffffffffffffffffffffffffffffffffffffffffff6040518363ffffffff1660e01b8152600401808373ffffffffffffffffffffffffffffffffffffffff1673ffffffffffffffffffffffffffffffffffffffff16815260200182815260200192505050602060405180830381600087803b1580156200042557600080fd5b505af11580156200043a573d6000803e3d6000fd5b505050506040513d60208110156200045157600080fd5b8101908080519060200190929190505050505b50505050505050613edf806200047b6000396000f3fe608060405234801561001057600080fd5b50600436106102485760003560e01c80638cb688991161013b578063bae04c9a116100b8578063f015e54e1161007c578063f015e54e14610ab9578063f06197b714610afb578063f3cebadb14610b47578063f88489c214610b51578063fce0eb0214610bc957610248565b8063bae04c9a14610973578063c354a0a6146109bf578063cb29417714610a01578063d5780ec414610a59578063e29eb83614610a9b57610248565b80639e731812116100ff5780639e7318121461084e578063a36252bf146108cd578063a57aa8eb1461090f578063adc7b70014610931578063b3de019c1461093b57610248565b80638cb688991461074e5780638e7ea5b214610790578063977f1b281461079a57806397b4550a146107b85780639b34ae031461083057610248565b80635b2ace64116101c957806373a5226f1161018d57806373a5226f146106445780637a8fd8e9146106865780637f8661a1146106b4578063853fd421146106e257806385f2aef21461070457610248565b80635b2ace64146104e75780635dfd7e9b146105295780636c5c725a146105615780636ca871e3146105b957806370a23f751461060257610248565b8063321c777111610210578063321c77711461039357806332f2b04d146103b15780633e4f49e6146103f357806340993b261461044357806353a58de11461048557610248565b80630df716021461024d5780631e8b76ad1461027b578063237b5e4f146102c157806325947a521461032357806326a49e3714610351575b600080fd5b6102796004803603602081101561026357600080fd5b8101908080359060200190929190505050610c0b565b005b6102a76004803603602081101561029157600080fd5b8101908080359060200190929190505050610cc2565b604051808215151515815260200191505060405180910390f35b61030d600480360360408110156102d757600080fd5b8101908080359060200190929190803573ffffffffffffffffffffffffffffffffffffffff169060200190929190505050610d3c565b6040518082815260200191505060405180910390f35b61034f6004803603602081101561033957600080fd5b8101908080359060200190929190505050610d61565b005b61037d6004803603602081101561036757600080fd5b810190808035906020019092919050505061136d565b6040518082815260200191505060405180910390f35b61039b611385565b6040518082815260200191505060405180910390f35b6103dd600480360360208110156103c757600080fd5b81019080803590602001909291905050506113cc565b6040518082815260200191505060405180910390f35b61041f6004803603602081101561040957600080fd5b810190808035906020019092919050505061155b565b6040518082600181111561042f57fe5b60ff16815260200191505060405180910390f35b6104836004803603606081101561045957600080fd5b81019080803590602001909291908035906020019092919080359060200190929190505050611582565b005b6104d16004803603604081101561049b57600080fd5b8101908080359060200190929190803573ffffffffffffffffffffffffffffffffffffffff169060200190929190505050611b77565b6040518082815260200191505060405180910390f35b610513600480360360208110156104fd57600080fd5b8101908080359060200190929190505050611b9c565b6040518082815260200191505060405180910390f35b61055f6004803603604081101561053f57600080fd5b810190808035906020019092919080359060200190929190505050611bb4565b005b6105a36004803603602081101561057757600080fd5b81019080803573ffffffffffffffffffffffffffffffffffffffff169060200190929190505050611dde565b6040518082815260200191505060405180910390f35b6105e5600480360360208110156105cf57600080fd5b8101908080359060200190929190505050611df6565b604051808381526020018281526020019250505060405180910390f35b61062e6004803603602081101561061857600080fd5b8101908080359060200190929190505050611e0c565b6040518082815260200191505060405180910390f35b6106706004803603602081101561065a57600080fd5b8101908080359060200190929190505050611e6c565b6040518082815260200191505060405180910390f35b6106b26004803603602081101561069c57600080fd5b8101908080359060200190929190505050612089565b005b6106e0600480360360208110156106ca57600080fd5b8101908080359060200190929190505050612247565b005b6106ea61241f565b604051808215151515815260200191505060405180910390f35b61070c612432565b604051808273ffffffffffffffffffffffffffffffffffffffff1673ffffffffffffffffffffffffffffffffffffffff16815260200191505060405180910390f35b61077a6004803603602081101561076457600080fd5b8101908080359060200190929190505050612458565b6040518082815260200191505060405180910390f35b610798612470565b005b6107a26125a0565b6040518082815260200191505060405180910390f35b6107ee600480360360408110156107ce57600080fd5b8101908080359060200190929190803590602001909291905050506125a6565b604051808273ffffffffffffffffffffffffffffffffffffffff1673ffffffffffffffffffffffffffffffffffffffff16815260200191505060405180910390f35b6108386125f8565b6040518082815260200191505060405180910390f35b6108846004803603604081101561086457600080fd5b8101908080359060200190929190803590602001909291905050506125fe565b604051808373ffffffffffffffffffffffffffffffffffffffff1673ffffffffffffffffffffffffffffffffffffffff1681526020018281526020019250505060405180910390f35b6108f9600480360360208110156108e357600080fd5b810190808035906020019092919050505061264f565b6040518082815260200191505060405180910390f35b610917612667565b604051808215151515815260200191505060405180910390f35b61093961267a565b005b6109716004803603604081101561095157600080fd5b810190808035906020019092919080359060200190929190505050612b0a565b005b6109a96004803603604081101561098957600080fd5b810190808035906020019092919080359060200190929190505050612e26565b6040518082815260200191505060405180910390f35b6109eb600480360360208110156109d557600080fd5b8101908080359060200190929190505050612fb3565b6040518082815260200191505060405180910390f35b610a4360048036036020811015610a1757600080fd5b81019080803573ffffffffffffffffffffffffffffffffffffffff169060200190929190505050612fcb565b6040518082815260200191505060405180910390f35b610a8560048036036020811015610a6f57600080fd5b8101908080359060200190929190505050612fe3565b6040518082815260200191505060405180910390f35b610aa3612ffb565b6040518082815260200191505060405180910390f35b610ae560048036036020811015610acf57600080fd5b8101908080359060200190929190505050613001565b6040518082815260200191505060405180910390f35b610b3160048036036040811015610b1157600080fd5b810190808035906020019092919080359060200190929190505050613019565b6040518082815260200191505060405180910390f35b610b4f61304b565b005b610b8760048036036040811015610b6757600080fd5b810190808035906020019092919080359060200190929190505050613218565b604051808273ffffffffffffffffffffffffffffffffffffffff1673ffffffffffffffffffffffffffffffffffffffff16815260200191505060405180910390f35b610bf560048036036020811015610bdf57600080fd5b810190808035906020019092919050505061325a565b6040518082815260200191505060405180910390f35b60001515602b60009054906101000a900460ff16151514610c2b57600080fd5b62278d00602d54014211610c8a576040517f08c379a0000000000000000000000000000000000000000000000000000000008152600401808060200182810382526027815260200180613e846027913960400191505060405180910390fd5b80602c81905550610c9c602c54610d61565b6001602b60006101000a81548160ff021916908315150217905550610cbf61267a565b50565b600080610cce83611e0c565b90506032600084815260200190815260200160002060003373ffffffffffffffffffffffffffffffffffffffff1673ffffffffffffffffffffffffffffffffffffffff168152602001908152602001600020548110610d31576001915050610d37565b60009150505b919050565b6030602052816000526040600020602052806000526040600020600091509150505481565b60001515602b60009054906101000a900460ff16151514610d8157600080fd5b600180811115610d8d57fe5b60348260058110610d9a57fe5b602091828204019190069054906101000a900460ff166001811115610dbb57fe5b141561136a576000610dcc82611e0c565b90506000600660009054906101000a900473ffffffffffffffffffffffffffffffffffffffff1673ffffffffffffffffffffffffffffffffffffffff16636352211e846040518263ffffffff1660e01b81526004018082815260200191505060206040518083038186803b158015610e4357600080fd5b505afa158015610e57573d6000803e3d6000fd5b505050506040513d6020811015610e6d57600080fd5b81019080805190602001909291905050509050600060316000858152602001908152602001600020546001819055506032600085815260200190815260200160002060008373ffffffffffffffffffffffffffffffffffffffff1673ffffffffffffffffffffffffffffffffffffffff16815260200190815260200160002054831061100b57610fa8610f8b84610f7d6032600089815260200190815260200160002060008773ffffffffffffffffffffffffffffffffffffffff1673ffffffffffffffffffffffffffffffffffffffff16815260200190815260200160002054610f6f60178a60058110610f5e57fe5b0154426132bc90919063ffffffff16565b61330690919063ffffffff16565b61338c90919063ffffffff16565b60178660058110610f9857fe5b01546133d690919063ffffffff16565b90506032600085815260200190815260200160002060008373ffffffffffffffffffffffffffffffffffffffff1673ffffffffffffffffffffffffffffffffffffffff1681526020019081526020016000205492506110068461345e565b61100f565b4290505b60006030600086815260200190815260200160002060008473ffffffffffffffffffffffffffffffffffffffff1673ffffffffffffffffffffffffffffffffffffffff1681526020019081526020016000205414156110fe5781602f600086815260200190815260200160002060006026876005811061108b57fe5b0154815260200190815260200160002060006101000a81548173ffffffffffffffffffffffffffffffffffffffff021916908373ffffffffffffffffffffffffffffffffffffffff1602179055506001602685600581106110e857fe5b015401602685600581106110f857fe5b01819055505b60006111216017866005811061111057fe5b0154836132bc90919063ffffffff16565b9050611186816030600088815260200190815260200160002060008673ffffffffffffffffffffffffffffffffffffffff1673ffffffffffffffffffffffffffffffffffffffff168152602001908152602001600020546133d690919063ffffffff16565b6030600087815260200190815260200160002060008573ffffffffffffffffffffffffffffffffffffffff1673ffffffffffffffffffffffffffffffffffffffff168152602001908152602001600020819055506112008160316000888152602001908152602001600020546133d690919063ffffffff16565b6031600087815260200190815260200160002081905550426017866005811061122557fe5b018190555061128d846032600088815260200190815260200160002060008673ffffffffffffffffffffffffffffffffffffffff1673ffffffffffffffffffffffffffffffffffffffff168152602001908152602001600020546132bc90919063ffffffff16565b6032600087815260200190815260200160002060008573ffffffffffffffffffffffffffffffffffffffff1673ffffffffffffffffffffffffffffffffffffffff1681526020019081526020016000208190555061130284601187600581106112f257fe5b01546133d690919063ffffffff16565b6011866005811061130f57fe5b0181905550611329846016546133d690919063ffffffff16565b6016819055506113388461367e565b837f54acb82a9e70d7c289b149758d23167c915428ae854a7aa4abe5bf2f4ef29f3660405160405180910390a2505050505b50565b600c816005811061137a57fe5b016000915090505481565b6000603360003373ffffffffffffffffffffffffffffffffffffffff1673ffffffffffffffffffffffffffffffffffffffff16815260200190815260200160002054905090565b6000806113d883611e0c565b90506000600660009054906101000a900473ffffffffffffffffffffffffffffffffffffffff1673ffffffffffffffffffffffffffffffffffffffff16636352211e856040518263ffffffff1660e01b81526004018082815260200191505060206040518083038186803b15801561144f57600080fd5b505afa158015611463573d6000803e3d6000fd5b505050506040513d602081101561147957600080fd5b810190808051906020019092919050505090506032600085815260200190815260200160002060008273ffffffffffffffffffffffffffffffffffffffff1673ffffffffffffffffffffffffffffffffffffffff1681526020019081526020016000205482106114ee57600092505050611556565b611551826032600087815260200190815260200160002060008473ffffffffffffffffffffffffffffffffffffffff1673ffffffffffffffffffffffffffffffffffffffff168152602001908152602001600020546132bc90919063ffffffff16565b925050505b919050565b6034816005811061156857fe5b60209182820401919006915054906101000a900460ff1681565b8161158c81610d61565b60001515602b60009054906101000a900460ff161515146115ac57600080fd5b600c83600581106115b957fe5b01548411611612576040517f08c379a0000000000000000000000000000000000000000000000000000000008152600401808060200182810382526027815260200180613e3c6027913960400191505060405180910390fd5b60008211611688576040517f08c379a00000000000000000000000000000000000000000000000000000000081526004018080602001828103825260168152602001807f4d757374206465706f73697420736f6d657468696e670000000000000000000081525060200191505060405180910390fd5b81603360003373ffffffffffffffffffffffffffffffffffffffff1673ffffffffffffffffffffffffffffffffffffffff16815260200190815260200160002054101561173d576040517f08c379a000000000000000000000000000000000000000000000000000000000815260040180806020018281038252600e8152602001807f4e6f7420656e6f7567682044414900000000000000000000000000000000000081525060200191505060405180910390fd5b61178f82603360003373ffffffffffffffffffffffffffffffffffffffff1673ffffffffffffffffffffffffffffffffffffffff168152602001908152602001600020546132bc90919063ffffffff16565b603360003373ffffffffffffffffffffffffffffffffffffffff1673ffffffffffffffffffffffffffffffffffffffff16815260200190815260200160002081905550611835826032600086815260200190815260200160002060003373ffffffffffffffffffffffffffffffffffffffff1673ffffffffffffffffffffffffffffffffffffffff168152602001908152602001600020546133d690919063ffffffff16565b6032600085815260200190815260200160002060003373ffffffffffffffffffffffffffffffffffffffff1673ffffffffffffffffffffffffffffffffffffffff168152602001908152602001600020819055506000600660009054906101000a900473ffffffffffffffffffffffffffffffffffffffff1673ffffffffffffffffffffffffffffffffffffffff16636352211e856040518263ffffffff1660e01b81526004018082815260200191505060206040518083038186803b1580156118fe57600080fd5b505afa158015611912573d6000803e3d6000fd5b505050506040513d602081101561192857600080fd5b810190808051906020019092919050505090503373ffffffffffffffffffffffffffffffffffffffff168173ffffffffffffffffffffffffffffffffffffffff1614156119ae5784602e600086815260200190815260200160002060006021876005811061199257fe5b0154815260200190815260200160002060010181905550611a81565b6001602185600581106119bd57fe5b015401602185600581106119cd57fe5b018190555084602e60008681526020019081526020016000206000602187600581106119f557fe5b015481526020019081526020016000206001018190555033602e6000868152602001908152602001600020600060218760058110611a2f57fe5b0154815260200190815260200160002060000160006101000a81548173ffffffffffffffffffffffffffffffffffffffff021916908373ffffffffffffffffffffffffffffffffffffffff1602179055505b60006001811115611a8e57fe5b60348560058110611a9b57fe5b602091828204019190069054906101000a900460ff166001811115611abc57fe5b1415611b0d57600160348560058110611ad157fe5b602091828204019190066101000a81548160ff02191690836001811115611af457fe5b02179055504260178560058110611b0757fe5b01819055505b42601c8560058110611b1b57fe5b0181905550611b2c813387876137a4565b843373ffffffffffffffffffffffffffffffffffffffff167f4f79409f494e81c38036d80aa8a6507c2cb08d90bfb2fead5519447646b3497e60405160405180910390a35050505050565b6032602052816000526040600020602052806000526040600020600091509150505481565b601c8160058110611ba957fe5b016000915090505481565b80611bbe81610d61565b60001515602b60009054906101000a900460ff16151514611bde57600080fd5b60006001811115611beb57fe5b60348360058110611bf857fe5b602091828204019190069054906101000a900460ff166001811115611c1957fe5b1415611c8d576040517f08c379a000000000000000000000000000000000000000000000000000000000815260040180806020018281038252600a8152602001807f466f7265636c6f7365640000000000000000000000000000000000000000000081525060200191505060405180910390fd5b611cdf83603360003373ffffffffffffffffffffffffffffffffffffffff1673ffffffffffffffffffffffffffffffffffffffff168152602001908152602001600020546132bc90919063ffffffff16565b603360003373ffffffffffffffffffffffffffffffffffffffff1673ffffffffffffffffffffffffffffffffffffffff16815260200190815260200160002081905550611d85836032600085815260200190815260200160002060003373ffffffffffffffffffffffffffffffffffffffff1673ffffffffffffffffffffffffffffffffffffffff168152602001908152602001600020546133d690919063ffffffff16565b6032600084815260200190815260200160002060003373ffffffffffffffffffffffffffffffffffffffff1673ffffffffffffffffffffffffffffffffffffffff16815260200190815260200160002081905550505050565b60056020528060005260406000206000915090505481565b600080611e0283611e0c565b4291509150915091565b6000611e656301e13380611e57611e3a60178660058110611e2957fe5b0154426132bc90919063ffffffff16565b600c8660058110611e4757fe5b015461330690919063ffffffff16565b61338c90919063ffffffff16565b9050919050565b600080611e7883611e0c565b90506000600660009054906101000a900473ffffffffffffffffffffffffffffffffffffffff1673ffffffffffffffffffffffffffffffffffffffff16636352211e856040518263ffffffff1660e01b81526004018082815260200191505060206040518083038186803b158015611eef57600080fd5b505afa158015611f03573d6000803e3d6000fd5b505050506040513d6020811015611f1957600080fd5b810190808051906020019092919050505090503373ffffffffffffffffffffffffffffffffffffffff168173ffffffffffffffffffffffffffffffffffffffff16141561202e576032600085815260200190815260200160002060003373ffffffffffffffffffffffffffffffffffffffff1673ffffffffffffffffffffffffffffffffffffffff168152602001908152602001600020548210611fc257600092505050612084565b612025826032600087815260200190815260200160002060003373ffffffffffffffffffffffffffffffffffffffff1673ffffffffffffffffffffffffffffffffffffffff168152602001908152602001600020546132bc90919063ffffffff16565b92505050612084565b6032600085815260200190815260200160002060003373ffffffffffffffffffffffffffffffffffffffff1673ffffffffffffffffffffffffffffffffffffffff16815260200190815260200160002054925050505b919050565b601654811115612101576040517f08c379a000000000000000000000000000000000000000000000000000000000815260040180806020018281038252601b8152602001807f547279696e6720746f20676574206261636b20746f6f206d756368000000000081525060200191505060405180910390fd5b602b60009054906101000a900460ff1661211757fe5b600115156000809054906101000a900460ff161515141561224457600860009054906101000a900473ffffffffffffffffffffffffffffffffffffffff1673ffffffffffffffffffffffffffffffffffffffff1663ad16158e600760009054906101000a900473ffffffffffffffffffffffffffffffffffffffff16836040518363ffffffff1660e01b8152600401808373ffffffffffffffffffffffffffffffffffffffff1673ffffffffffffffffffffffffffffffffffffffff168152602001828152602001925050506040805180830381600087803b1580156121fc57600080fd5b505af1158015612210573d6000803e3d6000fd5b505050506040513d604081101561222657600080fd5b81019080805190602001909291908051906020019092919050505050505b50565b80600660009054906101000a900473ffffffffffffffffffffffffffffffffffffffff1673ffffffffffffffffffffffffffffffffffffffff16636352211e826040518263ffffffff1660e01b81526004018082815260200191505060206040518083038186803b1580156122bb57600080fd5b505afa1580156122cf573d6000803e3d6000fd5b505050506040513d60208110156122e557600080fd5b810190808051906020019092919050505073ffffffffffffffffffffffffffffffffffffffff163373ffffffffffffffffffffffffffffffffffffffff1614612396576040517f08c379a00000000000000000000000000000000000000000000000000000000081526004018080602001828103825260098152602001807f4e6f74206f776e6572000000000000000000000000000000000000000000000081525060200191505060405180910390fd5b816123a081610d61565b60001515602b60009054906101000a900460ff161515146123c057600080fd5b61241a6032600085815260200190815260200160002060003373ffffffffffffffffffffffffffffffffffffffff1673ffffffffffffffffffffffffffffffffffffffff16815260200190815260200160002054846138b2565b505050565b602b60009054906101000a900460ff1681565b600660009054906101000a900473ffffffffffffffffffffffffffffffffffffffff1681565b6017816005811061246557fe5b016000915090505481565b60001515602b60009054906101000a900460ff1615151461249057600080fd5b60008090505b600581101561259d576000600760009054906101000a900473ffffffffffffffffffffffffffffffffffffffff1673ffffffffffffffffffffffffffffffffffffffff16633c264820836040518263ffffffff1660e01b81526004018082815260200191505060206040518083038186803b15801561251457600080fd5b505afa158015612528573d6000803e3d6000fd5b505050506040513d602081101561253e57600080fd5b810190808051906020019092919050505090506000811461258f5781602c8190555061256b602c54610d61565b6001602b60006101000a81548160ff02191690831515021790555061258e61267a565b5b508080600101915050612496565b50565b602d5481565b6000602e6000848152602001908152602001600020600083815260200190815260200160002060000160009054906101000a900473ffffffffffffffffffffffffffffffffffffffff16905092915050565b602c5481565b602e602052816000526040600020602052806000526040600020600091509150508060000160009054906101000a900473ffffffffffffffffffffffffffffffffffffffff16908060010154905082565b60316020528060005260406000206000915090505481565b602b60019054906101000a900460ff1681565b60011515602b60009054906101000a900460ff16151514612703576040517f08c379a00000000000000000000000000000000000000000000000000000000081526004018080602001828103825260108152602001807f57696e6e6572206e6f74206b6e6f776e0000000000000000000000000000000081525060200191505060405180910390fd5b60001515602b60019054906101000a900460ff1615151461278c576040517f08c379a00000000000000000000000000000000000000000000000000000000081526004018080602001828103825260108152602001807f416c72656164792070616964206f75740000000000000000000000000000000081525060200191505060405180910390fd5b6000612799601654612089565b6000809054906101000a900460ff161561288e57600960009054906101000a900473ffffffffffffffffffffffffffffffffffffffff1673ffffffffffffffffffffffffffffffffffffffff166370a08231306040518263ffffffff1660e01b8152600401808273ffffffffffffffffffffffffffffffffffffffff1673ffffffffffffffffffffffffffffffffffffffff16815260200191505060206040518083038186803b15801561284c57600080fd5b505afa158015612860573d6000803e3d6000fd5b505050506040513d602081101561287657600080fd5b81019080805190602001909291905050509050612894565b60165490505b60008090505b6026602c54600581106128a957fe5b0154811015612aeb576000602f6000602c548152602001908152602001600020600083815260200190815260200160002060009054906101000a900473ffffffffffffffffffffffffffffffffffffffff169050600060306000602c54815260200190815260200160002060008373ffffffffffffffffffffffffffffffffffffffff1673ffffffffffffffffffffffffffffffffffffffff1681526020019081526020016000205490506000612969828661330690919063ffffffff16565b9050600061299560316000602c548152602001908152602001600020548361338c90919063ffffffff16565b90506000809054906101000a900460ff1615612a9557600960009054906101000a900473ffffffffffffffffffffffffffffffffffffffff1673ffffffffffffffffffffffffffffffffffffffff1663a9059cbb85836040518363ffffffff1660e01b8152600401808373ffffffffffffffffffffffffffffffffffffffff1673ffffffffffffffffffffffffffffffffffffffff16815260200182815260200192505050602060405180830381600087803b158015612a5457600080fd5b505af1158015612a68573d6000803e3d6000fd5b505050506040513d6020811015612a7e57600080fd5b810190808051906020019092919050505050612ada565b80600560008673ffffffffffffffffffffffffffffffffffffffff1673ffffffffffffffffffffffffffffffffffffffff168152602001908152602001600020819055505b50505050808060010191505061289a565b506001602b60016101000a81548160ff02191690831515021790555050565b80600660009054906101000a900473ffffffffffffffffffffffffffffffffffffffff1673ffffffffffffffffffffffffffffffffffffffff16636352211e826040518263ffffffff1660e01b81526004018082815260200191505060206040518083038186803b158015612b7e57600080fd5b505afa158015612b92573d6000803e3d6000fd5b505050506040513d6020811015612ba857600080fd5b810190808051906020019092919050505073ffffffffffffffffffffffffffffffffffffffff163373ffffffffffffffffffffffffffffffffffffffff1614612c59576040517f08c379a00000000000000000000000000000000000000000000000000000000081526004018080602001828103825260098152602001807f4e6f74206f776e6572000000000000000000000000000000000000000000000081525060200191505060405180910390fd5b81612c6381610d61565b60001515602b60009054906101000a900460ff16151514612c8357600080fd5b60006001811115612c9057fe5b60348460058110612c9d57fe5b602091828204019190069054906101000a900460ff166001811115612cbe57fe5b1415612d32576040517f08c379a000000000000000000000000000000000000000000000000000000000815260040180806020018281038252600a8152602001807f466f7265636c6f7365640000000000000000000000000000000000000000000081525060200191505060405180910390fd5b600c8360058110612d3f57fe5b01548411612d98576040517f08c379a000000000000000000000000000000000000000000000000000000000815260040180806020018281038252602b815260200180613e11602b913960400191505060405180910390fd5b83600c8460058110612da657fe5b018190555083602e6000858152602001908152602001600020600060218660058110612dce57fe5b0154815260200190815260200160002060010181905550600c8360058110612df257fe5b01547f854d6511a28585103049c7770618450f7c9aeb580c69db2913d63869663f475160405160405180910390a250505050565b600081600660009054906101000a900473ffffffffffffffffffffffffffffffffffffffff1673ffffffffffffffffffffffffffffffffffffffff16636352211e826040518263ffffffff1660e01b81526004018082815260200191505060206040518083038186803b158015612e9c57600080fd5b505afa158015612eb0573d6000803e3d6000fd5b505050506040513d6020811015612ec657600080fd5b810190808051906020019092919050505073ffffffffffffffffffffffffffffffffffffffff163373ffffffffffffffffffffffffffffffffffffffff1614612f77576040517f08c379a00000000000000000000000000000000000000000000000000000000081526004018080602001828103825260098152602001807f4e6f74206f776e6572000000000000000000000000000000000000000000000081525060200191505060405180910390fd5b82612f8181610d61565b60001515602b60009054906101000a900460ff16151514612fa157600080fd5b612fab85856138b2565b505092915050565b60118160058110612fc057fe5b016000915090505481565b60336020528060005260406000206000915090505481565b60268160058110612ff057fe5b016000915090505481565b60165481565b6021816005811061300e57fe5b016000915090505481565b6000602e6000848152602001908152602001600020600083815260200190815260200160002060010154905092915050565b600115156000809054906101000a900460ff161515141561318f57600960009054906101000a900473ffffffffffffffffffffffffffffffffffffffff1673ffffffffffffffffffffffffffffffffffffffff16635791589768056bc75e2d631000006040518263ffffffff1660e01b815260040180828152602001915050600060405180830381600087803b1580156130e457600080fd5b505af11580156130f8573d6000803e3d6000fd5b5050505068056bc75e2d63100000603360003373ffffffffffffffffffffffffffffffffffffffff1673ffffffffffffffffffffffffffffffffffffffff1681526020019081526020016000205401603360003373ffffffffffffffffffffffffffffffffffffffff1673ffffffffffffffffffffffffffffffffffffffff16815260200190815260200160002081905550613216565b6064603360003373ffffffffffffffffffffffffffffffffffffffff1673ffffffffffffffffffffffffffffffffffffffff1681526020019081526020016000205401603360003373ffffffffffffffffffffffffffffffffffffffff1673ffffffffffffffffffffffffffffffffffffffff168152602001908152602001600020819055505b565b602f6020528160005260406000206020528060005260406000206000915091509054906101000a900473ffffffffffffffffffffffffffffffffffffffff1681565b6000806132826301e13380600c856005811061327257fe5b015461338c90919063ffffffff16565b9050600081141561329657429150506132b7565b6132b1816132a3856113cc565b61338c90919063ffffffff16565b42019150505b919050565b60006132fe83836040518060400160405280601e81526020017f536166654d6174683a207375627472616374696f6e206f766572666c6f770000815250613b2b565b905092915050565b6000808314156133195760009050613386565b600082840290508284828161332a57fe5b0414613381576040517f08c379a0000000000000000000000000000000000000000000000000000000008152600401808060200182810382526021815260200180613e636021913960400191505060405180910390fd5b809150505b92915050565b60006133ce83836040518060400160405280601a81526020017f536166654d6174683a206469766973696f6e206279207a65726f000000000000815250613beb565b905092915050565b600080828401905083811015613454576040517f08c379a000000000000000000000000000000000000000000000000000000000815260040180806020018281038252601b8152602001807f536166654d6174683a206164646974696f6e206f766572666c6f77000000000081525060200191505060405180910390fd5b8091505092915050565b60008090505b60001515811515141561367a5760006021836005811061348057fe5b0154101561348a57fe5b60016021836005811061349957fe5b015403602183600581106134a957fe5b01819055506000602183600581106134bd57fe5b015490506000602e6000858152602001908152602001600020600083815260200190815260200160002060000160009054906101000a900473ffffffffffffffffffffffffffffffffffffffff16905060008214156135285761351f84613cb1565b60019250613673565b60006032600086815260200190815260200160002060008373ffffffffffffffffffffffffffffffffffffffff1673ffffffffffffffffffffffffffffffffffffffff168152602001908152602001600020541115613672576000600660009054906101000a900473ffffffffffffffffffffffffffffffffffffffff1673ffffffffffffffffffffffffffffffffffffffff16636352211e866040518263ffffffff1660e01b81526004018082815260200191505060206040518083038186803b1580156135f657600080fd5b505afa15801561360a573d6000803e3d6000fd5b505050506040513d602081101561362057600080fd5b810190808051906020019092919050505090506000602e6000878152602001908152602001600020600085815260200190815260200160002060010154905061366b828483896137a4565b6001945050505b5b5050613464565b5050565b600115156000809054906101000a900460ff16151514156137a157600860009054906101000a900473ffffffffffffffffffffffffffffffffffffffff1673ffffffffffffffffffffffffffffffffffffffff1663abb60c80600760009054906101000a900473ffffffffffffffffffffffffffffffffffffffff16836040518363ffffffff1660e01b8152600401808373ffffffffffffffffffffffffffffffffffffffff1673ffffffffffffffffffffffffffffffffffffffff16815260200182815260200192505050602060405180830381600087803b15801561376457600080fd5b505af1158015613778573d6000803e3d6000fd5b505050506040513d602081101561378e57600080fd5b8101908080519060200190929190505050505b50565b600660009054906101000a900473ffffffffffffffffffffffffffffffffffffffff1673ffffffffffffffffffffffffffffffffffffffff166323b872dd8585846040518463ffffffff1660e01b8152600401808473ffffffffffffffffffffffffffffffffffffffff1673ffffffffffffffffffffffffffffffffffffffff1681526020018373ffffffffffffffffffffffffffffffffffffffff1673ffffffffffffffffffffffffffffffffffffffff1681526020018281526020019350505050600060405180830381600087803b15801561388157600080fd5b505af1158015613895573d6000803e3d6000fd5b5050505081600c82600581106138a757fe5b018190555050505050565b816032600083815260200190815260200160002060003373ffffffffffffffffffffffffffffffffffffffff1673ffffffffffffffffffffffffffffffffffffffff168152602001908152602001600020541015613978576040517f08c379a00000000000000000000000000000000000000000000000000000000081526004018080602001828103825260148152602001807f5769746864726177696e6720746f6f206d75636800000000000000000000000081525060200191505060405180910390fd5b6139db826032600084815260200190815260200160002060003373ffffffffffffffffffffffffffffffffffffffff1673ffffffffffffffffffffffffffffffffffffffff168152602001908152602001600020546132bc90919063ffffffff16565b6032600083815260200190815260200160002060003373ffffffffffffffffffffffffffffffffffffffff1673ffffffffffffffffffffffffffffffffffffffff16815260200190815260200160002081905550613a8182603360003373ffffffffffffffffffffffffffffffffffffffff1673ffffffffffffffffffffffffffffffffffffffff168152602001908152602001600020546133d690919063ffffffff16565b603360003373ffffffffffffffffffffffffffffffffffffffff1673ffffffffffffffffffffffffffffffffffffffff1681526020019081526020016000208190555060006032600083815260200190815260200160002060003373ffffffffffffffffffffffffffffffffffffffff1673ffffffffffffffffffffffffffffffffffffffff168152602001908152602001600020541415613b2757613b268161345e565b5b5050565b6000838311158290613bd8576040517f08c379a00000000000000000000000000000000000000000000000000000000081526004018080602001828103825283818151815260200191508051906020019080838360005b83811015613b9d578082015181840152602081019050613b82565b50505050905090810190601f168015613bca5780820380516001836020036101000a031916815260200191505b509250505060405180910390fd5b5060008385039050809150509392505050565b60008083118290613c97576040517f08c379a00000000000000000000000000000000000000000000000000000000081526004018080602001828103825283818151815260200191508051906020019080838360005b83811015613c5c578082015181840152602081019050613c41565b50505050905090810190601f168015613c895780820380516001836020036101000a031916815260200191505b509250505060405180910390fd5b506000838581613ca357fe5b049050809150509392505050565b6000600660009054906101000a900473ffffffffffffffffffffffffffffffffffffffff1673ffffffffffffffffffffffffffffffffffffffff16636352211e836040518263ffffffff1660e01b81526004018082815260200191505060206040518083038186803b158015613d2657600080fd5b505afa158015613d3a573d6000803e3d6000fd5b505050506040513d6020811015613d5057600080fd5b81019080805190602001909291905050509050613d9281600a60009054906101000a900473ffffffffffffffffffffffffffffffffffffffff166000856137a4565b600060348360058110613da157fe5b602091828204019190066101000a81548160ff02191690836001811115613dc457fe5b02179055508073ffffffffffffffffffffffffffffffffffffffff167f6d6bbefef62d4cb6d0e3a4dd306a71d3632319b1e03659513df86b247dd657fe60405160405180910390a2505056fe4e6577207072696365206d75737420626520686967686572207468616e2063757272656e742070726963655072696365206d75737420626520686967686572207468616e2063757272656e74207072696365536166654d6174683a206d756c7469706c69636174696f6e206f766572666c6f775761697420666f7220646563656e7472616c69736564207265736f6c7574696f6e206669727374a265627a7a723158200c6f2ea8c937f960640b8574bb95539c26978275d41f2558d51bfa349491e89c64736f6c634300050c0032",
  "source": "pragma solidity ^0.5.0;\nimport \"./interfaces/IERC721Full.sol\";\nimport \"./utils/SafeMath.sol\";\n\ninterface IMarket \n{\n    function getWinningPayoutNumerator(uint256 _outcome) external view returns (uint256);\n}\n\ninterface ShareToken \n\n{\n    function publicBuyCompleteSets(IMarket _market, uint256 _amount) external returns (bool)  ;\n    function publicSellCompleteSets(IMarket _market, uint256 _amount) external returns (uint256 _creatorFee, uint256 _reportingFee) ;\n}\n\ninterface Cash \n{\n    function approve(address _spender, uint256 _amount) external returns (bool);\n    function balanceOf(address _owner) external view returns (uint256);\n    function faucet(uint256 _amount) external;\n    function transfer(address _to, uint256 _amount) external returns (bool);\n    function transferFrom(address _from, address _to, uint256 _amount) external returns (bool);\n}\n\n//TODO: make sure timeHeld is updated for the final owner because it is not automatically updated unless there is a transfer of the token. \n//TODO: augur will not accept to buy complete sets when itis resolved, so add smth to check if it is resolved with very collectRent\n//TODO : add something that will pay back all unused deposits at end of market\n//TODO : ensure that andrewsaddress is set correctly. It is different in dev\n//TODO : owner tracker variable test\n//TODO : add some more events \n//TODO : I seemed to get errors via front ened when i bought for 100000000 and 50 daik deposit, then switched to anew user and bought for 100000001 and 50 dai, investigate\n//TODO: it seems when testing via front end that the amount sent to augur was well above the 'total parongage collected' on the very first _collect (ie when adding deposit), investigate. I just tried a second time and yes itsa problem. as test, check that whatever is sent to buy sets matches the variable that the front end is checking (actually it appears to be out by 2 decimal places)\n\ncontract Harber {\n    \n    using SafeMath for uint256;\n\n    // NUMBER OF TOKENS\n    uint256 constant numberOfTokens = 5; \n\n    //TESTING VARIABLES\n    bool usingAugur = false;\n    uint256 testingVariable = 0;\n    uint256 a = 0;\n    uint256 b = 0;\n    uint256 c = 0;\n    mapping (address => uint256) public fundsSentToUser;\n    // uint256 public fundsInAugur\n    \n    // CONTRACT VARIABLES\n    IERC721Full public team; // ERC721 NFT.\n    //Augur contracts:\n    IMarket market;\n    ShareToken completeSets;\n    Cash cash; \n\n    // UINTS ADDRESSES, BOOLS\n    address andrewsAddress; // I am the original owner of tokens, and ownership reverts to me should the sale foreclose. Also, only I have the ability to SET the winner (which is an emergency ability if the decentralised approach fails- and can only be done if a month has passed aafter the augur resolution should have passed).\n    address marketAddress;\n    uint256[numberOfTokens] public price; //in wei\n    uint256[numberOfTokens] public collectedAndSentToAugur; // amount collected for each token, ie the sum of all owners' rent  \n    uint256 public totalCollected; // an easy way to track the above\n    uint256[numberOfTokens] public timeLastCollected; // used to determine the rent due. Rent is due for the period (now - timeLastCollected)\n    uint256[numberOfTokens] public timeAcquired; // used only for front end\n    uint256[numberOfTokens] public currentOwnerIndex; // tracks the position of the current owner in the previousOwnerTracker mapping\n    uint256[numberOfTokens] public numberOfOwners; //used to cycle through ownerTracker during finalse & payout. Since you can't find the size of a mapping.\n    // winning outcome variables\n    bool public marketResolved = false;\n    bool public doneAndDusted = false;\n    uint256 public winningOutcome = 99; //start with invalid winning outcome\n    uint256 public marketExpectedResolutionTime; //so the function to manually set the winner can only be called long after it should have resolved via Augur. Must be public so others can verify it is accurate. \n\n    //  STRUCTS\n    struct purchase {\n        address owner;\n        uint price;\n    }\n    \n    // MAPPINGS\n    mapping (uint256 => mapping (uint256 => purchase) ) public previousOwnerTracker; //keeps track of all previous owners of a token, including the price, so that if the current owner's deposit runs out, ownership can be reverted to a previous owner with the previous price. Index 0 is NOT used, this tells the contract to foreclose. This does NOT keep a reliable list of all owners, if it reverts to a previous owner then the next owner will overwrite the owner that was in that slot. The variable currentOwnerIndex is used to track the location of the current owner. \n    mapping (uint256 => mapping (uint256 => address) ) public ownerTracker; //used to keep hold of all the owners, for payout. \n    mapping (uint256 => mapping (address => uint256) ) public timeHeld; //this is the key variable that tracks the total amount of time each user has held it for. It is key because this is used to determine the proportion of the pot to be sent to each winning address\n    mapping (uint256 => uint256) public totalTimeHeld; //for the payout, what is the total time each token is owned for, excluding foreclosed state (ie owned by me). Winning addresses are sent payout * (timeHeld/totalTimeHeld)\n    mapping (uint256 => mapping (address => uint256) ) public deposits; //keeps track of all the deposits for each token, for each owner. Deposits are not returned automatically when there is a new buyer. \n    mapping (address => uint256) public testDaiBalances;\n\n    // ENUMS\n    enum ownedState { Foreclosed, Owned }\n    ownedState[numberOfTokens] public state;\n\n    constructor(address _andrewsAddress, address _addressOfToken, address _addressOfCashContract, address _addressOfMarket, address _addressOfCompleteSetsContract, address _addressOfMainAugurContract, uint _marketExpectedResolutionTime) public {\n        //initialise ERC721s\n        team = IERC721Full(_addressOfToken);\n        team.setup();\n        andrewsAddress = _andrewsAddress;\n\n        //currentOwnerIndex is incremented before being used first so the 0 index will never contain a price/address. A zero index is used in the _revertToPreviousOwner function to commence foreclosure\n        for (uint i=0; i<numberOfTokens; i++)\n        {\n            currentOwnerIndex[i]=0;\n            numberOfOwners[i]=0;\n            state[i] = ownedState.Foreclosed;\n        }\n\n        //initialise Augur contract variables\n        cash = Cash(_addressOfCashContract);\n        market = IMarket(_addressOfMarket);\n        completeSets = ShareToken(_addressOfCompleteSetsContract);\n        marketExpectedResolutionTime = _marketExpectedResolutionTime;\n        \n        //approve augur contract to transfer this contract's dai\n        // MUST BE COMMENTED OUT WHEN RUNNING ON GANACHE UNTIL I GET PRIVATE VERSION OF AUGUR CONTRACTS\n        if (usingAugur == true) {\n            cash.approve(_addressOfMainAugurContract,(2**256)-1);\n        }\n    } \n\n    event LogBuy(address indexed owner, uint256 indexed price);\n    event LogPriceChange(uint256 indexed newPrice);\n    event LogForeclosure(address indexed prevOwner);\n    event LogCollection(uint256 indexed collected);\n    \n    modifier onlyOwner(uint256 _tokenId) {\n        require(msg.sender == team.ownerOf(_tokenId), \"Not owner\");\n        _;\n    }\n\n    modifier notResolved() {\n        require(marketResolved == false);\n        _;\n    }\n\n    modifier collectRent(uint256 _tokenId) {\n       _collectRent(_tokenId); \n       _;\n    }\n\n    function getTestDai() public \n    {\n        if (usingAugur == true)\n        {\n            cash.faucet(100000000000000000000);\n            testDaiBalances[msg.sender]= testDaiBalances[msg.sender] + 100000000000000000000;\n        }\n        else\n        {\n            testDaiBalances[msg.sender]= testDaiBalances[msg.sender] + 100;\n        }\n    }\n\n    function buyCompleteSets(uint256 _rentOwed) internal \n    {\n        if (usingAugur == true)\n        {\n            completeSets.publicBuyCompleteSets(market, _rentOwed);\n        } \n    }\n\n    //currently public for testing, change to internal for production\n     function sellCompleteSets(uint256 _sets) public \n    {\n        //change below to assert in production. \n        require(_sets<=totalCollected, \"Trying to get back too much\");\n        assert (marketResolved);\n\n        if (usingAugur == true)\n        {\n            completeSets.publicSellCompleteSets(market, _sets);\n        } \n\n        \n    }\n\n    //this can be called by anyone, at any time. getWinningPayoutNumerator will always return with 0 unless the market is resolved. \n    function getWinner() notResolved() public \n    {\n        for (uint i=0; i < numberOfTokens; i++)\n        {\n            uint256 _response = market.getWinningPayoutNumerator(i);\n            if (_response != 0)\n            {\n                winningOutcome = i;\n                //final rent collection before it is locked down\n                _collectRent(winningOutcome);\n                marketResolved = true;\n                finaliseAndPayout();\n            }\n        }\n    }\n\n    //this function is used for testing, and in production is kept unless the above function fails. It can ONLY be called well after the market should have resolved on Augur, otherwise I could influence the outcome\n    function setWinner(uint256 _winner) notResolved() public \n    {\n        //only I can call this- MAKE SURE IT IS UNCOMMENTED IN PRODUCTION!\n        // require (msg.sender == andrewsAddress, \"Imposter detected\"); \n        // can only be called if a month has passed and the Augur market still not resolved\n        require (now > (marketExpectedResolutionTime + 2592000), \"Wait for decentralised resolution first\");\n        //final rent collection before it is locked down\n        winningOutcome = _winner;\n        _collectRent(winningOutcome);\n        marketResolved = true;\n        finaliseAndPayout();\n    }\n\n    function finaliseAndPayout() public\n    {\n        require (marketResolved == true, \"Winner not known\");\n        require (doneAndDusted == false, \"Already paid out\");\n        uint256 _daiAvailableToDistribute;\n\n        //get the dai back from Augur\n        sellCompleteSets(totalCollected);\n        //Im not relying on totalCollected to distribute in case get less back from Augur due to fees. Will get the actual DAI balance of the contract. \n        if (usingAugur) {\n            _daiAvailableToDistribute = cash.balanceOf(address(this));\n        }\n        else {\n             _daiAvailableToDistribute = totalCollected;\n        }\n        \n        //do the payout\n        for (uint i=0; i < numberOfOwners[winningOutcome]; i++)\n        {   \n            address _winnersAddress = ownerTracker[winningOutcome][i];\n            uint _winnersTimeHeld = timeHeld[winningOutcome][_winnersAddress];\n            uint256 _numerator = _daiAvailableToDistribute.mul(_winnersTimeHeld);\n            uint256 _winningsToTransfer = _numerator.div(totalTimeHeld[winningOutcome]);\n            if (usingAugur) {\n                cash.transfer(_winnersAddress,_winningsToTransfer);\n            } else {\n                fundsSentToUser[_winnersAddress] = _winningsToTransfer;\n            }\n        }\n        doneAndDusted = true;\n    }\n\n    function getTestDaiBalance() public view returns (uint256)\n    {\n        return(testDaiBalances[msg.sender]);\n    }\n\n    function getOwnerTrackerPrice(uint256 _tokenId, uint256 _index) public view returns (uint256)\n    {\n        return (previousOwnerTracker[_tokenId][_index].price);\n    }\n\n    function getOwnerTrackerAddress(uint256 _tokenId, uint256 _index) public view returns (address)\n    {\n        return (previousOwnerTracker[_tokenId][_index].owner);\n    }\n\n    function rentOwed(uint256 _tokenId) public view returns (uint256 augurFundsDue) {\n        return price[_tokenId].mul(now.sub(timeLastCollected[_tokenId])).div(365 days);\n    }\n\n    function rentOwedWithTimestamp(uint256 _tokenId) public view returns (uint256 augurFundsDue, uint256 timestamp) {\n        return (rentOwed(_tokenId), now);\n    }\n    function foreclosed(uint256 _tokenId) public view returns (bool) {\n        // returns whether it is in foreclosed state or not\n        // depending on whether deposit covers patronage due\n        // useful helper function when price should be zero, but contract doesn't reflect it yet.\n        uint256 _rentOwed = rentOwed(_tokenId);\n        if(_rentOwed >= deposits[_tokenId][msg.sender]) {\n            return true;\n        } else {\n            return false;\n        }\n    }\n\n    // this is only used to calculate foreclosure time\n    function liveDepositAbleToWithdraw(uint256 _tokenId) public view returns (uint256) {\n        uint256 _rentOwed = rentOwed(_tokenId);\n        address _currentOwner = team.ownerOf(_tokenId);\n        if(_rentOwed >= deposits[_tokenId][_currentOwner]) {\n            return 0;\n        } else {\n            return deposits[_tokenId][_currentOwner].sub(_rentOwed);\n        }\n    }\n\n    //this is my version of the above function. It shows how much each user can withdraw- whether or not they are the current owner. \n    function userDepositAbleToWithdraw(uint256 _tokenId) public view returns (uint256) {\n        uint256 _rentOwed = rentOwed(_tokenId);\n        address _currentOwner = team.ownerOf(_tokenId);\n\n        if(_currentOwner == msg.sender)\n        {\n            if(_rentOwed >= deposits[_tokenId][msg.sender]) \n        {\n            return 0;\n        } else {\n            return deposits[_tokenId][msg.sender].sub(_rentOwed);\n        }\n        } else {\n            return deposits[_tokenId][msg.sender];\n        }\n    }\n\n    function rentalExpiryTime(uint256 _tokenId) public view returns (uint256) {\n        uint256 pps = price[_tokenId].div(365 days);\n        if (pps == 0)\n        {\n            return now; //if price is so low that pps = 0 just return current time as a fallback\n        }\n        else\n        {\n            return now + liveDepositAbleToWithdraw(_tokenId).div(pps);\n        }\n    }\n\n    function _collectRent(uint256 _tokenId) notResolved() public {\n        // determine patronage to pay\n        if (state[_tokenId] == ownedState.Owned) {\n            \n            uint256 _rentOwed = rentOwed(_tokenId);\n            address _currentOwner = team.ownerOf(_tokenId);\n            uint256 _timeOfThisCollection;\n            testingVariable =totalTimeHeld[_tokenId];\n            \n            if (_rentOwed >= deposits[_tokenId][_currentOwner]) {\n                // run out of deposit. Calculate time it was actually paid for, then revert to previous owner \n                _timeOfThisCollection = timeLastCollected[_tokenId].add(((now.sub(timeLastCollected[_tokenId])).mul(deposits[_tokenId][_currentOwner]).div(_rentOwed)));\n                _rentOwed = deposits[_tokenId][_currentOwner]; // take what's left     \n                _revertToPreviousOwner(_tokenId);\n                \n            } else  {\n                //normal collection\n                _timeOfThisCollection = now;\n            }\n\n            //update the ownerTracker and numberOfOwners variables. only for new owners. \n            if (timeHeld[_tokenId][_currentOwner] == 0) {\n                ownerTracker[_tokenId][numberOfOwners[_tokenId]] = _currentOwner;\n                numberOfOwners[_tokenId] = numberOfOwners[_tokenId] + 1;\n            }\n\n            uint256 _timeHeldToIncrement = (_timeOfThisCollection.sub(timeLastCollected[_tokenId])); //just for readability\n            timeHeld[_tokenId][_currentOwner] = timeHeld[_tokenId][_currentOwner].add(_timeHeldToIncrement);\n\n            //totalTimeHeld should not increment when forelosed (or it would pay me a reward as I am the default owner), but this is taken care of because this entire function only runs if not foreclosed\n            totalTimeHeld[_tokenId] = totalTimeHeld[_tokenId].add(_timeHeldToIncrement);\n\n            timeLastCollected[_tokenId] = now;\n            deposits[_tokenId][_currentOwner] = deposits[_tokenId][_currentOwner].sub(_rentOwed);\n            collectedAndSentToAugur[_tokenId] = collectedAndSentToAugur[_tokenId].add(_rentOwed);\n            totalCollected = totalCollected.add(_rentOwed);\n\n            buyCompleteSets(_rentOwed);\n            \n            emit LogCollection(_rentOwed);\n        }\n    }\n\n    function depositDai(uint256 _dai, uint256 _tokenId) public collectRent(_tokenId) notResolved() {\n        require(state[_tokenId] != ownedState.Foreclosed, \"Foreclosed\");\n        testDaiBalances[msg.sender] = testDaiBalances[msg.sender].sub(_dai);\n        deposits[_tokenId][msg.sender] = deposits[_tokenId][msg.sender].add(_dai);\n    }\n    \n    function buy(uint256 _newPrice, uint256 _tokenId, uint256 _deposit) public collectRent(_tokenId) notResolved() {\n        require(_newPrice > price[_tokenId], \"Price must be higher than current price\");\n        require(_deposit > 0, \"Must deposit something\");\n        require(testDaiBalances[msg.sender] >= _deposit, \"Not enough DAI\");\n        \n        testDaiBalances[msg.sender] = testDaiBalances[msg.sender].sub(_deposit);\n        deposits[_tokenId][msg.sender] = deposits[_tokenId][msg.sender].add(_deposit);\n        \n        address _currentOwner = team.ownerOf(_tokenId);\n\n        if(_currentOwner == msg.sender)\n        {\n            previousOwnerTracker[_tokenId][currentOwnerIndex[_tokenId]].price = _newPrice;\n        }\n        else\n        {\n            currentOwnerIndex[_tokenId] = currentOwnerIndex[_tokenId] + 1; \n            // currentOwnerIndex[_tokenId] = currentOwnerIndex[_tokenId].add(1);\n            //^^ the above line causes VM errors, I need to figure out why\n            previousOwnerTracker[_tokenId][currentOwnerIndex[_tokenId]].price = _newPrice;\n            previousOwnerTracker[_tokenId][currentOwnerIndex[_tokenId]].owner = msg.sender; \n        }\n\n        if(state[_tokenId] == ownedState.Foreclosed) \n        {\n            state[_tokenId] = ownedState.Owned;\n            timeLastCollected[_tokenId] = now;\n        }\n        \n        //does the below even if owner hasn't changed. this is ok. \n        timeAcquired[_tokenId] = now;\n        _transferTokenTo(_currentOwner, msg.sender, _newPrice, _tokenId); \n        emit LogBuy(msg.sender, _newPrice);\n    }\n\n    function changePrice(uint256 _newPrice, uint256 _tokenId) public onlyOwner(_tokenId) collectRent(_tokenId) notResolved() {\n        require(state[_tokenId] != ownedState.Foreclosed, \"Foreclosed\");\n        require(_newPrice > price[_tokenId], \"New price must be higher than current price\"); //This is to prevent griefing- buying it then immediately dropping the price really low. The original project did not suffer from this problem because when you bought it, you had to pay the purchase price to the previous user, not so in mine. \n        \n        price[_tokenId] = _newPrice;\n        previousOwnerTracker[_tokenId][currentOwnerIndex[_tokenId]].price = _newPrice;\n        emit LogPriceChange(price[_tokenId]);\n    }\n    \n    function withdrawDeposit(uint256 _dai, uint256 _tokenId) public onlyOwner(_tokenId) collectRent(_tokenId) notResolved() returns (uint256) {\n        _withdrawDeposit(_dai, _tokenId);\n    }\n\n    function exit(uint256 _tokenId) public onlyOwner(_tokenId) collectRent(_tokenId) notResolved() {\n        _withdrawDeposit(deposits[_tokenId][msg.sender],  _tokenId);\n    }\n\n    /* internal */\n    function _withdrawDeposit(uint256 _dai, uint256 _tokenId) internal {\n        require(deposits[_tokenId][msg.sender] >= _dai, 'Withdrawing too much');\n\n        deposits[_tokenId][msg.sender] = deposits[_tokenId][msg.sender].sub(_dai);\n        testDaiBalances[msg.sender] = testDaiBalances[msg.sender].add(_dai);\n        //TO DO THE SEND DAI FUNCTION, CANNOT DO ON TESTNET\n\n        if(deposits[_tokenId][msg.sender] == 0) {\n            _revertToPreviousOwner(_tokenId);\n        }\n    }\n\n    function _revertToPreviousOwner(uint256 _tokenId) internal {\n        bool _reverted = false;\n        while (_reverted == false)\n        {\n            assert(currentOwnerIndex[_tokenId] >=0);\n            //change below to use safemath\n            currentOwnerIndex[_tokenId] = currentOwnerIndex[_tokenId] - 1; // ownerTraker will now point to  previous owner\n            uint256 _index = currentOwnerIndex[_tokenId]; //just for readability\n            address _previousOwner = previousOwnerTracker[_tokenId][_index].owner;\n\n            if (_index == 0) \n            //no previous owners. price -> zero, foreclose\n            {\n                _foreclose(_tokenId);\n                _reverted = true;\n            }\n            else if (deposits[_tokenId][_previousOwner] > 0)\n            // previous owner still has a deposit, transfer to them, update the price to what it used to be\n            {\n                address _currentOwner = team.ownerOf(_tokenId);\n                uint256 _oldPrice = previousOwnerTracker[_tokenId][_index].price;\n                _transferTokenTo(_currentOwner, _previousOwner, _oldPrice, _tokenId);\n                _reverted = true;\n            }\n        }       \n    }\n\n    function _foreclose(uint256 _tokenId) internal {\n        // I become steward of artwork (aka foreclose)\n        address _currentOwner = team.ownerOf(_tokenId);\n        //third field is price, ie price goes to zero\n        _transferTokenTo(_currentOwner, andrewsAddress, 0, _tokenId);\n        state[_tokenId] = ownedState.Foreclosed;\n        emit LogForeclosure(_currentOwner);\n    }\n\n    function _transferTokenTo(address _currentOwner, address _newOwner, uint256 _newPrice, uint256 _tokenId) internal {\n        team.transferFrom(_currentOwner, _newOwner, _tokenId);\n        price[_tokenId] = _newPrice;\n    }\n}\n\n                // require(1 > 2, \"STFU\");\n",
  "sourcePath": "/Users/mcplums/Repos/Harber/contracts/Harber.sol",
  "compiler": {
    "name": "solc",
    "version": "0.5.12+commit.7709ece9.Emscripten.clang"
  },
  "schemaVersion": "3.0.19",
  "updatedAt": "2019-12-18T09:31:42.532Z",
  "networkType": "ethereum",
  "devdoc": {
    "methods": {}
  },
  "userdoc": {
    "methods": {}
  }
}