{
  "contractName": "Harber",
  "abi": [
    {
      "inputs": [
        {
          "internalType": "address payable",
          "name": "_andrewsAddress",
          "type": "address"
        },
        {
          "internalType": "address",
          "name": "_addressOfToken",
          "type": "address"
        },
        {
          "internalType": "address",
          "name": "_addressOfCashContract",
          "type": "address"
        }
      ],
      "payable": false,
      "stateMutability": "nonpayable",
      "type": "constructor"
    },
    {
      "anonymous": false,
      "inputs": [
        {
          "indexed": true,
          "internalType": "address",
          "name": "owner",
          "type": "address"
        },
        {
          "indexed": true,
          "internalType": "uint256",
          "name": "price",
          "type": "uint256"
        }
      ],
      "name": "LogBuy",
      "type": "event"
    },
    {
      "anonymous": false,
      "inputs": [
        {
          "indexed": true,
          "internalType": "uint256",
          "name": "collected",
          "type": "uint256"
        }
      ],
      "name": "LogCollection",
      "type": "event"
    },
    {
      "anonymous": false,
      "inputs": [
        {
          "indexed": true,
          "internalType": "address",
          "name": "prevOwner",
          "type": "address"
        }
      ],
      "name": "LogForeclosure",
      "type": "event"
    },
    {
      "anonymous": false,
      "inputs": [
        {
          "indexed": true,
          "internalType": "uint256",
          "name": "newPrice",
          "type": "uint256"
        }
      ],
      "name": "LogPriceChange",
      "type": "event"
    },
    {
      "constant": true,
      "inputs": [],
      "name": "andrewsAddress",
      "outputs": [
        {
          "internalType": "address payable",
          "name": "",
          "type": "address"
        }
      ],
      "payable": false,
      "stateMutability": "view",
      "type": "function"
    },
    {
      "constant": true,
      "inputs": [],
      "name": "augurFund",
      "outputs": [
        {
          "internalType": "uint256",
          "name": "",
          "type": "uint256"
        }
      ],
      "payable": false,
      "stateMutability": "view",
      "type": "function"
    },
    {
      "constant": true,
      "inputs": [],
      "name": "cash",
      "outputs": [
        {
          "internalType": "contract Cash",
          "name": "",
          "type": "address"
        }
      ],
      "payable": false,
      "stateMutability": "view",
      "type": "function"
    },
    {
      "constant": true,
      "inputs": [
        {
          "internalType": "uint256",
          "name": "",
          "type": "uint256"
        }
      ],
      "name": "currentCollected",
      "outputs": [
        {
          "internalType": "uint256",
          "name": "",
          "type": "uint256"
        }
      ],
      "payable": false,
      "stateMutability": "view",
      "type": "function"
    },
    {
      "constant": true,
      "inputs": [
        {
          "internalType": "uint256",
          "name": "",
          "type": "uint256"
        }
      ],
      "name": "deposit",
      "outputs": [
        {
          "internalType": "uint256",
          "name": "",
          "type": "uint256"
        }
      ],
      "payable": false,
      "stateMutability": "view",
      "type": "function"
    },
    {
      "constant": true,
      "inputs": [
        {
          "internalType": "uint256",
          "name": "",
          "type": "uint256"
        },
        {
          "internalType": "address",
          "name": "",
          "type": "address"
        }
      ],
      "name": "owners",
      "outputs": [
        {
          "internalType": "bool",
          "name": "",
          "type": "bool"
        }
      ],
      "payable": false,
      "stateMutability": "view",
      "type": "function"
    },
    {
      "constant": true,
      "inputs": [
        {
          "internalType": "uint256",
          "name": "",
          "type": "uint256"
        }
      ],
      "name": "price",
      "outputs": [
        {
          "internalType": "uint256",
          "name": "",
          "type": "uint256"
        }
      ],
      "payable": false,
      "stateMutability": "view",
      "type": "function"
    },
    {
      "constant": true,
      "inputs": [
        {
          "internalType": "uint256",
          "name": "",
          "type": "uint256"
        }
      ],
      "name": "state",
      "outputs": [
        {
          "internalType": "enum Harber.ownedState",
          "name": "",
          "type": "uint8"
        }
      ],
      "payable": false,
      "stateMutability": "view",
      "type": "function"
    },
    {
      "constant": true,
      "inputs": [],
      "name": "team",
      "outputs": [
        {
          "internalType": "contract IERC721Full",
          "name": "",
          "type": "address"
        }
      ],
      "payable": false,
      "stateMutability": "view",
      "type": "function"
    },
    {
      "constant": true,
      "inputs": [
        {
          "internalType": "address",
          "name": "",
          "type": "address"
        }
      ],
      "name": "testDaiBalances",
      "outputs": [
        {
          "internalType": "uint256",
          "name": "",
          "type": "uint256"
        }
      ],
      "payable": false,
      "stateMutability": "view",
      "type": "function"
    },
    {
      "constant": true,
      "inputs": [
        {
          "internalType": "uint256",
          "name": "",
          "type": "uint256"
        }
      ],
      "name": "timeAcquired",
      "outputs": [
        {
          "internalType": "uint256",
          "name": "",
          "type": "uint256"
        }
      ],
      "payable": false,
      "stateMutability": "view",
      "type": "function"
    },
    {
      "constant": true,
      "inputs": [
        {
          "internalType": "uint256",
          "name": "",
          "type": "uint256"
        },
        {
          "internalType": "address",
          "name": "",
          "type": "address"
        }
      ],
      "name": "timeHeld",
      "outputs": [
        {
          "internalType": "uint256",
          "name": "",
          "type": "uint256"
        }
      ],
      "payable": false,
      "stateMutability": "view",
      "type": "function"
    },
    {
      "constant": true,
      "inputs": [
        {
          "internalType": "uint256",
          "name": "",
          "type": "uint256"
        }
      ],
      "name": "timeLastCollected",
      "outputs": [
        {
          "internalType": "uint256",
          "name": "",
          "type": "uint256"
        }
      ],
      "payable": false,
      "stateMutability": "view",
      "type": "function"
    },
    {
      "constant": true,
      "inputs": [],
      "name": "totalCollected",
      "outputs": [
        {
          "internalType": "uint256",
          "name": "",
          "type": "uint256"
        }
      ],
      "payable": false,
      "stateMutability": "view",
      "type": "function"
    },
    {
      "constant": true,
      "inputs": [
        {
          "internalType": "uint256",
          "name": "",
          "type": "uint256"
        },
        {
          "internalType": "address",
          "name": "",
          "type": "address"
        }
      ],
      "name": "userDeposits",
      "outputs": [
        {
          "internalType": "uint256",
          "name": "",
          "type": "uint256"
        }
      ],
      "payable": false,
      "stateMutability": "view",
      "type": "function"
    },
    {
      "constant": true,
      "inputs": [],
      "name": "version",
      "outputs": [
        {
          "internalType": "uint256",
          "name": "",
          "type": "uint256"
        }
      ],
      "payable": false,
      "stateMutability": "view",
      "type": "function"
    },
    {
      "constant": true,
      "inputs": [],
      "name": "getVersion",
      "outputs": [
        {
          "internalType": "uint256",
          "name": "",
          "type": "uint256"
        }
      ],
      "payable": false,
      "stateMutability": "pure",
      "type": "function"
    },
    {
      "constant": false,
      "inputs": [],
      "name": "getTestDai",
      "outputs": [],
      "payable": false,
      "stateMutability": "nonpayable",
      "type": "function"
    },
    {
      "constant": true,
      "inputs": [],
      "name": "getTestDaiBalance",
      "outputs": [
        {
          "internalType": "uint256",
          "name": "",
          "type": "uint256"
        }
      ],
      "payable": false,
      "stateMutability": "view",
      "type": "function"
    },
    {
      "constant": true,
      "inputs": [
        {
          "internalType": "uint256",
          "name": "_tokenId",
          "type": "uint256"
        }
      ],
      "name": "getPrice",
      "outputs": [
        {
          "internalType": "uint256",
          "name": "",
          "type": "uint256"
        }
      ],
      "payable": false,
      "stateMutability": "view",
      "type": "function"
    },
    {
      "constant": true,
      "inputs": [
        {
          "internalType": "uint256",
          "name": "_tokenId",
          "type": "uint256"
        }
      ],
      "name": "getUserDepositBalance",
      "outputs": [
        {
          "internalType": "uint256",
          "name": "",
          "type": "uint256"
        }
      ],
      "payable": false,
      "stateMutability": "view",
      "type": "function"
    },
    {
      "constant": true,
      "inputs": [
        {
          "internalType": "uint256",
          "name": "_tokenId",
          "type": "uint256"
        }
      ],
      "name": "augurFundsOwed",
      "outputs": [
        {
          "internalType": "uint256",
          "name": "augurFundsDue",
          "type": "uint256"
        }
      ],
      "payable": false,
      "stateMutability": "view",
      "type": "function"
    },
    {
      "constant": true,
      "inputs": [
        {
          "internalType": "uint256",
          "name": "_tokenId",
          "type": "uint256"
        }
      ],
      "name": "augurFundsOwedWithTimestamp",
      "outputs": [
        {
          "internalType": "uint256",
          "name": "augurFundsDue",
          "type": "uint256"
        },
        {
          "internalType": "uint256",
          "name": "timestamp",
          "type": "uint256"
        }
      ],
      "payable": false,
      "stateMutability": "view",
      "type": "function"
    },
    {
      "constant": true,
      "inputs": [
        {
          "internalType": "uint256",
          "name": "_tokenId",
          "type": "uint256"
        }
      ],
      "name": "foreclosed",
      "outputs": [
        {
          "internalType": "bool",
          "name": "",
          "type": "bool"
        }
      ],
      "payable": false,
      "stateMutability": "view",
      "type": "function"
    },
    {
      "constant": true,
      "inputs": [
        {
          "internalType": "uint256",
          "name": "_tokenId",
          "type": "uint256"
        }
      ],
      "name": "depositAbleToWithdraw",
      "outputs": [
        {
          "internalType": "uint256",
          "name": "",
          "type": "uint256"
        }
      ],
      "payable": false,
      "stateMutability": "view",
      "type": "function"
    },
    {
      "constant": true,
      "inputs": [
        {
          "internalType": "uint256",
          "name": "_tokenId",
          "type": "uint256"
        }
      ],
      "name": "userDepositAbleToWithdraw",
      "outputs": [
        {
          "internalType": "uint256",
          "name": "",
          "type": "uint256"
        }
      ],
      "payable": false,
      "stateMutability": "view",
      "type": "function"
    },
    {
      "constant": true,
      "inputs": [
        {
          "internalType": "uint256",
          "name": "_tokenId",
          "type": "uint256"
        }
      ],
      "name": "foreclosureTime",
      "outputs": [
        {
          "internalType": "uint256",
          "name": "",
          "type": "uint256"
        }
      ],
      "payable": false,
      "stateMutability": "view",
      "type": "function"
    },
    {
      "constant": false,
      "inputs": [
        {
          "internalType": "uint256",
          "name": "_tokenId",
          "type": "uint256"
        }
      ],
      "name": "_collectAugurFunds",
      "outputs": [],
      "payable": false,
      "stateMutability": "nonpayable",
      "type": "function"
    },
    {
      "constant": false,
      "inputs": [
        {
          "internalType": "uint256",
          "name": "_tokenId",
          "type": "uint256"
        }
      ],
      "name": "depositWei",
      "outputs": [],
      "payable": true,
      "stateMutability": "payable",
      "type": "function"
    },
    {
      "constant": false,
      "inputs": [
        {
          "internalType": "uint256",
          "name": "_newPrice",
          "type": "uint256"
        },
        {
          "internalType": "uint256",
          "name": "_tokenId",
          "type": "uint256"
        },
        {
          "internalType": "uint256",
          "name": "_deposit",
          "type": "uint256"
        }
      ],
      "name": "buy",
      "outputs": [],
      "payable": false,
      "stateMutability": "nonpayable",
      "type": "function"
    },
    {
      "constant": false,
      "inputs": [
        {
          "internalType": "uint256",
          "name": "_newPrice",
          "type": "uint256"
        },
        {
          "internalType": "uint256",
          "name": "_tokenId",
          "type": "uint256"
        }
      ],
      "name": "changePrice",
      "outputs": [],
      "payable": false,
      "stateMutability": "nonpayable",
      "type": "function"
    },
    {
      "constant": false,
      "inputs": [
        {
          "internalType": "uint256",
          "name": "_wei",
          "type": "uint256"
        },
        {
          "internalType": "uint256",
          "name": "_tokenId",
          "type": "uint256"
        }
      ],
      "name": "withdrawDeposit",
      "outputs": [
        {
          "internalType": "uint256",
          "name": "",
          "type": "uint256"
        }
      ],
      "payable": false,
      "stateMutability": "nonpayable",
      "type": "function"
    },
    {
      "constant": false,
      "inputs": [],
      "name": "withdrawAugurFunds",
      "outputs": [],
      "payable": false,
      "stateMutability": "nonpayable",
      "type": "function"
    },
    {
      "constant": false,
      "inputs": [
        {
          "internalType": "uint256",
          "name": "_tokenId",
          "type": "uint256"
        }
      ],
      "name": "exit",
      "outputs": [],
      "payable": false,
      "stateMutability": "nonpayable",
      "type": "function"
    }
  ],
  "bytecode": "0x60806040523480156200001157600080fd5b506040516200277b3803806200277b833981810160405260608110156200003757600080fd5b8101908080519060200190929190805190602001909291908051906020019092919050505081600260006101000a81548173ffffffffffffffffffffffffffffffffffffffff021916908373ffffffffffffffffffffffffffffffffffffffff160217905550600260009054906101000a900473ffffffffffffffffffffffffffffffffffffffff1673ffffffffffffffffffffffffffffffffffffffff1663ba0bba406040518163ffffffff1660e01b8152600401600060405180830381600087803b1580156200010857600080fd5b505af11580156200011d573d6000803e3d6000fd5b5050505082600b60006101000a81548173ffffffffffffffffffffffffffffffffffffffff021916908373ffffffffffffffffffffffffffffffffffffffff160217905550600060136000600281106200017357fe5b602091828204019190066101000a81548160ff021916908360018111156200019757fe5b021790555060006013600160028110620001ad57fe5b602091828204019190066101000a81548160ff02191690836001811115620001d157fe5b021790555080600360006101000a81548173ffffffffffffffffffffffffffffffffffffffff021916908373ffffffffffffffffffffffffffffffffffffffff160217905550505050612551806200022a6000396000f3fe6080604052600436106101f95760003560e01c80637f8661a11161010d578063b8dc6d74116100a0578063e29eb8361161006f578063e29eb83614610a6b578063e6a9d42914610a96578063e757223014610ae5578063f3cebadb14610b34578063f9c516ea14610b4b576101f9565b8063b8dc6d7414610933578063bae04c9a1461095e578063cb294177146109b7578063e1c214c614610a1c576101f9565b8063994ec705116100dc578063994ec7051461081a578063a3f81da014610871578063b3de019c1461089f578063b6b55f25146108e4576101f9565b80637f8661a1146106e257806385f2aef21461071d5780638cb6889914610774578063961be391146107c3576101f9565b80633317de7a1161019057806354fd4d501161015f57806354fd4d50146105575780635b2ace64146105825780635e104def146105d1578063631ff3b41461064457806373a5226f14610693576101f9565b80633317de7a14610459578063391edb3a146104705780633e4f49e6146104ab57806340993b2614610508576101f9565b8063237b5e4f116101cc578063237b5e4f1461032157806323ebc82b1461039057806326a49e37146103df578063321c77711461042e576101f9565b80630d8e6e2c146101fe5780631b252781146102295780631e8b76ad14610278578063224ce1b9146102cb575b600080fd5b34801561020a57600080fd5b50610213610bba565b6040518082815260200191505060405180910390f35b34801561023557600080fd5b506102626004803603602081101561024c57600080fd5b8101908080359060200190929190505050610bc3565b6040518082815260200191505060405180910390f35b34801561028457600080fd5b506102b16004803603602081101561029b57600080fd5b8101908080359060200190929190505050610bdb565b604051808215151515815260200191505060405180910390f35b3480156102d757600080fd5b50610304600480360360208110156102ee57600080fd5b8101908080359060200190929190505050610c13565b604051808381526020018281526020019250505060405180910390f35b34801561032d57600080fd5b5061037a6004803603604081101561034457600080fd5b8101908080359060200190929190803573ffffffffffffffffffffffffffffffffffffffff169060200190929190505050610c29565b6040518082815260200191505060405180910390f35b34801561039c57600080fd5b506103c9600480360360208110156103b357600080fd5b8101908080359060200190929190505050610c4e565b6040518082815260200191505060405180910390f35b3480156103eb57600080fd5b506104186004803603602081101561040257600080fd5b8101908080359060200190929190505050610ca5565b6040518082815260200191505060405180910390f35b34801561043a57600080fd5b50610443610cbd565b6040518082815260200191505060405180910390f35b34801561046557600080fd5b5061046e610d04565b005b34801561047c57600080fd5b506104a96004803603602081101561049357600080fd5b8101908080359060200190929190505050610e3c565b005b3480156104b757600080fd5b506104e4600480360360208110156104ce57600080fd5b8101908080359060200190929190505050610e3f565b604051808260018111156104f457fe5b60ff16815260200191505060405180910390f35b34801561051457600080fd5b506105556004803603606081101561052b57600080fd5b81019080803590602001909291908035906020019092919080359060200190929190505050610e66565b005b34801561056357600080fd5b5061056c611375565b6040518082815260200191505060405180910390f35b34801561058e57600080fd5b506105bb600480360360208110156105a557600080fd5b810190808035906020019092919050505061137a565b6040518082815260200191505060405180910390f35b3480156105dd57600080fd5b5061062a600480360360408110156105f457600080fd5b8101908080359060200190929190803573ffffffffffffffffffffffffffffffffffffffff169060200190929190505050611392565b604051808215151515815260200191505060405180910390f35b34801561065057600080fd5b5061067d6004803603602081101561066757600080fd5b81019080803590602001909291905050506113c1565b6040518082815260200191505060405180910390f35b34801561069f57600080fd5b506106cc600480360360208110156106b657600080fd5b810190808035906020019092919050505061141b565b6040518082815260200191505060405180910390f35b3480156106ee57600080fd5b5061071b6004803603602081101561070557600080fd5b81019080803590602001909291905050506115f6565b005b34801561072957600080fd5b5061073261176c565b604051808273ffffffffffffffffffffffffffffffffffffffff1673ffffffffffffffffffffffffffffffffffffffff16815260200191505060405180910390f35b34801561078057600080fd5b506107ad6004803603602081101561079757600080fd5b8101908080359060200190929190505050611792565b6040518082815260200191505060405180910390f35b3480156107cf57600080fd5b506107d86117aa565b604051808273ffffffffffffffffffffffffffffffffffffffff1673ffffffffffffffffffffffffffffffffffffffff16815260200191505060405180910390f35b34801561082657600080fd5b5061082f6117d0565b604051808273ffffffffffffffffffffffffffffffffffffffff1673ffffffffffffffffffffffffffffffffffffffff16815260200191505060405180910390f35b61089d6004803603602081101561088757600080fd5b81019080803590602001909291905050506117f6565b005b3480156108ab57600080fd5b506108e2600480360360408110156108c257600080fd5b8101908080359060200190929190803590602001909291905050506118e6565b005b3480156108f057600080fd5b5061091d6004803603602081101561090757600080fd5b8101908080359060200190929190505050611bb9565b6040518082815260200191505060405180910390f35b34801561093f57600080fd5b50610948611bd1565b6040518082815260200191505060405180910390f35b34801561096a57600080fd5b506109a16004803603604081101561098157600080fd5b810190808035906020019092919080359060200190929190505050611bd7565b6040518082815260200191505060405180910390f35b3480156109c357600080fd5b50610a06600480360360208110156109da57600080fd5b81019080803573ffffffffffffffffffffffffffffffffffffffff169060200190929190505050611d44565b6040518082815260200191505060405180910390f35b348015610a2857600080fd5b50610a5560048036036020811015610a3f57600080fd5b8101908080359060200190929190505050611d5c565b6040518082815260200191505060405180910390f35b348015610a7757600080fd5b50610a80611dab565b6040518082815260200191505060405180910390f35b348015610aa257600080fd5b50610acf60048036036020811015610ab957600080fd5b8101908080359060200190929190505050611db1565b6040518082815260200191505060405180910390f35b348015610af157600080fd5b50610b1e60048036036020811015610b0857600080fd5b8101908080359060200190929190505050611e11565b6040518082815260200191505060405180910390f35b348015610b4057600080fd5b50610b49611e28565b005b348015610b5757600080fd5b50610ba460048036036040811015610b6e57600080fd5b8101908080359060200190929190803573ffffffffffffffffffffffffffffffffffffffff169060200190929190505050611f4e565b6040518082815260200191505060405180910390f35b60006016905090565b60058160028110610bd057fe5b016000915090505481565b600080610be783611db1565b905060098360028110610bf657fe5b01548110610c08576001915050610c0e565b60009150505b919050565b600080610c1f83611db1565b4291509150915091565b600e602052816000526040600020602052806000526040600020600091509150505481565b600080610c5a83611db1565b905060098360028110610c6957fe5b01548110610c7b576000915050610ca0565b610c9c8160098560028110610c8c57fe5b0154611f7390919063ffffffff16565b9150505b919050565b60008160028110610cb257fe5b016000915090505481565b6000601060003373ffffffffffffffffffffffffffffffffffffffff1673ffffffffffffffffffffffffffffffffffffffff16815260200190815260200160002054905090565b600b60009054906101000a900473ffffffffffffffffffffffffffffffffffffffff1673ffffffffffffffffffffffffffffffffffffffff163373ffffffffffffffffffffffffffffffffffffffff1614610dc7576040517f08c379a000000000000000000000000000000000000000000000000000000000815260040180806020018281038252600a8152602001807f4e6f7420616e647265770000000000000000000000000000000000000000000081525060200191505060405180910390fd5b600b60009054906101000a900473ffffffffffffffffffffffffffffffffffffffff1673ffffffffffffffffffffffffffffffffffffffff166108fc600c549081150290604051600060405180830381858888f19350505050158015610e31573d6000803e3d6000fd5b506000600c81905550565b50565b60138160028110610e4c57fe5b60209182820401919006915054906101000a900460ff1681565b81610e7081610e3c565b60008360028110610e7d57fe5b01548411610ed6576040517f08c379a00000000000000000000000000000000000000000000000000000000081526004018080602001828103825260278152602001806124f66027913960400191505060405180910390fd5b60008211610f4c576040517f08c379a00000000000000000000000000000000000000000000000000000000081526004018080602001828103825260168152602001807f4d757374206465706f73697420736f6d657468696e670000000000000000000081525060200191505060405180910390fd5b81601060003373ffffffffffffffffffffffffffffffffffffffff1673ffffffffffffffffffffffffffffffffffffffff168152602001908152602001600020541015611001576040517f08c379a000000000000000000000000000000000000000000000000000000000815260040180806020018281038252600e8152602001807f4e6f7420656e6f7567682044414900000000000000000000000000000000000081525060200191505060405180910390fd5b61105382601060003373ffffffffffffffffffffffffffffffffffffffff1673ffffffffffffffffffffffffffffffffffffffff16815260200190815260200160002054611f7390919063ffffffff16565b601060003373ffffffffffffffffffffffffffffffffffffffff1673ffffffffffffffffffffffffffffffffffffffff168152602001908152602001600020819055506110f982600f600086815260200190815260200160002060003373ffffffffffffffffffffffffffffffffffffffff1673ffffffffffffffffffffffffffffffffffffffff16815260200190815260200160002054611f9390919063ffffffff16565b600f600085815260200190815260200160002060003373ffffffffffffffffffffffffffffffffffffffff1673ffffffffffffffffffffffffffffffffffffffff16815260200190815260200160002081905550836000846002811061115b57fe5b01819055506000600260009054906101000a900473ffffffffffffffffffffffffffffffffffffffff1673ffffffffffffffffffffffffffffffffffffffff16636352211e856040518263ffffffff1660e01b81526004018082815260200191505060206040518083038186803b1580156111d557600080fd5b505afa1580156111e9573d6000803e3d6000fd5b505050506040513d60208110156111ff57600080fd5b810190808051906020019092919050505090503373ffffffffffffffffffffffffffffffffffffffff168173ffffffffffffffffffffffffffffffffffffffff16141561127e57611267836009866002811061125757fe5b0154611f9390919063ffffffff16565b6009856002811061127457fe5b018190555061129e565b826009856002811061128c57fe5b018190555061129d81338787611fb2565b5b600060018111156112ab57fe5b601385600281106112b857fe5b602091828204019190069054906101000a900460ff1660018111156112d957fe5b141561132a576001601385600281106112ee57fe5b602091828204019190066101000a81548160ff0219169083600181111561131157fe5b0217905550426007856002811061132457fe5b01819055505b843373ffffffffffffffffffffffffffffffffffffffff167f4f79409f494e81c38036d80aa8a6507c2cb08d90bfb2fead5519447646b3497e60405160405180910390a35050505050565b601681565b6011816002811061138757fe5b016000915090505481565b600d6020528160005260406000206020528060005260406000206000915091509054906101000a900460ff1681565b6000600f600083815260200190815260200160002060003373ffffffffffffffffffffffffffffffffffffffff1673ffffffffffffffffffffffffffffffffffffffff168152602001908152602001600020549050919050565b60008061142783611db1565b90506000600260009054906101000a900473ffffffffffffffffffffffffffffffffffffffff1673ffffffffffffffffffffffffffffffffffffffff16636352211e856040518263ffffffff1660e01b81526004018082815260200191505060206040518083038186803b15801561149e57600080fd5b505afa1580156114b2573d6000803e3d6000fd5b505050506040513d60208110156114c857600080fd5b810190808051906020019092919050505090503373ffffffffffffffffffffffffffffffffffffffff168173ffffffffffffffffffffffffffffffffffffffff16141561159b576009846002811061151c57fe5b0154821061152f576000925050506115f1565b61159282600f600087815260200190815260200160002060003373ffffffffffffffffffffffffffffffffffffffff1673ffffffffffffffffffffffffffffffffffffffff16815260200190815260200160002054611f7390919063ffffffff16565b925050506115f1565b600f600085815260200190815260200160002060003373ffffffffffffffffffffffffffffffffffffffff1673ffffffffffffffffffffffffffffffffffffffff16815260200190815260200160002054925050505b919050565b80600260009054906101000a900473ffffffffffffffffffffffffffffffffffffffff1673ffffffffffffffffffffffffffffffffffffffff16636352211e826040518263ffffffff1660e01b81526004018082815260200191505060206040518083038186803b15801561166a57600080fd5b505afa15801561167e573d6000803e3d6000fd5b505050506040513d602081101561169457600080fd5b810190808051906020019092919050505073ffffffffffffffffffffffffffffffffffffffff163373ffffffffffffffffffffffffffffffffffffffff1614611745576040517f08c379a00000000000000000000000000000000000000000000000000000000081526004018080602001828103825260098152602001807f4e6f74206f776e6572000000000000000000000000000000000000000000000081525060200191505060405180910390fd5b8161174f81610e3c565b6117676009846002811061175f57fe5b015484612221565b505050565b600260009054906101000a900473ffffffffffffffffffffffffffffffffffffffff1681565b6007816002811061179f57fe5b016000915090505481565b600360009054906101000a900473ffffffffffffffffffffffffffffffffffffffff1681565b600b60009054906101000a900473ffffffffffffffffffffffffffffffffffffffff1681565b8061180081610e3c565b6000600181111561180d57fe5b6013836002811061181a57fe5b602091828204019190069054906101000a900460ff16600181111561183b57fe5b14156118af576040517f08c379a000000000000000000000000000000000000000000000000000000000815260040180806020018281038252600a8152602001807f466f7265636c6f7365640000000000000000000000000000000000000000000081525060200191505060405180910390fd5b6118d034600984600281106118c057fe5b0154611f9390919063ffffffff16565b600983600281106118dd57fe5b01819055505050565b80600260009054906101000a900473ffffffffffffffffffffffffffffffffffffffff1673ffffffffffffffffffffffffffffffffffffffff16636352211e826040518263ffffffff1660e01b81526004018082815260200191505060206040518083038186803b15801561195a57600080fd5b505afa15801561196e573d6000803e3d6000fd5b505050506040513d602081101561198457600080fd5b810190808051906020019092919050505073ffffffffffffffffffffffffffffffffffffffff163373ffffffffffffffffffffffffffffffffffffffff1614611a35576040517f08c379a00000000000000000000000000000000000000000000000000000000081526004018080602001828103825260098152602001807f4e6f74206f776e6572000000000000000000000000000000000000000000000081525060200191505060405180910390fd5b81611a3f81610e3c565b60006001811115611a4c57fe5b60138460028110611a5957fe5b602091828204019190069054906101000a900460ff166001811115611a7a57fe5b1415611aee576040517f08c379a000000000000000000000000000000000000000000000000000000000815260040180806020018281038252600a8152602001807f466f7265636c6f7365640000000000000000000000000000000000000000000081525060200191505060405180910390fd5b6000841415611b65576040517f08c379a000000000000000000000000000000000000000000000000000000000815260040180806020018281038252600f8152602001807f496e636f7272656374205072696365000000000000000000000000000000000081525060200191505060405180910390fd5b8360008460028110611b7357fe5b018190555060008360028110611b8557fe5b01547f854d6511a28585103049c7770618450f7c9aeb580c69db2913d63869663f475160405160405180910390a250505050565b60098160028110611bc657fe5b016000915090505481565b600c5481565b600081600260009054906101000a900473ffffffffffffffffffffffffffffffffffffffff1673ffffffffffffffffffffffffffffffffffffffff16636352211e826040518263ffffffff1660e01b81526004018082815260200191505060206040518083038186803b158015611c4d57600080fd5b505afa158015611c61573d6000803e3d6000fd5b505050506040513d6020811015611c7757600080fd5b810190808051906020019092919050505073ffffffffffffffffffffffffffffffffffffffff163373ffffffffffffffffffffffffffffffffffffffff1614611d28576040517f08c379a00000000000000000000000000000000000000000000000000000000081526004018080602001828103825260098152602001807f4e6f74206f776e6572000000000000000000000000000000000000000000000081525060200191505060405180910390fd5b82611d3281610e3c565b611d3c8585612221565b505092915050565b60106020528060005260406000206000915090505481565b600080611d846301e1338060008560028110611d7457fe5b015461234490919063ffffffff16565b9050611da181611d9385610c4e565b61234490919063ffffffff16565b4201915050919050565b60045481565b6000611e0a6301e13380611dfc611ddf60078660028110611dce57fe5b015442611f7390919063ffffffff16565b60008660028110611dec57fe5b015461236a90919063ffffffff16565b61234490919063ffffffff16565b9050919050565b6000808260028110611e1f57fe5b01549050919050565b600360009054906101000a900473ffffffffffffffffffffffffffffffffffffffff1673ffffffffffffffffffffffffffffffffffffffff16635791589768056bc75e2d631000006040518263ffffffff1660e01b815260040180828152602001915050600060405180830381600087803b158015611ea657600080fd5b505af1158015611eba573d6000803e3d6000fd5b5050505068056bc75e2d63100000601060003373ffffffffffffffffffffffffffffffffffffffff1673ffffffffffffffffffffffffffffffffffffffff1681526020019081526020016000205401601060003373ffffffffffffffffffffffffffffffffffffffff1673ffffffffffffffffffffffffffffffffffffffff16815260200190815260200160002081905550565b600f602052816000526040600020602052806000526040600020600091509150505481565b600082821115611f8257600080fd5b600082840390508091505092915050565b600080828401905083811015611fa857600080fd5b8091505092915050565b612043611fe460118360028110611fc557fe5b015460078460028110611fd457fe5b0154611f7390919063ffffffff16565b600e600084815260200190815260200160002060008773ffffffffffffffffffffffffffffffffffffffff1673ffffffffffffffffffffffffffffffffffffffff16815260200190815260200160002054611f9390919063ffffffff16565b600e600083815260200190815260200160002060008673ffffffffffffffffffffffffffffffffffffffff1673ffffffffffffffffffffffffffffffffffffffff16815260200190815260200160002081905550600260009054906101000a900473ffffffffffffffffffffffffffffffffffffffff1673ffffffffffffffffffffffffffffffffffffffff166323b872dd8585846040518463ffffffff1660e01b8152600401808473ffffffffffffffffffffffffffffffffffffffff1673ffffffffffffffffffffffffffffffffffffffff1681526020018373ffffffffffffffffffffffffffffffffffffffff1673ffffffffffffffffffffffffffffffffffffffff1681526020018281526020019350505050600060405180830381600087803b15801561217457600080fd5b505af1158015612188573d6000803e3d6000fd5b50505050816000826002811061219a57fe5b018190555042601182600281106121ad57fe5b01819055506001600d600083815260200190815260200160002060008573ffffffffffffffffffffffffffffffffffffffff1673ffffffffffffffffffffffffffffffffffffffff16815260200190815260200160002060006101000a81548160ff02191690831515021790555050505050565b816009826002811061222f57fe5b015410156122a5576040517f08c379a00000000000000000000000000000000000000000000000000000000081526004018080602001828103825260148152602001807f5769746864726177696e6720746f6f206d75636800000000000000000000000081525060200191505060405180910390fd5b6122c682600983600281106122b657fe5b0154611f7390919063ffffffff16565b600982600281106122d357fe5b01819055503373ffffffffffffffffffffffffffffffffffffffff166108fc839081150290604051600060405180830381858888f1935050505015801561231e573d6000803e3d6000fd5b5060006009826002811061232e57fe5b015414156123405761233f816123a4565b5b5050565b600080821161235257600080fd5b600082848161235d57fe5b0490508091505092915050565b60008083141561237d576000905061239e565b600082840290508284828161238e57fe5b041461239957600080fd5b809150505b92915050565b6000600260009054906101000a900473ffffffffffffffffffffffffffffffffffffffff1673ffffffffffffffffffffffffffffffffffffffff16636352211e836040518263ffffffff1660e01b81526004018082815260200191505060206040518083038186803b15801561241957600080fd5b505afa15801561242d573d6000803e3d6000fd5b505050506040513d602081101561244357600080fd5b810190808051906020019092919050505090506124638130600085611fb2565b60006013836002811061247257fe5b602091828204019190066101000a81548160ff0219169083600181111561249557fe5b02179055506000600583600281106124a957fe5b01819055508073ffffffffffffffffffffffffffffffffffffffff167f6d6bbefef62d4cb6d0e3a4dd306a71d3632319b1e03659513df86b247dd657fe60405160405180910390a2505056fe5072696365206d75737420626520686967686572207468616e2063757272656e74207072696365a265627a7a72315820b39e8543c6c2d6dfb7ab38505efbbd648c72bc75e1bcfb474743e0f81874d6ef64736f6c634300050c0032",
  "source": "pragma solidity ^0.5.0;\nimport \"./interfaces/IERC721Full.sol\";\nimport \"./utils/SafeMath.sol\";\n\ninterface IMarket \n{\n    function getWinningPayoutNumerator(uint256 _outcome) external view returns (uint256);\n}\n\ninterface ShareToken \n\n{\n    function publicBuyCompleteSets(IMarket _market, uint256 _amount) external returns (bool)  ;\n    function publicSellCompleteSets(IMarket _market, uint256 _amount) external returns (uint256 _creatorFee, uint256 _reportingFee) ;\n}\n\ninterface Cash \n{\n    function approve(address _spender, uint256 _amount) external returns (bool);\n    function balanceOf(address _owner) external view returns (uint256);\n    function faucet(uint256 _amount) external;\n    function transfer(address _to, uint256 _amount) external returns (bool);\n    function transferFrom(address _from, address _to, uint256 _amount) external returns (bool);\n}\n\ncontract Harber {\n    \n    using SafeMath for uint256;\n    uint256 public constant version = 22;\n\n    uint256 constant numberOfOutcomes = 2; //TEST with two teams\n    uint256[numberOfOutcomes] public price; //in wei\n    IERC721Full public team; // ERC721 NFT.\n    \n    //Augur contracts\n    Cash public cash;\n    \n    uint256 public totalCollected; // total into my whiskey fund\n    uint256[numberOfOutcomes] public currentCollected; // amount currently collected for owner  \n    uint256[numberOfOutcomes] public timeLastCollected; // \n    uint256[numberOfOutcomes] public deposit;\n    address payable public andrewsAddress;\n    uint256 public augurFund;\n    \n    mapping (uint256 => mapping (address => bool) ) public owners;\n    mapping (uint256 => mapping (address => uint256) ) public timeHeld;\n    mapping (uint256 => mapping (address => uint256) ) public userDeposits;\n    mapping (address => uint256) public testDaiBalances;\n\n    uint256[numberOfOutcomes] public timeAcquired;\n\n    enum ownedState { Foreclosed, Owned }\n    ownedState[numberOfOutcomes] public state;\n\n    constructor(address payable _andrewsAddress, address _addressOfToken, address _addressOfCashContract) public {\n        team = IERC721Full(_addressOfToken);\n        team.setup();\n        andrewsAddress = _andrewsAddress;\n        state[0] = ownedState.Foreclosed;\n        state[1] = ownedState.Foreclosed;\n\n        //Augur specific:\n        cash = Cash(_addressOfCashContract);\n    } \n\n    event LogBuy(address indexed owner, uint256 indexed price);\n    event LogPriceChange(uint256 indexed newPrice);\n    event LogForeclosure(address indexed prevOwner);\n    event LogCollection(uint256 indexed collected);\n    \n    modifier onlyOwner(uint256 _tokenId) {\n        require(msg.sender == team.ownerOf(_tokenId), \"Not owner\");\n        _;\n    }\n\n    modifier collectAugurFunds(uint256 _tokenId) {\n       _collectAugurFunds(_tokenId); \n       _;\n    }\n\n    /* public view functions */\n    // function getTimeHeld(uint256 _tokenId, address _adress) public view returns (uint256)\n    // {\n    //     return timeHeld[_tokenId][_address];\n    // }\n\n    function getVersion() public pure returns(uint256)\n    {\n        return (version);\n    }\n\n    function getTestDai() public \n    {\n        ////comment out the below line when using local testing\n        cash.faucet(100000000000000000000);\n        testDaiBalances[msg.sender]= testDaiBalances[msg.sender] + 100000000000000000000;\n    }\n\n    // function getTestDaiDelegate() public \n    // {\n    //     address(cash).delegatecall(abi.encodeWithSignature(\"faucet(uint256)\",97000000000000000000));\n    // }\n\n    function getTestDaiBalance() public view returns (uint)\n    {\n        ////below line = my original plan of actually sending the user dai \n        // return(cash.balanceOf(msg.sender));\n\n        ////im now keeping their dai in this contract\n        return(testDaiBalances[msg.sender]);\n    }\n\n    // function transferDaiToContract() public returns (uint)\n    // {\n    //     // string memory _callValue = \"transfer\"+ address(this) + \")\";\n    //     // address(cash).delegatecall(bytes4(keccak256(\"transfer(address,uint256)\")),address(this),100000000000000000000);\n    //     address(cash).delegatecall(abi.encodeWithSignature(\"transfer(address,uint256)\",address(this),123));\n    // }\n\n    // function approve1() public\n    // {\n    //     cash.approve(address(this),(2**256)-1);\n    //     // cash.approve(0xe2020A4a6B0a5D6C74c358e09B2b4758b5Cdb91C,(2**256)-1);\n    // }\n\n    // function approve2() public\n    // {\n    //     // cash.approve(address(this),(2**256)-1);\n    //     cash.approve(0xe2020A4a6B0a5D6C74c358e09B2b4758b5Cdb91C,(2**256)-1);\n    // }\n\n    function getPrice(uint256 _tokenId) public view returns (uint256)\n    {\n        return price[_tokenId];\n    }\n    \n    function getUserDepositBalance(uint256 _tokenId) public view returns (uint256)\n    {\n        return userDeposits[_tokenId][msg.sender];\n    }\n    function augurFundsOwed(uint256 _tokenId) public view returns (uint256 augurFundsDue) {\n        return price[_tokenId].mul(now.sub(timeLastCollected[_tokenId])).div(365 days);\n    }\n\n    function augurFundsOwedWithTimestamp(uint256 _tokenId) public view returns (uint256 augurFundsDue, uint256 timestamp) {\n        return (augurFundsOwed(_tokenId), now);\n    }\n\n    function foreclosed(uint256 _tokenId) public view returns (bool) {\n        // returns whether it is in foreclosed state or not\n        // depending on whether deposit covers patronage due\n        // useful helper function when price should be zero, but contract doesn't reflect it yet.\n        uint256 _collection = augurFundsOwed(_tokenId);\n        if(_collection >= deposit[_tokenId]) {\n            return true;\n        } else {\n            return false;\n        }\n    }\n\n    // same function as above, basically\n    function depositAbleToWithdraw(uint256 _tokenId) public view returns (uint256) {\n        uint256 _collection = augurFundsOwed(_tokenId);\n        if(_collection >= deposit[_tokenId]) {\n            return 0;\n        } else {\n            return deposit[_tokenId].sub(_collection);\n        }\n    }\n\n    function userDepositAbleToWithdraw(uint256 _tokenId) public view returns (uint256) {\n        uint256 _collection = augurFundsOwed(_tokenId);\n        address _currentOwner = team.ownerOf(_tokenId);\n\n        if(_currentOwner == msg.sender)\n        {\n            if(_collection >= deposit[_tokenId]) \n        {\n            return 0;\n        } else {\n            return userDeposits[_tokenId][msg.sender].sub(_collection);\n        }\n        } else {\n            return userDeposits[_tokenId][msg.sender];\n        }\n    }\n\n    /*\n    now + deposit/patronage per second \n    now + depositAbleToWithdraw/(price*nume/denom/365).\n    */\n    function foreclosureTime(uint256 _tokenId) public view returns (uint256) {\n        // patronage per second\n        uint256 pps = price[_tokenId].div(365 days);\n        return now + depositAbleToWithdraw(_tokenId).div(pps); // zero division if price is zero.\n        // return pps;\n    }\n\n    /* actions */\n    function _collectAugurFunds(uint256 _tokenId) public {\n        // determine patronage to pay\n        // if (state[_tokenId] == ownedState.Owned) {\n        //     uint256 _collection = augurFundsOwed(_tokenId);\n            \n        //     // should foreclose and stake stewardship\n        //     if (_collection >= deposit[_tokenId]) {\n        //         // up to when was it actually paid for?\n        //         timeLastCollected[_tokenId] = timeLastCollected[_tokenId].add(((now.sub(timeLastCollected[_tokenId])).mul(deposit[_tokenId]).div(_collection)));\n        //         _collection = deposit[_tokenId]; // take what's left.\n\n        //         _foreclose(_tokenId);\n        //     } else  {\n        //         // just a normal collection\n        //         timeLastCollected[_tokenId] = now;\n        //         currentCollected[_tokenId] = currentCollected[_tokenId].add(_collection);\n        //     }\n            \n        //     deposit[_tokenId] = deposit[_tokenId].sub(_collection);\n        //     userDeposits[_tokenId][msg.sender] = userDeposits[_tokenId][msg.sender].sub(_collection);\n        //     totalCollected = totalCollected.add(_collection);\n        //     augurFund = augurFund.add(_collection);\n        //     emit LogCollection(_collection);\n        // }\n    }\n    \n    // note: anyone can deposit\n    function depositWei(uint256 _tokenId) public payable collectAugurFunds(_tokenId) {\n        require(state[_tokenId] != ownedState.Foreclosed, \"Foreclosed\");\n        deposit[_tokenId] = deposit[_tokenId].add(msg.value);\n    }\n    \n    //this function has been modified from the original so that you no longer pay the current owner back the price that they set. Therefore, your entire msg.value becomes your deposit\n    function buy(uint256 _newPrice, uint256 _tokenId, uint256 _deposit) public collectAugurFunds(_tokenId) {\n        require(_newPrice > price[_tokenId], \"Price must be higher than current price\");\n        require(_deposit > 0, \"Must deposit something\");\n        require(testDaiBalances[msg.sender] >= _deposit, \"Not enough DAI\");\n\n        // approve();\n        // cash.transferFrom(msg.sender,address(this),_deposit);\n\n        testDaiBalances[msg.sender] = testDaiBalances[msg.sender].sub(_deposit);\n        userDeposits[_tokenId][msg.sender] = userDeposits[_tokenId][msg.sender].add(_deposit);\n        price[_tokenId] = _newPrice;\n\n        address _currentOwner = team.ownerOf(_tokenId);\n\n        if(_currentOwner == msg.sender)\n        {\n            deposit[_tokenId] = deposit[_tokenId].add(_deposit);\n        }\n        else\n        {\n            deposit[_tokenId] = _deposit;\n            transferTokenTo(_currentOwner, msg.sender, _newPrice, _tokenId);\n        }\n\n        if(state[_tokenId] == ownedState.Foreclosed) \n        {\n            state[_tokenId] = ownedState.Owned;\n            timeLastCollected[_tokenId] = now;\n        }\n        \n        emit LogBuy(msg.sender, _newPrice);\n    }\n\n    function changePrice(uint256 _newPrice, uint256 _tokenId) public onlyOwner(_tokenId) collectAugurFunds(_tokenId) {\n        require(state[_tokenId] != ownedState.Foreclosed, \"Foreclosed\");\n        require(_newPrice != 0, \"Incorrect Price\");\n        \n        price[_tokenId] = _newPrice;\n        emit LogPriceChange(price[_tokenId]);\n    }\n    \n    function withdrawDeposit(uint256 _wei, uint256 _tokenId) public onlyOwner(_tokenId) collectAugurFunds(_tokenId) returns (uint256) {\n        _withdrawDeposit(_wei, _tokenId);\n    }\n\n    function withdrawAugurFunds() public {\n        require(msg.sender == andrewsAddress, \"Not andrew\");\n        andrewsAddress.transfer(augurFund);\n        augurFund = 0;\n    }\n\n    function exit(uint256 _tokenId) public onlyOwner(_tokenId) collectAugurFunds(_tokenId) {\n        _withdrawDeposit(deposit[_tokenId],  _tokenId);\n    }\n\n    /* internal */\n\n    function _withdrawDeposit(uint256 _wei, uint256 _tokenId) internal {\n        // note: can withdraw whole deposit, which puts it in immediate to be foreclosed state.\n        require(deposit[_tokenId] >= _wei, 'Withdrawing too much');\n\n        deposit[_tokenId] = deposit[_tokenId].sub(_wei);\n        msg.sender.transfer(_wei); // msg.sender == patron\n\n        if(deposit[_tokenId] == 0) {\n            _foreclose(_tokenId);\n        }\n    }\n\n    function _foreclose(uint256 _tokenId) internal {\n        // become steward of artwork (aka foreclose)\n        address _currentOwner = team.ownerOf(_tokenId);\n        //final field is price, ie price goes to zero\n        transferTokenTo(_currentOwner, address(this), 0, _tokenId);\n        state[_tokenId] = ownedState.Foreclosed;\n        currentCollected[_tokenId] = 0;\n\n        emit LogForeclosure(_currentOwner);\n    }\n\n    function transferTokenTo(address _currentOwner, address _newOwner, uint256 _newPrice, uint256 _tokenId) internal {\n        // note: it would also tabulate time held in stewardship by smart contract\n        timeHeld[_tokenId][_currentOwner] = timeHeld[_tokenId][_currentOwner].add((timeLastCollected[_tokenId].sub(timeAcquired[_tokenId])));\n        \n        team.transferFrom(_currentOwner, _newOwner, _tokenId);\n\n        price[_tokenId] = _newPrice;\n        timeAcquired[_tokenId] = now;\n        owners[_tokenId][_newOwner] = true;\n    }\n}",
  "sourcePath": "/Users/mcplums/Repos/Harber/contracts/Harber.sol",
  "compiler": {
    "name": "solc",
    "version": "0.5.12+commit.7709ece9.Emscripten.clang"
  },
  "schemaVersion": "3.0.19",
  "updatedAt": "2019-12-06T03:42:22.329Z",
  "networkType": "ethereum",
  "devdoc": {
    "methods": {}
  },
  "userdoc": {
    "methods": {}
  }
}