{
  "contractName": "Harber",
  "abi": [
    {
      "inputs": [
        {
          "internalType": "address",
          "name": "_andrewsAddress",
          "type": "address"
        },
        {
          "internalType": "address",
          "name": "_addressOfToken",
          "type": "address"
        },
        {
          "internalType": "address",
          "name": "_addressOfCashContract",
          "type": "address"
        },
        {
          "internalType": "address[20]",
          "name": "_addressesOfMarkets",
          "type": "address[20]"
        },
        {
          "internalType": "address",
          "name": "_addressOfOICashContract",
          "type": "address"
        },
        {
          "internalType": "address",
          "name": "_addressOfMainAugurContract",
          "type": "address"
        },
        {
          "internalType": "uint256",
          "name": "_marketExpectedResolutionTime",
          "type": "uint256"
        }
      ],
      "payable": false,
      "stateMutability": "nonpayable",
      "type": "constructor"
    },
    {
      "anonymous": false,
      "inputs": [
        {
          "indexed": true,
          "internalType": "uint256",
          "name": "additionsToWhiskeyFund",
          "type": "uint256"
        }
      ],
      "name": "LogAndrewPaid",
      "type": "event"
    },
    {
      "anonymous": false,
      "inputs": [
        {
          "indexed": true,
          "internalType": "uint256",
          "name": "daiDeposited",
          "type": "uint256"
        },
        {
          "indexed": true,
          "internalType": "uint256",
          "name": "tokenId",
          "type": "uint256"
        },
        {
          "indexed": true,
          "internalType": "address",
          "name": "sentBy",
          "type": "address"
        }
      ],
      "name": "LogDepositIncreased",
      "type": "event"
    },
    {
      "anonymous": false,
      "inputs": [
        {
          "indexed": true,
          "internalType": "uint256",
          "name": "daiWithdrawn",
          "type": "uint256"
        },
        {
          "indexed": true,
          "internalType": "uint256",
          "name": "tokenId",
          "type": "uint256"
        },
        {
          "indexed": true,
          "internalType": "address",
          "name": "returnedTo",
          "type": "address"
        }
      ],
      "name": "LogDepositWithdrawal",
      "type": "event"
    },
    {
      "anonymous": false,
      "inputs": [
        {
          "indexed": true,
          "internalType": "uint256",
          "name": "tokenId",
          "type": "uint256"
        }
      ],
      "name": "LogExit",
      "type": "event"
    },
    {
      "anonymous": false,
      "inputs": [
        {
          "indexed": true,
          "internalType": "address",
          "name": "prevOwner",
          "type": "address"
        },
        {
          "indexed": true,
          "internalType": "uint256",
          "name": "tokenId",
          "type": "uint256"
        }
      ],
      "name": "LogForeclosure",
      "type": "event"
    },
    {
      "anonymous": false,
      "inputs": [
        {
          "indexed": true,
          "internalType": "address",
          "name": "newOwner",
          "type": "address"
        },
        {
          "indexed": true,
          "internalType": "uint256",
          "name": "newPrice",
          "type": "uint256"
        },
        {
          "indexed": true,
          "internalType": "uint256",
          "name": "tokenId",
          "type": "uint256"
        }
      ],
      "name": "LogNewRental",
      "type": "event"
    },
    {
      "anonymous": false,
      "inputs": [
        {
          "indexed": true,
          "internalType": "uint256",
          "name": "newPrice",
          "type": "uint256"
        },
        {
          "indexed": true,
          "internalType": "uint256",
          "name": "tokenId",
          "type": "uint256"
        }
      ],
      "name": "LogPriceChange",
      "type": "event"
    },
    {
      "anonymous": false,
      "inputs": [
        {
          "indexed": true,
          "internalType": "uint256",
          "name": "rentCollected",
          "type": "uint256"
        },
        {
          "indexed": true,
          "internalType": "uint256",
          "name": "tokenId",
          "type": "uint256"
        }
      ],
      "name": "LogRentCollection",
      "type": "event"
    },
    {
      "anonymous": false,
      "inputs": [
        {
          "indexed": true,
          "internalType": "address",
          "name": "returnedTo",
          "type": "address"
        },
        {
          "indexed": true,
          "internalType": "uint256",
          "name": "amountReturned",
          "type": "uint256"
        }
      ],
      "name": "LogRentReturned",
      "type": "event"
    },
    {
      "anonymous": false,
      "inputs": [
        {
          "indexed": true,
          "internalType": "uint256",
          "name": "tokenId",
          "type": "uint256"
        },
        {
          "indexed": true,
          "internalType": "address",
          "name": "previousOwner",
          "type": "address"
        }
      ],
      "name": "LogReturnToPreviousOwner",
      "type": "event"
    },
    {
      "anonymous": false,
      "inputs": [
        {
          "indexed": true,
          "internalType": "bool",
          "name": "didAugurMarketsResolve",
          "type": "bool"
        },
        {
          "indexed": true,
          "internalType": "uint256",
          "name": "winningOutcome",
          "type": "uint256"
        },
        {
          "indexed": true,
          "internalType": "bool",
          "name": "didAugurMarketsResolveCorrectly",
          "type": "bool"
        }
      ],
      "name": "LogStep1Complete",
      "type": "event"
    },
    {
      "anonymous": false,
      "inputs": [
        {
          "indexed": true,
          "internalType": "uint256",
          "name": "daiAvailableToDistribute",
          "type": "uint256"
        }
      ],
      "name": "LogStep2Complete",
      "type": "event"
    },
    {
      "anonymous": false,
      "inputs": [
        {
          "indexed": true,
          "internalType": "address",
          "name": "paidTo",
          "type": "address"
        },
        {
          "indexed": true,
          "internalType": "uint256",
          "name": "amountPaid",
          "type": "uint256"
        }
      ],
      "name": "LogWinningsPaid",
      "type": "event"
    },
    {
      "constant": true,
      "inputs": [],
      "name": "augur",
      "outputs": [
        {
          "internalType": "contract OICash",
          "name": "",
          "type": "address"
        }
      ],
      "payable": false,
      "stateMutability": "view",
      "type": "function"
    },
    {
      "constant": true,
      "inputs": [],
      "name": "cash",
      "outputs": [
        {
          "internalType": "contract Cash",
          "name": "",
          "type": "address"
        }
      ],
      "payable": false,
      "stateMutability": "view",
      "type": "function"
    },
    {
      "constant": true,
      "inputs": [
        {
          "internalType": "address",
          "name": "",
          "type": "address"
        }
      ],
      "name": "collectedPerUser",
      "outputs": [
        {
          "internalType": "uint256",
          "name": "",
          "type": "uint256"
        }
      ],
      "payable": false,
      "stateMutability": "view",
      "type": "function"
    },
    {
      "constant": true,
      "inputs": [
        {
          "internalType": "uint256",
          "name": "",
          "type": "uint256"
        }
      ],
      "name": "currentOwnerIndex",
      "outputs": [
        {
          "internalType": "uint256",
          "name": "",
          "type": "uint256"
        }
      ],
      "payable": false,
      "stateMutability": "view",
      "type": "function"
    },
    {
      "constant": true,
      "inputs": [],
      "name": "daiAvailableToDistribute",
      "outputs": [
        {
          "internalType": "uint256",
          "name": "",
          "type": "uint256"
        }
      ],
      "payable": false,
      "stateMutability": "view",
      "type": "function"
    },
    {
      "constant": true,
      "inputs": [
        {
          "internalType": "uint256",
          "name": "",
          "type": "uint256"
        },
        {
          "internalType": "address",
          "name": "",
          "type": "address"
        }
      ],
      "name": "deposits",
      "outputs": [
        {
          "internalType": "uint256",
          "name": "",
          "type": "uint256"
        }
      ],
      "payable": false,
      "stateMutability": "view",
      "type": "function"
    },
    {
      "constant": true,
      "inputs": [
        {
          "internalType": "uint256",
          "name": "",
          "type": "uint256"
        }
      ],
      "name": "market",
      "outputs": [
        {
          "internalType": "contract IMarket",
          "name": "",
          "type": "address"
        }
      ],
      "payable": false,
      "stateMutability": "view",
      "type": "function"
    },
    {
      "constant": true,
      "inputs": [
        {
          "internalType": "uint256",
          "name": "",
          "type": "uint256"
        }
      ],
      "name": "marketAddresses",
      "outputs": [
        {
          "internalType": "address",
          "name": "",
          "type": "address"
        }
      ],
      "payable": false,
      "stateMutability": "view",
      "type": "function"
    },
    {
      "constant": true,
      "inputs": [],
      "name": "marketExpectedResolutionTime",
      "outputs": [
        {
          "internalType": "uint256",
          "name": "",
          "type": "uint256"
        }
      ],
      "payable": false,
      "stateMutability": "view",
      "type": "function"
    },
    {
      "constant": true,
      "inputs": [],
      "name": "marketsResolved",
      "outputs": [
        {
          "internalType": "bool",
          "name": "",
          "type": "bool"
        }
      ],
      "payable": false,
      "stateMutability": "view",
      "type": "function"
    },
    {
      "constant": true,
      "inputs": [],
      "name": "marketsResolvedWithoutErrors",
      "outputs": [
        {
          "internalType": "bool",
          "name": "",
          "type": "bool"
        }
      ],
      "payable": false,
      "stateMutability": "view",
      "type": "function"
    },
    {
      "constant": true,
      "inputs": [],
      "name": "numberOfTokens",
      "outputs": [
        {
          "internalType": "uint256",
          "name": "",
          "type": "uint256"
        }
      ],
      "payable": false,
      "stateMutability": "view",
      "type": "function"
    },
    {
      "constant": true,
      "inputs": [
        {
          "internalType": "uint256",
          "name": "",
          "type": "uint256"
        },
        {
          "internalType": "uint256",
          "name": "",
          "type": "uint256"
        }
      ],
      "name": "ownerTracker",
      "outputs": [
        {
          "internalType": "address",
          "name": "owner",
          "type": "address"
        },
        {
          "internalType": "uint256",
          "name": "price",
          "type": "uint256"
        }
      ],
      "payable": false,
      "stateMutability": "view",
      "type": "function"
    },
    {
      "constant": true,
      "inputs": [
        {
          "internalType": "uint256",
          "name": "",
          "type": "uint256"
        }
      ],
      "name": "price",
      "outputs": [
        {
          "internalType": "uint256",
          "name": "",
          "type": "uint256"
        }
      ],
      "payable": false,
      "stateMutability": "view",
      "type": "function"
    },
    {
      "constant": true,
      "inputs": [],
      "name": "step2Complete",
      "outputs": [
        {
          "internalType": "bool",
          "name": "",
          "type": "bool"
        }
      ],
      "payable": false,
      "stateMutability": "view",
      "type": "function"
    },
    {
      "constant": true,
      "inputs": [],
      "name": "step3Complete",
      "outputs": [
        {
          "internalType": "bool",
          "name": "",
          "type": "bool"
        }
      ],
      "payable": false,
      "stateMutability": "view",
      "type": "function"
    },
    {
      "constant": true,
      "inputs": [
        {
          "internalType": "uint256",
          "name": "",
          "type": "uint256"
        }
      ],
      "name": "timeAcquired",
      "outputs": [
        {
          "internalType": "uint256",
          "name": "",
          "type": "uint256"
        }
      ],
      "payable": false,
      "stateMutability": "view",
      "type": "function"
    },
    {
      "constant": true,
      "inputs": [
        {
          "internalType": "uint256",
          "name": "",
          "type": "uint256"
        },
        {
          "internalType": "address",
          "name": "",
          "type": "address"
        }
      ],
      "name": "timeHeld",
      "outputs": [
        {
          "internalType": "uint256",
          "name": "",
          "type": "uint256"
        }
      ],
      "payable": false,
      "stateMutability": "view",
      "type": "function"
    },
    {
      "constant": true,
      "inputs": [
        {
          "internalType": "uint256",
          "name": "",
          "type": "uint256"
        }
      ],
      "name": "timeLastCollected",
      "outputs": [
        {
          "internalType": "uint256",
          "name": "",
          "type": "uint256"
        }
      ],
      "payable": false,
      "stateMutability": "view",
      "type": "function"
    },
    {
      "constant": true,
      "inputs": [],
      "name": "token",
      "outputs": [
        {
          "internalType": "contract IERC721Full",
          "name": "",
          "type": "address"
        }
      ],
      "payable": false,
      "stateMutability": "view",
      "type": "function"
    },
    {
      "constant": true,
      "inputs": [],
      "name": "totalCollected",
      "outputs": [
        {
          "internalType": "uint256",
          "name": "",
          "type": "uint256"
        }
      ],
      "payable": false,
      "stateMutability": "view",
      "type": "function"
    },
    {
      "constant": true,
      "inputs": [
        {
          "internalType": "uint256",
          "name": "",
          "type": "uint256"
        }
      ],
      "name": "totalTimeHeld",
      "outputs": [
        {
          "internalType": "uint256",
          "name": "",
          "type": "uint256"
        }
      ],
      "payable": false,
      "stateMutability": "view",
      "type": "function"
    },
    {
      "constant": true,
      "inputs": [],
      "name": "winningOutcome",
      "outputs": [
        {
          "internalType": "uint256",
          "name": "",
          "type": "uint256"
        }
      ],
      "payable": false,
      "stateMutability": "view",
      "type": "function"
    },
    {
      "constant": true,
      "inputs": [
        {
          "internalType": "uint256",
          "name": "_tokenId",
          "type": "uint256"
        }
      ],
      "name": "rentOwed",
      "outputs": [
        {
          "internalType": "uint256",
          "name": "augurFundsDue",
          "type": "uint256"
        }
      ],
      "payable": false,
      "stateMutability": "view",
      "type": "function"
    },
    {
      "constant": true,
      "inputs": [
        {
          "internalType": "uint256",
          "name": "_tokenId",
          "type": "uint256"
        },
        {
          "internalType": "uint256",
          "name": "_index",
          "type": "uint256"
        }
      ],
      "name": "getOwnerTrackerPrice",
      "outputs": [
        {
          "internalType": "uint256",
          "name": "",
          "type": "uint256"
        }
      ],
      "payable": false,
      "stateMutability": "view",
      "type": "function"
    },
    {
      "constant": true,
      "inputs": [
        {
          "internalType": "uint256",
          "name": "_tokenId",
          "type": "uint256"
        },
        {
          "internalType": "uint256",
          "name": "_index",
          "type": "uint256"
        }
      ],
      "name": "getOwnerTrackerAddress",
      "outputs": [
        {
          "internalType": "address",
          "name": "",
          "type": "address"
        }
      ],
      "payable": false,
      "stateMutability": "view",
      "type": "function"
    },
    {
      "constant": true,
      "inputs": [
        {
          "internalType": "uint256",
          "name": "_tokenId",
          "type": "uint256"
        }
      ],
      "name": "liveDepositAbleToWithdraw",
      "outputs": [
        {
          "internalType": "uint256",
          "name": "",
          "type": "uint256"
        }
      ],
      "payable": false,
      "stateMutability": "view",
      "type": "function"
    },
    {
      "constant": true,
      "inputs": [
        {
          "internalType": "uint256",
          "name": "_tokenId",
          "type": "uint256"
        }
      ],
      "name": "userDepositAbleToWithdraw",
      "outputs": [
        {
          "internalType": "uint256",
          "name": "",
          "type": "uint256"
        }
      ],
      "payable": false,
      "stateMutability": "view",
      "type": "function"
    },
    {
      "constant": true,
      "inputs": [
        {
          "internalType": "uint256",
          "name": "_tokenId",
          "type": "uint256"
        }
      ],
      "name": "rentalExpiryTime",
      "outputs": [
        {
          "internalType": "uint256",
          "name": "",
          "type": "uint256"
        }
      ],
      "payable": false,
      "stateMutability": "view",
      "type": "function"
    },
    {
      "constant": false,
      "inputs": [],
      "name": "step1checkMarketsResolved",
      "outputs": [],
      "payable": false,
      "stateMutability": "nonpayable",
      "type": "function"
    },
    {
      "constant": false,
      "inputs": [],
      "name": "step1BemergencyExit",
      "outputs": [],
      "payable": false,
      "stateMutability": "nonpayable",
      "type": "function"
    },
    {
      "constant": false,
      "inputs": [],
      "name": "step1CcircuitBreaker",
      "outputs": [],
      "payable": false,
      "stateMutability": "nonpayable",
      "type": "function"
    },
    {
      "constant": false,
      "inputs": [],
      "name": "step2withdrawFromAugur",
      "outputs": [],
      "payable": false,
      "stateMutability": "nonpayable",
      "type": "function"
    },
    {
      "constant": false,
      "inputs": [],
      "name": "step3payAndrew",
      "outputs": [],
      "payable": false,
      "stateMutability": "nonpayable",
      "type": "function"
    },
    {
      "constant": false,
      "inputs": [],
      "name": "complete",
      "outputs": [],
      "payable": false,
      "stateMutability": "nonpayable",
      "type": "function"
    },
    {
      "constant": false,
      "inputs": [],
      "name": "withdrawDepositAfterResolution",
      "outputs": [],
      "payable": false,
      "stateMutability": "nonpayable",
      "type": "function"
    },
    {
      "constant": false,
      "inputs": [],
      "name": "collectRentAllTokens",
      "outputs": [],
      "payable": false,
      "stateMutability": "nonpayable",
      "type": "function"
    },
    {
      "constant": false,
      "inputs": [
        {
          "internalType": "uint256",
          "name": "_newPrice",
          "type": "uint256"
        },
        {
          "internalType": "uint256",
          "name": "_tokenId",
          "type": "uint256"
        },
        {
          "internalType": "uint256",
          "name": "_deposit",
          "type": "uint256"
        }
      ],
      "name": "newRental",
      "outputs": [],
      "payable": false,
      "stateMutability": "nonpayable",
      "type": "function"
    },
    {
      "constant": false,
      "inputs": [
        {
          "internalType": "uint256",
          "name": "_dai",
          "type": "uint256"
        },
        {
          "internalType": "uint256",
          "name": "_tokenId",
          "type": "uint256"
        }
      ],
      "name": "depositDai",
      "outputs": [],
      "payable": false,
      "stateMutability": "nonpayable",
      "type": "function"
    },
    {
      "constant": false,
      "inputs": [
        {
          "internalType": "uint256",
          "name": "_newPrice",
          "type": "uint256"
        },
        {
          "internalType": "uint256",
          "name": "_tokenId",
          "type": "uint256"
        }
      ],
      "name": "changePrice",
      "outputs": [],
      "payable": false,
      "stateMutability": "nonpayable",
      "type": "function"
    },
    {
      "constant": false,
      "inputs": [
        {
          "internalType": "uint256",
          "name": "_dai",
          "type": "uint256"
        },
        {
          "internalType": "uint256",
          "name": "_tokenId",
          "type": "uint256"
        }
      ],
      "name": "withdrawDeposit",
      "outputs": [
        {
          "internalType": "uint256",
          "name": "",
          "type": "uint256"
        }
      ],
      "payable": false,
      "stateMutability": "nonpayable",
      "type": "function"
    },
    {
      "constant": false,
      "inputs": [
        {
          "internalType": "uint256",
          "name": "_tokenId",
          "type": "uint256"
        }
      ],
      "name": "exit",
      "outputs": [],
      "payable": false,
      "stateMutability": "nonpayable",
      "type": "function"
    }
  ],
  "bytecode": "0x608060405261a455607d556000607f60006101000a81548160ff0219169083151502179055506000607f60016101000a81548160ff0219169083151502179055506000607f60026101000a81548160ff0219169083151502179055506000607f60036101000a81548160ff0219169083151502179055503480156200008357600080fd5b5060405162005255380380620052558339818101604052610340811015620000aa57600080fd5b810190808051906020019092919080519060200190929190805190602001909291909190826102800180519060200190929190805190602001909291908051906020019092919050505080607e8190555086601760006101000a81548173ffffffffffffffffffffffffffffffffffffffff021916908373ffffffffffffffffffffffffffffffffffffffff1602179055508360189060146200014f929190620003c3565b50856000806101000a81548173ffffffffffffffffffffffffffffffffffffffff021916908373ffffffffffffffffffffffffffffffffffffffff16021790555084601660006101000a81548173ffffffffffffffffffffffffffffffffffffffff021916908373ffffffffffffffffffffffffffffffffffffffff16021790555082601560006101000a81548173ffffffffffffffffffffffffffffffffffffffff021916908373ffffffffffffffffffffffffffffffffffffffff16021790555060008090505b6014811015620002a4576000606982601481106200023257fe5b01819055508481601481106200024457fe5b6020020151600182601481106200025757fe5b0160006101000a81548173ffffffffffffffffffffffffffffffffffffffff021916908373ffffffffffffffffffffffffffffffffffffffff160217905550808060010191505062000218565b50601660009054906101000a900473ffffffffffffffffffffffffffffffffffffffff1673ffffffffffffffffffffffffffffffffffffffff1663095ea7b3837fffffffffffffffffffffffffffffffffffffffffffffffffffffffffffffffff6040518363ffffffff1660e01b8152600401808373ffffffffffffffffffffffffffffffffffffffff1673ffffffffffffffffffffffffffffffffffffffff16815260200182815260200192505050602060405180830381600087803b1580156200036f57600080fd5b505af115801562000384573d6000803e3d6000fd5b505050506040513d60208110156200039b57600080fd5b8101908080519060200190929190505050620003b657600080fd5b505050505050506200048b565b826014810192821562000432579160200282015b82811115620004315782518260006101000a81548173ffffffffffffffffffffffffffffffffffffffff021916908373ffffffffffffffffffffffffffffffffffffffff16021790555091602001919060010190620003d7565b5b50905062000441919062000445565b5090565b6200048891905b808211156200048457600081816101000a81549073ffffffffffffffffffffffffffffffffffffffff0219169055506001016200044c565b5090565b90565b614dba806200049b6000396000f3fe608060405234801561001057600080fd5b506004361061025e5760003560e01c80638cb6889911610146578063bae04c9a116100c3578063f06197b711610087578063f06197b7146109e9578063f83c1f7f14610a35578063f88489c214610a3f578063f9f16ef214610abe578063fc0c546a14610adc578063fce0eb0214610b265761025e565b8063bae04c9a14610929578063db7569b914610975578063e29eb8361461097f578063e86260f11461099d578063f015e54e146109a75761025e565b8063a36252bf1161010a578063a36252bf14610891578063a871c024146108d3578063adfbe13c146108dd578063b3de019c146108e7578063b7e3cd631461091f5761025e565b80638cb6889914610751578063961be39114610793578063977f1b28146107dd57806397b4550a146107fb5780639b34ae03146108735761025e565b806353a58de1116101df57806373a5226f116101a357806373a5226f146106175780637a0d8f8a146106595780637c1bfa54146106a35780637f8661a1146106fb57806388be097b146107295780638c5e4264146107475761025e565b806353a58de1146104d75780635616fde9146105395780635b2ace641461055b5780635dfd7e9b1461059d57806370a23f75146105d55761025e565b8063350293a111610226578063350293a1146103d95780633f17e86f1461044757806343a7f4aa1461048957806348bdf8fe146104ab578063522e1177146104cd5761025e565b8063020becd014610263578063237b5e4f1461028557806326a49e37146102e757806328861d221461032957806332f2b04d14610397575b600080fd5b61026b610b68565b604051808215151515815260200191505060405180910390f35b6102d16004803603604081101561029b57600080fd5b8101908080359060200190929190803573ffffffffffffffffffffffffffffffffffffffff169060200190929190505050610b7b565b6040518082815260200191505060405180910390f35b610313600480360360208110156102fd57600080fd5b8101908080359060200190929190505050610ba0565b6040518082815260200191505060405180910390f35b6103556004803603602081101561033f57600080fd5b8101908080359060200190929190505050610bb8565b604051808273ffffffffffffffffffffffffffffffffffffffff1673ffffffffffffffffffffffffffffffffffffffff16815260200191505060405180910390f35b6103c3600480360360208110156103ad57600080fd5b8101908080359060200190929190505050610beb565b6040518082815260200191505060405180910390f35b610405600480360360208110156103ef57600080fd5b8101908080359060200190929190505050610d79565b604051808273ffffffffffffffffffffffffffffffffffffffff1673ffffffffffffffffffffffffffffffffffffffff16815260200191505060405180910390f35b6104876004803603606081101561045d57600080fd5b81019080803590602001909291908035906020019092919080359060200190929190505050610dac565b005b6104916112ad565b604051808215151515815260200191505060405180910390f35b6104b36112c0565b604051808215151515815260200191505060405180910390f35b6104d56112d3565b005b610523600480360360408110156104ed57600080fd5b8101908080359060200190929190803573ffffffffffffffffffffffffffffffffffffffff169060200190929190505050611389565b6040518082815260200191505060405180910390f35b6105416113ae565b604051808215151515815260200191505060405180910390f35b6105876004803603602081101561057157600080fd5b81019080803590602001909291905050506113c1565b6040518082815260200191505060405180910390f35b6105d3600480360360408110156105b357600080fd5b8101908080359060200190929190803590602001909291905050506113d9565b005b610601600480360360208110156105eb57600080fd5b8101908080359060200190929190505050611576565b6040518082815260200191505060405180910390f35b6106436004803603602081101561062d57600080fd5b81019080803590602001909291905050506115d5565b6040518082815260200191505060405180910390f35b6106616117f1565b604051808273ffffffffffffffffffffffffffffffffffffffff1673ffffffffffffffffffffffffffffffffffffffff16815260200191505060405180910390f35b6106e5600480360360208110156106b957600080fd5b81019080803573ffffffffffffffffffffffffffffffffffffffff169060200190929190505050611817565b6040518082815260200191505060405180910390f35b6107276004803603602081101561071157600080fd5b810190808035906020019092919050505061182f565b005b610731611a2a565b6040518082815260200191505060405180910390f35b61074f611a30565b005b61077d6004803603602081101561076757600080fd5b8101908080359060200190929190505050611bd8565b6040518082815260200191505060405180910390f35b61079b611bf0565b604051808273ffffffffffffffffffffffffffffffffffffffff1673ffffffffffffffffffffffffffffffffffffffff16815260200191505060405180910390f35b6107e5611c16565b6040518082815260200191505060405180910390f35b6108316004803603604081101561081157600080fd5b810190808035906020019092919080359060200190929190505050611c1c565b604051808273ffffffffffffffffffffffffffffffffffffffff1673ffffffffffffffffffffffffffffffffffffffff16815260200191505060405180910390f35b61087b611c6e565b6040518082815260200191505060405180910390f35b6108bd600480360360208110156108a757600080fd5b8101908080359060200190929190505050611c74565b6040518082815260200191505060405180910390f35b6108db611c8c565b005b6108e5611e39565b005b61091d600480360360408110156108fd57600080fd5b810190808035906020019092919080359060200190929190505050611eea565b005b6109276121c2565b005b61095f6004803603604081101561093f57600080fd5b810190808035906020019092919080359060200190929190505050612306565b6040518082815260200191505060405180910390f35b61097d612546565b005b6109876126df565b6040518082815260200191505060405180910390f35b6109a56126e5565b005b6109d3600480360360208110156109bd57600080fd5b81019080803590602001909291905050506128b9565b6040518082815260200191505060405180910390f35b610a1f600480360360408110156109ff57600080fd5b8101908080359060200190929190803590602001909291905050506128d1565b6040518082815260200191505060405180910390f35b610a3d612903565b005b610a7560048036036040811015610a5557600080fd5b810190808035906020019092919080359060200190929190505050612a99565b604051808373ffffffffffffffffffffffffffffffffffffffff1673ffffffffffffffffffffffffffffffffffffffff1681526020018281526020019250505060405180910390f35b610ac6612aea565b6040518082815260200191505060405180910390f35b610ae4612aef565b604051808273ffffffffffffffffffffffffffffffffffffffff1673ffffffffffffffffffffffffffffffffffffffff16815260200191505060405180910390f35b610b5260048036036020811015610b3c57600080fd5b8101908080359060200190929190505050612b14565b6040518082815260200191505060405180910390f35b607f60039054906101000a900460ff1681565b6082602052816000526040600020602052806000526040600020600091509150505481565b602c8160148110610bad57fe5b016000915090505481565b60018160148110610bc557fe5b016000915054906101000a900473ffffffffffffffffffffffffffffffffffffffff1681565b600080610bf783611576565b905060008060009054906101000a900473ffffffffffffffffffffffffffffffffffffffff1673ffffffffffffffffffffffffffffffffffffffff16636352211e856040518263ffffffff1660e01b81526004018082815260200191505060206040518083038186803b158015610c6d57600080fd5b505afa158015610c81573d6000803e3d6000fd5b505050506040513d6020811015610c9757600080fd5b810190808051906020019092919050505090506084600085815260200190815260200160002060008273ffffffffffffffffffffffffffffffffffffffff1673ffffffffffffffffffffffffffffffffffffffff168152602001908152602001600020548210610d0c57600092505050610d74565b610d6f826084600087815260200190815260200160002060008473ffffffffffffffffffffffffffffffffffffffff1673ffffffffffffffffffffffffffffffffffffffff16815260200190815260200160002054612b7590919063ffffffff16565b925050505b919050565b60188160148110610d8657fe5b016000915054906101000a900473ffffffffffffffffffffffffffffffffffffffff1681565b8160008110158015610dbe5750601481105b610e30576040517f08c379a00000000000000000000000000000000000000000000000000000000081526004018080602001828103825260198152602001807f5468697320746f6b656e20646f6573206e6f742065786973740000000000000081525060200191505060405180910390fd5b8160008111610ea7576040517f08c379a00000000000000000000000000000000000000000000000000000000081526004018080602001828103825260198152602001807f416d6f756e74206d7573742062652061626f7665207a65726f0000000000000081525060200191505060405180910390fd5b60001515607f60009054906101000a900460ff16151514610f30576040517f08c379a000000000000000000000000000000000000000000000000000000000815260040180806020018281038252601d8152602001807f4d61726b6574732068617665207265736f6c76656420616c726561647900000081525060200191505060405180910390fd5b602c8460148110610f3d57fe5b01548511610f96576040517f08c379a0000000000000000000000000000000000000000000000000000000008152600401808060200182810382526027815260200180614ce66027913960400191505060405180910390fd5b610f9f84612bbf565b60008060009054906101000a900473ffffffffffffffffffffffffffffffffffffffff1673ffffffffffffffffffffffffffffffffffffffff16636352211e866040518263ffffffff1660e01b81526004018082815260200191505060206040518083038186803b15801561101357600080fd5b505afa158015611027573d6000803e3d6000fd5b505050506040513d602081101561103d57600080fd5b810190808051906020019092919050505090503373ffffffffffffffffffffffffffffffffffffffff168173ffffffffffffffffffffffffffffffffffffffff16141561109d5761108e868661322c565b61109884866132b9565b6112a5565b611100846084600088815260200190815260200160002060003373ffffffffffffffffffffffffffffffffffffffff1673ffffffffffffffffffffffffffffffffffffffff168152602001908152602001600020546133c390919063ffffffff16565b6084600087815260200190815260200160002060003373ffffffffffffffffffffffffffffffffffffffff1673ffffffffffffffffffffffffffffffffffffffff1681526020019081526020016000208190555061117660016069876014811061116657fe5b01546133c390919063ffffffff16565b6069866014811061118357fe5b018190555085608160008781526020019081526020016000206000606988601481106111ab57fe5b015481526020019081526020016000206001018190555033608160008781526020019081526020016000206000606988601481106111e557fe5b0154815260200190815260200160002060000160006101000a81548173ffffffffffffffffffffffffffffffffffffffff021916908373ffffffffffffffffffffffffffffffffffffffff160217905550426055866014811061124457fe5b01819055506112558133888861344b565b61125f3385613634565b84863373ffffffffffffffffffffffffffffffffffffffff167ff31de299869a9c4bcad2bafc2e290031d2a7102799d817cb41b090e6a1dd6d4760405160405180910390a45b505050505050565b607f60029054906101000a900460ff1681565b607f60009054906101000a900460ff1681565b60011515607f60039054906101000a900460ff1615151461135c576040517f08c379a000000000000000000000000000000000000000000000000000000000815260040180806020018281038252601d8152602001807f5374657033206d75737420626520636f6d706c6574656420666972737400000081525060200191505060405180910390fd5b607f60019054906101000a900460ff161561137e576113796137c2565b611387565b611386613962565b5b565b6084602052816000526040600020602052806000526040600020600091509150505481565b607f60019054906101000a900460ff1681565b605581601481106113ce57fe5b016000915090505481565b8160008111611450576040517f08c379a00000000000000000000000000000000000000000000000000000000081526004018080602001828103825260198152602001807f416d6f756e74206d7573742062652061626f7665207a65726f0000000000000081525060200191505060405180910390fd5b81600081101580156114625750601481105b6114d4576040517f08c379a00000000000000000000000000000000000000000000000000000000081526004018080602001828103825260198152602001807f5468697320746f6b656e20646f6573206e6f742065786973740000000000000081525060200191505060405180910390fd5b60001515607f60009054906101000a900460ff1615151461155d576040517f08c379a000000000000000000000000000000000000000000000000000000000815260040180806020018281038252601d8152602001807f4d61726b6574732068617665207265736f6c76656420616c726561647900000081525060200191505060405180910390fd5b61156683612bbf565b61157084846132b9565b50505050565b60006115ce620151806115c06115a36041866014811061159257fe5b015442612b7590919063ffffffff16565b602c86601481106115b057fe5b0154613ac990919063ffffffff16565b613b4f90919063ffffffff16565b9050919050565b6000806115e183611576565b905060008060009054906101000a900473ffffffffffffffffffffffffffffffffffffffff1673ffffffffffffffffffffffffffffffffffffffff16636352211e856040518263ffffffff1660e01b81526004018082815260200191505060206040518083038186803b15801561165757600080fd5b505afa15801561166b573d6000803e3d6000fd5b505050506040513d602081101561168157600080fd5b810190808051906020019092919050505090503373ffffffffffffffffffffffffffffffffffffffff168173ffffffffffffffffffffffffffffffffffffffff161415611796576084600085815260200190815260200160002060003373ffffffffffffffffffffffffffffffffffffffff1673ffffffffffffffffffffffffffffffffffffffff16815260200190815260200160002054821061172a576000925050506117ec565b61178d826084600087815260200190815260200160002060003373ffffffffffffffffffffffffffffffffffffffff1673ffffffffffffffffffffffffffffffffffffffff16815260200190815260200160002054612b7590919063ffffffff16565b925050506117ec565b6084600085815260200190815260200160002060003373ffffffffffffffffffffffffffffffffffffffff1673ffffffffffffffffffffffffffffffffffffffff16815260200190815260200160002054925050505b919050565b601560009054906101000a900473ffffffffffffffffffffffffffffffffffffffff1681565b60856020528060005260406000206000915090505481565b80600081101580156118415750601481105b6118b3576040517f08c379a00000000000000000000000000000000000000000000000000000000081526004018080602001828103825260198152602001807f5468697320746f6b656e20646f6573206e6f742065786973740000000000000081525060200191505060405180910390fd5b60001515607f60009054906101000a900460ff1615151461193c576040517f08c379a000000000000000000000000000000000000000000000000000000000815260040180806020018281038252601d8152602001807f4d61726b6574732068617665207265736f6c76656420616c726561647900000081525060200191505060405180910390fd5b61194582612bbf565b60006084600084815260200190815260200160002060003373ffffffffffffffffffffffffffffffffffffffff1673ffffffffffffffffffffffffffffffffffffffff168152602001908152602001600020541115611a26576119f86084600084815260200190815260200160002060003373ffffffffffffffffffffffffffffffffffffffff1673ffffffffffffffffffffffffffffffffffffffff1681526020019081526020016000205483613b99565b817f49808a584bb421df5b5b1482fabe4038c32b38c798fc068b8e426274afd93d5260405160405180910390a25b5050565b60805481565b60001515607f60009054906101000a900460ff16151514611ab9576040517f08c379a00000000000000000000000000000000000000000000000000000000081526004018080602001828103825260208152602001807f53746570312063616e206f6e6c7920626520636f6d706c65746564206f6e636581525060200191505060405180910390fd5b601760009054906101000a900473ffffffffffffffffffffffffffffffffffffffff1673ffffffffffffffffffffffffffffffffffffffff163373ffffffffffffffffffffffffffffffffffffffff1614611b7c576040517f08c379a00000000000000000000000000000000000000000000000000000000081526004018080602001828103825260188152602001807f4f6e6c79206f776e65722063616e2063616c6c2074686973000000000000000081525060200191505060405180910390fd5b611b84611e39565b6001607f60006101000a81548160ff02191690831515021790555060001515607d54600015157f1c1ce68cd407797fe4c0aa5b5303690fd844cd21a365ebde52f1948080061f0b60405160405180910390a4565b60418160148110611be557fe5b016000915090505481565b601660009054906101000a900473ffffffffffffffffffffffffffffffffffffffff1681565b607e5481565b600060816000848152602001908152602001600020600083815260200190815260200160002060000160009054906101000a900473ffffffffffffffffffffffffffffffffffffffff16905092915050565b607d5481565b60836020528060005260406000206000915090505481565b60011515607f60009054906101000a900460ff16151514611d15576040517f08c379a000000000000000000000000000000000000000000000000000000000815260040180806020018281038252601d8152602001807f7374657031206d75737420626520636f6d706c6574656420666972737400000081525060200191505060405180910390fd5b60008090505b6014811015611e365760006084600083815260200190815260200160002060003373ffffffffffffffffffffffffffffffffffffffff1673ffffffffffffffffffffffffffffffffffffffff1681526020019081526020016000205490506000811115611e285760006084600084815260200190815260200160002060003373ffffffffffffffffffffffffffffffffffffffff1673ffffffffffffffffffffffffffffffffffffffff16815260200190815260200160002081905550611de23382613e70565b3373ffffffffffffffffffffffffffffffffffffffff1682827ff02d3ef90a5110daf1fc2ab511a90b5c3fc58591405de80c06dfff0fd6b42ea860405160405180910390a45b508080600101915050611d1b565b50565b60001515607f60009054906101000a900460ff16151514611ec2576040517f08c379a000000000000000000000000000000000000000000000000000000000815260040180806020018281038252601d8152602001807f4d61726b6574732068617665207265736f6c76656420616c726561647900000081525060200191505060405180910390fd5b60008090505b6014811015611ee757611eda81612bbf565b8080600101915050611ec8565b50565b8060008110158015611efc5750601481105b611f6e576040517f08c379a00000000000000000000000000000000000000000000000000000000081526004018080602001828103825260198152602001807f5468697320746f6b656e20646f6573206e6f742065786973740000000000000081525060200191505060405180910390fd5b60001515607f60009054906101000a900460ff16151514611ff7576040517f08c379a000000000000000000000000000000000000000000000000000000000815260040180806020018281038252601d8152602001807f4d61726b6574732068617665207265736f6c76656420616c726561647900000081525060200191505060405180910390fd5b602c826014811061200457fe5b0154831161205d576040517f08c379a000000000000000000000000000000000000000000000000000000000815260040180806020018281038252602b815260200180614c98602b913960400191505060405180910390fd5b6000809054906101000a900473ffffffffffffffffffffffffffffffffffffffff1673ffffffffffffffffffffffffffffffffffffffff16636352211e836040518263ffffffff1660e01b81526004018082815260200191505060206040518083038186803b1580156120cf57600080fd5b505afa1580156120e3573d6000803e3d6000fd5b505050506040513d60208110156120f957600080fd5b810190808051906020019092919050505073ffffffffffffffffffffffffffffffffffffffff163373ffffffffffffffffffffffffffffffffffffffff16146121aa576040517f08c379a00000000000000000000000000000000000000000000000000000000081526004018080602001828103825260098152602001807f4e6f74206f776e6572000000000000000000000000000000000000000000000081525060200191505060405180910390fd5b6121b382612bbf565b6121bd838361322c565b505050565b60001515607f60009054906101000a900460ff1615151461224b576040517f08c379a00000000000000000000000000000000000000000000000000000000081526004018080602001828103825260208152602001807f53746570312063616e206f6e6c7920626520636f6d706c65746564206f6e636581525060200191505060405180910390fd5b62f0c3f0607e540142116122aa576040517f08c379a0000000000000000000000000000000000000000000000000000000008152600401808060200182810382526023815260200180614cc36023913960400191505060405180910390fd5b6122b2611e39565b6001607f60006101000a81548160ff02191690831515021790555060001515607d54600015157f1c1ce68cd407797fe4c0aa5b5303690fd844cd21a365ebde52f1948080061f0b60405160405180910390a4565b6000826000811161237f576040517f08c379a00000000000000000000000000000000000000000000000000000000081526004018080602001828103825260198152602001807f416d6f756e74206d7573742062652061626f7665207a65726f0000000000000081525060200191505060405180910390fd5b82600081101580156123915750601481105b612403576040517f08c379a00000000000000000000000000000000000000000000000000000000081526004018080602001828103825260198152602001807f5468697320746f6b656e20646f6573206e6f742065786973740000000000000081525060200191505060405180910390fd5b60001515607f60009054906101000a900460ff1615151461248c576040517f08c379a000000000000000000000000000000000000000000000000000000000815260040180806020018281038252601d8152602001807f4d61726b6574732068617665207265736f6c76656420616c726561647900000081525060200191505060405180910390fd5b61249584612bbf565b60006084600086815260200190815260200160002060003373ffffffffffffffffffffffffffffffffffffffff1673ffffffffffffffffffffffffffffffffffffffff16815260200190815260200160002054111561253e576124f88585613b99565b3373ffffffffffffffffffffffffffffffffffffffff1684867ff02d3ef90a5110daf1fc2ab511a90b5c3fc58591405de80c06dfff0fd6b42ea860405160405180910390a45b505092915050565b60011515607f60009054906101000a900460ff161515146125cf576040517f08c379a000000000000000000000000000000000000000000000000000000000815260040180806020018281038252601f8152602001807f4d757374207761697420666f72206d61726b6574207265736f6c7574696f6e0081525060200191505060405180910390fd5b60001515607f60029054906101000a900460ff16151514612658576040517f08c379a000000000000000000000000000000000000000000000000000000000815260040180806020018281038252601d8152602001807f53746570322073686f756c64206f6e6c792062652072756e206f6e636500000081525060200191505060405180910390fd5b6001607f60026101000a81548160ff021916908315150217905550600061267d613fca565b90506126876140ab565b6000612691613fca565b90506126a68282612b7590919063ffffffff16565b6080819055506080547fcf0c6693686c601db90315849a77e9a46c6fc429ddd05b07db6182acd473900a60405160405180910390a25050565b60405481565b60011515607f60029054906101000a900460ff1615151461276e576040517f08c379a000000000000000000000000000000000000000000000000000000000815260040180806020018281038252601d8152602001807f5374657032206d75737420626520636f6d706c6574656420666972737400000081525060200191505060405180910390fd5b60001515607f60039054906101000a900460ff161515146127f7576040517f08c379a000000000000000000000000000000000000000000000000000000000815260040180806020018281038252601d8152602001807f53746570332073686f756c64206f6e6c792062652072756e206f6e636500000081525060200191505060405180910390fd5b6001607f60036101000a81548160ff021916908315150217905550607f60019054906101000a900460ff16156128b757600061283f6064608054613b4f90919063ffffffff16565b905061285681608054612b7590919063ffffffff16565b608081905550612888601760009054906101000a900473ffffffffffffffffffffffffffffffffffffffff1682613e70565b807f846e58bfb3da1283052b94d3cfbc874b876b9809b4f2e67d2b65d7ecae5ceef860405160405180910390a2505b565b606981601481106128c657fe5b016000915090505481565b600060816000848152602001908152602001600020600083815260200190815260200160002060010154905092915050565b60001515607f60009054906101000a900460ff1615151461298c576040517f08c379a00000000000000000000000000000000000000000000000000000000081526004018080602001828103825260208152602001807f53746570312063616e206f6e6c7920626520636f6d706c65746564206f6e636581525060200191505060405180910390fd5b6129946141d1565b612a06576040517f08c379a000000000000000000000000000000000000000000000000000000000815260040180806020018281038252601d8152602001807f4d61726b6574732068617665206e6f74207265736f6c7665642079657400000081525060200191505060405180910390fd5b612a0e611e39565b6001607f60006101000a81548160ff021916908315150217905550612a31614463565b15612a52576001607f60016101000a81548160ff0219169083151502179055505b607f60019054906101000a900460ff161515607d54600115157f1c1ce68cd407797fe4c0aa5b5303690fd844cd21a365ebde52f1948080061f0b60405160405180910390a4565b6081602052816000526040600020602052806000526040600020600091509150508060000160009054906101000a900473ffffffffffffffffffffffffffffffffffffffff16908060010154905082565b601481565b6000809054906101000a900473ffffffffffffffffffffffffffffffffffffffff1681565b600080612b3b62015180602c8560148110612b2b57fe5b0154613b4f90919063ffffffff16565b90506000811415612b4f5742915050612b70565b612b6a81612b5c85610beb565b613b4f90919063ffffffff16565b42019150505b919050565b6000612bb783836040518060400160405280601e81526020017f536166654d6174683a207375627472616374696f6e206f766572666c6f77000081525061465e565b905092915050565b60001515607f60009054906101000a900460ff16151514612c48576040517f08c379a000000000000000000000000000000000000000000000000000000000815260040180806020018281038252601d8152602001807f4d61726b6574732068617665207265736f6c76656420616c726561647900000081525060200191505060405180910390fd5b3073ffffffffffffffffffffffffffffffffffffffff166000809054906101000a900473ffffffffffffffffffffffffffffffffffffffff1673ffffffffffffffffffffffffffffffffffffffff16636352211e836040518263ffffffff1660e01b81526004018082815260200191505060206040518083038186803b158015612cd157600080fd5b505afa158015612ce5573d6000803e3d6000fd5b505050506040513d6020811015612cfb57600080fd5b810190808051906020019092919050505073ffffffffffffffffffffffffffffffffffffffff1614613216576000612d3282611576565b905060008060009054906101000a900473ffffffffffffffffffffffffffffffffffffffff1673ffffffffffffffffffffffffffffffffffffffff16636352211e846040518263ffffffff1660e01b81526004018082815260200191505060206040518083038186803b158015612da857600080fd5b505afa158015612dbc573d6000803e3d6000fd5b505050506040513d6020811015612dd257600080fd5b8101908080519060200190929190505050905060006084600085815260200190815260200160002060008373ffffffffffffffffffffffffffffffffffffffff1673ffffffffffffffffffffffffffffffffffffffff168152602001908152602001600020548310612f5657612ef3612ed684612ec86084600089815260200190815260200160002060008773ffffffffffffffffffffffffffffffffffffffff1673ffffffffffffffffffffffffffffffffffffffff16815260200190815260200160002054612eba60418a60148110612ea957fe5b015442612b7590919063ffffffff16565b613ac990919063ffffffff16565b613b4f90919063ffffffff16565b60418660148110612ee357fe5b01546133c390919063ffffffff16565b90506084600085815260200190815260200160002060008373ffffffffffffffffffffffffffffffffffffffff1673ffffffffffffffffffffffffffffffffffffffff168152602001908152602001600020549250612f518461471e565b612f5a565b4290505b612fbd836084600087815260200190815260200160002060008573ffffffffffffffffffffffffffffffffffffffff1673ffffffffffffffffffffffffffffffffffffffff16815260200190815260200160002054612b7590919063ffffffff16565b6084600086815260200190815260200160002060008473ffffffffffffffffffffffffffffffffffffffff1673ffffffffffffffffffffffffffffffffffffffff1681526020019081526020016000208190555060006130346041866014811061302357fe5b015483612b7590919063ffffffff16565b9050613099816082600088815260200190815260200160002060008673ffffffffffffffffffffffffffffffffffffffff1673ffffffffffffffffffffffffffffffffffffffff168152602001908152602001600020546133c390919063ffffffff16565b6082600087815260200190815260200160002060008573ffffffffffffffffffffffffffffffffffffffff1673ffffffffffffffffffffffffffffffffffffffff168152602001908152602001600020819055506131138160836000888152602001908152602001600020546133c390919063ffffffff16565b608360008781526020019081526020016000208190555061317c84608560008673ffffffffffffffffffffffffffffffffffffffff1673ffffffffffffffffffffffffffffffffffffffff168152602001908152602001600020546133c390919063ffffffff16565b608560008573ffffffffffffffffffffffffffffffffffffffff1673ffffffffffffffffffffffffffffffffffffffff168152602001908152602001600020819055506131d4846040546133c390919063ffffffff16565b6040819055506131e3846149a6565b84847fbd6a0009de32b24a5a6a1a6d50ef5ad8a8a09b7329cfc44c65b36c3e91bea91d60405160405180910390a3505050505b426041826014811061322457fe5b018190555050565b81602c826014811061323a57fe5b0181905550816081600083815260200190815260200160002060006069846014811061326257fe5b015481526020019081526020016000206001018190555080602c826014811061328757fe5b01547f4a02295c87a60873dbea741004d8f588cc9f62f944eefe5e5d8ae8e629cc9ddb60405160405180910390a35050565b61331c826084600084815260200190815260200160002060003373ffffffffffffffffffffffffffffffffffffffff1673ffffffffffffffffffffffffffffffffffffffff168152602001908152602001600020546133c390919063ffffffff16565b6084600083815260200190815260200160002060003373ffffffffffffffffffffffffffffffffffffffff1673ffffffffffffffffffffffffffffffffffffffff1681526020019081526020016000208190555061337a3383613634565b3373ffffffffffffffffffffffffffffffffffffffff1681837fe1f2f21fb1114ab2d2decad00b03b417c36f962c5bb4d917ab391fb546df0e4560405160405180910390a45050565b600080828401905083811015613441576040517f08c379a000000000000000000000000000000000000000000000000000000000815260040180806020018281038252601b8152602001807f536166654d6174683a206164646974696f6e206f766572666c6f77000000000081525060200191505060405180910390fd5b8091505092915050565b600073ffffffffffffffffffffffffffffffffffffffff168473ffffffffffffffffffffffffffffffffffffffff16141580156134b55750600073ffffffffffffffffffffffffffffffffffffffff168373ffffffffffffffffffffffffffffffffffffffff1614155b613527576040517f08c379a00000000000000000000000000000000000000000000000000000000081526004018080602001828103825260208152602001807f43616e6e6f742073656e6420746f2f66726f6d207a65726f206164647265737381525060200191505060405180910390fd5b81602c826014811061353557fe5b01819055506000809054906101000a900473ffffffffffffffffffffffffffffffffffffffff1673ffffffffffffffffffffffffffffffffffffffff166323b872dd8585846040518463ffffffff1660e01b8152600401808473ffffffffffffffffffffffffffffffffffffffff1673ffffffffffffffffffffffffffffffffffffffff1681526020018373ffffffffffffffffffffffffffffffffffffffff1673ffffffffffffffffffffffffffffffffffffffff1681526020018281526020019350505050600060405180830381600087803b15801561361657600080fd5b505af115801561362a573d6000803e3d6000fd5b5050505050505050565b601660009054906101000a900473ffffffffffffffffffffffffffffffffffffffff1673ffffffffffffffffffffffffffffffffffffffff166323b872dd8330846040518463ffffffff1660e01b8152600401808473ffffffffffffffffffffffffffffffffffffffff1673ffffffffffffffffffffffffffffffffffffffff1681526020018373ffffffffffffffffffffffffffffffffffffffff1673ffffffffffffffffffffffffffffffffffffffff1681526020018281526020019350505050602060405180830381600087803b15801561371157600080fd5b505af1158015613725573d6000803e3d6000fd5b505050506040513d602081101561373b57600080fd5b81019080805190602001909291905050506137be576040517f08c379a00000000000000000000000000000000000000000000000000000000081526004018080602001828103825260148152602001807f43617368207472616e73666572206661696c656400000000000000000000000081525060200191505060405180910390fd5b5050565b600060826000607d54815260200190815260200160002060003373ffffffffffffffffffffffffffffffffffffffff1673ffffffffffffffffffffffffffffffffffffffff16815260200190815260200160002054905060008111613872576040517f08c379a000000000000000000000000000000000000000000000000000000000815260040180806020018281038252602e815260200180614d58602e913960400191505060405180910390fd5b600060826000607d54815260200190815260200160002060003373ffffffffffffffffffffffffffffffffffffffff1673ffffffffffffffffffffffffffffffffffffffff1681526020019081526020016000208190555060006138e182608054613ac990919063ffffffff16565b9050600061390d60836000607d5481526020019081526020016000205483613b4f90919063ffffffff16565b90506139193382613e70565b803373ffffffffffffffffffffffffffffffffffffffff167f0e72eb54add8566fa8248d61d8dc2b9953fbec55cfec138cdc887c8e34df495160405160405180910390a3505050565b6000608560003373ffffffffffffffffffffffffffffffffffffffff1673ffffffffffffffffffffffffffffffffffffffff168152602001908152602001600020549050600081116139ff576040517f08c379a000000000000000000000000000000000000000000000000000000000815260040180806020018281038252602a815260200180614d2e602a913960400191505060405180910390fd5b6000608560003373ffffffffffffffffffffffffffffffffffffffff1673ffffffffffffffffffffffffffffffffffffffff168152602001908152602001600020819055506000613a5b82608054613ac990919063ffffffff16565b90506000613a7460405483613b4f90919063ffffffff16565b9050613a803382613e70565b803373ffffffffffffffffffffffffffffffffffffffff167f40db9a7a1327f1f949933daff746d2d9be9f2ff608d832e39b6764f5f15a957360405160405180910390a3505050565b600080831415613adc5760009050613b49565b6000828402905082848281613aed57fe5b0414613b44576040517f08c379a0000000000000000000000000000000000000000000000000000000008152600401808060200182810382526021815260200180614d0d6021913960400191505060405180910390fd5b809150505b92915050565b6000613b9183836040518060400160405280601a81526020017f536166654d6174683a206469766973696f6e206279207a65726f000000000000815250614acb565b905092915050565b816084600083815260200190815260200160002060003373ffffffffffffffffffffffffffffffffffffffff1673ffffffffffffffffffffffffffffffffffffffff168152602001908152602001600020541015613c5f576040517f08c379a00000000000000000000000000000000000000000000000000000000081526004018080602001828103825260148152602001807f5769746864726177696e6720746f6f206d75636800000000000000000000000081525060200191505060405180910390fd5b613cc2826084600084815260200190815260200160002060003373ffffffffffffffffffffffffffffffffffffffff1673ffffffffffffffffffffffffffffffffffffffff16815260200190815260200160002054612b7590919063ffffffff16565b6084600083815260200190815260200160002060003373ffffffffffffffffffffffffffffffffffffffff1673ffffffffffffffffffffffffffffffffffffffff1681526020019081526020016000208190555060008060009054906101000a900473ffffffffffffffffffffffffffffffffffffffff1673ffffffffffffffffffffffffffffffffffffffff16636352211e836040518263ffffffff1660e01b81526004018082815260200191505060206040518083038186803b158015613d8a57600080fd5b505afa158015613d9e573d6000803e3d6000fd5b505050506040513d6020811015613db457600080fd5b810190808051906020019092919050505090503373ffffffffffffffffffffffffffffffffffffffff168173ffffffffffffffffffffffffffffffffffffffff16148015613e52575060006084600084815260200190815260200160002060003373ffffffffffffffffffffffffffffffffffffffff1673ffffffffffffffffffffffffffffffffffffffff16815260200190815260200160002054145b15613e6157613e608261471e565b5b613e6b3384613e70565b505050565b601660009054906101000a900473ffffffffffffffffffffffffffffffffffffffff1673ffffffffffffffffffffffffffffffffffffffff1663a9059cbb83836040518363ffffffff1660e01b8152600401808373ffffffffffffffffffffffffffffffffffffffff1673ffffffffffffffffffffffffffffffffffffffff16815260200182815260200192505050602060405180830381600087803b158015613f1957600080fd5b505af1158015613f2d573d6000803e3d6000fd5b505050506040513d6020811015613f4357600080fd5b8101908080519060200190929190505050613fc6576040517f08c379a00000000000000000000000000000000000000000000000000000000081526004018080602001828103825260148152602001807f43617368207472616e73666572206661696c656400000000000000000000000081525060200191505060405180910390fd5b5050565b6000601660009054906101000a900473ffffffffffffffffffffffffffffffffffffffff1673ffffffffffffffffffffffffffffffffffffffff166370a08231306040518263ffffffff1660e01b8152600401808273ffffffffffffffffffffffffffffffffffffffff1673ffffffffffffffffffffffffffffffffffffffff16815260200191505060206040518083038186803b15801561406b57600080fd5b505afa15801561407f573d6000803e3d6000fd5b505050506040513d602081101561409557600080fd5b8101908080519060200190929190505050905090565b601560009054906101000a900473ffffffffffffffffffffffffffffffffffffffff1673ffffffffffffffffffffffffffffffffffffffff16632e1a7d4d6040546040518263ffffffff1660e01b815260040180828152602001915050602060405180830381600087803b15801561412257600080fd5b505af1158015614136573d6000803e3d6000fd5b505050506040513d602081101561414c57600080fd5b81019080805190602001909291905050506141cf576040517f08c379a00000000000000000000000000000000000000000000000000000000081526004018080602001828103825260158152602001807f4175677572207769746864726177206661696c6564000000000000000000000081525060200191505060405180910390fd5b565b6000806000905060008090505b6014811015614458576000600182601481106141f657fe5b0160009054906101000a900473ffffffffffffffffffffffffffffffffffffffff1673ffffffffffffffffffffffffffffffffffffffff16633c26482060006040518263ffffffff1660e01b81526004018082815260200191505060206040518083038186803b15801561426957600080fd5b505afa15801561427d573d6000803e3d6000fd5b505050506040513d602081101561429357600080fd5b8101908080519060200190929190505050118061436a57506000600182601481106142ba57fe5b0160009054906101000a900473ffffffffffffffffffffffffffffffffffffffff1673ffffffffffffffffffffffffffffffffffffffff16633c26482060016040518263ffffffff1660e01b81526004018082815260200191505060206040518083038186803b15801561432d57600080fd5b505afa158015614341573d6000803e3d6000fd5b505050506040513d602081101561435757600080fd5b8101908080519060200190929190505050115b8061442f575060006001826014811061437f57fe5b0160009054906101000a900473ffffffffffffffffffffffffffffffffffffffff1673ffffffffffffffffffffffffffffffffffffffff16633c26482060026040518263ffffffff1660e01b81526004018082815260200191505060206040518083038186803b1580156143f257600080fd5b505afa158015614406573d6000803e3d6000fd5b505050506040513d602081101561441c57600080fd5b8101908080519060200190929190505050115b1561444b576144486001836133c390919063ffffffff16565b91505b80806001019150506141de565b506014811491505090565b60008060009050600080905060008090505b60148110156146465760006001826014811061448d57fe5b0160009054906101000a900473ffffffffffffffffffffffffffffffffffffffff1673ffffffffffffffffffffffffffffffffffffffff16633c26482060006040518263ffffffff1660e01b81526004018082815260200191505060206040518083038186803b15801561450057600080fd5b505afa158015614514573d6000803e3d6000fd5b505050506040513d602081101561452a57600080fd5b81019080805190602001909291905050501115614558576145556001836133c390919063ffffffff16565b91505b60006001826014811061456757fe5b0160009054906101000a900473ffffffffffffffffffffffffffffffffffffffff1673ffffffffffffffffffffffffffffffffffffffff16633c26482060016040518263ffffffff1660e01b81526004018082815260200191505060206040518083038186803b1580156145da57600080fd5b505afa1580156145ee573d6000803e3d6000fd5b505050506040513d602081101561460457600080fd5b810190808051906020019092919050505011156146395780607d819055506146366001846133c390919063ffffffff16565b92505b8080600101915050614475565b506001821480156146575750600081145b9250505090565b600083831115829061470b576040517f08c379a00000000000000000000000000000000000000000000000000000000081526004018080602001828103825283818151815260200191508051906020019080838360005b838110156146d05780820151818401526020810190506146b5565b50505050905090810190601f1680156146fd5780820380516001836020036101000a031916815260200191505b509250505060405180910390fd5b5060008385039050809150509392505050565b600080905060008090506000805b60001515841515141561485b5760006069866014811061474857fe5b0154101561475257fe5b61477460016069876014811061476457fe5b0154612b7590919063ffffffff16565b6069866014811061478157fe5b01819055506069856014811061479357fe5b0154915060816000868152602001908152602001600020600083815260200190815260200160002060000160009054906101000a900473ffffffffffffffffffffffffffffffffffffffff16905060008214156147f7576001925060019350614856565b60006084600087815260200190815260200160002060008373ffffffffffffffffffffffffffffffffffffffff1673ffffffffffffffffffffffffffffffffffffffff16815260200190815260200160002054111561485557600193505b5b61472c565b821561486f5761486a85614b91565b61499f565b60008060009054906101000a900473ffffffffffffffffffffffffffffffffffffffff1673ffffffffffffffffffffffffffffffffffffffff16636352211e876040518263ffffffff1660e01b81526004018082815260200191505060206040518083038186803b1580156148e357600080fd5b505afa1580156148f7573d6000803e3d6000fd5b505050506040513d602081101561490d57600080fd5b8101908080519060200190929190505050905060006081600088815260200190815260200160002060008581526020019081526020016000206001015490506149588284838a61344b565b8273ffffffffffffffffffffffffffffffffffffffff16877fdcd7d049706cf89eb40b5726d483d3aa2001e43b729f0f411cdda43c2fe59f5260405160405180910390a350505b5050505050565b601560009054906101000a900473ffffffffffffffffffffffffffffffffffffffff1673ffffffffffffffffffffffffffffffffffffffff1663b6b55f25826040518263ffffffff1660e01b815260040180828152602001915050602060405180830381600087803b158015614a1b57600080fd5b505af1158015614a2f573d6000803e3d6000fd5b505050506040513d6020811015614a4557600080fd5b8101908080519060200190929190505050614ac8576040517f08c379a00000000000000000000000000000000000000000000000000000000081526004018080602001828103825260148152602001807f4175677572206465706f736974206661696c656400000000000000000000000081525060200191505060405180910390fd5b50565b60008083118290614b77576040517f08c379a00000000000000000000000000000000000000000000000000000000081526004018080602001828103825283818151815260200191508051906020019080838360005b83811015614b3c578082015181840152602081019050614b21565b50505050905090810190601f168015614b695780820380516001836020036101000a031916815260200191505b509250505060405180910390fd5b506000838581614b8357fe5b049050809150509392505050565b60008060009054906101000a900473ffffffffffffffffffffffffffffffffffffffff1673ffffffffffffffffffffffffffffffffffffffff16636352211e836040518263ffffffff1660e01b81526004018082815260200191505060206040518083038186803b158015614c0557600080fd5b505afa158015614c19573d6000803e3d6000fd5b505050506040513d6020811015614c2f57600080fd5b81019080805190602001909291905050509050614c4f813060008561344b565b818173ffffffffffffffffffffffffffffffffffffffff167fafcc8a4b82e5204af0a7a41fc84d1d60492410d031ee4ea1769a4f90fd1fb59d60405160405180910390a3505056fe4e6577207072696365206d75737420626520686967686572207468616e2063757272656e742070726963654d75737420776169742036206d6f6e74687320666f72204175677572204f7261636c655072696365206d75737420626520686967686572207468616e2063757272656e74207072696365536166654d6174683a206d756c7469706c69636174696f6e206f766572666c6f77596f752070616964206e6f2072656e742c206f722072656e7420616c72656164792072657475726e6564596f7520617265206e6f7420612077696e6e65722c206f722077696e6e696e677320616c72656164792070616964a265627a7a723158200a3687e9db8d98fcca7f91dbdaee75490ffe787e5fbda563feaf6ef90304572a64736f6c634300050d0032",
  "source": "pragma solidity 0.5.13;\nimport \"./interfaces/IERC721Full.sol\";\nimport \"./utils/SafeMath.sol\";\n\n/// @title Augur Markets interface\n/// @notice Gets the winner of each market from Augur\ninterface IMarket \n{\n    function getWinningPayoutNumerator(uint256 _outcome) external view returns (uint256);\n}\n\n/// @title Dai contract interface\n/// @notice Various cash functions\ninterface Cash \n{\n    function approve(address _spender, uint256 _amount) external returns (bool);\n    function balanceOf(address _ownesr) external view returns (uint256);\n    function faucet(uint256 _amount) external;\n    function transfer(address _to, uint256 _amount) external returns (bool);\n    function transferFrom(address _from, address _to, uint256 _amount) external returns (bool);\n}\n\n/// @title Augur OICash interface\n/// @notice adding or removing open interest to secure the Augur Oracle\ninterface OICash\n{\n    function deposit(uint256 _amount) external returns (bool);\n    function withdraw(uint256 _amount) external returns (bool);\n}\n\n//TODO: change front end to only approve the same amount that is being sent\n// ^ will also need to figure out how to pass this number in the correct format because decimal\n// ^ does not seem to work for more than 100 dai, it needs big number\n\n/// @title Harber\n/// @author Andrew Stanger\ncontract Harber {\n\n    using SafeMath for uint256;\n\n    /// NUMBER OF TOKENS\n    /// @dev also equals number of markets on augur\n    /// @dev not set in the constructor because so many other variables need it for initating.  \n    uint256 constant public numberOfTokens = 20;\n\n    /// CONTRACT VARIABLES\n    /// ERC721:\n    IERC721Full public token;\n    /// Augur contracts:\n    IMarket[numberOfTokens] public market;\n    OICash public augur;\n    Cash public cash; \n\n    /// UINTS, ADDRESSES, BOOLS\n    /// @dev my whiskey fund, for my 1% cut\n    address private andrewsAddress; \n    /// @dev the addresses of the various Augur binary markets. One market for each token. Initiated in the constructor and does not change.\n    address[numberOfTokens] public marketAddresses; \n    /// @dev in attodai (so $100 = 100000000000000000000)\n    uint256[numberOfTokens] public price; \n    /// @dev an easy way to track the above across all tokens. It should always increment at the same time as the above increments. \n    uint256 public totalCollected; \n    /// @dev used to determine the rent due. Rent is due for the period (now - timeLastCollected), at which point timeLastCollected is set to now.\n    uint256[numberOfTokens] public timeLastCollected; \n    /// @dev when a token was bought. used only for front end 'owned since' section. Rent collection only needs timeLastCollected.\n    uint256[numberOfTokens] public timeAcquired; \n    /// @dev tracks the position of the current owner in the ownerTracker mapping\n    uint256[numberOfTokens] public currentOwnerIndex; \n  \n    /// WINNING OUTCOME VARIABLES\n    /// @dev start with invalid winning outcome\n    uint256 public winningOutcome = 42069; \n    //// @dev so the function to manually set the winner can only be called long after \n    /// @dev ...it should have resolved via Augur. Must be public so others can verify it is accurate. \n    uint256 public marketExpectedResolutionTime; \n\n    /// MARKET RESOLUTION VARIABLES\n    /// @dev step1:\n    bool public marketsResolved = false; // must be false for step1, true for step2\n    bool public marketsResolvedWithoutErrors = false; // set in step 1. If true, normal payout. If false, return all funds\n    /// @dev step 2:\n    bool public step2Complete = false; // must be false for step2, true for complete\n    /// @dev step 3:\n    bool public step3Complete = false; // must be false for step2, true for complete\n    /// @dev complete:\n    uint256 public daiAvailableToDistribute;\n    \n    ///  STRUCTS\n    struct purchase {\n        address owner;\n        uint256 price;\n    }\n    \n    /// MAPPINGS\n    /// @dev keeps track of all previous owners of a token, including the price, so that if the current owner's deposit runs out,\n    /// @dev ...ownership can be reverted to a previous owner with the previous price. Index 0 is NOT used, this tells the contract to foreclose.\n    /// @dev this does NOT keep a reliable list of all owners, if it reverts to a previous owner then the next owner will overwrite the owner that was in that slot.\n    /// @dev the variable currentOwnerIndex is used to track the location of the current owner. \n    mapping (uint256 => mapping (uint256 => purchase) ) public ownerTracker;  \n    /// @dev how many seconds each user has held each token for, for determining winnings  \n    mapping (uint256 => mapping (address => uint256) ) public timeHeld;\n    /// @dev sums all the timeHelds for each token. Not required, but saves on gas when paying out. Should always increment at the same time as timeHeld\n    mapping (uint256 => uint256) public totalTimeHeld; \n    /// @dev keeps track of all the deposits for each token, for each owner. Unused deposits are not returned automatically when there is a new buyer. \n    /// @dev they can be withdrawn manually however. Unused deposits are returned automatically upon resolution of the market\n    mapping (uint256 => mapping (address => uint256) ) public deposits; \n    /// @dev keeps track of all the rent paid by each user. So that it can be returned in case of an invalid market outcome. Only required in this instance. \n    mapping (address => uint256) public collectedPerUser;\n\n    ////////////// CONSTRUCTOR //////////////\n    constructor(address _andrewsAddress, address _addressOfToken, address _addressOfCashContract, address[numberOfTokens] memory _addressesOfMarkets, address _addressOfOICashContract, address _addressOfMainAugurContract, uint _marketExpectedResolutionTime) public \n    {\n        //assign arguments to relevant variables\n        marketExpectedResolutionTime = _marketExpectedResolutionTime;\n        andrewsAddress = _andrewsAddress;\n        marketAddresses = _addressesOfMarkets; \n        \n        // external contract variables:\n        token = IERC721Full(_addressOfToken);\n        cash = Cash(_addressOfCashContract);\n        augur = OICash(_addressOfOICashContract);\n\n        // initialise arrays\n        for (uint i = 0; i < numberOfTokens; i++) {\n            currentOwnerIndex[i]=0;\n            market[i] = IMarket(_addressesOfMarkets[i]);\n        }\n     \n        // approve Augur contract to transfer this contract's dai\n        require(cash.approve(_addressOfMainAugurContract,(2**256)-1));\n    } \n\n    event LogNewRental(address indexed newOwner, uint256 indexed newPrice, uint256 indexed tokenId);\n    event LogPriceChange(uint256 indexed newPrice, uint256 indexed tokenId);\n    event LogForeclosure(address indexed prevOwner, uint256 indexed tokenId);\n    event LogRentCollection(uint256 indexed rentCollected, uint256 indexed tokenId);\n    event LogReturnToPreviousOwner(uint256 indexed tokenId, address indexed previousOwner);\n    event LogDepositWithdrawal(uint256 indexed daiWithdrawn, uint256 indexed tokenId, address indexed returnedTo);\n    event LogDepositIncreased(uint256 indexed daiDeposited, uint256 indexed tokenId, address indexed sentBy);\n    event LogExit(uint256 indexed tokenId);\n    event LogStep1Complete(bool indexed didAugurMarketsResolve, uint256 indexed winningOutcome, bool indexed didAugurMarketsResolveCorrectly);\n    event LogStep2Complete(uint256 indexed daiAvailableToDistribute);\n    event LogWinningsPaid(address indexed paidTo, uint256 indexed amountPaid);\n    event LogRentReturned(address indexed returnedTo, uint256 indexed amountReturned);\n    event LogAndrewPaid(uint256 indexed additionsToWhiskeyFund);\n\n    ////////////// MODIFIERS //////////////\n    /// @notice prevents functions from being interacted with after the end of the competition \n    /// @dev should be on all public/external 'ordinary course of business' functions\n    modifier notResolved() {\n        require(marketsResolved == false, \"Markets have resolved already\");\n        _;\n    }\n\n    /// @notice checks the token exists\n    modifier tokenExists(uint256 _tokenId) {\n        require(_tokenId  >= 0 && _tokenId < numberOfTokens, \"This token does not exist\");\n       _;\n    }\n\n    /// @notice what it says on the tin\n    modifier amountNotZero(uint256 _dai) {\n        require(_dai  > 0, \"Amount must be above zero\");\n       _;\n    }\n\n    ////////////// VIEW FUNCTIONS //////////////\n    /// @dev called in collectRent function, and various other view functions \n    function rentOwed(uint256 _tokenId) public view returns (uint256 augurFundsDue) {\n        return price[_tokenId].mul(now.sub(timeLastCollected[_tokenId])).div(1 days);\n    }\n\n    /// @dev used in testing only\n    function getOwnerTrackerPrice(uint256 _tokenId, uint256 _index) public view returns (uint256) {\n        return (ownerTracker[_tokenId][_index].price);\n    }\n\n    /// @dev used in testing only\n    function getOwnerTrackerAddress(uint256 _tokenId, uint256 _index) public view returns (address) {\n        return (ownerTracker[_tokenId][_index].owner);\n    }\n\n    /// @dev for front end only\n    /// @return how much the current owner has deposited\n    function liveDepositAbleToWithdraw(uint256 _tokenId) public view returns (uint256) {\n        uint256 _rentOwed = rentOwed(_tokenId);\n        address _currentOwner = token.ownerOf(_tokenId);\n        if(_rentOwed >= deposits[_tokenId][_currentOwner]) {\n            return 0;\n        } else {\n            return deposits[_tokenId][_currentOwner].sub(_rentOwed);\n        }\n    }\n\n    /// @dev for front end only\n    /// @return how much the current user has deposited (note: user not owner)\n    function userDepositAbleToWithdraw(uint256 _tokenId) public view returns (uint256) {\n        uint256 _rentOwed = rentOwed(_tokenId);\n        address _currentOwner = token.ownerOf(_tokenId);\n\n        if(_currentOwner == msg.sender) {\n            if(_rentOwed >= deposits[_tokenId][msg.sender]) {\n                return 0;\n            } else {\n                return deposits[_tokenId][msg.sender].sub(_rentOwed);\n            }\n        } else {\n            return deposits[_tokenId][msg.sender];\n        }\n    }\n\n    /// @dev for front end only\n    /// @return estimated rental expiry time\n    function rentalExpiryTime(uint256 _tokenId) public view returns (uint256) {\n        uint256 pps;\n        pps = price[_tokenId].div(1 days);\n        if (pps == 0) {\n            return now; //if price is so low that pps = 0 just return current time as a fallback\n        }\n        else {\n            return now + liveDepositAbleToWithdraw(_tokenId).div(pps);\n        }\n    }\n\n    ////////////// AUGUR FUNCTIONS //////////////\n    // * internal * \n    /// @notice send the Dai to Augur\n    function _augurDeposit(uint256 _rentOwed) internal {\n        require(augur.deposit(_rentOwed), \"Augur deposit failed\");\n    }\n\n    // * internal *\n    /// @notice receive the Dai back from Augur\n    function _augurWithdraw() internal {\n        require(augur.withdraw(totalCollected), \"Augur withdraw failed\");\n    }\n\n    // * internal * \n    /// @notice THIS FUNCTION HAS NOT BEEN TESTED ON AUGUR YET\n    /// @notice checks if all X (x = number of tokens = number of tokens) markets have resolved to either yes, no, or invalid\n    /// @return true if yes, false if no\n    function _haveAllAugurMarketsResolved() internal view returns(bool) {   \n        uint256 _resolvedOutcomesCount = 0;\n\n        for (uint i = 0; i < numberOfTokens; i++) {\n            // binary market has three outcomes: 0 (invalid), 1 (yes), 2 (no)\n            if (market[i].getWinningPayoutNumerator(0) > 0 || market[i].getWinningPayoutNumerator(1) > 0 || market[i].getWinningPayoutNumerator(2) > 0  ) {\n                _resolvedOutcomesCount = _resolvedOutcomesCount.add(1);\n            }\n        }\n        // returns true if all resolved, false otherwise\n        return (_resolvedOutcomesCount == numberOfTokens);\n    }\n\n    // * internal * \n    /// @notice THIS FUNCTION HAS NOT BEEN TESTED ON AUGUR YET\n    /// @notice checks if all markets have resolved without conflicts or errors\n    /// @return true if yes, false if no\n    /// @dev this function will also set the winningOutcome variable\n    function _haveAllAugurMarketsResolvedWithoutErrors() internal returns(bool) {   \n        uint256 _winningOutcomesCount = 0;\n        uint256 _invalidOutcomesCount = 0;\n\n        for (uint i = 0; i < numberOfTokens; i++) {\n            if (market[i].getWinningPayoutNumerator(0) > 0) {\n                _invalidOutcomesCount = _invalidOutcomesCount.add(1);\n            }\n            if (market[i].getWinningPayoutNumerator(1) > 0) {\n                winningOutcome = i; // <- the winning outcome (a global variable) is set here\n                _winningOutcomesCount = _winningOutcomesCount.add(1);\n            }\n        }\n\n        return (_winningOutcomesCount == 1 && _invalidOutcomesCount == 0);\n    }\n\n    ////////////// DAI CONTRACT FUNCTIONS ////////////// \n\n    // * internal * \n    /// @notice common function for all outgoing DAI transfers\n    function _sendCash(address _to, uint256 _amount) internal { \n        require(cash.transfer(_to,_amount), \"Cash transfer failed\"); \n    }\n\n    // * internal * \n    /// @notice common function for all incoming DAI transfers\n    function _receiveCash(address _from, uint256 _amount) internal {  \n        require(cash.transferFrom(_from, address(this), _amount), \"Cash transfer failed\");\n    }\n\n    // * internal * \n    /// @return DAI balance of the contract\n    /// @dev this is used to know how much exists to payout to winners\n    function _getContractsCashBalance() internal view returns (uint256) {\n        return cash.balanceOf(address(this));\n    }\n\n    ////////////// MARKET RESOLUTION FUNCTIONS ////////////// \n\n    /// @notice the first of three functions which must be called, one after the other, to conclude the competition\n    /// @notice winnings can be paid out (or funds returned) only when these two steps are completed\n    /// @notice this function checks whether the Augur markets have resolved, and if yes, whether they resolved correct or not\n    /// @dev they are split into two sections due to the presence of step1BemergencyExit and step1CcircuitBreaker\n    /// @dev can be called by anyone \n    function step1checkMarketsResolved() external {\n        require(marketsResolved == false, \"Step1 can only be completed once\");\n        // first check if all X markets have all resolved one way or the other\n        require(_haveAllAugurMarketsResolved(), \"Markets have not resolved yet\");\n        // do a final rent collection before the contract is locked down\n        collectRentAllTokens();\n        // lock everything down\n        marketsResolved = true;\n        // now check if they all resolved without errors. It is set to false upon contract initialisation \n        if (_haveAllAugurMarketsResolvedWithoutErrors()) {\n            marketsResolvedWithoutErrors = true;\n        }\n        emit LogStep1Complete(true, winningOutcome, marketsResolvedWithoutErrors);\n    }\n\n    /// @notice emergency function in case the augur markets never resolve for whatever reason\n    /// @notice returns all funds to all users\n    /// @notice can only be called 6 months after augur markets should have ended \n    function step1BemergencyExit() external  {\n        require(marketsResolved == false, \"Step1 can only be completed once\");\n        require(now > (marketExpectedResolutionTime + 15778800), \"Must wait 6 months for Augur Oracle\");\n        collectRentAllTokens();\n        marketsResolved = true;\n        emit LogStep1Complete(false, winningOutcome, false);\n    }\n\n    /// @notice Same as above, except that only I can call it, and I can call it whenever\n    /// @notice to be clear, this only allows me to return all funds. I can not set a winner. \n    function step1CcircuitBreaker() external {\n        require(marketsResolved == false, \"Step1 can only be completed once\");\n        require(msg.sender == andrewsAddress, \"Only owner can call this\");\n        collectRentAllTokens();\n        marketsResolved = true;\n        emit LogStep1Complete(false, winningOutcome, false);\n    }\n\n    /// @notice the second of the three functions which must be called, one after the other, to conclude the competition\n    /// @dev gets funds back from Augur, gets the available funds for distribution\n    /// @dev can be called by anyone, but only once \n    function step2withdrawFromAugur() external {\n        require(marketsResolved == true, \"Must wait for market resolution\");\n        require(step2Complete == false, \"Step2 should only be run once\");\n        step2Complete = true;\n        uint256 _balanceBefore = _getContractsCashBalance();\n        _augurWithdraw();\n        uint256 _balanceAfter = _getContractsCashBalance();\n        // daiAvailableToDistribute therefore does not include unused deposits\n        daiAvailableToDistribute = _balanceAfter.sub(_balanceBefore);\n        emit LogStep2Complete(daiAvailableToDistribute);\n    }\n\n    /// @notice the final of the three functions which must be called, one after the other, to conclude the competition\n    /// @notice pays me my 1% if markets resolved correctly. If not I don't deserve shit\n    /// @dev this was originally included within step3 but it was modifed so that ineraction with Dai contract happened at the end\n    function step3payAndrew() external {\n        require(step2Complete == true, \"Step2 must be completed first\");\n        require(step3Complete == false, \"Step3 should only be run once\");       \n        step3Complete = true;\n\n        if (marketsResolvedWithoutErrors) {\n            uint256 _andrewsWellEarntMonies = daiAvailableToDistribute.div(100);\n            daiAvailableToDistribute = daiAvailableToDistribute.sub(_andrewsWellEarntMonies);\n            _sendCash(andrewsAddress,_andrewsWellEarntMonies);\n            emit LogAndrewPaid(_andrewsWellEarntMonies);\n        }     \n    }\n\n    /// @notice the final function of the competition resolution process. Pays out winnings, or returns funds, as necessary\n    /// @dev users pull dai into their ac   count. \n    function complete() external {\n        require(step3Complete == true, \"Step3 must be completed first\");\n        if (marketsResolvedWithoutErrors) {\n            _payoutWinnings();\n        } else {\n             _returnRent();\n        }\n    }\n\n     // * internal * \n    /// @notice pays winnings to the winners\n    /// @dev must be internal and only called by complete\n    function _payoutWinnings() internal {\n        uint256 _winnersTimeHeld = timeHeld[winningOutcome][msg.sender];\n        require(_winnersTimeHeld > 0, \"You are not a winner, or winnings already paid\");\n        timeHeld[winningOutcome][msg.sender] = 0; // otherwise they can keep paying themselves over and over\n        uint256 _numerator = daiAvailableToDistribute.mul(_winnersTimeHeld);\n        uint256 _winningsToTransfer = _numerator.div(totalTimeHeld[winningOutcome]);\n        _sendCash(msg.sender, _winningsToTransfer);\n        emit LogWinningsPaid(msg.sender, _winningsToTransfer);\n    }\n\n    // * internal * \n    /// @notice returns all funds to users in case of invalid outcome\n    /// @dev must be internal and only called by complete\n    function _returnRent() internal {\n        uint256 _rentCollected = collectedPerUser[msg.sender];\n        require(_rentCollected > 0, \"You paid no rent, or rent already returned\");\n        collectedPerUser[msg.sender] = 0; // otherwise they can keep paying themselves over and over\n        uint256 _numerator = daiAvailableToDistribute.mul(_rentCollected);\n        uint256 _rentToToReturn = _numerator.div(totalCollected);\n        _sendCash(msg.sender, _rentToToReturn);\n        emit LogRentReturned(msg.sender, _rentToToReturn);\n    }\n\n    /// @notice withdraw full deposit after markets have resolved\n    /// @dev the other withdraw deposit functions are locked when markets have resolved so must use this one\n    /// @dev ... which can only be called if markets have resolved. This function is also different in that it does \n    /// @dev ... not attempt to collect rent or transfer ownership to a previous owner\n    function withdrawDepositAfterResolution() external {\n        require(marketsResolved == true, \"step1 must be completed first\");\n         \n        for (uint i = 0; i < numberOfTokens; i++) {\n\n            uint256 _depositToReturn = deposits[i][msg.sender];\n\n            if (_depositToReturn > 0) {\n                deposits[i][msg.sender] = 0;\n                _sendCash(msg.sender, _depositToReturn);\n                emit LogDepositWithdrawal(_depositToReturn, i, msg.sender);\n            }\n        }\n    }\n\n    ////////////// ORDINARY COURSE OF BUSINESS FUNCTIONS- EXTERNALS //////////////\n\n    /// @notice collects rent for all tokens\n    /// @dev makes it easy for me to call whenever I want to keep people paying their rent, thus cannot be internal\n    /// @dev cannot be external because it is called within the step1 functions, therefore public\n    function collectRentAllTokens() public notResolved() {\n       for (uint i = 0; i < numberOfTokens; i++) {\n            _collectRent(i);\n        }\n    }\n    \n    /// @notice to rent a token\n    function newRental(uint256 _newPrice, uint256 _tokenId, uint256 _deposit) external tokenExists(_tokenId) amountNotZero(_deposit) notResolved() {\n        require(_newPrice > price[_tokenId], \"Price must be higher than current price\");\n        \n        _collectRent(_tokenId);\n        // require(1==2, \"STFU\");\n        address _currentOwner = token.ownerOf(_tokenId);\n\n        if (_currentOwner == msg.sender) {\n            // bought by current owner (ie, token ownership does not change, so it is as if the current owner\n            // ... called changePrice and depositDai seperately)\n            _changePrice(_newPrice, _tokenId);\n            _depositDai(_deposit, _tokenId);\n        } else {   \n            // bought by different user (the normal situation)\n            // deposits are updated via depositDai function if _currentOwner = msg.sender \n            // therefore deposits only updated inside this else section\n            deposits[_tokenId][msg.sender] = deposits[_tokenId][msg.sender].add(_deposit);\n            // update currentOwnerIndex and ownerTracker\n            currentOwnerIndex[_tokenId] = currentOwnerIndex[_tokenId].add(1); \n            ownerTracker[_tokenId][currentOwnerIndex[_tokenId]].price = _newPrice;\n            ownerTracker[_tokenId][currentOwnerIndex[_tokenId]].owner = msg.sender; \n            // update timeAcquired for the front end\n            timeAcquired[_tokenId] = now;\n            _transferTokenTo(_currentOwner, msg.sender, _newPrice, _tokenId);\n            _receiveCash(msg.sender, _deposit);\n            emit LogNewRental(msg.sender, _newPrice, _tokenId); \n        }\n    }\n\n    /// @notice add new dai deposit to an existing rental\n    /// @dev it is possible a user's deposit could be reduced to zero following _collectRent\n    /// @dev they would then increase their deposit despite no longer owning it\n    /// @dev this is ok, they can still withdraw via withdrawDeposit. \n    function depositDai(uint256 _dai, uint256 _tokenId) external amountNotZero(_dai) tokenExists(_tokenId) notResolved() {\n        _collectRent(_tokenId);\n        _depositDai(_dai, _tokenId);\n    }\n\n    /// @notice increase the price of an existing rental\n    /// @dev can't be external because also called within newRental\n    function changePrice(uint256 _newPrice, uint256 _tokenId) public tokenExists(_tokenId) notResolved() {\n        require(_newPrice > price[_tokenId], \"New price must be higher than current price\"); \n        require(msg.sender == token.ownerOf(_tokenId), \"Not owner\");\n        _collectRent(_tokenId);\n        _changePrice(_newPrice, _tokenId);\n    }\n    \n    /// @notice withdraw deposit\n    /// @dev do not need to be the current owner\n    function withdrawDeposit(uint256 _dai, uint256 _tokenId) external amountNotZero(_dai) tokenExists(_tokenId) notResolved() returns (uint256) {\n        _collectRent(_tokenId);\n        // if statement needed because deposit may have just reduced to zero following _collectRent \n        if (deposits[_tokenId][msg.sender] > 0) {\n            _withdrawDeposit(_dai, _tokenId);\n            emit LogDepositWithdrawal(_dai, _tokenId, msg.sender);\n        }\n    }\n\n    /// @notice withdraw full deposit\n    /// @dev do not need to be the current owner\n    function exit(uint256 _tokenId) external tokenExists(_tokenId) notResolved() {\n        _collectRent(_tokenId);\n        // if statement needed because deposit may have just reduced to zero following _collectRent modifier\n        if (deposits[_tokenId][msg.sender] > 0) {\n            _withdrawDeposit(deposits[_tokenId][msg.sender],  _tokenId);\n            emit LogExit(_tokenId);\n        }\n    }\n\n    ////////////// ORDINARY COURSE OF BUSINESS FUNCTIONS- INTERNALS //////////////\n\n    /// @notice collects rent for a specific token\n    /// @dev also calculates and updates how long the current user has held the token for\n    /// @dev called frequently internally, so cant be external. \n    /// @dev is not a problem if called externally, but making internal over public to save gas\n    function _collectRent(uint256 _tokenId) internal notResolved() {\n        //only collect rent if the token is owned (ie, if owned by the contract this implies unowned)\n        if (token.ownerOf(_tokenId) != address(this)) {\n            \n            uint256 _rentOwed = rentOwed(_tokenId);\n            address _currentOwner = token.ownerOf(_tokenId);\n            uint256 _timeOfThisCollection;\n            \n            if (_rentOwed >= deposits[_tokenId][_currentOwner]) {\n                // run out of deposit. Calculate time it was actually paid for, then revert to previous owner \n                _timeOfThisCollection = timeLastCollected[_tokenId].add(((now.sub(timeLastCollected[_tokenId])).mul(deposits[_tokenId][_currentOwner]).div(_rentOwed)));\n                _rentOwed = deposits[_tokenId][_currentOwner]; // take what's left     \n                _revertToPreviousOwner(_tokenId);\n                \n            } else  {\n                // normal collection\n                _timeOfThisCollection = now;\n            }\n\n            // decrease deposit by rent owed\n            deposits[_tokenId][_currentOwner] = deposits[_tokenId][_currentOwner].sub(_rentOwed);\n\n            // the 'important bit', where the duration the token has been held by each user is updated\n            // it is essential that timeHeld and totalTimeHeld are incremented together such that the sum of\n            // the first is equal to the second\n            uint256 _timeHeldToIncrement = (_timeOfThisCollection.sub(timeLastCollected[_tokenId])); //just for readability\n            timeHeld[_tokenId][_currentOwner] = timeHeld[_tokenId][_currentOwner].add(_timeHeldToIncrement);\n            totalTimeHeld[_tokenId] = totalTimeHeld[_tokenId].add(_timeHeldToIncrement);\n\n            // it is also essential that collectedPerUser and totalCollected are all incremented together\n            // such that the sum of the first two (individually) is equal to the third\n            collectedPerUser[_currentOwner] = collectedPerUser[_currentOwner].add(_rentOwed);\n            totalCollected = totalCollected.add(_rentOwed);\n\n            _augurDeposit(_rentOwed);\n            emit LogRentCollection(_rentOwed, _tokenId);\n        }\n\n        // timeLastCollected is updated regardless of whether the token is owned, so that the clock starts ticking\n        // ... when the first owner buys it, because this function is run before ownership changes upon calling\n        // ... newRental\n        timeLastCollected[_tokenId] = now;\n    }\n\n    /// @dev depositDai is split into two, because it needs to be called direct from newRental\n    /// @dev ... without collecing rent first (otherwise it would be collected twice, possibly causing logic errors)\n    function _depositDai(uint256 _dai, uint256 _tokenId) internal {\n        deposits[_tokenId][msg.sender] = deposits[_tokenId][msg.sender].add(_dai);\n        _receiveCash(msg.sender, _dai);\n        emit LogDepositIncreased(_dai, _tokenId, msg.sender);\n    }\n\n    /// @dev changePrice is split into two, because it needs to be called direct from newRental\n    /// @dev ... without collecing rent first (otherwise it would be collected twice, possibly causing logic errors)\n    function _changePrice(uint256 _newPrice, uint256 _tokenId) internal {\n        // below is the only instance when price is modifed outside of the _transferTokenTo function\n        price[_tokenId] = _newPrice;\n        ownerTracker[_tokenId][currentOwnerIndex[_tokenId]].price = _newPrice;\n        emit LogPriceChange(price[_tokenId], _tokenId);\n    }\n\n    /// @notice actually withdraw the deposit and call _revertToPreviousOwner if necessary\n    function _withdrawDeposit(uint256 _dai, uint256 _tokenId) internal {\n        require(deposits[_tokenId][msg.sender] >= _dai, 'Withdrawing too much');\n        deposits[_tokenId][msg.sender] = deposits[_tokenId][msg.sender].sub(_dai);\n        address _currentOwner = token.ownerOf(_tokenId);\n        if(_currentOwner == msg.sender && deposits[_tokenId][msg.sender] == 0) {\n            _revertToPreviousOwner(_tokenId);\n        }\n        _sendCash(msg.sender, _dai);\n    }\n\n    /// @notice if a users deposit runs out, either return to previous owner or foreclose\n    function _revertToPreviousOwner(uint256 _tokenId) internal {\n        bool _reverted = false;\n        bool _toForeclose = false;\n        uint256 _index;\n        address _previousOwner;\n\n        while (_reverted == false) {\n            assert(currentOwnerIndex[_tokenId] >=0);\n            currentOwnerIndex[_tokenId] = currentOwnerIndex[_tokenId].sub(1); // currentOwnerIndex will now point to  previous owner\n            _index = currentOwnerIndex[_tokenId]; // just for readability\n            _previousOwner = ownerTracker[_tokenId][_index].owner;\n\n            //if no previous owners. price -> zero, foreclose\n            //if previous owner still has a deposit, transfer to them, update the price to what it used to be\n            if (_index == 0) {\n                _toForeclose = true;\n                _reverted = true;\n            } else if (deposits[_tokenId][_previousOwner] > 0) {\n                _reverted = true;\n            }         \n        }   \n\n        if (_toForeclose) {\n                _foreclose(_tokenId);\n            } else {\n                address _currentOwner = token.ownerOf(_tokenId);\n                uint256 _oldPrice = ownerTracker[_tokenId][_index].price;\n                _transferTokenTo(_currentOwner, _previousOwner, _oldPrice, _tokenId);\n                emit LogReturnToPreviousOwner(_tokenId, _previousOwner);\n            }\n    }\n\n    /// @notice return token to the contract and return price to zero\n    function _foreclose(uint256 _tokenId) internal {\n        address _currentOwner = token.ownerOf(_tokenId);\n        // third field is price, ie price goes to zero\n        _transferTokenTo(_currentOwner, address(this), 0, _tokenId);\n        emit LogForeclosure(_currentOwner, _tokenId);\n    }\n\n    /// @notice transfer ERC 721 between users\n    /// @dev there is no event emitted as this is handled in ERC721.sol\n    function _transferTokenTo(address _currentOwner, address _newOwner, uint256 _newPrice, uint256 _tokenId) internal {\n        require(_currentOwner != address(0) && _newOwner != address(0) , \"Cannot send to/from zero address\");\n        price[_tokenId] = _newPrice;\n        token.transferFrom(_currentOwner, _newOwner, _tokenId);\n    }\n}\n\n",
  "sourcePath": "/Users/mcplums/Repos/Harber/contracts/Harber.sol",
  "compiler": {
    "name": "solc",
    "version": "0.5.13+commit.5b0b510c.Emscripten.clang"
  },
  "schemaVersion": "3.0.19",
  "updatedAt": "2020-02-25T02:56:30.040Z",
  "networkType": "ethereum",
  "devdoc": {
    "author": "Andrew Stanger",
    "methods": {
      "changePrice(uint256,uint256)": {
        "details": "can't be external because also called within newRental"
      },
      "collectRentAllTokens()": {
        "details": "makes it easy for me to call whenever I want to keep people paying their rent, thus cannot be internalcannot be external because it is called within the step1 functions, therefore public"
      },
      "complete()": {
        "details": "users pull dai into their ac   count. "
      },
      "depositDai(uint256,uint256)": {
        "details": "it is possible a user's deposit could be reduced to zero following _collectRentthey would then increase their deposit despite no longer owning itthis is ok, they can still withdraw via withdrawDeposit. "
      },
      "exit(uint256)": {
        "details": "do not need to be the current owner"
      },
      "getOwnerTrackerAddress(uint256,uint256)": {
        "details": "used in testing only"
      },
      "getOwnerTrackerPrice(uint256,uint256)": {
        "details": "used in testing only"
      },
      "liveDepositAbleToWithdraw(uint256)": {
        "details": "for front end only",
        "return": "how much the current owner has deposited"
      },
      "rentOwed(uint256)": {
        "details": "called in collectRent function, and various other view functions "
      },
      "rentalExpiryTime(uint256)": {
        "details": "for front end only",
        "return": "estimated rental expiry time"
      },
      "step1checkMarketsResolved()": {
        "details": "they are split into two sections due to the presence of step1BemergencyExit and step1CcircuitBreakercan be called by anyone "
      },
      "step2withdrawFromAugur()": {
        "details": "gets funds back from Augur, gets the available funds for distributioncan be called by anyone, but only once "
      },
      "step3payAndrew()": {
        "details": "this was originally included within step3 but it was modifed so that ineraction with Dai contract happened at the end"
      },
      "userDepositAbleToWithdraw(uint256)": {
        "details": "for front end only",
        "return": "how much the current user has deposited (note: user not owner)"
      },
      "withdrawDeposit(uint256,uint256)": {
        "details": "do not need to be the current owner"
      },
      "withdrawDepositAfterResolution()": {
        "details": "the other withdraw deposit functions are locked when markets have resolved so must use this one... which can only be called if markets have resolved. This function is also different in that it does ... not attempt to collect rent or transfer ownership to a previous owner"
      }
    },
    "title": "Harber"
  },
  "userdoc": {
    "methods": {
      "changePrice(uint256,uint256)": {
        "notice": "increase the price of an existing rental"
      },
      "collectRentAllTokens()": {
        "notice": "/////////// ORDINARY COURSE OF BUSINESS FUNCTIONS- EXTERNALS //////////////collects rent for all tokens"
      },
      "complete()": {
        "notice": "the final function of the competition resolution process. Pays out winnings, or returns funds, as necessary"
      },
      "constructor": "/////////// CONSTRUCTOR //////////////",
      "depositDai(uint256,uint256)": {
        "notice": "add new dai deposit to an existing rental"
      },
      "exit(uint256)": {
        "notice": "withdraw full deposit"
      },
      "newRental(uint256,uint256,uint256)": {
        "notice": "to rent a token"
      },
      "rentOwed(uint256)": {
        "notice": "/////////// VIEW FUNCTIONS //////////////"
      },
      "step1BemergencyExit()": {
        "notice": "emergency function in case the augur markets never resolve for whatever reasonreturns all funds to all userscan only be called 6 months after augur markets should have ended "
      },
      "step1CcircuitBreaker()": {
        "notice": "Same as above, except that only I can call it, and I can call it wheneverto be clear, this only allows me to return all funds. I can not set a winner. "
      },
      "step1checkMarketsResolved()": {
        "notice": "/////////// MARKET RESOLUTION FUNCTIONS ////////////// the first of three functions which must be called, one after the other, to conclude the competitionwinnings can be paid out (or funds returned) only when these two steps are completedthis function checks whether the Augur markets have resolved, and if yes, whether they resolved correct or not"
      },
      "step2withdrawFromAugur()": {
        "notice": "the second of the three functions which must be called, one after the other, to conclude the competition"
      },
      "step3payAndrew()": {
        "notice": "the final of the three functions which must be called, one after the other, to conclude the competitionpays me my 1% if markets resolved correctly. If not I don't deserve shit"
      },
      "withdrawDeposit(uint256,uint256)": {
        "notice": "withdraw deposit"
      },
      "withdrawDepositAfterResolution()": {
        "notice": "withdraw full deposit after markets have resolved"
      }
    }
  }
}