{
  "contractName": "Harber",
  "abi": [
    {
      "constant": true,
      "inputs": [
        {
          "name": "",
          "type": "uint256"
        }
      ],
      "name": "currentCollected",
      "outputs": [
        {
          "name": "",
          "type": "uint256"
        }
      ],
      "payable": false,
      "stateMutability": "view",
      "type": "function"
    },
    {
      "constant": true,
      "inputs": [
        {
          "name": "",
          "type": "uint256"
        },
        {
          "name": "",
          "type": "address"
        }
      ],
      "name": "timeHeld",
      "outputs": [
        {
          "name": "",
          "type": "uint256"
        }
      ],
      "payable": false,
      "stateMutability": "view",
      "type": "function"
    },
    {
      "constant": true,
      "inputs": [
        {
          "name": "",
          "type": "uint256"
        }
      ],
      "name": "price",
      "outputs": [
        {
          "name": "",
          "type": "uint256"
        }
      ],
      "payable": false,
      "stateMutability": "view",
      "type": "function"
    },
    {
      "constant": true,
      "inputs": [
        {
          "name": "",
          "type": "uint256"
        }
      ],
      "name": "state",
      "outputs": [
        {
          "name": "",
          "type": "uint8"
        }
      ],
      "payable": false,
      "stateMutability": "view",
      "type": "function"
    },
    {
      "constant": true,
      "inputs": [],
      "name": "version",
      "outputs": [
        {
          "name": "",
          "type": "uint256"
        }
      ],
      "payable": false,
      "stateMutability": "view",
      "type": "function"
    },
    {
      "constant": true,
      "inputs": [
        {
          "name": "",
          "type": "uint256"
        }
      ],
      "name": "timeAcquired",
      "outputs": [
        {
          "name": "",
          "type": "uint256"
        }
      ],
      "payable": false,
      "stateMutability": "view",
      "type": "function"
    },
    {
      "constant": true,
      "inputs": [
        {
          "name": "",
          "type": "uint256"
        },
        {
          "name": "",
          "type": "address"
        }
      ],
      "name": "owners",
      "outputs": [
        {
          "name": "",
          "type": "bool"
        }
      ],
      "payable": false,
      "stateMutability": "view",
      "type": "function"
    },
    {
      "constant": true,
      "inputs": [],
      "name": "team",
      "outputs": [
        {
          "name": "",
          "type": "address"
        }
      ],
      "payable": false,
      "stateMutability": "view",
      "type": "function"
    },
    {
      "constant": true,
      "inputs": [
        {
          "name": "",
          "type": "uint256"
        }
      ],
      "name": "timeLastCollected",
      "outputs": [
        {
          "name": "",
          "type": "uint256"
        }
      ],
      "payable": false,
      "stateMutability": "view",
      "type": "function"
    },
    {
      "constant": true,
      "inputs": [],
      "name": "cash",
      "outputs": [
        {
          "name": "",
          "type": "address"
        }
      ],
      "payable": false,
      "stateMutability": "view",
      "type": "function"
    },
    {
      "constant": true,
      "inputs": [],
      "name": "andrewsAddress",
      "outputs": [
        {
          "name": "",
          "type": "address"
        }
      ],
      "payable": false,
      "stateMutability": "view",
      "type": "function"
    },
    {
      "constant": true,
      "inputs": [
        {
          "name": "",
          "type": "uint256"
        }
      ],
      "name": "deposit",
      "outputs": [
        {
          "name": "",
          "type": "uint256"
        }
      ],
      "payable": false,
      "stateMutability": "view",
      "type": "function"
    },
    {
      "constant": true,
      "inputs": [],
      "name": "augurFund",
      "outputs": [
        {
          "name": "",
          "type": "uint256"
        }
      ],
      "payable": false,
      "stateMutability": "view",
      "type": "function"
    },
    {
      "constant": true,
      "inputs": [
        {
          "name": "",
          "type": "address"
        }
      ],
      "name": "testDaiBalances",
      "outputs": [
        {
          "name": "",
          "type": "uint256"
        }
      ],
      "payable": false,
      "stateMutability": "view",
      "type": "function"
    },
    {
      "constant": true,
      "inputs": [],
      "name": "totalCollected",
      "outputs": [
        {
          "name": "",
          "type": "uint256"
        }
      ],
      "payable": false,
      "stateMutability": "view",
      "type": "function"
    },
    {
      "inputs": [
        {
          "name": "_andrewsAddress",
          "type": "address"
        },
        {
          "name": "_addressOfToken",
          "type": "address"
        },
        {
          "name": "_addressOfCashContract",
          "type": "address"
        }
      ],
      "payable": false,
      "stateMutability": "nonpayable",
      "type": "constructor"
    },
    {
      "anonymous": false,
      "inputs": [
        {
          "indexed": true,
          "name": "owner",
          "type": "address"
        },
        {
          "indexed": true,
          "name": "price",
          "type": "uint256"
        }
      ],
      "name": "LogBuy",
      "type": "event"
    },
    {
      "anonymous": false,
      "inputs": [
        {
          "indexed": true,
          "name": "newPrice",
          "type": "uint256"
        }
      ],
      "name": "LogPriceChange",
      "type": "event"
    },
    {
      "anonymous": false,
      "inputs": [
        {
          "indexed": true,
          "name": "prevOwner",
          "type": "address"
        }
      ],
      "name": "LogForeclosure",
      "type": "event"
    },
    {
      "anonymous": false,
      "inputs": [
        {
          "indexed": true,
          "name": "collected",
          "type": "uint256"
        }
      ],
      "name": "LogCollection",
      "type": "event"
    },
    {
      "anonymous": false,
      "inputs": [
        {
          "indexed": true,
          "name": "newPrice",
          "type": "uint256"
        },
        {
          "indexed": true,
          "name": "currentPrice",
          "type": "uint256"
        }
      ],
      "name": "TestEvent",
      "type": "event"
    },
    {
      "constant": false,
      "inputs": [],
      "name": "getTestDai",
      "outputs": [],
      "payable": false,
      "stateMutability": "nonpayable",
      "type": "function"
    },
    {
      "constant": true,
      "inputs": [],
      "name": "getTestDaiBalance",
      "outputs": [
        {
          "name": "",
          "type": "uint256"
        }
      ],
      "payable": false,
      "stateMutability": "view",
      "type": "function"
    },
    {
      "constant": true,
      "inputs": [
        {
          "name": "_tokenId",
          "type": "uint256"
        }
      ],
      "name": "getPrice",
      "outputs": [
        {
          "name": "",
          "type": "uint256"
        }
      ],
      "payable": false,
      "stateMutability": "view",
      "type": "function"
    },
    {
      "constant": true,
      "inputs": [
        {
          "name": "_tokenId",
          "type": "uint256"
        }
      ],
      "name": "augurFundsOwed",
      "outputs": [
        {
          "name": "augurFundsDue",
          "type": "uint256"
        }
      ],
      "payable": false,
      "stateMutability": "view",
      "type": "function"
    },
    {
      "constant": true,
      "inputs": [
        {
          "name": "_tokenId",
          "type": "uint256"
        }
      ],
      "name": "augurFundsOwedWithTimestamp",
      "outputs": [
        {
          "name": "augurFundsDue",
          "type": "uint256"
        },
        {
          "name": "timestamp",
          "type": "uint256"
        }
      ],
      "payable": false,
      "stateMutability": "view",
      "type": "function"
    },
    {
      "constant": true,
      "inputs": [
        {
          "name": "_tokenId",
          "type": "uint256"
        }
      ],
      "name": "foreclosed",
      "outputs": [
        {
          "name": "",
          "type": "bool"
        }
      ],
      "payable": false,
      "stateMutability": "view",
      "type": "function"
    },
    {
      "constant": true,
      "inputs": [
        {
          "name": "_tokenId",
          "type": "uint256"
        }
      ],
      "name": "depositAbleToWithdraw",
      "outputs": [
        {
          "name": "",
          "type": "uint256"
        }
      ],
      "payable": false,
      "stateMutability": "view",
      "type": "function"
    },
    {
      "constant": true,
      "inputs": [
        {
          "name": "_tokenId",
          "type": "uint256"
        }
      ],
      "name": "foreclosureTime",
      "outputs": [
        {
          "name": "",
          "type": "uint256"
        }
      ],
      "payable": false,
      "stateMutability": "view",
      "type": "function"
    },
    {
      "constant": false,
      "inputs": [
        {
          "name": "_tokenId",
          "type": "uint256"
        }
      ],
      "name": "_collectAugurFunds",
      "outputs": [],
      "payable": false,
      "stateMutability": "nonpayable",
      "type": "function"
    },
    {
      "constant": false,
      "inputs": [
        {
          "name": "_tokenId",
          "type": "uint256"
        }
      ],
      "name": "depositWei",
      "outputs": [],
      "payable": true,
      "stateMutability": "payable",
      "type": "function"
    },
    {
      "constant": false,
      "inputs": [
        {
          "name": "_newPrice",
          "type": "uint256"
        },
        {
          "name": "_tokenId",
          "type": "uint256"
        },
        {
          "name": "_deposit",
          "type": "uint256"
        }
      ],
      "name": "buy",
      "outputs": [],
      "payable": false,
      "stateMutability": "nonpayable",
      "type": "function"
    },
    {
      "constant": false,
      "inputs": [
        {
          "name": "_newPrice",
          "type": "uint256"
        },
        {
          "name": "_tokenId",
          "type": "uint256"
        }
      ],
      "name": "changePrice",
      "outputs": [],
      "payable": false,
      "stateMutability": "nonpayable",
      "type": "function"
    },
    {
      "constant": false,
      "inputs": [
        {
          "name": "_wei",
          "type": "uint256"
        },
        {
          "name": "_tokenId",
          "type": "uint256"
        }
      ],
      "name": "withdrawDeposit",
      "outputs": [
        {
          "name": "",
          "type": "uint256"
        }
      ],
      "payable": false,
      "stateMutability": "nonpayable",
      "type": "function"
    },
    {
      "constant": false,
      "inputs": [],
      "name": "withdrawAugurFunds",
      "outputs": [],
      "payable": false,
      "stateMutability": "nonpayable",
      "type": "function"
    },
    {
      "constant": false,
      "inputs": [
        {
          "name": "_tokenId",
          "type": "uint256"
        }
      ],
      "name": "exit",
      "outputs": [],
      "payable": false,
      "stateMutability": "nonpayable",
      "type": "function"
    }
  ],
  "bytecode": "0x60806040523480156200001157600080fd5b5060405160608062002490833981018060405260608110156200003357600080fd5b8101908080519060200190929190805190602001909291908051906020019092919050505081600260006101000a81548173ffffffffffffffffffffffffffffffffffffffff021916908373ffffffffffffffffffffffffffffffffffffffff160217905550600260009054906101000a900473ffffffffffffffffffffffffffffffffffffffff1673ffffffffffffffffffffffffffffffffffffffff1663ba0bba406040518163ffffffff1660e01b8152600401600060405180830381600087803b1580156200010457600080fd5b505af115801562000119573d6000803e3d6000fd5b5050505082600b60006101000a81548173ffffffffffffffffffffffffffffffffffffffff021916908373ffffffffffffffffffffffffffffffffffffffff160217905550600060126000600281106200016f57fe5b602091828204019190066101000a81548160ff021916908360018111156200019357fe5b021790555060006012600160028110620001a957fe5b602091828204019190066101000a81548160ff02191690836001811115620001cd57fe5b021790555080600360006101000a81548173ffffffffffffffffffffffffffffffffffffffff021916908373ffffffffffffffffffffffffffffffffffffffff16021790555050505061226a80620002266000396000f3fe6080604052600436106101cd5760003560e01c806385f2aef2116100f7578063b8dc6d7411610095578063e29eb83611610064578063e29eb83614610976578063e6a9d429146109a1578063e7572230146109f0578063f3cebadb14610a3f576101cd565b8063b8dc6d741461083e578063bae04c9a14610869578063cb294177146108c2578063e1c214c614610927576101cd565b8063994ec705116100d1578063994ec70514610725578063a3f81da01461077c578063b3de019c146107aa578063b6b55f25146107ef576101cd565b806385f2aef2146106285780638cb688991461067f578063961be391146106ce576101cd565b80633317de7a1161016f57806354fd4d501161013e57806354fd4d50146105005780635b2ace641461052b5780635e104def1461057a5780637f8661a1146105ed576101cd565b80633317de7a14610402578063391edb3a146104195780633e4f49e61461045457806340993b26146104b1576101cd565b8063237b5e4f116101ab578063237b5e4f146102ca57806323ebc82b1461033957806326a49e3714610388578063321c7771146103d7576101cd565b80631b252781146101d25780631e8b76ad14610221578063224ce1b914610274575b600080fd5b3480156101de57600080fd5b5061020b600480360360208110156101f557600080fd5b8101908080359060200190929190505050610a56565b6040518082815260200191505060405180910390f35b34801561022d57600080fd5b5061025a6004803603602081101561024457600080fd5b8101908080359060200190929190505050610a6e565b604051808215151515815260200191505060405180910390f35b34801561028057600080fd5b506102ad6004803603602081101561029757600080fd5b8101908080359060200190929190505050610aa6565b604051808381526020018281526020019250505060405180910390f35b3480156102d657600080fd5b50610323600480360360408110156102ed57600080fd5b8101908080359060200190929190803573ffffffffffffffffffffffffffffffffffffffff169060200190929190505050610abc565b6040518082815260200191505060405180910390f35b34801561034557600080fd5b506103726004803603602081101561035c57600080fd5b8101908080359060200190929190505050610ae1565b6040518082815260200191505060405180910390f35b34801561039457600080fd5b506103c1600480360360208110156103ab57600080fd5b8101908080359060200190929190505050610b38565b6040518082815260200191505060405180910390f35b3480156103e357600080fd5b506103ec610b50565b6040518082815260200191505060405180910390f35b34801561040e57600080fd5b50610417610b97565b005b34801561042557600080fd5b506104526004803603602081101561043c57600080fd5b8101908080359060200190929190505050610ccf565b005b34801561046057600080fd5b5061048d6004803603602081101561047757600080fd5b8101908080359060200190929190505050610eb7565b6040518082600181111561049d57fe5b60ff16815260200191505060405180910390f35b3480156104bd57600080fd5b506104fe600480360360608110156104d457600080fd5b81019080803590602001909291908035906020019092919080359060200190929190505050610ede565b005b34801561050c57600080fd5b506105156112f1565b6040518082815260200191505060405180910390f35b34801561053757600080fd5b506105646004803603602081101561054e57600080fd5b81019080803590602001909291905050506112f6565b6040518082815260200191505060405180910390f35b34801561058657600080fd5b506105d36004803603604081101561059d57600080fd5b8101908080359060200190929190803573ffffffffffffffffffffffffffffffffffffffff16906020019092919050505061130e565b604051808215151515815260200191505060405180910390f35b3480156105f957600080fd5b506106266004803603602081101561061057600080fd5b810190808035906020019092919050505061133d565b005b34801561063457600080fd5b5061063d6114b3565b604051808273ffffffffffffffffffffffffffffffffffffffff1673ffffffffffffffffffffffffffffffffffffffff16815260200191505060405180910390f35b34801561068b57600080fd5b506106b8600480360360208110156106a257600080fd5b81019080803590602001909291905050506114d9565b6040518082815260200191505060405180910390f35b3480156106da57600080fd5b506106e36114f1565b604051808273ffffffffffffffffffffffffffffffffffffffff1673ffffffffffffffffffffffffffffffffffffffff16815260200191505060405180910390f35b34801561073157600080fd5b5061073a611517565b604051808273ffffffffffffffffffffffffffffffffffffffff1673ffffffffffffffffffffffffffffffffffffffff16815260200191505060405180910390f35b6107a86004803603602081101561079257600080fd5b810190808035906020019092919050505061153d565b005b3480156107b657600080fd5b506107ed600480360360408110156107cd57600080fd5b81019080803590602001909291908035906020019092919050505061162d565b005b3480156107fb57600080fd5b506108286004803603602081101561081257600080fd5b8101908080359060200190929190505050611900565b6040518082815260200191505060405180910390f35b34801561084a57600080fd5b50610853611918565b6040518082815260200191505060405180910390f35b34801561087557600080fd5b506108ac6004803603604081101561088c57600080fd5b81019080803590602001909291908035906020019092919050505061191e565b6040518082815260200191505060405180910390f35b3480156108ce57600080fd5b50610911600480360360208110156108e557600080fd5b81019080803573ffffffffffffffffffffffffffffffffffffffff169060200190929190505050611a8b565b6040518082815260200191505060405180910390f35b34801561093357600080fd5b506109606004803603602081101561094a57600080fd5b8101908080359060200190929190505050611aa3565b6040518082815260200191505060405180910390f35b34801561098257600080fd5b5061098b611af2565b6040518082815260200191505060405180910390f35b3480156109ad57600080fd5b506109da600480360360208110156109c457600080fd5b8101908080359060200190929190505050611af8565b6040518082815260200191505060405180910390f35b3480156109fc57600080fd5b50610a2960048036036020811015610a1357600080fd5b8101908080359060200190929190505050611b58565b6040518082815260200191505060405180910390f35b348015610a4b57600080fd5b50610a54611b6f565b005b60058160028110610a6357fe5b016000915090505481565b600080610a7a83611af8565b905060098360028110610a8957fe5b01548110610a9b576001915050610aa1565b60009150505b919050565b600080610ab283611af8565b4291509150915091565b600e602052816000526040600020602052806000526040600020600091509150505481565b600080610aed83611af8565b905060098360028110610afc57fe5b01548110610b0e576000915050610b33565b610b2f8160098560028110610b1f57fe5b0154611c9590919063ffffffff16565b9150505b919050565b60008160028110610b4557fe5b016000915090505481565b6000600f60003373ffffffffffffffffffffffffffffffffffffffff1673ffffffffffffffffffffffffffffffffffffffff16815260200190815260200160002054905090565b600b60009054906101000a900473ffffffffffffffffffffffffffffffffffffffff1673ffffffffffffffffffffffffffffffffffffffff163373ffffffffffffffffffffffffffffffffffffffff1614610c5a576040517f08c379a000000000000000000000000000000000000000000000000000000000815260040180806020018281038252600a8152602001807f4e6f7420616e647265770000000000000000000000000000000000000000000081525060200191505060405180910390fd5b600b60009054906101000a900473ffffffffffffffffffffffffffffffffffffffff1673ffffffffffffffffffffffffffffffffffffffff166108fc600c549081150290604051600060405180830381858888f19350505050158015610cc4573d6000803e3d6000fd5b506000600c81905550565b600180811115610cdb57fe5b60128260028110610ce857fe5b602091828204019190069054906101000a900460ff166001811115610d0957fe5b1415610eb4576000610d1a82611af8565b905060098260028110610d2957fe5b01548110610dd557610da4610d8782610d7960098660028110610d4857fe5b0154610d6b60078860028110610d5a57fe5b015442611c9590919063ffffffff16565b611cb590919063ffffffff16565b611cef90919063ffffffff16565b60078460028110610d9457fe5b0154611d1590919063ffffffff16565b60078360028110610db157fe5b018190555060098260028110610dc357fe5b01549050610dd082611d34565b610e1c565b4260078360028110610de357fe5b0181905550610e098160058460028110610df957fe5b0154611d1590919063ffffffff16565b60058360028110610e1657fe5b01819055505b610e3d8160098460028110610e2d57fe5b0154611c9590919063ffffffff16565b60098360028110610e4a57fe5b0181905550610e6481600454611d1590919063ffffffff16565b600481905550610e7f81600c54611d1590919063ffffffff16565b600c81905550807f54acb82a9e70d7c289b149758d23167c915428ae854a7aa4abe5bf2f4ef29f3660405160405180910390a2505b50565b60128160028110610ec457fe5b60209182820401919006915054906101000a900460ff1681565b81610ee881610ccf565b60008360028110610ef557fe5b01548411610f4e576040517f08c379a00000000000000000000000000000000000000000000000000000000081526004018080602001828103825260278152602001806122186027913960400191505060405180910390fd5b60008211610fc4576040517f08c379a00000000000000000000000000000000000000000000000000000000081526004018080602001828103825260168152602001807f4d757374206465706f73697420736f6d657468696e670000000000000000000081525060200191505060405180910390fd5b81600f60003373ffffffffffffffffffffffffffffffffffffffff1673ffffffffffffffffffffffffffffffffffffffff1681526020019081526020016000205411611078576040517f08c379a000000000000000000000000000000000000000000000000000000000815260040180806020018281038252600e8152602001807f4e6f7420656e6f7567682044414900000000000000000000000000000000000081525060200191505060405180910390fd5b6110ca82600f60003373ffffffffffffffffffffffffffffffffffffffff1673ffffffffffffffffffffffffffffffffffffffff16815260200190815260200160002054611c9590919063ffffffff16565b600f60003373ffffffffffffffffffffffffffffffffffffffff1673ffffffffffffffffffffffffffffffffffffffff168152602001908152602001600020819055506000600260009054906101000a900473ffffffffffffffffffffffffffffffffffffffff1673ffffffffffffffffffffffffffffffffffffffff16636352211e856040518263ffffffff1660e01b81526004018082815260200191505060206040518083038186803b15801561118257600080fd5b505afa158015611196573d6000803e3d6000fd5b505050506040513d60208110156111ac57600080fd5b81019080805190602001909291905050509050600060018111156111cc57fe5b601285600281106111d957fe5b602091828204019190069054906101000a900460ff1660018111156111fa57fe5b141561124b5760016012856002811061120f57fe5b602091828204019190066101000a81548160ff0219169083600181111561123257fe5b0217905550426007856002811061124557fe5b01819055505b826009856002811061125957fe5b018190555061126a81338787611e85565b6000846002811061127757fe5b0154857ff3ca124a697ba07e8c5e80bebcfcc48991fc16a63170e8a9206e30508960d00360405160405180910390a3843373ffffffffffffffffffffffffffffffffffffffff167f4f79409f494e81c38036d80aa8a6507c2cb08d90bfb2fead5519447646b3497e60405160405180910390a35050505050565b600481565b6010816002811061130357fe5b016000915090505481565b600d6020528160005260406000206020528060005260406000206000915091509054906101000a900460ff1681565b80600260009054906101000a900473ffffffffffffffffffffffffffffffffffffffff1673ffffffffffffffffffffffffffffffffffffffff16636352211e826040518263ffffffff1660e01b81526004018082815260200191505060206040518083038186803b1580156113b157600080fd5b505afa1580156113c5573d6000803e3d6000fd5b505050506040513d60208110156113db57600080fd5b810190808051906020019092919050505073ffffffffffffffffffffffffffffffffffffffff163373ffffffffffffffffffffffffffffffffffffffff161461148c576040517f08c379a00000000000000000000000000000000000000000000000000000000081526004018080602001828103825260098152602001807f4e6f74206f776e6572000000000000000000000000000000000000000000000081525060200191505060405180910390fd5b8161149681610ccf565b6114ae600984600281106114a657fe5b0154846120f4565b505050565b600260009054906101000a900473ffffffffffffffffffffffffffffffffffffffff1681565b600781600281106114e657fe5b016000915090505481565b600360009054906101000a900473ffffffffffffffffffffffffffffffffffffffff1681565b600b60009054906101000a900473ffffffffffffffffffffffffffffffffffffffff1681565b8061154781610ccf565b6000600181111561155457fe5b6012836002811061156157fe5b602091828204019190069054906101000a900460ff16600181111561158257fe5b14156115f6576040517f08c379a000000000000000000000000000000000000000000000000000000000815260040180806020018281038252600a8152602001807f466f7265636c6f7365640000000000000000000000000000000000000000000081525060200191505060405180910390fd5b611617346009846002811061160757fe5b0154611d1590919063ffffffff16565b6009836002811061162457fe5b01819055505050565b80600260009054906101000a900473ffffffffffffffffffffffffffffffffffffffff1673ffffffffffffffffffffffffffffffffffffffff16636352211e826040518263ffffffff1660e01b81526004018082815260200191505060206040518083038186803b1580156116a157600080fd5b505afa1580156116b5573d6000803e3d6000fd5b505050506040513d60208110156116cb57600080fd5b810190808051906020019092919050505073ffffffffffffffffffffffffffffffffffffffff163373ffffffffffffffffffffffffffffffffffffffff161461177c576040517f08c379a00000000000000000000000000000000000000000000000000000000081526004018080602001828103825260098152602001807f4e6f74206f776e6572000000000000000000000000000000000000000000000081525060200191505060405180910390fd5b8161178681610ccf565b6000600181111561179357fe5b601284600281106117a057fe5b602091828204019190069054906101000a900460ff1660018111156117c157fe5b1415611835576040517f08c379a000000000000000000000000000000000000000000000000000000000815260040180806020018281038252600a8152602001807f466f7265636c6f7365640000000000000000000000000000000000000000000081525060200191505060405180910390fd5b60008414156118ac576040517f08c379a000000000000000000000000000000000000000000000000000000000815260040180806020018281038252600f8152602001807f496e636f7272656374205072696365000000000000000000000000000000000081525060200191505060405180910390fd5b83600084600281106118ba57fe5b0181905550600083600281106118cc57fe5b01547f854d6511a28585103049c7770618450f7c9aeb580c69db2913d63869663f475160405160405180910390a250505050565b6009816002811061190d57fe5b016000915090505481565b600c5481565b600081600260009054906101000a900473ffffffffffffffffffffffffffffffffffffffff1673ffffffffffffffffffffffffffffffffffffffff16636352211e826040518263ffffffff1660e01b81526004018082815260200191505060206040518083038186803b15801561199457600080fd5b505afa1580156119a8573d6000803e3d6000fd5b505050506040513d60208110156119be57600080fd5b810190808051906020019092919050505073ffffffffffffffffffffffffffffffffffffffff163373ffffffffffffffffffffffffffffffffffffffff1614611a6f576040517f08c379a00000000000000000000000000000000000000000000000000000000081526004018080602001828103825260098152602001807f4e6f74206f776e6572000000000000000000000000000000000000000000000081525060200191505060405180910390fd5b82611a7981610ccf565b611a8385856120f4565b505092915050565b600f6020528060005260406000206000915090505481565b600080611acb6301e1338060008560028110611abb57fe5b0154611cef90919063ffffffff16565b9050611ae881611ada85610ae1565b611cef90919063ffffffff16565b4201915050919050565b60045481565b6000611b516301e13380611b43611b2660078660028110611b1557fe5b015442611c9590919063ffffffff16565b60008660028110611b3357fe5b0154611cb590919063ffffffff16565b611cef90919063ffffffff16565b9050919050565b6000808260028110611b6657fe5b01549050919050565b600360009054906101000a900473ffffffffffffffffffffffffffffffffffffffff1673ffffffffffffffffffffffffffffffffffffffff16635791589768056bc75e2d631000006040518263ffffffff1660e01b815260040180828152602001915050600060405180830381600087803b158015611bed57600080fd5b505af1158015611c01573d6000803e3d6000fd5b5050505068056bc75e2d63100000600f60003373ffffffffffffffffffffffffffffffffffffffff1673ffffffffffffffffffffffffffffffffffffffff1681526020019081526020016000205401600f60003373ffffffffffffffffffffffffffffffffffffffff1673ffffffffffffffffffffffffffffffffffffffff16815260200190815260200160002081905550565b600082821115611ca457600080fd5b600082840390508091505092915050565b600080831415611cc85760009050611ce9565b6000828402905082848281611cd957fe5b0414611ce457600080fd5b809150505b92915050565b6000808211611cfd57600080fd5b6000828481611d0857fe5b0490508091505092915050565b600080828401905083811015611d2a57600080fd5b8091505092915050565b6000600260009054906101000a900473ffffffffffffffffffffffffffffffffffffffff1673ffffffffffffffffffffffffffffffffffffffff16636352211e836040518263ffffffff1660e01b81526004018082815260200191505060206040518083038186803b158015611da957600080fd5b505afa158015611dbd573d6000803e3d6000fd5b505050506040513d6020811015611dd357600080fd5b81019080805190602001909291905050509050611df38130600085611e85565b600060128360028110611e0257fe5b602091828204019190066101000a81548160ff02191690836001811115611e2557fe5b0217905550600060058360028110611e3957fe5b01819055508073ffffffffffffffffffffffffffffffffffffffff167f6d6bbefef62d4cb6d0e3a4dd306a71d3632319b1e03659513df86b247dd657fe60405160405180910390a25050565b611f16611eb760108360028110611e9857fe5b015460078460028110611ea757fe5b0154611c9590919063ffffffff16565b600e600084815260200190815260200160002060008773ffffffffffffffffffffffffffffffffffffffff1673ffffffffffffffffffffffffffffffffffffffff16815260200190815260200160002054611d1590919063ffffffff16565b600e600083815260200190815260200160002060008673ffffffffffffffffffffffffffffffffffffffff1673ffffffffffffffffffffffffffffffffffffffff16815260200190815260200160002081905550600260009054906101000a900473ffffffffffffffffffffffffffffffffffffffff1673ffffffffffffffffffffffffffffffffffffffff166323b872dd8585846040518463ffffffff1660e01b8152600401808473ffffffffffffffffffffffffffffffffffffffff1673ffffffffffffffffffffffffffffffffffffffff1681526020018373ffffffffffffffffffffffffffffffffffffffff1673ffffffffffffffffffffffffffffffffffffffff1681526020018281526020019350505050600060405180830381600087803b15801561204757600080fd5b505af115801561205b573d6000803e3d6000fd5b50505050816000826002811061206d57fe5b0181905550426010826002811061208057fe5b01819055506001600d600083815260200190815260200160002060008573ffffffffffffffffffffffffffffffffffffffff1673ffffffffffffffffffffffffffffffffffffffff16815260200190815260200160002060006101000a81548160ff02191690831515021790555050505050565b816009826002811061210257fe5b01541015612178576040517f08c379a00000000000000000000000000000000000000000000000000000000081526004018080602001828103825260148152602001807f5769746864726177696e6720746f6f206d75636800000000000000000000000081525060200191505060405180910390fd5b612199826009836002811061218957fe5b0154611c9590919063ffffffff16565b600982600281106121a657fe5b01819055503373ffffffffffffffffffffffffffffffffffffffff166108fc839081150290604051600060405180830381858888f193505050501580156121f1573d6000803e3d6000fd5b5060006009826002811061220157fe5b015414156122135761221281611d34565b5b505056fe5072696365206d75737420626520686967686572207468616e2063757272656e74207072696365a165627a7a723058202c61f6efbbd6c0b29eae6e7887fa058cf67e26cef9374b0e5c5c4fd079ce50490029",
  "source": "\n// File: contracts/interfaces/IERC165.sol\n\npragma solidity ^0.5.0;\n\n/**\n * @title IERC165\n * @dev https://github.com/ethereum/EIPs/blob/master/EIPS/eip-165.md\n */\ninterface IERC165 {\n    /**\n     * @notice Query if a contract implements an interface\n     * @param interfaceId The interface identifier, as specified in ERC-165\n     * @dev Interface identification is specified in ERC-165. This function\n     * uses less than 30,000 gas.\n     */\n    function supportsInterface(bytes4 interfaceId) external view returns (bool);\n}\n\n// File: contracts/interfaces/IERC721.sol\n\npragma solidity ^0.5.0;\n\n\n/**\n * @title ERC721 Non-Fungible Token Standard basic interface\n * @dev see https://github.com/ethereum/EIPs/blob/master/EIPS/eip-721.md\n */\ncontract IERC721 is IERC165 {\n    event Transfer(address indexed from, address indexed to, uint256 indexed tokenId);\n    event Approval(address indexed owner, address indexed approved, uint256 indexed tokenId);\n    event ApprovalForAll(address indexed owner, address indexed operator, bool approved);\n\n    function setup() public;\n\n    function balanceOf(address owner) public view returns (uint256 balance);\n    function ownerOf(uint256 tokenId) public view returns (address owner);\n\n    function approve(address to, uint256 tokenId) public;\n    function getApproved(uint256 tokenId) public view returns (address operator);\n\n    function setApprovalForAll(address operator, bool _approved) public;\n    function isApprovedForAll(address owner, address operator) public view returns (bool);\n\n    function transferFrom(address from, address to, uint256 tokenId) public;\n    function safeTransferFrom(address from, address to, uint256 tokenId) public;\n\n    function safeTransferFrom(address from, address to, uint256 tokenId, bytes memory data) public;\n}\n\n// File: contracts/interfaces/IERC721Enumerable.sol\n\npragma solidity ^0.5.0;\n\n\n/**\n * @title ERC-721 Non-Fungible Token Standard, optional enumeration extension\n * @dev See https://github.com/ethereum/EIPs/blob/master/EIPS/eip-721.md\n */\ncontract IERC721Enumerable is IERC721 {\n    function totalSupply() public view returns (uint256);\n    function tokenOfOwnerByIndex(address owner, uint256 index) public view returns (uint256 tokenId);\n\n    function tokenByIndex(uint256 index) public view returns (uint256);\n}\n\n// File: contracts/interfaces/IERC721Metadata.sol\n\npragma solidity ^0.5.0;\n\n\n/**\n * @title ERC-721 Non-Fungible Token Standard, optional metadata extension\n * @dev See https://github.com/ethereum/EIPs/blob/master/EIPS/eip-721.md\n */\ncontract IERC721Metadata is IERC721 {\n    function name() external view returns (string memory);\n    function symbol() external view returns (string memory);\n    function tokenURI(uint256 tokenId) external view returns (string memory);\n}\n\n// File: contracts/interfaces/IERC721Full.sol\n\npragma solidity ^0.5.0;\n\n\n\n\n/**\n * @title ERC-721 Non-Fungible Token Standard, full implementation interface\n * @dev See https://github.com/ethereum/EIPs/blob/master/EIPS/eip-721.md\n */\ncontract IERC721Full is IERC721, IERC721Enumerable, IERC721Metadata {\n    // solhint-disable-previous-line no-empty-blocks\n}\n\n// File: contracts/utils/SafeMath.sol\n\npragma solidity ^0.5.0;\n\n/**\n * @title SafeMath\n * @dev Unsigned math operations with safety checks that revert on error\n */\nlibrary SafeMath {\n    /**\n     * @dev Multiplies two unsigned integers, reverts on overflow.\n     */\n    function mul(uint256 a, uint256 b) internal pure returns (uint256) {\n        // Gas optimization: this is cheaper than requiring 'a' not being zero, but the\n        // benefit is lost if 'b' is also tested.\n        // See: https://github.com/OpenZeppelin/openzeppelin-solidity/pull/522\n        if (a == 0) {\n            return 0;\n        }\n\n        uint256 c = a * b;\n        require(c / a == b);\n\n        return c;\n    }\n\n    /**\n     * @dev Integer division of two unsigned integers truncating the quotient, reverts on division by zero.\n     */\n    function div(uint256 a, uint256 b) internal pure returns (uint256) {\n        // Solidity only automatically asserts when dividing by 0\n        require(b > 0);\n        uint256 c = a / b;\n        // assert(a == b * c + a % b); // There is no case in which this doesn't hold\n\n        return c;\n    }\n\n    /**\n     * @dev Subtracts two unsigned integers, reverts on overflow (i.e. if subtrahend is greater than minuend).\n     */\n    function sub(uint256 a, uint256 b) internal pure returns (uint256) {\n        require(b <= a);\n        uint256 c = a - b;\n\n        return c;\n    }\n\n    /**\n     * @dev Adds two unsigned integers, reverts on overflow.\n     */\n    function add(uint256 a, uint256 b) internal pure returns (uint256) {\n        uint256 c = a + b;\n        require(c >= a);\n\n        return c;\n    }\n\n    /**\n     * @dev Divides two unsigned integers and returns the remainder (unsigned integer modulo),\n     * reverts when dividing by zero.\n     */\n    function mod(uint256 a, uint256 b) internal pure returns (uint256) {\n        require(b != 0);\n        return a % b;\n    }\n}\n\n// File: contracts/Harber.sol\n\npragma solidity ^0.5.0;\n\n\n\ninterface IMarket \n{\n    function getWinningPayoutNumerator(uint256 _outcome) external view returns (uint256);\n}\n\ninterface ShareToken \n\n{\n    function publicBuyCompleteSets(IMarket _market, uint256 _amount) external returns (bool)  ;\n    function publicSellCompleteSets(IMarket _market, uint256 _amount) external returns (uint256 _creatorFee, uint256 _reportingFee) ;\n}\n\ninterface Cash \n{\n    function approve(address _spender, uint256 _amount) external returns (bool);\n    function balanceOf(address _owner) external view returns (uint256);\n    function faucet(uint256 _amount) external;\n    function transfer(address _to, uint256 _amount) external returns (bool);\n    function transferFrom(address _from, address _to, uint256 _amount) external returns (bool);\n}\n\ncontract Harber {\n    \n    using SafeMath for uint256;\n    uint public constant version = 4;\n\n    uint256 constant numberOfOutcomes = 2; //TEST with two teams\n    uint256[numberOfOutcomes] public price; //in wei\n    IERC721Full public team; // ERC721 NFT.\n    \n    //Augur contracts\n    Cash public cash;\n    \n    uint256 public totalCollected; // total into my whiskey fund\n    uint256[numberOfOutcomes] public currentCollected; // amount currently collected for owner  \n    uint256[numberOfOutcomes] public timeLastCollected; // \n    uint256[numberOfOutcomes] public deposit;\n    address payable public andrewsAddress;\n    uint256 public augurFund;\n    \n    mapping (uint256 => mapping (address => bool) ) public owners;\n    mapping (uint256 => mapping (address => uint256) ) public timeHeld;\n    mapping (address => uint256) public testDaiBalances;\n\n    uint256[numberOfOutcomes] public timeAcquired;\n\n    enum ownedState { Foreclosed, Owned }\n    ownedState[numberOfOutcomes] public state;\n\n    constructor(address payable _andrewsAddress, address _addressOfToken, address _addressOfCashContract) public {\n        team = IERC721Full(_addressOfToken);\n        team.setup();\n        andrewsAddress = _andrewsAddress;\n        state[0] = ownedState.Foreclosed;\n        state[1] = ownedState.Foreclosed;\n\n        //Augur specific:\n        cash = Cash(_addressOfCashContract);\n    } \n\n    event LogBuy(address indexed owner, uint256 indexed price);\n    event LogPriceChange(uint256 indexed newPrice);\n    event LogForeclosure(address indexed prevOwner);\n    event LogCollection(uint256 indexed collected);\n    event TestEvent(uint256 indexed newPrice, uint256 indexed currentPrice);\n    \n    modifier onlyOwner(uint256 _tokenId) {\n        require(msg.sender == team.ownerOf(_tokenId), \"Not owner\");\n        _;\n    }\n\n    modifier collectAugurFunds(uint256 _tokenId) {\n       _collectAugurFunds(_tokenId); \n       _;\n    }\n\n    /* public view functions */\n    // function getTimeHeld(uint256 _tokenId, address _adress) public view returns (uint256)\n    // {\n    //     return timeHeld[_tokenId][_address];\n    // }\n\n    function getTestDai() public \n    {\n        cash.faucet(100000000000000000000);\n        ////below line = my original plan of actually sending the user dai \n        // cash.transfer(msg.sender, 98000000000000000000);\n        testDaiBalances[msg.sender]= testDaiBalances[msg.sender] + 100000000000000000000;\n    }\n\n    // function getTestDaiDelegate() public \n    // {\n    //     address(cash).delegatecall(abi.encodeWithSignature(\"faucet(uint256)\",97000000000000000000));\n    // }\n\n    function getTestDaiBalance() public view returns (uint)\n    {\n        ////below line = my original plan of actually sending the user dai \n        // return(cash.balanceOf(msg.sender));\n\n        ////im now keeping their dai in this contract\n        return(testDaiBalances[msg.sender]);\n    }\n\n    // function transferDaiToContract() public returns (uint)\n    // {\n    //     // string memory _callValue = \"transfer\"+ address(this) + \")\";\n    //     // address(cash).delegatecall(bytes4(keccak256(\"transfer(address,uint256)\")),address(this),100000000000000000000);\n    //     address(cash).delegatecall(abi.encodeWithSignature(\"transfer(address,uint256)\",address(this),123));\n    // }\n\n    // function approve1() public\n    // {\n    //     cash.approve(address(this),(2**256)-1);\n    //     // cash.approve(0xe2020A4a6B0a5D6C74c358e09B2b4758b5Cdb91C,(2**256)-1);\n    // }\n\n    // function approve2() public\n    // {\n    //     // cash.approve(address(this),(2**256)-1);\n    //     cash.approve(0xe2020A4a6B0a5D6C74c358e09B2b4758b5Cdb91C,(2**256)-1);\n    // }\n\n    function getPrice(uint256 _tokenId) public view returns (uint256)\n    {\n        return price[_tokenId];\n    }\n    function augurFundsOwed(uint256 _tokenId) public view returns (uint256 augurFundsDue) {\n        return price[_tokenId].mul(now.sub(timeLastCollected[_tokenId])).div(365 days);\n    }\n\n    function augurFundsOwedWithTimestamp(uint256 _tokenId) public view returns (uint256 augurFundsDue, uint256 timestamp) {\n        return (augurFundsOwed(_tokenId), now);\n    }\n\n    function foreclosed(uint256 _tokenId) public view returns (bool) {\n        // returns whether it is in foreclosed state or not\n        // depending on whether deposit covers patronage due\n        // useful helper function when price should be zero, but contract doesn't reflect it yet.\n        uint256 _collection = augurFundsOwed(_tokenId);\n        if(_collection >= deposit[_tokenId]) {\n            return true;\n        } else {\n            return false;\n        }\n    }\n\n    // same function as above, basically\n    function depositAbleToWithdraw(uint256 _tokenId) public view returns (uint256) {\n        uint256 _collection = augurFundsOwed(_tokenId);\n        if(_collection >= deposit[_tokenId]) {\n            return 0;\n        } else {\n            return deposit[_tokenId].sub(_collection);\n        }\n    }\n\n    /*\n    now + deposit/patronage per second \n    now + depositAbleToWithdraw/(price*nume/denom/365).\n    */\n    function foreclosureTime(uint256 _tokenId) public view returns (uint256) {\n        // patronage per second\n        uint256 pps = price[_tokenId].div(365 days);\n        return now + depositAbleToWithdraw(_tokenId).div(pps); // zero division if price is zero.\n        // return pps;\n    }\n\n    /* actions */\n    function _collectAugurFunds(uint256 _tokenId) public {\n        // determine patronage to pay\n        if (state[_tokenId] == ownedState.Owned) {\n            uint256 _collection = augurFundsOwed(_tokenId);\n            \n            // should foreclose and stake stewardship\n            if (_collection >= deposit[_tokenId]) {\n                // up to when was it actually paid for?\n                timeLastCollected[_tokenId] = timeLastCollected[_tokenId].add(((now.sub(timeLastCollected[_tokenId])).mul(deposit[_tokenId]).div(_collection)));\n                _collection = deposit[_tokenId]; // take what's left.\n\n                _foreclose(_tokenId);\n            } else  {\n                // just a normal collection\n                timeLastCollected[_tokenId] = now;\n                currentCollected[_tokenId] = currentCollected[_tokenId].add(_collection);\n            }\n            \n            deposit[_tokenId] = deposit[_tokenId].sub(_collection);\n            totalCollected = totalCollected.add(_collection);\n            augurFund = augurFund.add(_collection);\n            emit LogCollection(_collection);\n        }\n    }\n    \n    // note: anyone can deposit\n    function depositWei(uint256 _tokenId) public payable collectAugurFunds(_tokenId) {\n        require(state[_tokenId] != ownedState.Foreclosed, \"Foreclosed\");\n        deposit[_tokenId] = deposit[_tokenId].add(msg.value);\n    }\n    \n    //this function has been modified from the original so that you no longer pay the current owner back the price that they set. Therefore, your entire msg.value becomes your deposit\n    function buy(uint256 _newPrice, uint256 _tokenId, uint256 _deposit) public collectAugurFunds(_tokenId) {\n        require(_newPrice > price[_tokenId], \"Price must be higher than current price\");\n        require(_deposit > 0, \"Must deposit something\");\n        require(testDaiBalances[msg.sender] > _deposit, \"Not enough DAI\");\n\n        // approve();\n        // cash.transferFrom(msg.sender,address(this),_deposit);\n        testDaiBalances[msg.sender] = testDaiBalances[msg.sender].sub(_deposit);\n\n        address _currentOwner = team.ownerOf(_tokenId);\n\n        if(state[_tokenId] == ownedState.Foreclosed) \n        {\n            state[_tokenId] = ownedState.Owned;\n            timeLastCollected[_tokenId] = now;\n        }\n        \n        deposit[_tokenId] = _deposit;\n        transferTokenTo(_currentOwner, msg.sender, _newPrice, _tokenId);\n        emit TestEvent(_newPrice,price[_tokenId]);\n        emit LogBuy(msg.sender, _newPrice);\n    }\n\n    function changePrice(uint256 _newPrice, uint256 _tokenId) public onlyOwner(_tokenId) collectAugurFunds(_tokenId) {\n        require(state[_tokenId] != ownedState.Foreclosed, \"Foreclosed\");\n        require(_newPrice != 0, \"Incorrect Price\");\n        \n        price[_tokenId] = _newPrice;\n        emit LogPriceChange(price[_tokenId]);\n    }\n    \n    function withdrawDeposit(uint256 _wei, uint256 _tokenId) public onlyOwner(_tokenId) collectAugurFunds(_tokenId) returns (uint256) {\n        _withdrawDeposit(_wei, _tokenId);\n    }\n\n    function withdrawAugurFunds() public {\n        require(msg.sender == andrewsAddress, \"Not andrew\");\n        andrewsAddress.transfer(augurFund);\n        augurFund = 0;\n    }\n\n    function exit(uint256 _tokenId) public onlyOwner(_tokenId) collectAugurFunds(_tokenId) {\n        _withdrawDeposit(deposit[_tokenId],  _tokenId);\n    }\n\n    /* internal */\n\n    function _withdrawDeposit(uint256 _wei, uint256 _tokenId) internal {\n        // note: can withdraw whole deposit, which puts it in immediate to be foreclosed state.\n        require(deposit[_tokenId] >= _wei, 'Withdrawing too much');\n\n        deposit[_tokenId] = deposit[_tokenId].sub(_wei);\n        msg.sender.transfer(_wei); // msg.sender == patron\n\n        if(deposit[_tokenId] == 0) {\n            _foreclose(_tokenId);\n        }\n    }\n\n    function _foreclose(uint256 _tokenId) internal {\n        // become steward of artwork (aka foreclose)\n        address _currentOwner = team.ownerOf(_tokenId);\n        //final field is price, ie price goes to zero\n        transferTokenTo(_currentOwner, address(this), 0, _tokenId);\n        state[_tokenId] = ownedState.Foreclosed;\n        currentCollected[_tokenId] = 0;\n\n        emit LogForeclosure(_currentOwner);\n    }\n\n    function transferTokenTo(address _currentOwner, address _newOwner, uint256 _newPrice, uint256 _tokenId) internal {\n        // note: it would also tabulate time held in stewardship by smart contract\n        timeHeld[_tokenId][_currentOwner] = timeHeld[_tokenId][_currentOwner].add((timeLastCollected[_tokenId].sub(timeAcquired[_tokenId])));\n        \n        team.transferFrom(_currentOwner, _newOwner, _tokenId);\n\n        price[_tokenId] = _newPrice;\n        timeAcquired[_tokenId] = now;\n        owners[_tokenId][_newOwner] = true;\n    }\n}\n",
  "sourcePath": "/Users/mcplums/Repos/Harber/contracts/HarberFlattened.sol",
  "compiler": {
    "name": "solc",
    "version": "0.5.8+commit.23d335f2.Emscripten.clang"
  },
  "schemaVersion": "3.0.17",
  "updatedAt": "2019-12-04T09:29:40.992Z",
  "networkType": "ethereum",
  "devdoc": {
    "methods": {}
  },
  "userdoc": {
    "methods": {}
  }
}