{
  "contractName": "Harber",
  "abi": [
    {
      "inputs": [
        {
          "internalType": "address",
          "name": "_owner",
          "type": "address"
        },
        {
          "internalType": "contract Token",
          "name": "_addressOfTokenContract",
          "type": "address"
        },
        {
          "internalType": "contract ICash",
          "name": "_addressOfCashContract",
          "type": "address"
        },
        {
          "internalType": "contract IRealitio",
          "name": "_addressOfRealitioContract",
          "type": "address"
        },
        {
          "internalType": "uint32",
          "name": "_marketExpectedResolutionTime",
          "type": "uint32"
        }
      ],
      "stateMutability": "nonpayable",
      "type": "constructor"
    },
    {
      "anonymous": false,
      "inputs": [
        {
          "indexed": true,
          "internalType": "address",
          "name": "owner",
          "type": "address"
        },
        {
          "indexed": true,
          "internalType": "address",
          "name": "approved",
          "type": "address"
        },
        {
          "indexed": true,
          "internalType": "uint256",
          "name": "tokenId",
          "type": "uint256"
        }
      ],
      "name": "Approval",
      "type": "event"
    },
    {
      "anonymous": false,
      "inputs": [
        {
          "indexed": true,
          "internalType": "address",
          "name": "owner",
          "type": "address"
        },
        {
          "indexed": true,
          "internalType": "address",
          "name": "operator",
          "type": "address"
        },
        {
          "indexed": false,
          "internalType": "bool",
          "name": "approved",
          "type": "bool"
        }
      ],
      "name": "ApprovalForAll",
      "type": "event"
    },
    {
      "anonymous": false,
      "inputs": [
        {
          "indexed": true,
          "internalType": "uint256",
          "name": "daiDeposited",
          "type": "uint256"
        },
        {
          "indexed": true,
          "internalType": "uint256",
          "name": "tokenId",
          "type": "uint256"
        },
        {
          "indexed": true,
          "internalType": "address",
          "name": "sentBy",
          "type": "address"
        }
      ],
      "name": "LogDepositIncreased",
      "type": "event"
    },
    {
      "anonymous": false,
      "inputs": [
        {
          "indexed": true,
          "internalType": "uint256",
          "name": "daiWithdrawn",
          "type": "uint256"
        },
        {
          "indexed": true,
          "internalType": "uint256",
          "name": "tokenId",
          "type": "uint256"
        },
        {
          "indexed": true,
          "internalType": "address",
          "name": "returnedTo",
          "type": "address"
        }
      ],
      "name": "LogDepositWithdrawal",
      "type": "event"
    },
    {
      "anonymous": false,
      "inputs": [
        {
          "indexed": true,
          "internalType": "address",
          "name": "prevOwner",
          "type": "address"
        },
        {
          "indexed": true,
          "internalType": "uint256",
          "name": "tokenId",
          "type": "uint256"
        }
      ],
      "name": "LogForeclosure",
      "type": "event"
    },
    {
      "anonymous": false,
      "inputs": [
        {
          "indexed": true,
          "internalType": "address",
          "name": "newOwner",
          "type": "address"
        },
        {
          "indexed": true,
          "internalType": "uint256",
          "name": "newPrice",
          "type": "uint256"
        },
        {
          "indexed": true,
          "internalType": "uint256",
          "name": "tokenId",
          "type": "uint256"
        }
      ],
      "name": "LogNewRental",
      "type": "event"
    },
    {
      "anonymous": false,
      "inputs": [
        {
          "indexed": true,
          "internalType": "uint256",
          "name": "newPrice",
          "type": "uint256"
        },
        {
          "indexed": true,
          "internalType": "uint256",
          "name": "tokenId",
          "type": "uint256"
        }
      ],
      "name": "LogPriceChange",
      "type": "event"
    },
    {
      "anonymous": false,
      "inputs": [
        {
          "indexed": true,
          "internalType": "uint256",
          "name": "rentCollected",
          "type": "uint256"
        },
        {
          "indexed": true,
          "internalType": "uint256",
          "name": "tokenId",
          "type": "uint256"
        }
      ],
      "name": "LogRentCollection",
      "type": "event"
    },
    {
      "anonymous": false,
      "inputs": [
        {
          "indexed": true,
          "internalType": "address",
          "name": "returnedTo",
          "type": "address"
        },
        {
          "indexed": true,
          "internalType": "uint256",
          "name": "amountReturned",
          "type": "uint256"
        }
      ],
      "name": "LogRentReturned",
      "type": "event"
    },
    {
      "anonymous": false,
      "inputs": [
        {
          "indexed": true,
          "internalType": "uint256",
          "name": "tokenId",
          "type": "uint256"
        },
        {
          "indexed": true,
          "internalType": "address",
          "name": "previousOwner",
          "type": "address"
        }
      ],
      "name": "LogReturnToPreviousOwner",
      "type": "event"
    },
    {
      "anonymous": false,
      "inputs": [
        {
          "indexed": true,
          "internalType": "bool",
          "name": "didTheEventFinish",
          "type": "bool"
        }
      ],
      "name": "LogStep1Complete",
      "type": "event"
    },
    {
      "anonymous": false,
      "inputs": [
        {
          "indexed": true,
          "internalType": "bool",
          "name": "didRealitioResolve",
          "type": "bool"
        },
        {
          "indexed": true,
          "internalType": "uint256",
          "name": "winningOutcome",
          "type": "uint256"
        },
        {
          "indexed": true,
          "internalType": "bool",
          "name": "didRealitioResolveInvalid",
          "type": "bool"
        }
      ],
      "name": "LogStep2Complete",
      "type": "event"
    },
    {
      "anonymous": false,
      "inputs": [
        {
          "indexed": true,
          "internalType": "address",
          "name": "paidTo",
          "type": "address"
        },
        {
          "indexed": true,
          "internalType": "uint256",
          "name": "amountPaid",
          "type": "uint256"
        }
      ],
      "name": "LogWinningsPaid",
      "type": "event"
    },
    {
      "anonymous": false,
      "inputs": [
        {
          "indexed": true,
          "internalType": "uint256",
          "name": "testingVariable",
          "type": "uint256"
        }
      ],
      "name": "TestingVariable",
      "type": "event"
    },
    {
      "anonymous": false,
      "inputs": [
        {
          "indexed": true,
          "internalType": "address",
          "name": "from",
          "type": "address"
        },
        {
          "indexed": true,
          "internalType": "address",
          "name": "to",
          "type": "address"
        },
        {
          "indexed": true,
          "internalType": "uint256",
          "name": "tokenId",
          "type": "uint256"
        }
      ],
      "name": "Transfer",
      "type": "event"
    },
    {
      "inputs": [
        {
          "internalType": "address",
          "name": "to",
          "type": "address"
        },
        {
          "internalType": "uint256",
          "name": "tokenId",
          "type": "uint256"
        }
      ],
      "name": "approve",
      "outputs": [],
      "stateMutability": "nonpayable",
      "type": "function"
    },
    {
      "inputs": [
        {
          "internalType": "address",
          "name": "owner",
          "type": "address"
        }
      ],
      "name": "balanceOf",
      "outputs": [
        {
          "internalType": "uint256",
          "name": "",
          "type": "uint256"
        }
      ],
      "stateMutability": "view",
      "type": "function"
    },
    {
      "inputs": [],
      "name": "baseURI",
      "outputs": [
        {
          "internalType": "string",
          "name": "",
          "type": "string"
        }
      ],
      "stateMutability": "view",
      "type": "function"
    },
    {
      "inputs": [],
      "name": "cash",
      "outputs": [
        {
          "internalType": "contract ICash",
          "name": "",
          "type": "address"
        }
      ],
      "stateMutability": "view",
      "type": "function"
    },
    {
      "inputs": [
        {
          "internalType": "uint256",
          "name": "",
          "type": "uint256"
        }
      ],
      "name": "collectedPerToken",
      "outputs": [
        {
          "internalType": "uint256",
          "name": "",
          "type": "uint256"
        }
      ],
      "stateMutability": "view",
      "type": "function"
    },
    {
      "inputs": [
        {
          "internalType": "address",
          "name": "",
          "type": "address"
        }
      ],
      "name": "collectedPerUser",
      "outputs": [
        {
          "internalType": "uint256",
          "name": "",
          "type": "uint256"
        }
      ],
      "stateMutability": "view",
      "type": "function"
    },
    {
      "inputs": [
        {
          "internalType": "uint256",
          "name": "",
          "type": "uint256"
        }
      ],
      "name": "currentOwnerIndex",
      "outputs": [
        {
          "internalType": "uint256",
          "name": "",
          "type": "uint256"
        }
      ],
      "stateMutability": "view",
      "type": "function"
    },
    {
      "inputs": [
        {
          "internalType": "uint256",
          "name": "",
          "type": "uint256"
        },
        {
          "internalType": "address",
          "name": "",
          "type": "address"
        }
      ],
      "name": "deposits",
      "outputs": [
        {
          "internalType": "uint256",
          "name": "",
          "type": "uint256"
        }
      ],
      "stateMutability": "view",
      "type": "function"
    },
    {
      "inputs": [
        {
          "internalType": "uint256",
          "name": "tokenId",
          "type": "uint256"
        }
      ],
      "name": "getApproved",
      "outputs": [
        {
          "internalType": "address",
          "name": "",
          "type": "address"
        }
      ],
      "stateMutability": "view",
      "type": "function"
    },
    {
      "inputs": [
        {
          "internalType": "address",
          "name": "owner",
          "type": "address"
        },
        {
          "internalType": "address",
          "name": "operator",
          "type": "address"
        }
      ],
      "name": "isApprovedForAll",
      "outputs": [
        {
          "internalType": "bool",
          "name": "",
          "type": "bool"
        }
      ],
      "stateMutability": "view",
      "type": "function"
    },
    {
      "inputs": [],
      "name": "marketExpectedResolutionTime",
      "outputs": [
        {
          "internalType": "uint32",
          "name": "",
          "type": "uint32"
        }
      ],
      "stateMutability": "view",
      "type": "function"
    },
    {
      "inputs": [],
      "name": "name",
      "outputs": [
        {
          "internalType": "string",
          "name": "",
          "type": "string"
        }
      ],
      "stateMutability": "view",
      "type": "function"
    },
    {
      "inputs": [
        {
          "internalType": "uint256",
          "name": "tokenId",
          "type": "uint256"
        }
      ],
      "name": "ownerOf",
      "outputs": [
        {
          "internalType": "address",
          "name": "",
          "type": "address"
        }
      ],
      "stateMutability": "view",
      "type": "function"
    },
    {
      "inputs": [
        {
          "internalType": "uint256",
          "name": "",
          "type": "uint256"
        },
        {
          "internalType": "uint256",
          "name": "",
          "type": "uint256"
        }
      ],
      "name": "ownerTracker",
      "outputs": [
        {
          "internalType": "address",
          "name": "owner",
          "type": "address"
        },
        {
          "internalType": "uint256",
          "name": "price",
          "type": "uint256"
        }
      ],
      "stateMutability": "view",
      "type": "function"
    },
    {
      "inputs": [
        {
          "internalType": "uint256",
          "name": "",
          "type": "uint256"
        }
      ],
      "name": "price",
      "outputs": [
        {
          "internalType": "uint256",
          "name": "",
          "type": "uint256"
        }
      ],
      "stateMutability": "view",
      "type": "function"
    },
    {
      "inputs": [],
      "name": "questionId",
      "outputs": [
        {
          "internalType": "bytes32",
          "name": "",
          "type": "bytes32"
        }
      ],
      "stateMutability": "view",
      "type": "function"
    },
    {
      "inputs": [],
      "name": "questionResolvedInvalid",
      "outputs": [
        {
          "internalType": "bool",
          "name": "",
          "type": "bool"
        }
      ],
      "stateMutability": "view",
      "type": "function"
    },
    {
      "inputs": [],
      "name": "realitio",
      "outputs": [
        {
          "internalType": "contract IRealitio",
          "name": "",
          "type": "address"
        }
      ],
      "stateMutability": "view",
      "type": "function"
    },
    {
      "inputs": [
        {
          "internalType": "address",
          "name": "from",
          "type": "address"
        },
        {
          "internalType": "address",
          "name": "to",
          "type": "address"
        },
        {
          "internalType": "uint256",
          "name": "tokenId",
          "type": "uint256"
        }
      ],
      "name": "safeTransferFrom",
      "outputs": [],
      "stateMutability": "nonpayable",
      "type": "function"
    },
    {
      "inputs": [
        {
          "internalType": "address",
          "name": "from",
          "type": "address"
        },
        {
          "internalType": "address",
          "name": "to",
          "type": "address"
        },
        {
          "internalType": "uint256",
          "name": "tokenId",
          "type": "uint256"
        },
        {
          "internalType": "bytes",
          "name": "_data",
          "type": "bytes"
        }
      ],
      "name": "safeTransferFrom",
      "outputs": [],
      "stateMutability": "nonpayable",
      "type": "function"
    },
    {
      "inputs": [
        {
          "internalType": "address",
          "name": "operator",
          "type": "address"
        },
        {
          "internalType": "bool",
          "name": "approved",
          "type": "bool"
        }
      ],
      "name": "setApprovalForAll",
      "outputs": [],
      "stateMutability": "nonpayable",
      "type": "function"
    },
    {
      "inputs": [],
      "name": "state",
      "outputs": [
        {
          "internalType": "enum Harber.States",
          "name": "",
          "type": "uint8"
        }
      ],
      "stateMutability": "view",
      "type": "function"
    },
    {
      "inputs": [
        {
          "internalType": "bytes4",
          "name": "interfaceId",
          "type": "bytes4"
        }
      ],
      "name": "supportsInterface",
      "outputs": [
        {
          "internalType": "bool",
          "name": "",
          "type": "bool"
        }
      ],
      "stateMutability": "view",
      "type": "function"
    },
    {
      "inputs": [],
      "name": "symbol",
      "outputs": [
        {
          "internalType": "string",
          "name": "",
          "type": "string"
        }
      ],
      "stateMutability": "view",
      "type": "function"
    },
    {
      "inputs": [
        {
          "internalType": "uint256",
          "name": "",
          "type": "uint256"
        }
      ],
      "name": "timeAcquired",
      "outputs": [
        {
          "internalType": "uint256",
          "name": "",
          "type": "uint256"
        }
      ],
      "stateMutability": "view",
      "type": "function"
    },
    {
      "inputs": [
        {
          "internalType": "uint256",
          "name": "",
          "type": "uint256"
        },
        {
          "internalType": "address",
          "name": "",
          "type": "address"
        }
      ],
      "name": "timeHeld",
      "outputs": [
        {
          "internalType": "uint256",
          "name": "",
          "type": "uint256"
        }
      ],
      "stateMutability": "view",
      "type": "function"
    },
    {
      "inputs": [
        {
          "internalType": "uint256",
          "name": "",
          "type": "uint256"
        }
      ],
      "name": "timeLastCollected",
      "outputs": [
        {
          "internalType": "uint256",
          "name": "",
          "type": "uint256"
        }
      ],
      "stateMutability": "view",
      "type": "function"
    },
    {
      "inputs": [],
      "name": "token",
      "outputs": [
        {
          "internalType": "contract Token",
          "name": "",
          "type": "address"
        }
      ],
      "stateMutability": "view",
      "type": "function"
    },
    {
      "inputs": [
        {
          "internalType": "uint256",
          "name": "index",
          "type": "uint256"
        }
      ],
      "name": "tokenByIndex",
      "outputs": [
        {
          "internalType": "uint256",
          "name": "",
          "type": "uint256"
        }
      ],
      "stateMutability": "view",
      "type": "function"
    },
    {
      "inputs": [
        {
          "internalType": "address",
          "name": "owner",
          "type": "address"
        },
        {
          "internalType": "uint256",
          "name": "index",
          "type": "uint256"
        }
      ],
      "name": "tokenOfOwnerByIndex",
      "outputs": [
        {
          "internalType": "uint256",
          "name": "",
          "type": "uint256"
        }
      ],
      "stateMutability": "view",
      "type": "function"
    },
    {
      "inputs": [
        {
          "internalType": "uint256",
          "name": "tokenId",
          "type": "uint256"
        }
      ],
      "name": "tokenURI",
      "outputs": [
        {
          "internalType": "string",
          "name": "",
          "type": "string"
        }
      ],
      "stateMutability": "view",
      "type": "function"
    },
    {
      "inputs": [],
      "name": "totalCollected",
      "outputs": [
        {
          "internalType": "uint256",
          "name": "",
          "type": "uint256"
        }
      ],
      "stateMutability": "view",
      "type": "function"
    },
    {
      "inputs": [],
      "name": "totalSupply",
      "outputs": [
        {
          "internalType": "uint256",
          "name": "",
          "type": "uint256"
        }
      ],
      "stateMutability": "view",
      "type": "function"
    },
    {
      "inputs": [
        {
          "internalType": "uint256",
          "name": "",
          "type": "uint256"
        }
      ],
      "name": "totalTimeHeld",
      "outputs": [
        {
          "internalType": "uint256",
          "name": "",
          "type": "uint256"
        }
      ],
      "stateMutability": "view",
      "type": "function"
    },
    {
      "inputs": [
        {
          "internalType": "address",
          "name": "from",
          "type": "address"
        },
        {
          "internalType": "address",
          "name": "to",
          "type": "address"
        },
        {
          "internalType": "uint256",
          "name": "tokenId",
          "type": "uint256"
        }
      ],
      "name": "transferFrom",
      "outputs": [],
      "stateMutability": "nonpayable",
      "type": "function"
    },
    {
      "inputs": [],
      "name": "winningOutcome",
      "outputs": [
        {
          "internalType": "uint256",
          "name": "",
          "type": "uint256"
        }
      ],
      "stateMutability": "view",
      "type": "function"
    },
    {
      "inputs": [],
      "name": "setTokenOwner",
      "outputs": [],
      "stateMutability": "nonpayable",
      "type": "function"
    },
    {
      "inputs": [
        {
          "internalType": "string",
          "name": "_uri",
          "type": "string"
        }
      ],
      "name": "mintNfts",
      "outputs": [],
      "stateMutability": "nonpayable",
      "type": "function"
    },
    {
      "inputs": [
        {
          "internalType": "uint256",
          "name": "_tokenId",
          "type": "uint256"
        }
      ],
      "name": "rentOwed",
      "outputs": [
        {
          "internalType": "uint256",
          "name": "",
          "type": "uint256"
        }
      ],
      "stateMutability": "view",
      "type": "function"
    },
    {
      "inputs": [
        {
          "internalType": "uint256",
          "name": "_tokenId",
          "type": "uint256"
        },
        {
          "internalType": "uint256",
          "name": "_index",
          "type": "uint256"
        }
      ],
      "name": "getOwnerTrackerPrice",
      "outputs": [
        {
          "internalType": "uint256",
          "name": "",
          "type": "uint256"
        }
      ],
      "stateMutability": "view",
      "type": "function"
    },
    {
      "inputs": [
        {
          "internalType": "uint256",
          "name": "_tokenId",
          "type": "uint256"
        },
        {
          "internalType": "uint256",
          "name": "_index",
          "type": "uint256"
        }
      ],
      "name": "getOwnerTrackerAddress",
      "outputs": [
        {
          "internalType": "address",
          "name": "",
          "type": "address"
        }
      ],
      "stateMutability": "view",
      "type": "function"
    },
    {
      "inputs": [
        {
          "internalType": "uint256",
          "name": "_tokenId",
          "type": "uint256"
        }
      ],
      "name": "liveDepositAbleToWithdraw",
      "outputs": [
        {
          "internalType": "uint256",
          "name": "",
          "type": "uint256"
        }
      ],
      "stateMutability": "view",
      "type": "function"
    },
    {
      "inputs": [
        {
          "internalType": "uint256",
          "name": "_tokenId",
          "type": "uint256"
        }
      ],
      "name": "userDepositAbleToWithdraw",
      "outputs": [
        {
          "internalType": "uint256",
          "name": "",
          "type": "uint256"
        }
      ],
      "stateMutability": "view",
      "type": "function"
    },
    {
      "inputs": [
        {
          "internalType": "uint256",
          "name": "_tokenId",
          "type": "uint256"
        }
      ],
      "name": "rentalExpiryTime",
      "outputs": [
        {
          "internalType": "uint256",
          "name": "",
          "type": "uint256"
        }
      ],
      "stateMutability": "view",
      "type": "function"
    },
    {
      "inputs": [
        {
          "internalType": "uint256",
          "name": "_winningOutcome",
          "type": "uint256"
        }
      ],
      "name": "getWinnings",
      "outputs": [
        {
          "internalType": "uint256",
          "name": "",
          "type": "uint256"
        }
      ],
      "stateMutability": "view",
      "type": "function"
    },
    {
      "inputs": [],
      "name": "step1checkMarketEnded",
      "outputs": [],
      "stateMutability": "nonpayable",
      "type": "function"
    },
    {
      "inputs": [],
      "name": "step2getWinner",
      "outputs": [],
      "stateMutability": "nonpayable",
      "type": "function"
    },
    {
      "inputs": [],
      "name": "step2BemergencyExit",
      "outputs": [],
      "stateMutability": "nonpayable",
      "type": "function"
    },
    {
      "inputs": [],
      "name": "step2CcircuitBreaker",
      "outputs": [],
      "stateMutability": "nonpayable",
      "type": "function"
    },
    {
      "inputs": [],
      "name": "complete",
      "outputs": [],
      "stateMutability": "nonpayable",
      "type": "function"
    },
    {
      "inputs": [],
      "name": "withdrawDepositAfterMarketEnded",
      "outputs": [],
      "stateMutability": "nonpayable",
      "type": "function"
    },
    {
      "inputs": [],
      "name": "collectRentAllTokens",
      "outputs": [],
      "stateMutability": "nonpayable",
      "type": "function"
    },
    {
      "inputs": [
        {
          "internalType": "uint256",
          "name": "_newPrice",
          "type": "uint256"
        },
        {
          "internalType": "uint256",
          "name": "_tokenId",
          "type": "uint256"
        },
        {
          "internalType": "uint256",
          "name": "_deposit",
          "type": "uint256"
        }
      ],
      "name": "newRental",
      "outputs": [],
      "stateMutability": "nonpayable",
      "type": "function"
    },
    {
      "inputs": [
        {
          "internalType": "uint256",
          "name": "_dai",
          "type": "uint256"
        },
        {
          "internalType": "uint256",
          "name": "_tokenId",
          "type": "uint256"
        }
      ],
      "name": "depositDai",
      "outputs": [],
      "stateMutability": "nonpayable",
      "type": "function"
    },
    {
      "inputs": [
        {
          "internalType": "uint256",
          "name": "_newPrice",
          "type": "uint256"
        },
        {
          "internalType": "uint256",
          "name": "_tokenId",
          "type": "uint256"
        }
      ],
      "name": "changePrice",
      "outputs": [],
      "stateMutability": "nonpayable",
      "type": "function"
    },
    {
      "inputs": [
        {
          "internalType": "uint256",
          "name": "_daiToWithdraw",
          "type": "uint256"
        },
        {
          "internalType": "uint256",
          "name": "_tokenId",
          "type": "uint256"
        }
      ],
      "name": "withdrawDeposit",
      "outputs": [],
      "stateMutability": "nonpayable",
      "type": "function"
    },
    {
      "inputs": [
        {
          "internalType": "uint256",
          "name": "_tokenId",
          "type": "uint256"
        }
      ],
      "name": "exit",
      "outputs": [],
      "stateMutability": "nonpayable",
      "type": "function"
    }
  ],
  "bytecode": "0x608060405261a4556061556062805460ff60201b19166401000000001790553480156200002b57600080fd5b5060405162004ec938038062004ec9833981810160405260a08110156200005157600080fd5b508051602080830151604080850151606086015160809096015182518084018452600f81526e7265616c69747963617264732e696f60881b8187015283518085019094526002845261524360f01b958401959095529495929490939091620000c96301ffc9a760e01b6001600160e01b036200022a16565b8151620000de906006906020850190620003fd565b508051620000f4906007906020840190620003fd565b50620001106380ac58cd60e01b6001600160e01b036200022a16565b6200012b635b5e139f60e01b6001600160e01b036200022a16565b6200014663780e9d6360e01b6001600160e01b036200022a16565b50506062805463ffffffff191663ffffffff8316179055600b8054610100600160a81b03199081166101006001600160a01b03898116820292909217909355600d8054909216878216909302929092179055600e80546001600160a01b031990811685841617909155600f8054909116918516919091179055604080516060808201909252602c808252600292919062004e9d6020830139905073a6ead513d05347138184324392d8ceb24c11611862015180846000620002158686868686866001600160e01b03620002af16565b600c5550620004a29950505050505050505050565b6001600160e01b031980821614156200028a576040805162461bcd60e51b815260206004820152601c60248201527f4552433136353a20696e76616c696420696e7465726661636520696400000000604482015290519081900360640190fd5b6001600160e01b0319166000908152602081905260409020805460ff19166001179055565b6000600e60009054906101000a90046001600160a01b03166001600160a01b031663762c38fd8888888888886040518763ffffffff1660e01b81526004018087815260200180602001866001600160a01b03166001600160a01b031681526020018563ffffffff1663ffffffff1681526020018463ffffffff1663ffffffff168152602001838152602001828103825287818151815260200191508051906020019080838360005b838110156200037157818101518382015260200162000357565b50505050905090810190601f1680156200039f5780820380516001836020036101000a031916815260200191505b50975050505050505050602060405180830381600087803b158015620003c457600080fd5b505af1158015620003d9573d6000803e3d6000fd5b505050506040513d6020811015620003f057600080fd5b5051979650505050505050565b828054600181600116156101000203166002900490600052602060002090601f016020900481019282601f106200044057805160ff191683800117855562000470565b8280016001018555821562000470579182015b828111156200047057825182559160200191906001019062000453565b506200047e92915062000482565b5090565b6200049f91905b808211156200047e576000815560010162000489565b90565b6149eb80620004b26000396000f3fe608060405234801561001057600080fd5b50600436106103835760003560e01c80637dab5819116101de578063b3de019c1161010f578063e985e9c5116100ad578063f88489c21161007c578063f88489c214610ada578063fc0c546a14610b20578063fc1ba51114610b28578063fce0eb0214610b3057610383565b8063e985e9c514610a64578063f015e54e14610a92578063f06197b714610aaf578063f69a131414610ad257610383565b8063bc8802a2116100e9578063bc8802a214610a0b578063c19d93fb14610a13578063c87b56dd14610a3f578063e29eb83614610a5c57610383565b8063b3de019c146108ff578063b88d4fde14610922578063bae04c9a146109e857610383565b80639b34ae031161017c578063ad5d286211610156578063ad5d2862146108ca578063adfbe13c146108e7578063af81ebf8146108ef578063b06a5c52146108f757610383565b80639b34ae0314610877578063a22cb4651461087f578063a36252bf146108ad57610383565b806395d89b41116101b857806395d89b4114610823578063961be3911461082b578063977f1b281461083357806397b4550a1461085457610383565b80637dab5819146107e15780637f8661a1146107e95780638cb688991461080657610383565b806347254f4f116102b85780636352211e1161025657806370a23f751161023057806370a23f7514610711578063736aab4c1461072e57806373a5226f1461079e5780637c1bfa54146107bb57610383565b80636352211e146106c65780636c0360eb146106e357806370a08231146106eb57610383565b8063522e117711610292578063522e11771461065257806353a58de11461065a5780635b2ace64146106865780635dfd7e9b146106a357610383565b806347254f4f1461062557806349d4d6b71461062d5780634f6ccce71461063557610383565b806323b872dd1161032557806332f2b04d116102ff57806332f2b04d1461058c5780633f17e86f146105a957806342842e0e146105d257806343ac0ecb1461060857610383565b806323b872dd1461050d57806326a49e37146105435780632f745c591461056057610383565b8063095ea7b311610361578063095ea7b31461049157806314ac36d1146104bf57806318160ddd146104c7578063237b5e4f146104e157610383565b806301ffc9a71461038857806306fdde03146103db578063081812fc14610458575b600080fd5b6103c76004803603602081101561039e57600080fd5b50357fffffffff0000000000000000000000000000000000000000000000000000000016610b4d565b604080519115158252519081900360200190f35b6103e3610b88565b6040805160208082528351818301528351919283929083019185019080838360005b8381101561041d578181015183820152602001610405565b50505050905090810190601f16801561044a5780820380516001836020036101000a031916815260200191505b509250505060405180910390f35b6104756004803603602081101561046e57600080fd5b5035610c1e565b604080516001600160a01b039092168252519081900360200190f35b6104bd600480360360408110156104a757600080fd5b506001600160a01b038135169060200135610c80565b005b6104bd610d5b565b6104cf610dc5565b60408051918252519081900360200190f35b6104cf600480360360408110156104f757600080fd5b50803590602001356001600160a01b0316610dd6565b6104bd6004803603606081101561052357600080fd5b506001600160a01b03813581169160208101359091169060400135610df3565b6104cf6004803603602081101561055957600080fd5b5035610e4a565b6104cf6004803603604081101561057657600080fd5b506001600160a01b038135169060200135610e5e565b6104cf600480360360208110156105a257600080fd5b5035610e8f565b6104bd600480360360608110156105bf57600080fd5b5080359060208101359060400135610f97565b6104bd600480360360608110156105e857600080fd5b506001600160a01b038135811691602081013590911690604001356113e9565b6104cf6004803603602081101561061e57600080fd5b5035611404565b6103c7611416565b6104bd611427565b6104cf6004803603602081101561064b57600080fd5b503561152d565b6104bd611549565b6104cf6004803603604081101561067057600080fd5b50803590602001356001600160a01b03166115d9565b6104cf6004803603602081101561069c57600080fd5b50356115f6565b6104bd600480360360408110156106b957600080fd5b5080359060200135611603565b610475600480360360208110156106dc57600080fd5b503561172f565b6103e361175d565b6104cf6004803603602081101561070157600080fd5b50356001600160a01b03166117be565b6104cf6004803603602081101561072757600080fd5b5035611826565b6104bd6004803603602081101561074457600080fd5b81019060208101813564010000000081111561075f57600080fd5b82018360208201111561077157600080fd5b8035906020019184600183028401116401000000008311171561079357600080fd5b50909250905061185e565b6104cf600480360360208110156107b457600080fd5b5035611a1d565b6104cf600480360360208110156107d157600080fd5b50356001600160a01b0316611b3c565b6104bd611b4e565b6104bd600480360360208110156107ff57600080fd5b5035611c18565b6104cf6004803603602081101561081c57600080fd5b5035611c3c565b6103e3611c49565b610475611caa565b61083b611cb9565b6040805163ffffffff9092168252519081900360200190f35b6104756004803603604081101561086a57600080fd5b5080359060200135611cc5565b6104cf611ceb565b6104bd6004803603604081101561089557600080fd5b506001600160a01b0381351690602001351515611cf1565b6104cf600480360360208110156108c357600080fd5b5035611e14565b6104cf600480360360208110156108e057600080fd5b5035611e26565b6104bd611e85565b6104bd611f0c565b6104cf612031565b6104bd6004803603604081101561091557600080fd5b5080359060200135612037565b6104bd6004803603608081101561093857600080fd5b6001600160a01b0382358116926020810135909116916040820135919081019060808101606082013564010000000081111561097357600080fd5b82018360208201111561098557600080fd5b803590602001918460018302840111640100000000831117156109a757600080fd5b91908080601f016020809104026020016040519081016040528093929190818152602001838380828437600092019190915250929550612259945050505050565b6104bd600480360360408110156109fe57600080fd5b50803590602001356122b1565b61047561243a565b610a1b612449565b60405180826003811115610a2b57fe5b60ff16815260200191505060405180910390f35b6103e360048036036020811015610a5557600080fd5b5035612452565b6104cf612735565b6103c760048036036040811015610a7a57600080fd5b506001600160a01b038135811691602001351661273b565b6104cf60048036036020811015610aa857600080fd5b5035612769565b6104cf60048036036040811015610ac557600080fd5b5080359060200135612776565b6104bd612796565b610afd60048036036040811015610af057600080fd5b50803590602001356128e4565b604080516001600160a01b03909316835260208301919091528051918290030190f35b610475612914565b6104bd612928565b6104cf60048036036020811015610b4657600080fd5b5035612a80565b7fffffffff00000000000000000000000000000000000000000000000000000000811660009081526020819052604090205460ff165b919050565b60068054604080516020601f6002600019610100600188161502019095169490940493840181900481028201810190925282815260609390929091830182828015610c145780601f10610be957610100808354040283529160200191610c14565b820191906000526020600020905b815481529060010190602001808311610bf757829003601f168201915b5050505050905090565b6000610c2982612acc565b610c645760405162461bcd60e51b815260040180806020018281038252602c815260200180614894602c913960400191505060405180910390fd5b506000908152600460205260409020546001600160a01b031690565b6000610c8b8261172f565b9050806001600160a01b0316836001600160a01b03161415610cde5760405162461bcd60e51b815260040180806020018281038252602181526020018061493e6021913960400191505060405180910390fd5b806001600160a01b0316610cf0612adf565b6001600160a01b03161480610d115750610d1181610d0c612adf565b61273b565b610d4c5760405162461bcd60e51b81526004018080602001828103825260388152602001806147c66038913960400191505060405180910390fd5b610d568383612ae3565b505050565b600d60019054906101000a90046001600160a01b03166001600160a01b03166340caae066040518163ffffffff1660e01b8152600401600060405180830381600087803b158015610dab57600080fd5b505af1158015610dbf573d6000803e3d6000fd5b50505050565b6000610dd16002612b69565b905090565b606460209081526000928352604080842090915290825290205481565b610e04610dfe612adf565b82612b74565b610e3f5760405162461bcd60e51b81526004018080602001828103825260318152602001806149856031913960400191505060405180910390fd5b610d56838383612c18565b60108160148110610e5757fe5b0154905081565b6001600160a01b0382166000908152600160205260408120610e86908363ffffffff612d7616565b90505b92915050565b600080610e9b83611826565b90506000600d60019054906101000a90046001600160a01b03166001600160a01b0316636352211e856040518263ffffffff1660e01b81526004018082815260200191505060206040518083038186803b158015610ef857600080fd5b505afa158015610f0c573d6000803e3d6000fd5b505050506040513d6020811015610f2257600080fd5b505160008581526066602090815260408083206001600160a01b03851684529091529020549091508210610f5b57600092505050610b83565b60008481526066602090815260408083206001600160a01b0385168452909152902054610f8e908363ffffffff612d8216565b92505050610b83565b600180600d5460ff166003811115610fab57fe5b14610ffd576040805162461bcd60e51b815260206004820152600f60248201527f496e636f72726563742073746174650000000000000000000000000000000000604482015290519081900360640190fd5b8260148110611053576040805162461bcd60e51b815260206004820152601960248201527f5468697320746f6b656e20646f6573206e6f7420657869737400000000000000604482015290519081900360640190fd5b82600081116110a9576040805162461bcd60e51b815260206004820152601960248201527f416d6f756e74206d7573742062652061626f7665207a65726f00000000000000604482015290519081900360640190fd5b60006110dc600a6110d0600b60108a601481106110c257fe5b01549063ffffffff612dc416565b9063ffffffff612e1d16565b905060006110f188601863ffffffff612e1d16565b905081881015611148576040805162461bcd60e51b815260206004820152601460248201527f5072696365206e6f742031302520686967686572000000000000000000000000604482015290519081900360640190fd5b8086101561119d576040805162461bcd60e51b815260206004820152601760248201527f4f6e6520686f757227732072656e74206d696e696d756d000000000000000000604482015290519081900360640190fd5b662386f26fc100008810156111f9576040805162461bcd60e51b815260206004820152601760248201527f4d696e696d756d2072656e74616c20302e303120446169000000000000000000604482015290519081900360640190fd5b61120287612e5f565b61120c868861321b565b600d54604080517f6352211e000000000000000000000000000000000000000000000000000000008152600481018a9052905160009261010090046001600160a01b031691636352211e916024808301926020929190829003018186803b15801561127657600080fd5b505afa15801561128a573d6000803e3d6000fd5b505050506040513d60208110156112a057600080fd5b505190506001600160a01b0381163314156112c4576112bf89896132a0565b6113de565b6112e46001604c8a601481106112d657fe5b01549063ffffffff61332016565b604c89601481106112f157fe5b015560008881526063602052604081208a91604c8b6014811061131057fe5b015481526020019081526020016000206001018190555033606360008a81526020019081526020016000206000604c8b6014811061134a57fe5b01548152602081019190915260400160002080547fffffffffffffffffffffffff0000000000000000000000000000000000000000166001600160a01b039290921691909117905542603889601481106113a057fe5b01556113ae81338b8b61337a565b60405188908a9033907ff31de299869a9c4bcad2bafc2e290031d2a7102799d817cb41b090e6a1dd6d4790600090a45b505050505050505050565b610d5683838360405180602001604052806000815250612259565b60686020526000908152604090205481565b606254640100000000900460ff1681565b600280600d5460ff16600381111561143b57fe5b1461148d576040805162461bcd60e51b815260206004820152600f60248201527f496e636f72726563742073746174650000000000000000000000000000000000604482015290519081900360640190fd5b600b5461010090046001600160a01b031633146114f1576040805162461bcd60e51b815260206004820152601860248201527f4f6e6c79206f776e65722063616e2063616c6c20746869730000000000000000604482015290519081900360640190fd5b6114f9613495565b6061546040516000919082907f311895ae40783b00783a8fd9ec16fd07ec9750f9a59dbd5557d209699d9a6546908290a450565b60008061154160028463ffffffff6134ef16565b509392505050565b600380600d5460ff16600381111561155d57fe5b146115af576040805162461bcd60e51b815260206004820152600f60248201527f496e636f72726563742073746174650000000000000000000000000000000000604482015290519081900360640190fd5b606254640100000000900460ff166115ce576115c961350b565b6115d6565b6115d66135b3565b50565b606660209081526000928352604080842090915290825290205481565b60388160148110610e5757fe5b600180600d5460ff16600381111561161757fe5b14611669576040805162461bcd60e51b815260206004820152600f60248201527f496e636f72726563742073746174650000000000000000000000000000000000604482015290519081900360640190fd5b82600081116116bf576040805162461bcd60e51b815260206004820152601960248201527f416d6f756e74206d7573742062652061626f7665207a65726f00000000000000604482015290519081900360640190fd5b8260148110611715576040805162461bcd60e51b815260206004820152601960248201527f5468697320746f6b656e20646f6573206e6f7420657869737400000000000000604482015290519081900360640190fd5b61171e84612e5f565b611728858561321b565b5050505050565b6000610e8982604051806060016040528060298152602001614828602991396002919063ffffffff61364916565b60098054604080516020601f6002600019610100600188161502019095169490940493840181900481028201810190925282815260609390929091830182828015610c145780601f10610be957610100808354040283529160200191610c14565b60006001600160a01b0382166118055760405162461bcd60e51b815260040180806020018281038252602a8152602001806147fe602a913960400191505060405180910390fd5b6001600160a01b0382166000908152600160205260409020610e8990612b69565b6000610e89620151806110d06118516024866014811061184257fe5b0154429063ffffffff612d8216565b601086601481106110c257fe5b600080600d5460ff16600381111561187257fe5b146118c4576040805162461bcd60e51b815260206004820152600f60248201527f496e636f72726563742073746174650000000000000000000000000000000000604482015290519081900360640190fd5b600d54600a546040517fd3fc9864000000000000000000000000000000000000000000000000000000008152306004820181815260248301849052606060448401908152606484018890526101009095046001600160a01b03169463d3fc9864949293899289929091608401848480828437600081840152601f19601f82011690508083019250505095505050505050600060405180830381600087803b15801561196e57600080fd5b505af1158015611982573d6000803e3d6000fd5b5050600a5461199b92509050600163ffffffff61332016565b600a81905560141415610d56576119b0613495565b600d60019054906101000a90046001600160a01b03166001600160a01b031663f83d08ba6040518163ffffffff1660e01b8152600401600060405180830381600087803b158015611a0057600080fd5b505af1158015611a14573d6000803e3d6000fd5b50505050505050565b600080611a2983611826565b90506000600d60019054906101000a90046001600160a01b03166001600160a01b0316636352211e856040518263ffffffff1660e01b81526004018082815260200191505060206040518083038186803b158015611a8657600080fd5b505afa158015611a9a573d6000803e3d6000fd5b505050506040513d6020811015611ab057600080fd5b505190506001600160a01b038116331415611b1a5760008481526066602090815260408083203384529091529020548210611af057600092505050610b83565b6000848152606660209081526040808320338452909152902054610f8e908363ffffffff612d8216565b5050506000818152606660209081526040808320338452909152902054610b83565b60676020526000908152604090205481565b600280600d5460ff166003811115611b6257fe5b14611bb4576040805162461bcd60e51b815260206004820152600f60248201527f496e636f72726563742073746174650000000000000000000000000000000000604482015290519081900360640190fd5b6062546224ea0063ffffffff918216011642116114f1576040805162461bcd60e51b815260206004820152601160248201527f4d75737420776169742031206d6f6e7468000000000000000000000000000000604482015290519081900360640190fd5b60008181526066602090815260408083203384529091529020546115d690826122b1565b60248160148110610e5757fe5b60078054604080516020601f6002600019610100600188161502019095169490940493840181900481028201810190925282815260609390929091830182828015610c145780601f10610be957610100808354040283529160200191610c14565b600f546001600160a01b031681565b60625463ffffffff1681565b60009182526063602090815260408084209284529190529020546001600160a01b031690565b60615481565b611cf9612adf565b6001600160a01b0316826001600160a01b03161415611d5f576040805162461bcd60e51b815260206004820152601960248201527f4552433732313a20617070726f766520746f2063616c6c657200000000000000604482015290519081900360640190fd5b8060056000611d6c612adf565b6001600160a01b0390811682526020808301939093526040918201600090812091871680825291909352912080547fffffffffffffffffffffffffffffffffffffffffffffffffffffffffffffff001692151592909217909155611dce612adf565b60408051841515815290516001600160a01b0392909216917f17307eab39ab6107e8899845ad3d59bd9653f200f220920489ca2b5937696c319181900360200190a35050565b60656020526000908152604090205481565b60008181526064602090815260408083203384529091528120546060548290611e55908363ffffffff612dc416565b60615460009081526065602052604081205491925090611e7c90839063ffffffff612e1d16565b95945050505050565b600180600d5460ff166003811115611e9957fe5b14611eeb576040805162461bcd60e51b815260206004820152600f60248201527f496e636f72726563742073746174650000000000000000000000000000000000604482015290519081900360640190fd5b60005b6014811015611f0857611f0081612e5f565b600101611eee565b5050565b600180600d5460ff166003811115611f2057fe5b14611f72576040805162461bcd60e51b815260206004820152600f60248201527f496e636f72726563742073746174650000000000000000000000000000000000604482015290519081900360640190fd5b6062547ffffffffffffffffffffffffffffffffffffffffffffffffffffffffffffff1f0420163ffffffff90911610611ff2576040805162461bcd60e51b815260206004820152601760248201527f4d61726b657420686173206e6f742066696e6973686564000000000000000000604482015290519081900360640190fd5b611ffa611e85565b612002613495565b6040516001907f78f999e75feb0a891f8d2eab8e6babef9caef4444d0b1bfae9c50a610436902d90600090a250565b600c5481565b600180600d5460ff16600381111561204b57fe5b1461209d576040805162461bcd60e51b815260206004820152600f60248201527f496e636f72726563742073746174650000000000000000000000000000000000604482015290519081900360640190fd5b81601481106120f3576040805162461bcd60e51b815260206004820152601960248201527f5468697320746f6b656e20646f6573206e6f7420657869737400000000000000604482015290519081900360640190fd5b600d54604080517f6352211e000000000000000000000000000000000000000000000000000000008152600481018690529051859261010090046001600160a01b031691636352211e916024808301926020929190829003018186803b15801561215c57600080fd5b505afa158015612170573d6000803e3d6000fd5b505050506040513d602081101561218657600080fd5b50516001600160a01b031633146121e4576040805162461bcd60e51b815260206004820152600960248201527f4e6f74206f776e65720000000000000000000000000000000000000000000000604482015290519081900360640190fd5b601084601481106121f157fe5b01548511612246576040805162461bcd60e51b815260206004820152601860248201527f4e6577207072696365206d757374206265206869676865720000000000000000604482015290519081900360640190fd5b61224f84612e5f565b61172885856132a0565b61226a612264612adf565b83612b74565b6122a55760405162461bcd60e51b81526004018080602001828103825260318152602001806149856031913960400191505060405180910390fd5b610dbf84848484613660565b600180600d5460ff1660038111156122c557fe5b14612317576040805162461bcd60e51b815260206004820152600f60248201527f496e636f72726563742073746174650000000000000000000000000000000000604482015290519081900360640190fd5b816014811061236d576040805162461bcd60e51b815260206004820152601960248201527f5468697320746f6b656e20646f6573206e6f7420657869737400000000000000604482015290519081900360640190fd5b83600081116123c3576040805162461bcd60e51b815260206004820152601960248201527f416d6f756e74206d7573742062652061626f7665207a65726f00000000000000604482015290519081900360640190fd5b6123cc84612e5f565b6000848152606660209081526040808320338452909152902054801561243257858110156123f8578095505b61240286866136b2565b6040513390869088907ff02d3ef90a5110daf1fc2ab511a90b5c3fc58591405de80c06dfff0fd6b42ea890600090a45b505050505050565b600e546001600160a01b031681565b600d5460ff1681565b606061245d82612acc565b6124985760405162461bcd60e51b815260040180806020018281038252602f8152602001806148e9602f913960400191505060405180910390fd5b60008281526008602090815260409182902080548351601f600260001961010060018616150201909316929092049182018490048402810184019094528084526060939283018282801561252d5780601f106125025761010080835404028352916020019161252d565b820191906000526020600020905b81548152906001019060200180831161251057829003601f168201915b505060095493945050505060026000196101006001841615020190911604612556579050610b83565b8051156126455760098160405160200180838054600181600116156101000203166002900480156125be5780601f1061259c5761010080835404028352918201916125be565b820191906000526020600020905b8154815290600101906020018083116125aa575b5050825160208401908083835b6020831061260857805182527fffffffffffffffffffffffffffffffffffffffffffffffffffffffffffffffe090920191602091820191016125cb565b6001836020036101000a03801982511681845116808217855250505050505090500192505050604051602081830303815290604052915050610b83565b6009612650846138af565b60405160200180838054600181600116156101000203166002900480156126ae5780601f1061268c5761010080835404028352918201916126ae565b820191906000526020600020905b81548152906001019060200180831161269a575b5050825160208401908083835b602083106126f857805182527fffffffffffffffffffffffffffffffffffffffffffffffffffffffffffffffe090920191602091820191016126bb565b6001836020036101000a03801982511681845116808217855250505050505090500192505050604051602081830303815290604052915050919050565b60605481565b6001600160a01b03918216600090815260056020908152604080832093909416825291909152205460ff1690565b604c8160148110610e5757fe5b600091825260636020908152604080842092845291905290206001015490565b600280600d5460ff1660038111156127aa57fe5b146127fc576040805162461bcd60e51b815260206004820152600f60248201527f496e636f72726563742073746174650000000000000000000000000000000000604482015290519081900360640190fd5b6128046139be565b151560011461285a576040805162461bcd60e51b815260206004820152601360248201527f4f7261636c65206e6f74207265736f6c76656400000000000000000000000000604482015290519081900360640190fd5b612862613a57565b60618190556000191461289857606280547fffffffffffffffffffffffffffffffffffffffffffffffffffffff00ffffffff1690555b6128a0613495565b60625460615460405164010000000090920460ff161515916001907f311895ae40783b00783a8fd9ec16fd07ec9750f9a59dbd5557d209699d9a654690600090a450565b6063602090815260009283526040808420909152908252902080546001909101546001600160a01b039091169082565b600d5461010090046001600160a01b031681565b6000600d5460ff16600381111561293b57fe5b141561298e576040805162461bcd60e51b815260206004820152600f60248201527f496e636f72726563742073746174650000000000000000000000000000000000604482015290519081900360640190fd5b6001600d5460ff1660038111156129a157fe5b14156129f4576040805162461bcd60e51b815260206004820152600f60248201527f496e636f72726563742073746174650000000000000000000000000000000000604482015290519081900360640190fd5b60005b60148110156115d65760008181526066602090815260408083203384529091529020548015612a77576000828152606660209081526040808320338085529252822091909155612a479082613af6565b6040513390839083907ff02d3ef90a5110daf1fc2ab511a90b5c3fc58591405de80c06dfff0fd6b42ea890600090a45b506001016129f7565b600080612aa56201518060108560148110612a9757fe5b01549063ffffffff612e1d16565b905080612ab55742915050610b83565b612ac2816110d085610e8f565b4201915050610b83565b6000610e8960028363ffffffff613be216565b3390565b600081815260046020526040902080547fffffffffffffffffffffffff0000000000000000000000000000000000000000166001600160a01b0384169081179091558190612b308261172f565b6001600160a01b03167f8c5be1e5ebec7d5bd14f71427d1e84f3dd0314c0f7b2291e5b200ac8c7c3b92560405160405180910390a45050565b6000610e8982613bee565b6000612b7f82612acc565b612bba5760405162461bcd60e51b815260040180806020018281038252602c81526020018061479a602c913960400191505060405180910390fd5b6000612bc58361172f565b9050806001600160a01b0316846001600160a01b03161480612c005750836001600160a01b0316612bf584610c1e565b6001600160a01b0316145b80612c105750612c10818561273b565b949350505050565b826001600160a01b0316612c2b8261172f565b6001600160a01b031614612c705760405162461bcd60e51b81526004018080602001828103825260298152602001806148c06029913960400191505060405180910390fd5b6001600160a01b038216612cb55760405162461bcd60e51b81526004018080602001828103825260248152602001806147766024913960400191505060405180910390fd5b612cc0838383610d56565b612ccb600082612ae3565b6001600160a01b0383166000908152600160205260409020612cf3908263ffffffff613bf216565b506001600160a01b0382166000908152600160205260409020612d1c908263ffffffff613bfe16565b50612d2f6002828463ffffffff613c0a16565b5080826001600160a01b0316846001600160a01b03167fddf252ad1be2c89b69c2b068fc378daa952ba7f163c4a11628f55a4df523b3ef60405160405180910390a4505050565b6000610e868383613c20565b6000610e8683836040518060400160405280601e81526020017f536166654d6174683a207375627472616374696f6e206f766572666c6f770000815250613c84565b600082612dd357506000610e89565b82820282848281612de057fe5b0414610e865760405162461bcd60e51b81526004018080602001828103825260218152602001806148736021913960400191505060405180910390fd5b6000610e8683836040518060400160405280601a81526020017f536166654d6174683a206469766973696f6e206279207a65726f000000000000815250613d1b565b600d54604080517f6352211e000000000000000000000000000000000000000000000000000000008152600481018490529051309261010090046001600160a01b031691636352211e916024808301926020929190829003018186803b158015612ec857600080fd5b505afa158015612edc573d6000803e3d6000fd5b505050506040513d6020811015612ef257600080fd5b50516001600160a01b031614613208576000612f0d82611826565b90506000600d60019054906101000a90046001600160a01b03166001600160a01b0316636352211e846040518263ffffffff1660e01b81526004018082815260200191505060206040518083038186803b158015612f6a57600080fd5b505afa158015612f7e573d6000803e3d6000fd5b505050506040513d6020811015612f9457600080fd5b505160008481526066602090815260408083206001600160a01b03851684529091528120549192509083106130525760008481526066602090815260408083206001600160a01b038616845290915290205461301d906130109085906110d09061300460248a6014811061184257fe5b9063ffffffff612dc416565b602486601481106112d657fe5b60008581526066602090815260408083206001600160a01b03871684529091529020549350905061304d84613d80565b613055565b50425b60008481526066602090815260408083206001600160a01b0386168452909152902054613088908463ffffffff612d8216565b60008581526066602090815260408083206001600160a01b03871684529091528120919091556130cd602486601481106130be57fe5b0154839063ffffffff612d8216565b60008681526064602090815260408083206001600160a01b0388168452909152902054909150613103908263ffffffff61332016565b60008681526064602090815260408083206001600160a01b0388168452825280832093909355878252606590522054613142908263ffffffff61332016565b6000868152606560209081526040808320939093556001600160a01b0386168252606790522054613179908563ffffffff61332016565b6001600160a01b0384166000908152606760209081526040808320939093558782526068905220546131b1908563ffffffff61332016565b6000868152606860205260409020556060546131d3908563ffffffff61332016565b606055604051859085907fbd6a0009de32b24a5a6a1a6d50ef5ad8a8a09b7329cfc44c65b36c3e91bea91d90600090a3505050505b426024826014811061321657fe5b015550565b6000818152606660209081526040808320338452909152902054613245908363ffffffff61332016565b60008281526066602090815260408083203380855292529091209190915561326d9083613fdf565b6040513390829084907fe1f2f21fb1114ab2d2decad00b03b417c36f962c5bb4d917ab391fb546df0e4590600090a45050565b81601082601481106132ae57fe5b015560008181526063602052604081208391604c84601481106132cd57fe5b0154815260208101919091526040016000206001015580601081601481106132f157fe5b01546040517f4a02295c87a60873dbea741004d8f588cc9f62f944eefe5e5d8ae8e629cc9ddb90600090a35050565b600082820183811015610e86576040805162461bcd60e51b815260206004820152601b60248201527f536166654d6174683a206164646974696f6e206f766572666c6f770000000000604482015290519081900360640190fd5b6001600160a01b0384161580159061339a57506001600160a01b03831615155b6133eb576040805162461bcd60e51b815260206004820181905260248201527f43616e6e6f742073656e6420746f2f66726f6d207a65726f2061646472657373604482015290519081900360640190fd5b81601082601481106133f957fe5b0155600d54604080517f9e68eb4a0000000000000000000000000000000000000000000000000000000081526001600160a01b038781166004830152868116602483015260448201859052915161010090930490911691639e68eb4a9160648082019260009290919082900301818387803b15801561347757600080fd5b505af115801561348b573d6000803e3d6000fd5b5050505050505050565b600d5460ff1660038111156134a657fe5b60010160038111156134b457fe5b600d80547fffffffffffffffffffffffffffffffffffffffffffffffffffffffffffffff001660018360038111156134e857fe5b0217905550565b60008080806134fe8686614054565b9097909650945050505050565b6000613518606154611e26565b9050600081116135595760405162461bcd60e51b81526004018080602001828103825260268152602001806149186026913960400191505060405180910390fd5b60615460009081526064602090815260408083203380855292528220919091556135839082613af6565b604051819033907f0e72eb54add8566fa8248d61d8dc2b9953fbec55cfec138cdc887c8e34df495190600090a350565b33600090815260676020526040902054806135ff5760405162461bcd60e51b815260040180806020018281038252602681526020018061495f6026913960400191505060405180910390fd5b336000818152606760205260408120556136199082613af6565b604051819033907f40db9a7a1327f1f949933daff746d2d9be9f2ff608d832e39b6764f5f15a957390600090a350565b60006136568484846140cf565b90505b9392505050565b61366b848484612c18565b6136778484848461415c565b610dbf5760405162461bcd60e51b81526004018080602001828103825260328152602001806147446032913960400191505060405180910390fd5b60008181526066602090815260408083203384529091529020548211156136d557fe5b600d54604080517f6352211e00000000000000000000000000000000000000000000000000000000815260048101849052905160009261010090046001600160a01b031691636352211e916024808301926020929190829003018186803b15801561373f57600080fd5b505afa158015613753573d6000803e3d6000fd5b505050506040513d602081101561376957600080fd5b505190506001600160a01b03811633141561382157610e1060006137936038856014811061184257fe5b90508181101561381e5760006137b1601860108760148110612a9757fe5b905060006137c5848463ffffffff612d8216565b905060006137dd856110d0858563ffffffff612dc416565b60008881526066602090815260408083203384529091528120549192509061380b908363ffffffff612d8216565b905088811015613819578098505b505050505b50505b600082815260666020908152604080832033845290915290205461384b908463ffffffff612d8216565b6000838152606660209081526040808320338085529252909120919091556001600160a01b03821614801561389757506000828152606660209081526040808320338452909152902054155b156138a5576138a582613d80565b610d563384613af6565b6060816138f0575060408051808201909152600181527f30000000000000000000000000000000000000000000000000000000000000006020820152610b83565b8160005b811561390857600101600a820491506138f4565b60608167ffffffffffffffff8111801561392157600080fd5b506040519080825280601f01601f19166020018201604052801561394c576020820181803683370190505b50859350905060001982015b83156139b557600a840660300160f81b8282806001900393508151811061397b57fe5b60200101907effffffffffffffffffffffffffffffffffffffffffffffffffffffffffffff1916908160001a905350600a84049350613958565b50949350505050565b600e54600c54604080517f7f8d429e0000000000000000000000000000000000000000000000000000000081526004810192909252516000926001600160a01b031691637f8d429e916024808301926020929190829003018186803b158015613a2657600080fd5b505afa158015613a3a573d6000803e3d6000fd5b505050506040513d6020811015613a5057600080fd5b5051905090565b600e54600c54604080517fd09cc57e00000000000000000000000000000000000000000000000000000000815260048101929092525160009283926001600160a01b039091169163d09cc57e91602480820192602092909190829003018186803b158015613ac457600080fd5b505afa158015613ad8573d6000803e3d6000fd5b505050506040513d6020811015613aee57600080fd5b505191505090565b600f54604080517fa9059cbb0000000000000000000000000000000000000000000000000000000081526001600160a01b038581166004830152602482018590529151919092169163a9059cbb9160448083019260209291908290030181600087803b158015613b6557600080fd5b505af1158015613b79573d6000803e3d6000fd5b505050506040513d6020811015613b8f57600080fd5b5051611f08576040805162461bcd60e51b815260206004820152601460248201527f43617368207472616e73666572206661696c6564000000000000000000000000604482015290519081900360640190fd5b6000610e86838361444a565b5490565b6000610e868383614462565b6000610e868383614528565b600061365684846001600160a01b038516614572565b81546000908210613c625760405162461bcd60e51b81526004018080602001828103825260228152602001806147226022913960400191505060405180910390fd5b826000018281548110613c7157fe5b9060005260206000200154905092915050565b60008184841115613d135760405162461bcd60e51b81526004018080602001828103825283818151815260200191508051906020019080838360005b83811015613cd8578181015183820152602001613cc0565b50505050905090810190601f168015613d055780820380516001836020036101000a031916815260200191505b509250505060405180910390fd5b505050900390565b60008183613d6a5760405162461bcd60e51b8152602060048201818152835160248401528351909283926044909101919085019080838360008315613cd8578181015183820152602001613cc0565b506000838581613d7657fe5b0495945050505050565b600080805b600a811015613e3c57613dae6001604c8660148110613da057fe5b01549063ffffffff612d8216565b604c8560148110613dbb57fe5b0155604c8460148110613dca57fe5b015460008581526063602090815260408083208484529091529020549093506001600160a01b0316915082613e0757613e0284614609565b613e3c565b60008481526066602090815260408083206001600160a01b038616845290915290205415613e3457613e3c565b600101613d85565b50600d54604080517f6352211e000000000000000000000000000000000000000000000000000000008152600481018690529051309261010090046001600160a01b031691636352211e916024808301926020929190829003018186803b158015613ea657600080fd5b505afa158015613eba573d6000803e3d6000fd5b505050506040513d6020811015613ed057600080fd5b50516001600160a01b031614610d5657600d54604080517f6352211e00000000000000000000000000000000000000000000000000000000815260048101869052905160009261010090046001600160a01b031691636352211e916024808301926020929190829003018186803b158015613f4a57600080fd5b505afa158015613f5e573d6000803e3d6000fd5b505050506040513d6020811015613f7457600080fd5b50516000858152606360209081526040808320878452909152902060010154909150613fa28284838861337a565b6040516001600160a01b0384169086907fdcd7d049706cf89eb40b5726d483d3aa2001e43b729f0f411cdda43c2fe59f5290600090a35050505050565b600f54604080517f23b872dd0000000000000000000000000000000000000000000000000000000081526001600160a01b03858116600483015230602483015260448201859052915191909216916323b872dd9160648083019260209291908290030181600087803b158015613b6557600080fd5b8154600090819083106140985760405162461bcd60e51b81526004018080602001828103825260228152602001806148516022913960400191505060405180910390fd5b60008460000184815481106140a957fe5b906000526020600020906002020190508060000154816001015492509250509250929050565b6000828152600184016020526040812054828161412d5760405162461bcd60e51b8152602060048201818152835160248401528351909283926044909101919085019080838360008315613cd8578181015183820152602001613cc0565b5084600001600182038154811061414057fe5b9060005260206000209060020201600101549150509392505050565b6000614170846001600160a01b03166146e8565b61417c57506001612c10565b600060606001600160a01b0386167f150b7a02000000000000000000000000000000000000000000000000000000006141b3612adf565b89888860405160240180856001600160a01b03166001600160a01b03168152602001846001600160a01b03166001600160a01b0316815260200183815260200180602001828103825283818151815260200191508051906020019080838360005b8381101561422c578181015183820152602001614214565b50505050905090810190601f1680156142595780820380516001836020036101000a031916815260200191505b50604080517fffffffffffffffffffffffffffffffffffffffffffffffffffffffffffffffe08184030181529181526020820180517bffffffffffffffffffffffffffffffffffffffffffffffffffffffff167fffffffff00000000000000000000000000000000000000000000000000000000909a16999099178952518151919890975087965094509250829150849050835b6020831061432a57805182527fffffffffffffffffffffffffffffffffffffffffffffffffffffffffffffffe090920191602091820191016142ed565b6001836020036101000a0380198251168184511680821785525050505050509050019150506000604051808303816000865af19150503d806000811461438c576040519150601f19603f3d011682016040523d82523d6000602084013e614391565b606091505b5091509150816143e2578051156143ab5780518082602001fd5b60405162461bcd60e51b81526004018080602001828103825260328152602001806147446032913960400191505060405180910390fd5b60008180602001905160208110156143f957600080fd5b50517fffffffff00000000000000000000000000000000000000000000000000000000167f150b7a0200000000000000000000000000000000000000000000000000000000149350612c1092505050565b60009081526001919091016020526040902054151590565b6000818152600183016020526040812054801561451e578354600019808301919081019060009087908390811061449557fe5b90600052602060002001549050808760000184815481106144b257fe5b6000918252602080832090910192909255828152600189810190925260409020908401905586548790806144e257fe5b60019003818190600052602060002001600090559055866001016000878152602001908152602001600020600090556001945050505050610e89565b6000915050610e89565b6000614534838361444a565b61456a57508154600181810184556000848152602080822090930184905584548482528286019093526040902091909155610e89565b506000610e89565b6000828152600184016020526040812054806145d7575050604080518082018252838152602080820184815286546001818101895560008981528481209551600290930290950191825591519082015586548684528188019092529290912055613659565b828560000160018303815481106145ea57fe5b9060005260206000209060020201600101819055506000915050613659565b600d54604080517f6352211e00000000000000000000000000000000000000000000000000000000815260048101849052905160009261010090046001600160a01b031691636352211e916024808301926020929190829003018186803b15801561467357600080fd5b505afa158015614687573d6000803e3d6000fd5b505050506040513d602081101561469d57600080fd5b505190506146ae813060008561337a565b60405182906001600160a01b038316907fafcc8a4b82e5204af0a7a41fc84d1d60492410d031ee4ea1769a4f90fd1fb59d90600090a35050565b6000813f7fc5d2460186f7233c927e7db2dcc703c0e500b653ca82273b7bfad8045d85a470818114801590612c1057505015159291505056fe456e756d657261626c655365743a20696e646578206f7574206f6620626f756e64734552433732313a207472616e7366657220746f206e6f6e20455243373231526563656976657220696d706c656d656e7465724552433732313a207472616e7366657220746f20746865207a65726f20616464726573734552433732313a206f70657261746f7220717565727920666f72206e6f6e6578697374656e7420746f6b656e4552433732313a20617070726f76652063616c6c6572206973206e6f74206f776e6572206e6f7220617070726f76656420666f7220616c6c4552433732313a2062616c616e636520717565727920666f7220746865207a65726f20616464726573734552433732313a206f776e657220717565727920666f72206e6f6e6578697374656e7420746f6b656e456e756d657261626c654d61703a20696e646578206f7574206f6620626f756e6473536166654d6174683a206d756c7469706c69636174696f6e206f766572666c6f774552433732313a20617070726f76656420717565727920666f72206e6f6e6578697374656e7420746f6b656e4552433732313a207472616e73666572206f6620746f6b656e2074686174206973206e6f74206f776e4552433732314d657461646174613a2055524920717565727920666f72206e6f6e6578697374656e7420746f6b656e4e6f7420612077696e6e65722c206f722077696e6e696e677320616c726561647920706169644552433732313a20617070726f76616c20746f2063757272656e74206f776e657250616964206e6f2072656e742c206f722072656e7420616c72656164792072657475726e65644552433732313a207472616e736665722063616c6c6572206973206e6f74206f776e6572206e6f7220617070726f766564a264697066735822122072a778a993e1a5d5e96f2beffc1c058b003ae602fc31096e4c35c30129a23cc164736f6c63430006060033546573742036e2909f2258222c2259222c225a22e2909f6e6577732d706f6c6974696373e2909f656e5f5553",
  "immutableReferences": {},
  "source": "pragma solidity 0.6.6;\nimport \"@openzeppelin/contracts/math/SafeMath.sol\";\nimport \"@openzeppelin/contracts/token/ERC721/ERC721.sol\";\nimport \"./interfaces/ICash.sol\";\nimport \"./interfaces/IRealitio.sol\";\nimport \"./Token.sol\";\n\n/// @title Harber\n/// @author Andrew Stanger\n\ncontract Harber is ERC721 {\n\n    using SafeMath for uint256;\n\n    ////////////////////////////////////\n    //////// VARIABLES /////////////////\n    ////////////////////////////////////\n\n    /// CONTRACT SETUP\n    /// @dev not set in the constructor because so many other variables need it for initating.  \n    uint256 constant private numberOfTokens = 20;\n    /// @dev counts how many NFTs have been minted \n    /// @dev when nftMintCount = numberOfTokens, allNftsMinted -> true\n    uint256 private nftMintCount;\n    /// @dev must be true for any functions to work (except mintNfts)\n    bool private allNftsMinted;\n    /// @dev for circuit breaker\n    address private owner; \n    /// @dev the question ID of the question on realitio\n    bytes32 public questionId;\n    /// @dev only for _revertToPreviousOwner to prevent gas limits\n    uint256 constant private MAX_ITERATIONS = 10;\n    enum States {NFTSNOTMINTED, OPEN, LOCKED, WITHDRAW}\n    States public state; \n\n    /// CONTRACT VARIABLES\n    Token public token;\n    IRealitio public realitio;\n    ICash public cash; \n\n    /// NFT/USER DATA\n    /// @dev in attodai (so $100 = 100000000000000000000)\n    uint256[numberOfTokens] public price; \n    /// @dev used to determine the rent due. Rent is due for the period (now - timeLastCollected), at which point timeLastCollected is set to now.\n    uint256[numberOfTokens] public timeLastCollected; \n    /// @dev when a token was bought. Used to enforce minimum of one hour rental, also used in front end. Rent collection does not need this, only needs timeLastCollected.\n    uint256[numberOfTokens] public timeAcquired; \n    /// @dev tracks the position of the current owner in the ownerTracker mapping\n    uint256[numberOfTokens] public currentOwnerIndex; \n    /// @dev an easy way to track the above across all tokens. It should always increment at the same time as the above increments. \n    uint256 public totalCollected; \n    \n    /// WINNING OUTCOME VARIABLES\n    /// @dev start with invalid winning outcome\n    uint256 public winningOutcome = 42069; \n    //// @dev when the question can be answered on Realitio. \n    uint32 public marketExpectedResolutionTime; \n\n    /// MARKET RESOLUTION VARIABLES\n    bool public questionResolvedInvalid = true; // set in step 2. If false, normal payout. If true, return all funds\n    \n    ///  STRUCTS\n    struct purchase {\n        address owner;\n        uint256 price;\n    }\n    \n    /// MAPPINGS\n    /// @dev keeps track of all previous owners of a token, including the price, so that if the current owner's deposit runs out,\n    /// @dev ...ownership can be reverted to a previous owner with the previous price. Index 0 is NOT used, this tells the contract to foreclose.\n    /// @dev this does NOT keep a reliable list of all owners, if it reverts to a previous owner then the next owner will overwrite the owner that was in that slot.\n    /// @dev the variable currentOwnerIndex is used to track the location of the current owner. \n    mapping (uint256 => mapping (uint256 => purchase) ) public ownerTracker;  \n    /// @dev how many seconds each user has held each token for, for determining winnings  \n    mapping (uint256 => mapping (address => uint256) ) public timeHeld;\n    /// @dev sums all the timeHelds for each  Not required, but saves on gas when paying out. Should always increment at the same time as timeHeld\n    mapping (uint256 => uint256) public totalTimeHeld; \n    /// @dev keeps track of all the deposits for each token, for each owner. Unused deposits are not returned automatically when there is a new buyer. \n    /// @dev they can be withdrawn manually however. Unused deposits are returned automatically upon resolution of the market\n    mapping (uint256 => mapping (address => uint256) ) public deposits; \n    /// @dev keeps track of all the rent paid by each user. So that it can be returned in case of an invalid market outcome. Only required in this instance. \n    mapping (address => uint256) public collectedPerUser;\n    /// @dev keeps track of all the rent paid for each  Front end only\n    mapping (uint256 => uint256) public collectedPerToken;\n\n    ////////////////////////////////////\n    //////// CONSTRUCTOR ///////////////\n    ////////////////////////////////////\n\n    constructor(address _owner, Token _addressOfTokenContract, ICash _addressOfCashContract, IRealitio _addressOfRealitioContract, uint32 _marketExpectedResolutionTime) ERC721(\"realitycards.io\", \"RC\")  public\n    {\n        //assign arguments to relevant variables\n        marketExpectedResolutionTime = _marketExpectedResolutionTime;\n        owner = _owner;\n        \n        // external contract variables:\n        token = _addressOfTokenContract;\n        realitio = _addressOfRealitioContract;\n        cash = _addressOfCashContract;\n\n        // Create the question on Realitio\n        uint256 template_id = 2;\n        string memory question = 'Test 6\"X\",\"Y\",\"Z\"news-politicsen_US';\n        address arbitrator = 0xA6EAd513D05347138184324392d8ceb24C116118; // to change\n        uint32 timeout = 86400; // 24 hours\n        uint32 opening_ts = _marketExpectedResolutionTime;\n        uint256 nonce = 0;\n        questionId = _postQuestion(template_id, question, arbitrator, timeout, opening_ts, nonce);\n    } \n\n    ////////////////////////////////////\n    //////// EVENTS ////////////////////\n    ////////////////////////////////////\n\n    event LogNewRental(address indexed newOwner, uint256 indexed newPrice, uint256 indexed tokenId);\n    event LogPriceChange(uint256 indexed newPrice, uint256 indexed tokenId);\n    event LogForeclosure(address indexed prevOwner, uint256 indexed tokenId);\n    event LogRentCollection(uint256 indexed rentCollected, uint256 indexed tokenId);\n    event LogReturnToPreviousOwner(uint256 indexed tokenId, address indexed previousOwner);\n    event LogDepositWithdrawal(uint256 indexed daiWithdrawn, uint256 indexed tokenId, address indexed returnedTo);\n    event LogDepositIncreased(uint256 indexed daiDeposited, uint256 indexed tokenId, address indexed sentBy);\n    event LogStep1Complete(bool indexed didTheEventFinish);\n    event LogStep2Complete(bool indexed didRealitioResolve, uint256 indexed winningOutcome, bool indexed didRealitioResolveInvalid);\n    event LogWinningsPaid(address indexed paidTo, uint256 indexed amountPaid);\n    event LogRentReturned(address indexed returnedTo, uint256 indexed amountReturned);\n    event TestingVariable(uint indexed testingVariable);\n\n    ////////////////////////////////////\n    //////// INITIAL SETUP /////////////\n    ////////////////////////////////////\n\n    /// @notice set this contract as owner of the Token contract\n    function setTokenOwner() external {\n        token.setOwner();\n    }\n\n    /// @notice mint the NFTs. Must setTokenOwner first or will revert\n    function mintNfts(string calldata _uri) external checkState(States.NFTSNOTMINTED) {\n        token.mint(address(this), nftMintCount, _uri); \n        nftMintCount = nftMintCount.add(1);\n        if (nftMintCount == numberOfTokens) {\n            _incrementState();\n            token.lock();\n        }\n    }\n\n    ////////////////////////////////////\n    /////////// MODIFIERS //////////////\n    ////////////////////////////////////\n\n    modifier checkState(States currentState) {\n        require(state == currentState, \"Incorrect state\");\n        _;\n    }\n\n    /// @notice checks the token exists\n    modifier tokenExists(uint256 _tokenId) {\n        require(_tokenId  >= 0 && _tokenId < numberOfTokens, \"This token does not exist\");\n       _;\n    }\n\n    /// @notice what it says on the tin\n    modifier amountNotZero(uint256 _dai) {\n        require(_dai  > 0, \"Amount must be above zero\");\n       _;\n    }\n\n    /// @notice what it says on the tin\n    modifier onlyTokenOwner(uint256 _tokenId) {\n        require(msg.sender == token.ownerOf(_tokenId), \"Not owner\");\n       _;\n    }\n\n    ////////////////////////////////////\n    //////// VIEW FUNCTIONS ////////////\n    ////////////////////////////////////\n\n    /// @dev called in collectRent function, and various other view functions \n    function rentOwed(uint256 _tokenId) public view returns (uint256) {\n        return price[_tokenId].mul(now.sub(timeLastCollected[_tokenId])).div(1 days);\n    }\n\n    /// @dev used in testing only\n    function getOwnerTrackerPrice(uint256 _tokenId, uint256 _index) external view returns (uint256) {\n        return (ownerTracker[_tokenId][_index].price);\n    }\n\n    /// @dev used in testing only\n    function getOwnerTrackerAddress(uint256 _tokenId, uint256 _index) external view returns (address) {\n        return (ownerTracker[_tokenId][_index].owner);\n    }\n\n    /// @dev for front end only\n    /// @return how much the current owner has deposited\n    function liveDepositAbleToWithdraw(uint256 _tokenId) public view returns (uint256) {\n        uint256 _rentOwed = rentOwed(_tokenId);\n        address _currentOwner = token.ownerOf(_tokenId);\n        if(_rentOwed >= deposits[_tokenId][_currentOwner]) {\n            return 0;\n        } else {\n            return deposits[_tokenId][_currentOwner].sub(_rentOwed);\n        }\n    }\n\n    /// @dev for front end only\n    /// @return how much the current user has deposited (note: user not owner)\n    function userDepositAbleToWithdraw(uint256 _tokenId) external view returns (uint256) {\n        uint256 _rentOwed = rentOwed(_tokenId);\n        address _currentOwner = token.ownerOf(_tokenId);\n\n        if(_currentOwner == msg.sender) {\n            if(_rentOwed >= deposits[_tokenId][msg.sender]) {\n                return 0;\n            } else {\n                return deposits[_tokenId][msg.sender].sub(_rentOwed);\n            }\n        } else {\n            return deposits[_tokenId][msg.sender];\n        }\n    }\n\n    /// @dev for front end only\n    /// @return estimated rental expiry time\n    function rentalExpiryTime(uint256 _tokenId) external view returns (uint256) {\n        uint256 pps;\n        pps = price[_tokenId].div(1 days);\n        if (pps == 0) {\n            return now; //if price is so low that pps = 0 just return current time as a fallback\n        }\n        else {\n            return now + liveDepositAbleToWithdraw(_tokenId).div(pps);\n        }\n    }\n\n    /// @dev for front end and _payoutWinnings function\n    function getWinnings(uint256 _winningOutcome) public view returns (uint256) {\n        uint256 _winnersTimeHeld = timeHeld[_winningOutcome][msg.sender];\n        uint256 _numerator = totalCollected.mul(_winnersTimeHeld);\n        uint256 _winnings = _numerator.div(totalTimeHeld[winningOutcome]);    \n        return _winnings;    \n    }\n    \n    ////////////////////////////////////\n    ///// EXTERNAL DAI FUNCTIONS ///////\n    ////////////////////////////////////\n\n    // * internal * \n    /// @notice common function for all outgoing DAI transfers\n    function _sendCash(address _to, uint256 _amount) internal { \n        require(cash.transfer(_to,_amount), \"Cash transfer failed\"); \n    }\n\n    // * internal * \n    /// @notice common function for all incoming DAI transfers\n    function _receiveCash(address _from, uint256 _amount) internal {  \n        require(cash.transferFrom(_from, address(this), _amount), \"Cash transfer failed\");\n    }\n\n    ////////////////////////////////////\n    //// EXTERNAL REALITIO FUNCTIONS ///\n    ////////////////////////////////////\n\n    /// @notice posts the question to realit.io\n    function _postQuestion(uint256 template_id, string memory question, address arbitrator, uint32 timeout, uint32 opening_ts, uint256 nonce) internal returns (bytes32) {\n        return realitio.askQuestion(template_id, question, arbitrator, timeout, opening_ts, nonce);\n    }\n\n    /// @notice gets the winning outcome from realitio\n    /// @dev the returned value is equivilent to tokenId\n    /// @dev this function call will revert if it has not yet resolved\n    function _getWinner() internal view returns(uint256) {\n        bytes32 _winningOutcome = realitio.resultFor(questionId);\n        return uint256(_winningOutcome);\n    }\n\n    /// @notice has the question been finalized on realitio?\n    function _isQuestionFinalized() internal view returns (bool) {\n        return realitio.isFinalized(questionId);\n    }\n\n    ////////////////////////////////////\n    //// MARKET RESOLUTION FUNCTIONS ///\n    ////////////////////////////////////\n\n    /// @notice the first of two functions which must be called, one after the other, to conclude the competition\n    /// @notice winnings can be paid out (or funds returned) only when these three steps are completed\n    /// @notice this function checks whether the competition has ended (1 hour grace), if so closes down all 'ordinary course of business' functions\n    /// @dev can be called by anyone \n    function step1checkMarketEnded() external checkState(States.OPEN) {\n        require(marketExpectedResolutionTime < (now - 1 hours), \"Market has not finished\");\n        // do a final rent collection before the contract is locked down\n        collectRentAllTokens();\n        // lock everything down\n        _incrementState();\n        emit LogStep1Complete(true);\n    }\n\n    /// @notice the second of two functions which must be called, one after the other, to conclude the competition\n    /// @notice this function checks whether the Realitio question has resolved, and if yes, gets the winner\n    /// @dev can be called by anyone \n    function step2getWinner() external checkState(States.LOCKED) {\n        require(_isQuestionFinalized() == true, \"Oracle not resolved\");\n        // get the winner. This will revert if answer is not resolved.\n        winningOutcome = _getWinner();\n        // check if question resolved invalid\n        if (winningOutcome !=  ((2**256)-1)) {\n            questionResolvedInvalid = false;\n        }\n        _incrementState();\n        emit LogStep2Complete(true, winningOutcome, questionResolvedInvalid);\n    }\n\n    /// @notice emergency function in case the Realitio question never resolves for whatever reason, can be called by anyone\n    /// @notice returns all funds to all users\n    /// @notice can only be called 1 month after Realitio question should have ended \n    function step2BemergencyExit() external checkState(States.LOCKED) {\n        require(now > (marketExpectedResolutionTime + 4 weeks), \"Must wait 1 month\");\n        _incrementState();\n        emit LogStep2Complete(false, winningOutcome, false);\n    }\n\n    /// @notice Same as above, except that only owner can call it, and can be called whenever\n    /// @notice to be clear, this only allows owner to return all funds, not to set a winner\n    function step2CcircuitBreaker() external checkState(States.LOCKED) {\n        require(msg.sender == owner, \"Only owner can call this\");\n        _incrementState();\n        emit LogStep2Complete(false, winningOutcome, false);\n    }\n\n    /// @notice the final function of the competition resolution process. Pays out winnings, or returns funds, as necessary\n    /// @dev users pull dai into their ac   count. \n    function complete() external checkState(States.WITHDRAW) {\n        if (!questionResolvedInvalid) {\n            _payoutWinnings();\n        } else {\n             _returnRent();\n        }\n    }\n\n     // * internal * \n    /// @notice pays winnings to the winners\n    /// @dev must be internal and only called by complete\n    function _payoutWinnings() internal {\n        uint256 _winningsToTransfer = getWinnings(winningOutcome);\n        require(_winningsToTransfer > 0, \"Not a winner, or winnings already paid\");\n        timeHeld[winningOutcome][msg.sender] = 0; // otherwise they can keep paying themselves over and over\n        _sendCash(msg.sender, _winningsToTransfer);\n        emit LogWinningsPaid(msg.sender, _winningsToTransfer);\n    }\n\n    // * internal * \n    /// @notice returns all funds to users in case of invalid outcome\n    /// @dev must be internal and only called by complete\n    function _returnRent() internal {\n        uint256 _rentCollected = collectedPerUser[msg.sender];\n        require(_rentCollected > 0, \"Paid no rent, or rent already returned\");\n        collectedPerUser[msg.sender] = 0; // otherwise they can keep paying themselves over and over\n        _sendCash(msg.sender, _rentCollected);\n        emit LogRentReturned(msg.sender, _rentCollected);\n    }\n\n    /// @notice withdraw full deposit after markets have resolved\n    /// @dev the other withdraw deposit functions are locked when markets have closed so must use this one\n    /// @dev can be called in either locked or withdraw state\n    /// @dev this function is also different in that it does \n    /// @dev ... not attempt to collect rent or transfer ownership to a previous owner\n    function withdrawDepositAfterMarketEnded() external {\n        require(state != States.NFTSNOTMINTED, \"Incorrect state\");\n        require(state != States.OPEN, \"Incorrect state\");\n        for (uint i = 0; i < numberOfTokens; i++) {\n\n            uint256 _depositToReturn = deposits[i][msg.sender];\n\n            if (_depositToReturn > 0) {\n                deposits[i][msg.sender] = 0;\n                _sendCash(msg.sender, _depositToReturn);\n                emit LogDepositWithdrawal(_depositToReturn, i, msg.sender);\n            }\n        }\n    }\n\n    ////////////////////////////////////\n    ///// MAIN FUNCTIONS- EXTERNAL /////\n    ////////////////////////////////////\n    /// @dev basically functions that have checkState(States.OPEN) modifier\n\n    /// @notice collects rent for all tokens\n    /// @dev makes it easy for me to call whenever I want to keep people paying their rent, thus cannot be internal\n    /// @dev cannot be external because it is called within the step1 functions, therefore public\n    function collectRentAllTokens() public checkState(States.OPEN) {\n       for (uint i = 0; i < numberOfTokens; i++) {\n            _collectRent(i);\n        }\n    }\n    \n    /// @notice to rent a token\n    function newRental(uint256 _newPrice, uint256 _tokenId, uint256 _deposit) external checkState(States.OPEN) tokenExists(_tokenId) amountNotZero(_deposit) {\n        uint256 _currentPricePlusTenPercent = price[_tokenId].mul(11).div(10);\n        uint256 _oneHoursDeposit = _newPrice.div(24);\n        require(_newPrice >= _currentPricePlusTenPercent, \"Price not 10% higher\");\n        require(_deposit >= _oneHoursDeposit, \"One hour's rent minimum\");\n        require(_newPrice >= 0.01 ether, \"Minimum rental 0.01 Dai\");\n        \n        _collectRent(_tokenId);\n        _depositDai(_deposit, _tokenId);\n\n        address _currentOwner = token.ownerOf(_tokenId);\n\n        if (_currentOwner == msg.sender) { // bought by current owner- just change price\n            _changePrice(_newPrice, _tokenId);\n        } else {   // bought by new user- the normal flow\n            // update internals\n            currentOwnerIndex[_tokenId] = currentOwnerIndex[_tokenId].add(1); \n            ownerTracker[_tokenId][currentOwnerIndex[_tokenId]].price = _newPrice;\n            ownerTracker[_tokenId][currentOwnerIndex[_tokenId]].owner = msg.sender; \n            timeAcquired[_tokenId] = now;\n            _transferTokenTo(_currentOwner, msg.sender, _newPrice, _tokenId);\n            emit LogNewRental(msg.sender, _newPrice, _tokenId); \n        }\n    }\n\n    /// @notice add new dai deposit to an existing rental\n    /// @dev it is possible a user's deposit could be reduced to zero following _collectRent\n    /// @dev they would then increase their deposit despite no longer owning it\n    /// @dev this is ok, they can still withdraw via withdrawDeposit. \n    /// @dev can be called by anyone- you can top up someone else's deposit if you wish!\n    function depositDai(uint256 _dai, uint256 _tokenId) external checkState(States.OPEN) amountNotZero(_dai) tokenExists(_tokenId) {\n        _collectRent(_tokenId);\n        _depositDai(_dai, _tokenId);\n    }\n\n    /// @notice increase the price of an existing rental\n    function changePrice(uint256 _newPrice, uint256 _tokenId) external checkState(States.OPEN) tokenExists(_tokenId) onlyTokenOwner(_tokenId) {\n        require(_newPrice > price[_tokenId], \"New price must be higher\"); \n        _collectRent(_tokenId);\n        _changePrice(_newPrice, _tokenId);\n    }\n    \n    /// @notice withdraw deposit\n    /// @dev do not need to be the current owner\n    /// @dev public because called by exit\n    function withdrawDeposit(uint256 _daiToWithdraw, uint256 _tokenId) public checkState(States.OPEN) tokenExists(_tokenId) amountNotZero(_daiToWithdraw) {\n        _collectRent(_tokenId);\n        uint256 _remainingDeposit = deposits[_tokenId][msg.sender];\n        // deposits may be lower (or zero) then when function called due to _collectRent \n        if (_remainingDeposit > 0) { \n            if (_remainingDeposit < _daiToWithdraw) {\n                _daiToWithdraw = _remainingDeposit;\n            }\n            _withdrawDeposit(_daiToWithdraw, _tokenId);\n            emit LogDepositWithdrawal(_daiToWithdraw, _tokenId, msg.sender);\n        }\n    }\n\n    /// @notice withdraw full deposit\n    /// @dev do not need to be the current owner\n    /// @dev no modifiers because they are on withdrawDeposit\n    function exit(uint256 _tokenId) external {\n        withdrawDeposit(deposits[_tokenId][msg.sender],  _tokenId);\n    }\n\n    ////////////////////////////////////\n    ///// MAIN FUNCTIONS- INTERNAL /////\n    ////////////////////////////////////\n\n    /// @dev should only be called thrice\n    function _incrementState() internal  {\n        state = States(uint(state) + 1);\n    }\n\n    /// @notice collects rent for a specific token\n    /// @dev also calculates and updates how long the current user has held the token for\n    /// @dev called frequently internally, so cant be external. \n    /// @dev is not a problem if called externally, but making internal over public to save gas\n    function _collectRent(uint256 _tokenId) internal {\n        //only collect rent if the token is owned (ie, if owned by the contract this implies unowned)\n        if (token.ownerOf(_tokenId) != address(this)) {\n            \n            uint256 _rentOwed = rentOwed(_tokenId);\n            address _currentOwner = token.ownerOf(_tokenId);\n            uint256 _timeOfThisCollection;\n            \n            if (_rentOwed >= deposits[_tokenId][_currentOwner]) {\n                // run out of deposit. Calculate time it was actually paid for, then revert to previous owner \n                _timeOfThisCollection = timeLastCollected[_tokenId].add(((now.sub(timeLastCollected[_tokenId])).mul(deposits[_tokenId][_currentOwner]).div(_rentOwed)));\n                _rentOwed = deposits[_tokenId][_currentOwner]; // take what's left     \n                _revertToPreviousOwner(_tokenId);\n                \n            } else  {\n                // normal collection\n                _timeOfThisCollection = now;\n            }\n\n            // decrease deposit by rent owed\n            deposits[_tokenId][_currentOwner] = deposits[_tokenId][_currentOwner].sub(_rentOwed);\n\n            // update time held and amount collected variables\n            uint256 _timeHeldToIncrement = (_timeOfThisCollection.sub(timeLastCollected[_tokenId])); //just for readability\n            timeHeld[_tokenId][_currentOwner] = timeHeld[_tokenId][_currentOwner].add(_timeHeldToIncrement);\n            totalTimeHeld[_tokenId] = totalTimeHeld[_tokenId].add(_timeHeldToIncrement);\n            collectedPerUser[_currentOwner] = collectedPerUser[_currentOwner].add(_rentOwed);\n            collectedPerToken[_tokenId] = collectedPerToken[_tokenId].add(_rentOwed);\n            totalCollected = totalCollected.add(_rentOwed);\n\n            emit LogRentCollection(_rentOwed, _tokenId);\n        }\n\n        // timeLastCollected is updated regardless of whether the token is owned, so that the clock starts ticking\n        // ... when the first owner buys it, because this function is run before ownership changes upon calling\n        // ... newRental\n        timeLastCollected[_tokenId] = now;\n    }\n\n    /// @dev depositDai is split into two, because it needs to be called direct from newRental\n    /// @dev ... without collecing rent first (otherwise it would be collected twice, possibly causing logic errors)\n    function _depositDai(uint256 _dai, uint256 _tokenId) internal {\n        deposits[_tokenId][msg.sender] = deposits[_tokenId][msg.sender].add(_dai);\n        _receiveCash(msg.sender, _dai);\n        emit LogDepositIncreased(_dai, _tokenId, msg.sender);\n    }\n\n    /// @dev changePrice is split into two, because it needs to be called direct from newRental\n    /// @dev ... without collecing rent first (otherwise it would be collected twice, possibly causing logic errors)\n    function _changePrice(uint256 _newPrice, uint256 _tokenId) internal {\n        // below is the only instance when price is modifed outside of the _transferTokenTo function\n        price[_tokenId] = _newPrice;\n        ownerTracker[_tokenId][currentOwnerIndex[_tokenId]].price = _newPrice;\n        emit LogPriceChange(price[_tokenId], _tokenId);\n    }\n\n    /// @notice actually withdraw the deposit and call _revertToPreviousOwner if necessary\n    function _withdrawDeposit(uint256 _daiToWithdraw, uint256 _tokenId) internal {\n        assert(deposits[_tokenId][msg.sender] >= _daiToWithdraw);\n        address _currentOwner = token.ownerOf(_tokenId);\n\n        // must rent for minimum of 1 hour for current owner\n        if(_currentOwner == msg.sender) {\n            uint256 _oneHour = 3600;\n            uint256 _secondsOwned = now.sub(timeAcquired[_tokenId]);\n            if (_secondsOwned < _oneHour) { \n                uint256 _oneHoursDeposit = price[_tokenId].div(24);\n                uint256 _secondsStillToPay = _oneHour.sub(_secondsOwned);\n                uint256 _minDepositToLeave = _oneHoursDeposit.mul(_secondsStillToPay).div(_oneHour);\n                uint256 _maxDaiToWithdraw = deposits[_tokenId][msg.sender].sub(_minDepositToLeave);\n                if (_maxDaiToWithdraw < _daiToWithdraw) {\n                    _daiToWithdraw = _maxDaiToWithdraw;\n                }\n            }\n        }\n\n        deposits[_tokenId][msg.sender] = deposits[_tokenId][msg.sender].sub(_daiToWithdraw);\n        \n        if(_currentOwner == msg.sender && deposits[_tokenId][msg.sender] == 0) {\n            _revertToPreviousOwner(_tokenId);\n        }\n        _sendCash(msg.sender, _daiToWithdraw);\n    }\n\n    /// @notice if a users deposit runs out, either return to previous owner or foreclose\n    function _revertToPreviousOwner(uint256 _tokenId) internal {\n        uint256 _index;\n        address _previousOwner;\n\n        // loop max ten times before just assigning it to that owner, to prevent block limit\n        for (uint i=0; i < MAX_ITERATIONS; i++)  {\n            currentOwnerIndex[_tokenId] = currentOwnerIndex[_tokenId].sub(1); // currentOwnerIndex will now point to  previous owner\n            _index = currentOwnerIndex[_tokenId]; // just for readability\n            _previousOwner = ownerTracker[_tokenId][_index].owner;\n\n            // if no previous owners. price -> zero, foreclose\n            // if previous owner still has a deposit, transfer to them, update the price to what it used to be\n            if (_index == 0) {\n                _foreclose(_tokenId);\n                break;\n            } else if (deposits[_tokenId][_previousOwner] > 0) {\n                break;\n            }  \n        }   \n\n        // if the above loop did not foreclose, then transfer to previous owner\n        if (token.ownerOf(_tokenId) != address(this)) {\n            address _currentOwner = token.ownerOf(_tokenId);\n            uint256 _oldPrice = ownerTracker[_tokenId][_index].price;\n            _transferTokenTo(_currentOwner, _previousOwner, _oldPrice, _tokenId);\n            emit LogReturnToPreviousOwner(_tokenId, _previousOwner);\n        }\n    }\n\n    /// @notice return token to the contract and return price to zero\n    function _foreclose(uint256 _tokenId) internal {\n        address _currentOwner = token.ownerOf(_tokenId);\n        // third field is price, ie price goes to zero\n        _transferTokenTo(_currentOwner, address(this), 0, _tokenId);\n        emit LogForeclosure(_currentOwner, _tokenId);\n    }\n\n    /// @notice transfer ERC 721 between users\n    /// @dev there is no event emitted as this is handled in ERC721.sol\n    function _transferTokenTo(address _currentOwner, address _newOwner, uint256 _newPrice, uint256 _tokenId) internal {\n        require(_currentOwner != address(0) && _newOwner != address(0) , \"Cannot send to/from zero address\");\n        price[_tokenId] = _newPrice;\n        token.transferRcOnly(_currentOwner, _newOwner, _tokenId);\n    }\n\n}\n\n",
  "sourcePath": "/Users/mcplums/Repos/Harber/contracts/Harber.sol",
  "compiler": {
    "name": "solc",
    "version": "0.6.6+commit.6c089d02.Emscripten.clang"
  },
  "schemaVersion": "3.1.0",
  "updatedAt": "2020-05-07T08:09:30.896Z",
  "devdoc": {
    "author": "Andrew Stanger",
    "methods": {
      "approve(address,uint256)": {
        "details": "Approves another address to transfer the given token ID The zero address indicates there is no approved address. There can only be one approved address per token at a given time. Can only be called by the token owner or an approved operator.",
        "params": {
          "to": "address to be approved for the given token ID",
          "tokenId": "uint256 ID of the token to be approved"
        }
      },
      "balanceOf(address)": {
        "details": "Gets the balance of the specified address.",
        "params": {
          "owner": "address to query the balance of"
        },
        "returns": {
          "_0": "uint256 representing the amount owned by the passed address"
        }
      },
      "baseURI()": {
        "details": "Returns the base URI set via {_setBaseURI}. This will be automatically added as a prefix in {tokenURI} to each token's URI, or to the token ID if no specific URI is set for that token ID."
      },
      "collectRentAllTokens()": {
        "details": "basically functions that have checkState(States.OPEN) modifiermakes it easy for me to call whenever I want to keep people paying their rent, thus cannot be internalcannot be external because it is called within the step1 functions, therefore public"
      },
      "complete()": {
        "details": "users pull dai into their ac   count. "
      },
      "depositDai(uint256,uint256)": {
        "details": "it is possible a user's deposit could be reduced to zero following _collectRentthey would then increase their deposit despite no longer owning itthis is ok, they can still withdraw via withdrawDeposit. can be called by anyone- you can top up someone else's deposit if you wish!"
      },
      "exit(uint256)": {
        "details": "do not need to be the current ownerno modifiers because they are on withdrawDeposit"
      },
      "getApproved(uint256)": {
        "details": "Gets the approved address for a token ID, or zero if no address set Reverts if the token ID does not exist.",
        "params": {
          "tokenId": "uint256 ID of the token to query the approval of"
        },
        "returns": {
          "_0": "address currently approved for the given token ID"
        }
      },
      "getOwnerTrackerAddress(uint256,uint256)": {
        "details": "used in testing only"
      },
      "getOwnerTrackerPrice(uint256,uint256)": {
        "details": "used in testing only"
      },
      "getWinnings(uint256)": {
        "details": "for front end and _payoutWinnings function"
      },
      "isApprovedForAll(address,address)": {
        "details": "Tells whether an operator is approved by a given owner.",
        "params": {
          "operator": "operator address which you want to query the approval of",
          "owner": "owner address which you want to query the approval of"
        },
        "returns": {
          "_0": "bool whether the given operator is approved by the given owner"
        }
      },
      "liveDepositAbleToWithdraw(uint256)": {
        "details": "for front end only",
        "returns": {
          "_0": "how much the current owner has deposited"
        }
      },
      "name()": {
        "details": "Gets the token name.",
        "returns": {
          "_0": "string representing the token name"
        }
      },
      "ownerOf(uint256)": {
        "details": "Gets the owner of the specified token ID.",
        "params": {
          "tokenId": "uint256 ID of the token to query the owner of"
        },
        "returns": {
          "_0": "address currently marked as the owner of the given token ID"
        }
      },
      "rentOwed(uint256)": {
        "details": "called in collectRent function, and various other view functions "
      },
      "rentalExpiryTime(uint256)": {
        "details": "for front end only",
        "returns": {
          "_0": "estimated rental expiry time"
        }
      },
      "safeTransferFrom(address,address,uint256)": {
        "details": "Safely transfers the ownership of a given token ID to another address If the target address is a contract, it must implement {IERC721Receiver-onERC721Received}, which is called upon a safe transfer, and return the magic value `bytes4(keccak256(\"onERC721Received(address,address,uint256,bytes)\"))`; otherwise, the transfer is reverted. Requires the msg.sender to be the owner, approved, or operator",
        "params": {
          "from": "current owner of the token",
          "to": "address to receive the ownership of the given token ID",
          "tokenId": "uint256 ID of the token to be transferred"
        }
      },
      "safeTransferFrom(address,address,uint256,bytes)": {
        "details": "Safely transfers the ownership of a given token ID to another address If the target address is a contract, it must implement {IERC721Receiver-onERC721Received}, which is called upon a safe transfer, and return the magic value `bytes4(keccak256(\"onERC721Received(address,address,uint256,bytes)\"))`; otherwise, the transfer is reverted. Requires the _msgSender() to be the owner, approved, or operator",
        "params": {
          "_data": "bytes data to send along with a safe transfer check",
          "from": "current owner of the token",
          "to": "address to receive the ownership of the given token ID",
          "tokenId": "uint256 ID of the token to be transferred"
        }
      },
      "setApprovalForAll(address,bool)": {
        "details": "Sets or unsets the approval of a given operator An operator is allowed to transfer all tokens of the sender on their behalf.",
        "params": {
          "approved": "representing the status of the approval to be set",
          "operator": "operator address to set the approval"
        }
      },
      "step1checkMarketEnded()": {
        "details": "can be called by anyone "
      },
      "step2getWinner()": {
        "details": "can be called by anyone "
      },
      "supportsInterface(bytes4)": {
        "details": "See {IERC165-supportsInterface}.     * Time complexity O(1), guaranteed to always use less than 30 000 gas."
      },
      "symbol()": {
        "details": "Gets the token symbol.",
        "returns": {
          "_0": "string representing the token symbol"
        }
      },
      "tokenByIndex(uint256)": {
        "details": "Gets the token ID at a given index of all the tokens in this contract Reverts if the index is greater or equal to the total number of tokens.",
        "params": {
          "index": "uint256 representing the index to be accessed of the tokens list"
        },
        "returns": {
          "_0": "uint256 token ID at the given index of the tokens list"
        }
      },
      "tokenOfOwnerByIndex(address,uint256)": {
        "details": "Gets the token ID at a given index of the tokens list of the requested owner.",
        "params": {
          "index": "uint256 representing the index to be accessed of the requested tokens list",
          "owner": "address owning the tokens list to be accessed"
        },
        "returns": {
          "_0": "uint256 token ID at the given index of the tokens list owned by the requested address"
        }
      },
      "tokenURI(uint256)": {
        "details": "Returns the URI for a given token ID. May return an empty string.     * If a base URI is set (via {_setBaseURI}), it is added as a prefix to the token's own URI (via {_setTokenURI}).     * If there is a base URI but no token URI, the token's ID will be used as its URI when appending it to the base URI. This pattern for autogenerated token URIs can lead to large gas savings.     * .Examples |=== |`_setBaseURI()` |`_setTokenURI()` |`tokenURI()` | \"\" | \"\" | \"\" | \"\" | \"token.uri/123\" | \"token.uri/123\" | \"token.uri/\" | \"123\" | \"token.uri/123\" | \"token.uri/\" | \"\" | \"token.uri/<tokenId>\" |===     * Requirements:     * - `tokenId` must exist."
      },
      "totalSupply()": {
        "details": "Gets the total amount of tokens stored by the contract.",
        "returns": {
          "_0": "uint256 representing the total amount of tokens"
        }
      },
      "transferFrom(address,address,uint256)": {
        "details": "Transfers the ownership of a given token ID to another address. Usage of this method is discouraged, use {safeTransferFrom} whenever possible. Requires the msg.sender to be the owner, approved, or operator.",
        "params": {
          "from": "current owner of the token",
          "to": "address to receive the ownership of the given token ID",
          "tokenId": "uint256 ID of the token to be transferred"
        }
      },
      "userDepositAbleToWithdraw(uint256)": {
        "details": "for front end only",
        "returns": {
          "_0": "how much the current user has deposited (note: user not owner)"
        }
      },
      "withdrawDeposit(uint256,uint256)": {
        "details": "do not need to be the current ownerpublic because called by exit"
      },
      "withdrawDepositAfterMarketEnded()": {
        "details": "the other withdraw deposit functions are locked when markets have closed so must use this onecan be called in either locked or withdraw statethis function is also different in that it does ... not attempt to collect rent or transfer ownership to a previous owner"
      }
    },
    "title": "Harber"
  },
  "userdoc": {
    "methods": {
      "changePrice(uint256,uint256)": {
        "notice": "increase the price of an existing rental"
      },
      "collectRentAllTokens()": {
        "notice": "///////////////////////////////// // MAIN FUNCTIONS- EXTERNAL ///// /////////////////////////////////collects rent for all tokens"
      },
      "complete()": {
        "notice": "the final function of the competition resolution process. Pays out winnings, or returns funds, as necessary"
      },
      "constructor": "///////////////////////////////// ///// CONSTRUCTOR /////////////// /////////////////////////////////",
      "depositDai(uint256,uint256)": {
        "notice": "add new dai deposit to an existing rental"
      },
      "exit(uint256)": {
        "notice": "withdraw full deposit"
      },
      "mintNfts(string)": {
        "notice": "mint the NFTs. Must setTokenOwner first or will revert"
      },
      "newRental(uint256,uint256,uint256)": {
        "notice": "to rent a token"
      },
      "rentOwed(uint256)": {
        "notice": "///////////////////////////////// ///// VIEW FUNCTIONS //////////// /////////////////////////////////"
      },
      "setTokenOwner()": {
        "notice": "///////////////////////////////// ///// INITIAL SETUP ///////////// /////////////////////////////////set this contract as owner of the Token contract"
      },
      "step1checkMarketEnded()": {
        "notice": "///////////////////////////////// / MARKET RESOLUTION FUNCTIONS /// /////////////////////////////////the first of two functions which must be called, one after the other, to conclude the competitionwinnings can be paid out (or funds returned) only when these three steps are completedthis function checks whether the competition has ended (1 hour grace), if so closes down all 'ordinary course of business' functions"
      },
      "step2BemergencyExit()": {
        "notice": "emergency function in case the Realitio question never resolves for whatever reason, can be called by anyonereturns all funds to all userscan only be called 1 month after Realitio question should have ended "
      },
      "step2CcircuitBreaker()": {
        "notice": "Same as above, except that only owner can call it, and can be called wheneverto be clear, this only allows owner to return all funds, not to set a winner"
      },
      "step2getWinner()": {
        "notice": "the second of two functions which must be called, one after the other, to conclude the competitionthis function checks whether the Realitio question has resolved, and if yes, gets the winner"
      },
      "withdrawDeposit(uint256,uint256)": {
        "notice": "withdraw deposit"
      },
      "withdrawDepositAfterMarketEnded()": {
        "notice": "withdraw full deposit after markets have resolved"
      }
    }
  }
}