{
  "contractName": "Harber",
  "abi": [
    {
      "inputs": [
        {
          "internalType": "address",
          "name": "_andrewsAddress",
          "type": "address"
        },
        {
          "internalType": "address",
          "name": "_addressOfToken",
          "type": "address"
        },
        {
          "internalType": "address",
          "name": "_addressOfCashContract",
          "type": "address"
        },
        {
          "internalType": "address[20]",
          "name": "_addressesOfMarkets",
          "type": "address[20]"
        },
        {
          "internalType": "address",
          "name": "_addressOfCompleteSetsContract",
          "type": "address"
        },
        {
          "internalType": "address",
          "name": "_addressOfMainAugurContract",
          "type": "address"
        },
        {
          "internalType": "uint256",
          "name": "_marketExpectedResolutionTime",
          "type": "uint256"
        }
      ],
      "payable": false,
      "stateMutability": "nonpayable",
      "type": "constructor"
    },
    {
      "anonymous": false,
      "inputs": [
        {
          "indexed": true,
          "internalType": "address",
          "name": "owner",
          "type": "address"
        },
        {
          "indexed": true,
          "internalType": "uint256",
          "name": "price",
          "type": "uint256"
        }
      ],
      "name": "LogBuy",
      "type": "event"
    },
    {
      "anonymous": false,
      "inputs": [
        {
          "indexed": true,
          "internalType": "uint256",
          "name": "winningOutcome",
          "type": "uint256"
        },
        {
          "indexed": true,
          "internalType": "uint256",
          "name": "daiAvailableToDistribute",
          "type": "uint256"
        }
      ],
      "name": "LogFinalised",
      "type": "event"
    },
    {
      "anonymous": false,
      "inputs": [
        {
          "indexed": true,
          "internalType": "address",
          "name": "prevOwner",
          "type": "address"
        }
      ],
      "name": "LogForeclosure",
      "type": "event"
    },
    {
      "anonymous": false,
      "inputs": [
        {
          "indexed": true,
          "internalType": "uint256",
          "name": "daiAvailableToDistribute",
          "type": "uint256"
        }
      ],
      "name": "LogFundsReturned",
      "type": "event"
    },
    {
      "anonymous": false,
      "inputs": [
        {
          "indexed": true,
          "internalType": "uint256",
          "name": "newPrice",
          "type": "uint256"
        }
      ],
      "name": "LogPriceChange",
      "type": "event"
    },
    {
      "anonymous": false,
      "inputs": [
        {
          "indexed": true,
          "internalType": "uint256",
          "name": "collectedPerMarket",
          "type": "uint256"
        }
      ],
      "name": "LogRentCollection",
      "type": "event"
    },
    {
      "anonymous": false,
      "inputs": [
        {
          "indexed": true,
          "internalType": "uint256",
          "name": "tokenId",
          "type": "uint256"
        },
        {
          "indexed": true,
          "internalType": "address",
          "name": "previousOwner",
          "type": "address"
        }
      ],
      "name": "LogReturnToPreviousOwner",
      "type": "event"
    },
    {
      "constant": true,
      "inputs": [],
      "name": "andrewsAddress",
      "outputs": [
        {
          "internalType": "address",
          "name": "",
          "type": "address"
        }
      ],
      "payable": false,
      "stateMutability": "view",
      "type": "function"
    },
    {
      "constant": true,
      "inputs": [],
      "name": "cash",
      "outputs": [
        {
          "internalType": "contract Cash",
          "name": "",
          "type": "address"
        }
      ],
      "payable": false,
      "stateMutability": "view",
      "type": "function"
    },
    {
      "constant": true,
      "inputs": [
        {
          "internalType": "uint256",
          "name": "",
          "type": "uint256"
        }
      ],
      "name": "collectedPerMarket",
      "outputs": [
        {
          "internalType": "uint256",
          "name": "",
          "type": "uint256"
        }
      ],
      "payable": false,
      "stateMutability": "view",
      "type": "function"
    },
    {
      "constant": true,
      "inputs": [
        {
          "internalType": "address",
          "name": "",
          "type": "address"
        }
      ],
      "name": "collectedPerUser",
      "outputs": [
        {
          "internalType": "uint256",
          "name": "",
          "type": "uint256"
        }
      ],
      "payable": false,
      "stateMutability": "view",
      "type": "function"
    },
    {
      "constant": true,
      "inputs": [],
      "name": "completeSets",
      "outputs": [
        {
          "internalType": "contract ShareToken",
          "name": "",
          "type": "address"
        }
      ],
      "payable": false,
      "stateMutability": "view",
      "type": "function"
    },
    {
      "constant": true,
      "inputs": [
        {
          "internalType": "uint256",
          "name": "",
          "type": "uint256"
        }
      ],
      "name": "currentOwnerIndex",
      "outputs": [
        {
          "internalType": "uint256",
          "name": "",
          "type": "uint256"
        }
      ],
      "payable": false,
      "stateMutability": "view",
      "type": "function"
    },
    {
      "constant": true,
      "inputs": [],
      "name": "daiAvailableToDistribute",
      "outputs": [
        {
          "internalType": "uint256",
          "name": "",
          "type": "uint256"
        }
      ],
      "payable": false,
      "stateMutability": "view",
      "type": "function"
    },
    {
      "constant": true,
      "inputs": [
        {
          "internalType": "uint256",
          "name": "",
          "type": "uint256"
        },
        {
          "internalType": "address",
          "name": "",
          "type": "address"
        }
      ],
      "name": "deposits",
      "outputs": [
        {
          "internalType": "uint256",
          "name": "",
          "type": "uint256"
        }
      ],
      "payable": false,
      "stateMutability": "view",
      "type": "function"
    },
    {
      "constant": true,
      "inputs": [
        {
          "internalType": "uint256",
          "name": "",
          "type": "uint256"
        },
        {
          "internalType": "address",
          "name": "",
          "type": "address"
        }
      ],
      "name": "everOwned",
      "outputs": [
        {
          "internalType": "bool",
          "name": "",
          "type": "bool"
        }
      ],
      "payable": false,
      "stateMutability": "view",
      "type": "function"
    },
    {
      "constant": true,
      "inputs": [],
      "name": "loopsRequired",
      "outputs": [
        {
          "internalType": "uint256",
          "name": "",
          "type": "uint256"
        }
      ],
      "payable": false,
      "stateMutability": "view",
      "type": "function"
    },
    {
      "constant": true,
      "inputs": [
        {
          "internalType": "uint256",
          "name": "",
          "type": "uint256"
        }
      ],
      "name": "market",
      "outputs": [
        {
          "internalType": "contract IMarket",
          "name": "",
          "type": "address"
        }
      ],
      "payable": false,
      "stateMutability": "view",
      "type": "function"
    },
    {
      "constant": true,
      "inputs": [
        {
          "internalType": "uint256",
          "name": "",
          "type": "uint256"
        }
      ],
      "name": "marketAddresses",
      "outputs": [
        {
          "internalType": "address",
          "name": "",
          "type": "address"
        }
      ],
      "payable": false,
      "stateMutability": "view",
      "type": "function"
    },
    {
      "constant": true,
      "inputs": [],
      "name": "marketExpectedResolutionTime",
      "outputs": [
        {
          "internalType": "uint256",
          "name": "",
          "type": "uint256"
        }
      ],
      "payable": false,
      "stateMutability": "view",
      "type": "function"
    },
    {
      "constant": true,
      "inputs": [],
      "name": "marketsResolved",
      "outputs": [
        {
          "internalType": "bool",
          "name": "",
          "type": "bool"
        }
      ],
      "payable": false,
      "stateMutability": "view",
      "type": "function"
    },
    {
      "constant": true,
      "inputs": [],
      "name": "marketsResolvedWithoutErrors",
      "outputs": [
        {
          "internalType": "bool",
          "name": "",
          "type": "bool"
        }
      ],
      "payable": false,
      "stateMutability": "view",
      "type": "function"
    },
    {
      "constant": true,
      "inputs": [
        {
          "internalType": "uint256",
          "name": "",
          "type": "uint256"
        }
      ],
      "name": "numberOfOwners",
      "outputs": [
        {
          "internalType": "uint256",
          "name": "",
          "type": "uint256"
        }
      ],
      "payable": false,
      "stateMutability": "view",
      "type": "function"
    },
    {
      "constant": true,
      "inputs": [
        {
          "internalType": "uint256",
          "name": "",
          "type": "uint256"
        },
        {
          "internalType": "uint256",
          "name": "",
          "type": "uint256"
        }
      ],
      "name": "ownerTracker",
      "outputs": [
        {
          "internalType": "address",
          "name": "",
          "type": "address"
        }
      ],
      "payable": false,
      "stateMutability": "view",
      "type": "function"
    },
    {
      "constant": true,
      "inputs": [
        {
          "internalType": "uint256",
          "name": "",
          "type": "uint256"
        },
        {
          "internalType": "uint256",
          "name": "",
          "type": "uint256"
        }
      ],
      "name": "previousOwnerTracker",
      "outputs": [
        {
          "internalType": "address",
          "name": "owner",
          "type": "address"
        },
        {
          "internalType": "uint256",
          "name": "price",
          "type": "uint256"
        }
      ],
      "payable": false,
      "stateMutability": "view",
      "type": "function"
    },
    {
      "constant": true,
      "inputs": [
        {
          "internalType": "uint256",
          "name": "",
          "type": "uint256"
        }
      ],
      "name": "price",
      "outputs": [
        {
          "internalType": "uint256",
          "name": "",
          "type": "uint256"
        }
      ],
      "payable": false,
      "stateMutability": "view",
      "type": "function"
    },
    {
      "constant": true,
      "inputs": [],
      "name": "step2Complete",
      "outputs": [
        {
          "internalType": "bool",
          "name": "",
          "type": "bool"
        }
      ],
      "payable": false,
      "stateMutability": "view",
      "type": "function"
    },
    {
      "constant": true,
      "inputs": [],
      "name": "step3Complete",
      "outputs": [
        {
          "internalType": "bool",
          "name": "",
          "type": "bool"
        }
      ],
      "payable": false,
      "stateMutability": "view",
      "type": "function"
    },
    {
      "constant": true,
      "inputs": [],
      "name": "step3LoopsCompleted",
      "outputs": [
        {
          "internalType": "uint256",
          "name": "",
          "type": "uint256"
        }
      ],
      "payable": false,
      "stateMutability": "view",
      "type": "function"
    },
    {
      "constant": true,
      "inputs": [],
      "name": "step4Complete",
      "outputs": [
        {
          "internalType": "bool",
          "name": "",
          "type": "bool"
        }
      ],
      "payable": false,
      "stateMutability": "view",
      "type": "function"
    },
    {
      "constant": true,
      "inputs": [],
      "name": "step5Complete",
      "outputs": [
        {
          "internalType": "bool",
          "name": "",
          "type": "bool"
        }
      ],
      "payable": false,
      "stateMutability": "view",
      "type": "function"
    },
    {
      "constant": true,
      "inputs": [],
      "name": "step5LoopsCompleted",
      "outputs": [
        {
          "internalType": "uint256",
          "name": "",
          "type": "uint256"
        }
      ],
      "payable": false,
      "stateMutability": "view",
      "type": "function"
    },
    {
      "constant": true,
      "inputs": [],
      "name": "team",
      "outputs": [
        {
          "internalType": "contract IERC721Full",
          "name": "",
          "type": "address"
        }
      ],
      "payable": false,
      "stateMutability": "view",
      "type": "function"
    },
    {
      "constant": true,
      "inputs": [
        {
          "internalType": "uint256",
          "name": "",
          "type": "uint256"
        }
      ],
      "name": "timeAcquired",
      "outputs": [
        {
          "internalType": "uint256",
          "name": "",
          "type": "uint256"
        }
      ],
      "payable": false,
      "stateMutability": "view",
      "type": "function"
    },
    {
      "constant": true,
      "inputs": [
        {
          "internalType": "uint256",
          "name": "",
          "type": "uint256"
        },
        {
          "internalType": "address",
          "name": "",
          "type": "address"
        }
      ],
      "name": "timeHeld",
      "outputs": [
        {
          "internalType": "uint256",
          "name": "",
          "type": "uint256"
        }
      ],
      "payable": false,
      "stateMutability": "view",
      "type": "function"
    },
    {
      "constant": true,
      "inputs": [
        {
          "internalType": "uint256",
          "name": "",
          "type": "uint256"
        }
      ],
      "name": "timeLastCollected",
      "outputs": [
        {
          "internalType": "uint256",
          "name": "",
          "type": "uint256"
        }
      ],
      "payable": false,
      "stateMutability": "view",
      "type": "function"
    },
    {
      "constant": true,
      "inputs": [],
      "name": "totalCollected",
      "outputs": [
        {
          "internalType": "uint256",
          "name": "",
          "type": "uint256"
        }
      ],
      "payable": false,
      "stateMutability": "view",
      "type": "function"
    },
    {
      "constant": true,
      "inputs": [
        {
          "internalType": "uint256",
          "name": "",
          "type": "uint256"
        }
      ],
      "name": "totalTimeHeld",
      "outputs": [
        {
          "internalType": "uint256",
          "name": "",
          "type": "uint256"
        }
      ],
      "payable": false,
      "stateMutability": "view",
      "type": "function"
    },
    {
      "constant": true,
      "inputs": [],
      "name": "usingAugur",
      "outputs": [
        {
          "internalType": "bool",
          "name": "",
          "type": "bool"
        }
      ],
      "payable": false,
      "stateMutability": "view",
      "type": "function"
    },
    {
      "constant": true,
      "inputs": [],
      "name": "winningOutcome",
      "outputs": [
        {
          "internalType": "uint256",
          "name": "",
          "type": "uint256"
        }
      ],
      "payable": false,
      "stateMutability": "view",
      "type": "function"
    },
    {
      "constant": true,
      "inputs": [
        {
          "internalType": "uint256",
          "name": "_tokenId",
          "type": "uint256"
        },
        {
          "internalType": "uint256",
          "name": "_index",
          "type": "uint256"
        }
      ],
      "name": "getOwnerTrackerPrice",
      "outputs": [
        {
          "internalType": "uint256",
          "name": "",
          "type": "uint256"
        }
      ],
      "payable": false,
      "stateMutability": "view",
      "type": "function"
    },
    {
      "constant": true,
      "inputs": [
        {
          "internalType": "uint256",
          "name": "_tokenId",
          "type": "uint256"
        },
        {
          "internalType": "uint256",
          "name": "_index",
          "type": "uint256"
        }
      ],
      "name": "getOwnerTrackerAddress",
      "outputs": [
        {
          "internalType": "address",
          "name": "",
          "type": "address"
        }
      ],
      "payable": false,
      "stateMutability": "view",
      "type": "function"
    },
    {
      "constant": true,
      "inputs": [
        {
          "internalType": "uint256",
          "name": "_tokenId",
          "type": "uint256"
        }
      ],
      "name": "rentOwed",
      "outputs": [
        {
          "internalType": "uint256",
          "name": "augurFundsDue",
          "type": "uint256"
        }
      ],
      "payable": false,
      "stateMutability": "view",
      "type": "function"
    },
    {
      "constant": true,
      "inputs": [
        {
          "internalType": "uint256",
          "name": "_tokenId",
          "type": "uint256"
        }
      ],
      "name": "liveDepositAbleToWithdraw",
      "outputs": [
        {
          "internalType": "uint256",
          "name": "",
          "type": "uint256"
        }
      ],
      "payable": false,
      "stateMutability": "view",
      "type": "function"
    },
    {
      "constant": true,
      "inputs": [
        {
          "internalType": "uint256",
          "name": "_tokenId",
          "type": "uint256"
        }
      ],
      "name": "userDepositAbleToWithdraw",
      "outputs": [
        {
          "internalType": "uint256",
          "name": "",
          "type": "uint256"
        }
      ],
      "payable": false,
      "stateMutability": "view",
      "type": "function"
    },
    {
      "constant": true,
      "inputs": [
        {
          "internalType": "uint256",
          "name": "_tokenId",
          "type": "uint256"
        }
      ],
      "name": "rentalExpiryTime",
      "outputs": [
        {
          "internalType": "uint256",
          "name": "",
          "type": "uint256"
        }
      ],
      "payable": false,
      "stateMutability": "view",
      "type": "function"
    },
    {
      "constant": false,
      "inputs": [
        {
          "internalType": "uint256",
          "name": "_hardCodedWinner",
          "type": "uint256"
        },
        {
          "internalType": "bool",
          "name": "_hardCodedResolvedCorrectly",
          "type": "bool"
        }
      ],
      "name": "step1checkMarketsResolved",
      "outputs": [],
      "payable": false,
      "stateMutability": "nonpayable",
      "type": "function"
    },
    {
      "constant": false,
      "inputs": [],
      "name": "step1BemergencyExit",
      "outputs": [],
      "payable": false,
      "stateMutability": "nonpayable",
      "type": "function"
    },
    {
      "constant": false,
      "inputs": [],
      "name": "step1CcircuitBreaker",
      "outputs": [],
      "payable": false,
      "stateMutability": "nonpayable",
      "type": "function"
    },
    {
      "constant": false,
      "inputs": [],
      "name": "step2getLoopsRequired",
      "outputs": [],
      "payable": false,
      "stateMutability": "nonpayable",
      "type": "function"
    },
    {
      "constant": false,
      "inputs": [
        {
          "internalType": "uint256",
          "name": "_numberOfLoopsToDo",
          "type": "uint256"
        }
      ],
      "name": "step3returnDeposits",
      "outputs": [],
      "payable": false,
      "stateMutability": "nonpayable",
      "type": "function"
    },
    {
      "constant": false,
      "inputs": [],
      "name": "step4sellCompleteSetsAndPayAndrew",
      "outputs": [],
      "payable": false,
      "stateMutability": "nonpayable",
      "type": "function"
    },
    {
      "constant": false,
      "inputs": [
        {
          "internalType": "uint256",
          "name": "_numberOfLoopsToDo",
          "type": "uint256"
        }
      ],
      "name": "step5complete",
      "outputs": [],
      "payable": false,
      "stateMutability": "nonpayable",
      "type": "function"
    },
    {
      "constant": false,
      "inputs": [],
      "name": "collectRentAllTokens",
      "outputs": [],
      "payable": false,
      "stateMutability": "nonpayable",
      "type": "function"
    },
    {
      "constant": false,
      "inputs": [
        {
          "internalType": "uint256",
          "name": "_tokenId",
          "type": "uint256"
        }
      ],
      "name": "_collectRent",
      "outputs": [],
      "payable": false,
      "stateMutability": "nonpayable",
      "type": "function"
    },
    {
      "constant": false,
      "inputs": [
        {
          "internalType": "uint256",
          "name": "_newPrice",
          "type": "uint256"
        },
        {
          "internalType": "uint256",
          "name": "_tokenId",
          "type": "uint256"
        },
        {
          "internalType": "uint256",
          "name": "_deposit",
          "type": "uint256"
        }
      ],
      "name": "newRental",
      "outputs": [],
      "payable": false,
      "stateMutability": "nonpayable",
      "type": "function"
    },
    {
      "constant": false,
      "inputs": [
        {
          "internalType": "uint256",
          "name": "_dai",
          "type": "uint256"
        },
        {
          "internalType": "uint256",
          "name": "_tokenId",
          "type": "uint256"
        }
      ],
      "name": "depositDai",
      "outputs": [],
      "payable": false,
      "stateMutability": "nonpayable",
      "type": "function"
    },
    {
      "constant": false,
      "inputs": [
        {
          "internalType": "uint256",
          "name": "_newPrice",
          "type": "uint256"
        },
        {
          "internalType": "uint256",
          "name": "_tokenId",
          "type": "uint256"
        }
      ],
      "name": "changePrice",
      "outputs": [],
      "payable": false,
      "stateMutability": "nonpayable",
      "type": "function"
    },
    {
      "constant": false,
      "inputs": [
        {
          "internalType": "uint256",
          "name": "_dai",
          "type": "uint256"
        },
        {
          "internalType": "uint256",
          "name": "_tokenId",
          "type": "uint256"
        }
      ],
      "name": "withdrawDeposit",
      "outputs": [
        {
          "internalType": "uint256",
          "name": "",
          "type": "uint256"
        }
      ],
      "payable": false,
      "stateMutability": "nonpayable",
      "type": "function"
    },
    {
      "constant": false,
      "inputs": [
        {
          "internalType": "uint256",
          "name": "_tokenId",
          "type": "uint256"
        }
      ],
      "name": "exit",
      "outputs": [],
      "payable": false,
      "stateMutability": "nonpayable",
      "type": "function"
    }
  ],
  "bytecode": "0x608060405261a45560a555600060a760006101000a81548160ff021916908315150217905550600060a760016101000a81548160ff021916908315150217905550600060a960006101000a81548160ff021916908315150217905550600060ab60006101000a81548160ff021916908315150217905550600060ab60016101000a81548160ff021916908315150217905550600060ae60006101000a81548160ff021916908315150217905550348015620000b957600080fd5b506040516200510c3803806200510c8339818101604052610340811015620000e057600080fd5b81019080805190602001909291908051906020019092919080519060200190929190919082610280018051906020019092919080519060200190929190805190602001909291905050508060a68190555086601760006101000a81548173ffffffffffffffffffffffffffffffffffffffff021916908373ffffffffffffffffffffffffffffffffffffffff1602179055508360189060146200018592919062000405565b50856000806101000a81548173ffffffffffffffffffffffffffffffffffffffff021916908373ffffffffffffffffffffffffffffffffffffffff16021790555084601660006101000a81548173ffffffffffffffffffffffffffffffffffffffff021916908373ffffffffffffffffffffffffffffffffffffffff16021790555082601560006101000a81548173ffffffffffffffffffffffffffffffffffffffff021916908373ffffffffffffffffffffffffffffffffffffffff16021790555060008090505b6014811015620002ef576000607d82601481106200026857fe5b01819055506000609182601481106200027d57fe5b01819055508481601481106200028f57fe5b602002015160018260148110620002a257fe5b0160006101000a81548173ffffffffffffffffffffffffffffffffffffffff021916908373ffffffffffffffffffffffffffffffffffffffff16021790555080806001019150506200024e565b50601660009054906101000a900473ffffffffffffffffffffffffffffffffffffffff1673ffffffffffffffffffffffffffffffffffffffff1663095ea7b3837fffffffffffffffffffffffffffffffffffffffffffffffffffffffffffffffff6040518363ffffffff1660e01b8152600401808373ffffffffffffffffffffffffffffffffffffffff1673ffffffffffffffffffffffffffffffffffffffff16815260200182815260200192505050602060405180830381600087803b158015620003ba57600080fd5b505af1158015620003cf573d6000803e3d6000fd5b505050506040513d6020811015620003e657600080fd5b81019080805190602001909291905050505050505050505050620004cd565b826014810192821562000474579160200282015b82811115620004735782518260006101000a81548173ffffffffffffffffffffffffffffffffffffffff021916908373ffffffffffffffffffffffffffffffffffffffff1602179055509160200191906001019062000419565b5b50905062000483919062000487565b5090565b620004ca91905b80821115620004c657600081816101000a81549073ffffffffffffffffffffffffffffffffffffffff0219169055506001016200048e565b5090565b90565b614c2f80620004dd6000396000f3fe608060405234801561001057600080fd5b50600436106103275760003560e01c80638c5e4264116101b8578063adfbe13c11610104578063deb601d7116100a2578063f06197b71161007c578063f06197b714610dfd578063f88489c214610e49578063f896e47314610ec1578063fce0eb0214610ee357610327565b8063deb601d714610d5b578063e29eb83614610d9d578063f015e54e14610dbb57610327565b8063bae04c9a116100de578063bae04c9a14610c7d578063cbf3915614610cc9578063d5780ec414610cf7578063db1ba57914610d3957610327565b8063adfbe13c14610c31578063b3de019c14610c3b578063b7e3cd6314610c7357610327565b8063994ec705116101715780639e7318121161014b5780639e73181214610b30578063a36252bf14610baf578063a51c21d014610bf1578063a87ab98a14610c0f57610327565b8063994ec70514610abe5780639b32a2fe14610b085780639b34ae0314610b1257610327565b80638c5e4264146109485780638cb6889914610952578063961be39114610994578063977f1b28146109de57806397b4550a146109fc57806399436d6814610a7457610327565b80634d7515321161027757806364b511e1116102305780637c1bfa541161020a5780637c1bfa541461085a5780637f8661a1146108b257806385f2aef2146108e057806388be097b1461092a57610327565b806364b511e1146107b857806370a23f75146107d657806373a5226f1461081857610327565b80634d7515321461065257806353a58de11461068c5780635616fde9146106ee578063591f4dff146107105780635b2ace641461073e5780635dfd7e9b1461078057610327565b806328861d22116102e45780633dc1fa81116102be5780633dc1fa81146105ae5780633f17e86f146105cc57806343a7f4aa1461060e57806348bdf8fe1461063057610327565b806328861d221461049057806332f2b04d146104fe578063350293a11461054057610327565b8063020becd01461032c5780630ac39ebd1461034e578063171a240914610358578063237b5e4f146103be57806325947a521461042057806326a49e371461044e575b600080fd5b610334610f25565b604051808215151515815260200191505060405180910390f35b610356610f38565b005b6103a46004803603604081101561036e57600080fd5b8101908080359060200190929190803573ffffffffffffffffffffffffffffffffffffffff1690602001909291905050506110f5565b604051808215151515815260200191505060405180910390f35b61040a600480360360408110156103d457600080fd5b8101908080359060200190929190803573ffffffffffffffffffffffffffffffffffffffff169060200190929190505050611124565b6040518082815260200191505060405180910390f35b61044c6004803603602081101561043657600080fd5b8101908080359060200190929190505050611149565b005b61047a6004803603602081101561046457600080fd5b81019080803590602001909291905050506117f6565b6040518082815260200191505060405180910390f35b6104bc600480360360208110156104a657600080fd5b810190808035906020019092919050505061180e565b604051808273ffffffffffffffffffffffffffffffffffffffff1673ffffffffffffffffffffffffffffffffffffffff16815260200191505060405180910390f35b61052a6004803603602081101561051457600080fd5b8101908080359060200190929190505050611841565b6040518082815260200191505060405180910390f35b61056c6004803603602081101561055657600080fd5b81019080803590602001909291905050506119cf565b604051808273ffffffffffffffffffffffffffffffffffffffff1673ffffffffffffffffffffffffffffffffffffffff16815260200191505060405180910390f35b6105b6611a02565b6040518082815260200191505060405180910390f35b61060c600480360360608110156105e257600080fd5b81019080803590602001909291908035906020019092919080359060200190929190505050611a08565b005b610616611f89565b604051808215151515815260200191505060405180910390f35b610638611f9c565b604051808215151515815260200191505060405180910390f35b61068a6004803603604081101561066857600080fd5b8101908080359060200190929190803515159060200190929190505050611faf565b005b6106d8600480360360408110156106a257600080fd5b8101908080359060200190929190803573ffffffffffffffffffffffffffffffffffffffff169060200190929190505050612098565b6040518082815260200191505060405180910390f35b6106f66120bd565b604051808215151515815260200191505060405180910390f35b61073c6004803603602081101561072657600080fd5b81019080803590602001909291905050506120d0565b005b61076a6004803603602081101561075457600080fd5b8101908080359060200190929190505050612212565b6040518082815260200191505060405180910390f35b6107b66004803603604081101561079657600080fd5b81019080803590602001909291908035906020019092919050505061222a565b005b6107c061231a565b6040518082815260200191505060405180910390f35b610802600480360360208110156107ec57600080fd5b8101908080359060200190929190505050612320565b6040518082815260200191505060405180910390f35b6108446004803603602081101561082e57600080fd5b810190808035906020019092919050505061237f565b6040518082815260200191505060405180910390f35b61089c6004803603602081101561087057600080fd5b81019080803573ffffffffffffffffffffffffffffffffffffffff16906020019092919050505061259b565b6040518082815260200191505060405180910390f35b6108de600480360360208110156108c857600080fd5b81019080803590602001909291905050506125b3565b005b6108e861263b565b604051808273ffffffffffffffffffffffffffffffffffffffff1673ffffffffffffffffffffffffffffffffffffffff16815260200191505060405180910390f35b610932612660565b6040518082815260200191505060405180910390f35b610950612666565b005b61097e6004803603602081101561096857600080fd5b81019080803590602001909291905050506127ba565b6040518082815260200191505060405180910390f35b61099c6127d2565b604051808273ffffffffffffffffffffffffffffffffffffffff1673ffffffffffffffffffffffffffffffffffffffff16815260200191505060405180910390f35b6109e66127f8565b6040518082815260200191505060405180910390f35b610a3260048036036040811015610a1257600080fd5b8101908080359060200190929190803590602001909291905050506127fe565b604051808273ffffffffffffffffffffffffffffffffffffffff1673ffffffffffffffffffffffffffffffffffffffff16815260200191505060405180910390f35b610a7c612850565b604051808273ffffffffffffffffffffffffffffffffffffffff1673ffffffffffffffffffffffffffffffffffffffff16815260200191505060405180910390f35b610ac6612876565b604051808273ffffffffffffffffffffffffffffffffffffffff1673ffffffffffffffffffffffffffffffffffffffff16815260200191505060405180910390f35b610b1061289c565b005b610b1a612a35565b6040518082815260200191505060405180910390f35b610b6660048036036040811015610b4657600080fd5b810190808035906020019092919080359060200190929190505050612a3b565b604051808373ffffffffffffffffffffffffffffffffffffffff1673ffffffffffffffffffffffffffffffffffffffff1681526020018281526020019250505060405180910390f35b610bdb60048036036020811015610bc557600080fd5b8101908080359060200190929190505050612a8c565b6040518082815260200191505060405180910390f35b610bf9612aa4565b6040518082815260200191505060405180910390f35b610c17612aaa565b604051808215151515815260200191505060405180910390f35b610c39612abd565b005b610c7160048036036040811015610c5157600080fd5b810190808035906020019092919080359060200190929190505050612b05565b005b610c7b612d6f565b005b610cb360048036036040811015610c9357600080fd5b810190808035906020019092919080359060200190929190505050612e7c565b6040518082815260200191505060405180910390f35b610cf560048036036020811015610cdf57600080fd5b8101908080359060200190929190505050612eb9565b005b610d2360048036036020811015610d0d57600080fd5b81019080803590602001909291905050506131b3565b6040518082815260200191505060405180910390f35b610d416131cb565b604051808215151515815260200191505060405180910390f35b610d8760048036036020811015610d7157600080fd5b81019080803590602001909291905050506131de565b6040518082815260200191505060405180910390f35b610da56131f6565b6040518082815260200191505060405180910390f35b610de760048036036020811015610dd157600080fd5b81019080803590602001909291905050506131fc565b6040518082815260200191505060405180910390f35b610e3360048036036040811015610e1357600080fd5b810190808035906020019092919080359060200190929190505050613214565b6040518082815260200191505060405180910390f35b610e7f60048036036040811015610e5f57600080fd5b810190808035906020019092919080359060200190929190505050613246565b604051808273ffffffffffffffffffffffffffffffffffffffff1673ffffffffffffffffffffffffffffffffffffffff16815260200191505060405180910390f35b610ec9613288565b604051808215151515815260200191505060405180910390f35b610f0f60048036036020811015610ef957600080fd5b810190808035906020019092919050505061328d565b6040518082815260200191505060405180910390f35b60ab60009054906101000a900460ff1681565b6001151560ab60009054906101000a900460ff16151514610fc1576040517f08c379a000000000000000000000000000000000000000000000000000000000815260040180806020018281038252601d8152602001807f7374657033206d75737420626520636f6d706c6574656420666972737400000081525060200191505060405180910390fd5b6000151560ab60019054906101000a900460ff1615151461104a576040517f08c379a000000000000000000000000000000000000000000000000000000000815260040180806020018281038252601d8152602001807f73746570342073686f756c64206f6e6c792062652072756e206f6e636500000081525060200191505060405180910390fd5b6110526132ee565b61105a613460565b60ac8190555060a760019054906101000a900460ff16156110d857600061108d606460ac5461354190919063ffffffff16565b90506110bb601760009054906101000a900473ffffffffffffffffffffffffffffffffffffffff168261358b565b6110d08160ac5461367490919063ffffffff16565b60ac81905550505b600160ab60016101000a81548160ff021916908315150217905550565b60b46020528160005260406000206020528060005260406000206000915091509054906101000a900460ff1681565b60b1602052816000526040600020602052806000526040600020600091509150505481565b6000151560a760009054906101000a900460ff1615151461116957600080fd5b601481106111df576040517f08c379a00000000000000000000000000000000000000000000000000000000081526004018080602001828103825260188152602001807f54686973207465616d20646f6573206e6f74206578697374000000000000000081525060200191505060405180910390fd5b3073ffffffffffffffffffffffffffffffffffffffff166000809054906101000a900473ffffffffffffffffffffffffffffffffffffffff1673ffffffffffffffffffffffffffffffffffffffff16636352211e836040518263ffffffff1660e01b81526004018082815260200191505060206040518083038186803b15801561126857600080fd5b505afa15801561127c573d6000803e3d6000fd5b505050506040513d602081101561129257600080fd5b810190808051906020019092919050505073ffffffffffffffffffffffffffffffffffffffff16146117e05760006112c982612320565b905060008060009054906101000a900473ffffffffffffffffffffffffffffffffffffffff1673ffffffffffffffffffffffffffffffffffffffff16636352211e846040518263ffffffff1660e01b81526004018082815260200191505060206040518083038186803b15801561133f57600080fd5b505afa158015611353573d6000803e3d6000fd5b505050506040513d602081101561136957600080fd5b81019080805190602001909291905050509050600060b3600085815260200190815260200160002060008373ffffffffffffffffffffffffffffffffffffffff1673ffffffffffffffffffffffffffffffffffffffff1681526020019081526020016000205483106114ed5761148a61146d8461145f60b3600089815260200190815260200160002060008773ffffffffffffffffffffffffffffffffffffffff1673ffffffffffffffffffffffffffffffffffffffff1681526020019081526020016000205461145160558a6014811061144057fe5b01544261367490919063ffffffff16565b6136be90919063ffffffff16565b61354190919063ffffffff16565b6055866014811061147a57fe5b015461374490919063ffffffff16565b905060b3600085815260200190815260200160002060008373ffffffffffffffffffffffffffffffffffffffff1673ffffffffffffffffffffffffffffffffffffffff1681526020019081526020016000205492506114e8846137cc565b6114f1565b4290505b6115548360b3600087815260200190815260200160002060008573ffffffffffffffffffffffffffffffffffffffff1673ffffffffffffffffffffffffffffffffffffffff1681526020019081526020016000205461367490919063ffffffff16565b60b3600086815260200190815260200160002060008473ffffffffffffffffffffffffffffffffffffffff1673ffffffffffffffffffffffffffffffffffffffff168152602001908152602001600020819055506115b28484613a3f565b60006115d5605586601481106115c457fe5b01548361367490919063ffffffff16565b905061163a8160b1600088815260200190815260200160002060008673ffffffffffffffffffffffffffffffffffffffff1673ffffffffffffffffffffffffffffffffffffffff1681526020019081526020016000205461374490919063ffffffff16565b60b1600087815260200190815260200160002060008573ffffffffffffffffffffffffffffffffffffffff1673ffffffffffffffffffffffffffffffffffffffff168152602001908152602001600020819055506116b48160b260008881526020019081526020016000205461374490919063ffffffff16565b60b26000878152602001908152602001600020819055506116ec84604087601481106116dc57fe5b015461374490919063ffffffff16565b604086601481106116f957fe5b01819055506117508460b560008673ffffffffffffffffffffffffffffffffffffffff1673ffffffffffffffffffffffffffffffffffffffff1681526020019081526020016000205461374490919063ffffffff16565b60b560008573ffffffffffffffffffffffffffffffffffffffff1673ffffffffffffffffffffffffffffffffffffffff168152602001908152602001600020819055506117a88460545461374490919063ffffffff16565b605481905550837f6ab0172416aeaedce744fba85809be02ae7a61ff89203ff71a33291dc9f310f460405160405180910390a2505050505b42605582601481106117ee57fe5b018190555050565b602c816014811061180357fe5b016000915090505481565b6001816014811061181b57fe5b016000915054906101000a900473ffffffffffffffffffffffffffffffffffffffff1681565b60008061184d83612320565b905060008060009054906101000a900473ffffffffffffffffffffffffffffffffffffffff1673ffffffffffffffffffffffffffffffffffffffff16636352211e856040518263ffffffff1660e01b81526004018082815260200191505060206040518083038186803b1580156118c357600080fd5b505afa1580156118d7573d6000803e3d6000fd5b505050506040513d60208110156118ed57600080fd5b8101908080519060200190929190505050905060b3600085815260200190815260200160002060008273ffffffffffffffffffffffffffffffffffffffff1673ffffffffffffffffffffffffffffffffffffffff168152602001908152602001600020548210611962576000925050506119ca565b6119c58260b3600087815260200190815260200160002060008473ffffffffffffffffffffffffffffffffffffffff1673ffffffffffffffffffffffffffffffffffffffff1681526020019081526020016000205461367490919063ffffffff16565b925050505b919050565b601881601481106119dc57fe5b016000915054906101000a900473ffffffffffffffffffffffffffffffffffffffff1681565b60a85481565b81611a1281611149565b6000151560a760009054906101000a900460ff16151514611a3257600080fd5b602c8360148110611a3f57fe5b01548411611a98576040517f08c379a0000000000000000000000000000000000000000000000000000000008152600401808060200182810382526027815260200180614b706027913960400191505060405180910390fd5b60008211611b0e576040517f08c379a00000000000000000000000000000000000000000000000000000000081526004018080602001828103825260168152602001807f4d757374206465706f73697420736f6d657468696e670000000000000000000081525060200191505060405180910390fd5b611b183383613b7e565b611b7b8260b3600086815260200190815260200160002060003373ffffffffffffffffffffffffffffffffffffffff1673ffffffffffffffffffffffffffffffffffffffff1681526020019081526020016000205461374490919063ffffffff16565b60b3600085815260200190815260200160002060003373ffffffffffffffffffffffffffffffffffffffff1673ffffffffffffffffffffffffffffffffffffffff1681526020019081526020016000208190555060008060009054906101000a900473ffffffffffffffffffffffffffffffffffffffff1673ffffffffffffffffffffffffffffffffffffffff16636352211e856040518263ffffffff1660e01b81526004018082815260200191505060206040518083038186803b158015611c4357600080fd5b505afa158015611c57573d6000803e3d6000fd5b505050506040513d6020811015611c6d57600080fd5b810190808051906020019092919050505090503373ffffffffffffffffffffffffffffffffffffffff168173ffffffffffffffffffffffffffffffffffffffff161415611cc357611cbe8585612b05565b611f82565b611ce56001607d8660148110611cd557fe5b015461374490919063ffffffff16565b607d8560148110611cf257fe5b01819055508460af60008681526020019081526020016000206000607d8760148110611d1a57fe5b01548152602001908152602001600020600101819055503360af60008681526020019081526020016000206000607d8760148110611d5457fe5b0154815260200190815260200160002060000160006101000a81548173ffffffffffffffffffffffffffffffffffffffff021916908373ffffffffffffffffffffffffffffffffffffffff1602179055506000151560b4600086815260200190815260200160002060003373ffffffffffffffffffffffffffffffffffffffff1673ffffffffffffffffffffffffffffffffffffffff16815260200190815260200160002060009054906101000a900460ff1615151415611f1e57600160b4600086815260200190815260200160002060003373ffffffffffffffffffffffffffffffffffffffff1673ffffffffffffffffffffffffffffffffffffffff16815260200190815260200160002060006101000a81548160ff0219169083151502179055503360b06000868152602001908152602001600020600060918760148110611e9b57fe5b0154815260200190815260200160002060006101000a81548173ffffffffffffffffffffffffffffffffffffffff021916908373ffffffffffffffffffffffffffffffffffffffff160217905550611f0b600160918660148110611efb57fe5b015461374490919063ffffffff16565b60918560148110611f1857fe5b01819055505b4260698560148110611f2c57fe5b0181905550611f3d81338787613c9b565b843373ffffffffffffffffffffffffffffffffffffffff167f4f79409f494e81c38036d80aa8a6507c2cb08d90bfb2fead5519447646b3497e60405160405180910390a35b5050505050565b60a960009054906101000a900460ff1681565b60a760009054906101000a900460ff1681565b6000151560a760009054906101000a900460ff16151514612038576040517f08c379a00000000000000000000000000000000000000000000000000000000081526004018080602001828103825260208152602001807f73746570312063616e206f6e6c7920626520636f6d706c65746564206f6e636581525060200191505060405180910390fd5b612040613da8565b156120945761204d612abd565b600160a760006101000a81548160ff021916908315150217905550612072828261405c565b1561209357600160a760016101000a81548160ff0219169083151502179055505b5b5050565b60b3602052816000526040600020602052806000526040600020600091509150505481565b60a760019054906101000a900460ff1681565b6001151560ab60019054906101000a900460ff16151514612159576040517f08c379a000000000000000000000000000000000000000000000000000000000815260040180806020018281038252601d8152602001807f7374657034206d75737420626520636f6d706c6574656420666972737400000081525060200191505060405180910390fd5b6000151560ae60009054906101000a900460ff161515146121e2576040517f08c379a000000000000000000000000000000000000000000000000000000000815260040180806020018281038252601d8152602001807f73746570352073686f756c64206f6e6c792062652072756e206f6e636500000081525060200191505060405180910390fd5b60a760019054906101000a900460ff16156122055761220081614283565b61220f565b61220e81614485565b5b50565b6069816014811061221f57fe5b016000915090505481565b8061223481611149565b6000151560a760009054906101000a900460ff1615151461225457600080fd5b61225e3384613b7e565b6122c18360b3600085815260200190815260200160002060003373ffffffffffffffffffffffffffffffffffffffff1673ffffffffffffffffffffffffffffffffffffffff1681526020019081526020016000205461374490919063ffffffff16565b60b3600084815260200190815260200160002060003373ffffffffffffffffffffffffffffffffffffffff1673ffffffffffffffffffffffffffffffffffffffff16815260200190815260200160002081905550505050565b60aa5481565b60006123786201518061236a61234d6055866014811061233c57fe5b01544261367490919063ffffffff16565b602c866014811061235a57fe5b01546136be90919063ffffffff16565b61354190919063ffffffff16565b9050919050565b60008061238b83612320565b905060008060009054906101000a900473ffffffffffffffffffffffffffffffffffffffff1673ffffffffffffffffffffffffffffffffffffffff16636352211e856040518263ffffffff1660e01b81526004018082815260200191505060206040518083038186803b15801561240157600080fd5b505afa158015612415573d6000803e3d6000fd5b505050506040513d602081101561242b57600080fd5b810190808051906020019092919050505090503373ffffffffffffffffffffffffffffffffffffffff168173ffffffffffffffffffffffffffffffffffffffff1614156125405760b3600085815260200190815260200160002060003373ffffffffffffffffffffffffffffffffffffffff1673ffffffffffffffffffffffffffffffffffffffff1681526020019081526020016000205482106124d457600092505050612596565b6125378260b3600087815260200190815260200160002060003373ffffffffffffffffffffffffffffffffffffffff1673ffffffffffffffffffffffffffffffffffffffff1681526020019081526020016000205461367490919063ffffffff16565b92505050612596565b60b3600085815260200190815260200160002060003373ffffffffffffffffffffffffffffffffffffffff1673ffffffffffffffffffffffffffffffffffffffff16815260200190815260200160002054925050505b919050565b60b56020528060005260406000206000915090505481565b806125bd81611149565b6000151560a760009054906101000a900460ff161515146125dd57600080fd5b61263760b3600084815260200190815260200160002060003373ffffffffffffffffffffffffffffffffffffffff1673ffffffffffffffffffffffffffffffffffffffff16815260200190815260200160002054836146a8565b5050565b6000809054906101000a900473ffffffffffffffffffffffffffffffffffffffff1681565b60ac5481565b6000151560a760009054906101000a900460ff161515146126ef576040517f08c379a00000000000000000000000000000000000000000000000000000000081526004018080602001828103825260208152602001807f73746570312063616e206f6e6c7920626520636f6d706c65746564206f6e636581525060200191505060405180910390fd5b601760009054906101000a900473ffffffffffffffffffffffffffffffffffffffff1673ffffffffffffffffffffffffffffffffffffffff163373ffffffffffffffffffffffffffffffffffffffff1614612795576040517f08c379a0000000000000000000000000000000000000000000000000000000008152600401808060200182810382526043815260200180614bb86043913960600191505060405180910390fd5b61279d612abd565b600160a760006101000a81548160ff021916908315150217905550565b605581601481106127c757fe5b016000915090505481565b601660009054906101000a900473ffffffffffffffffffffffffffffffffffffffff1681565b60a65481565b600060af6000848152602001908152602001600020600083815260200190815260200160002060000160009054906101000a900473ffffffffffffffffffffffffffffffffffffffff16905092915050565b601560009054906101000a900473ffffffffffffffffffffffffffffffffffffffff1681565b601760009054906101000a900473ffffffffffffffffffffffffffffffffffffffff1681565b6001151560a760009054906101000a900460ff16151514612925576040517f08c379a000000000000000000000000000000000000000000000000000000000815260040180806020018281038252601d8152602001807f7374657031206d75737420626520636f6d706c6574656420666972737400000081525060200191505060405180910390fd5b6000151560a960009054906101000a900460ff161515146129ae576040517f08c379a000000000000000000000000000000000000000000000000000000000815260040180806020018281038252601d8152602001807f73746570322073686f756c64206f6e6c792062652072756e206f6e636500000081525060200191505060405180910390fd5b600080905060008090505b6014811015612a0f5760008090505b609182601481106129d557fe5b0154811015612a01576129f260018461374490919063ffffffff16565b925080806001019150506129c8565b5080806001019150506129b9565b508060a881905550600160a960006101000a81548160ff02191690831515021790555050565b60a55481565b60af602052816000526040600020602052806000526040600020600091509150508060000160009054906101000a900473ffffffffffffffffffffffffffffffffffffffff16908060010154905082565b60b26020528060005260406000206000915090505481565b60ad5481565b60ae60009054906101000a900460ff1681565b6000151560a760009054906101000a900460ff16151514612add57600080fd5b60008090505b6014811015612b0257612af581611149565b8080600101915050612ae3565b50565b80612b0f81611149565b6000151560a760009054906101000a900460ff16151514612b2f57600080fd5b602c8260148110612b3c57fe5b01548311612b95576040517f08c379a000000000000000000000000000000000000000000000000000000000815260040180806020018281038252602b815260200180614b22602b913960400191505060405180910390fd5b6000809054906101000a900473ffffffffffffffffffffffffffffffffffffffff1673ffffffffffffffffffffffffffffffffffffffff16636352211e836040518263ffffffff1660e01b81526004018082815260200191505060206040518083038186803b158015612c0757600080fd5b505afa158015612c1b573d6000803e3d6000fd5b505050506040513d6020811015612c3157600080fd5b810190808051906020019092919050505073ffffffffffffffffffffffffffffffffffffffff163373ffffffffffffffffffffffffffffffffffffffff1614612ce2576040517f08c379a00000000000000000000000000000000000000000000000000000000081526004018080602001828103825260098152602001807f4e6f74206f776e6572000000000000000000000000000000000000000000000081525060200191505060405180910390fd5b82602c8360148110612cf057fe5b01819055508260af60008481526020019081526020016000206000607d8560148110612d1857fe5b0154815260200190815260200160002060010181905550602c8260148110612d3c57fe5b01547f854d6511a28585103049c7770618450f7c9aeb580c69db2913d63869663f475160405160405180910390a2505050565b6000151560a760009054906101000a900460ff16151514612df8576040517f08c379a00000000000000000000000000000000000000000000000000000000081526004018080602001828103825260208152602001807f73746570312063616e206f6e6c7920626520636f6d706c65746564206f6e636581525060200191505060405180910390fd5b62f0c3f060a654014211612e57576040517f08c379a0000000000000000000000000000000000000000000000000000000008152600401808060200182810382526023815260200180614b4d6023913960400191505060405180910390fd5b612e5f612abd565b600160a760006101000a81548160ff021916908315150217905550565b600081612e8881611149565b6000151560a760009054906101000a900460ff16151514612ea857600080fd5b612eb284846146a8565b5092915050565b6001151560a960009054906101000a900460ff16151514612f42576040517f08c379a000000000000000000000000000000000000000000000000000000000815260040180806020018281038252601d8152602001807f7374657032206d75737420626520636f6d706c6574656420666972737400000081525060200191505060405180910390fd5b6000151560ab60009054906101000a900460ff16151514612fcb576040517f08c379a000000000000000000000000000000000000000000000000000000000815260040180806020018281038252601d8152602001807f73746570332073686f756c64206f6e6c792062652072756e206f6e636500000081525060200191505060405180910390fd5b6000809050600060aa5490506000612fee8460aa5461374490919063ffffffff16565b905060008090505b60148110156131875760008090505b6091826014811061301257fe5b01548110156131795783851015801561302a57508285105b1561315657600060b06000848152602001908152602001600020600083815260200190815260200160002060009054906101000a900473ffffffffffffffffffffffffffffffffffffffff169050600060b3600085815260200190815260200160002060008373ffffffffffffffffffffffffffffffffffffffff1673ffffffffffffffffffffffffffffffffffffffff168152602001908152602001600020549050600060b3600086815260200190815260200160002060008473ffffffffffffffffffffffffffffffffffffffff1673ffffffffffffffffffffffffffffffffffffffff16815260200190815260200160002081905550600081111561313757613136828261358b565b5b61314d600160aa5461374490919063ffffffff16565b60aa8190555050505b61316a60018661374490919063ffffffff16565b94508080600101915050613005565b508080600101915050612ff6565b5060a85481106131ad57600160ab60006101000a81548160ff0219169083151502179055505b50505050565b609181601481106131c057fe5b016000915090505481565b60ab60019054906101000a900460ff1681565b604081601481106131eb57fe5b016000915090505481565b60545481565b607d816014811061320957fe5b016000915090505481565b600060af6000848152602001908152602001600020600083815260200190815260200160002060010154905092915050565b60b06020528160005260406000206020528060005260406000206000915091509054906101000a900473ffffffffffffffffffffffffffffffffffffffff1681565b600181565b6000806132b462015180602c85601481106132a457fe5b015461354190919063ffffffff16565b905060008114156132c857429150506132e9565b6132e3816132d585611841565b61354190919063ffffffff16565b42019150505b919050565b6001151560011515141561345e5760008090505b601481101561345c57600061332f60646040846014811061331f57fe5b015461354190919063ffffffff16565b9050601560009054906101000a900473ffffffffffffffffffffffffffffffffffffffff1673ffffffffffffffffffffffffffffffffffffffff1663ad16158e6001846014811061337c57fe5b0160009054906101000a900473ffffffffffffffffffffffffffffffffffffffff16836040518363ffffffff1660e01b8152600401808373ffffffffffffffffffffffffffffffffffffffff1673ffffffffffffffffffffffffffffffffffffffff168152602001828152602001925050506040805180830381600087803b15801561340757600080fd5b505af115801561341b573d6000803e3d6000fd5b505050506040513d604081101561343157600080fd5b8101908080519060200190929190805190602001909291905050505050508080600101915050613302565b505b565b6000601660009054906101000a900473ffffffffffffffffffffffffffffffffffffffff1673ffffffffffffffffffffffffffffffffffffffff166370a08231306040518263ffffffff1660e01b8152600401808273ffffffffffffffffffffffffffffffffffffffff1673ffffffffffffffffffffffffffffffffffffffff16815260200191505060206040518083038186803b15801561350157600080fd5b505afa158015613515573d6000803e3d6000fd5b505050506040513d602081101561352b57600080fd5b8101908080519060200190929190505050905090565b600061358383836040518060400160405280601a81526020017f536166654d6174683a206469766973696f6e206279207a65726f000000000000815250614896565b905092915050565b601660009054906101000a900473ffffffffffffffffffffffffffffffffffffffff1673ffffffffffffffffffffffffffffffffffffffff1663a9059cbb83836040518363ffffffff1660e01b8152600401808373ffffffffffffffffffffffffffffffffffffffff1673ffffffffffffffffffffffffffffffffffffffff16815260200182815260200192505050602060405180830381600087803b15801561363457600080fd5b505af1158015613648573d6000803e3d6000fd5b505050506040513d602081101561365e57600080fd5b8101908080519060200190929190505050505050565b60006136b683836040518060400160405280601e81526020017f536166654d6174683a207375627472616374696f6e206f766572666c6f77000081525061495c565b905092915050565b6000808314156136d1576000905061373e565b60008284029050828482816136e257fe5b0414613739576040517f08c379a0000000000000000000000000000000000000000000000000000000008152600401808060200182810382526021815260200180614b976021913960400191505060405180910390fd5b809150505b92915050565b6000808284019050838110156137c2576040517f08c379a000000000000000000000000000000000000000000000000000000000815260040180806020018281038252601b8152602001807f536166654d6174683a206164646974696f6e206f766572666c6f77000000000081525060200191505060405180910390fd5b8091505092915050565b60008090505b600015158115151415613a3b576000607d83601481106137ee57fe5b015410156137f857fe5b61381a6001607d846014811061380a57fe5b015461367490919063ffffffff16565b607d836014811061382757fe5b01819055506000607d836014811061383b57fe5b01549050600060af6000858152602001908152602001600020600083815260200190815260200160002060000160009054906101000a900473ffffffffffffffffffffffffffffffffffffffff16905060008214156138a65761389d84614a1c565b60019250613a34565b600060b3600086815260200190815260200160002060008373ffffffffffffffffffffffffffffffffffffffff1673ffffffffffffffffffffffffffffffffffffffff168152602001908152602001600020541115613a335760008060009054906101000a900473ffffffffffffffffffffffffffffffffffffffff1673ffffffffffffffffffffffffffffffffffffffff16636352211e866040518263ffffffff1660e01b81526004018082815260200191505060206040518083038186803b15801561397357600080fd5b505afa158015613987573d6000803e3d6000fd5b505050506040513d602081101561399d57600080fd5b81019080805190602001909291905050509050600060af600087815260200190815260200160002060008581526020019081526020016000206001015490506139e882848389613c9b565b600194508273ffffffffffffffffffffffffffffffffffffffff16867fdcd7d049706cf89eb40b5726d483d3aa2001e43b729f0f411cdda43c2fe59f5260405160405180910390a350505b5b50506137d2565b5050565b60011515600115151415613b7a576000613a6360648361354190919063ffffffff16565b9050601560009054906101000a900473ffffffffffffffffffffffffffffffffffffffff1673ffffffffffffffffffffffffffffffffffffffff1663abb60c8060018560148110613ab057fe5b0160009054906101000a900473ffffffffffffffffffffffffffffffffffffffff16836040518363ffffffff1660e01b8152600401808373ffffffffffffffffffffffffffffffffffffffff1673ffffffffffffffffffffffffffffffffffffffff16815260200182815260200192505050602060405180830381600087803b158015613b3c57600080fd5b505af1158015613b50573d6000803e3d6000fd5b505050506040513d6020811015613b6657600080fd5b810190808051906020019092919050505050505b5050565b601660009054906101000a900473ffffffffffffffffffffffffffffffffffffffff1673ffffffffffffffffffffffffffffffffffffffff166323b872dd8330846040518463ffffffff1660e01b8152600401808473ffffffffffffffffffffffffffffffffffffffff1673ffffffffffffffffffffffffffffffffffffffff1681526020018373ffffffffffffffffffffffffffffffffffffffff1673ffffffffffffffffffffffffffffffffffffffff1681526020018281526020019350505050602060405180830381600087803b158015613c5b57600080fd5b505af1158015613c6f573d6000803e3d6000fd5b505050506040513d6020811015613c8557600080fd5b8101908080519060200190929190505050505050565b6000809054906101000a900473ffffffffffffffffffffffffffffffffffffffff1673ffffffffffffffffffffffffffffffffffffffff166323b872dd8585846040518463ffffffff1660e01b8152600401808473ffffffffffffffffffffffffffffffffffffffff1673ffffffffffffffffffffffffffffffffffffffff1681526020018373ffffffffffffffffffffffffffffffffffffffff1673ffffffffffffffffffffffffffffffffffffffff1681526020018281526020019350505050600060405180830381600087803b158015613d7757600080fd5b505af1158015613d8b573d6000803e3d6000fd5b5050505081602c8260148110613d9d57fe5b018190555050505050565b600060011561405457600080905060008090505b601481101561403657600060018260148110613dd457fe5b0160009054906101000a900473ffffffffffffffffffffffffffffffffffffffff1673ffffffffffffffffffffffffffffffffffffffff16633c26482060006040518263ffffffff1660e01b81526004018082815260200191505060206040518083038186803b158015613e4757600080fd5b505afa158015613e5b573d6000803e3d6000fd5b505050506040513d6020811015613e7157600080fd5b81019080805190602001909291905050501180613f485750600060018260148110613e9857fe5b0160009054906101000a900473ffffffffffffffffffffffffffffffffffffffff1673ffffffffffffffffffffffffffffffffffffffff16633c26482060016040518263ffffffff1660e01b81526004018082815260200191505060206040518083038186803b158015613f0b57600080fd5b505afa158015613f1f573d6000803e3d6000fd5b505050506040513d6020811015613f3557600080fd5b8101908080519060200190929190505050115b8061400d5750600060018260148110613f5d57fe5b0160009054906101000a900473ffffffffffffffffffffffffffffffffffffffff1673ffffffffffffffffffffffffffffffffffffffff16633c26482060026040518263ffffffff1660e01b81526004018082815260200191505060206040518083038186803b158015613fd057600080fd5b505afa158015613fe4573d6000803e3d6000fd5b505050506040513d6020811015613ffa57600080fd5b8101908080519060200190929190505050115b156140295761402660018361374490919063ffffffff16565b91505b8080600101915050613dbc565b50601481141561404a576001915050614059565b6000915050614059565b600190505b90565b6000600115614272576000809050600080905060008090505b60148110156142465760006001826014811061408d57fe5b0160009054906101000a900473ffffffffffffffffffffffffffffffffffffffff1673ffffffffffffffffffffffffffffffffffffffff16633c26482060006040518263ffffffff1660e01b81526004018082815260200191505060206040518083038186803b15801561410057600080fd5b505afa158015614114573d6000803e3d6000fd5b505050506040513d602081101561412a57600080fd5b810190808051906020019092919050505011156141585761415560018361374490919063ffffffff16565b91505b60006001826014811061416757fe5b0160009054906101000a900473ffffffffffffffffffffffffffffffffffffffff1673ffffffffffffffffffffffffffffffffffffffff16633c26482060016040518263ffffffff1660e01b81526004018082815260200191505060206040518083038186803b1580156141da57600080fd5b505afa1580156141ee573d6000803e3d6000fd5b505050506040513d602081101561420457600080fd5b81019080805190602001909291905050501115614239578060a58190555061423660018461374490919063ffffffff16565b92505b8080600101915050614075565b506001821480156142575750600081145b156142675760019250505061427d565b60009250505061427d565b8260a5819055508190505b92915050565b6000809050600060ad54905060006142a68460ad5461374490919063ffffffff16565b905060008090505b609160a554601481106142bd57fe5b0154811015614419578284101580156142d557508184105b156143f657600060b0600060a5548152602001908152602001600020600083815260200190815260200160002060009054906101000a900473ffffffffffffffffffffffffffffffffffffffff169050600060b1600060a554815260200190815260200160002060008373ffffffffffffffffffffffffffffffffffffffff1673ffffffffffffffffffffffffffffffffffffffff16815260200190815260200160002054905060006143938260ac546136be90919063ffffffff16565b905060006143bf60b2600060a5548152602001908152602001600020548361354190919063ffffffff16565b905060008111156143d5576143d4848261358b565b5b6143eb600160ad5461374490919063ffffffff16565b60ad81905550505050505b61440a60018561374490919063ffffffff16565b935080806001019150506142ae565b50609160a5546014811061442957fe5b0154811061444d57600160ae60006101000a81548160ff0219169083151502179055505b60ac5460a5547faec4660fb36dce4768bdbe4e8e3291cf849dc4af665b9e32e041c2b2c2a457ae60405160405180910390a350505050565b6000809050600060ad54905060006144a88460ad5461374490919063ffffffff16565b905060008090505b601481101561464d5760008090505b609182601481106144cc57fe5b015481101561463f578385101580156144e457508285105b1561461c57600060b06000848152602001908152602001600020600083815260200190815260200160002060009054906101000a900473ffffffffffffffffffffffffffffffffffffffff169050600061458860b560008473ffffffffffffffffffffffffffffffffffffffff1673ffffffffffffffffffffffffffffffffffffffff1681526020019081526020016000205460ac546136be90919063ffffffff16565b905060006145a16054548361354190919063ffffffff16565b9050600060b560008573ffffffffffffffffffffffffffffffffffffffff1673ffffffffffffffffffffffffffffffffffffffff1681526020019081526020016000208190555060008111156145fc576145fb838261358b565b5b614612600160ad5461374490919063ffffffff16565b60ad819055505050505b61463060018661374490919063ffffffff16565b945080806001019150506144bf565b5080806001019150506144b0565b5060a854811061467357600160ae60006101000a81548160ff0219169083151502179055505b60ac547f27c045f6b0fb193165b1e937514e394a92ea7d7d64be1f7f98ee0a199cc2978660405160405180910390a250505050565b8160b3600083815260200190815260200160002060003373ffffffffffffffffffffffffffffffffffffffff1673ffffffffffffffffffffffffffffffffffffffff16815260200190815260200160002054101561476e576040517f08c379a00000000000000000000000000000000000000000000000000000000081526004018080602001828103825260148152602001807f5769746864726177696e6720746f6f206d75636800000000000000000000000081525060200191505060405180910390fd5b6147d18260b3600084815260200190815260200160002060003373ffffffffffffffffffffffffffffffffffffffff1673ffffffffffffffffffffffffffffffffffffffff1681526020019081526020016000205461367490919063ffffffff16565b60b3600083815260200190815260200160002060003373ffffffffffffffffffffffffffffffffffffffff1673ffffffffffffffffffffffffffffffffffffffff1681526020019081526020016000208190555061482f338361358b565b600060b3600083815260200190815260200160002060003373ffffffffffffffffffffffffffffffffffffffff1673ffffffffffffffffffffffffffffffffffffffff16815260200190815260200160002054141561489257614891816137cc565b5b5050565b60008083118290614942576040517f08c379a00000000000000000000000000000000000000000000000000000000081526004018080602001828103825283818151815260200191508051906020019080838360005b838110156149075780820151818401526020810190506148ec565b50505050905090810190601f1680156149345780820380516001836020036101000a031916815260200191505b509250505060405180910390fd5b50600083858161494e57fe5b049050809150509392505050565b6000838311158290614a09576040517f08c379a00000000000000000000000000000000000000000000000000000000081526004018080602001828103825283818151815260200191508051906020019080838360005b838110156149ce5780820151818401526020810190506149b3565b50505050905090810190601f1680156149fb5780820380516001836020036101000a031916815260200191505b509250505060405180910390fd5b5060008385039050809150509392505050565b60008060009054906101000a900473ffffffffffffffffffffffffffffffffffffffff1673ffffffffffffffffffffffffffffffffffffffff16636352211e836040518263ffffffff1660e01b81526004018082815260200191505060206040518083038186803b158015614a9057600080fd5b505afa158015614aa4573d6000803e3d6000fd5b505050506040513d6020811015614aba57600080fd5b81019080805190602001909291905050509050614ada8130600085613c9b565b8073ffffffffffffffffffffffffffffffffffffffff167f6d6bbefef62d4cb6d0e3a4dd306a71d3632319b1e03659513df86b247dd657fe60405160405180910390a2505056fe4e6577207072696365206d75737420626520686967686572207468616e2063757272656e742070726963654d75737420776169742036206d6f6e74687320666f72204175677572204f7261636c655072696365206d75737420626520686967686572207468616e2063757272656e74207072696365536166654d6174683a206d756c7469706c69636174696f6e206f766572666c6f774f6e6c7920416e647265772c204669727374206f6620486973204e616d6520616e6420427265616b6572206f6620436861696e732c2063616e2063616c6c2074686973a265627a7a72315820d70aee5d3c562cce1c92832b415c86a267ac4ab26dcd94a04639ce731d54896d64736f6c634300050d0032",
  "source": "pragma solidity 0.5.13;\nimport \"./interfaces/IERC721Full.sol\";\nimport \"./utils/SafeMath.sol\";\n\n/// @title Augur Markets interface\n/// @notice Gets the winner of each market from Augur\ninterface IMarket \n{\n    function getWinningPayoutNumerator(uint256 _outcome) external view returns (uint256);\n}\n\n/// @title Augur ShareToken interface\n/// @notice used for buying and selling complete sets\ninterface ShareToken \n{\n    function publicBuyCompleteSets(IMarket _market, uint256 _amount) external returns (bool)  ;\n    function publicSellCompleteSets(IMarket _market, uint256 _amount) external returns (uint256 _creatorFee, uint256 _reportingFee) ;\n}\n\n/// @title Dai contract interface\n/// @notice Various cash functions\ninterface Cash \n{\n    function approve(address _spender, uint256 _amount) external returns (bool);\n    function balanceOf(address _ownesr) external view returns (uint256);\n    function faucet(uint256 _amount) external;\n    function transfer(address _to, uint256 _amount) external returns (bool);\n    function transferFrom(address _from, address _to, uint256 _amount) external returns (bool);\n}\n\n//TODO: replace completesets with OICash\n//TODO: change front end to only approve the same amount that is being sent\n// ^ will also need to figure out how to pass this number in the correct format because decimal\n// ^ does not seem to work for more than 100 dai, it needs big number\n\n/// @title Harber\n/// @author Andrew Stanger\n/// @dev ensure usingAugur is set to false upon local testing and true on kovan or mainnet\ncontract Harber {\n\n    using SafeMath for uint256;\n\n    /// NUMBER OF TOKENS\n    /// @dev also equals number of markets on augur\n    uint256 constant numberOfTokens = 20;\n\n    /// TESTING VARIABLES\n    /// @dev if usingAugur false, none of the augur contracts are interacted with. Required false for ganache testing. \n    bool constant public usingAugur = true; //MUST BE TRUE IN PROUDCTION\n    \n    /// CONTRACT VARIABLES\n    /// ERC721:\n    IERC721Full public team;\n    /// Augur contracts:\n    IMarket[numberOfTokens] public market;\n    ShareToken public completeSets;\n    Cash public cash; \n\n    /// UINTS, ADDRESSES, BOOLS\n    /// @dev my whiskey fund, for my 1% cut\n    address public andrewsAddress; \n    /// @dev the addresses of the various Augur binary markets. One market for each token. Initiated in the constructor and does not change.\n    address[numberOfTokens] public marketAddresses; \n    /// @dev in attodai (so $100 = 100000000000000000000)\n    uint256[numberOfTokens] public price; \n    /// @dev amount collected for each token, ie the sum of all owners' rent per token. Used to know how many complete\n    /// @dev ...sets to sell for each market (since there is one market per token)\n    uint256[numberOfTokens] public collectedPerMarket; \n    /// @dev an easy way to track the above across all tokens. It should always increment at the same time as the above increments. \n    uint256 public totalCollected; \n    /// @dev used to determine the rent due. Rent is due for the period (now - timeLastCollected), at which point timeLastCollected is set to now.\n    uint256[numberOfTokens] public timeLastCollected; \n    /// @dev when a token was bought. used only for front end 'owned since' section. Rent collection only needs timeLastCollected.\n    uint256[numberOfTokens] public timeAcquired; \n    /// @dev tracks the position of the current owner in the previousOwnerTracker mapping\n    uint256[numberOfTokens] public currentOwnerIndex; \n    /// @dev used to cycle through ownerTracker during finalse & payout. Since you can't find the size of a mapping. \n    /// @dev if the value is 5, it means there are 5 owners. Ie it is not doing programming counting. \n    uint256[numberOfTokens] public numberOfOwners; \n  \n    /// WINNING OUTCOME VARIABLES\n    /// @dev start with invalid winning outcome\n    uint256 public winningOutcome = 42069; \n    //// @dev so the function to manually set the winner can only be called long after \n    /// @dev ...it should have resolved via Augur. Must be public so others can verify it is accurate. \n    uint256 public marketExpectedResolutionTime; \n\n    /// MARKET RESOLUTION VARIABLES\n    /// @dev step1:\n    bool public marketsResolved = false; // must be false for step1, true for step2\n    bool public marketsResolvedWithoutErrors = false; // set in step 1. If true, normal payout. If false, return all funds\n    /// @dev step 2:\n    uint256 public loopsRequired; // for returnDeposits and returnAllFunds functions\n    bool public step2Complete = false; // must be false for step2, true for step3\n    /// @dev step 3:\n    uint256 public step3LoopsCompleted;\n    bool public step3Complete = false; // must be false for step3, true for step4\n    /// @dev step 4:\n    bool public step4Complete = false; // must be false for step4, true for step5\n    /// @dev step 5:\n    uint256 public daiAvailableToDistribute;\n    uint256 public step5LoopsCompleted;\n    bool public step5Complete = false; // must be false for step5\n    \n    ///  STRUCTS\n    struct purchase {\n        address owner;\n        uint256 price;\n    }\n    \n    /// MAPPINGS\n    /// @dev keeps track of all previous owners of a token, including the price, so that if the current owner's deposit runs out,\n    /// @dev ...ownership can be reverted to a previous owner with the previous price. Index 0 is NOT used, this tells the contract to foreclose.\n    /// @dev this does NOT keep a reliable list of all owners, if it reverts to a previous owner then the next owner will overwrite the owner that was in that slot.\n    /// @dev the variable currentOwnerIndex is used to track the location of the current owner. \n    mapping (uint256 => mapping (uint256 => purchase) ) public previousOwnerTracker;  \n    /// @dev used to keep hold of all the owners, for payout, similar to previousOwnerTracker except that the pointer to the current position never decrements\n    mapping (uint256 => mapping (uint256 => address) ) public ownerTracker; \n    /// @dev this is the key variable that tracks the total amount of time each user has held it for. It is key because this is used to determine the proportion of the pot to be sent to each winning address    \n    mapping (uint256 => mapping (address => uint256) ) public timeHeld;\n    /// @dev sums all the timeHelds for each token. Not required, but saves on gas when paying out. Should always increment at the same time as timeHeld\n    mapping (uint256 => uint256) public totalTimeHeld; \n    /// @dev keeps track of all the deposits for each token, for each owner. Unused deposits are not returned automatically when there is a new buyer. \n    /// @dev they can be withdrawn manually however. Unused deposits are returned automatically upon resolution of the market\n    mapping (uint256 => mapping (address => uint256) ) public deposits; \n    /// @dev this is required to prevent the ownerTracker variable being incremented unless a completely new user buys the token. \n    mapping (uint256 => mapping (address => bool)) public everOwned; \n    /// @dev keeps track of all the rent paid by each user. So that it can be returned in case of an invalid market outcome. Only required in this instance. \n    mapping (address => uint256) public collectedPerUser;\n\n    ////////////// CONSTRUCTOR //////////////\n    constructor(address _andrewsAddress, address _addressOfToken, address _addressOfCashContract, address[numberOfTokens] memory _addressesOfMarkets, address _addressOfCompleteSetsContract, address _addressOfMainAugurContract, uint _marketExpectedResolutionTime) public \n    {\n        marketExpectedResolutionTime = _marketExpectedResolutionTime;\n        andrewsAddress = _andrewsAddress;\n        marketAddresses = _addressesOfMarkets; //this is to make the market addresses public so users can check the actual augur markets for themselves\n        \n        // external contract variables:\n        team = IERC721Full(_addressOfToken);\n        cash = Cash(_addressOfCashContract);\n        completeSets = ShareToken(_addressOfCompleteSetsContract);\n\n        // initialise arrays\n        for (uint i=0; i<numberOfTokens; i++)\n        {\n            currentOwnerIndex[i]=0;\n            numberOfOwners[i]=0;\n            market[i] = IMarket(_addressesOfMarkets[i]);\n        }\n     \n        //approve Augur contract to transfer this contract's dai\n        cash.approve(_addressOfMainAugurContract,(2**256)-1);\n    } \n\n    event LogBuy(address indexed owner, uint256 indexed price);\n    event LogPriceChange(uint256 indexed newPrice);\n    event LogForeclosure(address indexed prevOwner);\n    event LogRentCollection(uint256 indexed collectedPerMarket);\n    event LogFinalised(uint256 indexed winningOutcome, uint256 indexed daiAvailableToDistribute);\n    event LogFundsReturned(uint256 indexed daiAvailableToDistribute);\n    event LogReturnToPreviousOwner(uint256 indexed tokenId, address indexed previousOwner);\n\n\n    ////////////// MODIFIERS //////////////\n    /// @notice prevents functions from being interacted with after the end of the competition \n    /// @dev should be on all public 'ordinary course of business' functions\n    modifier notResolved() {\n        require(marketsResolved == false);\n        _;\n    }\n\n    /// @notice collect Rent\n    /// @dev should be on all public 'ordinary course of business' functions except the collect rent ones obviously.\n    modifier collectRent(uint256 _tokenId) {\n       _collectRent(_tokenId); \n       _;\n    }\n\n    ////////////// VIEW FUNCTIONS //////////////\n    /// @dev used in testing only\n    function getOwnerTrackerPrice(uint256 _tokenId, uint256 _index) public view returns (uint256)\n    {\n        return (previousOwnerTracker[_tokenId][_index].price);\n    }\n\n    /// @dev used in testing only\n    function getOwnerTrackerAddress(uint256 _tokenId, uint256 _index) public view returns (address)\n    {\n        return (previousOwnerTracker[_tokenId][_index].owner);\n    }\n\n    /// @dev called in collectRent function, and various other view functions \n    function rentOwed(uint256 _tokenId) public view returns (uint256 augurFundsDue) \n    {\n        return price[_tokenId].mul(now.sub(timeLastCollected[_tokenId])).div(1 days);\n    }\n\n    /// @dev for front end only\n    /// @return how much the current owner has deposited\n    function liveDepositAbleToWithdraw(uint256 _tokenId) public view returns (uint256) \n    {\n        uint256 _rentOwed = rentOwed(_tokenId);\n        address _currentOwner = team.ownerOf(_tokenId);\n        if(_rentOwed >= deposits[_tokenId][_currentOwner]) {\n            return 0;\n        } else {\n            return deposits[_tokenId][_currentOwner].sub(_rentOwed);\n        }\n    }\n\n    /// @dev for front end only\n    /// @return how much the current user has deposited\n    function userDepositAbleToWithdraw(uint256 _tokenId) public view returns (uint256) \n    {\n        uint256 _rentOwed = rentOwed(_tokenId);\n        address _currentOwner = team.ownerOf(_tokenId);\n\n        if(_currentOwner == msg.sender)\n        {\n            if(_rentOwed >= deposits[_tokenId][msg.sender]) \n        {\n            return 0;\n        } else {\n            return deposits[_tokenId][msg.sender].sub(_rentOwed);\n        }\n        } else {\n            return deposits[_tokenId][msg.sender];\n        }\n    }\n\n    /// @dev for front end only\n    /// @return estimated rental expiry time\n    function rentalExpiryTime(uint256 _tokenId) public view returns (uint256) \n    {\n        uint256 pps;\n        pps = price[_tokenId].div(1 days);\n        if (pps == 0) {\n            return now; //if price is so low that pps = 0 just return current time as a fallback\n        }\n        else {\n            return now + liveDepositAbleToWithdraw(_tokenId).div(pps);\n        }\n    }\n\n    ////////////// AUGUR FUNCTIONS //////////////\n    // * internal * \n    /// @notice buy complete sets from Augur\n    function _buyCompleteSets(uint256 _tokenId, uint256 _rentOwed) internal \n    {\n        if (usingAugur == true) {\n            uint256 _setsToBuy =_rentOwed.div(100);\n            completeSets.publicBuyCompleteSets(market[_tokenId], _setsToBuy);\n        } \n    }\n\n    // * internal *\n    /// @notice sell complete sets from Augur\n    function _sellCompleteSets() internal \n    {\n        if (usingAugur == true) {\n            for (uint i=0; i<numberOfTokens; i++) {\n                uint256 _setsToSell =collectedPerMarket[i].div(100);\n                completeSets.publicSellCompleteSets(market[i], _setsToSell);\n            } \n        } \n    }\n\n    // * internal * \n    /// @notice THIS FUNCTION HAS NOT BEEN TESTED ON AUGUR YET\n    /// @notice checks if all X (x = number of tokens = number of teams) markets have resolved to either yes, no, or invalid\n    /// @return true if yes, false if no\n    function _haveAllAugurMarketsResolved() internal returns(bool) \n    {   \n        if (usingAugur) {\n            uint256 _resolvedOutcomesCount = 0;\n\n            for (uint i=0; i<numberOfTokens; i++) {\n                // binary market has three outcomes: 0 (invalid), 1 (yes), 2 (no)\n                if (market[i].getWinningPayoutNumerator(0) > 0 || market[i].getWinningPayoutNumerator(1) > 0 || market[i].getWinningPayoutNumerator(2) > 0  ) {\n                    _resolvedOutcomesCount = _resolvedOutcomesCount.add(1);\n                }\n            }\n\n            if (_resolvedOutcomesCount == numberOfTokens) {\n                return true;\n            } else {\n                return false;\n            }\n        }\n        //hard code 'yes' for testing\n        else {\n            return true;\n        }\n    }\n\n    // * internal * \n    /// @notice THIS FUNCTION HAS NOT BEEN TESTED ON AUGUR YET\n    /// @notice checks if all markets have resolved without conflicts or errors\n    /// @return true if yes, false if no\n    /// @dev this function will also set the winningOutcome variable\n    /// @dev the two arguments this function takes are for testing only. They are not used when usingAugur is set to true\n    function _haveAllAugurMarketsResolvedWithoutErrors(uint256 _hardCodedWinner, bool _hardCodedResolvedCorrectly) internal returns(bool) \n    {   \n        if (usingAugur) {\n            uint256 _winningOutcomesCount = 0;\n            uint256 _invalidOutcomesCount = 0;\n\n            for (uint i=0; i<numberOfTokens; i++) {\n                if (market[i].getWinningPayoutNumerator(0) > 0) {\n                    _invalidOutcomesCount = _invalidOutcomesCount.add(1);\n                }\n                if (market[i].getWinningPayoutNumerator(1) > 0) {\n                    winningOutcome = i; // <- the winning outcome (a global variable) is set here\n                    _winningOutcomesCount = _winningOutcomesCount.add(1);\n                }\n            }\n\n            if (_winningOutcomesCount == 1 && _invalidOutcomesCount == 0) {\n                return true;\n            } else {\n                return false;\n            }\n        }\n        //if in testing mode, return the supplied arguments\n        else {\n            winningOutcome = _hardCodedWinner;\n            return _hardCodedResolvedCorrectly;\n            }\n        }\n\n    ////////////// DAI CONTRACT FUNCTIONS ////////////// \n\n    // * internal * \n    /// @notice common function for all outgoing DAI transfers\n    function _sendCash(address _to, uint256 _amount) internal { \n        cash.transfer(_to,_amount); \n    }\n\n    // * internal * \n    /// @notice common function for all incoming DAI transfers\n    function _receiveCash(address _from, uint256 _amount) internal {  \n        cash.transferFrom(_from, address(this), _amount);\n    }\n\n    // * internal * \n    /// @return DAI balance of the contract\n    /// @dev this is used to know how much exists to payout to winners\n    function _getContractsCashBalance() internal view returns (uint256) {\n        return cash.balanceOf(address(this));\n    }\n\n    ////////////// MARKET RESOLUTION FUNCTIONS ////////////// \n\n    /// @notice the first of five functions which must be called, one after the other, to conclude the competition\n    /// @notice this function checks whether the Augur markets have resolved, and if yes, whether they resolved correct or not\n    /// @dev these five functions are done seperately because if they were done at once, the gas cost could easily cross the block limit\n    /// @dev can be called by anyone \n    /// @dev can be called multiple times, but only once after markets have indeed resolved\n    /// @dev the two arguments passed are for testing only\n    function step1checkMarketsResolved(uint256 _hardCodedWinner, bool _hardCodedResolvedCorrectly) public  \n    {\n        require(marketsResolved == false, \"step1 can only be completed once\");\n        // first check if all X markets have all resolved one way or the other\n        if (_haveAllAugurMarketsResolved()) {\n            // do a final rent collection before the contract is locked down\n            collectRentAllTokens();\n            // lock everything down\n            marketsResolved = true;\n             // now check if they all resolved without errors. \n            if (_haveAllAugurMarketsResolvedWithoutErrors(_hardCodedWinner, _hardCodedResolvedCorrectly)) {\n                marketsResolvedWithoutErrors = true;\n            }\n        }\n    }\n\n    /// @notice emergency function in case the augur markets never resolve for whatever reason\n    /// @notice returns all funds to all users\n    /// @notice can only be called 6 months after augur markets should have ended \n    function step1BemergencyExit() public \n    {\n        require(marketsResolved == false, \"step1 can only be completed once\");\n        require(now > (marketExpectedResolutionTime + 15778800), \"Must wait 6 months for Augur Oracle\");\n        collectRentAllTokens();\n        marketsResolved = true;\n    }\n\n    /// @notice Same as above, except that only I can call it, and I can call it whenever\n    function step1CcircuitBreaker() public \n    {\n        require(marketsResolved == false, \"step1 can only be completed once\");\n        require(msg.sender == andrewsAddress, \"Only Andrew, First of His Name and Breaker of Chains, can call this\");\n        collectRentAllTokens();\n        marketsResolved = true;\n    }\n\n    /// @notice the second of five functions which must be called, one after the other, to conclude the competition\n    /// @dev this function gets the required number of loops needed in the returnDeposits and returnAllFunds functions. We get it once only to save gas. \n    /// @dev can be called by anyone, but only once\n    function step2getLoopsRequired() public\n    {\n        require(marketsResolved == true, \"step1 must be completed first\");\n        require(step2Complete == false, \"step2 should only be run once\"); \n\n        //get the total number of loops required for returnDeposits or returnAllFunds\n        uint256 _loopsRequired = 0;\n        for (uint i=0; i < numberOfTokens; i++) \n        {  \n            for (uint j=0; j < numberOfOwners[i]; j++)\n            {  \n                _loopsRequired = _loopsRequired.add(1);\n            }\n        }\n\n        loopsRequired = _loopsRequired;\n        step2Complete = true;\n    }\n\n    /// @notice the third of five functions which must be called, one after the other, to conclude the competition\n    /// @notice returns unused deposits to all users\n    /// @dev the _numberOfLoopsToDo argument allows this function to be completed over multiple txs, protecting against denial of service attacks\n    /// @dev trying to return all deposits to all users at once could easily hit the block limit\n    /// @dev can be called by anyone, but only once (all the way through)\n    function step3returnDeposits(uint256 _numberOfLoopsToDo) public\n    {\n        require(step2Complete == true, \"step2 must be completed first\");\n        require(step3Complete == false, \"step3 should only be run once\");\n\n        uint256 _currentLoop = 0;\n        uint256 _startAtLoop = step3LoopsCompleted;\n        uint256 _endAtLoop = step3LoopsCompleted.add(_numberOfLoopsToDo);\n\n        for (uint i=0; i < numberOfTokens; i++) \n        {  \n            for (uint j=0; j < numberOfOwners[i]; j++)\n            { \n                if (_currentLoop >= _startAtLoop && _currentLoop < _endAtLoop) {\n                    address _thisUsersAddress = ownerTracker[i][j];\n                    uint256 _depositToReturn = deposits[i][_thisUsersAddress];\n                    deposits[i][_thisUsersAddress] = 0;\n\n                    if (_depositToReturn > 0) {\n                        _sendCash(_thisUsersAddress,_depositToReturn);\n                    }\n\n                    step3LoopsCompleted = step3LoopsCompleted.add(1);\n                }\n                _currentLoop = _currentLoop.add(1);\n            }\n        }\n\n        if (_endAtLoop>=loopsRequired) {\n            step3Complete = true;\n        }\n    }\n\n    /// @notice the fourth of five functions which must be called, one after the other, to conclude the competition\n    /// @dev gets funds back from Augur, gets the available funds for distribution and pays me my 1%\n    /// @dev can be called by anyone, but only once \n    function step4sellCompleteSetsAndPayAndrew() public\n    {\n        require(step3Complete == true, \"step3 must be completed first\");\n        require(step4Complete == false, \"step4 should only be run once\");\n\n        _sellCompleteSets();\n        daiAvailableToDistribute = _getContractsCashBalance();\n\n        //only pay me if markets resolved correctly. If not I don't deserve shit\n        if (marketsResolvedWithoutErrors) {\n            uint256 _andrewsWellEarntMonies = daiAvailableToDistribute.div(100);\n            _sendCash(andrewsAddress,_andrewsWellEarntMonies);\n            daiAvailableToDistribute = daiAvailableToDistribute.sub(_andrewsWellEarntMonies);\n        }\n\n        step4Complete = true;\n    }\n\n    /// @notice the final of five functions which must be called, one after the other, to conclude the competition\n    /// @notice determines whether markets resolved correctly- if yes, payout winnings, if not, return all funds\n    /// @dev can be called by anyone, but only once (all the way through)\n    /// @dev _numberOfLoopsToDo and _hardCodedWinner are testing variables only\n    function step5complete(uint256 _numberOfLoopsToDo) public\n    {\n        require(step4Complete == true, \"step4 must be completed first\");\n        require(step5Complete == false, \"step5 should only be run once\"); \n\n        if (marketsResolvedWithoutErrors) {\n                _payoutWinnings(_numberOfLoopsToDo);\n            }\n            else {\n                _returnAllFunds(_numberOfLoopsToDo);\n            }\n    }\n\n    // * internal * \n    /// @notice pays winnings to the winners\n    /// @dev must be internal and only called by step5complete\n    function _payoutWinnings(uint256 _numberOfLoopsToDo) internal\n    {\n        uint256 _currentLoop = 0;\n        uint256 _startAtLoop = step5LoopsCompleted;\n        uint256 _endAtLoop = step5LoopsCompleted.add(_numberOfLoopsToDo);\n\n        for (uint i=0; i < numberOfOwners[winningOutcome]; i++)\n        {   \n            if (_currentLoop >= _startAtLoop && _currentLoop < _endAtLoop) {   \n                address _winnersAddress = ownerTracker[winningOutcome][i];\n                uint256 _winnersTimeHeld = timeHeld[winningOutcome][_winnersAddress];\n                uint256 _numerator = daiAvailableToDistribute.mul(_winnersTimeHeld);\n                uint256 _winningsToTransfer = _numerator.div(totalTimeHeld[winningOutcome]);\n\n                if (_winningsToTransfer > 0) {\n                    _sendCash(_winnersAddress,_winningsToTransfer);\n                }\n\n                step5LoopsCompleted = step5LoopsCompleted.add(1);\n            }\n            _currentLoop = _currentLoop.add(1);\n        }\n\n        if (_endAtLoop>=numberOfOwners[winningOutcome]) {\n            step5Complete = true;\n        }\n        emit LogFinalised(winningOutcome,daiAvailableToDistribute);\n    }\n\n    // * internal * \n    /// @notice returns all funds to users in case of invalid outcome\n    /// @dev must be internal and only called by step5complete or emergencyExit\n    function _returnAllFunds(uint256 _numberOfLoopsToDo) internal\n    {\n        uint256 _currentLoop = 0;\n        uint256 _startAtLoop = step5LoopsCompleted;\n        uint256 _endAtLoop = step5LoopsCompleted.add(_numberOfLoopsToDo);\n\n        for (uint i=0; i < numberOfTokens; i++) \n        {  \n            for (uint j=0; j < numberOfOwners[i]; j++)\n            { \n                if (_currentLoop >= _startAtLoop && _currentLoop < _endAtLoop) {\n                    address _usersAddress = ownerTracker[i][j];\n                    uint256 _numerator = daiAvailableToDistribute.mul(collectedPerUser[_usersAddress]);\n                    uint256 _fundsToReturn = _numerator.div(totalCollected);\n                    collectedPerUser[_usersAddress] = 0; //same address could be across multiple tokens, don't want to pay the user more than once\n\n                    if (_fundsToReturn > 0) {\n                        _sendCash(_usersAddress,_fundsToReturn);\n                    }\n\n                    step5LoopsCompleted = step5LoopsCompleted.add(1);\n                }\n                _currentLoop = _currentLoop.add(1);\n            }\n        }\n\n        if (_endAtLoop>=loopsRequired) {\n            step5Complete = true;\n        }\n        emit LogFundsReturned(daiAvailableToDistribute);\n    }\n\n    ////////////// ORDINARY COURSE OF BUSINESS FUNCTIONS //////////////\n\n    /// @notice collects rent for all tokens\n    /// @dev makes it easy for me to call whenever I want to keep people paying their rent\n    function collectRentAllTokens() public notResolved() {\n       for (uint i=0; i < numberOfTokens; i++) {\n            _collectRent(i);\n        }\n    }\n\n    /// @notice collects rent for a specific token\n    /// @dev also calculates and updates how long the current user has held the token for\n    function _collectRent(uint256 _tokenId) public notResolved() {\n        require(_tokenId < numberOfTokens, \"This team does not exist\");\n        //only collect rent if the token is owned (ie, if owned by the contract this implies unowned)\n        if (team.ownerOf(_tokenId) != address(this)) {\n            \n            uint256 _rentOwed = rentOwed(_tokenId);\n            address _currentOwner = team.ownerOf(_tokenId);\n            uint256 _timeOfThisCollection;\n            \n            if (_rentOwed >= deposits[_tokenId][_currentOwner]) {\n                // run out of deposit. Calculate time it was actually paid for, then revert to previous owner \n                _timeOfThisCollection = timeLastCollected[_tokenId].add(((now.sub(timeLastCollected[_tokenId])).mul(deposits[_tokenId][_currentOwner]).div(_rentOwed)));\n                _rentOwed = deposits[_tokenId][_currentOwner]; // take what's left     \n                _revertToPreviousOwner(_tokenId);\n                \n            } else  {\n                //normal collection\n                _timeOfThisCollection = now;\n            }\n\n            //decrease deposit by rent owed and buy complete sets\n            deposits[_tokenId][_currentOwner] = deposits[_tokenId][_currentOwner].sub(_rentOwed);\n            _buyCompleteSets(_tokenId,_rentOwed);\n\n            //the 'important bit', where the duration the token has been held by each user is updated\n            //it is essential that timeHeld and totalTimeHeld are incremented together such that the sum of\n            //the first is equal to the second\n            uint256 _timeHeldToIncrement = (_timeOfThisCollection.sub(timeLastCollected[_tokenId])); //just for readability\n            timeHeld[_tokenId][_currentOwner] = timeHeld[_tokenId][_currentOwner].add(_timeHeldToIncrement);\n            totalTimeHeld[_tokenId] = totalTimeHeld[_tokenId].add(_timeHeldToIncrement);\n\n            //it is also essential that collectedPerMarket, collectedPerUser and totalCollected are all incremented together\n            //such that the sum of the first two (individually) is equal to the third\n            collectedPerMarket[_tokenId] = collectedPerMarket[_tokenId].add(_rentOwed);\n            collectedPerUser[_currentOwner] = collectedPerUser[_currentOwner].add(_rentOwed);\n            totalCollected = totalCollected.add(_rentOwed);\n            \n            emit LogRentCollection(_rentOwed);\n        }\n\n        timeLastCollected[_tokenId] = now;\n    }\n    \n    /// @notice to rent a token\n    function newRental(uint256 _newPrice, uint256 _tokenId, uint256 _deposit) public collectRent(_tokenId) notResolved() {\n        require(_newPrice > price[_tokenId], \"Price must be higher than current price\");\n        require(_deposit > 0, \"Must deposit something\");\n\n        // get the Dai from the user and add to their deposits balance\n        _receiveCash(msg.sender, _deposit);\n        deposits[_tokenId][msg.sender] = deposits[_tokenId][msg.sender].add(_deposit);\n     \n        address _currentOwner = team.ownerOf(_tokenId);\n\n        // bought by current owner (ie, it just increases the price, token ownership does not change)\n        if(_currentOwner == msg.sender)\n        {\n            changePrice(_newPrice, _tokenId);\n        }\n        // bought by different user (the normal situation)\n        else\n        {   \n            // update currentOwnerIndex and previousOwnerTracker\n            currentOwnerIndex[_tokenId] = currentOwnerIndex[_tokenId].add(1); \n            previousOwnerTracker[_tokenId][currentOwnerIndex[_tokenId]].price = _newPrice;\n            previousOwnerTracker[_tokenId][currentOwnerIndex[_tokenId]].owner = msg.sender; \n\n            // update the ownerTracker and numberOfOwners variables. only for new owners.\n        if (everOwned[_tokenId][msg.sender] == false) {\n            everOwned[_tokenId][msg.sender] = true;\n            ownerTracker[_tokenId][numberOfOwners[_tokenId]] = msg.sender;\n            numberOfOwners[_tokenId] = numberOfOwners[_tokenId].add(1);\n        }\n\n            //update timeAcquired for the front end\n            timeAcquired[_tokenId] = now;\n\n            //transfer token to new owner\n            _transferTokenTo(_currentOwner, msg.sender, _newPrice, _tokenId);\n            emit LogBuy(msg.sender, _newPrice); \n        }\n    }\n\n    /// @notice add new dai deposit to an existing rental\n    function depositDai(uint256 _dai, uint256 _tokenId) public collectRent(_tokenId) notResolved() {\n        _receiveCash(msg.sender, _dai);\n        deposits[_tokenId][msg.sender] = deposits[_tokenId][msg.sender].add(_dai);\n    }\n\n    /// @notice increase the price of an existing rental\n    function changePrice(uint256 _newPrice, uint256 _tokenId) public collectRent(_tokenId) notResolved() {\n        require(_newPrice > price[_tokenId], \"New price must be higher than current price\"); \n        require(msg.sender == team.ownerOf(_tokenId), \"Not owner\");\n        \n        //below is the only instance when price is modifed outside of the _transferTokenTo function\n        price[_tokenId] = _newPrice;\n        previousOwnerTracker[_tokenId][currentOwnerIndex[_tokenId]].price = _newPrice;\n        emit LogPriceChange(price[_tokenId]);\n    }\n    \n    /// @notice withdraw deposit\n    /// @dev do not need to be the current owner\n    function withdrawDeposit(uint256 _dai, uint256 _tokenId) public collectRent(_tokenId) notResolved() returns (uint256) {\n        _withdrawDeposit(_dai, _tokenId);\n    }\n\n    /// @notice withdraw full deposit\n    /// @dev do not need to be the current owner\n    function exit(uint256 _tokenId) public collectRent(_tokenId) notResolved() {\n        _withdrawDeposit(deposits[_tokenId][msg.sender],  _tokenId);\n    }\n\n    /* internal */\n    /// @notice actually withdraw the deposit\n    function _withdrawDeposit(uint256 _dai, uint256 _tokenId) internal {\n        require(deposits[_tokenId][msg.sender] >= _dai, 'Withdrawing too much');\n\n        deposits[_tokenId][msg.sender] = deposits[_tokenId][msg.sender].sub(_dai);\n        _sendCash(msg.sender, _dai);\n\n        if(deposits[_tokenId][msg.sender] == 0) {\n            _revertToPreviousOwner(_tokenId);\n        }\n    }\n\n    /* internal */\n    /// @notice if a users deposit runs out, either return to previous owner or foreclose\n    function _revertToPreviousOwner(uint256 _tokenId) internal {\n        bool _reverted = false;\n        while (_reverted == false)\n        {\n            assert(currentOwnerIndex[_tokenId] >=0);\n            currentOwnerIndex[_tokenId] = currentOwnerIndex[_tokenId].sub(1); // ownerTraker will now point to  previous owner\n            uint256 _index = currentOwnerIndex[_tokenId]; //just for readability\n            address _previousOwner = previousOwnerTracker[_tokenId][_index].owner;\n\n            if (_index == 0) \n            //no previous owners. price -> zero, foreclose\n            {\n                _foreclose(_tokenId);\n                _reverted = true;\n            }\n            else if (deposits[_tokenId][_previousOwner] > 0)\n            // previous owner still has a deposit, transfer to them, update the price to what it used to be\n            {\n                address _currentOwner = team.ownerOf(_tokenId);\n                uint256 _oldPrice = previousOwnerTracker[_tokenId][_index].price;\n                _transferTokenTo(_currentOwner, _previousOwner, _oldPrice, _tokenId);\n                _reverted = true;\n                emit LogReturnToPreviousOwner(_tokenId,_previousOwner);\n            }\n        }       \n    }\n\n    /* internal */\n    /// @notice return token to the contract and return price to zero\n    function _foreclose(uint256 _tokenId) internal {\n        address _currentOwner = team.ownerOf(_tokenId);\n        //third field is price, ie price goes to zero\n        _transferTokenTo(_currentOwner, address(this), 0, _tokenId);\n        emit LogForeclosure(_currentOwner);\n    }\n\n    /* internal */\n    /// @notice transfer ERC 721 between users\n    function _transferTokenTo(address _currentOwner, address _newOwner, uint256 _newPrice, uint256 _tokenId) internal {\n        team.transferFrom(_currentOwner, _newOwner, _tokenId);\n        price[_tokenId] = _newPrice;\n    }\n}\n\n",
  "sourcePath": "/Users/mcplums/Repos/Harber/contracts/Harber.sol",
  "compiler": {
    "name": "solc",
    "version": "0.5.13+commit.5b0b510c.Emscripten.clang"
  },
  "schemaVersion": "3.0.19",
  "updatedAt": "2020-01-28T09:21:02.407Z",
  "devdoc": {
    "author": "Andrew Stanger",
    "details": "ensure usingAugur is set to false upon local testing and true on kovan or mainnet",
    "methods": {
      "_collectRent(uint256)": {
        "details": "also calculates and updates how long the current user has held the token for"
      },
      "collectRentAllTokens()": {
        "details": "makes it easy for me to call whenever I want to keep people paying their rent"
      },
      "exit(uint256)": {
        "details": "do not need to be the current owner"
      },
      "getOwnerTrackerAddress(uint256,uint256)": {
        "details": "used in testing only"
      },
      "getOwnerTrackerPrice(uint256,uint256)": {
        "details": "used in testing only"
      },
      "liveDepositAbleToWithdraw(uint256)": {
        "details": "for front end only",
        "return": "how much the current owner has deposited"
      },
      "rentOwed(uint256)": {
        "details": "called in collectRent function, and various other view functions "
      },
      "rentalExpiryTime(uint256)": {
        "details": "for front end only",
        "return": "estimated rental expiry time"
      },
      "step1checkMarketsResolved(uint256,bool)": {
        "details": "these five functions are done seperately because if they were done at once, the gas cost could easily cross the block limitcan be called by anyone can be called multiple times, but only once after markets have indeed resolvedthe two arguments passed are for testing only"
      },
      "step2getLoopsRequired()": {
        "details": "this function gets the required number of loops needed in the returnDeposits and returnAllFunds functions. We get it once only to save gas. can be called by anyone, but only once"
      },
      "step3returnDeposits(uint256)": {
        "details": "the _numberOfLoopsToDo argument allows this function to be completed over multiple txs, protecting against denial of service attackstrying to return all deposits to all users at once could easily hit the block limitcan be called by anyone, but only once (all the way through)"
      },
      "step4sellCompleteSetsAndPayAndrew()": {
        "details": "gets funds back from Augur, gets the available funds for distribution and pays me my 1%can be called by anyone, but only once "
      },
      "step5complete(uint256)": {
        "details": "can be called by anyone, but only once (all the way through)_numberOfLoopsToDo and _hardCodedWinner are testing variables only"
      },
      "userDepositAbleToWithdraw(uint256)": {
        "details": "for front end only",
        "return": "how much the current user has deposited"
      },
      "withdrawDeposit(uint256,uint256)": {
        "details": "do not need to be the current owner"
      }
    },
    "title": "Harber"
  },
  "userdoc": {
    "methods": {
      "_collectRent(uint256)": {
        "notice": "collects rent for a specific token"
      },
      "changePrice(uint256,uint256)": {
        "notice": "increase the price of an existing rental"
      },
      "collectRentAllTokens()": {
        "notice": "/////////// ORDINARY COURSE OF BUSINESS FUNCTIONS //////////////collects rent for all tokens"
      },
      "constructor": "/////////// CONSTRUCTOR //////////////",
      "depositDai(uint256,uint256)": {
        "notice": "add new dai deposit to an existing rental"
      },
      "exit(uint256)": {
        "notice": "withdraw full deposit"
      },
      "getOwnerTrackerPrice(uint256,uint256)": {
        "notice": "/////////// VIEW FUNCTIONS //////////////"
      },
      "newRental(uint256,uint256,uint256)": {
        "notice": "to rent a token"
      },
      "step1BemergencyExit()": {
        "notice": "emergency function in case the augur markets never resolve for whatever reasonreturns all funds to all userscan only be called 6 months after augur markets should have ended "
      },
      "step1CcircuitBreaker()": {
        "notice": "Same as above, except that only I can call it, and I can call it whenever"
      },
      "step1checkMarketsResolved(uint256,bool)": {
        "notice": "/////////// MARKET RESOLUTION FUNCTIONS ////////////// the first of five functions which must be called, one after the other, to conclude the competitionthis function checks whether the Augur markets have resolved, and if yes, whether they resolved correct or not"
      },
      "step2getLoopsRequired()": {
        "notice": "the second of five functions which must be called, one after the other, to conclude the competition"
      },
      "step3returnDeposits(uint256)": {
        "notice": "the third of five functions which must be called, one after the other, to conclude the competitionreturns unused deposits to all users"
      },
      "step4sellCompleteSetsAndPayAndrew()": {
        "notice": "the fourth of five functions which must be called, one after the other, to conclude the competition"
      },
      "step5complete(uint256)": {
        "notice": "the final of five functions which must be called, one after the other, to conclude the competitiondetermines whether markets resolved correctly- if yes, payout winnings, if not, return all funds"
      },
      "withdrawDeposit(uint256,uint256)": {
        "notice": "withdraw deposit"
      }
    }
  }
}