{
  "contractName": "Harber",
  "abi": [
    {
      "constant": true,
      "inputs": [
        {
          "name": "",
          "type": "uint256"
        }
      ],
      "name": "currentCollected",
      "outputs": [
        {
          "name": "",
          "type": "uint256"
        }
      ],
      "payable": false,
      "stateMutability": "view",
      "type": "function"
    },
    {
      "constant": true,
      "inputs": [
        {
          "name": "",
          "type": "uint256"
        },
        {
          "name": "",
          "type": "address"
        }
      ],
      "name": "timeHeld",
      "outputs": [
        {
          "name": "",
          "type": "uint256"
        }
      ],
      "payable": false,
      "stateMutability": "view",
      "type": "function"
    },
    {
      "constant": true,
      "inputs": [
        {
          "name": "",
          "type": "uint256"
        }
      ],
      "name": "price",
      "outputs": [
        {
          "name": "",
          "type": "uint256"
        }
      ],
      "payable": false,
      "stateMutability": "view",
      "type": "function"
    },
    {
      "constant": true,
      "inputs": [
        {
          "name": "",
          "type": "uint256"
        }
      ],
      "name": "state",
      "outputs": [
        {
          "name": "",
          "type": "uint8"
        }
      ],
      "payable": false,
      "stateMutability": "view",
      "type": "function"
    },
    {
      "constant": true,
      "inputs": [
        {
          "name": "",
          "type": "uint256"
        }
      ],
      "name": "timeAcquired",
      "outputs": [
        {
          "name": "",
          "type": "uint256"
        }
      ],
      "payable": false,
      "stateMutability": "view",
      "type": "function"
    },
    {
      "constant": true,
      "inputs": [
        {
          "name": "",
          "type": "uint256"
        },
        {
          "name": "",
          "type": "address"
        }
      ],
      "name": "owners",
      "outputs": [
        {
          "name": "",
          "type": "bool"
        }
      ],
      "payable": false,
      "stateMutability": "view",
      "type": "function"
    },
    {
      "constant": true,
      "inputs": [],
      "name": "team",
      "outputs": [
        {
          "name": "",
          "type": "address"
        }
      ],
      "payable": false,
      "stateMutability": "view",
      "type": "function"
    },
    {
      "constant": true,
      "inputs": [
        {
          "name": "",
          "type": "uint256"
        }
      ],
      "name": "timeLastCollected",
      "outputs": [
        {
          "name": "",
          "type": "uint256"
        }
      ],
      "payable": false,
      "stateMutability": "view",
      "type": "function"
    },
    {
      "constant": true,
      "inputs": [],
      "name": "andrewsAddress",
      "outputs": [
        {
          "name": "",
          "type": "address"
        }
      ],
      "payable": false,
      "stateMutability": "view",
      "type": "function"
    },
    {
      "constant": true,
      "inputs": [
        {
          "name": "",
          "type": "uint256"
        }
      ],
      "name": "deposit",
      "outputs": [
        {
          "name": "",
          "type": "uint256"
        }
      ],
      "payable": false,
      "stateMutability": "view",
      "type": "function"
    },
    {
      "constant": true,
      "inputs": [],
      "name": "augurFund",
      "outputs": [
        {
          "name": "",
          "type": "uint256"
        }
      ],
      "payable": false,
      "stateMutability": "view",
      "type": "function"
    },
    {
      "constant": true,
      "inputs": [],
      "name": "totalCollected",
      "outputs": [
        {
          "name": "",
          "type": "uint256"
        }
      ],
      "payable": false,
      "stateMutability": "view",
      "type": "function"
    },
    {
      "inputs": [
        {
          "name": "_andrewsAddress",
          "type": "address"
        },
        {
          "name": "_addressOfToken",
          "type": "address"
        }
      ],
      "payable": false,
      "stateMutability": "nonpayable",
      "type": "constructor"
    },
    {
      "anonymous": false,
      "inputs": [
        {
          "indexed": true,
          "name": "owner",
          "type": "address"
        },
        {
          "indexed": true,
          "name": "price",
          "type": "uint256"
        }
      ],
      "name": "LogBuy",
      "type": "event"
    },
    {
      "anonymous": false,
      "inputs": [
        {
          "indexed": true,
          "name": "newPrice",
          "type": "uint256"
        }
      ],
      "name": "LogPriceChange",
      "type": "event"
    },
    {
      "anonymous": false,
      "inputs": [
        {
          "indexed": true,
          "name": "prevOwner",
          "type": "address"
        }
      ],
      "name": "LogForeclosure",
      "type": "event"
    },
    {
      "anonymous": false,
      "inputs": [
        {
          "indexed": true,
          "name": "collected",
          "type": "uint256"
        }
      ],
      "name": "LogCollection",
      "type": "event"
    },
    {
      "constant": true,
      "inputs": [
        {
          "name": "_tokenId",
          "type": "uint256"
        }
      ],
      "name": "getPrice",
      "outputs": [
        {
          "name": "",
          "type": "uint256"
        }
      ],
      "payable": false,
      "stateMutability": "view",
      "type": "function"
    },
    {
      "constant": true,
      "inputs": [
        {
          "name": "_tokenId",
          "type": "uint256"
        }
      ],
      "name": "augurFundsOwed",
      "outputs": [
        {
          "name": "augurFundsDue",
          "type": "uint256"
        }
      ],
      "payable": false,
      "stateMutability": "view",
      "type": "function"
    },
    {
      "constant": true,
      "inputs": [
        {
          "name": "_tokenId",
          "type": "uint256"
        }
      ],
      "name": "augurFundsOwedWithTimestamp",
      "outputs": [
        {
          "name": "augurFundsDue",
          "type": "uint256"
        },
        {
          "name": "timestamp",
          "type": "uint256"
        }
      ],
      "payable": false,
      "stateMutability": "view",
      "type": "function"
    },
    {
      "constant": true,
      "inputs": [
        {
          "name": "_tokenId",
          "type": "uint256"
        }
      ],
      "name": "foreclosed",
      "outputs": [
        {
          "name": "",
          "type": "bool"
        }
      ],
      "payable": false,
      "stateMutability": "view",
      "type": "function"
    },
    {
      "constant": true,
      "inputs": [
        {
          "name": "_tokenId",
          "type": "uint256"
        }
      ],
      "name": "depositAbleToWithdraw",
      "outputs": [
        {
          "name": "",
          "type": "uint256"
        }
      ],
      "payable": false,
      "stateMutability": "view",
      "type": "function"
    },
    {
      "constant": true,
      "inputs": [
        {
          "name": "_tokenId",
          "type": "uint256"
        }
      ],
      "name": "foreclosureTime",
      "outputs": [
        {
          "name": "",
          "type": "uint256"
        }
      ],
      "payable": false,
      "stateMutability": "view",
      "type": "function"
    },
    {
      "constant": false,
      "inputs": [
        {
          "name": "_tokenId",
          "type": "uint256"
        }
      ],
      "name": "_collectAugurFunds",
      "outputs": [],
      "payable": false,
      "stateMutability": "nonpayable",
      "type": "function"
    },
    {
      "constant": false,
      "inputs": [
        {
          "name": "_tokenId",
          "type": "uint256"
        }
      ],
      "name": "depositWei",
      "outputs": [],
      "payable": true,
      "stateMutability": "payable",
      "type": "function"
    },
    {
      "constant": false,
      "inputs": [
        {
          "name": "_newPrice",
          "type": "uint256"
        },
        {
          "name": "_tokenId",
          "type": "uint256"
        }
      ],
      "name": "buy",
      "outputs": [],
      "payable": true,
      "stateMutability": "payable",
      "type": "function"
    },
    {
      "constant": false,
      "inputs": [
        {
          "name": "_newPrice",
          "type": "uint256"
        },
        {
          "name": "_tokenId",
          "type": "uint256"
        }
      ],
      "name": "changePrice",
      "outputs": [],
      "payable": false,
      "stateMutability": "nonpayable",
      "type": "function"
    },
    {
      "constant": false,
      "inputs": [
        {
          "name": "_wei",
          "type": "uint256"
        },
        {
          "name": "_tokenId",
          "type": "uint256"
        }
      ],
      "name": "withdrawDeposit",
      "outputs": [
        {
          "name": "",
          "type": "uint256"
        }
      ],
      "payable": false,
      "stateMutability": "nonpayable",
      "type": "function"
    },
    {
      "constant": false,
      "inputs": [],
      "name": "withdrawAugurFunds",
      "outputs": [],
      "payable": false,
      "stateMutability": "nonpayable",
      "type": "function"
    },
    {
      "constant": false,
      "inputs": [
        {
          "name": "_tokenId",
          "type": "uint256"
        }
      ],
      "name": "exit",
      "outputs": [],
      "payable": false,
      "stateMutability": "nonpayable",
      "type": "function"
    }
  ],
  "bytecode": "0x6080604052640ba43b740060105564e8d4a510006011553480156200002357600080fd5b50604051604080620020c0833981018060405260408110156200004557600080fd5b81019080805190602001909291908051906020019092919050505080600260006101000a81548173ffffffffffffffffffffffffffffffffffffffff021916908373ffffffffffffffffffffffffffffffffffffffff160217905550600260009054906101000a900473ffffffffffffffffffffffffffffffffffffffff1673ffffffffffffffffffffffffffffffffffffffff1663ba0bba406040518163ffffffff1660e01b8152600401600060405180830381600087803b1580156200010c57600080fd5b505af115801562000121573d6000803e3d6000fd5b5050505081600a60006101000a81548173ffffffffffffffffffffffffffffffffffffffff021916908373ffffffffffffffffffffffffffffffffffffffff160217905550600060126000600281106200017757fe5b602091828204019190066101000a81548160ff021916908360018111156200019b57fe5b021790555060006012600160028110620001b157fe5b602091828204019190066101000a81548160ff02191690836001811115620001d557fe5b02179055505050611ed480620001ec6000396000f3fe6080604052600436106101665760003560e01c806385f2aef2116100d1578063b8dc6d741161008a578063e1c214c611610064578063e1c214c614610797578063e29eb836146107e6578063e6a9d42914610811578063e75722301461086057610166565b8063b8dc6d74146106db578063bae04c9a14610706578063d6febde81461075f57610166565b806385f2aef21461051c5780638cb6889914610573578063994ec705146105c2578063a3f81da014610619578063b3de019c14610647578063b6b55f251461068c57610166565b80633317de7a116101235780633317de7a14610370578063391edb3a146103875780633e4f49e6146103c25780635b2ace641461041f5780635e104def1461046e5780637f8661a1146104e157610166565b80631b2527811461016b5780631e8b76ad146101ba578063224ce1b91461020d578063237b5e4f1461026357806323ebc82b146102d257806326a49e3714610321575b600080fd5b34801561017757600080fd5b506101a46004803603602081101561018e57600080fd5b81019080803590602001909291905050506108af565b6040518082815260200191505060405180910390f35b3480156101c657600080fd5b506101f3600480360360208110156101dd57600080fd5b81019080803590602001909291905050506108c7565b604051808215151515815260200191505060405180910390f35b34801561021957600080fd5b506102466004803603602081101561023057600080fd5b81019080803590602001909291905050506108ff565b604051808381526020018281526020019250505060405180910390f35b34801561026f57600080fd5b506102bc6004803603604081101561028657600080fd5b8101908080359060200190929190803573ffffffffffffffffffffffffffffffffffffffff169060200190929190505050610915565b6040518082815260200191505060405180910390f35b3480156102de57600080fd5b5061030b600480360360208110156102f557600080fd5b810190808035906020019092919050505061093a565b6040518082815260200191505060405180910390f35b34801561032d57600080fd5b5061035a6004803603602081101561034457600080fd5b8101908080359060200190929190505050610991565b6040518082815260200191505060405180910390f35b34801561037c57600080fd5b506103856109a9565b005b34801561039357600080fd5b506103c0600480360360208110156103aa57600080fd5b8101908080359060200190929190505050610ae1565b005b3480156103ce57600080fd5b506103fb600480360360208110156103e557600080fd5b8101908080359060200190929190505050610cc9565b6040518082600181111561040b57fe5b60ff16815260200191505060405180910390f35b34801561042b57600080fd5b506104586004803603602081101561044257600080fd5b8101908080359060200190929190505050610cf0565b6040518082815260200191505060405180910390f35b34801561047a57600080fd5b506104c76004803603604081101561049157600080fd5b8101908080359060200190929190803573ffffffffffffffffffffffffffffffffffffffff169060200190929190505050610d08565b604051808215151515815260200191505060405180910390f35b3480156104ed57600080fd5b5061051a6004803603602081101561050457600080fd5b8101908080359060200190929190505050610d37565b005b34801561052857600080fd5b50610531610ead565b604051808273ffffffffffffffffffffffffffffffffffffffff1673ffffffffffffffffffffffffffffffffffffffff16815260200191505060405180910390f35b34801561057f57600080fd5b506105ac6004803603602081101561059657600080fd5b8101908080359060200190929190505050610ed3565b6040518082815260200191505060405180910390f35b3480156105ce57600080fd5b506105d7610eeb565b604051808273ffffffffffffffffffffffffffffffffffffffff1673ffffffffffffffffffffffffffffffffffffffff16815260200191505060405180910390f35b6106456004803603602081101561062f57600080fd5b8101908080359060200190929190505050610f11565b005b34801561065357600080fd5b5061068a6004803603604081101561066a57600080fd5b810190808035906020019092919080359060200190929190505050611001565b005b34801561069857600080fd5b506106c5600480360360208110156106af57600080fd5b81019080803590602001909291905050506112d4565b6040518082815260200191505060405180910390f35b3480156106e757600080fd5b506106f06112ec565b6040518082815260200191505060405180910390f35b34801561071257600080fd5b506107496004803603604081101561072957600080fd5b8101908080359060200190929190803590602001909291905050506112f2565b6040518082815260200191505060405180910390f35b6107956004803603604081101561077557600080fd5b81019080803590602001909291908035906020019092919050505061145f565b005b3480156107a357600080fd5b506107d0600480360360208110156107ba57600080fd5b810190808035906020019092919050505061180a565b6040518082815260200191505060405180910390f35b3480156107f257600080fd5b506107fb611881565b6040518082815260200191505060405180910390f35b34801561081d57600080fd5b5061084a6004803603602081101561083457600080fd5b8101908080359060200190929190505050611887565b6040518082815260200191505060405180910390f35b34801561086c57600080fd5b506108996004803603602081101561088357600080fd5b810190808035906020019092919050505061190f565b6040518082815260200191505060405180910390f35b600481600281106108bc57fe5b016000915090505481565b6000806108d383611887565b9050600883600281106108e257fe5b015481106108f45760019150506108fa565b60009150505b919050565b60008061090b83611887565b4291509150915091565b600d602052816000526040600020602052806000526040600020600091509150505481565b60008061094683611887565b90506008836002811061095557fe5b0154811061096757600091505061098c565b610988816008856002811061097857fe5b015461192690919063ffffffff16565b9150505b919050565b6000816002811061099e57fe5b016000915090505481565b600a60009054906101000a900473ffffffffffffffffffffffffffffffffffffffff1673ffffffffffffffffffffffffffffffffffffffff163373ffffffffffffffffffffffffffffffffffffffff1614610a6c576040517f08c379a000000000000000000000000000000000000000000000000000000000815260040180806020018281038252600a8152602001807f4e6f7420616e647265770000000000000000000000000000000000000000000081525060200191505060405180910390fd5b600a60009054906101000a900473ffffffffffffffffffffffffffffffffffffffff1673ffffffffffffffffffffffffffffffffffffffff166108fc600b549081150290604051600060405180830381858888f19350505050158015610ad6573d6000803e3d6000fd5b506000600b81905550565b600180811115610aed57fe5b60128260028110610afa57fe5b602091828204019190069054906101000a900460ff166001811115610b1b57fe5b1415610cc6576000610b2c82611887565b905060088260028110610b3b57fe5b01548110610be757610bb6610b9982610b8b60088660028110610b5a57fe5b0154610b7d60068860028110610b6c57fe5b01544261192690919063ffffffff16565b61194690919063ffffffff16565b61198090919063ffffffff16565b60068460028110610ba657fe5b01546119a690919063ffffffff16565b60068360028110610bc357fe5b018190555060088260028110610bd557fe5b01549050610be2826119c5565b610c2e565b4260068360028110610bf557fe5b0181905550610c1b8160048460028110610c0b57fe5b01546119a690919063ffffffff16565b60048360028110610c2857fe5b01819055505b610c4f8160088460028110610c3f57fe5b015461192690919063ffffffff16565b60088360028110610c5c57fe5b0181905550610c76816003546119a690919063ffffffff16565b600381905550610c9181600b546119a690919063ffffffff16565b600b81905550807f54acb82a9e70d7c289b149758d23167c915428ae854a7aa4abe5bf2f4ef29f3660405160405180910390a2505b50565b60128160028110610cd657fe5b60209182820401919006915054906101000a900460ff1681565b600e8160028110610cfd57fe5b016000915090505481565b600c6020528160005260406000206020528060005260406000206000915091509054906101000a900460ff1681565b80600260009054906101000a900473ffffffffffffffffffffffffffffffffffffffff1673ffffffffffffffffffffffffffffffffffffffff16636352211e826040518263ffffffff1660e01b81526004018082815260200191505060206040518083038186803b158015610dab57600080fd5b505afa158015610dbf573d6000803e3d6000fd5b505050506040513d6020811015610dd557600080fd5b810190808051906020019092919050505073ffffffffffffffffffffffffffffffffffffffff163373ffffffffffffffffffffffffffffffffffffffff1614610e86576040517f08c379a00000000000000000000000000000000000000000000000000000000081526004018080602001828103825260098152602001807f4e6f74206f776e6572000000000000000000000000000000000000000000000081525060200191505060405180910390fd5b81610e9081610ae1565b610ea860088460028110610ea057fe5b015484611b16565b505050565b600260009054906101000a900473ffffffffffffffffffffffffffffffffffffffff1681565b60068160028110610ee057fe5b016000915090505481565b600a60009054906101000a900473ffffffffffffffffffffffffffffffffffffffff1681565b80610f1b81610ae1565b60006001811115610f2857fe5b60128360028110610f3557fe5b602091828204019190069054906101000a900460ff166001811115610f5657fe5b1415610fca576040517f08c379a000000000000000000000000000000000000000000000000000000000815260040180806020018281038252600a8152602001807f466f7265636c6f7365640000000000000000000000000000000000000000000081525060200191505060405180910390fd5b610feb3460088460028110610fdb57fe5b01546119a690919063ffffffff16565b60088360028110610ff857fe5b01819055505050565b80600260009054906101000a900473ffffffffffffffffffffffffffffffffffffffff1673ffffffffffffffffffffffffffffffffffffffff16636352211e826040518263ffffffff1660e01b81526004018082815260200191505060206040518083038186803b15801561107557600080fd5b505afa158015611089573d6000803e3d6000fd5b505050506040513d602081101561109f57600080fd5b810190808051906020019092919050505073ffffffffffffffffffffffffffffffffffffffff163373ffffffffffffffffffffffffffffffffffffffff1614611150576040517f08c379a00000000000000000000000000000000000000000000000000000000081526004018080602001828103825260098152602001807f4e6f74206f776e6572000000000000000000000000000000000000000000000081525060200191505060405180910390fd5b8161115a81610ae1565b6000600181111561116757fe5b6012846002811061117457fe5b602091828204019190069054906101000a900460ff16600181111561119557fe5b1415611209576040517f08c379a000000000000000000000000000000000000000000000000000000000815260040180806020018281038252600a8152602001807f466f7265636c6f7365640000000000000000000000000000000000000000000081525060200191505060405180910390fd5b6000841415611280576040517f08c379a000000000000000000000000000000000000000000000000000000000815260040180806020018281038252600f8152602001807f496e636f7272656374205072696365000000000000000000000000000000000081525060200191505060405180910390fd5b836000846002811061128e57fe5b0181905550600083600281106112a057fe5b01547f854d6511a28585103049c7770618450f7c9aeb580c69db2913d63869663f475160405160405180910390a250505050565b600881600281106112e157fe5b016000915090505481565b600b5481565b600081600260009054906101000a900473ffffffffffffffffffffffffffffffffffffffff1673ffffffffffffffffffffffffffffffffffffffff16636352211e826040518263ffffffff1660e01b81526004018082815260200191505060206040518083038186803b15801561136857600080fd5b505afa15801561137c573d6000803e3d6000fd5b505050506040513d602081101561139257600080fd5b810190808051906020019092919050505073ffffffffffffffffffffffffffffffffffffffff163373ffffffffffffffffffffffffffffffffffffffff1614611443576040517f08c379a00000000000000000000000000000000000000000000000000000000081526004018080602001828103825260098152602001807f4e6f74206f776e6572000000000000000000000000000000000000000000000081525060200191505060405180910390fd5b8261144d81610ae1565b6114578585611b16565b505092915050565b8061146981610ae1565b600083116114df576040517f08c379a000000000000000000000000000000000000000000000000000000000815260040180806020018281038252600d8152602001807f5072696365206973207a65726f0000000000000000000000000000000000000081525060200191505060405180910390fd5b600082600281106114ec57fe5b01543411611562576040517f08c379a000000000000000000000000000000000000000000000000000000000815260040180806020018281038252600a8152602001807f4e6f7420656e6f7567680000000000000000000000000000000000000000000081525060200191505060405180910390fd5b6000600260009054906101000a900473ffffffffffffffffffffffffffffffffffffffff1673ffffffffffffffffffffffffffffffffffffffff16636352211e846040518263ffffffff1660e01b81526004018082815260200191505060206040518083038186803b1580156115d757600080fd5b505afa1580156115eb573d6000803e3d6000fd5b505050506040513d602081101561160157600080fd5b8101908080519060200190929190505050905060018081111561162057fe5b6012846002811061162d57fe5b602091828204019190069054906101000a900460ff16600181111561164e57fe5b14156116f457600080846002811061166257fe5b0154905060006008856002811061167557fe5b015411156116a15761169e6008856002811061168d57fe5b0154826119a690919063ffffffff16565b90505b60008290508073ffffffffffffffffffffffffffffffffffffffff166108fc839081150290604051600060405180830381858888f193505050501580156116ec573d6000803e3d6000fd5b505050611781565b6000600181111561170157fe5b6012846002811061170e57fe5b602091828204019190069054906101000a900460ff16600181111561172f57fe5b14156117805760016012846002811061174457fe5b602091828204019190066101000a81548160ff0219169083600181111561176757fe5b0217905550426006846002811061177a57fe5b01819055505b5b6117a26000846002811061179157fe5b01543461192690919063ffffffff16565b600884600281106117af57fe5b01819055506117c081338686611c39565b833373ffffffffffffffffffffffffffffffffffffffff167f4f79409f494e81c38036d80aa8a6507c2cb08d90bfb2fead5519447646b3497e60405160405180910390a350505050565b60008061185a6301e1338061184c60115461183e6010546000896002811061182e57fe5b015461194690919063ffffffff16565b61198090919063ffffffff16565b61198090919063ffffffff16565b9050611877816118698561093a565b61198090919063ffffffff16565b4201915050919050565b60035481565b60006119086301e133806118fa6011546118ec6010546118de6118c160068a600281106118b057fe5b01544261192690919063ffffffff16565b60008a600281106118ce57fe5b015461194690919063ffffffff16565b61194690919063ffffffff16565b61198090919063ffffffff16565b61198090919063ffffffff16565b9050919050565b600080826002811061191d57fe5b01549050919050565b60008282111561193557600080fd5b600082840390508091505092915050565b600080831415611959576000905061197a565b600082840290508284828161196a57fe5b041461197557600080fd5b809150505b92915050565b600080821161198e57600080fd5b600082848161199957fe5b0490508091505092915050565b6000808284019050838110156119bb57600080fd5b8091505092915050565b6000600260009054906101000a900473ffffffffffffffffffffffffffffffffffffffff1673ffffffffffffffffffffffffffffffffffffffff16636352211e836040518263ffffffff1660e01b81526004018082815260200191505060206040518083038186803b158015611a3a57600080fd5b505afa158015611a4e573d6000803e3d6000fd5b505050506040513d6020811015611a6457600080fd5b81019080805190602001909291905050509050611a848130600085611c39565b600060128360028110611a9357fe5b602091828204019190066101000a81548160ff02191690836001811115611ab657fe5b0217905550600060048360028110611aca57fe5b01819055508073ffffffffffffffffffffffffffffffffffffffff167f6d6bbefef62d4cb6d0e3a4dd306a71d3632319b1e03659513df86b247dd657fe60405160405180910390a25050565b8160088260028110611b2457fe5b01541015611b9a576040517f08c379a00000000000000000000000000000000000000000000000000000000081526004018080602001828103825260148152602001807f5769746864726177696e6720746f6f206d75636800000000000000000000000081525060200191505060405180910390fd5b611bbb8260088360028110611bab57fe5b015461192690919063ffffffff16565b60088260028110611bc857fe5b01819055503373ffffffffffffffffffffffffffffffffffffffff166108fc839081150290604051600060405180830381858888f19350505050158015611c13573d6000803e3d6000fd5b50600060088260028110611c2357fe5b01541415611c3557611c34816119c5565b5b5050565b611cca611c6b600e8360028110611c4c57fe5b015460068460028110611c5b57fe5b015461192690919063ffffffff16565b600d600084815260200190815260200160002060008773ffffffffffffffffffffffffffffffffffffffff1673ffffffffffffffffffffffffffffffffffffffff168152602001908152602001600020546119a690919063ffffffff16565b600d600083815260200190815260200160002060008673ffffffffffffffffffffffffffffffffffffffff1673ffffffffffffffffffffffffffffffffffffffff16815260200190815260200160002081905550600260009054906101000a900473ffffffffffffffffffffffffffffffffffffffff1673ffffffffffffffffffffffffffffffffffffffff166323b872dd8585846040518463ffffffff1660e01b8152600401808473ffffffffffffffffffffffffffffffffffffffff1673ffffffffffffffffffffffffffffffffffffffff1681526020018373ffffffffffffffffffffffffffffffffffffffff1673ffffffffffffffffffffffffffffffffffffffff1681526020018281526020019350505050600060405180830381600087803b158015611dfb57600080fd5b505af1158015611e0f573d6000803e3d6000fd5b505050508160008260028110611e2157fe5b018190555042600e8260028110611e3457fe5b01819055506001600c600083815260200190815260200160002060008573ffffffffffffffffffffffffffffffffffffffff1673ffffffffffffffffffffffffffffffffffffffff16815260200190815260200160002060006101000a81548160ff0219169083151502179055505050505056fea165627a7a7230582056a795d03ad1abc896456cf8a3faa6b12de36e4ea182653d448521c795f150b20029",
  "source": "pragma solidity ^0.5.0;\nimport \"./interfaces/IERC721Full.sol\";\nimport \"./utils/SafeMath.sol\";\n\n\ncontract Harber {\n    \n    using SafeMath for uint256;\n    \n\n    uint256 constant numberOfOutcomes = 2; //TEST with two teams\n    uint256[numberOfOutcomes] public price; //in wei\n    // uint[numberOfOutcomes] balance;\n    IERC721Full public team; // ERC721 NFT.\n    \n    uint256 public totalCollected; // total into my whiskey fund\n    uint256[numberOfOutcomes] public currentCollected; // amount currently collected for owner  \n    uint256[numberOfOutcomes] public timeLastCollected; // \n    uint256[numberOfOutcomes] public deposit;\n    address payable public andrewsAddress;\n    uint256 public augurFund;\n    \n    mapping (uint256 => mapping (address => bool) ) public owners;\n    mapping (uint256 => mapping (address => uint256) ) public timeHeld;\n\n    uint256[numberOfOutcomes] public timeAcquired;\n    \n    // 5% patronage\n    uint256 patronageNumerator = 50000000000;\n    uint256 patronageDenominator = 1000000000000;\n\n    enum ownedState { Foreclosed, Owned }\n    ownedState[numberOfOutcomes] public state;\n\n    constructor(address payable _andrewsAddress, address _addressOfToken) public {\n        team = IERC721Full(_addressOfToken);\n        team.setup();\n        andrewsAddress = _andrewsAddress;\n        state[0] = ownedState.Foreclosed;\n        state[1] = ownedState.Foreclosed;\n    } \n\n    event LogBuy(address indexed owner, uint256 indexed price);\n    event LogPriceChange(uint256 indexed newPrice);\n    event LogForeclosure(address indexed prevOwner);\n    event LogCollection(uint256 indexed collected);\n    \n    modifier onlyOwner(uint256 _tokenId) {\n        require(msg.sender == team.ownerOf(_tokenId), \"Not owner\");\n        _;\n    }\n\n    modifier collectAugurFunds(uint256 _tokenId) {\n       _collectAugurFunds(_tokenId); \n       _;\n    }\n\n    /* public view functions */\n    // function getTimeHeld(uint256 _tokenId, address _adress) public view returns (uint256)\n    // {\n    //     return timeHeld[_tokenId][_address];\n    // }\n\n    function getPrice(uint256 _tokenId) public view returns (uint256)\n    {\n        return price[_tokenId];\n    }\n    function augurFundsOwed(uint256 _tokenId) public view returns (uint256 augurFundsDue) {\n        return price[_tokenId].mul(now.sub(timeLastCollected[_tokenId])).mul(patronageNumerator)\n            .div(patronageDenominator).div(365 days);\n    }\n\n    function augurFundsOwedWithTimestamp(uint256 _tokenId) public view returns (uint256 augurFundsDue, uint256 timestamp) {\n        return (augurFundsOwed(_tokenId), now);\n    }\n\n    function foreclosed(uint256 _tokenId) public view returns (bool) {\n        // returns whether it is in foreclosed state or not\n        // depending on whether deposit covers patronage due\n        // useful helper function when price should be zero, but contract doesn't reflect it yet.\n        uint256 _collection = augurFundsOwed(_tokenId);\n        if(_collection >= deposit[_tokenId]) {\n            return true;\n        } else {\n            return false;\n        }\n    }\n\n    // same function as above, basically\n    function depositAbleToWithdraw(uint256 _tokenId) public view returns (uint256) {\n        uint256 _collection = augurFundsOwed(_tokenId);\n        if(_collection >= deposit[_tokenId]) {\n            return 0;\n        } else {\n            return deposit[_tokenId].sub(_collection);\n        }\n    }\n\n    /*\n    now + deposit/patronage per second \n    now + depositAbleToWithdraw/(price*nume/denom/365).\n    */\n    function foreclosureTime(uint256 _tokenId) public view returns (uint256) {\n        // patronage per second\n        uint256 pps = price[_tokenId].mul(patronageNumerator).div(patronageDenominator).div(365 days);\n        return now + depositAbleToWithdraw(_tokenId).div(pps); // zero division if price is zero.\n    }\n\n    /* actions */\n    function _collectAugurFunds(uint256 _tokenId) public {\n        // determine patronage to pay\n        if (state[_tokenId] == ownedState.Owned) {\n            uint256 _collection = augurFundsOwed(_tokenId);\n            \n            // should foreclose and stake stewardship\n            if (_collection >= deposit[_tokenId]) {\n                // up to when was it actually paid for?\n                timeLastCollected[_tokenId] = timeLastCollected[_tokenId].add(((now.sub(timeLastCollected[_tokenId])).mul(deposit[_tokenId]).div(_collection)));\n                _collection = deposit[_tokenId]; // take what's left.\n\n                _foreclose(_tokenId);\n            } else  {\n                // just a normal collection\n                timeLastCollected[_tokenId] = now;\n                currentCollected[_tokenId] = currentCollected[_tokenId].add(_collection);\n            }\n            \n            deposit[_tokenId] = deposit[_tokenId].sub(_collection);\n            totalCollected = totalCollected.add(_collection);\n            augurFund = augurFund.add(_collection);\n            emit LogCollection(_collection);\n        }\n    }\n    \n    // note: anyone can deposit\n    function depositWei(uint256 _tokenId) public payable collectAugurFunds(_tokenId) {\n        require(state[_tokenId] != ownedState.Foreclosed, \"Foreclosed\");\n        deposit[_tokenId] = deposit[_tokenId].add(msg.value);\n    }\n    \n    //this function will need heavy modificaiton. the user will not actually need to pay whatever the price is\n    function buy(uint256 _newPrice, uint256 _tokenId) public payable collectAugurFunds(_tokenId) {\n        require(_newPrice > 0, \"Price is zero\");\n        require(msg.value > price[_tokenId], \"Not enough\"); // >, coz need to have at least something for deposit\n        address _currentOwner = team.ownerOf(_tokenId);\n\n        if (state[_tokenId] == ownedState.Owned) {\n            uint256 _totalToPayBack = price[_tokenId];\n            if(deposit[_tokenId] > 0) {\n                _totalToPayBack = _totalToPayBack.add(deposit[_tokenId]);\n            }  \n    \n            // pay previous owner their price + deposit back.\n            address payable _payableCurrentOwner = address(uint160(_currentOwner));\n            _payableCurrentOwner.transfer(_totalToPayBack);\n        } else if(state[_tokenId] == ownedState.Foreclosed) {\n            state[_tokenId] = ownedState.Owned;\n            timeLastCollected[_tokenId] = now;\n        }\n        \n        deposit[_tokenId] = msg.value.sub(price[_tokenId]);\n        transferTokenTo(_currentOwner, msg.sender, _newPrice, _tokenId);\n        emit LogBuy(msg.sender, _newPrice);\n    }\n\n    function changePrice(uint256 _newPrice, uint256 _tokenId) public onlyOwner(_tokenId) collectAugurFunds(_tokenId) {\n        require(state[_tokenId] != ownedState.Foreclosed, \"Foreclosed\");\n        require(_newPrice != 0, \"Incorrect Price\");\n        \n        price[_tokenId] = _newPrice;\n        emit LogPriceChange(price[_tokenId]);\n    }\n    \n    function withdrawDeposit(uint256 _wei, uint256 _tokenId) public onlyOwner(_tokenId) collectAugurFunds(_tokenId) returns (uint256) {\n        _withdrawDeposit(_wei, _tokenId);\n    }\n\n    function withdrawAugurFunds() public {\n        require(msg.sender == andrewsAddress, \"Not andrew\");\n        andrewsAddress.transfer(augurFund);\n        augurFund = 0;\n    }\n\n    function exit(uint256 _tokenId) public onlyOwner(_tokenId) collectAugurFunds(_tokenId) {\n        _withdrawDeposit(deposit[_tokenId],  _tokenId);\n    }\n\n    /* internal */\n\n    function _withdrawDeposit(uint256 _wei, uint256 _tokenId) internal {\n        // note: can withdraw whole deposit, which puts it in immediate to be foreclosed state.\n        require(deposit[_tokenId] >= _wei, 'Withdrawing too much');\n\n        deposit[_tokenId] = deposit[_tokenId].sub(_wei);\n        msg.sender.transfer(_wei); // msg.sender == patron\n\n        if(deposit[_tokenId] == 0) {\n            _foreclose(_tokenId);\n        }\n    }\n\n    function _foreclose(uint256 _tokenId) internal {\n        // become steward of artwork (aka foreclose)\n        address _currentOwner = team.ownerOf(_tokenId);\n        //final field is price, ie price goes to zero\n        transferTokenTo(_currentOwner, address(this), 0, _tokenId);\n        state[_tokenId] = ownedState.Foreclosed;\n        currentCollected[_tokenId] = 0;\n\n        emit LogForeclosure(_currentOwner);\n    }\n\n    function transferTokenTo(address _currentOwner, address _newOwner, uint256 _newPrice, uint256 _tokenId) internal {\n        // note: it would also tabulate time held in stewardship by smart contract\n        timeHeld[_tokenId][_currentOwner] = timeHeld[_tokenId][_currentOwner].add((timeLastCollected[_tokenId].sub(timeAcquired[_tokenId])));\n        \n        team.transferFrom(_currentOwner, _newOwner, _tokenId);\n\n        price[_tokenId] = _newPrice;\n        timeAcquired[_tokenId] = now;\n        owners[_tokenId][_newOwner] = true;\n    }\n}",
  "sourcePath": "/Users/mcplums/Repos/Harber/contracts/Harber.sol",
  "compiler": {
    "name": "solc",
    "version": "0.5.8+commit.23d335f2.Emscripten.clang"
  },
  "schemaVersion": "3.0.17",
  "updatedAt": "2019-11-29T04:16:24.408Z",
  "networkType": "ethereum",
  "devdoc": {
    "methods": {}
  },
  "userdoc": {
    "methods": {}
  }
}