{
  "contractName": "MarketMockup",
  "abi": [
    {
      "constant": false,
      "inputs": [
        {
          "internalType": "uint256",
          "name": "_result",
          "type": "uint256"
        }
      ],
      "name": "setResult",
      "outputs": [],
      "payable": false,
      "stateMutability": "nonpayable",
      "type": "function"
    },
    {
      "constant": true,
      "inputs": [
        {
          "internalType": "uint256",
          "name": "_outcome",
          "type": "uint256"
        }
      ],
      "name": "getWinningPayoutNumerator",
      "outputs": [
        {
          "internalType": "uint256",
          "name": "",
          "type": "uint256"
        }
      ],
      "payable": false,
      "stateMutability": "view",
      "type": "function"
    }
  ],
  "bytecode": "0x6080604052604560005534801561001557600080fd5b5060fd806100246000396000f3fe6080604052348015600f57600080fd5b506004361060325760003560e01c80633c264820146037578063812448a5146076575b600080fd5b606060048036036020811015604b57600080fd5b810190808035906020019092919050505060a1565b6040518082815260200191505060405180910390f35b609f60048036036020811015608a57600080fd5b810190808035906020019092919050505060be565b005b600081600054141560b4576001905060b9565b600090505b919050565b806000819055505056fea265627a7a723158207384ba390b0c8368ad6a9dabd9ee5bea492746c76c5dd53fe1018dcc4c46e77664736f6c634300050d0032",
  "source": "pragma solidity 0.5.13;\n\n// this is only for ganache testing. Public chain deployments will use the existing markets. \n\ncontract MarketMockup\n{\n    // 69 = unresolved, 0 = invalid, 1 = win, 2 = loss\n    uint result = 69;\n\n    function setResult(uint _result) public\n    {\n        result = _result;\n    }\n\n    function getWinningPayoutNumerator(uint256 _outcome) external view returns (uint256) \n    {\n        if (result == _outcome)\n        {\n            return 1;\n        }\n        else \n        {\n            return 0;\n        }\n    }\n}\n",
  "sourcePath": "/Users/mcplums/Repos/Harber/contracts/mockups/MarketMockup.sol",
  "compiler": {
    "name": "solc",
    "version": "0.5.13+commit.5b0b510c.Emscripten.clang"
  },
  "schemaVersion": "3.0.19",
  "updatedAt": "2020-02-21T11:05:06.626Z",
  "networkType": "ethereum",
  "devdoc": {
    "methods": {}
  },
  "userdoc": {
    "methods": {}
  }
}