{
  "contractName": "mintNFTs",
  "abi": [
    {
      "inputs": [
        {
          "internalType": "address",
          "name": "_addressOfToken",
          "type": "address"
        },
        {
          "internalType": "address",
          "name": "_harberContractAddress",
          "type": "address"
        }
      ],
      "payable": false,
      "stateMutability": "nonpayable",
      "type": "constructor"
    },
    {
      "constant": true,
      "inputs": [],
      "name": "team",
      "outputs": [
        {
          "internalType": "contract IERC721Full",
          "name": "",
          "type": "address"
        }
      ],
      "payable": false,
      "stateMutability": "view",
      "type": "function"
    }
  ],
  "bytecode": "0x608060405234801561001057600080fd5b506040516102253803806102258339818101604052604081101561003357600080fd5b810190808051906020019092919080519060200190929190505050816000806101000a81548173ffffffffffffffffffffffffffffffffffffffff021916908373ffffffffffffffffffffffffffffffffffffffff1602179055506000809054906101000a900473ffffffffffffffffffffffffffffffffffffffff1673ffffffffffffffffffffffffffffffffffffffff166366d38203826040518263ffffffff1660e01b8152600401808273ffffffffffffffffffffffffffffffffffffffff1673ffffffffffffffffffffffffffffffffffffffff168152602001915050600060405180830381600087803b15801561012e57600080fd5b505af1158015610142573d6000803e3d6000fd5b50505050505060cf806101566000396000f3fe6080604052348015600f57600080fd5b506004361060285760003560e01c806385f2aef214602d575b600080fd5b60336075565b604051808273ffffffffffffffffffffffffffffffffffffffff1673ffffffffffffffffffffffffffffffffffffffff16815260200191505060405180910390f35b6000809054906101000a900473ffffffffffffffffffffffffffffffffffffffff168156fea265627a7a72315820253c835f170fb8e11fef205d3766c0b72a4d787a74707f0c7aeebeefe141b8e364736f6c634300050d0032",
  "source": "pragma solidity 0.5.13;\nimport \"./interfaces/IERC721Full.sol\";\n\n//this is done in a seperate contract. Originally it was within Harber.sol, but \n//deployment used over 10m gas so I had to seperate it. \ncontract mintNFTs {\n\n    // CONTRACT VARIABLES\n    IERC721Full public team; // ERC721 NFT.\n\n    constructor(address _addressOfToken, address _harberContractAddress) public {\n        //initialise ERC721s\n        team = IERC721Full(_addressOfToken);\n\n        //mint the NFTs and pass the Harber contract address so the contract is set as the original owner\n        team.setup(_harberContractAddress);\n    }\n}\n",
  "sourcePath": "/Users/mcplums/Repos/Harber/contracts/mintNFTs.sol",
  "compiler": {
    "name": "solc",
    "version": "0.5.13+commit.5b0b510c.Emscripten.clang"
  },
  "schemaVersion": "3.0.19",
  "updatedAt": "2020-01-28T09:21:02.553Z",
  "devdoc": {
    "methods": {}
  },
  "userdoc": {
    "methods": {}
  }
}