{
  "contractName": "OICashMockup",
  "abi": [
    {
      "inputs": [
        {
          "internalType": "address",
          "name": "_addressOfCashContract",
          "type": "address"
        }
      ],
      "payable": false,
      "stateMutability": "nonpayable",
      "type": "constructor"
    },
    {
      "constant": true,
      "inputs": [],
      "name": "cash",
      "outputs": [
        {
          "internalType": "contract Cash",
          "name": "",
          "type": "address"
        }
      ],
      "payable": false,
      "stateMutability": "view",
      "type": "function"
    },
    {
      "constant": false,
      "inputs": [
        {
          "internalType": "uint256",
          "name": "_amount",
          "type": "uint256"
        }
      ],
      "name": "deposit",
      "outputs": [
        {
          "internalType": "bool",
          "name": "",
          "type": "bool"
        }
      ],
      "payable": false,
      "stateMutability": "nonpayable",
      "type": "function"
    },
    {
      "constant": false,
      "inputs": [
        {
          "internalType": "uint256",
          "name": "_amount",
          "type": "uint256"
        }
      ],
      "name": "withdraw",
      "outputs": [
        {
          "internalType": "bool",
          "name": "",
          "type": "bool"
        }
      ],
      "payable": false,
      "stateMutability": "nonpayable",
      "type": "function"
    }
  ],
  "bytecode": "0x608060405234801561001057600080fd5b506040516104503803806104508339818101604052602081101561003357600080fd5b8101908080519060200190929190505050806000806101000a81548173ffffffffffffffffffffffffffffffffffffffff021916908373ffffffffffffffffffffffffffffffffffffffff160217905550506103bc806100946000396000f3fe608060405234801561001057600080fd5b50600436106100415760003560e01c80632e1a7d4d14610046578063961be3911461008c578063b6b55f25146100d6575b600080fd5b6100726004803603602081101561005c57600080fd5b810190808035906020019092919050505061011c565b604051808215151515815260200191505060405180910390f35b61009461023f565b604051808273ffffffffffffffffffffffffffffffffffffffff1673ffffffffffffffffffffffffffffffffffffffff16815260200191505060405180910390f35b610102600480360360208110156100ec57600080fd5b8101908080359060200190929190505050610264565b604051808215151515815260200191505060405180910390f35b60008060009054906101000a900473ffffffffffffffffffffffffffffffffffffffff1673ffffffffffffffffffffffffffffffffffffffff16633d5f28c83033856040518463ffffffff1660e01b8152600401808473ffffffffffffffffffffffffffffffffffffffff1673ffffffffffffffffffffffffffffffffffffffff1681526020018373ffffffffffffffffffffffffffffffffffffffff1673ffffffffffffffffffffffffffffffffffffffff1681526020018281526020019350505050602060405180830381600087803b1580156101fa57600080fd5b505af115801561020e573d6000803e3d6000fd5b505050506040513d602081101561022457600080fd5b81019080805190602001909291905050505060019050919050565b6000809054906101000a900473ffffffffffffffffffffffffffffffffffffffff1681565b60008060009054906101000a900473ffffffffffffffffffffffffffffffffffffffff1673ffffffffffffffffffffffffffffffffffffffff16633d5f28c83330856040518463ffffffff1660e01b8152600401808473ffffffffffffffffffffffffffffffffffffffff1673ffffffffffffffffffffffffffffffffffffffff1681526020018373ffffffffffffffffffffffffffffffffffffffff1673ffffffffffffffffffffffffffffffffffffffff1681526020018281526020019350505050602060405180830381600087803b15801561034257600080fd5b505af1158015610356573d6000803e3d6000fd5b505050506040513d602081101561036c57600080fd5b8101908080519060200190929190505050506001905091905056fea265627a7a72315820680277284e1b94693c83d4ab458d7a776b68ff848cf208c0d8d2ea02280edb9a64736f6c634300050d0032",
  "source": "pragma solidity 0.5.13;\n\nimport \"./../utils/SafeMath.sol\";\n\n// this is only for ganache testing. Public chain deployments will use the existing Augur contract. \n\ninterface Cash \n{\n    function approve(address _spender, uint256 _amount) external returns (bool);\n    function balanceOf(address _ownesr) external view returns (uint256);\n    function faucet(uint256 _amount) external;\n    function transfer(address _to, uint256 _amount) external returns (bool);\n    function transferFrom(address _from, address _to, uint256 _amount) external returns (bool);\n    function transferFromNoApproval(address _from, address _to, uint256 _amount) external returns (bool);\n}\n\ninterface IMarket \n{\n    function getWinningPayoutNumerator(uint256 _outcome) external view returns (uint256);\n}\n\ncontract OICashMockup\n\n{\n    using SafeMath for uint256;\n    Cash public cash;\n\n    constructor(address _addressOfCashContract) public \n    {\n        cash = Cash(_addressOfCashContract);\n    }\n\n    function deposit(uint256 _amount) external returns (bool)\n    { \n        cash.transferFromNoApproval(msg.sender, address(this), _amount);\n        return true;\n    }\n\n    function withdraw(uint256 _amount) external returns (bool)\n    { \n        cash.transferFromNoApproval(address(this), msg.sender, _amount);\n        return true;\n    }\n\n\n}",
  "sourcePath": "/Users/mcplums/Repos/Harber/contracts/mockups/OICashMockup.sol",
  "compiler": {
    "name": "solc",
    "version": "0.5.13+commit.5b0b510c.Emscripten.clang"
  },
  "schemaVersion": "3.0.19",
  "updatedAt": "2020-03-21T12:29:45.045Z",
  "networkType": "ethereum",
  "devdoc": {
    "methods": {}
  },
  "userdoc": {
    "methods": {}
  }
}