{
  "contractName": "OracleExampleAugur1",
  "abi": [
    {
      "constant": true,
      "inputs": [],
      "name": "market",
      "outputs": [
        {
          "internalType": "contract IMarket",
          "name": "",
          "type": "address"
        }
      ],
      "payable": false,
      "stateMutability": "view",
      "type": "function"
    },
    {
      "constant": true,
      "inputs": [],
      "name": "getWinnerFromAugurBinaryMarket",
      "outputs": [],
      "payable": false,
      "stateMutability": "view",
      "type": "function"
    }
  ],
  "bytecode": "0x6080604052600080546001600160a01b0319167334a971ca2fd6da2ce2969d716df922f17aaa1db017905534801561003657600080fd5b50610232806100466000396000f3fe608060405234801561001057600080fd5b50600436106100365760003560e01c806380f556051461003b5780638a2c74931461005f575b600080fd5b610043610069565b604080516001600160a01b039092168252519081900360200190f35b610067610078565b005b6000546001600160a01b031681565b60008054604080516301e1324160e51b81526004810184905290516001600160a01b0390921691633c26482091602480820192602092909190829003018186803b1580156100c557600080fd5b505afa1580156100d9573d6000803e3d6000fd5b505050506040513d60208110156100ef57600080fd5b505111156100fc576101fb565b60008054604080516301e1324160e51b81526001600482015290516001600160a01b0390921691633c26482091602480820192602092909190829003018186803b15801561014957600080fd5b505afa15801561015d573d6000803e3d6000fd5b505050506040513d602081101561017357600080fd5b50511115610180576101fb565b60008054604080516301e1324160e51b81526002600482015290516001600160a01b0390921691633c26482091602480820192602092909190829003018186803b1580156101cd57600080fd5b505afa1580156101e1573d6000803e3d6000fd5b505050506040513d60208110156101f757600080fd5b5050505b56fea265627a7a723158209c4a89a22a3efa166fcbf0c31255fa5f9adddbc1c2e7c9626b1265659f3d6cf764736f6c634300050d0032",
  "source": "pragma solidity ^0.5.0;\n\ninterface IMarket \n{\n    function getWinningPayoutNumerator(uint256 _outcome) external view returns (uint256);\n}\n\ncontract OracleExampleAugur1 {\n\n    // replace with the market's address\n    IMarket public market = IMarket(0x34A971cA2fd6DA2Ce2969D716dF922F17aAA1dB0); \n\n    function getWinnerFromAugurBinaryMarket() public view {\n        if (market.getWinningPayoutNumerator(0) > 0) {\n            // insert logic for Invalid outcome\n        } else if (market.getWinningPayoutNumerator(1) > 0)  {\n            // insert logic for Yes outcome\n        } else if (market.getWinningPayoutNumerator(2) > 0) {\n            // insert logic for No outcome\n        } else {\n            // insert logic for market not yet settled\n        }\n    }\n}\n\ninterface OICash\n{\n    function deposit(uint256 _amount) external returns (bool);\n    function withdraw(uint256 _amount) external returns (bool);\n}\n\ncontract OracleExampleAugur2 {\n\n    // replace with the current contract address\n    OICash public oicash = OICash(0xbD41281dE5E4cA62602ed7c134f46d831A340B78);\n\n    function augurDeposit(uint256 _amount) public {\n        require(oicash.deposit(_amount), \"Augur deposit failed\");\n    }\n\n    function augurWithdraw(uint256 _amount) public {\n        require(oicash.withdraw(_amount), \"Augur withdraw failed\");\n    }\n}",
  "sourcePath": "/Users/mcplums/Repos/Harber/contracts/mediumpost.sol",
  "compiler": {
    "name": "solc",
    "version": "0.5.13+commit.5b0b510c.Emscripten.clang"
  },
  "schemaVersion": "3.1.0",
  "updatedAt": "2020-05-06T10:59:59.608Z",
  "devdoc": {
    "methods": {}
  },
  "userdoc": {
    "methods": {}
  }
}