{
  "contractName": "RealitioMockup",
  "abi": [
    {
      "inputs": [
        {
          "internalType": "uint256",
          "name": "_result",
          "type": "uint256"
        }
      ],
      "name": "setResult",
      "outputs": [],
      "stateMutability": "nonpayable",
      "type": "function"
    },
    {
      "inputs": [
        {
          "internalType": "uint256",
          "name": "template_id",
          "type": "uint256"
        },
        {
          "internalType": "string",
          "name": "question",
          "type": "string"
        },
        {
          "internalType": "address",
          "name": "arbitrator",
          "type": "address"
        },
        {
          "internalType": "uint32",
          "name": "timeout",
          "type": "uint32"
        },
        {
          "internalType": "uint32",
          "name": "opening_ts",
          "type": "uint32"
        },
        {
          "internalType": "uint256",
          "name": "nonce",
          "type": "uint256"
        }
      ],
      "name": "askQuestion",
      "outputs": [
        {
          "internalType": "bytes32",
          "name": "",
          "type": "bytes32"
        }
      ],
      "stateMutability": "payable",
      "type": "function"
    },
    {
      "inputs": [
        {
          "internalType": "bytes32",
          "name": "question_id",
          "type": "bytes32"
        }
      ],
      "name": "resultFor",
      "outputs": [
        {
          "internalType": "bytes32",
          "name": "",
          "type": "bytes32"
        }
      ],
      "stateMutability": "view",
      "type": "function"
    },
    {
      "inputs": [
        {
          "internalType": "bytes32",
          "name": "question_id",
          "type": "bytes32"
        }
      ],
      "name": "isFinalized",
      "outputs": [
        {
          "internalType": "bool",
          "name": "",
          "type": "bool"
        }
      ],
      "stateMutability": "view",
      "type": "function"
    }
  ],
  "bytecode": "0x60806040526101a460005534801561001657600080fd5b5061027e806100266000396000f3fe60806040526004361061003f5760003560e01c8063762c38fd146100445780637f8d429e146100f0578063812448a51461012e578063d09cc57e1461015a575b600080fd5b6100de600480360360c081101561005a57600080fd5b81359190810190604081016020820135600160201b81111561007b57600080fd5b82018360208201111561008d57600080fd5b803590602001918460018302840111600160201b831117156100ae57600080fd5b91935091506001600160a01b038135169063ffffffff602082013581169160408101359091169060600135610184565b60408051918252519081900360200190f35b3480156100fc57600080fd5b5061011a6004803603602081101561011357600080fd5b503561019e565b604080519115158252519081900360200190f35b34801561013a57600080fd5b506101586004803603602081101561015157600080fd5b50356101d7565b005b34801561016657600080fd5b506100de6004803603602081101561017d57600080fd5b50356101f4565b600080516020610229833981519152979650505050505050565b600060008051602061022983398151915282146101ba57600080fd5b6000546101a414156101ce575060006101d2565b5060015b919050565b80604514156101eb576000196000556101f1565b60008190555b50565b600080546101a4141561020657600080fd5b600080516020610229833981519152821461022057600080fd5b50506000549056fe8d293509129e26299990826db10c48241be5f59f2e4f61c0c9d550e4451e1a38a264697066735822122069322502ae664eed5dc83fd7485247da0087c5bf6931106cf3b87a3b429859ba64736f6c63430006060033",
  "immutableReferences": {},
  "source": "pragma solidity 0.6.6;\n\n// this is only for ganache testing. Public chain deployments will use the existing Realitio contracts. \n\ncontract RealitioMockup\n\n{\n    uint result = 420;\n\n    function setResult(uint _result) public\n    {\n        if (_result == 69) {\n            result = ((2**256)-1);\n        } else {\n            result = _result;\n        }\n    }\n\n    function askQuestion(uint256 template_id, string calldata question, address arbitrator, uint32 timeout, uint32 opening_ts, uint256 nonce) external payable returns (bytes32) {\n        // to get rid of compiler warnings:\n        template_id;\n        nonce;\n        question;\n        arbitrator;\n        timeout;\n        opening_ts;\n        return 0x8d293509129e26299990826db10c48241be5f59f2e4f61c0c9d550e4451e1a38;\n    }\n\n    // 420 = not resolved\n    // 69 = invalid\n    function resultFor(bytes32 question_id) external view returns (bytes32) {\n        require(result != 420);\n        require(question_id == 0x8d293509129e26299990826db10c48241be5f59f2e4f61c0c9d550e4451e1a38);\n        return bytes32(result);\n    }\n\n    function isFinalized(bytes32 question_id) external view returns (bool) {\n        require(question_id == 0x8d293509129e26299990826db10c48241be5f59f2e4f61c0c9d550e4451e1a38);\n        if (result == 420) {\n            return false;\n        } else {\n            return true;\n        }\n\n    } \n\n}\n\n",
  "sourcePath": "/Users/mcplums/Repos/Harber/contracts/mockups/RealitioMockup.sol",
  "compiler": {
    "name": "solc",
    "version": "0.6.6+commit.6c089d02.Emscripten.clang"
  },
  "schemaVersion": "3.1.0",
  "updatedAt": "2020-05-07T08:07:52.120Z",
  "devdoc": {
    "methods": {}
  },
  "userdoc": {
    "methods": {}
  }
}