{
  "contractName": "RealitioMockup",
  "abi": [
    {
      "constant": false,
      "inputs": [
        {
          "internalType": "uint256",
          "name": "_result",
          "type": "uint256"
        }
      ],
      "name": "setResult",
      "outputs": [],
      "payable": false,
      "stateMutability": "nonpayable",
      "type": "function"
    },
    {
      "constant": false,
      "inputs": [
        {
          "internalType": "uint256",
          "name": "template_id",
          "type": "uint256"
        },
        {
          "internalType": "string",
          "name": "question",
          "type": "string"
        },
        {
          "internalType": "address",
          "name": "arbitrator",
          "type": "address"
        },
        {
          "internalType": "uint32",
          "name": "timeout",
          "type": "uint32"
        },
        {
          "internalType": "uint32",
          "name": "opening_ts",
          "type": "uint32"
        },
        {
          "internalType": "uint256",
          "name": "nonce",
          "type": "uint256"
        }
      ],
      "name": "askQuestion",
      "outputs": [
        {
          "internalType": "bytes32",
          "name": "",
          "type": "bytes32"
        }
      ],
      "payable": true,
      "stateMutability": "payable",
      "type": "function"
    },
    {
      "constant": true,
      "inputs": [
        {
          "internalType": "bytes32",
          "name": "question_id",
          "type": "bytes32"
        }
      ],
      "name": "resultFor",
      "outputs": [
        {
          "internalType": "bytes32",
          "name": "",
          "type": "bytes32"
        }
      ],
      "payable": false,
      "stateMutability": "view",
      "type": "function"
    },
    {
      "constant": true,
      "inputs": [
        {
          "internalType": "bytes32",
          "name": "question_id",
          "type": "bytes32"
        }
      ],
      "name": "isFinalized",
      "outputs": [
        {
          "internalType": "bool",
          "name": "",
          "type": "bool"
        }
      ],
      "payable": false,
      "stateMutability": "view",
      "type": "function"
    }
  ],
  "bytecode": "0x60806040526101a460005534801561001657600080fd5b50610389806100266000396000f3fe60806040526004361061003f5760003560e01c8063762c38fd146100445780637f8d429e146100f2578063812448a514610130578063d09cc57e1461015c575b600080fd5b6100e0600480360360c081101561005a57600080fd5b8135919081019060408101602082013564010000000081111561007c57600080fd5b82018360208201111561008e57600080fd5b803590602001918460018302840111640100000000831117156100b057600080fd5b91935091506001600160a01b038135169063ffffffff602082013581169160408101359091169060600135610186565b60408051918252519081900360200190f35b3480156100fe57600080fd5b5061011c6004803603602081101561011557600080fd5b503561020b565b604080519115158252519081900360200190f35b34801561013c57600080fd5b5061015a6004803603602081101561015357600080fd5b5035610256565b005b34801561016857600080fd5b506100e06004803603602081101561017f57600080fd5b5035610273565b60018190556000610199600288886102b9565b50506003805463ffffffff848116600160a01b9081029187160263ffffffff60a01b196001600160a01b0389166001600160a01b0319909416939093178316179091161790557f8d293509129e26299990826db10c48241be5f59f2e4f61c0c9d550e4451e1a38979650505050505050565b60007f8d293509129e26299990826db10c48241be5f59f2e4f61c0c9d550e4451e1a38821461023957600080fd5b6000546101a4141561024d57506000610251565b5060015b919050565b806045141561026a57600019600055610270565b60008190555b50565b600080546101a4141561028557600080fd5b7f8d293509129e26299990826db10c48241be5f59f2e4f61c0c9d550e4451e1a3882146102b157600080fd5b505060005490565b828054600181600116156101000203166002900490600052602060002090601f016020900481019282601f106102fa5782800160ff19823516178555610327565b82800160010185558215610327579182015b8281111561032757823582559160200191906001019061030c565b50610333929150610337565b5090565b61035191905b80821115610333576000815560010161033d565b9056fea265627a7a723158201534fd04638bcd740cd312ec6ef32ace04c6b13b88674f8a3843f4d25c00490d64736f6c634300050d0032",
  "source": "pragma solidity 0.5.13;\n\n// this is only for ganache testing. Public chain deployments will use the existing Realitio contracts. \n\ncontract RealitioMockup\n\n{\n    uint result = 420;\n    uint stfu;\n    string gtfo;\n    address reported;\n    uint32 getrekt;\n\n    function setResult(uint _result) public\n    {\n        if (_result == 69) {\n            result = ((2**256)-1);\n        } else {\n            result = _result;\n        }\n    }\n\n    function askQuestion(uint256 template_id, string calldata question, address arbitrator, uint32 timeout, uint32 opening_ts, uint256 nonce) external payable returns (bytes32) {\n        // to get rid of compiler warnings:\n        stfu = template_id;\n        stfu = nonce;\n        gtfo = question;\n        reported = arbitrator;\n        getrekt = timeout;\n        getrekt = opening_ts;\n        return 0x8d293509129e26299990826db10c48241be5f59f2e4f61c0c9d550e4451e1a38;\n    }\n\n    // 420 = not resolved\n    // 69 = invalid\n    function resultFor(bytes32 question_id) external view returns (bytes32) {\n        require(result != 420);\n        require(question_id == 0x8d293509129e26299990826db10c48241be5f59f2e4f61c0c9d550e4451e1a38);\n        return bytes32(result);\n    }\n\n    function isFinalized(bytes32 question_id) external view returns (bool) {\n        require(question_id == 0x8d293509129e26299990826db10c48241be5f59f2e4f61c0c9d550e4451e1a38);\n        if (result == 420) {\n            return false;\n        } else {\n            return true;\n        }\n\n    } \n\n}\n\n",
  "sourcePath": "/Users/mcplums/Repos/Harber/contracts/mockups/RealitioMockup.sol",
  "compiler": {
    "name": "solc",
    "version": "0.5.13+commit.5b0b510c.Emscripten.clang"
  },
  "schemaVersion": "3.0.19",
  "updatedAt": "2020-04-14T10:56:48.162Z",
  "networkType": "ethereum",
  "devdoc": {
    "methods": {}
  },
  "userdoc": {
    "methods": {}
  }
}