{
  "contractName": "RealityCards",
  "abi": [
    {
      "inputs": [
        {
          "internalType": "address",
          "name": "_owner",
          "type": "address"
        },
        {
          "internalType": "uint256",
          "name": "_numberOfTokens",
          "type": "uint256"
        },
        {
          "internalType": "contract ICash",
          "name": "_addressOfCashContract",
          "type": "address"
        },
        {
          "internalType": "contract IRealitio",
          "name": "_addressOfRealitioContract",
          "type": "address"
        },
        {
          "internalType": "uint32",
          "name": "_marketExpectedResolutionTime",
          "type": "uint32"
        },
        {
          "internalType": "uint256",
          "name": "_templateId",
          "type": "uint256"
        },
        {
          "internalType": "string",
          "name": "_question",
          "type": "string"
        },
        {
          "internalType": "address",
          "name": "_arbitrator",
          "type": "address"
        },
        {
          "internalType": "uint32",
          "name": "_timeout",
          "type": "uint32"
        }
      ],
      "stateMutability": "nonpayable",
      "type": "constructor"
    },
    {
      "anonymous": false,
      "inputs": [
        {
          "indexed": true,
          "internalType": "address",
          "name": "owner",
          "type": "address"
        },
        {
          "indexed": true,
          "internalType": "address",
          "name": "approved",
          "type": "address"
        },
        {
          "indexed": true,
          "internalType": "uint256",
          "name": "tokenId",
          "type": "uint256"
        }
      ],
      "name": "Approval",
      "type": "event"
    },
    {
      "anonymous": false,
      "inputs": [
        {
          "indexed": true,
          "internalType": "address",
          "name": "owner",
          "type": "address"
        },
        {
          "indexed": true,
          "internalType": "address",
          "name": "operator",
          "type": "address"
        },
        {
          "indexed": false,
          "internalType": "bool",
          "name": "approved",
          "type": "bool"
        }
      ],
      "name": "ApprovalForAll",
      "type": "event"
    },
    {
      "anonymous": false,
      "inputs": [
        {
          "indexed": true,
          "internalType": "bool",
          "name": "didTheEventFinish",
          "type": "bool"
        }
      ],
      "name": "LogContractLocked",
      "type": "event"
    },
    {
      "anonymous": false,
      "inputs": [
        {
          "indexed": true,
          "internalType": "uint256",
          "name": "daiDeposited",
          "type": "uint256"
        },
        {
          "indexed": true,
          "internalType": "uint256",
          "name": "tokenId",
          "type": "uint256"
        },
        {
          "indexed": true,
          "internalType": "address",
          "name": "sentBy",
          "type": "address"
        }
      ],
      "name": "LogDepositIncreased",
      "type": "event"
    },
    {
      "anonymous": false,
      "inputs": [
        {
          "indexed": true,
          "internalType": "uint256",
          "name": "daiWithdrawn",
          "type": "uint256"
        },
        {
          "indexed": true,
          "internalType": "uint256",
          "name": "tokenId",
          "type": "uint256"
        },
        {
          "indexed": true,
          "internalType": "address",
          "name": "returnedTo",
          "type": "address"
        }
      ],
      "name": "LogDepositWithdrawal",
      "type": "event"
    },
    {
      "anonymous": false,
      "inputs": [
        {
          "indexed": true,
          "internalType": "address",
          "name": "prevOwner",
          "type": "address"
        },
        {
          "indexed": true,
          "internalType": "uint256",
          "name": "tokenId",
          "type": "uint256"
        }
      ],
      "name": "LogForeclosure",
      "type": "event"
    },
    {
      "anonymous": false,
      "inputs": [
        {
          "indexed": true,
          "internalType": "address",
          "name": "newOwner",
          "type": "address"
        },
        {
          "indexed": true,
          "internalType": "uint256",
          "name": "newPrice",
          "type": "uint256"
        },
        {
          "indexed": true,
          "internalType": "uint256",
          "name": "tokenId",
          "type": "uint256"
        }
      ],
      "name": "LogNewRental",
      "type": "event"
    },
    {
      "anonymous": false,
      "inputs": [
        {
          "indexed": true,
          "internalType": "uint256",
          "name": "newPrice",
          "type": "uint256"
        },
        {
          "indexed": true,
          "internalType": "uint256",
          "name": "tokenId",
          "type": "uint256"
        }
      ],
      "name": "LogPriceChange",
      "type": "event"
    },
    {
      "anonymous": false,
      "inputs": [
        {
          "indexed": true,
          "internalType": "uint256",
          "name": "rentCollected",
          "type": "uint256"
        },
        {
          "indexed": true,
          "internalType": "uint256",
          "name": "tokenId",
          "type": "uint256"
        }
      ],
      "name": "LogRentCollection",
      "type": "event"
    },
    {
      "anonymous": false,
      "inputs": [
        {
          "indexed": true,
          "internalType": "address",
          "name": "returnedTo",
          "type": "address"
        },
        {
          "indexed": true,
          "internalType": "uint256",
          "name": "amountReturned",
          "type": "uint256"
        }
      ],
      "name": "LogRentReturned",
      "type": "event"
    },
    {
      "anonymous": false,
      "inputs": [
        {
          "indexed": true,
          "internalType": "uint256",
          "name": "tokenId",
          "type": "uint256"
        },
        {
          "indexed": true,
          "internalType": "address",
          "name": "previousOwner",
          "type": "address"
        }
      ],
      "name": "LogReturnToPreviousOwner",
      "type": "event"
    },
    {
      "anonymous": false,
      "inputs": [
        {
          "indexed": true,
          "internalType": "uint256",
          "name": "newTimeHeld",
          "type": "uint256"
        },
        {
          "indexed": true,
          "internalType": "address",
          "name": "owner",
          "type": "address"
        },
        {
          "indexed": true,
          "internalType": "uint256",
          "name": "tokenId",
          "type": "uint256"
        }
      ],
      "name": "LogTimeHeldUpdated",
      "type": "event"
    },
    {
      "anonymous": false,
      "inputs": [
        {
          "indexed": true,
          "internalType": "uint256",
          "name": "winningOutcome",
          "type": "uint256"
        }
      ],
      "name": "LogWinnerKnown",
      "type": "event"
    },
    {
      "anonymous": false,
      "inputs": [
        {
          "indexed": true,
          "internalType": "address",
          "name": "paidTo",
          "type": "address"
        },
        {
          "indexed": true,
          "internalType": "uint256",
          "name": "amountPaid",
          "type": "uint256"
        }
      ],
      "name": "LogWinningsPaid",
      "type": "event"
    },
    {
      "anonymous": false,
      "inputs": [
        {
          "indexed": true,
          "internalType": "address",
          "name": "previousOwner",
          "type": "address"
        },
        {
          "indexed": true,
          "internalType": "address",
          "name": "newOwner",
          "type": "address"
        }
      ],
      "name": "OwnershipTransferred",
      "type": "event"
    },
    {
      "anonymous": false,
      "inputs": [
        {
          "indexed": true,
          "internalType": "address",
          "name": "from",
          "type": "address"
        },
        {
          "indexed": true,
          "internalType": "address",
          "name": "to",
          "type": "address"
        },
        {
          "indexed": true,
          "internalType": "uint256",
          "name": "tokenId",
          "type": "uint256"
        }
      ],
      "name": "Transfer",
      "type": "event"
    },
    {
      "inputs": [
        {
          "internalType": "uint256",
          "name": "",
          "type": "uint256"
        },
        {
          "internalType": "uint256",
          "name": "",
          "type": "uint256"
        }
      ],
      "name": "allOwners",
      "outputs": [
        {
          "internalType": "address",
          "name": "",
          "type": "address"
        }
      ],
      "stateMutability": "view",
      "type": "function"
    },
    {
      "inputs": [
        {
          "internalType": "address",
          "name": "to",
          "type": "address"
        },
        {
          "internalType": "uint256",
          "name": "tokenId",
          "type": "uint256"
        }
      ],
      "name": "approve",
      "outputs": [],
      "stateMutability": "nonpayable",
      "type": "function"
    },
    {
      "inputs": [
        {
          "internalType": "address",
          "name": "owner",
          "type": "address"
        }
      ],
      "name": "balanceOf",
      "outputs": [
        {
          "internalType": "uint256",
          "name": "",
          "type": "uint256"
        }
      ],
      "stateMutability": "view",
      "type": "function"
    },
    {
      "inputs": [],
      "name": "baseURI",
      "outputs": [
        {
          "internalType": "string",
          "name": "",
          "type": "string"
        }
      ],
      "stateMutability": "view",
      "type": "function"
    },
    {
      "inputs": [],
      "name": "cash",
      "outputs": [
        {
          "internalType": "contract ICash",
          "name": "",
          "type": "address"
        }
      ],
      "stateMutability": "view",
      "type": "function"
    },
    {
      "inputs": [
        {
          "internalType": "uint256",
          "name": "",
          "type": "uint256"
        }
      ],
      "name": "collectedPerToken",
      "outputs": [
        {
          "internalType": "uint256",
          "name": "",
          "type": "uint256"
        }
      ],
      "stateMutability": "view",
      "type": "function"
    },
    {
      "inputs": [
        {
          "internalType": "address",
          "name": "",
          "type": "address"
        }
      ],
      "name": "collectedPerUser",
      "outputs": [
        {
          "internalType": "uint256",
          "name": "",
          "type": "uint256"
        }
      ],
      "stateMutability": "view",
      "type": "function"
    },
    {
      "inputs": [
        {
          "internalType": "uint256",
          "name": "",
          "type": "uint256"
        }
      ],
      "name": "currentOwnerIndex",
      "outputs": [
        {
          "internalType": "uint256",
          "name": "",
          "type": "uint256"
        }
      ],
      "stateMutability": "view",
      "type": "function"
    },
    {
      "inputs": [
        {
          "internalType": "uint256",
          "name": "",
          "type": "uint256"
        },
        {
          "internalType": "address",
          "name": "",
          "type": "address"
        }
      ],
      "name": "deposits",
      "outputs": [
        {
          "internalType": "uint256",
          "name": "",
          "type": "uint256"
        }
      ],
      "stateMutability": "view",
      "type": "function"
    },
    {
      "inputs": [
        {
          "internalType": "uint256",
          "name": "tokenId",
          "type": "uint256"
        }
      ],
      "name": "getApproved",
      "outputs": [
        {
          "internalType": "address",
          "name": "",
          "type": "address"
        }
      ],
      "stateMutability": "view",
      "type": "function"
    },
    {
      "inputs": [
        {
          "internalType": "address",
          "name": "owner",
          "type": "address"
        },
        {
          "internalType": "address",
          "name": "operator",
          "type": "address"
        }
      ],
      "name": "isApprovedForAll",
      "outputs": [
        {
          "internalType": "bool",
          "name": "",
          "type": "bool"
        }
      ],
      "stateMutability": "view",
      "type": "function"
    },
    {
      "inputs": [],
      "name": "marketExpectedResolutionTime",
      "outputs": [
        {
          "internalType": "uint32",
          "name": "",
          "type": "uint32"
        }
      ],
      "stateMutability": "view",
      "type": "function"
    },
    {
      "inputs": [],
      "name": "name",
      "outputs": [
        {
          "internalType": "string",
          "name": "",
          "type": "string"
        }
      ],
      "stateMutability": "view",
      "type": "function"
    },
    {
      "inputs": [],
      "name": "numberOfTokens",
      "outputs": [
        {
          "internalType": "uint256",
          "name": "",
          "type": "uint256"
        }
      ],
      "stateMutability": "view",
      "type": "function"
    },
    {
      "inputs": [],
      "name": "owner",
      "outputs": [
        {
          "internalType": "address",
          "name": "",
          "type": "address"
        }
      ],
      "stateMutability": "view",
      "type": "function"
    },
    {
      "inputs": [
        {
          "internalType": "uint256",
          "name": "tokenId",
          "type": "uint256"
        }
      ],
      "name": "ownerOf",
      "outputs": [
        {
          "internalType": "address",
          "name": "",
          "type": "address"
        }
      ],
      "stateMutability": "view",
      "type": "function"
    },
    {
      "inputs": [
        {
          "internalType": "uint256",
          "name": "",
          "type": "uint256"
        },
        {
          "internalType": "uint256",
          "name": "",
          "type": "uint256"
        }
      ],
      "name": "ownerTracker",
      "outputs": [
        {
          "internalType": "address",
          "name": "owner",
          "type": "address"
        },
        {
          "internalType": "uint256",
          "name": "price",
          "type": "uint256"
        }
      ],
      "stateMutability": "view",
      "type": "function"
    },
    {
      "inputs": [
        {
          "internalType": "uint256",
          "name": "",
          "type": "uint256"
        }
      ],
      "name": "price",
      "outputs": [
        {
          "internalType": "uint256",
          "name": "",
          "type": "uint256"
        }
      ],
      "stateMutability": "view",
      "type": "function"
    },
    {
      "inputs": [],
      "name": "questionId",
      "outputs": [
        {
          "internalType": "bytes32",
          "name": "",
          "type": "bytes32"
        }
      ],
      "stateMutability": "view",
      "type": "function"
    },
    {
      "inputs": [],
      "name": "questionResolvedInvalid",
      "outputs": [
        {
          "internalType": "bool",
          "name": "",
          "type": "bool"
        }
      ],
      "stateMutability": "view",
      "type": "function"
    },
    {
      "inputs": [],
      "name": "realitio",
      "outputs": [
        {
          "internalType": "contract IRealitio",
          "name": "",
          "type": "address"
        }
      ],
      "stateMutability": "view",
      "type": "function"
    },
    {
      "inputs": [],
      "name": "renounceOwnership",
      "outputs": [],
      "stateMutability": "nonpayable",
      "type": "function"
    },
    {
      "inputs": [
        {
          "internalType": "address",
          "name": "operator",
          "type": "address"
        },
        {
          "internalType": "bool",
          "name": "approved",
          "type": "bool"
        }
      ],
      "name": "setApprovalForAll",
      "outputs": [],
      "stateMutability": "nonpayable",
      "type": "function"
    },
    {
      "inputs": [],
      "name": "state",
      "outputs": [
        {
          "internalType": "enum RealityCards.States",
          "name": "",
          "type": "uint8"
        }
      ],
      "stateMutability": "view",
      "type": "function"
    },
    {
      "inputs": [
        {
          "internalType": "bytes4",
          "name": "interfaceId",
          "type": "bytes4"
        }
      ],
      "name": "supportsInterface",
      "outputs": [
        {
          "internalType": "bool",
          "name": "",
          "type": "bool"
        }
      ],
      "stateMutability": "view",
      "type": "function"
    },
    {
      "inputs": [],
      "name": "symbol",
      "outputs": [
        {
          "internalType": "string",
          "name": "",
          "type": "string"
        }
      ],
      "stateMutability": "view",
      "type": "function"
    },
    {
      "inputs": [
        {
          "internalType": "uint256",
          "name": "",
          "type": "uint256"
        }
      ],
      "name": "timeAcquired",
      "outputs": [
        {
          "internalType": "uint256",
          "name": "",
          "type": "uint256"
        }
      ],
      "stateMutability": "view",
      "type": "function"
    },
    {
      "inputs": [
        {
          "internalType": "uint256",
          "name": "",
          "type": "uint256"
        },
        {
          "internalType": "address",
          "name": "",
          "type": "address"
        }
      ],
      "name": "timeHeld",
      "outputs": [
        {
          "internalType": "uint256",
          "name": "",
          "type": "uint256"
        }
      ],
      "stateMutability": "view",
      "type": "function"
    },
    {
      "inputs": [
        {
          "internalType": "uint256",
          "name": "",
          "type": "uint256"
        }
      ],
      "name": "timeLastCollected",
      "outputs": [
        {
          "internalType": "uint256",
          "name": "",
          "type": "uint256"
        }
      ],
      "stateMutability": "view",
      "type": "function"
    },
    {
      "inputs": [
        {
          "internalType": "uint256",
          "name": "index",
          "type": "uint256"
        }
      ],
      "name": "tokenByIndex",
      "outputs": [
        {
          "internalType": "uint256",
          "name": "",
          "type": "uint256"
        }
      ],
      "stateMutability": "view",
      "type": "function"
    },
    {
      "inputs": [
        {
          "internalType": "address",
          "name": "owner",
          "type": "address"
        },
        {
          "internalType": "uint256",
          "name": "index",
          "type": "uint256"
        }
      ],
      "name": "tokenOfOwnerByIndex",
      "outputs": [
        {
          "internalType": "uint256",
          "name": "",
          "type": "uint256"
        }
      ],
      "stateMutability": "view",
      "type": "function"
    },
    {
      "inputs": [
        {
          "internalType": "uint256",
          "name": "tokenId",
          "type": "uint256"
        }
      ],
      "name": "tokenURI",
      "outputs": [
        {
          "internalType": "string",
          "name": "",
          "type": "string"
        }
      ],
      "stateMutability": "view",
      "type": "function"
    },
    {
      "inputs": [],
      "name": "totalCollected",
      "outputs": [
        {
          "internalType": "uint256",
          "name": "",
          "type": "uint256"
        }
      ],
      "stateMutability": "view",
      "type": "function"
    },
    {
      "inputs": [],
      "name": "totalSupply",
      "outputs": [
        {
          "internalType": "uint256",
          "name": "",
          "type": "uint256"
        }
      ],
      "stateMutability": "view",
      "type": "function"
    },
    {
      "inputs": [
        {
          "internalType": "uint256",
          "name": "",
          "type": "uint256"
        }
      ],
      "name": "totalTimeHeld",
      "outputs": [
        {
          "internalType": "uint256",
          "name": "",
          "type": "uint256"
        }
      ],
      "stateMutability": "view",
      "type": "function"
    },
    {
      "inputs": [
        {
          "internalType": "address",
          "name": "newOwner",
          "type": "address"
        }
      ],
      "name": "transferOwnership",
      "outputs": [],
      "stateMutability": "nonpayable",
      "type": "function"
    },
    {
      "inputs": [
        {
          "internalType": "address",
          "name": "",
          "type": "address"
        }
      ],
      "name": "userAlreadyWithdrawn",
      "outputs": [
        {
          "internalType": "bool",
          "name": "",
          "type": "bool"
        }
      ],
      "stateMutability": "view",
      "type": "function"
    },
    {
      "inputs": [],
      "name": "winningOutcome",
      "outputs": [
        {
          "internalType": "uint256",
          "name": "",
          "type": "uint256"
        }
      ],
      "stateMutability": "view",
      "type": "function"
    },
    {
      "inputs": [
        {
          "internalType": "string",
          "name": "_uri",
          "type": "string"
        }
      ],
      "name": "mintNfts",
      "outputs": [],
      "stateMutability": "nonpayable",
      "type": "function"
    },
    {
      "inputs": [
        {
          "internalType": "uint256",
          "name": "_tokenId",
          "type": "uint256"
        }
      ],
      "name": "rentOwed",
      "outputs": [
        {
          "internalType": "uint256",
          "name": "",
          "type": "uint256"
        }
      ],
      "stateMutability": "view",
      "type": "function"
    },
    {
      "inputs": [
        {
          "internalType": "uint256",
          "name": "_tokenId",
          "type": "uint256"
        }
      ],
      "name": "currentOwnerRemainingDeposit",
      "outputs": [
        {
          "internalType": "uint256",
          "name": "",
          "type": "uint256"
        }
      ],
      "stateMutability": "view",
      "type": "function"
    },
    {
      "inputs": [
        {
          "internalType": "uint256",
          "name": "_tokenId",
          "type": "uint256"
        }
      ],
      "name": "userRemainingDeposit",
      "outputs": [
        {
          "internalType": "uint256",
          "name": "",
          "type": "uint256"
        }
      ],
      "stateMutability": "view",
      "type": "function"
    },
    {
      "inputs": [
        {
          "internalType": "uint256",
          "name": "_tokenId",
          "type": "uint256"
        }
      ],
      "name": "rentalExpiryTime",
      "outputs": [
        {
          "internalType": "uint256",
          "name": "",
          "type": "uint256"
        }
      ],
      "stateMutability": "view",
      "type": "function"
    },
    {
      "inputs": [
        {
          "internalType": "uint256",
          "name": "_winningOutcome",
          "type": "uint256"
        }
      ],
      "name": "getWinnings",
      "outputs": [
        {
          "internalType": "uint256",
          "name": "",
          "type": "uint256"
        }
      ],
      "stateMutability": "view",
      "type": "function"
    },
    {
      "inputs": [],
      "name": "lockContract",
      "outputs": [],
      "stateMutability": "nonpayable",
      "type": "function"
    },
    {
      "inputs": [],
      "name": "determineWinner",
      "outputs": [],
      "stateMutability": "nonpayable",
      "type": "function"
    },
    {
      "inputs": [],
      "name": "withdraw",
      "outputs": [],
      "stateMutability": "nonpayable",
      "type": "function"
    },
    {
      "inputs": [],
      "name": "withdrawDepositAfterMarketEnded",
      "outputs": [],
      "stateMutability": "nonpayable",
      "type": "function"
    },
    {
      "inputs": [],
      "name": "collectRentAllTokens",
      "outputs": [],
      "stateMutability": "nonpayable",
      "type": "function"
    },
    {
      "inputs": [
        {
          "internalType": "uint256",
          "name": "_newPrice",
          "type": "uint256"
        },
        {
          "internalType": "uint256",
          "name": "_tokenId",
          "type": "uint256"
        },
        {
          "internalType": "uint256",
          "name": "_deposit",
          "type": "uint256"
        }
      ],
      "name": "newRental",
      "outputs": [],
      "stateMutability": "nonpayable",
      "type": "function"
    },
    {
      "inputs": [
        {
          "internalType": "uint256",
          "name": "_dai",
          "type": "uint256"
        },
        {
          "internalType": "uint256",
          "name": "_tokenId",
          "type": "uint256"
        }
      ],
      "name": "depositDai",
      "outputs": [],
      "stateMutability": "nonpayable",
      "type": "function"
    },
    {
      "inputs": [
        {
          "internalType": "uint256",
          "name": "_newPrice",
          "type": "uint256"
        },
        {
          "internalType": "uint256",
          "name": "_tokenId",
          "type": "uint256"
        }
      ],
      "name": "changePrice",
      "outputs": [],
      "stateMutability": "nonpayable",
      "type": "function"
    },
    {
      "inputs": [
        {
          "internalType": "uint256",
          "name": "_daiToWithdraw",
          "type": "uint256"
        },
        {
          "internalType": "uint256",
          "name": "_tokenId",
          "type": "uint256"
        }
      ],
      "name": "withdrawDeposit",
      "outputs": [],
      "stateMutability": "nonpayable",
      "type": "function"
    },
    {
      "inputs": [
        {
          "internalType": "uint256",
          "name": "_tokenId",
          "type": "uint256"
        }
      ],
      "name": "exit",
      "outputs": [],
      "stateMutability": "nonpayable",
      "type": "function"
    },
    {
      "inputs": [],
      "name": "circuitBreaker",
      "outputs": [],
      "stateMutability": "nonpayable",
      "type": "function"
    },
    {
      "inputs": [
        {
          "internalType": "address",
          "name": "from",
          "type": "address"
        },
        {
          "internalType": "address",
          "name": "to",
          "type": "address"
        },
        {
          "internalType": "uint256",
          "name": "tokenId",
          "type": "uint256"
        }
      ],
      "name": "transferFrom",
      "outputs": [],
      "stateMutability": "nonpayable",
      "type": "function"
    },
    {
      "inputs": [
        {
          "internalType": "address",
          "name": "from",
          "type": "address"
        },
        {
          "internalType": "address",
          "name": "to",
          "type": "address"
        },
        {
          "internalType": "uint256",
          "name": "tokenId",
          "type": "uint256"
        }
      ],
      "name": "safeTransferFrom",
      "outputs": [],
      "stateMutability": "nonpayable",
      "type": "function"
    },
    {
      "inputs": [
        {
          "internalType": "address",
          "name": "from",
          "type": "address"
        },
        {
          "internalType": "address",
          "name": "to",
          "type": "address"
        },
        {
          "internalType": "uint256",
          "name": "tokenId",
          "type": "uint256"
        },
        {
          "internalType": "bytes",
          "name": "_data",
          "type": "bytes"
        }
      ],
      "name": "safeTransferFrom",
      "outputs": [],
      "stateMutability": "nonpayable",
      "type": "function"
    }
  ],
  "bytecode": "0x60806040526001601e60046101000a81548160ff0219169083151502179055503480156200002c57600080fd5b506040516200723d3803806200723d83398181016040526101208110156200005357600080fd5b8101908080519060200190929190805190602001909291908051906020019092919080519060200190929190805190602001909291908051906020019092919080516040519392919084640100000000821115620000b057600080fd5b83820191506020820185811115620000c757600080fd5b8251866001820283011164010000000082111715620000e557600080fd5b8083526020830192505050908051906020019080838360005b838110156200011b578082015181840152602081019050620000fe565b50505050905090810190601f168015620001495780820380516001836020036101000a031916815260200191505b5060405260200180519060200190929190805190602001909291905050506040518060400160405280600f81526020017f7265616c69747963617264732e696f00000000000000000000000000000000008152506040518060400160405280600281526020017f5243000000000000000000000000000000000000000000000000000000000000815250620001eb6301ffc9a760e01b620003ff60201b60201c565b816006908051906020019062000203929190620008c0565b5080600790805190602001906200021c929190620008c0565b50620002356380ac58cd60e01b620003ff60201b60201c565b6200024d635b5e139f60e01b620003ff60201b60201c565b6200026563780e9d6360e01b620003ff60201b60201c565b50506000620002796200050860201b60201c565b905080600a60006101000a81548173ffffffffffffffffffffffffffffffffffffffff021916908373ffffffffffffffffffffffffffffffffffffffff1602179055508073ffffffffffffffffffffffffffffffffffffffff16600073ffffffffffffffffffffffffffffffffffffffff167f8be0079c531659141344cd1fd0a4f28419497f9722a3daafe3b4186f6b6457e060405160405180910390a35062000329896200051060201b60201c565b87600b8190555084601e60006101000a81548163ffffffff021916908363ffffffff16021790555085600e60016101000a81548173ffffffffffffffffffffffffffffffffffffffff021916908373ffffffffffffffffffffffffffffffffffffffff16021790555086600f60006101000a81548173ffffffffffffffffffffffffffffffffffffffff021916908373ffffffffffffffffffffffffffffffffffffffff160217905550620003ea848484848960006200072b60201b60201c565b600d819055505050505050505050506200096f565b63ffffffff60e01b817bffffffffffffffffffffffffffffffffffffffffffffffffffffffff191614156200049c576040517f08c379a000000000000000000000000000000000000000000000000000000000815260040180806020018281038252601c8152602001807f4552433136353a20696e76616c696420696e746572666163652069640000000081525060200191505060405180910390fd5b6001600080837bffffffffffffffffffffffffffffffffffffffffffffffffffffffff19167bffffffffffffffffffffffffffffffffffffffffffffffffffffffff1916815260200190815260200160002060006101000a81548160ff02191690831515021790555050565b600033905090565b620005206200050860201b60201c565b73ffffffffffffffffffffffffffffffffffffffff16600a60009054906101000a900473ffffffffffffffffffffffffffffffffffffffff1673ffffffffffffffffffffffffffffffffffffffff1614620005e3576040517f08c379a00000000000000000000000000000000000000000000000000000000081526004018080602001828103825260208152602001807f4f776e61626c653a2063616c6c6572206973206e6f7420746865206f776e657281525060200191505060405180910390fd5b600073ffffffffffffffffffffffffffffffffffffffff168173ffffffffffffffffffffffffffffffffffffffff1614156200066b576040517f08c379a0000000000000000000000000000000000000000000000000000000008152600401808060200182810382526026815260200180620072176026913960400191505060405180910390fd5b8073ffffffffffffffffffffffffffffffffffffffff16600a60009054906101000a900473ffffffffffffffffffffffffffffffffffffffff1673ffffffffffffffffffffffffffffffffffffffff167f8be0079c531659141344cd1fd0a4f28419497f9722a3daafe3b4186f6b6457e060405160405180910390a380600a60006101000a81548173ffffffffffffffffffffffffffffffffffffffff021916908373ffffffffffffffffffffffffffffffffffffffff16021790555050565b6000600e60019054906101000a900473ffffffffffffffffffffffffffffffffffffffff1673ffffffffffffffffffffffffffffffffffffffff1663762c38fd8888888888886040518763ffffffff1660e01b815260040180878152602001806020018673ffffffffffffffffffffffffffffffffffffffff1673ffffffffffffffffffffffffffffffffffffffff1681526020018563ffffffff1663ffffffff1681526020018463ffffffff1663ffffffff168152602001838152602001828103825287818151815260200191508051906020019080838360005b838110156200082457808201518184015260208101905062000807565b50505050905090810190601f168015620008525780820380516001836020036101000a031916815260200191505b50975050505050505050602060405180830381600087803b1580156200087757600080fd5b505af11580156200088c573d6000803e3d6000fd5b505050506040513d6020811015620008a357600080fd5b810190808051906020019092919050505090509695505050505050565b828054600181600116156101000203166002900490600052602060002090601f016020900481019282601f106200090357805160ff191683800117855562000934565b8280016001018555821562000934579182015b828111156200093357825182559160200191906001019062000916565b5b50905062000943919062000947565b5090565b6200096c91905b80821115620009685760008160009055506001016200094e565b5090565b90565b616898806200097f6000396000f3fe608060405234801561001057600080fd5b506004361061038e5760003560e01c8063736aab4c116101de578063b06a5c521161010f578063e29eb836116100ad578063f88489c21161007c578063f88489c21461135e578063f9f16ef2146113dd578063fc1ba511146113fb578063fce0eb02146114055761038e565b8063e29eb8361461123e578063e985e9c51461125c578063f015e54e146112d8578063f2fde38b1461131a5761038e565b8063bae04c9a116100e9578063bae04c9a146110e9578063bc8802a214611121578063c19d93fb1461116b578063c87b56dd146111975761038e565b8063b06a5c5214610f8e578063b3de019c14610fac578063b88d4fde14610fe45761038e565b8063961be3911161017c578063a22cb46511610156578063a22cb46514610eb0578063a36252bf14610f00578063ad5d286214610f42578063adfbe13c14610f845761038e565b8063961be39114610e1e578063977f1b2814610e685780639b34ae0314610e925761038e565b80637f8661a1116101b85780637f8661a114610ce15780638cb6889914610d0f5780638da5cb5b14610d5157806395d89b4114610d9b5761038e565b8063736aab4c14610c06578063753868e314610c7f5780637c1bfa5414610c895761038e565b80633ccfd60b116102c357806353a58de1116102615780636c0360eb116102305780636c0360eb14610adf57806370a0823114610b6257806370a23f7514610bba578063715018a614610bfc5761038e565b806353a58de1146109955780635b2ace64146109f75780635dfd7e9b14610a395780636352211e14610a715761038e565b806343ac0ecb1161029d57806343ac0ecb146108ad57806347254f4f146108ef5780634f6ccce71461091157806351734077146109535761038e565b80633ccfd60b146107f35780633f17e86f146107fd57806342842e0e1461083f5761038e565b806318160ddd1161033057806323b872dd1161030a57806323b872dd146106d757806326a49e37146107455780632f745c591461078757806333b16d93146107e95761038e565b806318160ddd146105fb578063237b5e4f14610619578063237e53741461067b5761038e565b8063095ea7b31161036c578063095ea7b3146104e95780630e6f4db214610537578063103e72911461057957806316efd941146105f15761038e565b806301ffc9a71461039357806306fdde03146103f8578063081812fc1461047b575b600080fd5b6103de600480360360208110156103a957600080fd5b8101908080357bffffffffffffffffffffffffffffffffffffffffffffffffffffffff19169060200190929190505050611447565b604051808215151515815260200191505060405180910390f35b6104006114ae565b6040518080602001828103825283818151815260200191508051906020019080838360005b83811015610440578082015181840152602081019050610425565b50505050905090810190601f16801561046d5780820380516001836020036101000a031916815260200191505b509250505060405180910390f35b6104a76004803603602081101561049157600080fd5b8101908080359060200190929190505050611550565b604051808273ffffffffffffffffffffffffffffffffffffffff1673ffffffffffffffffffffffffffffffffffffffff16815260200191505060405180910390f35b610535600480360360408110156104ff57600080fd5b81019080803573ffffffffffffffffffffffffffffffffffffffff169060200190929190803590602001909291905050506115eb565b005b6105636004803603602081101561054d57600080fd5b810190808035906020019092919050505061172f565b6040518082815260200191505060405180910390f35b6105af6004803603604081101561058f57600080fd5b8101908080359060200190929190803590602001909291905050506117d6565b604051808273ffffffffffffffffffffffffffffffffffffffff1673ffffffffffffffffffffffffffffffffffffffff16815260200191505060405180910390f35b6105f9611821565b005b610603611931565b6040518082815260200191505060405180910390f35b6106656004803603604081101561062f57600080fd5b8101908080359060200190929190803573ffffffffffffffffffffffffffffffffffffffff169060200190929190505050611942565b6040518082815260200191505060405180910390f35b6106bd6004803603602081101561069157600080fd5b81019080803573ffffffffffffffffffffffffffffffffffffffff169060200190929190505050611967565b604051808215151515815260200191505060405180910390f35b610743600480360360608110156106ed57600080fd5b81019080803573ffffffffffffffffffffffffffffffffffffffff169060200190929190803573ffffffffffffffffffffffffffffffffffffffff16906020019092919080359060200190929190505050611987565b005b6107716004803603602081101561075b57600080fd5b81019080803590602001909291905050506119e3565b6040518082815260200191505060405180910390f35b6107d36004803603604081101561079d57600080fd5b81019080803573ffffffffffffffffffffffffffffffffffffffff169060200190929190803590602001909291905050506119fb565b6040518082815260200191505060405180910390f35b6107f1611a56565b005b6107fb611c00565b005b61083d6004803603606081101561081357600080fd5b81019080803590602001909291908035906020019092919080359060200190929190505050611de1565b005b6108ab6004803603606081101561085557600080fd5b81019080803573ffffffffffffffffffffffffffffffffffffffff169060200190929190803573ffffffffffffffffffffffffffffffffffffffff16906020019092919080359060200190929190505050612439565b005b6108d9600480360360208110156108c357600080fd5b8101908080359060200190929190505050612459565b6040518082815260200191505060405180910390f35b6108f7612471565b604051808215151515815260200191505060405180910390f35b61093d6004803603602081101561092757600080fd5b8101908080359060200190929190505050612484565b6040518082815260200191505060405180910390f35b61097f6004803603602081101561096957600080fd5b81019080803590602001909291905050506124a7565b6040518082815260200191505060405180910390f35b6109e1600480360360408110156109ab57600080fd5b8101908080359060200190929190803573ffffffffffffffffffffffffffffffffffffffff169060200190929190505050612591565b6040518082815260200191505060405180910390f35b610a2360048036036020811015610a0d57600080fd5b81019080803590602001909291905050506125b6565b6040518082815260200191505060405180910390f35b610a6f60048036036040811015610a4f57600080fd5b8101908080359060200190929190803590602001909291905050506125ce565b005b610a9d60048036036020811015610a8757600080fd5b8101908080359060200190929190505050612773565b604051808273ffffffffffffffffffffffffffffffffffffffff1673ffffffffffffffffffffffffffffffffffffffff16815260200191505060405180910390f35b610ae76127aa565b6040518080602001828103825283818151815260200191508051906020019080838360005b83811015610b27578082015181840152602081019050610b0c565b50505050905090810190601f168015610b545780820380516001836020036101000a031916815260200191505b509250505060405180910390f35b610ba460048036036020811015610b7857600080fd5b81019080803573ffffffffffffffffffffffffffffffffffffffff16906020019092919050505061284c565b6040518082815260200191505060405180910390f35b610be660048036036020811015610bd057600080fd5b8101908080359060200190929190505050612921565b6040518082815260200191505060405180910390f35b610c0461298a565b005b610c7d60048036036020811015610c1c57600080fd5b8101908080359060200190640100000000811115610c3957600080fd5b820183602082011115610c4b57600080fd5b80359060200191846001830284011164010000000083111715610c6d57600080fd5b9091929391929390505050612b15565b005b610c87612d0d565b005b610ccb60048036036020811015610c9f57600080fd5b81019080803573ffffffffffffffffffffffffffffffffffffffff169060200190929190505050612e7d565b6040518082815260200191505060405180910390f35b610d0d60048036036020811015610cf757600080fd5b8101908080359060200190929190505050612e95565b005b610d3b60048036036020811015610d2557600080fd5b8101908080359060200190929190505050612ef2565b6040518082815260200191505060405180910390f35b610d59612f0a565b604051808273ffffffffffffffffffffffffffffffffffffffff1673ffffffffffffffffffffffffffffffffffffffff16815260200191505060405180910390f35b610da3612f34565b6040518080602001828103825283818151815260200191508051906020019080838360005b83811015610de3578082015181840152602081019050610dc8565b50505050905090810190601f168015610e105780820380516001836020036101000a031916815260200191505b509250505060405180910390f35b610e26612fd6565b604051808273ffffffffffffffffffffffffffffffffffffffff1673ffffffffffffffffffffffffffffffffffffffff16815260200191505060405180910390f35b610e70612ffc565b604051808263ffffffff1663ffffffff16815260200191505060405180910390f35b610e9a613012565b6040518082815260200191505060405180910390f35b610efe60048036036040811015610ec657600080fd5b81019080803573ffffffffffffffffffffffffffffffffffffffff169060200190929190803515159060200190929190505050613018565b005b610f2c60048036036020811015610f1657600080fd5b81019080803590602001909291905050506131d0565b6040518082815260200191505060405180910390f35b610f6e60048036036020811015610f5857600080fd5b81019080803590602001909291905050506131e8565b6040518082815260200191505060405180910390f35b610f8c61328c565b005b610f96613352565b6040518082815260200191505060405180910390f35b610fe260048036036040811015610fc257600080fd5b810190808035906020019092919080359060200190929190505050613358565b005b6110e760048036036080811015610ffa57600080fd5b81019080803573ffffffffffffffffffffffffffffffffffffffff169060200190929190803573ffffffffffffffffffffffffffffffffffffffff169060200190929190803590602001909291908035906020019064010000000081111561106157600080fd5b82018360208201111561107357600080fd5b8035906020019184600183028401116401000000008311171561109557600080fd5b91908080601f016020809104026020016040519081016040528093929190818152602001838380828437600081840152601f19601f8201169050808301925050505050505091929192905050506135b8565b005b61111f600480360360408110156110ff57600080fd5b810190808035906020019092919080359060200190929190505050613615565b005b61112961386b565b604051808273ffffffffffffffffffffffffffffffffffffffff1673ffffffffffffffffffffffffffffffffffffffff16815260200191505060405180910390f35b611173613891565b6040518082600381111561118357fe5b60ff16815260200191505060405180910390f35b6111c3600480360360208110156111ad57600080fd5b81019080803590602001909291905050506138a4565b6040518080602001828103825283818151815260200191508051906020019080838360005b838110156112035780820151818401526020810190506111e8565b50505050905090810190601f1680156112305780820380516001836020036101000a031916815260200191505b509250505060405180910390f35b611246613b8d565b6040518082815260200191505060405180910390f35b6112be6004803603604081101561127257600080fd5b81019080803573ffffffffffffffffffffffffffffffffffffffff169060200190929190803573ffffffffffffffffffffffffffffffffffffffff169060200190929190505050613b93565b604051808215151515815260200191505060405180910390f35b611304600480360360208110156112ee57600080fd5b8101908080359060200190929190505050613c27565b6040518082815260200191505060405180910390f35b61135c6004803603602081101561133057600080fd5b81019080803573ffffffffffffffffffffffffffffffffffffffff169060200190929190505050613c3f565b005b6113946004803603604081101561137457600080fd5b810190808035906020019092919080359060200190929190505050613e4f565b604051808373ffffffffffffffffffffffffffffffffffffffff1673ffffffffffffffffffffffffffffffffffffffff1681526020018281526020019250505060405180910390f35b6113e5613ea0565b6040518082815260200191505060405180910390f35b611403613ea6565b005b6114316004803603602081101561141b57600080fd5b8101908080359060200190929190505050614103565b6040518082815260200191505060405180910390f35b6000806000837bffffffffffffffffffffffffffffffffffffffffffffffffffffffff19167bffffffffffffffffffffffffffffffffffffffffffffffffffffffff1916815260200190815260200160002060009054906101000a900460ff169050919050565b606060068054600181600116156101000203166002900480601f0160208091040260200160405190810160405280929190818152602001828054600181600116156101000203166002900480156115465780601f1061151b57610100808354040283529160200191611546565b820191906000526020600020905b81548152906001019060200180831161152957829003601f168201915b5050505050905090565b600061155b82614169565b6115b0576040517f08c379a000000000000000000000000000000000000000000000000000000000815260040180806020018281038252602c815260200180616792602c913960400191505060405180910390fd5b6004600083815260200190815260200160002060009054906101000a900473ffffffffffffffffffffffffffffffffffffffff169050919050565b60006115f682612773565b90508073ffffffffffffffffffffffffffffffffffffffff168373ffffffffffffffffffffffffffffffffffffffff16141561167d576040517f08c379a00000000000000000000000000000000000000000000000000000000081526004018080602001828103825260218152602001806168426021913960400191505060405180910390fd5b8073ffffffffffffffffffffffffffffffffffffffff1661169c614186565b73ffffffffffffffffffffffffffffffffffffffff1614806116cb57506116ca816116c5614186565b613b93565b5b611720576040517f08c379a00000000000000000000000000000000000000000000000000000000081526004018080602001828103825260388152602001806166c46038913960400191505060405180910390fd5b61172a838361418e565b505050565b60003373ffffffffffffffffffffffffffffffffffffffff1661175183612773565b73ffffffffffffffffffffffffffffffffffffffff16141561177d57611776826124a7565b90506117d1565b6011600083815260200190815260200160002060003373ffffffffffffffffffffffffffffffffffffffff1673ffffffffffffffffffffffffffffffffffffffff1681526020019081526020016000205490505b919050565b601b60205281600052604060002081815481106117ef57fe5b906000526020600020016000915091509054906101000a900473ffffffffffffffffffffffffffffffffffffffff1681565b611829612f0a565b73ffffffffffffffffffffffffffffffffffffffff163373ffffffffffffffffffffffffffffffffffffffff16148061187e57506224ea00601e60009054906101000a900463ffffffff160163ffffffff1642115b6118f0576040517f08c379a00000000000000000000000000000000000000000000000000000000081526004018080602001828103825260168152602001807f4e6f74206f776e6572206f7220746f6f206561726c790000000000000000000081525060200191505060405180910390fd5b6001601e60046101000a81548160ff0219169083151502179055506003600e60006101000a81548160ff0219169083600381111561192a57fe5b0217905550565b600061193d6002614247565b905090565b6015602052816000526040600020602052806000526040600020600091509150505481565b601f6020528060005260406000206000915054906101000a900460ff1681565b60006119de576040517f08c379a00000000000000000000000000000000000000000000000000000000081526004018080602001828103825260248152602001806166a06024913960400191505060405180910390fd5b505050565b60106020528060005260406000206000915090505481565b6000611a4e82600160008673ffffffffffffffffffffffffffffffffffffffff1673ffffffffffffffffffffffffffffffffffffffff16815260200190815260200160002061425c90919063ffffffff16565b905092915050565b6002806003811115611a6457fe5b600e60009054906101000a900460ff166003811115611a7f57fe5b14611af2576040517f08c379a000000000000000000000000000000000000000000000000000000000815260040180806020018281038252600f8152602001807f496e636f7272656374207374617465000000000000000000000000000000000081525060200191505060405180910390fd5b60011515611afe614276565b151514611b73576040517f08c379a00000000000000000000000000000000000000000000000000000000081526004018080602001828103825260138152602001807f4f7261636c65206e6f74207265736f6c7665640000000000000000000000000081525060200191505060405180910390fd5b611b7b61432d565b601d819055507fffffffffffffffffffffffffffffffffffffffffffffffffffffffffffffffff601d5414611bc6576000601e60046101000a81548160ff0219169083151502179055505b611bce6143ec565b601d547fb68033fc92a074d9abf426e141fb581f2382af561ab9ac6d87220be2f7c5ea0260405160405180910390a250565b6003806003811115611c0e57fe5b600e60009054906101000a900460ff166003811115611c2957fe5b14611c9c576040517f08c379a000000000000000000000000000000000000000000000000000000000815260040180806020018281038252600f8152602001807f496e636f7272656374207374617465000000000000000000000000000000000081525060200191505060405180910390fd5b601f60003373ffffffffffffffffffffffffffffffffffffffff1673ffffffffffffffffffffffffffffffffffffffff16815260200190815260200160002060009054906101000a900460ff1615611d5c576040517f08c379a00000000000000000000000000000000000000000000000000000000081526004018080602001828103825260118152602001807f416c72656164792077697468647261776e00000000000000000000000000000081525060200191505060405180910390fd5b6001601f60003373ffffffffffffffffffffffffffffffffffffffff1673ffffffffffffffffffffffffffffffffffffffff16815260200190815260200160002060006101000a81548160ff021916908315150217905550601e60049054906101000a900460ff16611dd557611dd061445d565b611dde565b611ddd614533565b5b50565b6001806003811115611def57fe5b600e60009054906101000a900460ff166003811115611e0a57fe5b14611e7d576040517f08c379a000000000000000000000000000000000000000000000000000000000815260040180806020018281038252600f8152602001807f496e636f7272656374207374617465000000000000000000000000000000000081525060200191505060405180910390fd5b82600b548110611ef5576040517f08c379a00000000000000000000000000000000000000000000000000000000081526004018080602001828103825260198152602001807f5468697320746f6b656e20646f6573206e6f742065786973740000000000000081525060200191505060405180910390fd5b8260008111611f6c576040517f08c379a00000000000000000000000000000000000000000000000000000000081526004018080602001828103825260198152602001807f416d6f756e74206d7573742062652061626f7665207a65726f0000000000000081525060200191505060405180910390fd5b6000611fa8600a611f9a600b601060008b81526020019081526020016000205461463e90919063ffffffff16565b6146c490919063ffffffff16565b90506000611fc06018896146c490919063ffffffff16565b905081881015612038576040517f08c379a00000000000000000000000000000000000000000000000000000000081526004018080602001828103825260148152602001807f5072696365206e6f74203130252068696768657200000000000000000000000081525060200191505060405180910390fd5b808610156120ae576040517f08c379a00000000000000000000000000000000000000000000000000000000081526004018080602001828103825260178152602001807f4f6e6520686f757227732072656e74206d696e696d756d00000000000000000081525060200191505060405180910390fd5b662386f26fc1000088101561212b576040517f08c379a00000000000000000000000000000000000000000000000000000000081526004018080602001828103825260178152602001807f4d696e696d756d2072656e74616c20302e30312044616900000000000000000081525060200191505060405180910390fd5b6121348761470e565b61213e8688614c87565b600061214988612773565b90503373ffffffffffffffffffffffffffffffffffffffff168173ffffffffffffffffffffffffffffffffffffffff16141561218e576121898989614d91565b61242e565b6121b56001601a60008b815260200190815260200160002054614e2d90919063ffffffff16565b601a60008a81526020019081526020016000208190555088601960008a81526020019081526020016000206000601a60008c81526020019081526020016000205481526020019081526020016000206001018190555033601960008a81526020019081526020016000206000601a60008c815260200190815260200160002054815260200190815260200160002060000160006101000a81548173ffffffffffffffffffffffffffffffffffffffff021916908373ffffffffffffffffffffffffffffffffffffffff16021790555042601860008a815260200190815260200160002081905550601c600089815260200190815260200160002060003373ffffffffffffffffffffffffffffffffffffffff1673ffffffffffffffffffffffffffffffffffffffff16815260200190815260200160002060009054906101000a900460ff166123dc576001601c60008a815260200190815260200160002060003373ffffffffffffffffffffffffffffffffffffffff1673ffffffffffffffffffffffffffffffffffffffff16815260200190815260200160002060006101000a81548160ff021916908315150217905550601b6000898152602001908152602001600020339080600181540180825580915050600190039060005260206000200160009091909190916101000a81548173ffffffffffffffffffffffffffffffffffffffff021916908373ffffffffffffffffffffffffffffffffffffffff1602179055505b6123e881338b8b614eb5565b87893373ffffffffffffffffffffffffffffffffffffffff167ff31de299869a9c4bcad2bafc2e290031d2a7102799d817cb41b090e6a1dd6d4760405160405180910390a45b505050505050505050565b612454838383604051806020016040528060008152506135b8565b505050565b60136020528060005260406000206000915090505481565b601e60049054906101000a900460ff1681565b60008061249b836002614fba90919063ffffffff16565b50905080915050919050565b6000806124b383612921565b905060006124c084612773565b90506011600085815260200190815260200160002060008273ffffffffffffffffffffffffffffffffffffffff1673ffffffffffffffffffffffffffffffffffffffff1681526020019081526020016000205482106125245760009250505061258c565b612587826011600087815260200190815260200160002060008473ffffffffffffffffffffffffffffffffffffffff1673ffffffffffffffffffffffffffffffffffffffff16815260200190815260200160002054614fe990919063ffffffff16565b925050505b919050565b6011602052816000526040600020602052806000526040600020600091509150505481565b60186020528060005260406000206000915090505481565b60018060038111156125dc57fe5b600e60009054906101000a900460ff1660038111156125f757fe5b1461266a576040517f08c379a000000000000000000000000000000000000000000000000000000000815260040180806020018281038252600f8152602001807f496e636f7272656374207374617465000000000000000000000000000000000081525060200191505060405180910390fd5b82600081116126e1576040517f08c379a00000000000000000000000000000000000000000000000000000000081526004018080602001828103825260198152602001807f416d6f756e74206d7573742062652061626f7665207a65726f0000000000000081525060200191505060405180910390fd5b82600b548110612759576040517f08c379a00000000000000000000000000000000000000000000000000000000081526004018080602001828103825260198152602001807f5468697320746f6b656e20646f6573206e6f742065786973740000000000000081525060200191505060405180910390fd5b6127628461470e565b61276c8585614c87565b5050505050565b60006127a3826040518060600160405280602981526020016167266029913960026150339092919063ffffffff16565b9050919050565b606060098054600181600116156101000203166002900480601f0160208091040260200160405190810160405280929190818152602001828054600181600116156101000203166002900480156128425780601f1061281757610100808354040283529160200191612842565b820191906000526020600020905b81548152906001019060200180831161282557829003601f168201915b5050505050905090565b60008073ffffffffffffffffffffffffffffffffffffffff168273ffffffffffffffffffffffffffffffffffffffff1614156128d3576040517f08c379a000000000000000000000000000000000000000000000000000000000815260040180806020018281038252602a8152602001806166fc602a913960400191505060405180910390fd5b61291a600160008473ffffffffffffffffffffffffffffffffffffffff1673ffffffffffffffffffffffffffffffffffffffff168152602001908152602001600020615052565b9050919050565b600061298362015180612975612953601760008781526020019081526020016000205442614fe990919063ffffffff16565b601060008781526020019081526020016000205461463e90919063ffffffff16565b6146c490919063ffffffff16565b9050919050565b612992614186565b73ffffffffffffffffffffffffffffffffffffffff16600a60009054906101000a900473ffffffffffffffffffffffffffffffffffffffff1673ffffffffffffffffffffffffffffffffffffffff1614612a54576040517f08c379a00000000000000000000000000000000000000000000000000000000081526004018080602001828103825260208152602001807f4f776e61626c653a2063616c6c6572206973206e6f7420746865206f776e657281525060200191505060405180910390fd5b600073ffffffffffffffffffffffffffffffffffffffff16600a60009054906101000a900473ffffffffffffffffffffffffffffffffffffffff1673ffffffffffffffffffffffffffffffffffffffff167f8be0079c531659141344cd1fd0a4f28419497f9722a3daafe3b4186f6b6457e060405160405180910390a36000600a60006101000a81548173ffffffffffffffffffffffffffffffffffffffff021916908373ffffffffffffffffffffffffffffffffffffffff160217905550565b6000806003811115612b2357fe5b600e60009054906101000a900460ff166003811115612b3e57fe5b14612bb1576040517f08c379a000000000000000000000000000000000000000000000000000000000815260040180806020018281038252600f8152602001807f496e636f7272656374207374617465000000000000000000000000000000000081525060200191505060405180910390fd5b612bb9614186565b73ffffffffffffffffffffffffffffffffffffffff16600a60009054906101000a900473ffffffffffffffffffffffffffffffffffffffff1673ffffffffffffffffffffffffffffffffffffffff1614612c7b576040517f08c379a00000000000000000000000000000000000000000000000000000000081526004018080602001828103825260208152602001807f4f776e61626c653a2063616c6c6572206973206e6f7420746865206f776e657281525060200191505060405180910390fd5b612c8730600c54615067565b612cd7600c5484848080601f016020809104026020016040519081016040528093929190818152602001838380828437600081840152601f19601f8201169050808301925050505050505061525b565b612ced6001600c54614e2d90919063ffffffff16565b600c81905550600b54600c541415612d0857612d076143ec565b5b505050565b6001806003811115612d1b57fe5b600e60009054906101000a900460ff166003811115612d3657fe5b14612da9576040517f08c379a000000000000000000000000000000000000000000000000000000000815260040180806020018281038252600f8152602001807f496e636f7272656374207374617465000000000000000000000000000000000081525060200191505060405180910390fd5b610e104203601e60009054906101000a900463ffffffff1663ffffffff1610612e3a576040517f08c379a00000000000000000000000000000000000000000000000000000000081526004018080602001828103825260178152602001807f4d61726b657420686173206e6f742066696e697368656400000000000000000081525060200191505060405180910390fd5b612e4261328c565b612e4a6143ec565b600115157fb282d809a37929e90947aa1697802696b8bd3ef03401dea95b465ae493d64abb60405160405180910390a250565b60126020528060005260406000206000915090505481565b612eef6011600083815260200190815260200160002060003373ffffffffffffffffffffffffffffffffffffffff1673ffffffffffffffffffffffffffffffffffffffff1681526020019081526020016000205482613615565b50565b60176020528060005260406000206000915090505481565b6000600a60009054906101000a900473ffffffffffffffffffffffffffffffffffffffff16905090565b606060078054600181600116156101000203166002900480601f016020809104026020016040519081016040528092919081815260200182805460018160011615610100020316600290048015612fcc5780601f10612fa157610100808354040283529160200191612fcc565b820191906000526020600020905b815481529060010190602001808311612faf57829003601f168201915b5050505050905090565b600f60009054906101000a900473ffffffffffffffffffffffffffffffffffffffff1681565b601e60009054906101000a900463ffffffff1681565b601d5481565b613020614186565b73ffffffffffffffffffffffffffffffffffffffff168273ffffffffffffffffffffffffffffffffffffffff1614156130c1576040517f08c379a00000000000000000000000000000000000000000000000000000000081526004018080602001828103825260198152602001807f4552433732313a20617070726f766520746f2063616c6c65720000000000000081525060200191505060405180910390fd5b80600560006130ce614186565b73ffffffffffffffffffffffffffffffffffffffff1673ffffffffffffffffffffffffffffffffffffffff16815260200190815260200160002060008473ffffffffffffffffffffffffffffffffffffffff1673ffffffffffffffffffffffffffffffffffffffff16815260200190815260200160002060006101000a81548160ff0219169083151502179055508173ffffffffffffffffffffffffffffffffffffffff1661317b614186565b73ffffffffffffffffffffffffffffffffffffffff167f17307eab39ab6107e8899845ad3d59bd9653f200f220920489ca2b5937696c3183604051808215151515815260200191505060405180910390a35050565b60166020528060005260406000206000915090505481565b6000806015600084815260200190815260200160002060003373ffffffffffffffffffffffffffffffffffffffff1673ffffffffffffffffffffffffffffffffffffffff16815260200190815260200160002054905060006132558260145461463e90919063ffffffff16565b9050600061327f6016600087815260200190815260200160002054836146c490919063ffffffff16565b9050809350505050919050565b600180600381111561329a57fe5b600e60009054906101000a900460ff1660038111156132b557fe5b14613328576040517f08c379a000000000000000000000000000000000000000000000000000000000815260040180806020018281038252600f8152602001807f496e636f7272656374207374617465000000000000000000000000000000000081525060200191505060405180910390fd5b60008090505b600b5481101561334e576133418161470e565b808060010191505061332e565b5050565b600d5481565b600180600381111561336657fe5b600e60009054906101000a900460ff16600381111561338157fe5b146133f4576040517f08c379a000000000000000000000000000000000000000000000000000000000815260040180806020018281038252600f8152602001807f496e636f7272656374207374617465000000000000000000000000000000000081525060200191505060405180910390fd5b81600b54811061346c576040517f08c379a00000000000000000000000000000000000000000000000000000000081526004018080602001828103825260198152602001807f5468697320746f6b656e20646f6573206e6f742065786973740000000000000081525060200191505060405180910390fd5b8261347681612773565b73ffffffffffffffffffffffffffffffffffffffff163373ffffffffffffffffffffffffffffffffffffffff1614613516576040517f08c379a00000000000000000000000000000000000000000000000000000000081526004018080602001828103825260098152602001807f4e6f74206f776e6572000000000000000000000000000000000000000000000081525060200191505060405180910390fd5b6010600085815260200190815260200160002054851161359e576040517f08c379a00000000000000000000000000000000000000000000000000000000081526004018080602001828103825260188152602001807f4e6577207072696365206d75737420626520686967686572000000000000000081525060200191505060405180910390fd5b6135a78461470e565b6135b18585614d91565b5050505050565b600061360f576040517f08c379a00000000000000000000000000000000000000000000000000000000081526004018080602001828103825260248152602001806166a06024913960400191505060405180910390fd5b50505050565b600180600381111561362357fe5b600e60009054906101000a900460ff16600381111561363e57fe5b146136b1576040517f08c379a000000000000000000000000000000000000000000000000000000000815260040180806020018281038252600f8152602001807f496e636f7272656374207374617465000000000000000000000000000000000081525060200191505060405180910390fd5b81600b548110613729576040517f08c379a00000000000000000000000000000000000000000000000000000000081526004018080602001828103825260198152602001807f5468697320746f6b656e20646f6573206e6f742065786973740000000000000081525060200191505060405180910390fd5b83600081116137a0576040517f08c379a00000000000000000000000000000000000000000000000000000000081526004018080602001828103825260198152602001807f416d6f756e74206d7573742062652061626f7665207a65726f0000000000000081525060200191505060405180910390fd5b6137a98461470e565b60006011600086815260200190815260200160002060003373ffffffffffffffffffffffffffffffffffffffff1673ffffffffffffffffffffffffffffffffffffffff16815260200190815260200160002054905060008111156138635785811015613813578095505b61381d86866152e5565b3373ffffffffffffffffffffffffffffffffffffffff1685877ff02d3ef90a5110daf1fc2ab511a90b5c3fc58591405de80c06dfff0fd6b42ea860405160405180910390a45b505050505050565b600e60019054906101000a900473ffffffffffffffffffffffffffffffffffffffff1681565b600e60009054906101000a900460ff1681565b60606138af82614169565b613904576040517f08c379a000000000000000000000000000000000000000000000000000000000815260040180806020018281038252602f815260200180616813602f913960400191505060405180910390fd5b6060600860008481526020019081526020016000208054600181600116156101000203166002900480601f0160208091040260200160405190810160405280929190818152602001828054600181600116156101000203166002900480156139ad5780601f10613982576101008083540402835291602001916139ad565b820191906000526020600020905b81548152906001019060200180831161399057829003601f168201915b505050505090506000600980546001816001161561010002031660029004905014156139dc5780915050613b88565b600081511115613ab5576009816040516020018083805460018160011615610100020316600290048015613a475780601f10613a25576101008083540402835291820191613a47565b820191906000526020600020905b815481529060010190602001808311613a33575b505082805190602001908083835b60208310613a785780518252602082019150602081019050602083039250613a55565b6001836020036101000a03801982511681845116808217855250505050505090500192505050604051602081830303815290604052915050613b88565b6009613ac0846155ff565b6040516020018083805460018160011615610100020316600290048015613b1e5780601f10613afc576101008083540402835291820191613b1e565b820191906000526020600020905b815481529060010190602001808311613b0a575b505082805190602001908083835b60208310613b4f5780518252602082019150602081019050602083039250613b2c565b6001836020036101000a038019825116818451168082178552505050505050905001925050506040516020818303038152906040529150505b919050565b60145481565b6000600560008473ffffffffffffffffffffffffffffffffffffffff1673ffffffffffffffffffffffffffffffffffffffff16815260200190815260200160002060008373ffffffffffffffffffffffffffffffffffffffff1673ffffffffffffffffffffffffffffffffffffffff16815260200190815260200160002060009054906101000a900460ff16905092915050565b601a6020528060005260406000206000915090505481565b613c47614186565b73ffffffffffffffffffffffffffffffffffffffff16600a60009054906101000a900473ffffffffffffffffffffffffffffffffffffffff1673ffffffffffffffffffffffffffffffffffffffff1614613d09576040517f08c379a00000000000000000000000000000000000000000000000000000000081526004018080602001828103825260208152602001807f4f776e61626c653a2063616c6c6572206973206e6f7420746865206f776e657281525060200191505060405180910390fd5b600073ffffffffffffffffffffffffffffffffffffffff168173ffffffffffffffffffffffffffffffffffffffff161415613d8f576040517f08c379a00000000000000000000000000000000000000000000000000000000081526004018080602001828103825260268152602001806166566026913960400191505060405180910390fd5b8073ffffffffffffffffffffffffffffffffffffffff16600a60009054906101000a900473ffffffffffffffffffffffffffffffffffffffff1673ffffffffffffffffffffffffffffffffffffffff167f8be0079c531659141344cd1fd0a4f28419497f9722a3daafe3b4186f6b6457e060405160405180910390a380600a60006101000a81548173ffffffffffffffffffffffffffffffffffffffff021916908373ffffffffffffffffffffffffffffffffffffffff16021790555050565b6019602052816000526040600020602052806000526040600020600091509150508060000160009054906101000a900473ffffffffffffffffffffffffffffffffffffffff16908060010154905082565b600b5481565b60006003811115613eb357fe5b600e60009054906101000a900460ff166003811115613ece57fe5b1415613f42576040517f08c379a000000000000000000000000000000000000000000000000000000000815260040180806020018281038252600f8152602001807f496e636f7272656374207374617465000000000000000000000000000000000081525060200191505060405180910390fd5b60016003811115613f4f57fe5b600e60009054906101000a900460ff166003811115613f6a57fe5b1415613fde576040517f08c379a000000000000000000000000000000000000000000000000000000000815260040180806020018281038252600f8152602001807f496e636f7272656374207374617465000000000000000000000000000000000081525060200191505060405180910390fd5b60008090505b600b548110156141005760006011600083815260200190815260200160002060003373ffffffffffffffffffffffffffffffffffffffff1673ffffffffffffffffffffffffffffffffffffffff16815260200190815260200160002054905060008111156140f25760006011600084815260200190815260200160002060003373ffffffffffffffffffffffffffffffffffffffff1673ffffffffffffffffffffffffffffffffffffffff168152602001908152602001600020819055506140ac3382615746565b3373ffffffffffffffffffffffffffffffffffffffff1682827ff02d3ef90a5110daf1fc2ab511a90b5c3fc58591405de80c06dfff0fd6b42ea860405160405180910390a45b508080600101915050613fe4565b50565b60008061412f6201518060106000868152602001908152602001600020546146c490919063ffffffff16565b905060008114156141435742915050614164565b61415e81614150856124a7565b6146c490919063ffffffff16565b42019150505b919050565b600061417f8260026158a090919063ffffffff16565b9050919050565b600033905090565b816004600083815260200190815260200160002060006101000a81548173ffffffffffffffffffffffffffffffffffffffff021916908373ffffffffffffffffffffffffffffffffffffffff160217905550808273ffffffffffffffffffffffffffffffffffffffff1661420183612773565b73ffffffffffffffffffffffffffffffffffffffff167f8c5be1e5ebec7d5bd14f71427d1e84f3dd0314c0f7b2291e5b200ac8c7c3b92560405160405180910390a45050565b6000614255826000016158ba565b9050919050565b600061426b83600001836158cb565b60001c905092915050565b6000600e60019054906101000a900473ffffffffffffffffffffffffffffffffffffffff1673ffffffffffffffffffffffffffffffffffffffff16637f8d429e600d546040518263ffffffff1660e01b81526004018082815260200191505060206040518083038186803b1580156142ed57600080fd5b505afa158015614301573d6000803e3d6000fd5b505050506040513d602081101561431757600080fd5b8101908080519060200190929190505050905090565b600080600e60019054906101000a900473ffffffffffffffffffffffffffffffffffffffff1673ffffffffffffffffffffffffffffffffffffffff1663d09cc57e600d546040518263ffffffff1660e01b81526004018082815260200191505060206040518083038186803b1580156143a557600080fd5b505afa1580156143b9573d6000803e3d6000fd5b505050506040513d60208110156143cf57600080fd5b810190808051906020019092919050505090508060001c91505090565b6004600e60009054906101000a900460ff16600381111561440957fe5b1061441057fe5b6001600e60009054906101000a900460ff16600381111561442d57fe5b01600381111561443957fe5b600e60006101000a81548160ff0219169083600381111561445657fe5b0217905550565b600061446a601d546131e8565b9050600081116144e2576040517f08c379a000000000000000000000000000000000000000000000000000000000815260040180806020018281038252600c8152602001807f4e6f7420612077696e6e6572000000000000000000000000000000000000000081525060200191505060405180910390fd5b6144ec3382615746565b803373ffffffffffffffffffffffffffffffffffffffff167f0e72eb54add8566fa8248d61d8dc2b9953fbec55cfec138cdc887c8e34df495160405160405180910390a350565b6000601260003373ffffffffffffffffffffffffffffffffffffffff1673ffffffffffffffffffffffffffffffffffffffff168152602001908152602001600020549050600081116145ed576040517f08c379a000000000000000000000000000000000000000000000000000000000815260040180806020018281038252600c8152602001807f50616964206e6f2072656e74000000000000000000000000000000000000000081525060200191505060405180910390fd5b6145f73382615746565b803373ffffffffffffffffffffffffffffffffffffffff167f40db9a7a1327f1f949933daff746d2d9be9f2ff608d832e39b6764f5f15a957360405160405180910390a350565b60008083141561465157600090506146be565b600082840290508284828161466257fe5b04146146b9576040517f08c379a00000000000000000000000000000000000000000000000000000000081526004018080602001828103825260218152602001806167716021913960400191505060405180910390fd5b809150505b92915050565b600061470683836040518060400160405280601a81526020017f536166654d6174683a206469766973696f6e206279207a65726f00000000000081525061594e565b905092915050565b3073ffffffffffffffffffffffffffffffffffffffff1661472e82612773565b73ffffffffffffffffffffffffffffffffffffffff1614614c6c57600061475482612921565b9050600061476183612773565b905060006011600085815260200190815260200160002060008373ffffffffffffffffffffffffffffffffffffffff1673ffffffffffffffffffffffffffffffffffffffff1681526020019081526020016000205483106148de5761487b6148598461484b6011600089815260200190815260200160002060008773ffffffffffffffffffffffffffffffffffffffff1673ffffffffffffffffffffffffffffffffffffffff1681526020019081526020016000205461483d601760008b81526020019081526020016000205442614fe990919063ffffffff16565b61463e90919063ffffffff16565b6146c490919063ffffffff16565b6017600087815260200190815260200160002054614e2d90919063ffffffff16565b90506011600085815260200190815260200160002060008373ffffffffffffffffffffffffffffffffffffffff1673ffffffffffffffffffffffffffffffffffffffff1681526020019081526020016000205492506148d984615a14565b6148e2565b4290505b614945836011600087815260200190815260200160002060008573ffffffffffffffffffffffffffffffffffffffff1673ffffffffffffffffffffffffffffffffffffffff16815260200190815260200160002054614fe990919063ffffffff16565b6011600086815260200190815260200160002060008473ffffffffffffffffffffffffffffffffffffffff1673ffffffffffffffffffffffffffffffffffffffff1681526020019081526020016000208190555060006149c1601760008781526020019081526020016000205483614fe990919063ffffffff16565b9050614a26816015600088815260200190815260200160002060008673ffffffffffffffffffffffffffffffffffffffff1673ffffffffffffffffffffffffffffffffffffffff16815260200190815260200160002054614e2d90919063ffffffff16565b6015600087815260200190815260200160002060008573ffffffffffffffffffffffffffffffffffffffff1673ffffffffffffffffffffffffffffffffffffffff16815260200190815260200160002081905550614aa0816016600088815260200190815260200160002054614e2d90919063ffffffff16565b6016600087815260200190815260200160002081905550614b0984601260008673ffffffffffffffffffffffffffffffffffffffff1673ffffffffffffffffffffffffffffffffffffffff16815260200190815260200160002054614e2d90919063ffffffff16565b601260008573ffffffffffffffffffffffffffffffffffffffff1673ffffffffffffffffffffffffffffffffffffffff16815260200190815260200160002081905550614b72846013600088815260200190815260200160002054614e2d90919063ffffffff16565b6013600087815260200190815260200160002081905550614b9e84601454614e2d90919063ffffffff16565b601481905550848373ffffffffffffffffffffffffffffffffffffffff166015600088815260200190815260200160002060008673ffffffffffffffffffffffffffffffffffffffff1673ffffffffffffffffffffffffffffffffffffffff168152602001908152602001600020547f546973069ae90def7e0f35cbcc913204b901977831dd1400264247313c2e765260405160405180910390a484847fbd6a0009de32b24a5a6a1a6d50ef5ad8a8a09b7329cfc44c65b36c3e91bea91d60405160405180910390a3505050505b42601760008381526020019081526020016000208190555050565b614cea826011600084815260200190815260200160002060003373ffffffffffffffffffffffffffffffffffffffff1673ffffffffffffffffffffffffffffffffffffffff16815260200190815260200160002054614e2d90919063ffffffff16565b6011600083815260200190815260200160002060003373ffffffffffffffffffffffffffffffffffffffff1673ffffffffffffffffffffffffffffffffffffffff16815260200190815260200160002081905550614d483383615c13565b3373ffffffffffffffffffffffffffffffffffffffff1681837fe1f2f21fb1114ab2d2decad00b03b417c36f962c5bb4d917ab391fb546df0e4560405160405180910390a45050565b81601060008381526020019081526020016000208190555081601960008381526020019081526020016000206000601a6000858152602001908152602001600020548152602001908152602001600020600101819055508060106000838152602001908152602001600020547f4a02295c87a60873dbea741004d8f588cc9f62f944eefe5e5d8ae8e629cc9ddb60405160405180910390a35050565b600080828401905083811015614eab576040517f08c379a000000000000000000000000000000000000000000000000000000000815260040180806020018281038252601b8152602001807f536166654d6174683a206164646974696f6e206f766572666c6f77000000000081525060200191505060405180910390fd5b8091505092915050565b600073ffffffffffffffffffffffffffffffffffffffff168473ffffffffffffffffffffffffffffffffffffffff1614158015614f1f5750600073ffffffffffffffffffffffffffffffffffffffff168373ffffffffffffffffffffffffffffffffffffffff1614155b614f91576040517f08c379a00000000000000000000000000000000000000000000000000000000081526004018080602001828103825260208152602001807f43616e6e6f742073656e6420746f2f66726f6d207a65726f206164647265737381525060200191505060405180910390fd5b816010600083815260200190815260200160002081905550614fb4848483615da1565b50505050565b600080600080614fcd8660000186615fe4565b915091508160001c8160001c8090509350935050509250929050565b600061502b83836040518060400160405280601e81526020017f536166654d6174683a207375627472616374696f6e206f766572666c6f77000081525061607d565b905092915050565b6000615046846000018460001b8461613d565b60001c90509392505050565b600061506082600001616233565b9050919050565b600073ffffffffffffffffffffffffffffffffffffffff168273ffffffffffffffffffffffffffffffffffffffff16141561510a576040517f08c379a00000000000000000000000000000000000000000000000000000000081526004018080602001828103825260208152602001807f4552433732313a206d696e7420746f20746865207a65726f206164647265737381525060200191505060405180910390fd5b61511381614169565b15615186576040517f08c379a000000000000000000000000000000000000000000000000000000000815260040180806020018281038252601c8152602001807f4552433732313a20746f6b656e20616c7265616479206d696e7465640000000081525060200191505060405180910390fd5b61519260008383616244565b6151e381600160008573ffffffffffffffffffffffffffffffffffffffff1673ffffffffffffffffffffffffffffffffffffffff16815260200190815260200160002061624990919063ffffffff16565b506151fa818360026162639092919063ffffffff16565b50808273ffffffffffffffffffffffffffffffffffffffff16600073ffffffffffffffffffffffffffffffffffffffff167fddf252ad1be2c89b69c2b068fc378daa952ba7f163c4a11628f55a4df523b3ef60405160405180910390a45050565b61526482614169565b6152b9576040517f08c379a000000000000000000000000000000000000000000000000000000000815260040180806020018281038252602c8152602001806167be602c913960400191505060405180910390fd5b806008600084815260200190815260200160002090805190602001906152e092919061658e565b505050565b816011600083815260200190815260200160002060003373ffffffffffffffffffffffffffffffffffffffff1673ffffffffffffffffffffffffffffffffffffffff16815260200190815260200160002054101561533f57fe5b600061534a82612773565b90503373ffffffffffffffffffffffffffffffffffffffff168173ffffffffffffffffffffffffffffffffffffffff16141561549f576000610e10905060006153af601860008681526020019081526020016000205442614fe990919063ffffffff16565b90508181101561549c5760006153e2601860106000888152602001908152602001600020546146c490919063ffffffff16565b905060006153f98385614fe990919063ffffffff16565b9050600061542285615414848661463e90919063ffffffff16565b6146c490919063ffffffff16565b9050600061548982601160008b815260200190815260200160002060003373ffffffffffffffffffffffffffffffffffffffff1673ffffffffffffffffffffffffffffffffffffffff16815260200190815260200160002054614fe990919063ffffffff16565b905088811015615497578098505b505050505b50505b615502836011600085815260200190815260200160002060003373ffffffffffffffffffffffffffffffffffffffff1673ffffffffffffffffffffffffffffffffffffffff16815260200190815260200160002054614fe990919063ffffffff16565b6011600084815260200190815260200160002060003373ffffffffffffffffffffffffffffffffffffffff1673ffffffffffffffffffffffffffffffffffffffff168152602001908152602001600020819055503373ffffffffffffffffffffffffffffffffffffffff168173ffffffffffffffffffffffffffffffffffffffff161480156155e1575060006011600084815260200190815260200160002060003373ffffffffffffffffffffffffffffffffffffffff1673ffffffffffffffffffffffffffffffffffffffff16815260200190815260200160002054145b156155f0576155ef82615a14565b5b6155fa3384615746565b505050565b60606000821415615647576040518060400160405280600181526020017f30000000000000000000000000000000000000000000000000000000000000008152509050615741565b600082905060005b60008214615671578080600101915050600a828161566957fe5b04915061564f565b60608167ffffffffffffffff8111801561568a57600080fd5b506040519080825280601f01601f1916602001820160405280156156bd5781602001600182028036833780820191505090505b50905060006001830390508593505b6000841461573957600a84816156de57fe5b0660300160f81b828280600190039350815181106156f857fe5b60200101907effffffffffffffffffffffffffffffffffffffffffffffffffffffffffffff1916908160001a905350600a848161573157fe5b0493506156cc565b819450505050505b919050565b600f60009054906101000a900473ffffffffffffffffffffffffffffffffffffffff1673ffffffffffffffffffffffffffffffffffffffff1663a9059cbb83836040518363ffffffff1660e01b8152600401808373ffffffffffffffffffffffffffffffffffffffff1673ffffffffffffffffffffffffffffffffffffffff16815260200182815260200192505050602060405180830381600087803b1580156157ef57600080fd5b505af1158015615803573d6000803e3d6000fd5b505050506040513d602081101561581957600080fd5b810190808051906020019092919050505061589c576040517f08c379a00000000000000000000000000000000000000000000000000000000081526004018080602001828103825260148152602001807f43617368207472616e73666572206661696c656400000000000000000000000081525060200191505060405180910390fd5b5050565b60006158b2836000018360001b616298565b905092915050565b600081600001805490509050919050565b60008183600001805490501161592c576040517f08c379a00000000000000000000000000000000000000000000000000000000081526004018080602001828103825260228152602001806166346022913960400191505060405180910390fd5b82600001828154811061593b57fe5b9060005260206000200154905092915050565b600080831182906159fa576040517f08c379a00000000000000000000000000000000000000000000000000000000081526004018080602001828103825283818151815260200191508051906020019080838360005b838110156159bf5780820151818401526020810190506159a4565b50505050905090810190601f1680156159ec5780820380516001836020036101000a031916815260200191505b509250505060405180910390fd5b506000838581615a0657fe5b049050809150509392505050565b60008060008090505b600a811015615b4657615a4d6001601a600087815260200190815260200160002054614fe990919063ffffffff16565b601a600086815260200190815260200160002081905550601a600085815260200190815260200160002054925060196000858152602001908152602001600020600084815260200190815260200160002060000160009054906101000a900473ffffffffffffffffffffffffffffffffffffffff1691506000831415615adb57615ad6846162bb565b615b46565b60006011600086815260200190815260200160002060008473ffffffffffffffffffffffffffffffffffffffff1673ffffffffffffffffffffffffffffffffffffffff168152602001908152602001600020541115615b3957615b46565b8080600101915050615a1d565b503073ffffffffffffffffffffffffffffffffffffffff16615b6784612773565b73ffffffffffffffffffffffffffffffffffffffff1614615c0e576000615b8d84612773565b90506000601960008681526020019081526020016000206000858152602001908152602001600020600101549050615bc782848388614eb5565b8273ffffffffffffffffffffffffffffffffffffffff16857fdcd7d049706cf89eb40b5726d483d3aa2001e43b729f0f411cdda43c2fe59f5260405160405180910390a350505b505050565b600f60009054906101000a900473ffffffffffffffffffffffffffffffffffffffff1673ffffffffffffffffffffffffffffffffffffffff166323b872dd8330846040518463ffffffff1660e01b8152600401808473ffffffffffffffffffffffffffffffffffffffff1673ffffffffffffffffffffffffffffffffffffffff1681526020018373ffffffffffffffffffffffffffffffffffffffff1673ffffffffffffffffffffffffffffffffffffffff1681526020018281526020019350505050602060405180830381600087803b158015615cf057600080fd5b505af1158015615d04573d6000803e3d6000fd5b505050506040513d6020811015615d1a57600080fd5b8101908080519060200190929190505050615d9d576040517f08c379a00000000000000000000000000000000000000000000000000000000081526004018080602001828103825260148152602001807f43617368207472616e73666572206661696c656400000000000000000000000081525060200191505060405180910390fd5b5050565b8273ffffffffffffffffffffffffffffffffffffffff16615dc182612773565b73ffffffffffffffffffffffffffffffffffffffff1614615e2d576040517f08c379a00000000000000000000000000000000000000000000000000000000081526004018080602001828103825260298152602001806167ea6029913960400191505060405180910390fd5b600073ffffffffffffffffffffffffffffffffffffffff168273ffffffffffffffffffffffffffffffffffffffff161415615eb3576040517f08c379a000000000000000000000000000000000000000000000000000000000815260040180806020018281038252602481526020018061667c6024913960400191505060405180910390fd5b615ebe838383616244565b615ec960008261418e565b615f1a81600160008673ffffffffffffffffffffffffffffffffffffffff1673ffffffffffffffffffffffffffffffffffffffff16815260200190815260200160002061631d90919063ffffffff16565b50615f6c81600160008573ffffffffffffffffffffffffffffffffffffffff1673ffffffffffffffffffffffffffffffffffffffff16815260200190815260200160002061624990919063ffffffff16565b50615f83818360026162639092919063ffffffff16565b50808273ffffffffffffffffffffffffffffffffffffffff168473ffffffffffffffffffffffffffffffffffffffff167fddf252ad1be2c89b69c2b068fc378daa952ba7f163c4a11628f55a4df523b3ef60405160405180910390a4505050565b60008082846000018054905011616046576040517f08c379a000000000000000000000000000000000000000000000000000000000815260040180806020018281038252602281526020018061674f6022913960400191505060405180910390fd5b600084600001848154811061605757fe5b906000526020600020906002020190508060000154816001015492509250509250929050565b600083831115829061612a576040517f08c379a00000000000000000000000000000000000000000000000000000000081526004018080602001828103825283818151815260200191508051906020019080838360005b838110156160ef5780820151818401526020810190506160d4565b50505050905090810190601f16801561611c5780820380516001836020036101000a031916815260200191505b509250505060405180910390fd5b5060008385039050809150509392505050565b60008084600101600085815260200190815260200160002054905060008114158390616204576040517f08c379a00000000000000000000000000000000000000000000000000000000081526004018080602001828103825283818151815260200191508051906020019080838360005b838110156161c95780820151818401526020810190506161ae565b50505050905090810190601f1680156161f65780820380516001836020036101000a031916815260200191505b509250505060405180910390fd5b5084600001600182038154811061621757fe5b9060005260206000209060020201600101549150509392505050565b600081600001805490509050919050565b505050565b600061625b836000018360001b616337565b905092915050565b600061628f846000018460001b8473ffffffffffffffffffffffffffffffffffffffff1660001b6163a7565b90509392505050565b600080836001016000848152602001908152602001600020541415905092915050565b60006162c682612773565b90506162d58130600085614eb5565b818173ffffffffffffffffffffffffffffffffffffffff167fafcc8a4b82e5204af0a7a41fc84d1d60492410d031ee4ea1769a4f90fd1fb59d60405160405180910390a35050565b600061632f836000018360001b616483565b905092915050565b6000616343838361656b565b61639c5782600001829080600181540180825580915050600190039060005260206000200160009091909190915055826000018054905083600101600084815260200190815260200160002081905550600190506163a1565b600090505b92915050565b600080846001016000858152602001908152602001600020549050600081141561644e5784600001604051806040016040528086815260200185815250908060018154018082558091505060019003906000526020600020906002020160009091909190915060008201518160000155602082015181600101555050846000018054905085600101600086815260200190815260200160002081905550600191505061647c565b8285600001600183038154811061646157fe5b90600052602060002090600202016001018190555060009150505b9392505050565b6000808360010160008481526020019081526020016000205490506000811461655f57600060018203905060006001866000018054905003905060008660000182815481106164ce57fe5b90600052602060002001549050808760000184815481106164eb57fe5b906000526020600020018190555060018301876001016000838152602001908152602001600020819055508660000180548061652357fe5b60019003818190600052602060002001600090559055866001016000878152602001908152602001600020600090556001945050505050616565565b60009150505b92915050565b600080836001016000848152602001908152602001600020541415905092915050565b828054600181600116156101000203166002900490600052602060002090601f016020900481019282601f106165cf57805160ff19168380011785556165fd565b828001600101855582156165fd579182015b828111156165fc5782518255916020019190600101906165e1565b5b50905061660a919061660e565b5090565b61663091905b8082111561662c576000816000905550600101616614565b5090565b9056fe456e756d657261626c655365743a20696e646578206f7574206f6620626f756e64734f776e61626c653a206e6577206f776e657220697320746865207a65726f20616464726573734552433732313a207472616e7366657220746f20746865207a65726f20616464726573734f6e6c792074686520636f6e74726163742063616e206d616b65207472616e73666572734552433732313a20617070726f76652063616c6c6572206973206e6f74206f776e6572206e6f7220617070726f76656420666f7220616c6c4552433732313a2062616c616e636520717565727920666f7220746865207a65726f20616464726573734552433732313a206f776e657220717565727920666f72206e6f6e6578697374656e7420746f6b656e456e756d657261626c654d61703a20696e646578206f7574206f6620626f756e6473536166654d6174683a206d756c7469706c69636174696f6e206f766572666c6f774552433732313a20617070726f76656420717565727920666f72206e6f6e6578697374656e7420746f6b656e4552433732314d657461646174613a2055524920736574206f66206e6f6e6578697374656e7420746f6b656e4552433732313a207472616e73666572206f6620746f6b656e2074686174206973206e6f74206f776e4552433732314d657461646174613a2055524920717565727920666f72206e6f6e6578697374656e7420746f6b656e4552433732313a20617070726f76616c20746f2063757272656e74206f776e6572a2646970667358221220932aea84bd45adf34e5618ac3fc25bcf9476fa0f9878733ef8496e9e9f023ca464736f6c634300060600334f776e61626c653a206e6577206f776e657220697320746865207a65726f2061646472657373",
  "immutableReferences": {},
  "source": "pragma solidity 0.6.6;\n\nimport \"@openzeppelin/contracts/token/ERC721/ERC721.sol\";\nimport \"@openzeppelin/contracts/access/Ownable.sol\";\nimport \"@openzeppelin/contracts/math/SafeMath.sol\";\nimport \"@nomiclabs/buidler/console.sol\";\nimport \"./interfaces/ICash.sol\";\nimport \"./interfaces/IRealitio.sol\";\n\n/// @title RealityCards\n/// @author Andrew Stanger\n\ncontract RealityCards is ERC721, Ownable {\n\n    using SafeMath for uint256;\n\n    ////////////////////////////////////\n    //////// VARIABLES /////////////////\n    ////////////////////////////////////\n\n    ///// CONTRACT SETUP /////\n    /// @dev = how many outcomes/teams/NFTs etc \n    uint256 public numberOfTokens;\n    /// @dev counts how many NFTs have been minted \n    /// @dev when nftMintCount = numberOfTokens, increment state\n    uint256 private nftMintCount;\n    /// @dev the question ID of the question on realitio\n    bytes32 public questionId;\n    /// @dev only for _revertToPreviousOwner to prevent gas limits\n    uint256 constant private MAX_ITERATIONS = 10;\n    enum States {NFTSNOTMINTED, OPEN, LOCKED, WITHDRAW}\n    States public state; \n\n    ///// CONTRACT VARIABLES /////\n    IRealitio public realitio;\n    ICash public cash; \n\n    ///// PRICE, DEPOSITS, RENT /////\n    /// @dev in attodai (so $100 = 100000000000000000000)\n    mapping (uint256 => uint256) public price; \n    /// @dev keeps track of all the deposits for each token, for each owner\n    mapping (uint256 => mapping (address => uint256) ) public deposits; \n    /// @dev keeps track of all the rent paid by each user. So that it can be returned in case of an invalid market outcome.\n    mapping (address => uint256) public collectedPerUser;\n    /// @dev keeps track of all the rent paid for each token, front end only\n    mapping (uint256 => uint256) public collectedPerToken;\n    /// @dev an easy way to track the above across all tokens\n    uint256 public totalCollected; \n\n    ///// TIME /////\n    /// @dev how many seconds each user has held each token for, for determining winnings  \n    mapping (uint256 => mapping (address => uint256) ) public timeHeld;\n    /// @dev sums all the timeHelds for each. Not required, but saves on gas when paying out. Should always increment at the same time as timeHeld\n    mapping (uint256 => uint256) public totalTimeHeld; \n    /// @dev used to determine the rent due. Rent is due for the period (now - timeLastCollected), at which point timeLastCollected is set to now.\n    mapping (uint256 => uint256) public timeLastCollected; \n    /// @dev when a token was bought. Used to enforce minimum of one hour rental, also used in front end. Rent collection does not need this, only needs timeLastCollected.\n    mapping (uint256 => uint256) public timeAcquired; \n\n    ///// PREVIOUS OWNERS /////\n    /// @dev keeps track of all previous owners of a token, including the price, so that if the current owner's deposit runs out,\n    /// @dev ...ownership can be reverted to a previous owner with the previous price. Index 0 is NOT used, this tells the contract to foreclose.\n    /// @dev this does NOT keep a reliable list of all owners, if it reverts to a previous owner then the next owner will overwrite the owner that was in that slot.\n    mapping (uint256 => mapping (uint256 => rental) ) public ownerTracker;  \n    /// @dev tracks the position of the current owner in the ownerTracker mapping\n    mapping (uint256 => uint256) public currentOwnerIndex; \n    /// @dev the struct for ownerTracker\n    struct rental { address owner;\n                    uint256 price; }\n    /// @dev array of all owners of a token (for front end)\n    mapping (uint256 => address[]) public allOwners;\n    /// @dev preventing duplicates in allOwners\n    mapping (uint256 => mapping (address => bool)) private inAllOwners;\n\n    ///// MARKET RESOLUTION VARIABLES /////\n    uint256 public winningOutcome; \n    //// @dev when the question can be answered on Realitio. \n    uint32 public marketExpectedResolutionTime; \n    /// @dev If false, normal payout. If true, return all funds. Default true\n    bool public questionResolvedInvalid = true; \n    /// @dev prevent users withdrawing twice\n    mapping (address => bool) public userAlreadyWithdrawn;\n\n    ////////////////////////////////////\n    //////// CONSTRUCTOR ///////////////\n    ////////////////////////////////////\n\n    constructor(\n        address _owner, \n        uint256 _numberOfTokens, \n        ICash _addressOfCashContract, \n        IRealitio _addressOfRealitioContract, \n        uint32 _marketExpectedResolutionTime, \n        uint256 _templateId, \n        string memory _question, \n        address _arbitrator, \n        uint32 _timeout) \n        ERC721(\"realitycards.io\", \"RC\") public\n    {\n        // reassign ownership (because deployed using public seed)\n        transferOwnership(_owner);\n\n        // assign arguments to public variables\n        numberOfTokens = _numberOfTokens;\n        marketExpectedResolutionTime = _marketExpectedResolutionTime;\n        \n        // external contract variables:\n        realitio = _addressOfRealitioContract;\n        cash = _addressOfCashContract;\n\n        // Create the question on Realitio\n        questionId = _postQuestion(_templateId, _question, _arbitrator, _timeout, _marketExpectedResolutionTime, 0);\n    } \n\n    ////////////////////////////////////\n    //////// EVENTS ////////////////////\n    ////////////////////////////////////\n\n    event LogNewRental(address indexed newOwner, uint256 indexed newPrice, uint256 indexed tokenId);\n    event LogPriceChange(uint256 indexed newPrice, uint256 indexed tokenId);\n    event LogForeclosure(address indexed prevOwner, uint256 indexed tokenId);\n    event LogRentCollection(uint256 indexed rentCollected, uint256 indexed tokenId);\n    event LogReturnToPreviousOwner(uint256 indexed tokenId, address indexed previousOwner);\n    event LogDepositWithdrawal(uint256 indexed daiWithdrawn, uint256 indexed tokenId, address indexed returnedTo);\n    event LogDepositIncreased(uint256 indexed daiDeposited, uint256 indexed tokenId, address indexed sentBy);\n    event LogContractLocked(bool indexed didTheEventFinish);\n    event LogWinnerKnown(uint256 indexed winningOutcome);\n    event LogWinningsPaid(address indexed paidTo, uint256 indexed amountPaid);\n    event LogRentReturned(address indexed returnedTo, uint256 indexed amountReturned);\n    event LogTimeHeldUpdated(uint256 indexed newTimeHeld, address indexed owner, uint256 indexed tokenId);\n\n\n    ////////////////////////////////////\n    //////// INITIAL SETUP /////////////\n    ////////////////////////////////////\n\n    function mintNfts(string calldata _uri) external checkState(States.NFTSNOTMINTED) onlyOwner {\n        _mint(address(this), nftMintCount); \n        _setTokenURI(nftMintCount, _uri);\n        nftMintCount = nftMintCount.add(1);\n        if (nftMintCount == numberOfTokens) {\n            _incrementState();\n        }\n    }\n\n    ////////////////////////////////////\n    /////////// MODIFIERS //////////////\n    ////////////////////////////////////\n\n    modifier checkState(States currentState) {\n        require(state == currentState, \"Incorrect state\");\n        _;\n    }\n\n    /// @notice checks the token exists\n    modifier tokenExists(uint256 _tokenId) {\n        require(_tokenId < numberOfTokens, \"This token does not exist\");\n       _;\n    }\n\n    /// @notice what it says on the tin\n    modifier amountNotZero(uint256 _dai) {\n        require(_dai > 0, \"Amount must be above zero\");\n       _;\n    }\n\n    /// @notice what it says on the tin\n    modifier onlyTokenOwner(uint256 _tokenId) {\n        require(msg.sender == ownerOf(_tokenId), \"Not owner\");\n       _;\n    }\n\n    ////////////////////////////////////\n    //////// VIEW FUNCTIONS ////////////\n    ////////////////////////////////////\n\n    /// @dev called in collectRent function, and various other view functions \n    function rentOwed(uint256 _tokenId) public view returns (uint256) {\n        return price[_tokenId].mul(now.sub(timeLastCollected[_tokenId])).div(1 days);\n    }\n\n    /// @dev for front end only\n    /// @return how much the current owner has left of their deposit after deducting rent owed but not paid\n    function currentOwnerRemainingDeposit(uint256 _tokenId) public view returns (uint256) {\n        uint256 _rentOwed = rentOwed(_tokenId);\n        address _currentOwner = ownerOf(_tokenId);\n        if(_rentOwed >= deposits[_tokenId][_currentOwner]) {\n            return 0;\n        } else {\n            return deposits[_tokenId][_currentOwner].sub(_rentOwed);\n        }\n    }\n\n    /// @dev for front end only\n    /// @return how much the user has deposited (note: user not owner)\n    function userRemainingDeposit(uint256 _tokenId) external view returns (uint256) {\n        if(ownerOf(_tokenId) == msg.sender) {\n            return currentOwnerRemainingDeposit(_tokenId);\n        } else {\n            return deposits[_tokenId][msg.sender];\n        }\n    }\n\n    /// @dev for front end only\n    /// @return rental expiry time given current contract state\n    function rentalExpiryTime(uint256 _tokenId) external view returns (uint256) {\n        uint256 pps;\n        pps = price[_tokenId].div(1 days);\n        if (pps == 0) {\n            return now; //if price is so low that pps = 0 just return current time as a fallback\n        }\n        else {\n            return now + currentOwnerRemainingDeposit(_tokenId).div(pps);\n        }\n    }\n\n    /// @dev for front end and _payoutWinnings function\n    function getWinnings(uint256 _winningOutcome) public view returns (uint256) {\n        uint256 _winnersTimeHeld = timeHeld[_winningOutcome][msg.sender];\n        uint256 _numerator = totalCollected.mul(_winnersTimeHeld);\n        uint256 _winnings = _numerator.div(totalTimeHeld[_winningOutcome]);    \n        return _winnings;    \n    }\n    \n    ////////////////////////////////////\n    ///// EXTERNAL DAI FUNCTIONS ///////\n    ////////////////////////////////////\n\n    /// @notice common function for all outgoing DAI transfers\n    function _sendCash(address _to, uint256 _amount) internal { \n        require(cash.transfer(_to,_amount), \"Cash transfer failed\"); \n    }\n\n    /// @notice common function for all incoming DAI transfers\n    function _receiveCash(address _from, uint256 _amount) internal {  \n        require(cash.transferFrom(_from, address(this), _amount), \"Cash transfer failed\");\n    }\n\n    ////////////////////////////////////\n    //// EXTERNAL REALITIO FUNCTIONS ///\n    ////////////////////////////////////\n\n    /// @notice posts the question to realit.io\n    function _postQuestion(uint256 template_id, string memory question, address arbitrator, uint32 timeout, uint32 opening_ts, uint256 nonce) internal returns (bytes32) {\n        return realitio.askQuestion(template_id, question, arbitrator, timeout, opening_ts, nonce);\n    }\n\n    /// @notice gets the winning outcome from realitio\n    /// @dev the returned value is equivilent to tokenId\n    /// @dev this function call will revert if it has not yet resolved\n    function _getWinner() internal view returns(uint256) {\n        bytes32 _winningOutcome = realitio.resultFor(questionId);\n        return uint256(_winningOutcome);\n    }\n\n    /// @notice has the question been finalized on realitio?\n    function _isQuestionFinalized() internal view returns (bool) {\n        return realitio.isFinalized(questionId);\n    }\n\n    ////////////////////////////////////\n    //// MARKET RESOLUTION FUNCTIONS ///\n    ////////////////////////////////////\n\n    /// @notice checks whether the competition has ended (1 hour grace), if so moves to LOCKED state\n    /// @dev can be called by anyone \n    function lockContract() external checkState(States.OPEN) {\n        require(marketExpectedResolutionTime < (now - 1 hours), \"Market has not finished\");\n        // do a final rent collection before the contract is locked down\n        collectRentAllTokens();\n        _incrementState();\n        emit LogContractLocked(true);\n    }\n    /// @notice checks whether the Realitio question has resolved, and if yes, gets the winner\n    /// @dev can be called by anyone \n    function determineWinner() external checkState(States.LOCKED) {\n        require(_isQuestionFinalized() == true, \"Oracle not resolved\");\n        // get the winner. This will revert if answer is not resolved.\n        winningOutcome = _getWinner();\n        // check if question resolved invalid\n        if (winningOutcome !=  ((2**256)-1)) {\n            questionResolvedInvalid = false;\n        }\n        _incrementState();\n        emit LogWinnerKnown(winningOutcome);\n    }\n\n    /// @notice pays out winnings, or returns funds, based on questionResolvedInvalid bool\n    function withdraw() external checkState(States.WITHDRAW) {\n        require(!userAlreadyWithdrawn[msg.sender], \"Already withdrawn\");\n        userAlreadyWithdrawn[msg.sender] = true;\n        if (!questionResolvedInvalid) {\n            _payoutWinnings();\n        } else {\n             _returnRent();\n        }\n    }\n\n    /// @notice pays winnings\n    function _payoutWinnings() internal {\n        uint256 _winningsToTransfer = getWinnings(winningOutcome);\n        require(_winningsToTransfer > 0, \"Not a winner\");\n        _sendCash(msg.sender, _winningsToTransfer);\n        emit LogWinningsPaid(msg.sender, _winningsToTransfer);\n    }\n\n    /// @notice returns all funds to users in case of invalid outcome\n    function _returnRent() internal {\n        uint256 _rentCollected = collectedPerUser[msg.sender];\n        require(_rentCollected > 0, \"Paid no rent\");\n        _sendCash(msg.sender, _rentCollected);\n        emit LogRentReturned(msg.sender, _rentCollected);\n    }\n\n    /// @notice withdraw full deposit after markets have resolved\n    /// @dev the other withdraw deposit functions are locked when markets have closed so must use this one\n    /// @dev can be called in either locked or withdraw state\n    /// @dev this function is also different in that it does \n    /// @dev ... not attempt to collect rent or transfer ownership to a previous owner\n    function withdrawDepositAfterMarketEnded() external {\n        require(state != States.NFTSNOTMINTED, \"Incorrect state\");\n        require(state != States.OPEN, \"Incorrect state\");\n        for (uint i = 0; i < numberOfTokens; i++) {\n\n            uint256 _depositToReturn = deposits[i][msg.sender];\n\n            if (_depositToReturn > 0) {\n                deposits[i][msg.sender] = 0;\n                _sendCash(msg.sender, _depositToReturn);\n                emit LogDepositWithdrawal(_depositToReturn, i, msg.sender);\n            }\n        }\n    }\n\n    ////////////////////////////////////\n    ///// MAIN FUNCTIONS- EXTERNAL /////\n    ////////////////////////////////////\n    /// @dev basically functions that have checkState(States.OPEN) modifier\n\n    /// @notice collects rent for all tokens\n    /// @dev cannot be external because it is called within the lockContract function, therefore public\n    function collectRentAllTokens() public checkState(States.OPEN) {\n       for (uint i = 0; i < numberOfTokens; i++) {\n            _collectRent(i);\n        }\n    }\n    \n    /// @notice to rent a token\n    function newRental(uint256 _newPrice, uint256 _tokenId, uint256 _deposit) external checkState(States.OPEN) tokenExists(_tokenId) amountNotZero(_deposit) {\n        uint256 _currentPricePlusTenPercent = price[_tokenId].mul(11).div(10);\n        uint256 _oneHoursDeposit = _newPrice.div(24);\n        require(_newPrice >= _currentPricePlusTenPercent, \"Price not 10% higher\");\n        require(_deposit >= _oneHoursDeposit, \"One hour's rent minimum\");\n        require(_newPrice >= 0.01 ether, \"Minimum rental 0.01 Dai\");\n        \n        _collectRent(_tokenId);\n        _depositDai(_deposit, _tokenId);\n\n        address _currentOwner = ownerOf(_tokenId);\n\n        if (_currentOwner == msg.sender) { // bought by current owner- just change price\n            _changePrice(_newPrice, _tokenId);\n        } else {   // bought by new user- the normal flow\n            // update internals\n            currentOwnerIndex[_tokenId] = currentOwnerIndex[_tokenId].add(1); \n            ownerTracker[_tokenId][currentOwnerIndex[_tokenId]].price = _newPrice;\n            ownerTracker[_tokenId][currentOwnerIndex[_tokenId]].owner = msg.sender; \n            timeAcquired[_tokenId] = now;\n            // just for front end:\n            if (!inAllOwners[_tokenId][msg.sender]) {\n                inAllOwners[_tokenId][msg.sender] = true;\n                allOwners[_tokenId].push(msg.sender);\n            }\n            // externals\n            _transferTokenTo(_currentOwner, msg.sender, _newPrice, _tokenId);\n            emit LogNewRental(msg.sender, _newPrice, _tokenId); \n        }\n    }\n\n    /// @notice add new dai deposit to an existing rental\n    /// @dev it is possible a user's deposit could be reduced to zero following _collectRent\n    /// @dev they would then increase their deposit despite no longer owning it\n    /// @dev this is ok, they can still withdraw via withdrawDeposit. \n    /// @dev can be called by anyone- you can top up someone else's deposit if you wish!\n    function depositDai(uint256 _dai, uint256 _tokenId) external checkState(States.OPEN) amountNotZero(_dai) tokenExists(_tokenId) {\n        _collectRent(_tokenId);\n        _depositDai(_dai, _tokenId);\n    }\n\n    /// @notice increase the price of an existing rental\n    /// @dev 10% price increase not required for existing owners\n    function changePrice(uint256 _newPrice, uint256 _tokenId) external checkState(States.OPEN) tokenExists(_tokenId) onlyTokenOwner(_tokenId) {\n        require(_newPrice > price[_tokenId], \"New price must be higher\"); \n        _collectRent(_tokenId);\n        _changePrice(_newPrice, _tokenId);\n    }\n    \n    /// @notice withdraw deposit\n    /// @dev do not need to be the current owner\n    /// @dev public because called by exit\n    function withdrawDeposit(uint256 _daiToWithdraw, uint256 _tokenId) public checkState(States.OPEN) tokenExists(_tokenId) amountNotZero(_daiToWithdraw) {\n        _collectRent(_tokenId);\n        uint256 _remainingDeposit = deposits[_tokenId][msg.sender];\n        // deposits may be lower (or zero) then when function called due to _collectRent \n        if (_remainingDeposit > 0) { \n            if (_remainingDeposit < _daiToWithdraw) {\n                _daiToWithdraw = _remainingDeposit;\n            }\n            _withdrawDeposit(_daiToWithdraw, _tokenId);\n            emit LogDepositWithdrawal(_daiToWithdraw, _tokenId, msg.sender);\n        }\n    }\n\n    /// @notice withdraw full deposit\n    /// @dev do not need to be the current owner\n    /// @dev no modifiers because they are on withdrawDeposit\n    function exit(uint256 _tokenId) external {\n        withdrawDeposit(deposits[_tokenId][msg.sender], _tokenId);\n    }\n\n    ////////////////////////////////////\n    ///// MAIN FUNCTIONS- INTERNAL /////\n    ////////////////////////////////////\n\n    /// @notice collects rent for a specific token\n    /// @dev also calculates and updates how long the current user has held the token for\n    /// @dev is not a problem if called externally, but making internal over public to save gas\n    function _collectRent(uint256 _tokenId) internal {\n        //only collect rent if the token is owned (ie, if owned by the contract this implies unowned)\n        if (ownerOf(_tokenId) != address(this)) {\n            \n            uint256 _rentOwed = rentOwed(_tokenId);\n            address _currentOwner = ownerOf(_tokenId);\n            uint256 _timeOfThisCollection;\n            \n            if (_rentOwed >= deposits[_tokenId][_currentOwner]) {\n                // run out of deposit. Calculate time it was actually paid for, then revert to previous owner \n                _timeOfThisCollection = timeLastCollected[_tokenId].add(((now.sub(timeLastCollected[_tokenId])).mul(deposits[_tokenId][_currentOwner]).div(_rentOwed)));\n                _rentOwed = deposits[_tokenId][_currentOwner]; // take what's left     \n                _revertToPreviousOwner(_tokenId);\n                \n            } else  {\n                // normal collection\n                _timeOfThisCollection = now;\n            }\n\n            // decrease deposit by rent owed\n            deposits[_tokenId][_currentOwner] = deposits[_tokenId][_currentOwner].sub(_rentOwed);\n\n            // update time held and amount collected variables\n            uint256 _timeHeldToIncrement = (_timeOfThisCollection.sub(timeLastCollected[_tokenId])); \n            // note that if _revertToPreviousOwner was called above, _currentOwner will no longer refer to the\n            // ... actual current owner. This is correct- we are updating the variables of the user who just\n            // ... had their rent collected, not the new owner, if there is one\n            timeHeld[_tokenId][_currentOwner] = timeHeld[_tokenId][_currentOwner].add(_timeHeldToIncrement);\n            totalTimeHeld[_tokenId] = totalTimeHeld[_tokenId].add(_timeHeldToIncrement);\n            collectedPerUser[_currentOwner] = collectedPerUser[_currentOwner].add(_rentOwed);\n            collectedPerToken[_tokenId] = collectedPerToken[_tokenId].add(_rentOwed);\n            totalCollected = totalCollected.add(_rentOwed);\n\n            emit LogTimeHeldUpdated(timeHeld[_tokenId][_currentOwner], _currentOwner, _tokenId);\n            emit LogRentCollection(_rentOwed, _tokenId);\n        }\n\n        // timeLastCollected is updated regardless of whether the token is owned, so that the clock starts ticking\n        // ... when the first owner buys it, because this function is run before ownership changes upon calling\n        // ... newRental\n        timeLastCollected[_tokenId] = now;\n    }\n\n    /// @dev depositDai is split into two, because it needs to be called direct from newRental\n    /// @dev ... without collecing rent first (otherwise it would be collected twice, possibly causing logic errors)\n    function _depositDai(uint256 _dai, uint256 _tokenId) internal {\n        deposits[_tokenId][msg.sender] = deposits[_tokenId][msg.sender].add(_dai);\n        _receiveCash(msg.sender, _dai);\n        emit LogDepositIncreased(_dai, _tokenId, msg.sender);\n    }\n\n    /// @dev changePrice is split into two, because it needs to be called direct from newRental\n    /// @dev ... without collecing rent first (otherwise it would be collected twice, possibly causing logic errors)\n    function _changePrice(uint256 _newPrice, uint256 _tokenId) internal {\n        // below is the only instance when price is modifed outside of the _transferTokenTo function\n        price[_tokenId] = _newPrice;\n        ownerTracker[_tokenId][currentOwnerIndex[_tokenId]].price = _newPrice;\n        emit LogPriceChange(price[_tokenId], _tokenId);\n    }\n\n    /// @notice actually withdraw the deposit and call _revertToPreviousOwner if necessary\n    function _withdrawDeposit(uint256 _daiToWithdraw, uint256 _tokenId) internal {\n        assert(deposits[_tokenId][msg.sender] >= _daiToWithdraw);\n        address _currentOwner = ownerOf(_tokenId);\n\n        // must rent for minimum of 1 hour for current owner\n        if(_currentOwner == msg.sender) {\n            uint256 _oneHour = 3600;\n            uint256 _secondsOwned = now.sub(timeAcquired[_tokenId]);\n            if (_secondsOwned < _oneHour) { \n                uint256 _oneHoursDeposit = price[_tokenId].div(24);\n                uint256 _secondsStillToPay = _oneHour.sub(_secondsOwned);\n                uint256 _minDepositToLeave = _oneHoursDeposit.mul(_secondsStillToPay).div(_oneHour);\n                uint256 _maxDaiToWithdraw = deposits[_tokenId][msg.sender].sub(_minDepositToLeave);\n                if (_maxDaiToWithdraw < _daiToWithdraw) {\n                    _daiToWithdraw = _maxDaiToWithdraw;\n                }\n            }\n        }\n\n        deposits[_tokenId][msg.sender] = deposits[_tokenId][msg.sender].sub(_daiToWithdraw);\n        \n        if(_currentOwner == msg.sender && deposits[_tokenId][msg.sender] == 0) {\n            _revertToPreviousOwner(_tokenId);\n        }\n        _sendCash(msg.sender, _daiToWithdraw);\n    }\n\n    /// @notice if a users deposit runs out, either return to previous owner or foreclose\n    function _revertToPreviousOwner(uint256 _tokenId) internal {\n        uint256 _index;\n        address _previousOwner;\n\n        // loop max ten times before just assigning it to that owner, to prevent block limit\n        for (uint i=0; i < MAX_ITERATIONS; i++)  {\n            currentOwnerIndex[_tokenId] = currentOwnerIndex[_tokenId].sub(1); // currentOwnerIndex will now point to  previous owner\n            _index = currentOwnerIndex[_tokenId]; // just for readability\n            _previousOwner = ownerTracker[_tokenId][_index].owner;\n\n            // if no previous owners. price -> zero, foreclose\n            if (_index == 0) {\n                _foreclose(_tokenId);\n                break;\n            } else if (deposits[_tokenId][_previousOwner] > 0) {\n                break;\n            }  \n        }   \n\n        // if the above loop did not end in foreclose, then transfer to previous owner\n        if (ownerOf(_tokenId) != address(this)) {\n            address _currentOwner = ownerOf(_tokenId);\n            uint256 _oldPrice = ownerTracker[_tokenId][_index].price;\n            _transferTokenTo(_currentOwner, _previousOwner, _oldPrice, _tokenId);\n            emit LogReturnToPreviousOwner(_tokenId, _previousOwner);\n        }\n    }\n\n    /// @notice return token to the contract and return price to zero\n    function _foreclose(uint256 _tokenId) internal {\n        address _currentOwner = ownerOf(_tokenId);\n        // third field is price, ie price goes to zero\n        _transferTokenTo(_currentOwner, address(this), 0, _tokenId);\n        emit LogForeclosure(_currentOwner, _tokenId);\n    }\n\n    /// @notice transfer ERC 721 between users\n    /// @dev there is no event emitted as this is handled in ERC721.sol\n    function _transferTokenTo(address _currentOwner, address _newOwner, uint256 _newPrice, uint256 _tokenId) internal {\n        require(_currentOwner != address(0) && _newOwner != address(0) , \"Cannot send to/from zero address\");\n        price[_tokenId] = _newPrice;\n        _transfer(_currentOwner, _newOwner, _tokenId);\n    }\n\n    ////////////////////////////////////\n    ///////// OTHER FUNCTIONS //////////\n    ////////////////////////////////////\n\n    /// @dev should only be called thrice\n    function _incrementState() internal {\n        assert(uint256(state) < 4);\n        state = States(uint(state) + 1);\n    }\n\n    /// @dev change state to WITHDRAW to lock contract and return all funds\n    /// @dev in case Oracle never resolves, or a bug is found \n    function circuitBreaker() external {\n        require(msg.sender == owner() || now > (marketExpectedResolutionTime + 4 weeks), \"Not owner or too early\");\n        questionResolvedInvalid = true;\n        state = States.WITHDRAW;\n    }\n\n    /// @dev only the contract can transfer the NFTs\n    function transferFrom(address from, address to, uint256 tokenId) override public {\n        require(false, \"Only the contract can make transfers\");\n        from;\n        to;\n        tokenId;\n    }\n\n    function safeTransferFrom(address from, address to, uint256 tokenId, bytes memory _data) override public {\n        require(false, \"Only the contract can make transfers\");\n        from;\n        to;\n        tokenId;\n        _data;\n    }\n}\n\n",
  "sourcePath": "/Users/mcplums/Repos/RealityCards/contracts/RealityCards.sol",
  "compiler": {
    "name": "solc",
    "version": "0.6.6+commit.6c089d02.Emscripten.clang"
  },
  "schemaVersion": "3.1.0",
  "updatedAt": "2020-05-10T10:27:38.137Z",
  "devdoc": {
    "author": "Andrew Stanger",
    "methods": {
      "approve(address,uint256)": {
        "details": "Approves another address to transfer the given token ID The zero address indicates there is no approved address. There can only be one approved address per token at a given time. Can only be called by the token owner or an approved operator.",
        "params": {
          "to": "address to be approved for the given token ID",
          "tokenId": "uint256 ID of the token to be approved"
        }
      },
      "balanceOf(address)": {
        "details": "Gets the balance of the specified address.",
        "params": {
          "owner": "address to query the balance of"
        },
        "returns": {
          "_0": "uint256 representing the amount owned by the passed address"
        }
      },
      "baseURI()": {
        "details": "Returns the base URI set via {_setBaseURI}. This will be automatically added as a prefix in {tokenURI} to each token's URI, or to the token ID if no specific URI is set for that token ID."
      },
      "changePrice(uint256,uint256)": {
        "details": "10% price increase not required for existing owners"
      },
      "circuitBreaker()": {
        "details": "change state to WITHDRAW to lock contract and return all fundsin case Oracle never resolves, or a bug is found "
      },
      "collectRentAllTokens()": {
        "details": "basically functions that have checkState(States.OPEN) modifiercannot be external because it is called within the lockContract function, therefore public"
      },
      "currentOwnerRemainingDeposit(uint256)": {
        "details": "for front end only",
        "returns": {
          "_0": "how much the current owner has left of their deposit after deducting rent owed but not paid"
        }
      },
      "depositDai(uint256,uint256)": {
        "details": "it is possible a user's deposit could be reduced to zero following _collectRentthey would then increase their deposit despite no longer owning itthis is ok, they can still withdraw via withdrawDeposit. can be called by anyone- you can top up someone else's deposit if you wish!"
      },
      "determineWinner()": {
        "details": "can be called by anyone "
      },
      "exit(uint256)": {
        "details": "do not need to be the current ownerno modifiers because they are on withdrawDeposit"
      },
      "getApproved(uint256)": {
        "details": "Gets the approved address for a token ID, or zero if no address set Reverts if the token ID does not exist.",
        "params": {
          "tokenId": "uint256 ID of the token to query the approval of"
        },
        "returns": {
          "_0": "address currently approved for the given token ID"
        }
      },
      "getWinnings(uint256)": {
        "details": "for front end and _payoutWinnings function"
      },
      "isApprovedForAll(address,address)": {
        "details": "Tells whether an operator is approved by a given owner.",
        "params": {
          "operator": "operator address which you want to query the approval of",
          "owner": "owner address which you want to query the approval of"
        },
        "returns": {
          "_0": "bool whether the given operator is approved by the given owner"
        }
      },
      "lockContract()": {
        "details": "can be called by anyone "
      },
      "name()": {
        "details": "Gets the token name.",
        "returns": {
          "_0": "string representing the token name"
        }
      },
      "owner()": {
        "details": "Returns the address of the current owner."
      },
      "ownerOf(uint256)": {
        "details": "Gets the owner of the specified token ID.",
        "params": {
          "tokenId": "uint256 ID of the token to query the owner of"
        },
        "returns": {
          "_0": "address currently marked as the owner of the given token ID"
        }
      },
      "renounceOwnership()": {
        "details": "Leaves the contract without owner. It will not be possible to call `onlyOwner` functions anymore. Can only be called by the current owner.     * NOTE: Renouncing ownership will leave the contract without an owner, thereby removing any functionality that is only available to the owner."
      },
      "rentOwed(uint256)": {
        "details": "called in collectRent function, and various other view functions "
      },
      "rentalExpiryTime(uint256)": {
        "details": "for front end only",
        "returns": {
          "_0": "rental expiry time given current contract state"
        }
      },
      "safeTransferFrom(address,address,uint256)": {
        "details": "Safely transfers the ownership of a given token ID to another address If the target address is a contract, it must implement {IERC721Receiver-onERC721Received}, which is called upon a safe transfer, and return the magic value `bytes4(keccak256(\"onERC721Received(address,address,uint256,bytes)\"))`; otherwise, the transfer is reverted. Requires the msg.sender to be the owner, approved, or operator",
        "params": {
          "from": "current owner of the token",
          "to": "address to receive the ownership of the given token ID",
          "tokenId": "uint256 ID of the token to be transferred"
        }
      },
      "setApprovalForAll(address,bool)": {
        "details": "Sets or unsets the approval of a given operator An operator is allowed to transfer all tokens of the sender on their behalf.",
        "params": {
          "approved": "representing the status of the approval to be set",
          "operator": "operator address to set the approval"
        }
      },
      "supportsInterface(bytes4)": {
        "details": "See {IERC165-supportsInterface}.     * Time complexity O(1), guaranteed to always use less than 30 000 gas."
      },
      "symbol()": {
        "details": "Gets the token symbol.",
        "returns": {
          "_0": "string representing the token symbol"
        }
      },
      "tokenByIndex(uint256)": {
        "details": "Gets the token ID at a given index of all the tokens in this contract Reverts if the index is greater or equal to the total number of tokens.",
        "params": {
          "index": "uint256 representing the index to be accessed of the tokens list"
        },
        "returns": {
          "_0": "uint256 token ID at the given index of the tokens list"
        }
      },
      "tokenOfOwnerByIndex(address,uint256)": {
        "details": "Gets the token ID at a given index of the tokens list of the requested owner.",
        "params": {
          "index": "uint256 representing the index to be accessed of the requested tokens list",
          "owner": "address owning the tokens list to be accessed"
        },
        "returns": {
          "_0": "uint256 token ID at the given index of the tokens list owned by the requested address"
        }
      },
      "tokenURI(uint256)": {
        "details": "Returns the URI for a given token ID. May return an empty string.     * If a base URI is set (via {_setBaseURI}), it is added as a prefix to the token's own URI (via {_setTokenURI}).     * If there is a base URI but no token URI, the token's ID will be used as its URI when appending it to the base URI. This pattern for autogenerated token URIs can lead to large gas savings.     * .Examples |=== |`_setBaseURI()` |`_setTokenURI()` |`tokenURI()` | \"\" | \"\" | \"\" | \"\" | \"token.uri/123\" | \"token.uri/123\" | \"token.uri/\" | \"123\" | \"token.uri/123\" | \"token.uri/\" | \"\" | \"token.uri/<tokenId>\" |===     * Requirements:     * - `tokenId` must exist."
      },
      "totalSupply()": {
        "details": "Gets the total amount of tokens stored by the contract.",
        "returns": {
          "_0": "uint256 representing the total amount of tokens"
        }
      },
      "transferFrom(address,address,uint256)": {
        "details": "only the contract can transfer the NFTs"
      },
      "transferOwnership(address)": {
        "details": "Transfers ownership of the contract to a new account (`newOwner`). Can only be called by the current owner."
      },
      "userRemainingDeposit(uint256)": {
        "details": "for front end only",
        "returns": {
          "_0": "how much the user has deposited (note: user not owner)"
        }
      },
      "withdrawDeposit(uint256,uint256)": {
        "details": "do not need to be the current ownerpublic because called by exit"
      },
      "withdrawDepositAfterMarketEnded()": {
        "details": "the other withdraw deposit functions are locked when markets have closed so must use this onecan be called in either locked or withdraw statethis function is also different in that it does ... not attempt to collect rent or transfer ownership to a previous owner"
      }
    },
    "title": "RealityCards"
  },
  "userdoc": {
    "methods": {
      "changePrice(uint256,uint256)": {
        "notice": "increase the price of an existing rental"
      },
      "collectRentAllTokens()": {
        "notice": "///////////////////////////////// // MAIN FUNCTIONS- EXTERNAL ///// /////////////////////////////////collects rent for all tokens"
      },
      "constructor": "///////////////////////////////// ///// CONSTRUCTOR /////////////// /////////////////////////////////",
      "depositDai(uint256,uint256)": {
        "notice": "add new dai deposit to an existing rental"
      },
      "determineWinner()": {
        "notice": "checks whether the Realitio question has resolved, and if yes, gets the winner"
      },
      "exit(uint256)": {
        "notice": "withdraw full deposit"
      },
      "lockContract()": {
        "notice": "///////////////////////////////// / MARKET RESOLUTION FUNCTIONS /// /////////////////////////////////checks whether the competition has ended (1 hour grace), if so moves to LOCKED state"
      },
      "mintNfts(string)": {
        "notice": "///////////////////////////////// ///// INITIAL SETUP ///////////// /////////////////////////////////"
      },
      "newRental(uint256,uint256,uint256)": {
        "notice": "to rent a token"
      },
      "rentOwed(uint256)": {
        "notice": "///////////////////////////////// ///// VIEW FUNCTIONS //////////// /////////////////////////////////"
      },
      "withdraw()": {
        "notice": "pays out winnings, or returns funds, based on questionResolvedInvalid bool"
      },
      "withdrawDeposit(uint256,uint256)": {
        "notice": "withdraw deposit"
      },
      "withdrawDepositAfterMarketEnded()": {
        "notice": "withdraw full deposit after markets have resolved"
      }
    }
  }
}